[
  {
    "id": 0,
    "description": "2 accounts and 1 valid transaction.",
    "chainIdSequencer": 1001,
    "defaultChainId": 1000,
    "sequencerAddress": "0x617b3a3528F9cDd6630fd3301B9c8911F7Bf063D",
    "genesis": [
      {
        "address": "0x617b3a3528F9cDd6630fd3301B9c8911F7Bf063D",
        "pvtKey": "0x28b2b0318721be8c8339199172cd7cc8f5e273800a35616ec893083a4b32c02e",
        "balance": "100000000000000000000",
        "nonce": "0"
      },
      {
        "address": "0x4d5Cf5032B2a844602278b01199ED191A86c93ff",
        "pvtKey": "0x4d27a600dce8c29b7bd080e29a26972377dbb04d7a27d919adbb602bf13cfd23",
        "balance": "200000000000000000000",
        "nonce": "0"
      }
    ],
    "expectedOldRoot": "0xbdde84a5932a2f0a1a4c6c51f3b64ea265d4f1461749298cfdd09b31122ce0d6",
    "txs": [
      {
        "id": 0,
        "from": "0x617b3a3528F9cDd6630fd3301B9c8911F7Bf063D",
        "to": "0x4d5Cf5032B2a844602278b01199ED191A86c93ff",
        "nonce": 0,
        "value": "100000000000000000",
        "gasLimit": 100000,
        "gasPrice": "1000000000",
        "chainId": 1001,
        "rawTx": "0xf86d80843b9aca00830186a0944d5cf5032b2a844602278b01199ed191a86c93ff88016345785d8a0000808207f5a01186622d03b6b8da7cf111d1ccba5bb185c56deae6a322cebc6dda0556f3cb979f910c26408b64b51c5da36ba2f38ef55ba1cee719d5a6c01225968799907432",
        "reason": "",
        "customRawTx": "0xee80843b9aca00830186a0944d5cf5032b2a844602278b01199ed191a86c93ff88016345785d8a0000808203e980801186622d03b6b8da7cf111d1ccba5bb185c56deae6a322cebc6dda0556f3cb9700910c26408b64b51c5da36ba2f38ef55ba1cee719d5a6c012259687999074321b"
      }
    ],
    "expectedNewRoot": "0x51a06272e5d84cac0be27f8ccb0e67026ac69f481f9f0c18ec4f712f9dd7b2a5",
    "expectedNewLeafs": {
      "0x617b3a3528f9cdd6630fd3301b9c8911f7bf063d": {
        "balance": "99900000000000000000",
        "nonce": "1"
      },
      "0x4d5cf5032b2a844602278b01199ed191a86c93ff": {
        "balance": "200100000000000000000",
        "nonce": "0"
      }
    },
    "batchL2Data": "0xee80843b9aca00830186a0944d5cf5032b2a844602278b01199ed191a86c93ff88016345785d8a0000808203e980801186622d03b6b8da7cf111d1ccba5bb185c56deae6a322cebc6dda0556f3cb9700910c26408b64b51c5da36ba2f38ef55ba1cee719d5a6c012259687999074321b",
    "globalExitRoot": "0x090bcaf734c4f06c93954a827b45a6e8c67b8e0fd1e0a35a1c5982d6961828f9",
    "newLocalExitRoot": "0x17c04c3760510b48c6012742c540a81aba4bca2f78b9d14bfd2f123e2e53ea3e",
    "inputHash": "0xf517a5b91c2a73b003c816f4043a6aedf73941dbee6a4db623445fde64c32c87",
    "batchHashData": "0x3d53e7e5be04b00f66af647512af6d17e4e767a5e41fa1293010b885c9fe06db",
    "oldLocalExitRoot": "0x17c04c3760510b48c6012742c540a81aba4bca2f78b9d14bfd2f123e2e53ea3e",
    "timestamp": 1944498031,
    "receipts": [
      {
        "txId": 0,
        "receipt": {
          "transactionHash": "0x0cc3dd49b941271b19df83ba6733bed4023fb82c28d40e6ef863ca589d4a933a",
          "transactionIndex": 0,
          "blockNumber": 0,
          "from": "0x617b3a3528F9cDd6630fd3301B9c8911F7Bf063D",
          "to": "0x4d5Cf5032B2a844602278b01199ED191A86c93ff",
          "cumulativeGasUsed": 21000,
          "gasUsedForTx": 21000,
          "contractAddress": null,
          "logs": 0,
          "logsBloom": 0,
          "status": 1,
          "blockHash": "0xf69712cf848cc32b5bcbb75391ea8be8d478ecc3ad0c70ec8f1343ea813d2181"
        }
      }
    ],
    "blockInfo": {
      "blockNumber": 0,
      "gasUsedForTx": 21000,
      "blockGasLimit": 30000000,
      "parentHash": "0x0000000000000000000000000000000000000000000000000000000000000000",
      "txHashRoot": "0x0000000000000000000000000000000000000000000000000000000000000000",
      "receiptRoot": "0x0000000000000000000000000000000000000000000000000000000000000000",
      "timestamp": 1944498031
    }
  },
  {
    "id": 1,
    "description": "5 accounts. 2 valid tx, 3 invalid tx (same amount as balance, invalid nonce, invalid chain id 1)",
    "chainIdSequencer": 1001,
    "defaultChainId": 1000,
    "sequencerAddress": "0x617b3a3528F9cDd6630fd3301B9c8911F7Bf063D",
    "genesis": [
      {
        "address": "0x617b3a3528F9cDd6630fd3301B9c8911F7Bf063D",
        "pvtKey": "0x28b2b0318721be8c8339199172cd7cc8f5e273800a35616ec893083a4b32c02e",
        "balance": "100000000000000000000",
        "nonce": "0"
      },
      {
        "address": "0x4d5Cf5032B2a844602278b01199ED191A86c93ff",
        "pvtKey": "0x4d27a600dce8c29b7bd080e29a26972377dbb04d7a27d919adbb602bf13cfd23",
        "balance": "200000000000000000000",
        "nonce": "0"
      },
      {
        "address": "0xeB17ce701E9D92724AA2ABAdA7E4B28830597Dd9",
        "pvtKey": "0x1d0722aff4b29780e9a78e0bf28d5e127fb276cfbb0c3eb6a0e1728401777f17",
        "balance": "100000000000000000000",
        "nonce": "0"
      },
      {
        "address": "0x187Bd40226A7073b49163b1f6c2b73d8F2aa8478",
        "pvtKey": "0xd049e68efa0d85a3824c0b79f6817a986bb0cb3a075bcc2699118eca881d70ce",
        "balance": "000000000000000000000",
        "nonce": "0"
      },
      {
        "address": "0xabCcEd19d7f290B84608feC510bEe872CC8F5112",
        "pvtKey": "0x0b929d50d7fda8155539e6befa96ff297e3e9ebce4d908f570310bdf774cb32b",
        "balance": "000000000000000000000",
        "nonce": "0"
      }
    ],
    "expectedOldRoot": "0x2c055addfeb8325a51c6f704ae768ee8ecf651e5289c6475159ba41de029bf71",
    "txs": [
      {
        "id": 0,
        "from": "0x617b3a3528F9cDd6630fd3301B9c8911F7Bf063D",
        "to": "0x4d5Cf5032B2a844602278b01199ED191A86c93ff",
        "nonce": 0,
        "value": "100000000000000000",
        "gasLimit": 100000,
        "gasPrice": "1000000000",
        "chainId": 1001,
        "rawTx": "0xf86d80843b9aca00830186a0944d5cf5032b2a844602278b01199ed191a86c93ff88016345785d8a0000808207f5a01186622d03b6b8da7cf111d1ccba5bb185c56deae6a322cebc6dda0556f3cb979f910c26408b64b51c5da36ba2f38ef55ba1cee719d5a6c01225968799907432",
        "reason": "",
        "customRawTx": "0xee80843b9aca00830186a0944d5cf5032b2a844602278b01199ed191a86c93ff88016345785d8a0000808203e980801186622d03b6b8da7cf111d1ccba5bb185c56deae6a322cebc6dda0556f3cb9700910c26408b64b51c5da36ba2f38ef55ba1cee719d5a6c012259687999074321b"
      },
      {
        "id": 1,
        "from": "0xeB17ce701E9D92724AA2ABAdA7E4B28830597Dd9",
        "to": "0x187Bd40226A7073b49163b1f6c2b73d8F2aa8478",
        "nonce": 0,
        "value": "1000000000000000000000",
        "gasLimit": 100000,
        "gasPrice": "1000000000",
        "chainId": 1001,
        "rawTx": "0xf86f80843b9aca00830186a094187bd40226a7073b49163b1f6c2b73d8f2aa8478893635c9adc5dea00000808207f5a04c4fbe884ee8912360f4d00199fd189f11b27fa25eca1b9dcfd3ea686e88042ea0113432240c9e7be8de1e8fc0894b68ff4d37528d820814527b5fa2bd034ef38f",
        "reason": "TX INVALID: Not enough funds to pay total transaction cost",
        "customRawTx": "0xef80843b9aca00830186a094187bd40226a7073b49163b1f6c2b73d8f2aa8478893635c9adc5dea00000808203e980804c4fbe884ee8912360f4d00199fd189f11b27fa25eca1b9dcfd3ea686e88042e113432240c9e7be8de1e8fc0894b68ff4d37528d820814527b5fa2bd034ef38f1b"
      },
      {
        "id": 2,
        "from": "0xeB17ce701E9D92724AA2ABAdA7E4B28830597Dd9",
        "to": "0x187Bd40226A7073b49163b1f6c2b73d8F2aa8478",
        "nonce": 0,
        "value": "1000000000000000000",
        "gasLimit": 100000,
        "gasPrice": "1000000000",
        "chainId": 1000,
        "rawTx": "0xf86e80843b9aca00830186a094187bd40226a7073b49163b1f6c2b73d8f2aa8478880de0b6b3a7640000808207f4a074ecb6abb3d84c322a4905c60199b8f422b79b940e8a853d580869268009ae31a023fb6caa5b3afc410b79d9b68bf851df1fd46fd6923cc481b3e273aeb92ce67d",
        "reason": "",
        "customRawTx": "0xee80843b9aca00830186a094187bd40226a7073b49163b1f6c2b73d8f2aa8478880de0b6b3a7640000808203e8808074ecb6abb3d84c322a4905c60199b8f422b79b940e8a853d580869268009ae3123fb6caa5b3afc410b79d9b68bf851df1fd46fd6923cc481b3e273aeb92ce67d1c"
      },
      {
        "id": 3,
        "from": "0xeB17ce701E9D92724AA2ABAdA7E4B28830597Dd9",
        "to": "0xabCcEd19d7f290B84608feC510bEe872CC8F5112",
        "nonce": 0,
        "value": "1000000000000000000",
        "gasLimit": 100000,
        "gasPrice": "1000000000",
        "chainId": 1001,
        "rawTx": "0xf86e80843b9aca00830186a094abcced19d7f290b84608fec510bee872cc8f5112880de0b6b3a7640000808207f5a0980717290b2314a735dc00db207c20d5a6461f73761c2022986fd78efa7e774da057de08eada05ec67eb78cceaa7be257cb12b5449aa0d7347dca655f94375c967",
        "reason": "TX INVALID: Invalid nonce",
        "customRawTx": "0xee80843b9aca00830186a094abcced19d7f290b84608fec510bee872cc8f5112880de0b6b3a7640000808203e98080980717290b2314a735dc00db207c20d5a6461f73761c2022986fd78efa7e774d57de08eada05ec67eb78cceaa7be257cb12b5449aa0d7347dca655f94375c9671b"
      },
      {
        "id": 4,
        "from": "0xeB17ce701E9D92724AA2ABAdA7E4B28830597Dd9",
        "to": "0xabCcEd19d7f290B84608feC510bEe872CC8F5112",
        "nonce": 0,
        "value": "1000000000000000000",
        "gasLimit": 100000,
        "gasPrice": "1000000000",
        "chainId": 0,
        "reason": "TX INVALID: Chain ID does not match",
        "customRawTx": "0xec80843b9aca00830186a094abcced19d7f290b84608fec510bee872cc8f5112880de0b6b3a764000080808080c58f68d4c65a9a131d17a426ab83da163a43e21f8811a70cd4ca79eb5d26f25d169e8e50ee8483669b2aef296e6dc68464e5af0dc582a54751ef50c2c9207b6b1c",
        "rawTx": "0xf86c80843b9aca00830186a094abcced19d7f290b84608fec510bee872cc8f5112880de0b6b3a7640000801ba02c92035bc11227e9e94ba066a6d77a65c43d29dfb4a855c9464e1b60fabd6334a07171c6dc84816ffcf025040cd6193ecef3928a0c4e4964ddba320826b76c725d"
      }
    ],
    "expectedNewRoot": "0x86e1c1c86bb1e1255b6949cf57f3fa00106c6acafe1e413ed7e01041be699467",
    "expectedNewLeafs": {
      "0x617b3a3528f9cdd6630fd3301b9c8911f7bf063d": {
        "balance": "99900021000000000000",
        "nonce": "1"
      },
      "0x4d5cf5032b2a844602278b01199ed191a86c93ff": {
        "balance": "200100000000000000000",
        "nonce": "0"
      },
      "0xeb17ce701e9d92724aa2abada7e4b28830597dd9": {
        "balance": "98999979000000000000",
        "nonce": "1"
      },
      "0x187bd40226a7073b49163b1f6c2b73d8f2aa8478": {
        "balance": "1000000000000000000",
        "nonce": "0"
      },
      "0xabCcEd19d7f290B84608feC510bEe872CC8F5112": {
        "pvtKey": "0x0b929d50d7fda8155539e6befa96ff297e3e9ebce4d908f570310bdf774cb32b",
        "balance": "000000000000000000000",
        "nonce": "0"
      }
    },
    "batchL2Data": "0xee80843b9aca00830186a0944d5cf5032b2a844602278b01199ed191a86c93ff88016345785d8a0000808203e980801186622d03b6b8da7cf111d1ccba5bb185c56deae6a322cebc6dda0556f3cb9700910c26408b64b51c5da36ba2f38ef55ba1cee719d5a6c012259687999074321bef80843b9aca00830186a094187bd40226a7073b49163b1f6c2b73d8f2aa8478893635c9adc5dea00000808203e980804c4fbe884ee8912360f4d00199fd189f11b27fa25eca1b9dcfd3ea686e88042e113432240c9e7be8de1e8fc0894b68ff4d37528d820814527b5fa2bd034ef38f1bee80843b9aca00830186a094187bd40226a7073b49163b1f6c2b73d8f2aa8478880de0b6b3a7640000808203e8808074ecb6abb3d84c322a4905c60199b8f422b79b940e8a853d580869268009ae3123fb6caa5b3afc410b79d9b68bf851df1fd46fd6923cc481b3e273aeb92ce67d1cee80843b9aca00830186a094abcced19d7f290b84608fec510bee872cc8f5112880de0b6b3a7640000808203e98080980717290b2314a735dc00db207c20d5a6461f73761c2022986fd78efa7e774d57de08eada05ec67eb78cceaa7be257cb12b5449aa0d7347dca655f94375c9671bec80843b9aca00830186a094abcced19d7f290b84608fec510bee872cc8f5112880de0b6b3a764000080808080c58f68d4c65a9a131d17a426ab83da163a43e21f8811a70cd4ca79eb5d26f25d169e8e50ee8483669b2aef296e6dc68464e5af0dc582a54751ef50c2c9207b6b1c",
    "globalExitRoot": "0x090bcaf734c4f06c93954a827b45a6e8c67b8e0fd1e0a35a1c5982d6961828f9",
    "newLocalExitRoot": "0x17c04c3760510b48c6012742c540a81aba4bca2f78b9d14bfd2f123e2e53ea3e",
    "inputHash": "0x4af17197ec87792e4e08768ab77e8af3fdb4fed72f1b7489457b198602029fd7",
    "batchHashData": "0x253ac429caeba4023e75180e02fbc3594e27c65ba8d5cc709bb26d9e6f6d892f",
    "oldLocalExitRoot": "0x17c04c3760510b48c6012742c540a81aba4bca2f78b9d14bfd2f123e2e53ea3e",
    "timestamp": 1944498031,
    "receipts": [
      {
        "txId": 0,
        "receipt": {
          "transactionHash": "0x0cc3dd49b941271b19df83ba6733bed4023fb82c28d40e6ef863ca589d4a933a",
          "transactionIndex": 0,
          "blockNumber": 0,
          "from": "0x617b3a3528F9cDd6630fd3301B9c8911F7Bf063D",
          "to": "0x4d5Cf5032B2a844602278b01199ED191A86c93ff",
          "cumulativeGasUsed": 21000,
          "gasUsedForTx": 21000,
          "contractAddress": null,
          "logs": 0,
          "logsBloom": 0,
          "status": 1,
          "blockHash": "0xbaff2ba4e0f6eb2317defff3b3ffb9824f9ce4d6134461c6c8ee6b55913e0deb"
        }
      },
      {
        "txId": 2,
        "receipt": {
          "transactionHash": "0x757a5aa97e795d4742a9b8cd7c8f4b203c380d361635a72f94fd1d0d44544bac",
          "transactionIndex": 1,
          "blockNumber": 0,
          "from": "0xeB17ce701E9D92724AA2ABAdA7E4B28830597Dd9",
          "to": "0x187Bd40226A7073b49163b1f6c2b73d8F2aa8478",
          "cumulativeGasUsed": 42000,
          "gasUsedForTx": 21000,
          "contractAddress": null,
          "logs": 0,
          "logsBloom": 0,
          "status": 1,
          "blockHash": "0xbaff2ba4e0f6eb2317defff3b3ffb9824f9ce4d6134461c6c8ee6b55913e0deb"
        }
      }
    ],
    "blockInfo": {
      "blockNumber": 0,
      "gasUsedForTx": 21000,
      "blockGasLimit": 30000000,
      "parentHash": "0x0000000000000000000000000000000000000000000000000000000000000000",
      "txHashRoot": "0x0000000000000000000000000000000000000000000000000000000000000000",
      "receiptRoot": "0x0000000000000000000000000000000000000000000000000000000000000000",
      "timestamp": 1944498031
    }
  },
  {
    "id": 2,
    "description": "2 accounts and 1 invalid tx (tx with more value than balance). Old root equals new root.",
    "chainIdSequencer": 1001,
    "defaultChainId": 1000,
    "sequencerAddress": "0x617b3a3528F9cDd6630fd3301B9c8911F7Bf063D",
    "genesis": [
      {
        "address": "0x617b3a3528F9cDd6630fd3301B9c8911F7Bf063D",
        "pvtKey": "0x28b2b0318721be8c8339199172cd7cc8f5e273800a35616ec893083a4b32c02e",
        "balance": "100000000000000000000",
        "nonce": "0"
      },
      {
        "address": "0x4d5Cf5032B2a844602278b01199ED191A86c93ff",
        "pvtKey": "0x4d27a600dce8c29b7bd080e29a26972377dbb04d7a27d919adbb602bf13cfd23",
        "balance": "200000000000000000000",
        "nonce": "0"
      }
    ],
    "expectedOldRoot": "0xbdde84a5932a2f0a1a4c6c51f3b64ea265d4f1461749298cfdd09b31122ce0d6",
    "txs": [
      {
        "id": 0,
        "from": "0x617b3a3528F9cDd6630fd3301B9c8911F7Bf063D",
        "to": "0x4d5Cf5032B2a844602278b01199ED191A86c93ff",
        "nonce": 0,
        "value": "10000000000000000000000",
        "gasLimit": 100000,
        "gasPrice": "1000000000",
        "chainId": 1001,
        "rawTx": "0xf87080843b9aca00830186a0944d5cf5032b2a844602278b01199ed191a86c93ff8a021e19e0c9bab2400000808207f5a0510a8a10721e65bf2913889751f3b32de1cb4733a667e06b708f122965da598ea075ca7d27cb4c3846490b4c446605d0120b0720b70dfe5a07f865a161c3726322",
        "reason": "TX INVALID: Not enough funds to pay total transaction cost",
        "customRawTx": "0xf080843b9aca00830186a0944d5cf5032b2a844602278b01199ed191a86c93ff8a021e19e0c9bab2400000808203e98080510a8a10721e65bf2913889751f3b32de1cb4733a667e06b708f122965da598e75ca7d27cb4c3846490b4c446605d0120b0720b70dfe5a07f865a161c37263221b"
      }
    ],
    "expectedNewRoot": "0xddb51ae0436420be394f17470ec045d7ef6549a5fba4cedb824e3d5a285a2526",
    "expectedNewLeafs": {
      "0x617b3a3528F9cDd6630fd3301B9c8911F7Bf063D": {
        "pvtKey": "0x28b2b0318721be8c8339199172cd7cc8f5e273800a35616ec893083a4b32c02e",
        "balance": "100000000000000000000",
        "nonce": "0"
      },
      "0x4d5Cf5032B2a844602278b01199ED191A86c93ff": {
        "pvtKey": "0x4d27a600dce8c29b7bd080e29a26972377dbb04d7a27d919adbb602bf13cfd23",
        "balance": "200000000000000000000",
        "nonce": "0"
      }
    },
    "batchL2Data": "0xf080843b9aca00830186a0944d5cf5032b2a844602278b01199ed191a86c93ff8a021e19e0c9bab2400000808203e98080510a8a10721e65bf2913889751f3b32de1cb4733a667e06b708f122965da598e75ca7d27cb4c3846490b4c446605d0120b0720b70dfe5a07f865a161c37263221b",
    "globalExitRoot": "0x090bcaf734c4f06c93954a827b45a6e8c67b8e0fd1e0a35a1c5982d6961828f9",
    "newLocalExitRoot": "0x17c04c3760510b48c6012742c540a81aba4bca2f78b9d14bfd2f123e2e53ea3e",
    "inputHash": "0x25b5061a407d6af94f6de518e22e4d4d1bd31c8834fb7ade0ae6985d2ad43d20",
    "batchHashData": "0x7d828641885688648e7b9d8dd8978c7b2627acf37e4d862a4dc8eca209693560",
    "oldLocalExitRoot": "0x17c04c3760510b48c6012742c540a81aba4bca2f78b9d14bfd2f123e2e53ea3e",
    "timestamp": 1944498031,
    "receipts": [],
    "blockInfo": {
      "blockNumber": 0,
      "gasUsedForTx": 21000,
      "blockGasLimit": 30000000,
      "parentHash": "0x0000000000000000000000000000000000000000000000000000000000000000",
      "txHashRoot": "0x0000000000000000000000000000000000000000000000000000000000000000",
      "receiptRoot": "0x0000000000000000000000000000000000000000000000000000000000000000",
      "timestamp": 1944498031
    }
  },
  {
    "id": 3,
    "description": "2 accounts and 4 invalid transactions. Two of the transactions have invalid from and to address so no rawTx is provided for them, can be ignored.Tx with same amount than balance and tx with invalid chain id (different chain id than sequencer). Old root equals new root",
    "chainIdSequencer": 1001,
    "defaultChainId": 1000,
    "sequencerAddress": "0x617b3a3528F9cDd6630fd3301B9c8911F7Bf063D",
    "genesis": [
      {
        "address": "0x617b3a3528F9cDd6630fd3301B9c8911F7Bf063D",
        "pvtKey": "0x28b2b0318721be8c8339199172cd7cc8f5e273800a35616ec893083a4b32c02e",
        "balance": "100000000000000000000",
        "nonce": "0"
      },
      {
        "address": "0x4d5Cf5032B2a844602278b01199ED191A86c93ff",
        "pvtKey": "0x4d27a600dce8c29b7bd080e29a26972377dbb04d7a27d919adbb602bf13cfd23",
        "balance": "200000000000000000000",
        "nonce": "0"
      }
    ],
    "expectedOldRoot": "0xbdde84a5932a2f0a1a4c6c51f3b64ea265d4f1461749298cfdd09b31122ce0d6",
    "txs": [
      {
        "id": 0,
        "from": "0x617b3a3528F9cDd6630fd3301B9c8911F7Bf063D",
        "to": "0x4d5Cf5032B2a844602278b01199ED191A86c93ff",
        "nonce": 0,
        "value": "100000000000000000",
        "gasLimit": 100000,
        "gasPrice": "1000000000",
        "chainId": 401,
        "rawTx": "0xf86e80843b9aca00830186a0944d5cf5032b2a844602278b01199ed191a86c93ff88016345785d8a000080820346a06e209c61ca92c2b980d6197e7ac9ccc3f547bf13be6455dfe682aa5dda9655efa016819a7edcc3fefec81ca97c7a6f3d10ec774440e409adbba693ce8b698d41f1",
        "reason": "TX INVALID: Chain ID does not match",
        "customRawTx": "0xee80843b9aca00830186a0944d5cf5032b2a844602278b01199ed191a86c93ff88016345785d8a00008082019180806e209c61ca92c2b980d6197e7ac9ccc3f547bf13be6455dfe682aa5dda9655ef16819a7edcc3fefec81ca97c7a6f3d10ec774440e409adbba693ce8b698d41f11c"
      },
      {
        "id": 1,
        "from": "0x617b3a3528F9cDd6630fd3301B9c8911F7Bf063D",
        "to": "0x4d5Cf5032B2a844602278b01199ED191A86c93f",
        "nonce": 0,
        "value": "100000000000000000",
        "gasLimit": 100000,
        "gasPrice": "1000000000",
        "chainId": 1001,
        "reason": ""
      },
      {
        "id": 2,
        "from": "0x617b3a3528F9cDd6630fd3301B9c8911F7Bf03D",
        "to": "0x4d5Cf5032B2a844602278b01199ED191A86c93ff",
        "nonce": 0,
        "value": "100000000000000000",
        "gasLimit": 100000,
        "gasPrice": "1000000000",
        "chainId": 1001,
        "reason": ""
      },
      {
        "id": 3,
        "from": "0x617b3a3528F9cDd6630fd3301B9c8911F7Bf063D",
        "to": "0x4d5Cf5032B2a844602278b01199ED191A86c93ff",
        "nonce": 0,
        "value": "100000000000000000000",
        "gasLimit": 100000,
        "gasPrice": "1000000000",
        "chainId": 1001,
        "rawTx": "0xf86f80843b9aca00830186a0944d5cf5032b2a844602278b01199ed191a86c93ff89056bc75e2d63100000808207f5a0fe1e96b35c836fbebac887681150c5fc9fdae862d747aaaf8c30373c0becf769a01ff0c900aaaac6d1565a603f69b5a45f222ed205f0a36fdc6e4e4c5a7b88d45b",
        "reason": "TX INVALID: Not enough funds to pay total transaction cost",
        "customRawTx": "0xef80843b9aca00830186a0944d5cf5032b2a844602278b01199ed191a86c93ff89056bc75e2d63100000808203e98080fe1e96b35c836fbebac887681150c5fc9fdae862d747aaaf8c30373c0becf7691ff0c900aaaac6d1565a603f69b5a45f222ed205f0a36fdc6e4e4c5a7b88d45b1b"
      }
    ],
    "expectedNewRoot": "0xddb51ae0436420be394f17470ec045d7ef6549a5fba4cedb824e3d5a285a2526",
    "expectedNewLeafs": {
      "0x617b3a3528F9cDd6630fd3301B9c8911F7Bf063D": {
        "pvtKey": "0x28b2b0318721be8c8339199172cd7cc8f5e273800a35616ec893083a4b32c02e",
        "balance": "100000000000000000000",
        "nonce": "0"
      },
      "0x4d5Cf5032B2a844602278b01199ED191A86c93ff": {
        "pvtKey": "0x4d27a600dce8c29b7bd080e29a26972377dbb04d7a27d919adbb602bf13cfd23",
        "balance": "200000000000000000000",
        "nonce": "0"
      }
    },
    "batchL2Data": "0xee80843b9aca00830186a0944d5cf5032b2a844602278b01199ed191a86c93ff88016345785d8a00008082019180806e209c61ca92c2b980d6197e7ac9ccc3f547bf13be6455dfe682aa5dda9655ef16819a7edcc3fefec81ca97c7a6f3d10ec774440e409adbba693ce8b698d41f11cef80843b9aca00830186a0944d5cf5032b2a844602278b01199ed191a86c93ff89056bc75e2d63100000808203e98080fe1e96b35c836fbebac887681150c5fc9fdae862d747aaaf8c30373c0becf7691ff0c900aaaac6d1565a603f69b5a45f222ed205f0a36fdc6e4e4c5a7b88d45b1b",
    "globalExitRoot": "0x090bcaf734c4f06c93954a827b45a6e8c67b8e0fd1e0a35a1c5982d6961828f9",
    "newLocalExitRoot": "0x17c04c3760510b48c6012742c540a81aba4bca2f78b9d14bfd2f123e2e53ea3e",
    "inputHash": "0x5f4b8d5638edce4441a5d3a79604ced9f7746ab55b9a04ff17c7336714c3fc8c",
    "batchHashData": "0xede443c6a76851cd129176ea5fa92143c892688bd38342d336fc02bd8c252023",
    "oldLocalExitRoot": "0x17c04c3760510b48c6012742c540a81aba4bca2f78b9d14bfd2f123e2e53ea3e",
    "timestamp": 1944498031,
    "receipts": [],
    "blockInfo": {
      "blockNumber": 0,
      "gasUsedForTx": 21000,
      "blockGasLimit": 30000000,
      "parentHash": "0x0000000000000000000000000000000000000000000000000000000000000000",
      "txHashRoot": "0x0000000000000000000000000000000000000000000000000000000000000000",
      "receiptRoot": "0x0000000000000000000000000000000000000000000000000000000000000000",
      "timestamp": 1944498031
    }
  },
  {
    "id": 4,
    "description": "2 accounts and 1 invalid transaction. Wrong encode of the tx (invalid signature). Old root equals new root",
    "chainIdSequencer": 1001,
    "defaultChainId": 1000,
    "sequencerAddress": "0x617b3a3528F9cDd6630fd3301B9c8911F7Bf063D",
    "genesis": [
      {
        "address": "0x617b3a3528F9cDd6630fd3301B9c8911F7Bf063D",
        "pvtKey": "0x28b2b0318721be8c8339199172cd7cc8f5e273800a35616ec893083a4b32c02e",
        "balance": "100000000000000000000",
        "nonce": "0"
      },
      {
        "address": "0x4d5Cf5032B2a844602278b01199ED191A86c93ff",
        "pvtKey": "0x4d27a600dce8c29b7bd080e29a26972377dbb04d7a27d919adbb602bf13cfd23",
        "balance": "200000000000000000000",
        "nonce": "0"
      }
    ],
    "expectedOldRoot": "0xbdde84a5932a2f0a1a4c6c51f3b64ea265d4f1461749298cfdd09b31122ce0d6",
    "txs": [
      {
        "encodeInvalidData": true,
        "id": 0,
        "from": "0x617b3a3528F9cDd6630fd3301B9c8911F7Bf063D",
        "to": "0x4d5Cf5032B2a844602278b01199ED191A86c93ff",
        "nonce": 0,
        "value": "100000000000000000",
        "gasLimit": 100000,
        "gasPrice": "1000000000",
        "chainId": 1001,
        "rawTx": "0xf86d80843b9aca00830186a0944d5cf5032b2a844602278b01199ed191a86c93ff88016345785d8a0000808207f5a01186622d03b6b8da7cf111d1ccba5bb185c56deae6a322cebc6dda0556f3cb979f910c26408b64b51c5da36ba2f38ef55ba1cee719d5a6c01225968799907432",
        "reason": "TX INVALID: Failed signature",
        "customRawTx": "0xee80843b9aca00830186a0944d5cf5032b2a844602278b01199ed191a86c93ff88016345785d8a0000808203e980801186622d03b6b8da7cf111d1ccba5bb185c56deae6a322cebc6dda0556f3cb9700910c26408b64b51c5da36ba2f38ef55ba1cee719d5a6c012259687999074321b"
      }
    ],
    "expectedNewRoot": "0xddb51ae0436420be394f17470ec045d7ef6549a5fba4cedb824e3d5a285a2526",
    "expectedNewLeafs": {
      "0x617b3a3528F9cDd6630fd3301B9c8911F7Bf063D": {
        "pvtKey": "0x28b2b0318721be8c8339199172cd7cc8f5e273800a35616ec893083a4b32c02e",
        "balance": "100000000000000000000",
        "nonce": "0"
      },
      "0x4d5Cf5032B2a844602278b01199ED191A86c93ff": {
        "pvtKey": "0x4d27a600dce8c29b7bd080e29a26972377dbb04d7a27d919adbb602bf13cfd23",
        "balance": "200000000000000000000",
        "nonce": "0"
      }
    },
    "batchL2Data": "0xee80843b9aca00830186a0944d5cf5032b2a844602278b01199ed191a86c93ff88016345785d8a0000808203e980801186622d03b6b8da7cf111d1ccba5bb185c56deae6a322cebc6dda0556f3cb9700910c26408b64b51c5da36ba2f38ef55ba1cee719d5a6c0122596879990",
    "globalExitRoot": "0x090bcaf734c4f06c93954a827b45a6e8c67b8e0fd1e0a35a1c5982d6961828f9",
    "newLocalExitRoot": "0x17c04c3760510b48c6012742c540a81aba4bca2f78b9d14bfd2f123e2e53ea3e",
    "inputHash": "0x8fd18b7d8e13a4b167074ba40439fbe01515b1242b43a71775b79bc6e67dfee4",
    "batchHashData": "0x666d0ee24aac702077a753387f90f4d9c3004a6acec7cad44097fa36987aed64",
    "oldLocalExitRoot": "0x17c04c3760510b48c6012742c540a81aba4bca2f78b9d14bfd2f123e2e53ea3e",
    "timestamp": 1944498031,
    "receipts": [],
    "blockInfo": {
      "blockNumber": 0,
      "gasUsedForTx": 21000,
      "blockGasLimit": 30000000,
      "parentHash": "0x0000000000000000000000000000000000000000000000000000000000000000",
      "txHashRoot": "0x0000000000000000000000000000000000000000000000000000000000000000",
      "receiptRoot": "0x0000000000000000000000000000000000000000000000000000000000000000",
      "timestamp": 1944498031
    }
  },
  {
    "id": 5,
    "description": "2 accounts and 1 valid transaction, from and to are the same",
    "chainIdSequencer": 1001,
    "defaultChainId": 1000,
    "sequencerAddress": "0x4d5Cf5032B2a844602278b01199ED191A86c93ff",
    "genesis": [
      {
        "address": "0x617b3a3528F9cDd6630fd3301B9c8911F7Bf063D",
        "pvtKey": "0x28b2b0318721be8c8339199172cd7cc8f5e273800a35616ec893083a4b32c02e",
        "balance": "100000000000000000000",
        "nonce": "0"
      },
      {
        "address": "0x4d5Cf5032B2a844602278b01199ED191A86c93ff",
        "pvtKey": "0x4d27a600dce8c29b7bd080e29a26972377dbb04d7a27d919adbb602bf13cfd23",
        "balance": "200000000000000000000",
        "nonce": "0"
      }
    ],
    "expectedOldRoot": "0xbdde84a5932a2f0a1a4c6c51f3b64ea265d4f1461749298cfdd09b31122ce0d6",
    "txs": [
      {
        "id": 0,
        "from": "0x617b3a3528F9cDd6630fd3301B9c8911F7Bf063D",
        "to": "0x617b3a3528F9cDd6630fd3301B9c8911F7Bf063D",
        "nonce": 0,
        "value": "100000000000000000",
        "gasLimit": 100000,
        "gasPrice": "1000000000",
        "chainId": 1001,
        "rawTx": "0xf86e80843b9aca00830186a094617b3a3528f9cdd6630fd3301b9c8911f7bf063d88016345785d8a0000808207f6a014b2304ca08457f37c4e81284398aa9c511875e47b37b1e6877a26c53c0e7a1ca07f2ed42e23e503c446213de2ce077e5cfdc58f0a672dfc0a5d0aa7c0202098c3",
        "reason": "",
        "customRawTx": "0xee80843b9aca00830186a094617b3a3528f9cdd6630fd3301b9c8911f7bf063d88016345785d8a0000808203e9808014b2304ca08457f37c4e81284398aa9c511875e47b37b1e6877a26c53c0e7a1c7f2ed42e23e503c446213de2ce077e5cfdc58f0a672dfc0a5d0aa7c0202098c31c"
      }
    ],
    "expectedNewRoot": "0x377775a655ecc17840225ce55050de45350725a045ea4123b786194f365c58b4",
    "expectedNewLeafs": {
      "0x617b3a3528f9cdd6630fd3301b9c8911f7bf063d": {
        "balance": "99999979000000000000",
        "nonce": "1"
      },
      "0x4d5cf5032b2a844602278b01199ed191a86c93ff": {
        "balance": "200000021000000000000",
        "nonce": "0"
      }
    },
    "batchL2Data": "0xee80843b9aca00830186a094617b3a3528f9cdd6630fd3301b9c8911f7bf063d88016345785d8a0000808203e9808014b2304ca08457f37c4e81284398aa9c511875e47b37b1e6877a26c53c0e7a1c7f2ed42e23e503c446213de2ce077e5cfdc58f0a672dfc0a5d0aa7c0202098c31c",
    "globalExitRoot": "0x090bcaf734c4f06c93954a827b45a6e8c67b8e0fd1e0a35a1c5982d6961828f9",
    "newLocalExitRoot": "0x17c04c3760510b48c6012742c540a81aba4bca2f78b9d14bfd2f123e2e53ea3e",
    "inputHash": "0xe24bb8cbed45775da3d14086dab1d4d2662c46d985c777e7f28af556bcb7a649",
    "batchHashData": "0x07a3835cf75a76eb759d3f30811cac2671e7647e0c76a27fa8b682b718261aef",
    "oldLocalExitRoot": "0x17c04c3760510b48c6012742c540a81aba4bca2f78b9d14bfd2f123e2e53ea3e",
    "timestamp": 1944498031,
    "receipts": [
      {
        "txId": 0,
        "receipt": {
          "transactionHash": "0x39b4d21d30501daa3725e7058db487d63503d3c94588ca5fc227e832feabc9cb",
          "transactionIndex": 0,
          "blockNumber": 0,
          "from": "0x617b3a3528F9cDd6630fd3301B9c8911F7Bf063D",
          "to": "0x617b3a3528F9cDd6630fd3301B9c8911F7Bf063D",
          "cumulativeGasUsed": 21000,
          "gasUsedForTx": 21000,
          "contractAddress": null,
          "logs": 0,
          "logsBloom": 0,
          "status": 1,
          "blockHash": "0x6f0316ba2cdeac4bcd3ef2af301715e2b9296aa4f5dc5574b6ef7002130a2229"
        }
      }
    ],
    "blockInfo": {
      "blockNumber": 0,
      "gasUsedForTx": 21000,
      "blockGasLimit": 30000000,
      "parentHash": "0x0000000000000000000000000000000000000000000000000000000000000000",
      "txHashRoot": "0x0000000000000000000000000000000000000000000000000000000000000000",
      "receiptRoot": "0x0000000000000000000000000000000000000000000000000000000000000000",
      "timestamp": 1944498031
    }
  },
  {
    "id": 6,
    "description": "2 accounts. 1 valid tx, 3 invalid tx (same amount as balance, invalid nonce, invalid chain id",
    "chainIdSequencer": 1001,
    "defaultChainId": 1000,
    "sequencerAddress": "0x4d5Cf5032B2a844602278b01199ED191A86c93ff",
    "genesis": [
      {
        "address": "0x617b3a3528F9cDd6630fd3301B9c8911F7Bf063D",
        "pvtKey": "0x28b2b0318721be8c8339199172cd7cc8f5e273800a35616ec893083a4b32c02e",
        "balance": "100000000000000000000",
        "nonce": "0"
      },
      {
        "address": "0x4d5Cf5032B2a844602278b01199ED191A86c93ff",
        "pvtKey": "0x4d27a600dce8c29b7bd080e29a26972377dbb04d7a27d919adbb602bf13cfd23",
        "balance": "200000000000000000000",
        "nonce": "0"
      }
    ],
    "expectedOldRoot": "0xbdde84a5932a2f0a1a4c6c51f3b64ea265d4f1461749298cfdd09b31122ce0d6",
    "txs": [
      {
        "id": 0,
        "from": "0x617b3a3528F9cDd6630fd3301B9c8911F7Bf063D",
        "to": "0x4d5Cf5032B2a844602278b01199ED191A86c93ff",
        "nonce": 0,
        "value": "100000000000000000000",
        "gasLimit": 100000,
        "gasPrice": "1000000000",
        "chainId": 1001,
        "rawTx": "0xf86f80843b9aca00830186a0944d5cf5032b2a844602278b01199ed191a86c93ff89056bc75e2d63100000808207f5a0fe1e96b35c836fbebac887681150c5fc9fdae862d747aaaf8c30373c0becf769a01ff0c900aaaac6d1565a603f69b5a45f222ed205f0a36fdc6e4e4c5a7b88d45b",
        "reason": "TX INVALID: Not enough funds to pay total transaction cost",
        "customRawTx": "0xef80843b9aca00830186a0944d5cf5032b2a844602278b01199ed191a86c93ff89056bc75e2d63100000808203e98080fe1e96b35c836fbebac887681150c5fc9fdae862d747aaaf8c30373c0becf7691ff0c900aaaac6d1565a603f69b5a45f222ed205f0a36fdc6e4e4c5a7b88d45b1b"
      },
      {
        "id": 1,
        "from": "0x617b3a3528F9cDd6630fd3301B9c8911F7Bf063D",
        "to": "0x4d5Cf5032B2a844602278b01199ED191A86c93ff",
        "nonce": 0,
        "value": "100000000000000000",
        "gasLimit": 100000,
        "gasPrice": "1000000000",
        "chainId": 1001,
        "rawTx": "0xf86d80843b9aca00830186a0944d5cf5032b2a844602278b01199ed191a86c93ff88016345785d8a0000808207f5a01186622d03b6b8da7cf111d1ccba5bb185c56deae6a322cebc6dda0556f3cb979f910c26408b64b51c5da36ba2f38ef55ba1cee719d5a6c01225968799907432",
        "reason": "",
        "customRawTx": "0xee80843b9aca00830186a0944d5cf5032b2a844602278b01199ed191a86c93ff88016345785d8a0000808203e980801186622d03b6b8da7cf111d1ccba5bb185c56deae6a322cebc6dda0556f3cb9700910c26408b64b51c5da36ba2f38ef55ba1cee719d5a6c012259687999074321b"
      },
      {
        "id": 2,
        "from": "0x617b3a3528F9cDd6630fd3301B9c8911F7Bf063D",
        "to": "0x4d5Cf5032B2a844602278b01199ED191A86c93ff",
        "nonce": 0,
        "value": "1000000000000000000",
        "gasLimit": 100000,
        "gasPrice": "1000000000",
        "chainId": 1001,
        "rawTx": "0xf86e80843b9aca00830186a0944d5cf5032b2a844602278b01199ed191a86c93ff880de0b6b3a7640000808207f6a0abf2354a778c3dace42daafd85b0587941170288f5d150621453bb490cbbb897a04d0251dec50bf299922edde433982445f1245e85a61232edc2847bd571250b52",
        "reason": "TX INVALID: Invalid nonce",
        "customRawTx": "0xee80843b9aca00830186a0944d5cf5032b2a844602278b01199ed191a86c93ff880de0b6b3a7640000808203e98080abf2354a778c3dace42daafd85b0587941170288f5d150621453bb490cbbb8974d0251dec50bf299922edde433982445f1245e85a61232edc2847bd571250b521c"
      },
      {
        "id": 3,
        "from": "0x617b3a3528F9cDd6630fd3301B9c8911F7Bf063D",
        "to": "0x4d5Cf5032B2a844602278b01199ED191A86c93ff",
        "nonce": 0,
        "value": "1000000000000000000",
        "gasLimit": 100000,
        "gasPrice": "1000000000",
        "chainId": 0,
        "reason": "TX INVALID: Chain ID does not match",
        "customRawTx": "0xec80843b9aca00830186a0944d5cf5032b2a844602278b01199ed191a86c93ff880de0b6b3a764000080808080f7e1e6f3cd95d27522592e8796afa8f419a066b7172e0ac3e7826705ad608c672731e14da1b190dab8c14e79e050e31da53fdb4a0e55ca48ee4faff859606d5a1b",
        "rawTx": "0xf86c80843b9aca00830186a0944d5cf5032b2a844602278b01199ed191a86c93ff880de0b6b3a7640000801ba077f76b76aca6161db28545aa742536370e4f57f9a71651688631a423abcbe04aa0131474e130abe8bcc9ef39a44a877eb64b2d43132cb0907abe547aa605b641b8"
      }
    ],
    "expectedNewRoot": "0x4f9c90a2da62ef6c01d22da8a55aca7c0d5bba5baf2e1eee5fa0fe481ebe6abe",
    "expectedNewLeafs": {
      "0x617b3a3528f9cdd6630fd3301b9c8911f7bf063d": {
        "balance": "99899979000000000000",
        "nonce": "1"
      },
      "0x4d5cf5032b2a844602278b01199ed191a86c93ff": {
        "balance": "200100021000000000000",
        "nonce": "0"
      }
    },
    "batchL2Data": "0xef80843b9aca00830186a0944d5cf5032b2a844602278b01199ed191a86c93ff89056bc75e2d63100000808203e98080fe1e96b35c836fbebac887681150c5fc9fdae862d747aaaf8c30373c0becf7691ff0c900aaaac6d1565a603f69b5a45f222ed205f0a36fdc6e4e4c5a7b88d45b1bee80843b9aca00830186a0944d5cf5032b2a844602278b01199ed191a86c93ff88016345785d8a0000808203e980801186622d03b6b8da7cf111d1ccba5bb185c56deae6a322cebc6dda0556f3cb9700910c26408b64b51c5da36ba2f38ef55ba1cee719d5a6c012259687999074321bee80843b9aca00830186a0944d5cf5032b2a844602278b01199ed191a86c93ff880de0b6b3a7640000808203e98080abf2354a778c3dace42daafd85b0587941170288f5d150621453bb490cbbb8974d0251dec50bf299922edde433982445f1245e85a61232edc2847bd571250b521cec80843b9aca00830186a0944d5cf5032b2a844602278b01199ed191a86c93ff880de0b6b3a764000080808080f7e1e6f3cd95d27522592e8796afa8f419a066b7172e0ac3e7826705ad608c672731e14da1b190dab8c14e79e050e31da53fdb4a0e55ca48ee4faff859606d5a1b",
    "globalExitRoot": "0x090bcaf734c4f06c93954a827b45a6e8c67b8e0fd1e0a35a1c5982d6961828f9",
    "newLocalExitRoot": "0x17c04c3760510b48c6012742c540a81aba4bca2f78b9d14bfd2f123e2e53ea3e",
    "inputHash": "0x5dc704b7226b9c11776748a186bfeaf8dacc5be7de5c2075cf5908bcb6d6753d",
    "batchHashData": "0x4a298ce8bc3b6312a430a54db2e43f91990660702fa8fdf9b927841f30ad0bfb",
    "oldLocalExitRoot": "0x17c04c3760510b48c6012742c540a81aba4bca2f78b9d14bfd2f123e2e53ea3e",
    "timestamp": 1944498031,
    "receipts": [
      {
        "txId": 1,
        "receipt": {
          "transactionHash": "0x0cc3dd49b941271b19df83ba6733bed4023fb82c28d40e6ef863ca589d4a933a",
          "transactionIndex": 0,
          "blockNumber": 0,
          "from": "0x617b3a3528F9cDd6630fd3301B9c8911F7Bf063D",
          "to": "0x4d5Cf5032B2a844602278b01199ED191A86c93ff",
          "cumulativeGasUsed": 21000,
          "gasUsedForTx": 21000,
          "contractAddress": null,
          "logs": 0,
          "logsBloom": 0,
          "status": 1,
          "blockHash": "0xf078c52c7876a91b3b66c67f49632f509182c71e62a85f1f933d2f833a3d304b"
        }
      }
    ],
    "blockInfo": {
      "blockNumber": 0,
      "gasUsedForTx": 21000,
      "blockGasLimit": 30000000,
      "parentHash": "0x0000000000000000000000000000000000000000000000000000000000000000",
      "txHashRoot": "0x0000000000000000000000000000000000000000000000000000000000000000",
      "receiptRoot": "0x0000000000000000000000000000000000000000000000000000000000000000",
      "timestamp": 1944498031
    }
  }
]