[
  {
    "id": 0,
    "description": "2 accounts and 1 valid transaction.",
    "arity": 4,
    "chainIdSequencer": 1001,
    "defaultChainId": 1000,
    "sequencerAddress": "0x617b3a3528F9cDd6630fd3301B9c8911F7Bf063D",
    "sequencerPvtKey": "0x28b2b0318721be8c8339199172cd7cc8f5e273800a35616ec893083a4b32c02e",
    "genesis": [
      {
        "address": "0x617b3a3528F9cDd6630fd3301B9c8911F7Bf063D",
        "nonce": "0",
        "balance": "100000000000000000000",
        "pvtKey": "0x28b2b0318721be8c8339199172cd7cc8f5e273800a35616ec893083a4b32c02e"
      },
      {
        "address": "0x4d5Cf5032B2a844602278b01199ED191A86c93ff",
        "nonce": "0",
        "balance": "200000000000000000000",
        "pvtKey": "0x4d27a600dce8c29b7bd080e29a26972377dbb04d7a27d919adbb602bf13cfd23"
      }
    ],
    "expectedOldRoot": "0x4a9bfcb163ec91c5beb22e6aca41592433092c8c7821b01d37fd0de483f9265d",
    "txs": [
      {
        "id": 0,
        "from": "0x617b3a3528F9cDd6630fd3301B9c8911F7Bf063D",
        "to": "0x4d5Cf5032B2a844602278b01199ED191A86c93ff",
        "nonce": 0,
        "value": "100000000000000000",
        "gasLimit": 100000,
        "gasPrice": "1000000000",
        "chainId": 1000,
        "rawTx": "0xf86e80843b9aca00830186a0944d5cf5032b2a844602278b01199ed191a86c93ff88016345785d8a0000808207f3a01cee7e01dc62f69a12c3510c6d64de04ee6346d84b6a017f3e786c7d87f963e7a05d8cc91fa983cd6d9cf55fff80d73bd26cd333b0f098acc1e58edb1fd484ad73",
        "customRawTx": "0xee80843b9aca00830186a0944d5cf5032b2a844602278b01199ed191a86c93ff88016345785d8a0000808203e880801cee7e01dc62f69a12c3510c6d64de04ee6346d84b6a017f3e786c7d87f963e75d8cc91fa983cd6d9cf55fff80d73bd26cd333b0f098acc1e58edb1fd484ad731bff",
        "reason": ""
      }
    ],
    "expectedNewRoot": "0x643cb9e9713cac64b4a034f8356c4fcdafa8cef4428b2cc01a461c0d5c963ae2",
    "expectedNewLeafs": {
      "0x617b3a3528F9cDd6630fd3301B9c8911F7Bf063D": {
        "balance": "99900000000000000000",
        "nonce": "1"
      },
      "0x4d5Cf5032B2a844602278b01199ED191A86c93ff": {
        "balance": "200100000000000000000",
        "nonce": "0"
      }
    },
    "batchL2Data": "0x0b00000000000003e8310000000000000000000000000000000000000000000000000000000000000000000000ee80843b9aca00830186a0944d5cf5032b2a844602278b01199ed191a86c93ff88016345785d8a0000808203e880801cee7e01dc62f69a12c3510c6d64de04ee6346d84b6a017f3e786c7d87f963e75d8cc91fa983cd6d9cf55fff80d73bd26cd333b0f098acc1e58edb1fd484ad731bff",
    "newLocalExitRoot": "0x0000000000000000000000000000000000000000000000000000000000000000",
    "batchHashData": "0x4cf807c94e4693acfc999d37b2bea61acb509dead6e764ea095a30d8b3cac83f",
    "timestamp": 1944498031,
    "chainID": 1000,
    "oldAccInputHash": "0x0000000000000000000000000000000000000000000000000000000000000000",
    "forkID": 14,
    "historicGERRoot": "0x090bcaf734c4f06c93954a827b45a6e8c67b8e0fd1e0a35a1c5982d6961828f9",
    "receipts": [
      {
        "txId": 0,
        "receipt": {
          "transactionHash": "0xd57e9bcee701d953738e80145bc4ab61b9c89721f368ee9300d253fd4a479704",
          "transactionIndex": 0,
          "blockNumber": 0,
          "from": "0x617b3a3528F9cDd6630fd3301B9c8911F7Bf063D",
          "to": "0x4d5Cf5032B2a844602278b01199ED191A86c93ff",
          "cumulativeGasUsed": 21000,
          "gasUsedForTx": 21000,
          "contractAddress": null,
          "logs": 0,
          "logsBloom": 0,
          "status": 1,
          "blockHash": "0x60e6010354f6c8a9bbf495a9aa0f6da8a92a8e230ccf4072303bdec8a4676cfb"
        }
      }
    ],
    "blockInfo": {
      "blockNumber": 0,
      "gasUsedForTx": 21000,
      "blockGasLimit": 30000000,
      "parentHash": "0x0000000000000000000000000000000000000000000000000000000000000000",
      "txHashRoot": "0x0000000000000000000000000000000000000000000000000000000000000000",
      "receiptRoot": "0x0000000000000000000000000000000000000000000000000000000000000000",
      "timestamp": 1944498031
    }
  },
  {
    "id": 1,
    "description": "5 accounts. 2 valid tx, 3 invalid tx (same amount as balance, invalid nonce, invalid chain id 3333)",
    "arity": 4,
    "chainIdSequencer": 1001,
    "defaultChainId": 1000,
    "sequencerAddress": "0x617b3a3528F9cDd6630fd3301B9c8911F7Bf063D",
    "sequencerPvtKey": "0x28b2b0318721be8c8339199172cd7cc8f5e273800a35616ec893083a4b32c02e",
    "genesis": [
      {
        "address": "0x617b3a3528F9cDd6630fd3301B9c8911F7Bf063D",
        "nonce": "0",
        "balance": "100000000000000000000",
        "pvtKey": "0x28b2b0318721be8c8339199172cd7cc8f5e273800a35616ec893083a4b32c02e"
      },
      {
        "address": "0x4d5Cf5032B2a844602278b01199ED191A86c93ff",
        "nonce": "0",
        "balance": "200000000000000000000",
        "pvtKey": "0x4d27a600dce8c29b7bd080e29a26972377dbb04d7a27d919adbb602bf13cfd23"
      },
      {
        "address": "0xeB17ce701E9D92724AA2ABAdA7E4B28830597Dd9",
        "nonce": "0",
        "balance": "100000000000000000000",
        "pvtKey": "0x1d0722aff4b29780e9a78e0bf28d5e127fb276cfbb0c3eb6a0e1728401777f17"
      },
      {
        "address": "0x187Bd40226A7073b49163b1f6c2b73d8F2aa8478",
        "nonce": "0",
        "balance": "000000000000000000000",
        "pvtKey": "0xd049e68efa0d85a3824c0b79f6817a986bb0cb3a075bcc2699118eca881d70ce"
      },
      {
        "address": "0xabCcEd19d7f290B84608feC510bEe872CC8F5112",
        "nonce": "0",
        "balance": "000000000000000000000",
        "pvtKey": "0x0b929d50d7fda8155539e6befa96ff297e3e9ebce4d908f570310bdf774cb32b"
      }
    ],
    "expectedOldRoot": "0x76b362a9afd679ea13a456ab103786492c65946be653589c1fd627841d0c6fdd",
    "txs": [
      {
        "id": 0,
        "from": "0x617b3a3528F9cDd6630fd3301B9c8911F7Bf063D",
        "to": "0x4d5Cf5032B2a844602278b01199ED191A86c93ff",
        "nonce": 0,
        "value": "100000000000000000",
        "gasLimit": 100000,
        "gasPrice": "1000000000",
        "chainId": 1000,
        "rawTx": "0xf86e80843b9aca00830186a0944d5cf5032b2a844602278b01199ed191a86c93ff88016345785d8a0000808207f3a01cee7e01dc62f69a12c3510c6d64de04ee6346d84b6a017f3e786c7d87f963e7a05d8cc91fa983cd6d9cf55fff80d73bd26cd333b0f098acc1e58edb1fd484ad73",
        "customRawTx": "0xee80843b9aca00830186a0944d5cf5032b2a844602278b01199ed191a86c93ff88016345785d8a0000808203e880801cee7e01dc62f69a12c3510c6d64de04ee6346d84b6a017f3e786c7d87f963e75d8cc91fa983cd6d9cf55fff80d73bd26cd333b0f098acc1e58edb1fd484ad731bff",
        "reason": ""
      },
      {
        "id": 1,
        "from": "0xeB17ce701E9D92724AA2ABAdA7E4B28830597Dd9",
        "to": "0x187Bd40226A7073b49163b1f6c2b73d8F2aa8478",
        "nonce": 0,
        "value": "1000000000000000000000",
        "gasLimit": 100000,
        "gasPrice": "1000000000",
        "chainId": 1000,
        "rawTx": "0xf86f80843b9aca00830186a094187bd40226a7073b49163b1f6c2b73d8f2aa8478893635c9adc5dea00000808207f3a06199f98970ea3e0e9a59e32184ea11ae9158b9b93d70906e11f60eb6ce009602a03c1bbbb437e58ea5f7bebd344d61cccd161c6b8accff11b50ea44300d3ab58bd",
        "customRawTx": "0xef80843b9aca00830186a094187bd40226a7073b49163b1f6c2b73d8f2aa8478893635c9adc5dea00000808203e880806199f98970ea3e0e9a59e32184ea11ae9158b9b93d70906e11f60eb6ce0096023c1bbbb437e58ea5f7bebd344d61cccd161c6b8accff11b50ea44300d3ab58bd1bff",
        "reason": "TX INVALID: Not enough funds to pay total transaction cost"
      },
      {
        "id": 2,
        "from": "0xeB17ce701E9D92724AA2ABAdA7E4B28830597Dd9",
        "to": "0x187Bd40226A7073b49163b1f6c2b73d8F2aa8478",
        "nonce": 0,
        "value": "1000000000000000000",
        "gasLimit": 100000,
        "gasPrice": "1000000000",
        "chainId": 1000,
        "rawTx": "0xf86e80843b9aca00830186a094187bd40226a7073b49163b1f6c2b73d8f2aa8478880de0b6b3a7640000808207f4a074ecb6abb3d84c322a4905c60199b8f422b79b940e8a853d580869268009ae31a023fb6caa5b3afc410b79d9b68bf851df1fd46fd6923cc481b3e273aeb92ce67d",
        "customRawTx": "0xee80843b9aca00830186a094187bd40226a7073b49163b1f6c2b73d8f2aa8478880de0b6b3a7640000808203e8808074ecb6abb3d84c322a4905c60199b8f422b79b940e8a853d580869268009ae3123fb6caa5b3afc410b79d9b68bf851df1fd46fd6923cc481b3e273aeb92ce67d1cff",
        "reason": ""
      },
      {
        "id": 3,
        "from": "0xeB17ce701E9D92724AA2ABAdA7E4B28830597Dd9",
        "to": "0xabCcEd19d7f290B84608feC510bEe872CC8F5112",
        "nonce": 0,
        "value": "1000000000000000000",
        "gasLimit": 100000,
        "gasPrice": "1000000000",
        "chainId": 1000,
        "rawTx": "0xf86e80843b9aca00830186a094abcced19d7f290b84608fec510bee872cc8f5112880de0b6b3a7640000808207f4a0432b1bc18d96dea596edfe17b249a68e42117f738ecfaea4e9f92aa77935fb4da05b9a983a5ba73c27cbaa4de62b1d8ab8b908a941926387927dcd2319d8b4dfb2",
        "customRawTx": "0xee80843b9aca00830186a094abcced19d7f290b84608fec510bee872cc8f5112880de0b6b3a7640000808203e88080432b1bc18d96dea596edfe17b249a68e42117f738ecfaea4e9f92aa77935fb4d5b9a983a5ba73c27cbaa4de62b1d8ab8b908a941926387927dcd2319d8b4dfb21cff",
        "reason": "TX INVALID: Invalid nonce"
      },
      {
        "id": 4,
        "from": "0xeB17ce701E9D92724AA2ABAdA7E4B28830597Dd9",
        "to": "0xabCcEd19d7f290B84608feC510bEe872CC8F5112",
        "nonce": 0,
        "value": "1000000000000000000",
        "gasLimit": 100000,
        "gasPrice": "1000000000",
        "chainId": 3333,
        "rawTx": "0xf86e80843b9aca00830186a094abcced19d7f290b84608fec510bee872cc8f5112880de0b6b3a764000080821a2da0d78fe650ae7e2f7c909ad72f661bfe72aa2d502f9f2bbfad3880a4a7e0abf898a06b98f2a902dd06a89f948baa64f32d301d3ced92d231ccdea79f909a73aa050f",
        "customRawTx": "0xee80843b9aca00830186a094abcced19d7f290b84608fec510bee872cc8f5112880de0b6b3a764000080820d058080d78fe650ae7e2f7c909ad72f661bfe72aa2d502f9f2bbfad3880a4a7e0abf8986b98f2a902dd06a89f948baa64f32d301d3ced92d231ccdea79f909a73aa050f1bff",
        "reason": "TX INVALID: Chain ID does not match"
      }
    ],
    "expectedNewRoot": "0x230a1e6be922fb15c6b344283090f13f1ba991b5b6cdb1e75f763157f86c51f7",
    "expectedNewLeafs": {
      "0x617b3a3528F9cDd6630fd3301B9c8911F7Bf063D": {
        "balance": "99900021000000000000",
        "nonce": "1"
      },
      "0x4d5Cf5032B2a844602278b01199ED191A86c93ff": {
        "balance": "200100000000000000000",
        "nonce": "0"
      },
      "0xeB17ce701E9D92724AA2ABAdA7E4B28830597Dd9": {
        "balance": "98999979000000000000",
        "nonce": "1"
      },
      "0x187Bd40226A7073b49163b1f6c2b73d8F2aa8478": {
        "balance": "1000000000000000000",
        "nonce": "0"
      },
      "0xabCcEd19d7f290B84608feC510bEe872CC8F5112": {
        "balance": "0",
        "nonce": "0"
      }
    },
    "batchL2Data": "0x0b00000000000003e8310000000000000000000000000000000000000000000000000000000000000000000000ee80843b9aca00830186a0944d5cf5032b2a844602278b01199ed191a86c93ff88016345785d8a0000808203e880801cee7e01dc62f69a12c3510c6d64de04ee6346d84b6a017f3e786c7d87f963e75d8cc91fa983cd6d9cf55fff80d73bd26cd333b0f098acc1e58edb1fd484ad731bffef80843b9aca00830186a094187bd40226a7073b49163b1f6c2b73d8f2aa8478893635c9adc5dea00000808203e880806199f98970ea3e0e9a59e32184ea11ae9158b9b93d70906e11f60eb6ce0096023c1bbbb437e58ea5f7bebd344d61cccd161c6b8accff11b50ea44300d3ab58bd1bffee80843b9aca00830186a094187bd40226a7073b49163b1f6c2b73d8f2aa8478880de0b6b3a7640000808203e8808074ecb6abb3d84c322a4905c60199b8f422b79b940e8a853d580869268009ae3123fb6caa5b3afc410b79d9b68bf851df1fd46fd6923cc481b3e273aeb92ce67d1cffee80843b9aca00830186a094abcced19d7f290b84608fec510bee872cc8f5112880de0b6b3a7640000808203e88080432b1bc18d96dea596edfe17b249a68e42117f738ecfaea4e9f92aa77935fb4d5b9a983a5ba73c27cbaa4de62b1d8ab8b908a941926387927dcd2319d8b4dfb21cffee80843b9aca00830186a094abcced19d7f290b84608fec510bee872cc8f5112880de0b6b3a764000080820d058080d78fe650ae7e2f7c909ad72f661bfe72aa2d502f9f2bbfad3880a4a7e0abf8986b98f2a902dd06a89f948baa64f32d301d3ced92d231ccdea79f909a73aa050f1bff",
    "newLocalExitRoot": "0x0000000000000000000000000000000000000000000000000000000000000000",
    "batchHashData": "0x13c07682aabd18361ceb650abdc87209e437fc1bab113bd82f3a64e427a6da2c",
    "timestamp": 1944498031,
    "chainID": 1000,
    "oldAccInputHash": "0x0000000000000000000000000000000000000000000000000000000000000000",
    "forkID": 14,
    "historicGERRoot": "0x090bcaf734c4f06c93954a827b45a6e8c67b8e0fd1e0a35a1c5982d6961828f9",
    "receipts": [
      {
        "txId": 0,
        "receipt": {
          "transactionHash": "0xd57e9bcee701d953738e80145bc4ab61b9c89721f368ee9300d253fd4a479704",
          "transactionIndex": 0,
          "blockNumber": 0,
          "from": "0x617b3a3528F9cDd6630fd3301B9c8911F7Bf063D",
          "to": "0x4d5Cf5032B2a844602278b01199ED191A86c93ff",
          "cumulativeGasUsed": 21000,
          "gasUsedForTx": 21000,
          "contractAddress": null,
          "logs": 0,
          "logsBloom": 0,
          "status": 1,
          "blockHash": "0xc3656a32f4dd77f34af055eaaa19cee0f9e2909d2d5f3c8ec6871d7c922af24f"
        }
      },
      {
        "txId": 2,
        "receipt": {
          "transactionHash": "0x757a5aa97e795d4742a9b8cd7c8f4b203c380d361635a72f94fd1d0d44544bac",
          "transactionIndex": 1,
          "blockNumber": 0,
          "from": "0xeB17ce701E9D92724AA2ABAdA7E4B28830597Dd9",
          "to": "0x187Bd40226A7073b49163b1f6c2b73d8F2aa8478",
          "cumulativeGasUsed": 42000,
          "gasUsedForTx": 21000,
          "contractAddress": null,
          "logs": 0,
          "logsBloom": 0,
          "status": 1,
          "blockHash": "0xc3656a32f4dd77f34af055eaaa19cee0f9e2909d2d5f3c8ec6871d7c922af24f"
        }
      }
    ],
    "blockInfo": {
      "blockNumber": 0,
      "gasUsedForTx": 21000,
      "blockGasLimit": 30000000,
      "parentHash": "0x0000000000000000000000000000000000000000000000000000000000000000",
      "txHashRoot": "0x0000000000000000000000000000000000000000000000000000000000000000",
      "receiptRoot": "0x0000000000000000000000000000000000000000000000000000000000000000",
      "timestamp": 1944498031
    }
  },
  {
    "id": 2,
    "description": "2 accounts and 1 invalid tx (tx with more value than balance). Old root equals new root.",
    "arity": 4,
    "chainIdSequencer": 1001,
    "defaultChainId": 1000,
    "sequencerAddress": "0x617b3a3528F9cDd6630fd3301B9c8911F7Bf063D",
    "sequencerPvtKey": "0x28b2b0318721be8c8339199172cd7cc8f5e273800a35616ec893083a4b32c02e",
    "genesis": [
      {
        "address": "0x617b3a3528F9cDd6630fd3301B9c8911F7Bf063D",
        "nonce": "0",
        "balance": "100000000000000000000",
        "pvtKey": "0x28b2b0318721be8c8339199172cd7cc8f5e273800a35616ec893083a4b32c02e"
      },
      {
        "address": "0x4d5Cf5032B2a844602278b01199ED191A86c93ff",
        "nonce": "0",
        "balance": "200000000000000000000",
        "pvtKey": "0x4d27a600dce8c29b7bd080e29a26972377dbb04d7a27d919adbb602bf13cfd23"
      }
    ],
    "expectedOldRoot": "0x4a9bfcb163ec91c5beb22e6aca41592433092c8c7821b01d37fd0de483f9265d",
    "txs": [
      {
        "id": 0,
        "from": "0x617b3a3528F9cDd6630fd3301B9c8911F7Bf063D",
        "to": "0x4d5Cf5032B2a844602278b01199ED191A86c93ff",
        "nonce": 0,
        "value": "10000000000000000000000",
        "gasLimit": 100000,
        "gasPrice": "1000000000",
        "chainId": 1000,
        "rawTx": "0xf87080843b9aca00830186a0944d5cf5032b2a844602278b01199ed191a86c93ff8a021e19e0c9bab2400000808207f4a069d48cb9ade9de851379987aa0f7f677cdaee1152ec785a3d3009f094c889be9a0368c3d198cdfe5b1e0100fe110ea60e77b1eb65e9363d96f7fb9c2b84a37c9b0",
        "customRawTx": "0xf080843b9aca00830186a0944d5cf5032b2a844602278b01199ed191a86c93ff8a021e19e0c9bab2400000808203e8808069d48cb9ade9de851379987aa0f7f677cdaee1152ec785a3d3009f094c889be9368c3d198cdfe5b1e0100fe110ea60e77b1eb65e9363d96f7fb9c2b84a37c9b01cff",
        "reason": "TX INVALID: Not enough funds to pay total transaction cost"
      }
    ],
    "expectedNewRoot": "0x033ebca6dab976fc6c84aa055a8b0c2fb80c625d2b3d39524e956613871008c5",
    "expectedNewLeafs": {
      "0x617b3a3528F9cDd6630fd3301B9c8911F7Bf063D": {
        "balance": "100000000000000000000",
        "nonce": "0"
      },
      "0x4d5Cf5032B2a844602278b01199ED191A86c93ff": {
        "balance": "200000000000000000000",
        "nonce": "0"
      }
    },
    "batchL2Data": "0x0b00000000000003e8310000000000000000000000000000000000000000000000000000000000000000000000f080843b9aca00830186a0944d5cf5032b2a844602278b01199ed191a86c93ff8a021e19e0c9bab2400000808203e8808069d48cb9ade9de851379987aa0f7f677cdaee1152ec785a3d3009f094c889be9368c3d198cdfe5b1e0100fe110ea60e77b1eb65e9363d96f7fb9c2b84a37c9b01cff",
    "newLocalExitRoot": "0x0000000000000000000000000000000000000000000000000000000000000000",
    "batchHashData": "0xccf0dbe7c4e6e033dac07abf3a79c670b6c3d71dbc8ae70db07a8d4513293d55",
    "timestamp": 1944498031,
    "chainID": 1000,
    "oldAccInputHash": "0x0000000000000000000000000000000000000000000000000000000000000000",
    "forkID": 14,
    "historicGERRoot": "0x090bcaf734c4f06c93954a827b45a6e8c67b8e0fd1e0a35a1c5982d6961828f9",
    "receipts": [],
    "blockInfo": {
      "blockNumber": 0,
      "gasUsedForTx": 21000,
      "blockGasLimit": 30000000,
      "parentHash": "0x0000000000000000000000000000000000000000000000000000000000000000",
      "txHashRoot": "0x0000000000000000000000000000000000000000000000000000000000000000",
      "receiptRoot": "0x0000000000000000000000000000000000000000000000000000000000000000",
      "timestamp": 1944498031
    }
  },
  {
    "id": 3,
    "description": "2 accounts and 2 invalid transactions. Tx with same amount than balance and tx with invalid chain id (different chain id than sequencer). Old root equals new root",
    "arity": 4,
    "chainIdSequencer": 1001,
    "defaultChainId": 1000,
    "sequencerAddress": "0x617b3a3528F9cDd6630fd3301B9c8911F7Bf063D",
    "sequencerPvtKey": "0x28b2b0318721be8c8339199172cd7cc8f5e273800a35616ec893083a4b32c02e",
    "genesis": [
      {
        "address": "0x617b3a3528F9cDd6630fd3301B9c8911F7Bf063D",
        "nonce": "0",
        "balance": "100000000000000000000",
        "pvtKey": "0x28b2b0318721be8c8339199172cd7cc8f5e273800a35616ec893083a4b32c02e"
      },
      {
        "address": "0x4d5Cf5032B2a844602278b01199ED191A86c93ff",
        "nonce": "0",
        "balance": "200000000000000000000",
        "pvtKey": "0x4d27a600dce8c29b7bd080e29a26972377dbb04d7a27d919adbb602bf13cfd23"
      }
    ],
    "expectedOldRoot": "0x4a9bfcb163ec91c5beb22e6aca41592433092c8c7821b01d37fd0de483f9265d",
    "txs": [
      {
        "id": 0,
        "from": "0x617b3a3528F9cDd6630fd3301B9c8911F7Bf063D",
        "to": "0x4d5Cf5032B2a844602278b01199ED191A86c93ff",
        "nonce": 0,
        "value": "100000000000000000",
        "gasLimit": 100000,
        "gasPrice": "1000000000",
        "chainId": 401,
        "rawTx": "0xf86e80843b9aca00830186a0944d5cf5032b2a844602278b01199ed191a86c93ff88016345785d8a000080820346a06e209c61ca92c2b980d6197e7ac9ccc3f547bf13be6455dfe682aa5dda9655efa016819a7edcc3fefec81ca97c7a6f3d10ec774440e409adbba693ce8b698d41f1",
        "customRawTx": "0xee80843b9aca00830186a0944d5cf5032b2a844602278b01199ed191a86c93ff88016345785d8a00008082019180806e209c61ca92c2b980d6197e7ac9ccc3f547bf13be6455dfe682aa5dda9655ef16819a7edcc3fefec81ca97c7a6f3d10ec774440e409adbba693ce8b698d41f11cff",
        "reason": "TX INVALID: Chain ID does not match"
      },
      {
        "id": 3,
        "from": "0x617b3a3528F9cDd6630fd3301B9c8911F7Bf063D",
        "to": "0x4d5Cf5032B2a844602278b01199ED191A86c93ff",
        "nonce": 0,
        "value": "100000000000000000000",
        "gasLimit": 100000,
        "gasPrice": "1000000000",
        "chainId": 1000,
        "rawTx": "0xf86f80843b9aca00830186a0944d5cf5032b2a844602278b01199ed191a86c93ff89056bc75e2d63100000808207f3a06fac51f437890686cea7fc4d478e01f4650284d8b0c447d3a049ad799a938e85a05d76085acbdd3af82e205f070fd3f333d3f069ab3936323ac347003f07d9418a",
        "customRawTx": "0xef80843b9aca00830186a0944d5cf5032b2a844602278b01199ed191a86c93ff89056bc75e2d63100000808203e880806fac51f437890686cea7fc4d478e01f4650284d8b0c447d3a049ad799a938e855d76085acbdd3af82e205f070fd3f333d3f069ab3936323ac347003f07d9418a1bff",
        "reason": "TX INVALID: Not enough funds to pay total transaction cost"
      }
    ],
    "expectedNewRoot": "0x033ebca6dab976fc6c84aa055a8b0c2fb80c625d2b3d39524e956613871008c5",
    "expectedNewLeafs": {
      "0x617b3a3528F9cDd6630fd3301B9c8911F7Bf063D": {
        "balance": "100000000000000000000",
        "nonce": "0"
      },
      "0x4d5Cf5032B2a844602278b01199ED191A86c93ff": {
        "balance": "200000000000000000000",
        "nonce": "0"
      }
    },
    "batchL2Data": "0x0b00000000000003e8310000000000000000000000000000000000000000000000000000000000000000000000ee80843b9aca00830186a0944d5cf5032b2a844602278b01199ed191a86c93ff88016345785d8a00008082019180806e209c61ca92c2b980d6197e7ac9ccc3f547bf13be6455dfe682aa5dda9655ef16819a7edcc3fefec81ca97c7a6f3d10ec774440e409adbba693ce8b698d41f11cffef80843b9aca00830186a0944d5cf5032b2a844602278b01199ed191a86c93ff89056bc75e2d63100000808203e880806fac51f437890686cea7fc4d478e01f4650284d8b0c447d3a049ad799a938e855d76085acbdd3af82e205f070fd3f333d3f069ab3936323ac347003f07d9418a1bff",
    "newLocalExitRoot": "0x0000000000000000000000000000000000000000000000000000000000000000",
    "batchHashData": "0x19ecc3dd3e12197f23d11ddba6bb5bc3797f406c781021af31a8f0cab41359e0",
    "timestamp": 1944498031,
    "chainID": 1000,
    "oldAccInputHash": "0x0000000000000000000000000000000000000000000000000000000000000000",
    "forkID": 14,
    "historicGERRoot": "0x090bcaf734c4f06c93954a827b45a6e8c67b8e0fd1e0a35a1c5982d6961828f9",
    "receipts": [],
    "blockInfo": {
      "blockNumber": 0,
      "gasUsedForTx": 21000,
      "blockGasLimit": 30000000,
      "parentHash": "0x0000000000000000000000000000000000000000000000000000000000000000",
      "txHashRoot": "0x0000000000000000000000000000000000000000000000000000000000000000",
      "receiptRoot": "0x0000000000000000000000000000000000000000000000000000000000000000",
      "timestamp": 1944498031
    }
  },
  {
    "id": 4,
    "description": "2 accounts and 1 invalid transaction. Wrong encode of the tx (invalid signature). Old root equals new root",
    "arity": 4,
    "chainIdSequencer": 1001,
    "defaultChainId": 1000,
    "sequencerAddress": "0x617b3a3528F9cDd6630fd3301B9c8911F7Bf063D",
    "sequencerPvtKey": "0x28b2b0318721be8c8339199172cd7cc8f5e273800a35616ec893083a4b32c02e",
    "genesis": [
      {
        "address": "0x617b3a3528F9cDd6630fd3301B9c8911F7Bf063D",
        "nonce": "0",
        "balance": "100000000000000000000",
        "pvtKey": "0x28b2b0318721be8c8339199172cd7cc8f5e273800a35616ec893083a4b32c02e"
      },
      {
        "address": "0x4d5Cf5032B2a844602278b01199ED191A86c93ff",
        "nonce": "0",
        "balance": "200000000000000000000",
        "pvtKey": "0x4d27a600dce8c29b7bd080e29a26972377dbb04d7a27d919adbb602bf13cfd23"
      }
    ],
    "expectedOldRoot": "0x4a9bfcb163ec91c5beb22e6aca41592433092c8c7821b01d37fd0de483f9265d",
    "txs": [
      {
        "id": 0,
        "from": "0x617b3a3528F9cDd6630fd3301B9c8911F7Bf063D",
        "to": "0x4d5Cf5032B2a844602278b01199ED191A86c93ff",
        "nonce": 0,
        "value": "100000000000000000",
        "gasLimit": 100000,
        "gasPrice": "1000000000",
        "chainId": 1000,
        "rawTx": "0xf86e80843b9aca00830186a0944d5cf5032b2a844602278b01199ed191a86c93ff88016345785d8a0000808207f3a01cee7e01dc62f69a12c3510c6d64de04ee6346d84b6a017f3e786c7d87f963e7a019683074bcc81dba07fad2ac4015cf2eba4807c1aa1a8d291e77317a45fc2023",
        "overwrite": {
          "s": "0x19683074bcc81dba07fad2ac4015cf2eba4807c1aa1a8d291e77317a45fc2023"
        },
        "customRawTx": "0xee80843b9aca00830186a0944d5cf5032b2a844602278b01199ed191a86c93ff88016345785d8a0000808203e880801cee7e01dc62f69a12c3510c6d64de04ee6346d84b6a017f3e786c7d87f963e719683074bcc81dba07fad2ac4015cf2eba4807c1aa1a8d291e77317a45fc20231bff",
        "reason": "TX INVALID: Not enough funds to pay total transaction cost"
      }
    ],
    "expectedNewRoot": "0x033ebca6dab976fc6c84aa055a8b0c2fb80c625d2b3d39524e956613871008c5",
    "expectedNewLeafs": {
      "0x617b3a3528F9cDd6630fd3301B9c8911F7Bf063D": {
        "balance": "100000000000000000000",
        "nonce": "0"
      },
      "0x4d5Cf5032B2a844602278b01199ED191A86c93ff": {
        "balance": "200000000000000000000",
        "nonce": "0"
      }
    },
    "batchL2Data": "0x0b00000000000003e8310000000000000000000000000000000000000000000000000000000000000000000000ee80843b9aca00830186a0944d5cf5032b2a844602278b01199ed191a86c93ff88016345785d8a0000808203e880801cee7e01dc62f69a12c3510c6d64de04ee6346d84b6a017f3e786c7d87f963e719683074bcc81dba07fad2ac4015cf2eba4807c1aa1a8d291e77317a45fc20231bff",
    "newLocalExitRoot": "0x0000000000000000000000000000000000000000000000000000000000000000",
    "batchHashData": "0x300349f2ba245c5317bde63d8a2d9a621fb9b9092520ba20f8c8f78cd61639ac",
    "timestamp": 1944498031,
    "chainID": 1000,
    "oldAccInputHash": "0x0000000000000000000000000000000000000000000000000000000000000000",
    "forkID": 14,
    "historicGERRoot": "0x090bcaf734c4f06c93954a827b45a6e8c67b8e0fd1e0a35a1c5982d6961828f9",
    "receipts": [],
    "blockInfo": {
      "blockNumber": 0,
      "gasUsedForTx": 21000,
      "blockGasLimit": 30000000,
      "parentHash": "0x0000000000000000000000000000000000000000000000000000000000000000",
      "txHashRoot": "0x0000000000000000000000000000000000000000000000000000000000000000",
      "receiptRoot": "0x0000000000000000000000000000000000000000000000000000000000000000",
      "timestamp": 1944498031
    }
  },
  {
    "id": 5,
    "description": "2 accounts and 3 valid transaction.",
    "arity": 4,
    "chainIdSequencer": 1001,
    "defaultChainId": 1000,
    "sequencerAddress": "0x617b3a3528F9cDd6630fd3301B9c8911F7Bf063D",
    "sequencerPvtKey": "0x28b2b0318721be8c8339199172cd7cc8f5e273800a35616ec893083a4b32c02e",
    "genesis": [
      {
        "address": "0x617b3a3528F9cDd6630fd3301B9c8911F7Bf063D",
        "nonce": "0",
        "balance": "100000000000000000000",
        "pvtKey": "0x28b2b0318721be8c8339199172cd7cc8f5e273800a35616ec893083a4b32c02e"
      },
      {
        "address": "0x4d5Cf5032B2a844602278b01199ED191A86c93ff",
        "nonce": "0",
        "balance": "200000000000000000000",
        "pvtKey": "0x4d27a600dce8c29b7bd080e29a26972377dbb04d7a27d919adbb602bf13cfd23"
      }
    ],
    "expectedOldRoot": "0x4a9bfcb163ec91c5beb22e6aca41592433092c8c7821b01d37fd0de483f9265d",
    "txs": [
      {
        "id": 0,
        "from": "0x617b3a3528F9cDd6630fd3301B9c8911F7Bf063D",
        "to": "0x4d5Cf5032B2a844602278b01199ED191A86c93ff",
        "nonce": 0,
        "value": "100000000000000000",
        "gasLimit": 100000,
        "gasPrice": "1000000000",
        "chainId": 1000,
        "rawTx": "0xf86e80843b9aca00830186a0944d5cf5032b2a844602278b01199ed191a86c93ff88016345785d8a0000808207f3a01cee7e01dc62f69a12c3510c6d64de04ee6346d84b6a017f3e786c7d87f963e7a05d8cc91fa983cd6d9cf55fff80d73bd26cd333b0f098acc1e58edb1fd484ad73",
        "customRawTx": "0xee80843b9aca00830186a0944d5cf5032b2a844602278b01199ed191a86c93ff88016345785d8a0000808203e880801cee7e01dc62f69a12c3510c6d64de04ee6346d84b6a017f3e786c7d87f963e75d8cc91fa983cd6d9cf55fff80d73bd26cd333b0f098acc1e58edb1fd484ad731bff",
        "reason": ""
      },
      {
        "id": 1,
        "from": "0x617b3a3528F9cDd6630fd3301B9c8911F7Bf063D",
        "to": "0x4d5Cf5032B2a844602278b01199ED191A86c93ff",
        "nonce": 1,
        "value": "100000000000000000",
        "gasLimit": 100000,
        "gasPrice": "1000000000",
        "chainId": 1000,
        "rawTx": "0xf86e01843b9aca00830186a0944d5cf5032b2a844602278b01199ed191a86c93ff88016345785d8a0000808207f4a03ee20a0764440b016c4a2ee4e7e4eb3a5a97f1e6a6c9f40bf5ecf50f95ff636da063878ddb3e997e519826c7bb26fb7c5950a208e1ec722a9f1c568c4e479b4034",
        "customRawTx": "0xee01843b9aca00830186a0944d5cf5032b2a844602278b01199ed191a86c93ff88016345785d8a0000808203e880803ee20a0764440b016c4a2ee4e7e4eb3a5a97f1e6a6c9f40bf5ecf50f95ff636d63878ddb3e997e519826c7bb26fb7c5950a208e1ec722a9f1c568c4e479b40341cff",
        "reason": ""
      },
      {
        "id": 2,
        "from": "0x617b3a3528F9cDd6630fd3301B9c8911F7Bf063D",
        "to": "0x4d5Cf5032B2a844602278b01199ED191A86c93ff",
        "nonce": 2,
        "value": "100000000000000000",
        "gasLimit": 100000,
        "gasPrice": "1000000000",
        "chainId": 1000,
        "rawTx": "0xf86e02843b9aca00830186a0944d5cf5032b2a844602278b01199ed191a86c93ff88016345785d8a0000808207f3a0bff0e780ba7db409339fd3f71969fa2cbf1b8535f6c725a1499d3318d3ef9c2ba06340ddfab84add2c188f9efddb99771db1fe621c981846394ea4f035c85bcdd5",
        "customRawTx": "0xee02843b9aca00830186a0944d5cf5032b2a844602278b01199ed191a86c93ff88016345785d8a0000808203e88080bff0e780ba7db409339fd3f71969fa2cbf1b8535f6c725a1499d3318d3ef9c2b6340ddfab84add2c188f9efddb99771db1fe621c981846394ea4f035c85bcdd51bff",
        "reason": ""
      }
    ],
    "expectedNewRoot": "0x173665540a25776a3b955fc29813987bf7d597351ed3c990f6043149501a6aeb",
    "expectedNewLeafs": {
      "0x617b3a3528F9cDd6630fd3301B9c8911F7Bf063D": {
        "balance": "99700000000000000000",
        "nonce": "3"
      },
      "0x4d5Cf5032B2a844602278b01199ED191A86c93ff": {
        "balance": "200300000000000000000",
        "nonce": "0"
      }
    },
    "batchL2Data": "0x0b00000000000003e8310000000000000000000000000000000000000000000000000000000000000000000000ee80843b9aca00830186a0944d5cf5032b2a844602278b01199ed191a86c93ff88016345785d8a0000808203e880801cee7e01dc62f69a12c3510c6d64de04ee6346d84b6a017f3e786c7d87f963e75d8cc91fa983cd6d9cf55fff80d73bd26cd333b0f098acc1e58edb1fd484ad731bffee01843b9aca00830186a0944d5cf5032b2a844602278b01199ed191a86c93ff88016345785d8a0000808203e880803ee20a0764440b016c4a2ee4e7e4eb3a5a97f1e6a6c9f40bf5ecf50f95ff636d63878ddb3e997e519826c7bb26fb7c5950a208e1ec722a9f1c568c4e479b40341cffee02843b9aca00830186a0944d5cf5032b2a844602278b01199ed191a86c93ff88016345785d8a0000808203e88080bff0e780ba7db409339fd3f71969fa2cbf1b8535f6c725a1499d3318d3ef9c2b6340ddfab84add2c188f9efddb99771db1fe621c981846394ea4f035c85bcdd51bff",
    "newLocalExitRoot": "0x0000000000000000000000000000000000000000000000000000000000000000",
    "batchHashData": "0xa54861aaa8584c182997e3fc69d18cddcdefe6b2f6ae0ba3e1f47c7aca2290d6",
    "timestamp": 1944498031,
    "chainID": 1000,
    "oldAccInputHash": "0x0000000000000000000000000000000000000000000000000000000000000000",
    "forkID": 14,
    "historicGERRoot": "0x090bcaf734c4f06c93954a827b45a6e8c67b8e0fd1e0a35a1c5982d6961828f9",
    "receipts": [
      {
        "txId": 0,
        "receipt": {
          "transactionHash": "0xd57e9bcee701d953738e80145bc4ab61b9c89721f368ee9300d253fd4a479704",
          "transactionIndex": 0,
          "blockNumber": 0,
          "from": "0x617b3a3528F9cDd6630fd3301B9c8911F7Bf063D",
          "to": "0x4d5Cf5032B2a844602278b01199ED191A86c93ff",
          "cumulativeGasUsed": 21000,
          "gasUsedForTx": 21000,
          "contractAddress": null,
          "logs": 0,
          "logsBloom": 0,
          "status": 1,
          "blockHash": "0x5186b7c1c1a05b48a578339d7a116c2384b928f4dc7a3dfc4a21ae4803a4d5f9"
        }
      },
      {
        "txId": 1,
        "receipt": {
          "transactionHash": "0x057505f6795c8a7b9740d6b805c1f14937cd0f9c3b108d9d1e16c1bc15c8ce5a",
          "transactionIndex": 1,
          "blockNumber": 0,
          "from": "0x617b3a3528F9cDd6630fd3301B9c8911F7Bf063D",
          "to": "0x4d5Cf5032B2a844602278b01199ED191A86c93ff",
          "cumulativeGasUsed": 42000,
          "gasUsedForTx": 21000,
          "contractAddress": null,
          "logs": 0,
          "logsBloom": 0,
          "status": 1,
          "blockHash": "0x5186b7c1c1a05b48a578339d7a116c2384b928f4dc7a3dfc4a21ae4803a4d5f9"
        }
      },
      {
        "txId": 2,
        "receipt": {
          "transactionHash": "0x2799865cc2e40485f8b93ab4d9d1544b19e1eb37e54185621e250cc191226bdd",
          "transactionIndex": 2,
          "blockNumber": 0,
          "from": "0x617b3a3528F9cDd6630fd3301B9c8911F7Bf063D",
          "to": "0x4d5Cf5032B2a844602278b01199ED191A86c93ff",
          "cumulativeGasUsed": 63000,
          "gasUsedForTx": 21000,
          "contractAddress": null,
          "logs": 0,
          "logsBloom": 0,
          "status": 1,
          "blockHash": "0x5186b7c1c1a05b48a578339d7a116c2384b928f4dc7a3dfc4a21ae4803a4d5f9"
        }
      }
    ],
    "blockInfo": {
      "blockNumber": 0,
      "gasUsedForTx": 21000,
      "blockGasLimit": 30000000,
      "parentHash": "0x0000000000000000000000000000000000000000000000000000000000000000",
      "txHashRoot": "0x0000000000000000000000000000000000000000000000000000000000000000",
      "receiptRoot": "0x0000000000000000000000000000000000000000000000000000000000000000",
      "timestamp": 1944498031
    }
  },
  {
    "id": 6,
    "description": "2 accounts and 3 invalid tx (tx with more value than balance). Old root equals new root.",
    "arity": 4,
    "chainIdSequencer": 1001,
    "defaultChainId": 1000,
    "sequencerAddress": "0x617b3a3528F9cDd6630fd3301B9c8911F7Bf063D",
    "sequencerPvtKey": "0x28b2b0318721be8c8339199172cd7cc8f5e273800a35616ec893083a4b32c02e",
    "genesis": [
      {
        "address": "0x617b3a3528F9cDd6630fd3301B9c8911F7Bf063D",
        "nonce": "0",
        "balance": "100000000000000000000",
        "pvtKey": "0x28b2b0318721be8c8339199172cd7cc8f5e273800a35616ec893083a4b32c02e"
      },
      {
        "address": "0x4d5Cf5032B2a844602278b01199ED191A86c93ff",
        "nonce": "0",
        "balance": "200000000000000000000",
        "pvtKey": "0x4d27a600dce8c29b7bd080e29a26972377dbb04d7a27d919adbb602bf13cfd23"
      }
    ],
    "expectedOldRoot": "0x4a9bfcb163ec91c5beb22e6aca41592433092c8c7821b01d37fd0de483f9265d",
    "txs": [
      {
        "id": 0,
        "from": "0x617b3a3528F9cDd6630fd3301B9c8911F7Bf063D",
        "to": "0x4d5Cf5032B2a844602278b01199ED191A86c93ff",
        "nonce": 0,
        "value": "10000000000000000000000",
        "gasLimit": 100000,
        "gasPrice": "1000000000",
        "chainId": 1000,
        "rawTx": "0xf87080843b9aca00830186a0944d5cf5032b2a844602278b01199ed191a86c93ff8a021e19e0c9bab2400000808207f4a069d48cb9ade9de851379987aa0f7f677cdaee1152ec785a3d3009f094c889be9a0368c3d198cdfe5b1e0100fe110ea60e77b1eb65e9363d96f7fb9c2b84a37c9b0",
        "customRawTx": "0xf080843b9aca00830186a0944d5cf5032b2a844602278b01199ed191a86c93ff8a021e19e0c9bab2400000808203e8808069d48cb9ade9de851379987aa0f7f677cdaee1152ec785a3d3009f094c889be9368c3d198cdfe5b1e0100fe110ea60e77b1eb65e9363d96f7fb9c2b84a37c9b01cff",
        "reason": "TX INVALID: Not enough funds to pay total transaction cost"
      },
      {
        "id": 1,
        "from": "0x617b3a3528F9cDd6630fd3301B9c8911F7Bf063D",
        "to": "0x4d5Cf5032B2a844602278b01199ED191A86c93ff",
        "nonce": 0,
        "value": "10000000000000000000000",
        "gasLimit": 100000,
        "gasPrice": "1000000000",
        "chainId": 1000,
        "rawTx": "0xf87080843b9aca00830186a0944d5cf5032b2a844602278b01199ed191a86c93ff8a021e19e0c9bab2400000808207f4a069d48cb9ade9de851379987aa0f7f677cdaee1152ec785a3d3009f094c889be9a0368c3d198cdfe5b1e0100fe110ea60e77b1eb65e9363d96f7fb9c2b84a37c9b0",
        "customRawTx": "0xf080843b9aca00830186a0944d5cf5032b2a844602278b01199ed191a86c93ff8a021e19e0c9bab2400000808203e8808069d48cb9ade9de851379987aa0f7f677cdaee1152ec785a3d3009f094c889be9368c3d198cdfe5b1e0100fe110ea60e77b1eb65e9363d96f7fb9c2b84a37c9b01cff",
        "reason": "TX INVALID: Not enough funds to pay total transaction cost"
      },
      {
        "id": 2,
        "from": "0x617b3a3528F9cDd6630fd3301B9c8911F7Bf063D",
        "to": "0x4d5Cf5032B2a844602278b01199ED191A86c93ff",
        "nonce": 0,
        "value": "10000000000000000000000",
        "gasLimit": 100000,
        "gasPrice": "1000000000",
        "chainId": 1000,
        "rawTx": "0xf87080843b9aca00830186a0944d5cf5032b2a844602278b01199ed191a86c93ff8a021e19e0c9bab2400000808207f4a069d48cb9ade9de851379987aa0f7f677cdaee1152ec785a3d3009f094c889be9a0368c3d198cdfe5b1e0100fe110ea60e77b1eb65e9363d96f7fb9c2b84a37c9b0",
        "customRawTx": "0xf080843b9aca00830186a0944d5cf5032b2a844602278b01199ed191a86c93ff8a021e19e0c9bab2400000808203e8808069d48cb9ade9de851379987aa0f7f677cdaee1152ec785a3d3009f094c889be9368c3d198cdfe5b1e0100fe110ea60e77b1eb65e9363d96f7fb9c2b84a37c9b01cff",
        "reason": "TX INVALID: Not enough funds to pay total transaction cost"
      }
    ],
    "expectedNewRoot": "0x033ebca6dab976fc6c84aa055a8b0c2fb80c625d2b3d39524e956613871008c5",
    "expectedNewLeafs": {
      "0x617b3a3528F9cDd6630fd3301B9c8911F7Bf063D": {
        "balance": "100000000000000000000",
        "nonce": "0"
      },
      "0x4d5Cf5032B2a844602278b01199ED191A86c93ff": {
        "balance": "200000000000000000000",
        "nonce": "0"
      }
    },
    "batchL2Data": "0x0b00000000000003e8310000000000000000000000000000000000000000000000000000000000000000000000f080843b9aca00830186a0944d5cf5032b2a844602278b01199ed191a86c93ff8a021e19e0c9bab2400000808203e8808069d48cb9ade9de851379987aa0f7f677cdaee1152ec785a3d3009f094c889be9368c3d198cdfe5b1e0100fe110ea60e77b1eb65e9363d96f7fb9c2b84a37c9b01cfff080843b9aca00830186a0944d5cf5032b2a844602278b01199ed191a86c93ff8a021e19e0c9bab2400000808203e8808069d48cb9ade9de851379987aa0f7f677cdaee1152ec785a3d3009f094c889be9368c3d198cdfe5b1e0100fe110ea60e77b1eb65e9363d96f7fb9c2b84a37c9b01cfff080843b9aca00830186a0944d5cf5032b2a844602278b01199ed191a86c93ff8a021e19e0c9bab2400000808203e8808069d48cb9ade9de851379987aa0f7f677cdaee1152ec785a3d3009f094c889be9368c3d198cdfe5b1e0100fe110ea60e77b1eb65e9363d96f7fb9c2b84a37c9b01cff",
    "newLocalExitRoot": "0x0000000000000000000000000000000000000000000000000000000000000000",
    "batchHashData": "0x17b7aea679ea11e40064656a148a1da980a33e88f177a0c62ee0628ba6923ff0",
    "timestamp": 1944498031,
    "chainID": 1000,
    "oldAccInputHash": "0x0000000000000000000000000000000000000000000000000000000000000000",
    "forkID": 14,
    "historicGERRoot": "0x090bcaf734c4f06c93954a827b45a6e8c67b8e0fd1e0a35a1c5982d6961828f9",
    "receipts": [],
    "blockInfo": {
      "blockNumber": 0,
      "gasUsedForTx": 21000,
      "blockGasLimit": 30000000,
      "parentHash": "0x0000000000000000000000000000000000000000000000000000000000000000",
      "txHashRoot": "0x0000000000000000000000000000000000000000000000000000000000000000",
      "receiptRoot": "0x0000000000000000000000000000000000000000000000000000000000000000",
      "timestamp": 1944498031
    }
  },
  {
    "id": 7,
    "description": "2 accounts and 0 txs. Old root equals new root.",
    "arity": 4,
    "chainIdSequencer": 1001,
    "defaultChainId": 1000,
    "sequencerAddress": "0x617b3a3528F9cDd6630fd3301B9c8911F7Bf063D",
    "sequencerPvtKey": "0x28b2b0318721be8c8339199172cd7cc8f5e273800a35616ec893083a4b32c02e",
    "genesis": [
      {
        "address": "0x617b3a3528F9cDd6630fd3301B9c8911F7Bf063D",
        "nonce": "0",
        "balance": "100000000000000000000",
        "pvtKey": "0x28b2b0318721be8c8339199172cd7cc8f5e273800a35616ec893083a4b32c02e"
      },
      {
        "address": "0x4d5Cf5032B2a844602278b01199ED191A86c93ff",
        "nonce": "0",
        "balance": "200000000000000000000",
        "pvtKey": "0x4d27a600dce8c29b7bd080e29a26972377dbb04d7a27d919adbb602bf13cfd23"
      }
    ],
    "expectedOldRoot": "0x4a9bfcb163ec91c5beb22e6aca41592433092c8c7821b01d37fd0de483f9265d",
    "txs": [],
    "expectedNewRoot": "0x033ebca6dab976fc6c84aa055a8b0c2fb80c625d2b3d39524e956613871008c5",
    "expectedNewLeafs": {
      "0x617b3a3528F9cDd6630fd3301B9c8911F7Bf063D": {
        "balance": "100000000000000000000",
        "nonce": "0"
      },
      "0x4d5Cf5032B2a844602278b01199ED191A86c93ff": {
        "balance": "200000000000000000000",
        "nonce": "0"
      }
    },
    "batchL2Data": "0x0b00000000000003e8310000000000000000000000000000000000000000000000000000000000000000000000",
    "newLocalExitRoot": "0x0000000000000000000000000000000000000000000000000000000000000000",
    "batchHashData": "0xef4ab813a6944624c6fef6fe548036a17c48023925421289bc7816438e7caeff",
    "timestamp": 1944498031,
    "chainID": 1000,
    "oldAccInputHash": "0x0000000000000000000000000000000000000000000000000000000000000000",
    "forkID": 14,
    "historicGERRoot": "0x090bcaf734c4f06c93954a827b45a6e8c67b8e0fd1e0a35a1c5982d6961828f9",
    "receipts": [],
    "blockInfo": {
      "blockNumber": 0,
      "gasUsedForTx": 21000,
      "blockGasLimit": 30000000,
      "parentHash": "0x0000000000000000000000000000000000000000000000000000000000000000",
      "txHashRoot": "0x0000000000000000000000000000000000000000000000000000000000000000",
      "receiptRoot": "0x0000000000000000000000000000000000000000000000000000000000000000",
      "timestamp": 1944498031
    }
  }
]