{
    "id": 4,
    "description": "2 accounts and 1 invalid transaction. Wrong encode of the tx (invalid signature). Old root equals new root",
    "arity": 4,
    "chainIdSequencer": 1001,
    "defaultChainId": 1000,
    "sequencerAddress": "0x617b3a3528F9cDd6630fd3301B9c8911F7Bf063D",
    "sequencerPvtKey": "0x28b2b0318721be8c8339199172cd7cc8f5e273800a35616ec893083a4b32c02e",
    "genesis": [
        {
            "address": "0x617b3a3528F9cDd6630fd3301B9c8911F7Bf063D",
            "pvtKey": "0x28b2b0318721be8c8339199172cd7cc8f5e273800a35616ec893083a4b32c02e",
            "balance": "100000000000000000000",
            "nonce": "0"
        },
        {
            "address": "0x4d5Cf5032B2a844602278b01199ED191A86c93ff",
            "pvtKey": "0x4d27a600dce8c29b7bd080e29a26972377dbb04d7a27d919adbb602bf13cfd23",
            "balance": "200000000000000000000",
            "nonce": "0"
        }
    ],
    "expectedOldRoot": "4091651772388093439828475955668620102367778455436412389529460210592290187513",
    "txs": [
        {
            "id": 0,
            "from": "0x617b3a3528F9cDd6630fd3301B9c8911F7Bf063D",
            "to": "0x4d5Cf5032B2a844602278b01199ED191A86c93ff",
            "nonce": 0,
            "value": "100000000000000000",
            "gasLimit": 100000,
            "gasPrice": "1000000000",
            "chainId": 1001,
            "rawTx": "0xf86e80843b9aca00830186a0944d5cf5032b2a844602278b01199ed191a86c93ff88016345785d8a0000808207f5a01186622d03b6b8da7cf111d1ccba5bb185c56deae6a322cebc6dda0556f3cb97a0a9683074bcc81dba07fad2ac4015cf2eba4807c1aa1a8d291e77317a45fc2023",
            "overwrite": {
                "s": "0xa9683074bcc81dba07fad2ac4015cf2eba4807c1aa1a8d291e77317a45fc2023"
            }
        }
    ],
    "expectedNewRoot": "4091651772388093439828475955668620102367778455436412389529460210592290187513",
    "expectedNewLeafs": {
        "0x617b3a3528F9cDd6630fd3301B9c8911F7Bf063D": {
            "balance": "100000000000000000000",
            "nonce": "0"
        },
        "0x4d5Cf5032B2a844602278b01199ED191A86c93ff": {
            "balance": "200000000000000000000",
            "nonce": "0"
        }
    }
}