{
    "id": 3,
    "description": "2 accounts and 4 invalid transactions. Two of the transactions have invalid from and to address so no rawTx is provided for them, can be ignored.Tx with same amount than balance and tx with invalid chain id (different chain id than sequencer). Old root equals new root",
    "arity": 4,
    "chainIdSequencer": 1001,
    "defaultChainId": 1000,
    "sequencerAddress": "0x617b3a3528F9cDd6630fd3301B9c8911F7Bf063D",
    "sequencerPvtKey": "0x28b2b0318721be8c8339199172cd7cc8f5e273800a35616ec893083a4b32c02e",
    "genesis": [
        {
            "address": "0x617b3a3528F9cDd6630fd3301B9c8911F7Bf063D",
            "pvtKey": "0x28b2b0318721be8c8339199172cd7cc8f5e273800a35616ec893083a4b32c02e",
            "balance": "100000000000000000000",
            "nonce": "0"
        },
        {
            "address": "0x4d5Cf5032B2a844602278b01199ED191A86c93ff",
            "pvtKey": "0x4d27a600dce8c29b7bd080e29a26972377dbb04d7a27d919adbb602bf13cfd23",
            "balance": "200000000000000000000",
            "nonce": "0"
        }
    ],
    "expectedOldRoot": "4091651772388093439828475955668620102367778455436412389529460210592290187513",
    "txs": [
        {
            "id": 0,
            "from": "0x617b3a3528F9cDd6630fd3301B9c8911F7Bf063D",
            "to": "0x4d5Cf5032B2a844602278b01199ED191A86c93ff",
            "nonce": 0,
            "value": "100000000000000000",
            "gasLimit": 100000,
            "gasPrice": "1000000000",
            "chainId": 401,
            "rawTx": "0xf86e80843b9aca00830186a0944d5cf5032b2a844602278b01199ed191a86c93ff88016345785d8a000080820346a06e209c61ca92c2b980d6197e7ac9ccc3f547bf13be6455dfe682aa5dda9655efa016819a7edcc3fefec81ca97c7a6f3d10ec774440e409adbba693ce8b698d41f1"
        },
        {
            "id": 1,
            "from": "0x617b3a3528F9cDd6630fd3301B9c8911F7Bf063D",
            "to": "0x4d5Cf5032B2a844602278b01199ED191A86c93f",
            "nonce": 0,
            "value": "100000000000000000",
            "gasLimit": 100000,
            "gasPrice": "1000000000",
            "chainId": 1001
        },
        {
            "id": 2,
            "from": "0x617b3a3528F9cDd6630fd3301B9c8911F7Bf03D",
            "to": "0x4d5Cf5032B2a844602278b01199ED191A86c93ff",
            "nonce": 0,
            "value": "100000000000000000",
            "gasLimit": 100000,
            "gasPrice": "1000000000",
            "chainId": 1001
        },
        {
            "id": 3,
            "from": "0x617b3a3528F9cDd6630fd3301B9c8911F7Bf063D",
            "to": "0x4d5Cf5032B2a844602278b01199ED191A86c93ff",
            "nonce": 0,
            "value": "100000000000000000000",
            "gasLimit": 100000,
            "gasPrice": "1000000000",
            "chainId": 1001,
            "rawTx": "0xf86f80843b9aca00830186a0944d5cf5032b2a844602278b01199ed191a86c93ff89056bc75e2d63100000808207f5a0fe1e96b35c836fbebac887681150c5fc9fdae862d747aaaf8c30373c0becf769a01ff0c900aaaac6d1565a603f69b5a45f222ed205f0a36fdc6e4e4c5a7b88d45b"
        }
    ],
    "expectedNewRoot": "4091651772388093439828475955668620102367778455436412389529460210592290187513",
    "expectedNewLeafs": {
        "0x617b3a3528F9cDd6630fd3301B9c8911F7Bf063D": {
            "balance": "100000000000000000000",
            "nonce": "0"
        },
        "0x4d5Cf5032B2a844602278b01199ED191A86c93ff": {
            "balance": "200000000000000000000",
            "nonce": "0"
        }
    }
}