[
  {
    "id": 0,
    "description": "2 accounts. 1 valid transaction. 1 invalid transaction (balance == value)",
    "arity": 4,
    "defaultChainId": 1000,
    "sequencerAddress": "0x617b3a3528F9cDd6630fd3301B9c8911F7Bf063D",
    "sequencerPvtKey": "0x28b2b0318721be8c8339199172cd7cc8f5e273800a35616ec893083a4b32c02e",
    "genesis": [
      {
        "address": "0x617b3a3528F9cDd6630fd3301B9c8911F7Bf063D",
        "nonce": "0",
        "balance": "100000000000000000000",
        "pvtKey": "0x28b2b0318721be8c8339199172cd7cc8f5e273800a35616ec893083a4b32c02e"
      },
      {
        "address": "0x4d5Cf5032B2a844602278b01199ED191A86c93ff",
        "nonce": "0",
        "balance": "200000000000000000000",
        "pvtKey": "0x4d27a600dce8c29b7bd080e29a26972377dbb04d7a27d919adbb602bf13cfd23"
      },
      {
        "address": "0xeB17ce701E9D92724AA2ABAdA7E4B28830597Dd9",
        "nonce": "0",
        "balance": "100000000000000000000",
        "pvtKey": "0x1d0722aff4b29780e9a78e0bf28d5e127fb276cfbb0c3eb6a0e1728401777f17"
      }
    ],
    "expectedOldRoot": "0x76b362a9afd679ea13a456ab103786492c65946be653589c1fd627841d0c6fdd",
    "txs": [
      {
        "id": 0,
        "from": "0x617b3a3528F9cDd6630fd3301B9c8911F7Bf063D",
        "to": "0x4d5Cf5032B2a844602278b01199ED191A86c93ff",
        "nonce": 0,
        "value": "100000000000000000",
        "gasLimit": 100000,
        "gasPrice": "1000000000",
        "chainId": 1000,
        "rawTx": "0xf86e80843b9aca00830186a0944d5cf5032b2a844602278b01199ed191a86c93ff88016345785d8a0000808207f3a01cee7e01dc62f69a12c3510c6d64de04ee6346d84b6a017f3e786c7d87f963e7a05d8cc91fa983cd6d9cf55fff80d73bd26cd333b0f098acc1e58edb1fd484ad73",
        "customRawTx": "0xee80843b9aca00830186a0944d5cf5032b2a844602278b01199ed191a86c93ff88016345785d8a0000808203e880801cee7e01dc62f69a12c3510c6d64de04ee6346d84b6a017f3e786c7d87f963e75d8cc91fa983cd6d9cf55fff80d73bd26cd333b0f098acc1e58edb1fd484ad731bff",
        "reason": ""
      },
      {
        "id": 1,
        "from": "0xeB17ce701E9D92724AA2ABAdA7E4B28830597Dd9",
        "to": "0x4d5Cf5032B2a844602278b01199ED191A86c93ff",
        "nonce": 0,
        "value": "1000000000000000000000",
        "gasLimit": 100000,
        "gasPrice": "1000000000",
        "chainId": 1000,
        "rawTx": "0xf86f80843b9aca00830186a0944d5cf5032b2a844602278b01199ed191a86c93ff893635c9adc5dea00000808207f4a00d7790e34c262fc9bca95e5c9f8f7ae1625e1338580eb0a0e707dcb76fef0b64a0385c32f57ec5f520129252ed65f226c6cb50fa16fc07f1e45a9054797f1b462b",
        "customRawTx": "0xef80843b9aca00830186a0944d5cf5032b2a844602278b01199ed191a86c93ff893635c9adc5dea00000808203e880800d7790e34c262fc9bca95e5c9f8f7ae1625e1338580eb0a0e707dcb76fef0b64385c32f57ec5f520129252ed65f226c6cb50fa16fc07f1e45a9054797f1b462b1cff",
        "reason": "TX INVALID: Not enough funds to pay total transaction cost"
      }
    ],
    "expectedNewRoot": "0x789cbc6646699ae84921b0c12e3a8212af6e5633cc4269bfd57a8e275b7747e2",
    "expectedNewLeafs": {
      "0x617b3a3528F9cDd6630fd3301B9c8911F7Bf063D": {
        "balance": "99900000000000000000",
        "nonce": "1",
        "storage": null,
        "hashBytecode": "0x0000000000000000000000000000000000000000000000000000000000000000",
        "bytecodeLength": 0
      },
      "0x4d5Cf5032B2a844602278b01199ED191A86c93ff": {
        "balance": "200100000000000000000",
        "nonce": "0",
        "storage": null,
        "hashBytecode": "0x0000000000000000000000000000000000000000000000000000000000000000",
        "bytecodeLength": 0
      },
      "0x000000000000000000000000000000005ca1ab1e": {
        "balance": "0",
        "nonce": "0",
        "storage": {
          "0x0000000000000000000000000000000000000000000000000000000000000000": "0x01",
          "0x0000000000000000000000000000000000000000000000000000000000000002": "0x03e8",
          "0xa6eef7e35abe7026729641147f7915573c7e97b47efa546f5f6e3230263bcb49": "0x76b362a9afd679ea13a456ab103786492c65946be653589c1fd627841d0c6fdd",
          "0x0000000000000000000000000000000000000000000000000000000000000003": "0x8652de4ce980861096317becc757637f497dfedb29ab870bc674110eb4cec754"
        },
        "hashBytecode": "0x0000000000000000000000000000000000000000000000000000000000000000",
        "bytecodeLength": 0
      }
    },
    "batchL2Data": "0x0b00000000000003e800000001ee80843b9aca00830186a0944d5cf5032b2a844602278b01199ed191a86c93ff88016345785d8a0000808203e880801cee7e01dc62f69a12c3510c6d64de04ee6346d84b6a017f3e786c7d87f963e75d8cc91fa983cd6d9cf55fff80d73bd26cd333b0f098acc1e58edb1fd484ad731bffef80843b9aca00830186a0944d5cf5032b2a844602278b01199ed191a86c93ff893635c9adc5dea00000808203e880800d7790e34c262fc9bca95e5c9f8f7ae1625e1338580eb0a0e707dcb76fef0b64385c32f57ec5f520129252ed65f226c6cb50fa16fc07f1e45a9054797f1b462b1cff",
    "globalExitRoot": "0x090bcaf734c4f06c93954a827b45a6e8c67b8e0fd1e0a35a1c5982d6961828f9",
    "newLocalExitRoot": "0x0000000000000000000000000000000000000000000000000000000000000000",
    "batchHashData": "0xeacf3bdc39d020fbb28e58bdcf63cfa7355b85a9e248a241f343f45f35778597",
    "timestamp": 1944498031,
    "chainID": 1000,
    "oldAccInputHash": "0x0000000000000000000000000000000000000000000000000000000000000000",
    "forkID": 6,
    "historicGERRoot": "0x090bcaf734c4f06c93954a827b45a6e8c67b8e0fd1e0a35a1c5982d6961828f9",
    "virtualCounters": {
      "steps": 31130,
      "arith": 2503,
      "binary": 4053,
      "memAlign": 0,
      "keccaks": 11,
      "padding": 18,
      "poseidon": 6224
    }
  },
  {
    "id": 1,
    "description": "2 accounts. 1 valid transaction. 1 invalid transaction (tx with more value than balance)",
    "arity": 4,
    "defaultChainId": 1000,
    "sequencerAddress": "0x617b3a3528F9cDd6630fd3301B9c8911F7Bf063D",
    "sequencerPvtKey": "0x28b2b0318721be8c8339199172cd7cc8f5e273800a35616ec893083a4b32c02e",
    "genesis": [
      {
        "address": "0x617b3a3528F9cDd6630fd3301B9c8911F7Bf063D",
        "nonce": "0",
        "balance": "100000000000000000000",
        "pvtKey": "0x28b2b0318721be8c8339199172cd7cc8f5e273800a35616ec893083a4b32c02e"
      },
      {
        "address": "0x4d5Cf5032B2a844602278b01199ED191A86c93ff",
        "nonce": "0",
        "balance": "200000000000000000000",
        "pvtKey": "0x4d27a600dce8c29b7bd080e29a26972377dbb04d7a27d919adbb602bf13cfd23"
      }
    ],
    "expectedOldRoot": "0x4a9bfcb163ec91c5beb22e6aca41592433092c8c7821b01d37fd0de483f9265d",
    "txs": [
      {
        "id": 0,
        "from": "0x617b3a3528F9cDd6630fd3301B9c8911F7Bf063D",
        "to": "0x4d5Cf5032B2a844602278b01199ED191A86c93ff",
        "nonce": 0,
        "value": "100000000000000000",
        "gasLimit": 100000,
        "gasPrice": "1000000000",
        "chainId": 1000,
        "rawTx": "0xf86e80843b9aca00830186a0944d5cf5032b2a844602278b01199ed191a86c93ff88016345785d8a0000808207f3a01cee7e01dc62f69a12c3510c6d64de04ee6346d84b6a017f3e786c7d87f963e7a05d8cc91fa983cd6d9cf55fff80d73bd26cd333b0f098acc1e58edb1fd484ad73",
        "customRawTx": "0xee80843b9aca00830186a0944d5cf5032b2a844602278b01199ed191a86c93ff88016345785d8a0000808203e880801cee7e01dc62f69a12c3510c6d64de04ee6346d84b6a017f3e786c7d87f963e75d8cc91fa983cd6d9cf55fff80d73bd26cd333b0f098acc1e58edb1fd484ad731bff",
        "reason": ""
      },
      {
        "id": 1,
        "from": "0x617b3a3528F9cDd6630fd3301B9c8911F7Bf063D",
        "to": "0x4d5Cf5032B2a844602278b01199ED191A86c93ff",
        "nonce": 1,
        "value": "10000000000000000000000",
        "gasLimit": 100000,
        "gasPrice": "1000000000",
        "chainId": 1000,
        "rawTx": "0xf87001843b9aca00830186a0944d5cf5032b2a844602278b01199ed191a86c93ff8a021e19e0c9bab2400000808207f3a06d6782df42753b6f9c1c83cb1a80af837408996978f7fdccbc306d9d1780c658a069fd711955dc2d38a841d4ba724bab33845a6d8e3f53a554f4e40179e0271a47",
        "customRawTx": "0xf001843b9aca00830186a0944d5cf5032b2a844602278b01199ed191a86c93ff8a021e19e0c9bab2400000808203e880806d6782df42753b6f9c1c83cb1a80af837408996978f7fdccbc306d9d1780c65869fd711955dc2d38a841d4ba724bab33845a6d8e3f53a554f4e40179e0271a471bff",
        "reason": "TX INVALID: Not enough funds to pay total transaction cost"
      }
    ],
    "expectedNewRoot": "0xd8b1438d1674a5b8ffd53e63835ff279c837596e0e77c9c0a46416dec5de631e",
    "expectedNewLeafs": {
      "0x617b3a3528F9cDd6630fd3301B9c8911F7Bf063D": {
        "balance": "99900000000000000000",
        "nonce": "1",
        "storage": null,
        "hashBytecode": "0x0000000000000000000000000000000000000000000000000000000000000000",
        "bytecodeLength": 0
      },
      "0x4d5Cf5032B2a844602278b01199ED191A86c93ff": {
        "balance": "200100000000000000000",
        "nonce": "0",
        "storage": null,
        "hashBytecode": "0x0000000000000000000000000000000000000000000000000000000000000000",
        "bytecodeLength": 0
      },
      "0x000000000000000000000000000000005ca1ab1e": {
        "balance": "0",
        "nonce": "0",
        "storage": {
          "0x0000000000000000000000000000000000000000000000000000000000000000": "0x01",
          "0x0000000000000000000000000000000000000000000000000000000000000002": "0x03e8",
          "0xa6eef7e35abe7026729641147f7915573c7e97b47efa546f5f6e3230263bcb49": "0x4a9bfcb163ec91c5beb22e6aca41592433092c8c7821b01d37fd0de483f9265d",
          "0x0000000000000000000000000000000000000000000000000000000000000003": "0x1f4b2a49bbf354406702d4530fbbe61e072bd20a76d38dcf3e59cf736c7158f2"
        },
        "hashBytecode": "0x0000000000000000000000000000000000000000000000000000000000000000",
        "bytecodeLength": 0
      }
    },
    "batchL2Data": "0x0b00000000000003e800000001ee80843b9aca00830186a0944d5cf5032b2a844602278b01199ed191a86c93ff88016345785d8a0000808203e880801cee7e01dc62f69a12c3510c6d64de04ee6346d84b6a017f3e786c7d87f963e75d8cc91fa983cd6d9cf55fff80d73bd26cd333b0f098acc1e58edb1fd484ad731bfff001843b9aca00830186a0944d5cf5032b2a844602278b01199ed191a86c93ff8a021e19e0c9bab2400000808203e880806d6782df42753b6f9c1c83cb1a80af837408996978f7fdccbc306d9d1780c65869fd711955dc2d38a841d4ba724bab33845a6d8e3f53a554f4e40179e0271a471bff",
    "globalExitRoot": "0x090bcaf734c4f06c93954a827b45a6e8c67b8e0fd1e0a35a1c5982d6961828f9",
    "newLocalExitRoot": "0x0000000000000000000000000000000000000000000000000000000000000000",
    "batchHashData": "0xf05adb39df54c43d47428e0b9b20dab75fd389f2ecbb9d66f7abe26813b35d0d",
    "timestamp": 1944498031,
    "chainID": 1000,
    "oldAccInputHash": "0x0000000000000000000000000000000000000000000000000000000000000000",
    "forkID": 6,
    "historicGERRoot": "0x090bcaf734c4f06c93954a827b45a6e8c67b8e0fd1e0a35a1c5982d6961828f9",
    "virtualCounters": {
      "steps": 31130,
      "arith": 2503,
      "binary": 4053,
      "memAlign": 0,
      "keccaks": 11,
      "padding": 18,
      "poseidon": 6224
    }
  },
  {
    "id": 2,
    "description": "2 accounts. 1 invalid transaction (value + gas == balance + 1, bigger value). 1 valid transaction (txvalue + gas == balance)",
    "arity": 4,
    "defaultChainId": 1000,
    "sequencerAddress": "0x617b3a3528F9cDd6630fd3301B9c8911F7Bf063D",
    "sequencerPvtKey": "0x28b2b0318721be8c8339199172cd7cc8f5e273800a35616ec893083a4b32c02e",
    "genesis": [
      {
        "address": "0x617b3a3528F9cDd6630fd3301B9c8911F7Bf063D",
        "nonce": "0",
        "balance": "100000000000000000000",
        "pvtKey": "0x28b2b0318721be8c8339199172cd7cc8f5e273800a35616ec893083a4b32c02e"
      },
      {
        "address": "0x4d5Cf5032B2a844602278b01199ED191A86c93ff",
        "nonce": "0",
        "balance": "100000000000000000000",
        "pvtKey": "0x4d27a600dce8c29b7bd080e29a26972377dbb04d7a27d919adbb602bf13cfd23"
      }
    ],
    "expectedOldRoot": "0xa88244596a08b2d267f764ef93304d682aac646f8603eaaad50d68b303eb9fe2",
    "txs": [
      {
        "id": 0,
        "from": "0x4d5Cf5032B2a844602278b01199ED191A86c93ff",
        "to": "0x617b3a3528F9cDd6630fd3301B9c8911F7Bf063D",
        "nonce": 0,
        "value": "99999979000000000001",
        "gasLimit": 21000,
        "gasPrice": "1000000000",
        "chainId": 1000,
        "rawTx": "0xf86e80843b9aca0082520894617b3a3528f9cdd6630fd3301b9c8911f7bf063d89056bc74b13f185b001808207f4a0434895045aad1b57cc65e4a0f009c7d2ad00c86871c3ed99aa195cc5274f0e66a01cb67c3076b39ced0a5ddca4c88a5612bd090f397e5c65cf8a54dd340fb5df9b",
        "customRawTx": "0xee80843b9aca0082520894617b3a3528f9cdd6630fd3301b9c8911f7bf063d89056bc74b13f185b001808203e88080434895045aad1b57cc65e4a0f009c7d2ad00c86871c3ed99aa195cc5274f0e661cb67c3076b39ced0a5ddca4c88a5612bd090f397e5c65cf8a54dd340fb5df9b1cff",
        "reason": "TX INVALID: Not enough funds to pay total transaction cost"
      },
      {
        "id": 1,
        "from": "0x4d5Cf5032B2a844602278b01199ED191A86c93ff",
        "to": "0x617b3a3528F9cDd6630fd3301B9c8911F7Bf063D",
        "nonce": 0,
        "value": "99999979000000000000",
        "gasLimit": 21000,
        "gasPrice": "1000000000",
        "chainId": 1000,
        "rawTx": "0xf86e80843b9aca0082520894617b3a3528f9cdd6630fd3301b9c8911f7bf063d89056bc74b13f185b000808207f3a01c3e4af553502cb515c30e18995806a5113bdd3168e97f9b34708e43a4e0345fa06d0b0d37ba0e51e244c4cf392b04c8baa703420d3aa9ec5f180afb643c27a4b9",
        "customRawTx": "0xee80843b9aca0082520894617b3a3528f9cdd6630fd3301b9c8911f7bf063d89056bc74b13f185b000808203e880801c3e4af553502cb515c30e18995806a5113bdd3168e97f9b34708e43a4e0345f6d0b0d37ba0e51e244c4cf392b04c8baa703420d3aa9ec5f180afb643c27a4b91bff",
        "reason": ""
      }
    ],
    "expectedNewRoot": "0x664bd3dd15ce61844aec4d9ed96478fd175fd16f6aa5df3de256c7653a314d53",
    "expectedNewLeafs": {
      "0x617b3a3528F9cDd6630fd3301B9c8911F7Bf063D": {
        "balance": "200000000000000000000",
        "nonce": "0",
        "storage": null,
        "hashBytecode": "0x0000000000000000000000000000000000000000000000000000000000000000",
        "bytecodeLength": 0
      },
      "0x4d5Cf5032B2a844602278b01199ED191A86c93ff": {
        "balance": "0",
        "nonce": "1",
        "storage": null,
        "hashBytecode": "0x0000000000000000000000000000000000000000000000000000000000000000",
        "bytecodeLength": 0
      },
      "0x000000000000000000000000000000005ca1ab1e": {
        "balance": "0",
        "nonce": "0",
        "storage": {
          "0x0000000000000000000000000000000000000000000000000000000000000000": "0x01",
          "0x0000000000000000000000000000000000000000000000000000000000000002": "0x03e8",
          "0xa6eef7e35abe7026729641147f7915573c7e97b47efa546f5f6e3230263bcb49": "0xa88244596a08b2d267f764ef93304d682aac646f8603eaaad50d68b303eb9fe2",
          "0x0000000000000000000000000000000000000000000000000000000000000003": "0xb36e29b024f0375293d198ca116e39081db0edf5cb006e59a47c28bc2389c530"
        },
        "hashBytecode": "0x0000000000000000000000000000000000000000000000000000000000000000",
        "bytecodeLength": 0
      }
    },
    "batchL2Data": "0x0b00000000000003e800000001ee80843b9aca0082520894617b3a3528f9cdd6630fd3301b9c8911f7bf063d89056bc74b13f185b001808203e88080434895045aad1b57cc65e4a0f009c7d2ad00c86871c3ed99aa195cc5274f0e661cb67c3076b39ced0a5ddca4c88a5612bd090f397e5c65cf8a54dd340fb5df9b1cffee80843b9aca0082520894617b3a3528f9cdd6630fd3301b9c8911f7bf063d89056bc74b13f185b000808203e880801c3e4af553502cb515c30e18995806a5113bdd3168e97f9b34708e43a4e0345f6d0b0d37ba0e51e244c4cf392b04c8baa703420d3aa9ec5f180afb643c27a4b91bff",
    "globalExitRoot": "0x090bcaf734c4f06c93954a827b45a6e8c67b8e0fd1e0a35a1c5982d6961828f9",
    "newLocalExitRoot": "0x0000000000000000000000000000000000000000000000000000000000000000",
    "batchHashData": "0x821b23a42c7204b68a247b5226adaa312a2126f8ad6aa71fe8c607e5e7b4ae57",
    "timestamp": 1944498031,
    "chainID": 1000,
    "oldAccInputHash": "0x0000000000000000000000000000000000000000000000000000000000000000",
    "forkID": 6,
    "historicGERRoot": "0x090bcaf734c4f06c93954a827b45a6e8c67b8e0fd1e0a35a1c5982d6961828f9",
    "virtualCounters": {
      "steps": 31130,
      "arith": 2503,
      "binary": 4053,
      "memAlign": 0,
      "keccaks": 11,
      "padding": 18,
      "poseidon": 6224
    }
  },
  {
    "id": 3,
    "description": "2 accounts. 1 valid transaction (txvalue == balance-1). 1 invalid transaction (tx with more value than balance)",
    "arity": 4,
    "defaultChainId": 1000,
    "sequencerAddress": "0x617b3a3528F9cDd6630fd3301B9c8911F7Bf063D",
    "sequencerPvtKey": "0x28b2b0318721be8c8339199172cd7cc8f5e273800a35616ec893083a4b32c02e",
    "genesis": [
      {
        "address": "0x617b3a3528F9cDd6630fd3301B9c8911F7Bf063D",
        "nonce": "0",
        "balance": "100000000000000000000",
        "pvtKey": "0x28b2b0318721be8c8339199172cd7cc8f5e273800a35616ec893083a4b32c02e"
      },
      {
        "address": "0x4d5Cf5032B2a844602278b01199ED191A86c93ff",
        "nonce": "0",
        "balance": "100000000000000000000",
        "pvtKey": "0x4d27a600dce8c29b7bd080e29a26972377dbb04d7a27d919adbb602bf13cfd23"
      }
    ],
    "expectedOldRoot": "0xa88244596a08b2d267f764ef93304d682aac646f8603eaaad50d68b303eb9fe2",
    "txs": [
      {
        "id": 0,
        "from": "0x4d5Cf5032B2a844602278b01199ED191A86c93ff",
        "to": "0x617b3a3528F9cDd6630fd3301B9c8911F7Bf063D",
        "nonce": 0,
        "value": "99999978999999999999",
        "gasLimit": 21000,
        "gasPrice": "1000000000",
        "chainId": 1000,
        "rawTx": "0xf86e80843b9aca0082520894617b3a3528f9cdd6630fd3301b9c8911f7bf063d89056bc74b13f185afff808207f4a04fa932b8f1c5173c51364a8b5d4d947a61cdc92f787578155a2d23c40bf87fe3a04e50bf9e1a413be8ca4480da23941772c155c51cf28085a4281e742ccfea5bc1",
        "customRawTx": "0xee80843b9aca0082520894617b3a3528f9cdd6630fd3301b9c8911f7bf063d89056bc74b13f185afff808203e880804fa932b8f1c5173c51364a8b5d4d947a61cdc92f787578155a2d23c40bf87fe34e50bf9e1a413be8ca4480da23941772c155c51cf28085a4281e742ccfea5bc11cff",
        "reason": ""
      },
      {
        "id": 1,
        "from": "0x4d5Cf5032B2a844602278b01199ED191A86c93ff",
        "to": "0x617b3a3528F9cDd6630fd3301B9c8911F7Bf063D",
        "nonce": 1,
        "value": "100000000000000000",
        "gasLimit": 21000,
        "gasPrice": "1000000000",
        "chainId": 1000,
        "rawTx": "0xf86d01843b9aca0082520894617b3a3528f9cdd6630fd3301b9c8911f7bf063d88016345785d8a0000808207f4a0a9b6e3e54b249c6db581b9cafaa30979dd63729a4643285e4e52fa94f5edfe1ca00e8ec0a659997d071ac5da27904fa9f7b56a9e8c2fcf6237fc20444ebcb37911",
        "customRawTx": "0xed01843b9aca0082520894617b3a3528f9cdd6630fd3301b9c8911f7bf063d88016345785d8a0000808203e88080a9b6e3e54b249c6db581b9cafaa30979dd63729a4643285e4e52fa94f5edfe1c0e8ec0a659997d071ac5da27904fa9f7b56a9e8c2fcf6237fc20444ebcb379111cff",
        "reason": "TX INVALID: Not enough funds to pay total transaction cost"
      }
    ],
    "expectedNewRoot": "0xb3d138f6bc8ee0c3d08aad19019260a6d25242e9b63bb7b030f9acdbc6e198b3",
    "expectedNewLeafs": {
      "0x617b3a3528F9cDd6630fd3301B9c8911F7Bf063D": {
        "balance": "199999999999999999999",
        "nonce": "0",
        "storage": null,
        "hashBytecode": "0x0000000000000000000000000000000000000000000000000000000000000000",
        "bytecodeLength": 0
      },
      "0x4d5Cf5032B2a844602278b01199ED191A86c93ff": {
        "balance": "1",
        "nonce": "1",
        "storage": null,
        "hashBytecode": "0x0000000000000000000000000000000000000000000000000000000000000000",
        "bytecodeLength": 0
      },
      "0x000000000000000000000000000000005ca1ab1e": {
        "balance": "0",
        "nonce": "0",
        "storage": {
          "0x0000000000000000000000000000000000000000000000000000000000000000": "0x01",
          "0x0000000000000000000000000000000000000000000000000000000000000002": "0x03e8",
          "0xa6eef7e35abe7026729641147f7915573c7e97b47efa546f5f6e3230263bcb49": "0xa88244596a08b2d267f764ef93304d682aac646f8603eaaad50d68b303eb9fe2",
          "0x0000000000000000000000000000000000000000000000000000000000000003": "0x6e38a1706e8ecc401c0a8ea3072071022d16c5c2e728cfbae4c7abaad3fb3167"
        },
        "hashBytecode": "0x0000000000000000000000000000000000000000000000000000000000000000",
        "bytecodeLength": 0
      }
    },
    "batchL2Data": "0x0b00000000000003e800000001ee80843b9aca0082520894617b3a3528f9cdd6630fd3301b9c8911f7bf063d89056bc74b13f185afff808203e880804fa932b8f1c5173c51364a8b5d4d947a61cdc92f787578155a2d23c40bf87fe34e50bf9e1a413be8ca4480da23941772c155c51cf28085a4281e742ccfea5bc11cffed01843b9aca0082520894617b3a3528f9cdd6630fd3301b9c8911f7bf063d88016345785d8a0000808203e88080a9b6e3e54b249c6db581b9cafaa30979dd63729a4643285e4e52fa94f5edfe1c0e8ec0a659997d071ac5da27904fa9f7b56a9e8c2fcf6237fc20444ebcb379111cff",
    "globalExitRoot": "0x090bcaf734c4f06c93954a827b45a6e8c67b8e0fd1e0a35a1c5982d6961828f9",
    "newLocalExitRoot": "0x0000000000000000000000000000000000000000000000000000000000000000",
    "batchHashData": "0x48fe8f825929edd32e4448e738174cc3521dc82b65ab13da4d0ca2cd042782a9",
    "timestamp": 1944498031,
    "chainID": 1000,
    "oldAccInputHash": "0x0000000000000000000000000000000000000000000000000000000000000000",
    "forkID": 6,
    "historicGERRoot": "0x090bcaf734c4f06c93954a827b45a6e8c67b8e0fd1e0a35a1c5982d6961828f9",
    "virtualCounters": {
      "steps": 31130,
      "arith": 2503,
      "binary": 4053,
      "memAlign": 0,
      "keccaks": 11,
      "padding": 17,
      "poseidon": 6223
    }
  },
  {
    "id": 4,
    "description": "2 accounts. 1 valid transaction (txvalue == balance-1). 1 invalid transaction (tx with more value than balance)",
    "arity": 4,
    "defaultChainId": 1000,
    "sequencerAddress": "0x617b3a3528F9cDd6630fd3301B9c8911F7Bf063D",
    "sequencerPvtKey": "0x28b2b0318721be8c8339199172cd7cc8f5e273800a35616ec893083a4b32c02e",
    "genesis": [
      {
        "address": "0x617b3a3528F9cDd6630fd3301B9c8911F7Bf063D",
        "nonce": "0",
        "balance": "100000000000000000000",
        "pvtKey": "0x28b2b0318721be8c8339199172cd7cc8f5e273800a35616ec893083a4b32c02e"
      },
      {
        "address": "0x4d5Cf5032B2a844602278b01199ED191A86c93ff",
        "nonce": "0",
        "balance": "100000000000000000000",
        "pvtKey": "0x4d27a600dce8c29b7bd080e29a26972377dbb04d7a27d919adbb602bf13cfd23"
      }
    ],
    "expectedOldRoot": "0xa88244596a08b2d267f764ef93304d682aac646f8603eaaad50d68b303eb9fe2",
    "txs": [
      {
        "id": 0,
        "from": "0x4d5Cf5032B2a844602278b01199ED191A86c93ff",
        "to": "0x617b3a3528F9cDd6630fd3301B9c8911F7Bf063D",
        "nonce": 0,
        "value": "99999978999999999999",
        "gasLimit": 21000,
        "gasPrice": "1000000000",
        "chainId": 1000,
        "rawTx": "0xf86e80843b9aca0082520894617b3a3528f9cdd6630fd3301b9c8911f7bf063d89056bc74b13f185afff808207f4a04fa932b8f1c5173c51364a8b5d4d947a61cdc92f787578155a2d23c40bf87fe3a04e50bf9e1a413be8ca4480da23941772c155c51cf28085a4281e742ccfea5bc1",
        "customRawTx": "0xee80843b9aca0082520894617b3a3528f9cdd6630fd3301b9c8911f7bf063d89056bc74b13f185afff808203e880804fa932b8f1c5173c51364a8b5d4d947a61cdc92f787578155a2d23c40bf87fe34e50bf9e1a413be8ca4480da23941772c155c51cf28085a4281e742ccfea5bc11cff",
        "reason": ""
      },
      {
        "id": 1,
        "from": "0x4d5Cf5032B2a844602278b01199ED191A86c93ff",
        "to": "0x617b3a3528F9cDd6630fd3301B9c8911F7Bf063D",
        "nonce": 1,
        "value": "100000000000000000",
        "gasLimit": 21000,
        "gasPrice": "1000000000",
        "chainId": 1000,
        "rawTx": "0xf86d01843b9aca0082520894617b3a3528f9cdd6630fd3301b9c8911f7bf063d88016345785d8a0000808207f4a0a9b6e3e54b249c6db581b9cafaa30979dd63729a4643285e4e52fa94f5edfe1ca00e8ec0a659997d071ac5da27904fa9f7b56a9e8c2fcf6237fc20444ebcb37911",
        "customRawTx": "0xed01843b9aca0082520894617b3a3528f9cdd6630fd3301b9c8911f7bf063d88016345785d8a0000808203e88080a9b6e3e54b249c6db581b9cafaa30979dd63729a4643285e4e52fa94f5edfe1c0e8ec0a659997d071ac5da27904fa9f7b56a9e8c2fcf6237fc20444ebcb379111cff",
        "reason": "TX INVALID: Not enough funds to pay total transaction cost"
      }
    ],
    "expectedNewRoot": "0xb3d138f6bc8ee0c3d08aad19019260a6d25242e9b63bb7b030f9acdbc6e198b3",
    "expectedNewLeafs": {
      "0x617b3a3528F9cDd6630fd3301B9c8911F7Bf063D": {
        "balance": "199999999999999999999",
        "nonce": "0",
        "storage": null,
        "hashBytecode": "0x0000000000000000000000000000000000000000000000000000000000000000",
        "bytecodeLength": 0
      },
      "0x4d5Cf5032B2a844602278b01199ED191A86c93ff": {
        "balance": "1",
        "nonce": "1",
        "storage": null,
        "hashBytecode": "0x0000000000000000000000000000000000000000000000000000000000000000",
        "bytecodeLength": 0
      },
      "0x000000000000000000000000000000005ca1ab1e": {
        "balance": "0",
        "nonce": "0",
        "storage": {
          "0x0000000000000000000000000000000000000000000000000000000000000000": "0x01",
          "0x0000000000000000000000000000000000000000000000000000000000000002": "0x03e8",
          "0xa6eef7e35abe7026729641147f7915573c7e97b47efa546f5f6e3230263bcb49": "0xa88244596a08b2d267f764ef93304d682aac646f8603eaaad50d68b303eb9fe2",
          "0x0000000000000000000000000000000000000000000000000000000000000003": "0x6e38a1706e8ecc401c0a8ea3072071022d16c5c2e728cfbae4c7abaad3fb3167"
        },
        "hashBytecode": "0x0000000000000000000000000000000000000000000000000000000000000000",
        "bytecodeLength": 0
      }
    },
    "batchL2Data": "0x0b00000000000003e800000001ee80843b9aca0082520894617b3a3528f9cdd6630fd3301b9c8911f7bf063d89056bc74b13f185afff808203e880804fa932b8f1c5173c51364a8b5d4d947a61cdc92f787578155a2d23c40bf87fe34e50bf9e1a413be8ca4480da23941772c155c51cf28085a4281e742ccfea5bc11cffed01843b9aca0082520894617b3a3528f9cdd6630fd3301b9c8911f7bf063d88016345785d8a0000808203e88080a9b6e3e54b249c6db581b9cafaa30979dd63729a4643285e4e52fa94f5edfe1c0e8ec0a659997d071ac5da27904fa9f7b56a9e8c2fcf6237fc20444ebcb379111cff",
    "globalExitRoot": "0x090bcaf734c4f06c93954a827b45a6e8c67b8e0fd1e0a35a1c5982d6961828f9",
    "newLocalExitRoot": "0x0000000000000000000000000000000000000000000000000000000000000000",
    "batchHashData": "0x48fe8f825929edd32e4448e738174cc3521dc82b65ab13da4d0ca2cd042782a9",
    "timestamp": 1944498031,
    "chainID": 1000,
    "oldAccInputHash": "0x0000000000000000000000000000000000000000000000000000000000000000",
    "forkID": 6,
    "historicGERRoot": "0x090bcaf734c4f06c93954a827b45a6e8c67b8e0fd1e0a35a1c5982d6961828f9",
    "virtualCounters": {
      "steps": 31130,
      "arith": 2503,
      "binary": 4053,
      "memAlign": 0,
      "keccaks": 11,
      "padding": 17,
      "poseidon": 6223
    }
  },
  {
    "id": 5,
    "description": "1 valid transaction",
    "arity": 4,
    "defaultChainId": 1000,
    "sequencerAddress": "0x617b3a3528F9cDd6630fd3301B9c8911F7Bf063D",
    "sequencerPvtKey": "0x28b2b0318721be8c8339199172cd7cc8f5e273800a35616ec893083a4b32c02e",
    "genesis": [
      {
        "address": "0x617b3a3528F9cDd6630fd3301B9c8911F7Bf063D",
        "nonce": "0",
        "balance": "100000000000000000000",
        "pvtKey": "0x28b2b0318721be8c8339199172cd7cc8f5e273800a35616ec893083a4b32c02e"
      },
      {
        "address": "0x4d5Cf5032B2a844602278b01199ED191A86c93ff",
        "nonce": "0",
        "balance": "200000000000000000000",
        "pvtKey": "0x4d27a600dce8c29b7bd080e29a26972377dbb04d7a27d919adbb602bf13cfd23"
      },
      {
        "address": "0xeB17ce701E9D92724AA2ABAdA7E4B28830597Dd9",
        "nonce": "0",
        "balance": "100000000000000000000",
        "pvtKey": "0x1d0722aff4b29780e9a78e0bf28d5e127fb276cfbb0c3eb6a0e1728401777f17"
      }
    ],
    "expectedOldRoot": "0x76b362a9afd679ea13a456ab103786492c65946be653589c1fd627841d0c6fdd",
    "txs": [
      {
        "id": 4,
        "from": "0x617b3a3528F9cDd6630fd3301B9c8911F7Bf063D",
        "to": "0x4d5Cf5032B2a844602278b01199ED191A86c93ff",
        "nonce": 0,
        "value": "100000000000000000",
        "gasLimit": 100000,
        "gasPrice": "1000000000",
        "chainId": 1000,
        "rawTx": "0xf86e80843b9aca00830186a0944d5cf5032b2a844602278b01199ed191a86c93ff88016345785d8a0000808207f3a01cee7e01dc62f69a12c3510c6d64de04ee6346d84b6a017f3e786c7d87f963e7a05d8cc91fa983cd6d9cf55fff80d73bd26cd333b0f098acc1e58edb1fd484ad73",
        "customRawTx": "0xee80843b9aca00830186a0944d5cf5032b2a844602278b01199ed191a86c93ff88016345785d8a0000808203e880801cee7e01dc62f69a12c3510c6d64de04ee6346d84b6a017f3e786c7d87f963e75d8cc91fa983cd6d9cf55fff80d73bd26cd333b0f098acc1e58edb1fd484ad731bff",
        "reason": ""
      }
    ],
    "expectedNewRoot": "0x789cbc6646699ae84921b0c12e3a8212af6e5633cc4269bfd57a8e275b7747e2",
    "expectedNewLeafs": {
      "0x617b3a3528F9cDd6630fd3301B9c8911F7Bf063D": {
        "balance": "99900000000000000000",
        "nonce": "1",
        "storage": null,
        "hashBytecode": "0x0000000000000000000000000000000000000000000000000000000000000000",
        "bytecodeLength": 0
      },
      "0x4d5Cf5032B2a844602278b01199ED191A86c93ff": {
        "balance": "200100000000000000000",
        "nonce": "0",
        "storage": null,
        "hashBytecode": "0x0000000000000000000000000000000000000000000000000000000000000000",
        "bytecodeLength": 0
      },
      "0x000000000000000000000000000000005ca1ab1e": {
        "balance": "0",
        "nonce": "0",
        "storage": {
          "0x0000000000000000000000000000000000000000000000000000000000000000": "0x01",
          "0x0000000000000000000000000000000000000000000000000000000000000002": "0x03e8",
          "0xa6eef7e35abe7026729641147f7915573c7e97b47efa546f5f6e3230263bcb49": "0x76b362a9afd679ea13a456ab103786492c65946be653589c1fd627841d0c6fdd",
          "0x0000000000000000000000000000000000000000000000000000000000000003": "0x8652de4ce980861096317becc757637f497dfedb29ab870bc674110eb4cec754"
        },
        "hashBytecode": "0x0000000000000000000000000000000000000000000000000000000000000000",
        "bytecodeLength": 0
      }
    },
    "batchL2Data": "0x0b00000000000003e800000001ee80843b9aca00830186a0944d5cf5032b2a844602278b01199ed191a86c93ff88016345785d8a0000808203e880801cee7e01dc62f69a12c3510c6d64de04ee6346d84b6a017f3e786c7d87f963e75d8cc91fa983cd6d9cf55fff80d73bd26cd333b0f098acc1e58edb1fd484ad731bff",
    "globalExitRoot": "0x090bcaf734c4f06c93954a827b45a6e8c67b8e0fd1e0a35a1c5982d6961828f9",
    "newLocalExitRoot": "0x0000000000000000000000000000000000000000000000000000000000000000",
    "batchHashData": "0x77fa62d50e38309b4daf03c097a5f82a8fb0c1bfed1168fa6a87cf3dc017e1bb",
    "timestamp": 1944498031,
    "chainID": 1000,
    "oldAccInputHash": "0x0000000000000000000000000000000000000000000000000000000000000000",
    "forkID": 6,
    "historicGERRoot": "0x090bcaf734c4f06c93954a827b45a6e8c67b8e0fd1e0a35a1c5982d6961828f9",
    "virtualCounters": {
      "steps": 15841,
      "arith": 1252,
      "binary": 2037,
      "memAlign": 0,
      "keccaks": 7,
      "padding": 9,
      "poseidon": 3639
    }
  }
]