[
    {
        "id": 0,
        "description": "2 accounts and 1 valid transaction.",
        "arity": 4,
        "chainIdSequencer": 1001,
        "defaultChainId": 1000,
        "sequencerAddress": "0x617b3a3528F9cDd6630fd3301B9c8911F7Bf063D",
        "sequencerPvtKey": "0x28b2b0318721be8c8339199172cd7cc8f5e273800a35616ec893083a4b32c02e",
        "genesis": [
            {
                "address": "0x617b3a3528F9cDd6630fd3301B9c8911F7Bf063D",
                "pvtKey": "0x28b2b0318721be8c8339199172cd7cc8f5e273800a35616ec893083a4b32c02e",
                "balance": "100000000000000000000",
                "nonce": "0"
            },
            {
                "address": "0x4d5Cf5032B2a844602278b01199ED191A86c93ff",
                "pvtKey": "0x4d27a600dce8c29b7bd080e29a26972377dbb04d7a27d919adbb602bf13cfd23",
                "balance": "200000000000000000000",
                "nonce": "0"
            }
        ],
        "expectedOldRoot": "4091651772388093439828475955668620102367778455436412389529460210592290187513",
        "txs": [
            {
                "id" : 0,
                "from": "0x617b3a3528F9cDd6630fd3301B9c8911F7Bf063D",
                "to": "0x4d5Cf5032B2a844602278b01199ED191A86c93ff",
                "nonce": 0,
                "value": "100000000000000000",
                "gasLimit": 100000,
                "gasPrice": "1000000000",
                "chainId": 1001,
                "rawTx": "0xf86d80843b9aca00830186a0944d5cf5032b2a844602278b01199ed191a86c93ff88016345785d8a0000808207f5a01186622d03b6b8da7cf111d1ccba5bb185c56deae6a322cebc6dda0556f3cb979f910c26408b64b51c5da36ba2f38ef55ba1cee719d5a6c01225968799907432"
            }
        ],
        "expectedNewRoot": "16839349720732534632663634369605785751289107377345624633588697492886148997782",
        "expectedNewLeafs": {
            "0x617b3a3528F9cDd6630fd3301B9c8911F7Bf063D": {
                "balance": "99900000000000000000",
                "nonce": "1"
            },
            "0x4d5Cf5032B2a844602278b01199ED191A86c93ff": {
                "balance": "200100000000000000000",
                "nonce": "0"
            }
        },
        "timestamp": 1944498031
    },
    {
        "id": 1,
        "description": "3 accounts. 1 valid transaction. 1 invalid transaction (balance == value)",
        "arity": 4,
        "chainIdSequencer": 1001,
        "defaultChainId": 1000,
        "sequencerAddress": "0x617b3a3528F9cDd6630fd3301B9c8911F7Bf063D",
        "sequencerPvtKey": "0x28b2b0318721be8c8339199172cd7cc8f5e273800a35616ec893083a4b32c02e",
        "genesis": [
            {
                "address": "0x617b3a3528F9cDd6630fd3301B9c8911F7Bf063D",
                "pvtKey": "0x28b2b0318721be8c8339199172cd7cc8f5e273800a35616ec893083a4b32c02e",
                "balance": "100000000000000000000",
                "nonce": "0"
            },
            {
                "address": "0x4d5Cf5032B2a844602278b01199ED191A86c93ff",
                "pvtKey": "0x4d27a600dce8c29b7bd080e29a26972377dbb04d7a27d919adbb602bf13cfd23",
                "balance": "200000000000000000000",
                "nonce": "0"
            },
            {
                "address": "0xeB17ce701E9D92724AA2ABAdA7E4B28830597Dd9",
                "pvtKey": "0x1d0722aff4b29780e9a78e0bf28d5e127fb276cfbb0c3eb6a0e1728401777f17",
                "balance": "100000000000000000000",
                "nonce": "0"
            }
        ],
        "expectedOldRoot": "10742956179515319100591595038388130427995406579252011098325992000171378207294",
        "txs": [
            {
                "id" : 0,
                "from": "0x617b3a3528F9cDd6630fd3301B9c8911F7Bf063D",
                "to": "0x4d5Cf5032B2a844602278b01199ED191A86c93ff",
                "nonce": 0,
                "value": "100000000000000000",
                "gasLimit": 100000,
                "gasPrice": "1000000000",
                "chainId": 1001,
                "rawTx": "0xf86d80843b9aca00830186a0944d5cf5032b2a844602278b01199ed191a86c93ff88016345785d8a0000808207f5a01186622d03b6b8da7cf111d1ccba5bb185c56deae6a322cebc6dda0556f3cb979f910c26408b64b51c5da36ba2f38ef55ba1cee719d5a6c01225968799907432"
            },
            {
                "id": 1,
                "from": "0xeB17ce701E9D92724AA2ABAdA7E4B28830597Dd9",
                "to": "0x4d5Cf5032B2a844602278b01199ED191A86c93ff",
                "nonce": 0,
                "value": "1000000000000000000000",
                "gasLimit": 100000,
                "gasPrice": "1000000000",
                "chainId": 1001,
                "rawTx": "0xf86f80843b9aca00830186a0944d5cf5032b2a844602278b01199ed191a86c93ff893635c9adc5dea00000808207f6a0da7753f7d427264f52a4814241b26f1a816467bb19cee69f4760e01ce6f27461a07d7bccc285141676362c69b20705d945f1bdf938bd5546ede7294f0daed2bfd0"
            }
        ],
        "expectedNewRoot": "19548355870951679571355493086898187771144874645426657555975197762337920636733",
        "expectedNewLeafs": {
            "0x617b3a3528F9cDd6630fd3301B9c8911F7Bf063D": {
                "balance": "99900000000000000000",
                "nonce": "1"
            },
            "0x4d5Cf5032B2a844602278b01199ED191A86c93ff": {
                "balance": "200100000000000000000",
                "nonce": "0"
            }
        },
        "timestamp": 1944498031
    },
    {
        "id": 2,
        "description": "2 accounts. 1 valid transaction. 1 invalid transaction (tx with more value than balance)",
        "arity": 4,
        "chainIdSequencer": 1001,
        "defaultChainId": 1000,
        "sequencerAddress": "0x617b3a3528F9cDd6630fd3301B9c8911F7Bf063D",
        "sequencerPvtKey": "0x28b2b0318721be8c8339199172cd7cc8f5e273800a35616ec893083a4b32c02e",
        "genesis": [
            {
                "address": "0x617b3a3528F9cDd6630fd3301B9c8911F7Bf063D",
                "pvtKey": "0x28b2b0318721be8c8339199172cd7cc8f5e273800a35616ec893083a4b32c02e",
                "balance": "100000000000000000000",
                "nonce": "0"
            },
            {
                "address": "0x4d5Cf5032B2a844602278b01199ED191A86c93ff",
                "pvtKey": "0x4d27a600dce8c29b7bd080e29a26972377dbb04d7a27d919adbb602bf13cfd23",
                "balance": "200000000000000000000",
                "nonce": "0"
            }
        ],
        "expectedOldRoot": "4091651772388093439828475955668620102367778455436412389529460210592290187513",
        "txs": [
            {
                "id": 0,
                "from": "0x617b3a3528F9cDd6630fd3301B9c8911F7Bf063D",
                "to": "0x4d5Cf5032B2a844602278b01199ED191A86c93ff",
                "nonce": 0,
                "value": "100000000000000000",
                "gasLimit": 100000,
                "gasPrice": "1000000000",
                "chainId": 1001,
                "rawTx": "0xf86d80843b9aca00830186a0944d5cf5032b2a844602278b01199ed191a86c93ff88016345785d8a0000808207f5a01186622d03b6b8da7cf111d1ccba5bb185c56deae6a322cebc6dda0556f3cb979f910c26408b64b51c5da36ba2f38ef55ba1cee719d5a6c01225968799907432"
            },
            {
                "id": 1,
                "from": "0x617b3a3528F9cDd6630fd3301B9c8911F7Bf063D",
                "to": "0x4d5Cf5032B2a844602278b01199ED191A86c93ff",
                "nonce": 1,
                "value": "10000000000000000000000",
                "gasLimit": 100000,
                "gasPrice": "1000000000",
                "chainId": 1001,
                "rawTx": "0xf87001843b9aca00830186a0944d5cf5032b2a844602278b01199ed191a86c93ff8a021e19e0c9bab2400000808207f6a0556c208747680326b9a0e9d01fe1e76d59feff21399583af5b9a43596828cd46a062ad0380cbe39f13b428935247e20557d058ba10838ba737d2ad5fd6e09cb05f"
            }
        ],
        "expectedNewRoot": "16839349720732534632663634369605785751289107377345624633588697492886148997782",
        "expectedNewLeafs": {
            "0x617b3a3528F9cDd6630fd3301B9c8911F7Bf063D": {
                "balance": "99900000000000000000",
                "nonce": "1"
            },
            "0x4d5Cf5032B2a844602278b01199ED191A86c93ff": {
                "balance": "200100000000000000000",
                "nonce": "0"
            }
        },
        "timestamp": 1944498031
    },
    {
        "id": 3,
        "description": "2 accounts. 1 invalid transaction (value + gas == balance + 1, bigger value). 1 valid transaction (txvalue + gas == balance)",
        "arity": 4,
        "chainIdSequencer": 1001,
        "defaultChainId": 1000,
        "sequencerAddress": "0x617b3a3528F9cDd6630fd3301B9c8911F7Bf063D",
        "sequencerPvtKey": "0x28b2b0318721be8c8339199172cd7cc8f5e273800a35616ec893083a4b32c02e",
        "genesis": [
            {
                "address": "0x617b3a3528F9cDd6630fd3301B9c8911F7Bf063D",
                "pvtKey": "0x28b2b0318721be8c8339199172cd7cc8f5e273800a35616ec893083a4b32c02e",
                "balance": "100000000000000000000",
                "nonce": "0"
            },
            {
                "address": "0x4d5Cf5032B2a844602278b01199ED191A86c93ff",
                "pvtKey": "0x4d27a600dce8c29b7bd080e29a26972377dbb04d7a27d919adbb602bf13cfd23",
                "balance": "100000000000000000000",
                "nonce": "0"
            }
        ],
        "expectedOldRoot": "5225930762832078217440915493929237544401632937928246957546449484178943064987",
        "txs": [
            {
                "id": 0,
                "from": "0x4d5Cf5032B2a844602278b01199ED191A86c93ff",
                "to": "0x617b3a3528F9cDd6630fd3301B9c8911F7Bf063D",
                "nonce": 0,
                "value": "99999979000000000001",
                "gasLimit": 21000,
                "gasPrice": "1000000000",
                "chainId": 1001,
                "rawTx": "0xf86e80843b9aca0082520894617b3a3528f9cdd6630fd3301b9c8911f7bf063d89056bc74b13f185b001808207f6a0f515585ea362383eeeace59c4129d10ead78ad57189db6eb1b0fc0b53cfd60c5a02968ba3e5b7585aded932d92df233f4a012da9084cf457039fd81dae1543f292"
            },
            {
                "id": 1,
                "from": "0x4d5Cf5032B2a844602278b01199ED191A86c93ff",
                "to": "0x617b3a3528F9cDd6630fd3301B9c8911F7Bf063D",
                "nonce": 0,
                "value": "99999979000000000000",
                "gasLimit": 21000,
                "gasPrice": "1000000000",
                "chainId": 1001,
                "rawTx": "0xf86e80843b9aca0082520894617b3a3528f9cdd6630fd3301b9c8911f7bf063d89056bc74b13f185b000808207f5a0ad135f1f2ff6ec8f3584ae96c589f252cc90caeff735ee1e8945a899665cdec7a05c26e2ca26abc25d18f4ea9d260451a0b45cff207725d6bc0721263c478f3b42"
            }
        ],
        "expectedNewRoot": "15717079219927235906846255459093122182491444388567844044684043809157823029062",
        "expectedNewLeafs": {
            "0x617b3a3528F9cDd6630fd3301B9c8911F7Bf063D": {
                "balance": "200000000000000000000",
                "nonce": "0"
            },
            "0x4d5Cf5032B2a844602278b01199ED191A86c93ff": {
                "balance": "0",
                "nonce": "1"
            }
        },
        "timestamp": 1944498031
    },
    {
        "id": 4,
        "description": "2 accounts. 1 invalid transaction (value + gas == balance + 1, bigger gas). 1 valid transaction (txvalue + gas == balance)",
        "arity": 4,
        "chainIdSequencer": 1001,
        "defaultChainId": 1000,
        "sequencerAddress": "0x617b3a3528F9cDd6630fd3301B9c8911F7Bf063D",
        "sequencerPvtKey": "0x28b2b0318721be8c8339199172cd7cc8f5e273800a35616ec893083a4b32c02e",
        "genesis": [
            {
                "address": "0x617b3a3528F9cDd6630fd3301B9c8911F7Bf063D",
                "pvtKey": "0x28b2b0318721be8c8339199172cd7cc8f5e273800a35616ec893083a4b32c02e",
                "balance": "100000000000000000000",
                "nonce": "0"
            },
            {
                "address": "0x4d5Cf5032B2a844602278b01199ED191A86c93ff",
                "pvtKey": "0x4d27a600dce8c29b7bd080e29a26972377dbb04d7a27d919adbb602bf13cfd23",
                "balance": "100000000000000000000",
                "nonce": "0"
            }
        ],
        "expectedOldRoot": "5225930762832078217440915493929237544401632937928246957546449484178943064987",
        "txs": [
            {
                "id": 0,
                "from": "0x4d5Cf5032B2a844602278b01199ED191A86c93ff",
                "to": "0x617b3a3528F9cDd6630fd3301B9c8911F7Bf063D",
                "nonce": 0,
                "value": "99999979000000000000",
                "gasLimit": 21001,
                "gasPrice": "1000000000",
                "chainId": 1001,
                "rawTx": "0xf86e80843b9aca0082520994617b3a3528f9cdd6630fd3301b9c8911f7bf063d89056bc74b13f185b000808207f5a01623fea146451bd90398ea12a77aaa12b6c364e75444b14bcc24f0987df684d1a020b7ff2d514967bdf85caf11604f27fb5f349a48d097154829c4ae53ba60dd42"
            },
            {
                "id": 1,
                "from": "0x4d5Cf5032B2a844602278b01199ED191A86c93ff",
                "to": "0x617b3a3528F9cDd6630fd3301B9c8911F7Bf063D",
                "nonce": 0,
                "value": "99999979000000000000",
                "gasLimit": 21000,
                "gasPrice": "1000000000",
                "chainId": 1001,
                "rawTx": "0xf86e80843b9aca0082520894617b3a3528f9cdd6630fd3301b9c8911f7bf063d89056bc74b13f185b000808207f5a0ad135f1f2ff6ec8f3584ae96c589f252cc90caeff735ee1e8945a899665cdec7a05c26e2ca26abc25d18f4ea9d260451a0b45cff207725d6bc0721263c478f3b42"
            }
        ],
        "expectedNewRoot": "15717079219927235906846255459093122182491444388567844044684043809157823029062",
        "expectedNewLeafs": {
            "0x617b3a3528F9cDd6630fd3301B9c8911F7Bf063D": {
                "balance": "200000000000000000000",
                "nonce": "0"
            },
            "0x4d5Cf5032B2a844602278b01199ED191A86c93ff": {
                "balance": "0",
                "nonce": "1"
            }
        },
        "timestamp": 1944498031
    },
    {
        "id": 5,
        "description": "2 accounts. 1 valid transaction (txvalue == balance-1). 1 invalid transaction (tx with more value than balance)",
        "arity": 4,
        "chainIdSequencer": 1001,
        "defaultChainId": 1000,
        "sequencerAddress": "0x617b3a3528F9cDd6630fd3301B9c8911F7Bf063D",
        "sequencerPvtKey": "0x28b2b0318721be8c8339199172cd7cc8f5e273800a35616ec893083a4b32c02e",
        "genesis": [
            {
                "address": "0x617b3a3528F9cDd6630fd3301B9c8911F7Bf063D",
                "pvtKey": "0x28b2b0318721be8c8339199172cd7cc8f5e273800a35616ec893083a4b32c02e",
                "balance": "100000000000000000000",
                "nonce": "0"
            },
            {
                "address": "0x4d5Cf5032B2a844602278b01199ED191A86c93ff",
                "pvtKey": "0x4d27a600dce8c29b7bd080e29a26972377dbb04d7a27d919adbb602bf13cfd23",
                "balance": "100000000000000000000",
                "nonce": "0"
            }
        ],
        "expectedOldRoot": "5225930762832078217440915493929237544401632937928246957546449484178943064987",
        "txs": [
            {
                "id": 0,
                "from": "0x4d5Cf5032B2a844602278b01199ED191A86c93ff",
                "to": "0x617b3a3528F9cDd6630fd3301B9c8911F7Bf063D",
                "nonce": 0,
                "value": "99999978999999999999",
                "gasLimit": 21000,
                "gasPrice": "1000000000",
                "chainId": 1001,
                "rawTx": "0xf86e80843b9aca0082520894617b3a3528f9cdd6630fd3301b9c8911f7bf063d89056bc74b13f185afff808207f5a0551278bb73253ca6a781f5356851b8c4adaeb4c26aa72a407b5f539f165ddf62a069d91313bbaa6f14a361174108e96cca3e99bfe39ae4911f9555b63ca9785c01"
            },
            {
                "id": 1,
                "from": "0x4d5Cf5032B2a844602278b01199ED191A86c93ff",
                "to": "0x617b3a3528F9cDd6630fd3301B9c8911F7Bf063D",
                "nonce": 1,
                "value": "100000000000000000",
                "gasLimit": 21000,
                "gasPrice": "1000000000",
                "chainId": 1001,
                "rawTx": "0xf86d01843b9aca0082520894617b3a3528f9cdd6630fd3301b9c8911f7bf063d88016345785d8a0000808207f6a0c428d135671f713b2db7d9922ab917b795c5e7dee9c21cd8fafc5cee36c668c5a0319c323a887d9961452c1ab8236fae2ca84c2230edcf45c7bbdc9d5f65390c5f"
            }
        ],
        "expectedNewRoot": "759294542847346818497427297122296620865529255021580859968784672560396875947",
        "expectedNewLeafs": {
            "0x617b3a3528F9cDd6630fd3301B9c8911F7Bf063D": {
                "balance": "199999999999999999999",
                "nonce": "0"
            },
            "0x4d5Cf5032B2a844602278b01199ED191A86c93ff": {
                "balance": "1",
                "nonce": "1"
            }
        },
        "timestamp": 1944498031
    }
]