[
  {
    "id": 0,
    "description": "2 accounts and 1 valid transaction.",
    "arity": 4,
    "chainIdSequencer": 1001,
    "defaultChainId": 1000,
    "sequencerAddress": "0x617b3a3528F9cDd6630fd3301B9c8911F7Bf063D",
    "genesis": [
      {
        "address": "0x617b3a3528F9cDd6630fd3301B9c8911F7Bf063D",
        "pvtKey": "0x28b2b0318721be8c8339199172cd7cc8f5e273800a35616ec893083a4b32c02e",
        "balance": "100000000000000000000",
        "nonce": "0"
      },
      {
        "address": "0x4d5Cf5032B2a844602278b01199ED191A86c93ff",
        "pvtKey": "0x4d27a600dce8c29b7bd080e29a26972377dbb04d7a27d919adbb602bf13cfd23",
        "balance": "200000000000000000000",
        "nonce": "0"
      }
    ],
    "expectedOldRoot": "4091651772388093439828475955668620102367778455436412389529460210592290187513",
    "txs": [
      {
        "id": 0,
        "from": "0x617b3a3528F9cDd6630fd3301B9c8911F7Bf063D",
        "to": "0x4d5Cf5032B2a844602278b01199ED191A86c93ff",
        "nonce": 0,
        "value": "100000000000000000",
        "gasLimit": 100000,
        "gasPrice": "1000000000",
        "chainId": 1001,
        "rawTx": "0xf86d80843b9aca00830186a0944d5cf5032b2a844602278b01199ed191a86c93ff88016345785d8a0000808207f5a01186622d03b6b8da7cf111d1ccba5bb185c56deae6a322cebc6dda0556f3cb979f910c26408b64b51c5da36ba2f38ef55ba1cee719d5a6c01225968799907432",
        "reason": "",
        "customRawTx": "0xee80843b9aca00830186a0944d5cf5032b2a844602278b01199ed191a86c93ff88016345785d8a0000808203e980801186622d03b6b8da7cf111d1ccba5bb185c56deae6a322cebc6dda0556f3cb9700910c26408b64b51c5da36ba2f38ef55ba1cee719d5a6c012259687999074321b"
      }
    ],
    "expectedNewRoot": "16839349720732534632663634369605785751289107377345624633588697492886148997782",
    "expectedNewLeafs": {
      "0x617b3a3528F9cDd6630fd3301B9c8911F7Bf063D": {
        "balance": "99900000000000000000",
        "nonce": "1"
      },
      "0x4d5Cf5032B2a844602278b01199ED191A86c93ff": {
        "balance": "200100000000000000000",
        "nonce": "0"
      }
    },
    "batchL2Data": "0xee80843b9aca00830186a0944d5cf5032b2a844602278b01199ed191a86c93ff88016345785d8a0000808203e980801186622d03b6b8da7cf111d1ccba5bb185c56deae6a322cebc6dda0556f3cb9700910c26408b64b51c5da36ba2f38ef55ba1cee719d5a6c012259687999074321b",
    "globalExitRoot": "0x090bcaf734c4f06c93954a827b45a6e8c67b8e0fd1e0a35a1c5982d6961828f9",
    "newLocalExitRoot": "0x17c04c3760510b48c6012742c540a81aba4bca2f78b9d14bfd2f123e2e53ea3e",
    "inputHash": "0x060d1716370f95a8a57ec6549eb73d8538201871a5b7c8b46cea5d758ec2022f",
    "batchHashData": "0x767ef4be9367c5f826078e1584bbb93cf0c1a024364a132da284d488d8069950",
    "localExitRoot": "0x17c04c3760510b48c6012742c540a81aba4bca2f78b9d14bfd2f123e2e53ea3e",
    "timestamp": 1944498031
  },
  {
    "id": 1,
    "description": "5 accounts. 2 valid tx, 3 invalid tx (same amount as balance, invalid nonce, invalid chain id 1)",
    "arity": 4,
    "chainIdSequencer": 1001,
    "defaultChainId": 1000,
    "sequencerAddress": "0x617b3a3528F9cDd6630fd3301B9c8911F7Bf063D",
    "genesis": [
      {
        "address": "0x617b3a3528F9cDd6630fd3301B9c8911F7Bf063D",
        "pvtKey": "0x28b2b0318721be8c8339199172cd7cc8f5e273800a35616ec893083a4b32c02e",
        "balance": "100000000000000000000",
        "nonce": "0"
      },
      {
        "address": "0x4d5Cf5032B2a844602278b01199ED191A86c93ff",
        "pvtKey": "0x4d27a600dce8c29b7bd080e29a26972377dbb04d7a27d919adbb602bf13cfd23",
        "balance": "200000000000000000000",
        "nonce": "0"
      },
      {
        "address": "0xeB17ce701E9D92724AA2ABAdA7E4B28830597Dd9",
        "pvtKey": "0x1d0722aff4b29780e9a78e0bf28d5e127fb276cfbb0c3eb6a0e1728401777f17",
        "balance": "100000000000000000000",
        "nonce": "0"
      },
      {
        "address": "0x187Bd40226A7073b49163b1f6c2b73d8F2aa8478",
        "pvtKey": "0xd049e68efa0d85a3824c0b79f6817a986bb0cb3a075bcc2699118eca881d70ce",
        "balance": "000000000000000000000",
        "nonce": "0"
      },
      {
        "address": "0xabCcEd19d7f290B84608feC510bEe872CC8F5112",
        "pvtKey": "0x0b929d50d7fda8155539e6befa96ff297e3e9ebce4d908f570310bdf774cb32b",
        "balance": "000000000000000000000",
        "nonce": "0"
      }
    ],
    "expectedOldRoot": "10742956179515319100591595038388130427995406579252011098325992000171378207294",
    "txs": [
      {
        "id": 0,
        "from": "0x617b3a3528F9cDd6630fd3301B9c8911F7Bf063D",
        "to": "0x4d5Cf5032B2a844602278b01199ED191A86c93ff",
        "nonce": 0,
        "value": "100000000000000000",
        "gasLimit": 100000,
        "gasPrice": "1000000000",
        "chainId": 1001,
        "rawTx": "0xf86d80843b9aca00830186a0944d5cf5032b2a844602278b01199ed191a86c93ff88016345785d8a0000808207f5a01186622d03b6b8da7cf111d1ccba5bb185c56deae6a322cebc6dda0556f3cb979f910c26408b64b51c5da36ba2f38ef55ba1cee719d5a6c01225968799907432",
        "reason": "",
        "customRawTx": "0xee80843b9aca00830186a0944d5cf5032b2a844602278b01199ed191a86c93ff88016345785d8a0000808203e980801186622d03b6b8da7cf111d1ccba5bb185c56deae6a322cebc6dda0556f3cb9700910c26408b64b51c5da36ba2f38ef55ba1cee719d5a6c012259687999074321b"
      },
      {
        "id": 1,
        "from": "0xeB17ce701E9D92724AA2ABAdA7E4B28830597Dd9",
        "to": "0x187Bd40226A7073b49163b1f6c2b73d8F2aa8478",
        "nonce": 0,
        "value": "1000000000000000000000",
        "gasLimit": 100000,
        "gasPrice": "1000000000",
        "chainId": 1001,
        "rawTx": "0xf86f80843b9aca00830186a094187bd40226a7073b49163b1f6c2b73d8f2aa8478893635c9adc5dea00000808207f5a04c4fbe884ee8912360f4d00199fd189f11b27fa25eca1b9dcfd3ea686e88042ea0113432240c9e7be8de1e8fc0894b68ff4d37528d820814527b5fa2bd034ef38f",
        "reason": "TX INVALID: Not enough funds to pay total transaction cost",
        "customRawTx": "0xef80843b9aca00830186a094187bd40226a7073b49163b1f6c2b73d8f2aa8478893635c9adc5dea00000808203e980804c4fbe884ee8912360f4d00199fd189f11b27fa25eca1b9dcfd3ea686e88042e113432240c9e7be8de1e8fc0894b68ff4d37528d820814527b5fa2bd034ef38f1b"
      },
      {
        "id": 2,
        "from": "0xeB17ce701E9D92724AA2ABAdA7E4B28830597Dd9",
        "to": "0x187Bd40226A7073b49163b1f6c2b73d8F2aa8478",
        "nonce": 0,
        "value": "1000000000000000000",
        "gasLimit": 100000,
        "gasPrice": "1000000000",
        "chainId": 1000,
        "rawTx": "0xf86e80843b9aca00830186a094187bd40226a7073b49163b1f6c2b73d8f2aa8478880de0b6b3a7640000808207f4a074ecb6abb3d84c322a4905c60199b8f422b79b940e8a853d580869268009ae31a023fb6caa5b3afc410b79d9b68bf851df1fd46fd6923cc481b3e273aeb92ce67d",
        "reason": "",
        "customRawTx": "0xee80843b9aca00830186a094187bd40226a7073b49163b1f6c2b73d8f2aa8478880de0b6b3a7640000808203e8808074ecb6abb3d84c322a4905c60199b8f422b79b940e8a853d580869268009ae3123fb6caa5b3afc410b79d9b68bf851df1fd46fd6923cc481b3e273aeb92ce67d1c"
      },
      {
        "id": 3,
        "from": "0xeB17ce701E9D92724AA2ABAdA7E4B28830597Dd9",
        "to": "0xabCcEd19d7f290B84608feC510bEe872CC8F5112",
        "nonce": 0,
        "value": "1000000000000000000",
        "gasLimit": 100000,
        "gasPrice": "1000000000",
        "chainId": 1001,
        "rawTx": "0xf86e80843b9aca00830186a094abcced19d7f290b84608fec510bee872cc8f5112880de0b6b3a7640000808207f5a0980717290b2314a735dc00db207c20d5a6461f73761c2022986fd78efa7e774da057de08eada05ec67eb78cceaa7be257cb12b5449aa0d7347dca655f94375c967",
        "reason": "TX INVALID: Invalid nonce",
        "customRawTx": "0xee80843b9aca00830186a094abcced19d7f290b84608fec510bee872cc8f5112880de0b6b3a7640000808203e98080980717290b2314a735dc00db207c20d5a6461f73761c2022986fd78efa7e774d57de08eada05ec67eb78cceaa7be257cb12b5449aa0d7347dca655f94375c9671b"
      },
      {
        "id": 4,
        "from": "0xeB17ce701E9D92724AA2ABAdA7E4B28830597Dd9",
        "to": "0xabCcEd19d7f290B84608feC510bEe872CC8F5112",
        "nonce": 0,
        "value": "1000000000000000000",
        "gasLimit": 100000,
        "gasPrice": "1000000000",
        "chainId": 0,
        "rawTx": "0xf86c80843b9aca00830186a094abcced19d7f290b84608fec510bee872cc8f5112880de0b6b3a7640000801ba02c92035bc11227e9e94ba066a6d77a65c43d29dfb4a855c9464e1b60fabd6334a07171c6dc84816ffcf025040cd6193ecef3928a0c4e4964ddba320826b76c725d",
        "reason": "TX INVALID: Chain ID does not match",
        "customRawTx": "0xec80843b9aca00830186a094abcced19d7f290b84608fec510bee872cc8f5112880de0b6b3a764000080808080c58f68d4c65a9a131d17a426ab83da163a43e21f8811a70cd4ca79eb5d26f25d169e8e50ee8483669b2aef296e6dc68464e5af0dc582a54751ef50c2c9207b6b1c"
      }
    ],
    "expectedNewRoot": "9568962050771181857833105459529305734534076689529052064550105938569302461613",
    "expectedNewLeafs": {
      "0x617b3a3528F9cDd6630fd3301B9c8911F7Bf063D": {
        "balance": "99900021000000000000",
        "nonce": "1"
      },
      "0x4d5Cf5032B2a844602278b01199ED191A86c93ff": {
        "balance": "200100000000000000000",
        "nonce": "0"
      },
      "0xeB17ce701E9D92724AA2ABAdA7E4B28830597Dd9": {
        "balance": "98999979000000000000",
        "nonce": "1"
      },
      "0x187Bd40226A7073b49163b1f6c2b73d8F2aa8478": {
        "balance": "1000000000000000000",
        "nonce": "0"
      },
      "0xabCcEd19d7f290B84608feC510bEe872CC8F5112": {
        "balance": "0",
        "nonce": "0"
      }
    },
    "batchL2Data": "0xee80843b9aca00830186a0944d5cf5032b2a844602278b01199ed191a86c93ff88016345785d8a0000808203e980801186622d03b6b8da7cf111d1ccba5bb185c56deae6a322cebc6dda0556f3cb9700910c26408b64b51c5da36ba2f38ef55ba1cee719d5a6c012259687999074321bef80843b9aca00830186a094187bd40226a7073b49163b1f6c2b73d8f2aa8478893635c9adc5dea00000808203e980804c4fbe884ee8912360f4d00199fd189f11b27fa25eca1b9dcfd3ea686e88042e113432240c9e7be8de1e8fc0894b68ff4d37528d820814527b5fa2bd034ef38f1bee80843b9aca00830186a094187bd40226a7073b49163b1f6c2b73d8f2aa8478880de0b6b3a7640000808203e8808074ecb6abb3d84c322a4905c60199b8f422b79b940e8a853d580869268009ae3123fb6caa5b3afc410b79d9b68bf851df1fd46fd6923cc481b3e273aeb92ce67d1cee80843b9aca00830186a094abcced19d7f290b84608fec510bee872cc8f5112880de0b6b3a7640000808203e98080980717290b2314a735dc00db207c20d5a6461f73761c2022986fd78efa7e774d57de08eada05ec67eb78cceaa7be257cb12b5449aa0d7347dca655f94375c9671bec80843b9aca00830186a094abcced19d7f290b84608fec510bee872cc8f5112880de0b6b3a764000080808080c58f68d4c65a9a131d17a426ab83da163a43e21f8811a70cd4ca79eb5d26f25d169e8e50ee8483669b2aef296e6dc68464e5af0dc582a54751ef50c2c9207b6b1c",
    "globalExitRoot": "0x090bcaf734c4f06c93954a827b45a6e8c67b8e0fd1e0a35a1c5982d6961828f9",
    "newLocalExitRoot": "0x17c04c3760510b48c6012742c540a81aba4bca2f78b9d14bfd2f123e2e53ea3e",
    "inputHash": "0x1bf436f098b3466f6d193c7d89f4c87039056d0e454a85557a6605a7a9b8873c",
    "batchHashData": "0xeaa079ba1c363ee0452f6706d256bce58e1c25cd79af323c3fd95eff26e7d5fe",
    "localExitRoot": "0x17c04c3760510b48c6012742c540a81aba4bca2f78b9d14bfd2f123e2e53ea3e",
    "timestamp": 1944498031
  },
  {
    "id": 2,
    "description": "2 accounts and 1 invalid tx (tx with more value than balance). Old root equals new root.",
    "arity": 4,
    "chainIdSequencer": 1001,
    "defaultChainId": 1000,
    "sequencerAddress": "0x617b3a3528F9cDd6630fd3301B9c8911F7Bf063D",
    "genesis": [
      {
        "address": "0x617b3a3528F9cDd6630fd3301B9c8911F7Bf063D",
        "pvtKey": "0x28b2b0318721be8c8339199172cd7cc8f5e273800a35616ec893083a4b32c02e",
        "balance": "100000000000000000000",
        "nonce": "0"
      },
      {
        "address": "0x4d5Cf5032B2a844602278b01199ED191A86c93ff",
        "pvtKey": "0x4d27a600dce8c29b7bd080e29a26972377dbb04d7a27d919adbb602bf13cfd23",
        "balance": "200000000000000000000",
        "nonce": "0"
      }
    ],
    "expectedOldRoot": "4091651772388093439828475955668620102367778455436412389529460210592290187513",
    "txs": [
      {
        "id": 0,
        "from": "0x617b3a3528F9cDd6630fd3301B9c8911F7Bf063D",
        "to": "0x4d5Cf5032B2a844602278b01199ED191A86c93ff",
        "nonce": 0,
        "value": "10000000000000000000000",
        "gasLimit": 100000,
        "gasPrice": "1000000000",
        "chainId": 1001,
        "rawTx": "0xf87080843b9aca00830186a0944d5cf5032b2a844602278b01199ed191a86c93ff8a021e19e0c9bab2400000808207f5a0510a8a10721e65bf2913889751f3b32de1cb4733a667e06b708f122965da598ea075ca7d27cb4c3846490b4c446605d0120b0720b70dfe5a07f865a161c3726322",
        "reason": "TX INVALID: Not enough funds to pay total transaction cost",
        "customRawTx": "0xf080843b9aca00830186a0944d5cf5032b2a844602278b01199ed191a86c93ff8a021e19e0c9bab2400000808203e98080510a8a10721e65bf2913889751f3b32de1cb4733a667e06b708f122965da598e75ca7d27cb4c3846490b4c446605d0120b0720b70dfe5a07f865a161c37263221b"
      }
    ],
    "expectedNewRoot": "4091651772388093439828475955668620102367778455436412389529460210592290187513",
    "expectedNewLeafs": {
      "0x617b3a3528F9cDd6630fd3301B9c8911F7Bf063D": {
        "balance": "100000000000000000000",
        "nonce": "0"
      },
      "0x4d5Cf5032B2a844602278b01199ED191A86c93ff": {
        "balance": "200000000000000000000",
        "nonce": "0"
      }
    },
    "batchL2Data": "0xf080843b9aca00830186a0944d5cf5032b2a844602278b01199ed191a86c93ff8a021e19e0c9bab2400000808203e98080510a8a10721e65bf2913889751f3b32de1cb4733a667e06b708f122965da598e75ca7d27cb4c3846490b4c446605d0120b0720b70dfe5a07f865a161c37263221b",
    "globalExitRoot": "0x090bcaf734c4f06c93954a827b45a6e8c67b8e0fd1e0a35a1c5982d6961828f9",
    "newLocalExitRoot": "0x17c04c3760510b48c6012742c540a81aba4bca2f78b9d14bfd2f123e2e53ea3e",
    "inputHash": "0x09ea3c8061ab90004f0cec7b20344a75fdb957f848efaf3c40d25d7ce14b3c7b",
    "batchHashData": "0x9eeac30ff1cb2ab9064827f37d6e9a8d94b3ddc23ee0dec18b72616c1f4bff11",
    "localExitRoot": "0x17c04c3760510b48c6012742c540a81aba4bca2f78b9d14bfd2f123e2e53ea3e",
    "timestamp": 1944498031
  },
  {
    "id": 3,
    "description": "2 accounts and 4 invalid transactions. Two of the transactions have invalid from and to address so no rawTx is provided for them, can be ignored.Tx with same amount than balance and tx with invalid chain id (different chain id than sequencer). Old root equals new root",
    "arity": 4,
    "chainIdSequencer": 1001,
    "defaultChainId": 1000,
    "sequencerAddress": "0x617b3a3528F9cDd6630fd3301B9c8911F7Bf063D",
    "genesis": [
      {
        "address": "0x617b3a3528F9cDd6630fd3301B9c8911F7Bf063D",
        "pvtKey": "0x28b2b0318721be8c8339199172cd7cc8f5e273800a35616ec893083a4b32c02e",
        "balance": "100000000000000000000",
        "nonce": "0"
      },
      {
        "address": "0x4d5Cf5032B2a844602278b01199ED191A86c93ff",
        "pvtKey": "0x4d27a600dce8c29b7bd080e29a26972377dbb04d7a27d919adbb602bf13cfd23",
        "balance": "200000000000000000000",
        "nonce": "0"
      }
    ],
    "expectedOldRoot": "4091651772388093439828475955668620102367778455436412389529460210592290187513",
    "txs": [
      {
        "id": 0,
        "from": "0x617b3a3528F9cDd6630fd3301B9c8911F7Bf063D",
        "to": "0x4d5Cf5032B2a844602278b01199ED191A86c93ff",
        "nonce": 0,
        "value": "100000000000000000",
        "gasLimit": 100000,
        "gasPrice": "1000000000",
        "chainId": 401,
        "rawTx": "0xf86e80843b9aca00830186a0944d5cf5032b2a844602278b01199ed191a86c93ff88016345785d8a000080820346a06e209c61ca92c2b980d6197e7ac9ccc3f547bf13be6455dfe682aa5dda9655efa016819a7edcc3fefec81ca97c7a6f3d10ec774440e409adbba693ce8b698d41f1",
        "reason": "TX INVALID: Chain ID does not match",
        "customRawTx": "0xee80843b9aca00830186a0944d5cf5032b2a844602278b01199ed191a86c93ff88016345785d8a00008082019180806e209c61ca92c2b980d6197e7ac9ccc3f547bf13be6455dfe682aa5dda9655ef16819a7edcc3fefec81ca97c7a6f3d10ec774440e409adbba693ce8b698d41f11c"
      },
      {
        "id": 1,
        "from": "0x617b3a3528F9cDd6630fd3301B9c8911F7Bf063D",
        "to": "0x4d5Cf5032B2a844602278b01199ED191A86c93f",
        "nonce": 0,
        "value": "100000000000000000",
        "gasLimit": 100000,
        "gasPrice": "1000000000",
        "chainId": 1001,
        "reason": ""
      },
      {
        "id": 2,
        "from": "0x617b3a3528F9cDd6630fd3301B9c8911F7Bf03D",
        "to": "0x4d5Cf5032B2a844602278b01199ED191A86c93ff",
        "nonce": 0,
        "value": "100000000000000000",
        "gasLimit": 100000,
        "gasPrice": "1000000000",
        "chainId": 1001,
        "reason": ""
      },
      {
        "id": 3,
        "from": "0x617b3a3528F9cDd6630fd3301B9c8911F7Bf063D",
        "to": "0x4d5Cf5032B2a844602278b01199ED191A86c93ff",
        "nonce": 0,
        "value": "100000000000000000000",
        "gasLimit": 100000,
        "gasPrice": "1000000000",
        "chainId": 1001,
        "rawTx": "0xf86f80843b9aca00830186a0944d5cf5032b2a844602278b01199ed191a86c93ff89056bc75e2d63100000808207f5a0fe1e96b35c836fbebac887681150c5fc9fdae862d747aaaf8c30373c0becf769a01ff0c900aaaac6d1565a603f69b5a45f222ed205f0a36fdc6e4e4c5a7b88d45b",
        "reason": "TX INVALID: Not enough funds to pay total transaction cost",
        "customRawTx": "0xef80843b9aca00830186a0944d5cf5032b2a844602278b01199ed191a86c93ff89056bc75e2d63100000808203e98080fe1e96b35c836fbebac887681150c5fc9fdae862d747aaaf8c30373c0becf7691ff0c900aaaac6d1565a603f69b5a45f222ed205f0a36fdc6e4e4c5a7b88d45b1b"
      }
    ],
    "expectedNewRoot": "4091651772388093439828475955668620102367778455436412389529460210592290187513",
    "expectedNewLeafs": {
      "0x617b3a3528F9cDd6630fd3301B9c8911F7Bf063D": {
        "balance": "100000000000000000000",
        "nonce": "0"
      },
      "0x4d5Cf5032B2a844602278b01199ED191A86c93ff": {
        "balance": "200000000000000000000",
        "nonce": "0"
      }
    },
    "batchL2Data": "0xee80843b9aca00830186a0944d5cf5032b2a844602278b01199ed191a86c93ff88016345785d8a00008082019180806e209c61ca92c2b980d6197e7ac9ccc3f547bf13be6455dfe682aa5dda9655ef16819a7edcc3fefec81ca97c7a6f3d10ec774440e409adbba693ce8b698d41f11cef80843b9aca00830186a0944d5cf5032b2a844602278b01199ed191a86c93ff89056bc75e2d63100000808203e98080fe1e96b35c836fbebac887681150c5fc9fdae862d747aaaf8c30373c0becf7691ff0c900aaaac6d1565a603f69b5a45f222ed205f0a36fdc6e4e4c5a7b88d45b1b",
    "globalExitRoot": "0x090bcaf734c4f06c93954a827b45a6e8c67b8e0fd1e0a35a1c5982d6961828f9",
    "newLocalExitRoot": "0x17c04c3760510b48c6012742c540a81aba4bca2f78b9d14bfd2f123e2e53ea3e",
    "inputHash": "0x1a7106980a2ae8212f8e01b56a08b69f08f12a3521db1946d3d98e867352fa87",
    "batchHashData": "0x4f289ae040ff758ec14c1c05e4760d163e22c7d4fa3b2644c35e0ca69a8ba79c",
    "localExitRoot": "0x17c04c3760510b48c6012742c540a81aba4bca2f78b9d14bfd2f123e2e53ea3e",
    "timestamp": 1944498031
  },
  {
    "id": 4,
    "description": "2 accounts and 1 invalid transaction. Wrong encode of the tx (invalid signature). Old root equals new root",
    "arity": 4,
    "chainIdSequencer": 1001,
    "defaultChainId": 1000,
    "sequencerAddress": "0x617b3a3528F9cDd6630fd3301B9c8911F7Bf063D",
    "genesis": [
      {
        "address": "0x617b3a3528F9cDd6630fd3301B9c8911F7Bf063D",
        "pvtKey": "0x28b2b0318721be8c8339199172cd7cc8f5e273800a35616ec893083a4b32c02e",
        "balance": "100000000000000000000",
        "nonce": "0"
      },
      {
        "address": "0x4d5Cf5032B2a844602278b01199ED191A86c93ff",
        "pvtKey": "0x4d27a600dce8c29b7bd080e29a26972377dbb04d7a27d919adbb602bf13cfd23",
        "balance": "200000000000000000000",
        "nonce": "0"
      }
    ],
    "expectedOldRoot": "4091651772388093439828475955668620102367778455436412389529460210592290187513",
    "txs": [
      {
        "encodeInvalidData": true,
        "id": 0,
        "from": "0x617b3a3528F9cDd6630fd3301B9c8911F7Bf063D",
        "to": "0x4d5Cf5032B2a844602278b01199ED191A86c93ff",
        "nonce": 0,
        "value": "100000000000000000",
        "gasLimit": 100000,
        "gasPrice": "1000000000",
        "chainId": 1001,
        "rawTx": "0xf86d80843b9aca00830186a0944d5cf5032b2a844602278b01199ed191a86c93ff88016345785d8a0000808207f5a01186622d03b6b8da7cf111d1ccba5bb185c56deae6a322cebc6dda0556f3cb979f910c26408b64b51c5da36ba2f38ef55ba1cee719d5a6c01225968799907432",
        "reason": "TX INVALID: Failed signature",
        "customRawTx": "0xee80843b9aca00830186a0944d5cf5032b2a844602278b01199ed191a86c93ff88016345785d8a0000808203e980801186622d03b6b8da7cf111d1ccba5bb185c56deae6a322cebc6dda0556f3cb9700910c26408b64b51c5da36ba2f38ef55ba1cee719d5a6c012259687999074321b"
      }
    ],
    "expectedNewRoot": "4091651772388093439828475955668620102367778455436412389529460210592290187513",
    "expectedNewLeafs": {
      "0x617b3a3528F9cDd6630fd3301B9c8911F7Bf063D": {
        "balance": "100000000000000000000",
        "nonce": "0"
      },
      "0x4d5Cf5032B2a844602278b01199ED191A86c93ff": {
        "balance": "200000000000000000000",
        "nonce": "0"
      }
    },
    "batchL2Data": "0xee80843b9aca00830186a0944d5cf5032b2a844602278b01199ed191a86c93ff88016345785d8a0000808203e980801186622d03b6b8da7cf111d1ccba5bb185c56deae6a322cebc6dda0556f3cb9700910c26408b64b51c5da36ba2f38ef55ba1cee719d5a6c0122596879990",
    "globalExitRoot": "0x090bcaf734c4f06c93954a827b45a6e8c67b8e0fd1e0a35a1c5982d6961828f9",
    "newLocalExitRoot": "0x17c04c3760510b48c6012742c540a81aba4bca2f78b9d14bfd2f123e2e53ea3e",
    "inputHash": "0x261b6d64865674ff62bbce6568fba78b19b5ce65718095ac87ebaeabe82eedfa",
    "batchHashData": "0x5e81dc4df31cc2861f186985b40908726d45939da5ad97a9262050daa5ed3adf",
    "localExitRoot": "0x17c04c3760510b48c6012742c540a81aba4bca2f78b9d14bfd2f123e2e53ea3e",
    "timestamp": 1944498031
  },
  {
    "id": 5,
    "description": "2 accounts and 1 valid transaction, from and to are the same",
    "arity": 4,
    "chainIdSequencer": 1001,
    "defaultChainId": 1000,
    "sequencerAddress": "0x4d5Cf5032B2a844602278b01199ED191A86c93ff",
    "genesis": [
      {
        "address": "0x617b3a3528F9cDd6630fd3301B9c8911F7Bf063D",
        "pvtKey": "0x28b2b0318721be8c8339199172cd7cc8f5e273800a35616ec893083a4b32c02e",
        "balance": "100000000000000000000",
        "nonce": "0"
      },
      {
        "address": "0x4d5Cf5032B2a844602278b01199ED191A86c93ff",
        "pvtKey": "0x4d27a600dce8c29b7bd080e29a26972377dbb04d7a27d919adbb602bf13cfd23",
        "balance": "200000000000000000000",
        "nonce": "0"
      }
    ],
    "expectedOldRoot": "4091651772388093439828475955668620102367778455436412389529460210592290187513",
    "txs": [
      {
        "id": 0,
        "from": "0x617b3a3528F9cDd6630fd3301B9c8911F7Bf063D",
        "to": "0x617b3a3528F9cDd6630fd3301B9c8911F7Bf063D",
        "nonce": 0,
        "value": "100000000000000000",
        "gasLimit": 100000,
        "gasPrice": "1000000000",
        "chainId": 1001,
        "rawTx": "0xf86e80843b9aca00830186a094617b3a3528f9cdd6630fd3301b9c8911f7bf063d88016345785d8a0000808207f6a014b2304ca08457f37c4e81284398aa9c511875e47b37b1e6877a26c53c0e7a1ca07f2ed42e23e503c446213de2ce077e5cfdc58f0a672dfc0a5d0aa7c0202098c3",
        "reason": "",
        "customRawTx": "0xee80843b9aca00830186a094617b3a3528f9cdd6630fd3301b9c8911f7bf063d88016345785d8a0000808203e9808014b2304ca08457f37c4e81284398aa9c511875e47b37b1e6877a26c53c0e7a1c7f2ed42e23e503c446213de2ce077e5cfdc58f0a672dfc0a5d0aa7c0202098c31c"
      }
    ],
    "expectedNewRoot": "17438486316409083994532643493058358002769362667109977490833048423880566432494",
    "expectedNewLeafs": {
      "0x617b3a3528F9cDd6630fd3301B9c8911F7Bf063D": {
        "balance": "99999979000000000000",
        "nonce": "1"
      },
      "0x4d5Cf5032B2a844602278b01199ED191A86c93ff": {
        "balance": "200000021000000000000",
        "nonce": "0"
      }
    },
    "batchL2Data": "0xee80843b9aca00830186a094617b3a3528f9cdd6630fd3301b9c8911f7bf063d88016345785d8a0000808203e9808014b2304ca08457f37c4e81284398aa9c511875e47b37b1e6877a26c53c0e7a1c7f2ed42e23e503c446213de2ce077e5cfdc58f0a672dfc0a5d0aa7c0202098c31c",
    "globalExitRoot": "0x090bcaf734c4f06c93954a827b45a6e8c67b8e0fd1e0a35a1c5982d6961828f9",
    "newLocalExitRoot": "0x17c04c3760510b48c6012742c540a81aba4bca2f78b9d14bfd2f123e2e53ea3e",
    "inputHash": "0x165e1c9a1b05f7ad69d8675175a5cffb72bb745d57dbd3f288c3c72b750f2be4",
    "batchHashData": "0x55c51da4dc091efed8d863846e9f106bd31d86913b18a933e853e11519c4562b",
    "localExitRoot": "0x17c04c3760510b48c6012742c540a81aba4bca2f78b9d14bfd2f123e2e53ea3e",
    "timestamp": 1944498031
  },
  {
    "id": 6,
    "description": "2 accounts. 1 valid tx, 3 invalid tx (same amount as balance, invalid nonce, invalid chain id",
    "arity": 4,
    "chainIdSequencer": 1001,
    "defaultChainId": 1000,
    "sequencerAddress": "0x4d5Cf5032B2a844602278b01199ED191A86c93ff",
    "genesis": [
      {
        "address": "0x617b3a3528F9cDd6630fd3301B9c8911F7Bf063D",
        "pvtKey": "0x28b2b0318721be8c8339199172cd7cc8f5e273800a35616ec893083a4b32c02e",
        "balance": "100000000000000000000",
        "nonce": "0"
      },
      {
        "address": "0x4d5Cf5032B2a844602278b01199ED191A86c93ff",
        "pvtKey": "0x4d27a600dce8c29b7bd080e29a26972377dbb04d7a27d919adbb602bf13cfd23",
        "balance": "200000000000000000000",
        "nonce": "0"
      }
    ],
    "expectedOldRoot": "4091651772388093439828475955668620102367778455436412389529460210592290187513",
    "txs": [
      {
        "id": 0,
        "from": "0x617b3a3528F9cDd6630fd3301B9c8911F7Bf063D",
        "to": "0x4d5Cf5032B2a844602278b01199ED191A86c93ff",
        "nonce": 0,
        "value": "100000000000000000000",
        "gasLimit": 100000,
        "gasPrice": "1000000000",
        "chainId": 1001,
        "rawTx": "0xf86f80843b9aca00830186a0944d5cf5032b2a844602278b01199ed191a86c93ff89056bc75e2d63100000808207f5a0fe1e96b35c836fbebac887681150c5fc9fdae862d747aaaf8c30373c0becf769a01ff0c900aaaac6d1565a603f69b5a45f222ed205f0a36fdc6e4e4c5a7b88d45b",
        "reason": "TX INVALID: Not enough funds to pay total transaction cost",
        "customRawTx": "0xef80843b9aca00830186a0944d5cf5032b2a844602278b01199ed191a86c93ff89056bc75e2d63100000808203e98080fe1e96b35c836fbebac887681150c5fc9fdae862d747aaaf8c30373c0becf7691ff0c900aaaac6d1565a603f69b5a45f222ed205f0a36fdc6e4e4c5a7b88d45b1b"
      },
      {
        "id": 1,
        "from": "0x617b3a3528F9cDd6630fd3301B9c8911F7Bf063D",
        "to": "0x4d5Cf5032B2a844602278b01199ED191A86c93ff",
        "nonce": 0,
        "value": "100000000000000000",
        "gasLimit": 100000,
        "gasPrice": "1000000000",
        "chainId": 1001,
        "rawTx": "0xf86d80843b9aca00830186a0944d5cf5032b2a844602278b01199ed191a86c93ff88016345785d8a0000808207f5a01186622d03b6b8da7cf111d1ccba5bb185c56deae6a322cebc6dda0556f3cb979f910c26408b64b51c5da36ba2f38ef55ba1cee719d5a6c01225968799907432",
        "reason": "",
        "customRawTx": "0xee80843b9aca00830186a0944d5cf5032b2a844602278b01199ed191a86c93ff88016345785d8a0000808203e980801186622d03b6b8da7cf111d1ccba5bb185c56deae6a322cebc6dda0556f3cb9700910c26408b64b51c5da36ba2f38ef55ba1cee719d5a6c012259687999074321b"
      },
      {
        "id": 2,
        "from": "0x617b3a3528F9cDd6630fd3301B9c8911F7Bf063D",
        "to": "0x4d5Cf5032B2a844602278b01199ED191A86c93ff",
        "nonce": 0,
        "value": "1000000000000000000",
        "gasLimit": 100000,
        "gasPrice": "1000000000",
        "chainId": 1001,
        "rawTx": "0xf86e80843b9aca00830186a0944d5cf5032b2a844602278b01199ed191a86c93ff880de0b6b3a7640000808207f6a0abf2354a778c3dace42daafd85b0587941170288f5d150621453bb490cbbb897a04d0251dec50bf299922edde433982445f1245e85a61232edc2847bd571250b52",
        "reason": "TX INVALID: Invalid nonce",
        "customRawTx": "0xee80843b9aca00830186a0944d5cf5032b2a844602278b01199ed191a86c93ff880de0b6b3a7640000808203e98080abf2354a778c3dace42daafd85b0587941170288f5d150621453bb490cbbb8974d0251dec50bf299922edde433982445f1245e85a61232edc2847bd571250b521c"
      },
      {
        "id": 3,
        "from": "0x617b3a3528F9cDd6630fd3301B9c8911F7Bf063D",
        "to": "0x4d5Cf5032B2a844602278b01199ED191A86c93ff",
        "nonce": 0,
        "value": "1000000000000000000",
        "gasLimit": 100000,
        "gasPrice": "1000000000",
        "chainId": 0,
        "rawTx": "0xf86c80843b9aca00830186a0944d5cf5032b2a844602278b01199ed191a86c93ff880de0b6b3a7640000801ba077f76b76aca6161db28545aa742536370e4f57f9a71651688631a423abcbe04aa0131474e130abe8bcc9ef39a44a877eb64b2d43132cb0907abe547aa605b641b8",
        "reason": "TX INVALID: Chain ID does not match",
        "customRawTx": "0xec80843b9aca00830186a0944d5cf5032b2a844602278b01199ed191a86c93ff880de0b6b3a764000080808080f7e1e6f3cd95d27522592e8796afa8f419a066b7172e0ac3e7826705ad608c672731e14da1b190dab8c14e79e050e31da53fdb4a0e55ca48ee4faff859606d5a1b"
      }
    ],
    "expectedNewRoot": "17189536521307802254466496898476475883494701159130821398958894848580122137492",
    "expectedNewLeafs": {
      "0x617b3a3528F9cDd6630fd3301B9c8911F7Bf063D": {
        "balance": "99899979000000000000",
        "nonce": "1"
      },
      "0x4d5Cf5032B2a844602278b01199ED191A86c93ff": {
        "balance": "200100021000000000000",
        "nonce": "0"
      }
    },
    "batchL2Data": "0xef80843b9aca00830186a0944d5cf5032b2a844602278b01199ed191a86c93ff89056bc75e2d63100000808203e98080fe1e96b35c836fbebac887681150c5fc9fdae862d747aaaf8c30373c0becf7691ff0c900aaaac6d1565a603f69b5a45f222ed205f0a36fdc6e4e4c5a7b88d45b1bee80843b9aca00830186a0944d5cf5032b2a844602278b01199ed191a86c93ff88016345785d8a0000808203e980801186622d03b6b8da7cf111d1ccba5bb185c56deae6a322cebc6dda0556f3cb9700910c26408b64b51c5da36ba2f38ef55ba1cee719d5a6c012259687999074321bee80843b9aca00830186a0944d5cf5032b2a844602278b01199ed191a86c93ff880de0b6b3a7640000808203e98080abf2354a778c3dace42daafd85b0587941170288f5d150621453bb490cbbb8974d0251dec50bf299922edde433982445f1245e85a61232edc2847bd571250b521cec80843b9aca00830186a0944d5cf5032b2a844602278b01199ed191a86c93ff880de0b6b3a764000080808080f7e1e6f3cd95d27522592e8796afa8f419a066b7172e0ac3e7826705ad608c672731e14da1b190dab8c14e79e050e31da53fdb4a0e55ca48ee4faff859606d5a1b",
    "globalExitRoot": "0x090bcaf734c4f06c93954a827b45a6e8c67b8e0fd1e0a35a1c5982d6961828f9",
    "newLocalExitRoot": "0x17c04c3760510b48c6012742c540a81aba4bca2f78b9d14bfd2f123e2e53ea3e",
    "inputHash": "0x00e0e4dafaa12262d7b8bd2c4f3d1d7abfa5a7ebe7480445c0b86235b9d57f4f",
    "batchHashData": "0x489b082f5eb30e2af1eeb7eae28a978e3028ea1f2df4c7a22592363bc6fc101a",
    "localExitRoot": "0x17c04c3760510b48c6012742c540a81aba4bca2f78b9d14bfd2f123e2e53ea3e",
    "timestamp": 1944498031
  },
  {
    "id": 7,
    "description": "2 accounts and 1 valid transaction, from, to and sequencer are the same",
    "arity": 4,
    "chainIdSequencer": 1001,
    "defaultChainId": 1000,
    "sequencerAddress": "0x617b3a3528F9cDd6630fd3301B9c8911F7Bf063D",
    "genesis": [
      {
        "address": "0x617b3a3528F9cDd6630fd3301B9c8911F7Bf063D",
        "pvtKey": "0x28b2b0318721be8c8339199172cd7cc8f5e273800a35616ec893083a4b32c02e",
        "balance": "100000000000000000000",
        "nonce": "0"
      },
      {
        "address": "0x4d5Cf5032B2a844602278b01199ED191A86c93ff",
        "pvtKey": "0x4d27a600dce8c29b7bd080e29a26972377dbb04d7a27d919adbb602bf13cfd23",
        "balance": "200000000000000000000",
        "nonce": "0"
      }
    ],
    "expectedOldRoot": "4091651772388093439828475955668620102367778455436412389529460210592290187513",
    "txs": [
      {
        "id": 0,
        "from": "0x617b3a3528F9cDd6630fd3301B9c8911F7Bf063D",
        "to": "0x617b3a3528F9cDd6630fd3301B9c8911F7Bf063D",
        "nonce": 0,
        "value": "100000000000000000",
        "gasLimit": 100000,
        "gasPrice": "1000000000",
        "chainId": 1001,
        "rawTx": "0xf86e80843b9aca00830186a094617b3a3528f9cdd6630fd3301b9c8911f7bf063d88016345785d8a0000808207f6a014b2304ca08457f37c4e81284398aa9c511875e47b37b1e6877a26c53c0e7a1ca07f2ed42e23e503c446213de2ce077e5cfdc58f0a672dfc0a5d0aa7c0202098c3",
        "reason": "",
        "customRawTx": "0xee80843b9aca00830186a094617b3a3528f9cdd6630fd3301b9c8911f7bf063d88016345785d8a0000808203e9808014b2304ca08457f37c4e81284398aa9c511875e47b37b1e6877a26c53c0e7a1c7f2ed42e23e503c446213de2ce077e5cfdc58f0a672dfc0a5d0aa7c0202098c31c"
      }
    ],
    "expectedNewRoot": "7421330885082932946539017014672533246023442358092386530613815329387953628301",
    "expectedNewLeafs": {
      "0x617b3a3528F9cDd6630fd3301B9c8911F7Bf063D": {
        "balance": "100000000000000000000",
        "nonce": "1"
      },
      "0x4d5Cf5032B2a844602278b01199ED191A86c93ff": {
        "balance": "200000000000000000000",
        "nonce": "0"
      }
    },
    "batchL2Data": "0xee80843b9aca00830186a094617b3a3528f9cdd6630fd3301b9c8911f7bf063d88016345785d8a0000808203e9808014b2304ca08457f37c4e81284398aa9c511875e47b37b1e6877a26c53c0e7a1c7f2ed42e23e503c446213de2ce077e5cfdc58f0a672dfc0a5d0aa7c0202098c31c",
    "globalExitRoot": "0x090bcaf734c4f06c93954a827b45a6e8c67b8e0fd1e0a35a1c5982d6961828f9",
    "newLocalExitRoot": "0x17c04c3760510b48c6012742c540a81aba4bca2f78b9d14bfd2f123e2e53ea3e",
    "inputHash": "0x26772c9376d6cf2657742bed4b7e478fc4de25ee05b50fe411e99ac02fa01cc2",
    "batchHashData": "0x75865dd41a37de7de8dd8ab0ab2d2855b48f328ade18ad55bfef85e6bf6e4997",
    "localExitRoot": "0x17c04c3760510b48c6012742c540a81aba4bca2f78b9d14bfd2f123e2e53ea3e",
    "timestamp": 1944498031
  },
  {
    "id": 8,
    "description": "2 accounts and 2 valid transaction, sequencer is able to do the transaction because the fees are payed at the end of every tx",
    "arity": 4,
    "chainIdSequencer": 1001,
    "defaultChainId": 1000,
    "sequencerAddress": "0x617b3a3528F9cDd6630fd3301B9c8911F7Bf063D",
    "genesis": [
      {
        "address": "0x617b3a3528F9cDd6630fd3301B9c8911F7Bf063D",
        "pvtKey": "0x28b2b0318721be8c8339199172cd7cc8f5e273800a35616ec893083a4b32c02e",
        "balance": "0",
        "nonce": "0"
      },
      {
        "address": "0x4d5Cf5032B2a844602278b01199ED191A86c93ff",
        "pvtKey": "0x4d27a600dce8c29b7bd080e29a26972377dbb04d7a27d919adbb602bf13cfd23",
        "balance": "200000000000000000000",
        "nonce": "0"
      }
    ],
    "expectedOldRoot": "11936844145808929426293852725998335514486672496136805838142173944993374821783",
    "txs": [
      {
        "id": 0,
        "from": "0x4d5Cf5032B2a844602278b01199ED191A86c93ff",
        "to": "0x4d5Cf5032B2a844602278b01199ED191A86c93ff",
        "nonce": 0,
        "value": "100000000000000000",
        "gasLimit": 100000,
        "gasPrice": "47619000000000",
        "chainId": 1001,
        "rawTx": "0xf87080862b4f29945e00830186a0944d5cf5032b2a844602278b01199ed191a86c93ff88016345785d8a0000808207f6a08b562ddfd7ad2d35fd46b4305bc58e0553f765cf57410daa1eb0cb2191f4b3e9a01c5af2233ae0e79eb08e763430bee0fc1582e0452725c8e12190f26f4af286ff",
        "reason": "",
        "customRawTx": "0xf080862b4f29945e00830186a0944d5cf5032b2a844602278b01199ed191a86c93ff88016345785d8a0000808203e980808b562ddfd7ad2d35fd46b4305bc58e0553f765cf57410daa1eb0cb2191f4b3e91c5af2233ae0e79eb08e763430bee0fc1582e0452725c8e12190f26f4af286ff1c"
      },
      {
        "id": 1,
        "from": "0x617b3a3528F9cDd6630fd3301B9c8911F7Bf063D",
        "to": "0x4d5Cf5032B2a844602278b01199ED191A86c93ff",
        "nonce": 0,
        "value": "500000000000000000",
        "gasLimit": 100000,
        "gasPrice": "1000000000",
        "chainId": 1001,
        "rawTx": "0xf86e80843b9aca00830186a0944d5cf5032b2a844602278b01199ed191a86c93ff8806f05b59d3b20000808207f6a0a7ffde488efb26c894235ba05afcdf831c7cde555b10d60806b7949e0078db1ba030d23e94ce621ccd6cca286927fdb18267148bc8d4d5b5abe494fd3ac1f0316b",
        "reason": "",
        "customRawTx": "0xee80843b9aca00830186a0944d5cf5032b2a844602278b01199ed191a86c93ff8806f05b59d3b20000808203e98080a7ffde488efb26c894235ba05afcdf831c7cde555b10d60806b7949e0078db1b30d23e94ce621ccd6cca286927fdb18267148bc8d4d5b5abe494fd3ac1f0316b1c"
      }
    ],
    "expectedNewRoot": "4810148746497102938936787784614158371718100951287170824091546802014587574928",
    "expectedNewLeafs": {
      "0x617b3a3528F9cDd6630fd3301B9c8911F7Bf063D": {
        "balance": "499999000000000000",
        "nonce": "1"
      },
      "0x4d5Cf5032B2a844602278b01199ED191A86c93ff": {
        "balance": "199500001000000000000",
        "nonce": "1"
      }
    },
    "batchL2Data": "0xf080862b4f29945e00830186a0944d5cf5032b2a844602278b01199ed191a86c93ff88016345785d8a0000808203e980808b562ddfd7ad2d35fd46b4305bc58e0553f765cf57410daa1eb0cb2191f4b3e91c5af2233ae0e79eb08e763430bee0fc1582e0452725c8e12190f26f4af286ff1cee80843b9aca00830186a0944d5cf5032b2a844602278b01199ed191a86c93ff8806f05b59d3b20000808203e98080a7ffde488efb26c894235ba05afcdf831c7cde555b10d60806b7949e0078db1b30d23e94ce621ccd6cca286927fdb18267148bc8d4d5b5abe494fd3ac1f0316b1c",
    "globalExitRoot": "0x090bcaf734c4f06c93954a827b45a6e8c67b8e0fd1e0a35a1c5982d6961828f9",
    "newLocalExitRoot": "0x17c04c3760510b48c6012742c540a81aba4bca2f78b9d14bfd2f123e2e53ea3e",
    "inputHash": "0x2f181c9f04f3a7c4ef8074270fe7b3a250e134e708a7f420efa63ce09e11e3ee",
    "batchHashData": "0xbb99cacf9aa6dfb40f4aa7632df8199e9a3c90beb948da59761c430f8eb6aaaa",
    "localExitRoot": "0x17c04c3760510b48c6012742c540a81aba4bca2f78b9d14bfd2f123e2e53ea3e",
    "timestamp": 1944498031
  },
  {
    "id": 9,
    "description": "2 accounts and 4 valid transaction, 4 transactions from the same account",
    "arity": 4,
    "chainIdSequencer": 1001,
    "defaultChainId": 1000,
    "sequencerAddress": "0x4d5Cf5032B2a844602278b01199ED191A86c93ff",
    "genesis": [
      {
        "address": "0x617b3a3528F9cDd6630fd3301B9c8911F7Bf063D",
        "pvtKey": "0x28b2b0318721be8c8339199172cd7cc8f5e273800a35616ec893083a4b32c02e",
        "balance": "100000000000000000000",
        "nonce": "0"
      },
      {
        "address": "0x4d5Cf5032B2a844602278b01199ED191A86c93ff",
        "pvtKey": "0x4d27a600dce8c29b7bd080e29a26972377dbb04d7a27d919adbb602bf13cfd23",
        "balance": "200000000000000000000",
        "nonce": "0"
      }
    ],
    "expectedOldRoot": "4091651772388093439828475955668620102367778455436412389529460210592290187513",
    "txs": [
      {
        "id": 0,
        "from": "0x617b3a3528F9cDd6630fd3301B9c8911F7Bf063D",
        "to": "0x4d5Cf5032B2a844602278b01199ED191A86c93ff",
        "nonce": 0,
        "value": "100000000000000000",
        "gasLimit": 100000,
        "gasPrice": "1000000000",
        "chainId": 1001,
        "customRawTx": "0xee80843b9aca00830186a0944d5cf5032b2a844602278b01199ed191a86c93ff88016345785d8a0000808203e980801186622d03b6b8da7cf111d1ccba5bb185c56deae6a322cebc6dda0556f3cb9700910c26408b64b51c5da36ba2f38ef55ba1cee719d5a6c012259687999074321b",
        "reason": ""
      },
      {
        "id": 1,
        "from": "0x617b3a3528F9cDd6630fd3301B9c8911F7Bf063D",
        "to": "0x617b3a3528F9cDd6630fd3301B9c8911F7Bf063D",
        "nonce": 1,
        "value": "500000000000000000",
        "gasLimit": 100000,
        "gasPrice": "1000000000",
        "chainId": 1001,
        "customRawTx": "0xee01843b9aca00830186a094617b3a3528f9cdd6630fd3301b9c8911f7bf063d8806f05b59d3b20000808203e980803b9df6a5fc638613cef0d874774cadaf4629aa953878f952a9003391b42ffc3c051d639656a7e81e9b4b8cbc4f3b41118961f4043b457708f604ecbd05050d4c1b",
        "reason": ""
      },
      {
        "id": 2,
        "from": "0x617b3a3528F9cDd6630fd3301B9c8911F7Bf063D",
        "to": "0x4d5Cf5032B2a844602278b01199ED191A86c93ff",
        "nonce": 2,
        "value": "100000000000000000",
        "gasLimit": 100000,
        "gasPrice": "1000000000",
        "chainId": 1001,
        "customRawTx": "0xee02843b9aca00830186a0944d5cf5032b2a844602278b01199ed191a86c93ff88016345785d8a0000808203e980807d6892a0b642053f641a040c5ba59132983cb41af9887cf01f5b132313d68d0f3c77a17d738c8d850a27fe7276b2c73e006b0e52938d960d7b6931dff1f49c971c",
        "reason": ""
      },
      {
        "id": 3,
        "from": "0x617b3a3528F9cDd6630fd3301B9c8911F7Bf063D",
        "to": "0x617b3a3528F9cDd6630fd3301B9c8911F7Bf063D",
        "nonce": 3,
        "value": "500000000000000000",
        "gasLimit": 100000,
        "gasPrice": "1000000000",
        "chainId": 1001,
        "customRawTx": "0xee03843b9aca00830186a094617b3a3528f9cdd6630fd3301b9c8911f7bf063d8806f05b59d3b20000808203e9808086d551821ed5086f39eb5b882c8d917ceb9fb4c5167f194e1de5489fc184fc0e2bf4b980426e38d7ca6207cee47269e32d999282e94fd87bc346a5f8b3eba7eb1c",
        "reason": ""
      }
    ],
    "expectedNewRoot": "10989838167318492330744968168804654240142570205679191178200236431618152395766",
    "expectedNewLeafs": {
      "0x617b3a3528F9cDd6630fd3301B9c8911F7Bf063D": {
        "balance": "99799916000000000000",
        "nonce": "4"
      },
      "0x4d5Cf5032B2a844602278b01199ED191A86c93ff": {
        "balance": "200200084000000000000",
        "nonce": "0"
      }
    },
    "batchL2Data": "0xee80843b9aca00830186a0944d5cf5032b2a844602278b01199ed191a86c93ff88016345785d8a0000808203e980801186622d03b6b8da7cf111d1ccba5bb185c56deae6a322cebc6dda0556f3cb9700910c26408b64b51c5da36ba2f38ef55ba1cee719d5a6c012259687999074321bee01843b9aca00830186a094617b3a3528f9cdd6630fd3301b9c8911f7bf063d8806f05b59d3b20000808203e980803b9df6a5fc638613cef0d874774cadaf4629aa953878f952a9003391b42ffc3c051d639656a7e81e9b4b8cbc4f3b41118961f4043b457708f604ecbd05050d4c1bee02843b9aca00830186a0944d5cf5032b2a844602278b01199ed191a86c93ff88016345785d8a0000808203e980807d6892a0b642053f641a040c5ba59132983cb41af9887cf01f5b132313d68d0f3c77a17d738c8d850a27fe7276b2c73e006b0e52938d960d7b6931dff1f49c971cee03843b9aca00830186a094617b3a3528f9cdd6630fd3301b9c8911f7bf063d8806f05b59d3b20000808203e9808086d551821ed5086f39eb5b882c8d917ceb9fb4c5167f194e1de5489fc184fc0e2bf4b980426e38d7ca6207cee47269e32d999282e94fd87bc346a5f8b3eba7eb1c",
    "globalExitRoot": "0x090bcaf734c4f06c93954a827b45a6e8c67b8e0fd1e0a35a1c5982d6961828f9",
    "newLocalExitRoot": "0x17c04c3760510b48c6012742c540a81aba4bca2f78b9d14bfd2f123e2e53ea3e",
    "inputHash": "0x143531bc9708cb86e4f1d4e74a14b5b8fc66778c134fd1eac36804fd19090db6",
    "batchHashData": "0x46e3259cc8dc82510414bbf81c1731414f4ef90a039cdfbd6c2201c9e035ff8e",
    "localExitRoot": "0x17c04c3760510b48c6012742c540a81aba4bca2f78b9d14bfd2f123e2e53ea3e",
    "timestamp": 1944498031
  }
]