[
  {
    "id": 0,
    "description": "2 accounts. 1 valid transaction. 1 invalid transaction (lower nonce)",
    "arity": 4,
    "chainIdSequencer": 1001,
    "defaultChainId": 1000,
    "sequencerAddress": "0x617b3a3528F9cDd6630fd3301B9c8911F7Bf063D",
    "sequencerPvtKey": "0x28b2b0318721be8c8339199172cd7cc8f5e273800a35616ec893083a4b32c02e",
    "genesis": [
      {
        "address": "0x617b3a3528F9cDd6630fd3301B9c8911F7Bf063D",
        "nonce": "0",
        "balance": "100000000000000000000",
        "pvtKey": "0x28b2b0318721be8c8339199172cd7cc8f5e273800a35616ec893083a4b32c02e"
      },
      {
        "address": "0x4d5Cf5032B2a844602278b01199ED191A86c93ff",
        "nonce": "0",
        "balance": "200000000000000000000",
        "pvtKey": "0x4d27a600dce8c29b7bd080e29a26972377dbb04d7a27d919adbb602bf13cfd23"
      }
    ],
    "expectedOldRoot": "0x9794250a6924d7da41d5ea2fda8fcfd3bb8249ffc9ba94624e439e88baaac13b",
    "txs": [
      {
        "id": 0,
        "from": "0x617b3a3528F9cDd6630fd3301B9c8911F7Bf063D",
        "to": "0x4d5Cf5032B2a844602278b01199ED191A86c93ff",
        "nonce": 0,
        "value": "100000000000000000",
        "gasLimit": 100000,
        "gasPrice": "1000000000",
        "chainId": 1001,
        "rawTx": "0xf86d80843b9aca00830186a0944d5cf5032b2a844602278b01199ed191a86c93ff88016345785d8a0000808207f5a01186622d03b6b8da7cf111d1ccba5bb185c56deae6a322cebc6dda0556f3cb979f910c26408b64b51c5da36ba2f38ef55ba1cee719d5a6c01225968799907432",
        "customRawTx": "0xee80843b9aca00830186a0944d5cf5032b2a844602278b01199ed191a86c93ff88016345785d8a0000808203e980801186622d03b6b8da7cf111d1ccba5bb185c56deae6a322cebc6dda0556f3cb9700910c26408b64b51c5da36ba2f38ef55ba1cee719d5a6c012259687999074321b",
        "reason": ""
      },
      {
        "id": 1,
        "from": "0x617b3a3528F9cDd6630fd3301B9c8911F7Bf063D",
        "to": "0x4d5Cf5032B2a844602278b01199ED191A86c93ff",
        "nonce": 0,
        "value": "100000000000000000",
        "gasLimit": 100000,
        "gasPrice": "1000000000",
        "chainId": 1001,
        "rawTx": "0xf86d80843b9aca00830186a0944d5cf5032b2a844602278b01199ed191a86c93ff88016345785d8a0000808207f5a01186622d03b6b8da7cf111d1ccba5bb185c56deae6a322cebc6dda0556f3cb979f910c26408b64b51c5da36ba2f38ef55ba1cee719d5a6c01225968799907432",
        "customRawTx": "0xee80843b9aca00830186a0944d5cf5032b2a844602278b01199ed191a86c93ff88016345785d8a0000808203e980801186622d03b6b8da7cf111d1ccba5bb185c56deae6a322cebc6dda0556f3cb9700910c26408b64b51c5da36ba2f38ef55ba1cee719d5a6c012259687999074321b",
        "reason": "TX INVALID: Invalid nonce"
      }
    ],
    "expectedNewRoot": "0x233b53c98ba14bd95f362ceaace6bde63ee22920ff2ab0638f66472037186420",
    "expectedNewLeafs": {
      "0x617b3a3528F9cDd6630fd3301B9c8911F7Bf063D": {
        "balance": "99900000000000000000",
        "nonce": "1"
      },
      "0x4d5Cf5032B2a844602278b01199ED191A86c93ff": {
        "balance": "200100000000000000000",
        "nonce": "0"
      }
    },
    "batchL2Data": "0xee80843b9aca00830186a0944d5cf5032b2a844602278b01199ed191a86c93ff88016345785d8a0000808203e980801186622d03b6b8da7cf111d1ccba5bb185c56deae6a322cebc6dda0556f3cb9700910c26408b64b51c5da36ba2f38ef55ba1cee719d5a6c012259687999074321bee80843b9aca00830186a0944d5cf5032b2a844602278b01199ed191a86c93ff88016345785d8a0000808203e980801186622d03b6b8da7cf111d1ccba5bb185c56deae6a322cebc6dda0556f3cb9700910c26408b64b51c5da36ba2f38ef55ba1cee719d5a6c012259687999074321b",
    "globalExitRoot": "0x090bcaf734c4f06c93954a827b45a6e8c67b8e0fd1e0a35a1c5982d6961828f9",
    "newLocalExitRoot": "0x17c04c3760510b48c6012742c540a81aba4bca2f78b9d14bfd2f123e2e53ea3e",
    "inputHash": "0x84e80884b0e81d53a0e3516b123d70d3d0b74402cbddc21f0c312deafa0db83f",
    "batchHashData": "0x9ffc0ea6d659bee0f261cf4a27c8e2a2d6c0a321c91ef79a20470ee2d3a5067f",
    "localExitRoot": "0x17c04c3760510b48c6012742c540a81aba4bca2f78b9d14bfd2f123e2e53ea3e",
    "timestamp": 1944498031
  },
  {
    "id": 1,
    "description": "2 accounts. 1 valid transaction. 1 invalid transaction (bigger nonce)",
    "arity": 4,
    "chainIdSequencer": 1001,
    "defaultChainId": 1000,
    "sequencerAddress": "0x617b3a3528F9cDd6630fd3301B9c8911F7Bf063D",
    "sequencerPvtKey": "0x28b2b0318721be8c8339199172cd7cc8f5e273800a35616ec893083a4b32c02e",
    "genesis": [
      {
        "address": "0x617b3a3528F9cDd6630fd3301B9c8911F7Bf063D",
        "nonce": "0",
        "balance": "100000000000000000000",
        "pvtKey": "0x28b2b0318721be8c8339199172cd7cc8f5e273800a35616ec893083a4b32c02e"
      },
      {
        "address": "0x4d5Cf5032B2a844602278b01199ED191A86c93ff",
        "nonce": "0",
        "balance": "200000000000000000000",
        "pvtKey": "0x4d27a600dce8c29b7bd080e29a26972377dbb04d7a27d919adbb602bf13cfd23"
      }
    ],
    "expectedOldRoot": "0x9794250a6924d7da41d5ea2fda8fcfd3bb8249ffc9ba94624e439e88baaac13b",
    "txs": [
      {
        "id": 0,
        "from": "0x617b3a3528F9cDd6630fd3301B9c8911F7Bf063D",
        "to": "0x4d5Cf5032B2a844602278b01199ED191A86c93ff",
        "nonce": 0,
        "value": "100000000000000000",
        "gasLimit": 100000,
        "gasPrice": "1000000000",
        "chainId": 1001,
        "rawTx": "0xf86d80843b9aca00830186a0944d5cf5032b2a844602278b01199ed191a86c93ff88016345785d8a0000808207f5a01186622d03b6b8da7cf111d1ccba5bb185c56deae6a322cebc6dda0556f3cb979f910c26408b64b51c5da36ba2f38ef55ba1cee719d5a6c01225968799907432",
        "customRawTx": "0xee80843b9aca00830186a0944d5cf5032b2a844602278b01199ed191a86c93ff88016345785d8a0000808203e980801186622d03b6b8da7cf111d1ccba5bb185c56deae6a322cebc6dda0556f3cb9700910c26408b64b51c5da36ba2f38ef55ba1cee719d5a6c012259687999074321b",
        "reason": ""
      },
      {
        "id": 1,
        "from": "0x617b3a3528F9cDd6630fd3301B9c8911F7Bf063D",
        "to": "0x4d5Cf5032B2a844602278b01199ED191A86c93ff",
        "nonce": 2,
        "value": "100000000000000000",
        "gasLimit": 100000,
        "gasPrice": "1000000000",
        "chainId": 1001,
        "rawTx": "0xf86e02843b9aca00830186a0944d5cf5032b2a844602278b01199ed191a86c93ff88016345785d8a0000808207f6a07d6892a0b642053f641a040c5ba59132983cb41af9887cf01f5b132313d68d0fa03c77a17d738c8d850a27fe7276b2c73e006b0e52938d960d7b6931dff1f49c97",
        "customRawTx": "0xee02843b9aca00830186a0944d5cf5032b2a844602278b01199ed191a86c93ff88016345785d8a0000808203e980807d6892a0b642053f641a040c5ba59132983cb41af9887cf01f5b132313d68d0f3c77a17d738c8d850a27fe7276b2c73e006b0e52938d960d7b6931dff1f49c971c",
        "reason": "TX INVALID: Invalid nonce"
      }
    ],
    "expectedNewRoot": "0x233b53c98ba14bd95f362ceaace6bde63ee22920ff2ab0638f66472037186420",
    "expectedNewLeafs": {
      "0x617b3a3528F9cDd6630fd3301B9c8911F7Bf063D": {
        "balance": "99900000000000000000",
        "nonce": "1"
      },
      "0x4d5Cf5032B2a844602278b01199ED191A86c93ff": {
        "balance": "200100000000000000000",
        "nonce": "0"
      }
    },
    "batchL2Data": "0xee80843b9aca00830186a0944d5cf5032b2a844602278b01199ed191a86c93ff88016345785d8a0000808203e980801186622d03b6b8da7cf111d1ccba5bb185c56deae6a322cebc6dda0556f3cb9700910c26408b64b51c5da36ba2f38ef55ba1cee719d5a6c012259687999074321bee02843b9aca00830186a0944d5cf5032b2a844602278b01199ed191a86c93ff88016345785d8a0000808203e980807d6892a0b642053f641a040c5ba59132983cb41af9887cf01f5b132313d68d0f3c77a17d738c8d850a27fe7276b2c73e006b0e52938d960d7b6931dff1f49c971c",
    "globalExitRoot": "0x090bcaf734c4f06c93954a827b45a6e8c67b8e0fd1e0a35a1c5982d6961828f9",
    "newLocalExitRoot": "0x17c04c3760510b48c6012742c540a81aba4bca2f78b9d14bfd2f123e2e53ea3e",
    "inputHash": "0x39d99c0851bd14c3db15044db7e615a260af14e20aa41eb729d3ef8d5a5d10f6",
    "batchHashData": "0x9031fd9e27676abfc285d331bb91b7ea1bf19d2de3a6eb3e76f0cfb7c5849ebb",
    "localExitRoot": "0x17c04c3760510b48c6012742c540a81aba4bca2f78b9d14bfd2f123e2e53ea3e",
    "timestamp": 1944498031
  },
  {
    "id": 2,
    "description": "2 accounts. 1 valid transaction. 1 invalid transaction (lower nonce). 1 invalid transaction (bigger nonce). 1 valid transaction",
    "arity": 4,
    "chainIdSequencer": 1001,
    "defaultChainId": 1000,
    "sequencerAddress": "0x617b3a3528F9cDd6630fd3301B9c8911F7Bf063D",
    "sequencerPvtKey": "0x28b2b0318721be8c8339199172cd7cc8f5e273800a35616ec893083a4b32c02e",
    "genesis": [
      {
        "address": "0x617b3a3528F9cDd6630fd3301B9c8911F7Bf063D",
        "nonce": "0",
        "balance": "100000000000000000000",
        "pvtKey": "0x28b2b0318721be8c8339199172cd7cc8f5e273800a35616ec893083a4b32c02e"
      },
      {
        "address": "0x4d5Cf5032B2a844602278b01199ED191A86c93ff",
        "nonce": "0",
        "balance": "200000000000000000000",
        "pvtKey": "0x4d27a600dce8c29b7bd080e29a26972377dbb04d7a27d919adbb602bf13cfd23"
      }
    ],
    "expectedOldRoot": "0x9794250a6924d7da41d5ea2fda8fcfd3bb8249ffc9ba94624e439e88baaac13b",
    "txs": [
      {
        "id": 0,
        "from": "0x617b3a3528F9cDd6630fd3301B9c8911F7Bf063D",
        "to": "0x4d5Cf5032B2a844602278b01199ED191A86c93ff",
        "nonce": 0,
        "value": "100000000000000000",
        "gasLimit": 100000,
        "gasPrice": "1000000000",
        "chainId": 1001,
        "rawTx": "0xf86d80843b9aca00830186a0944d5cf5032b2a844602278b01199ed191a86c93ff88016345785d8a0000808207f5a01186622d03b6b8da7cf111d1ccba5bb185c56deae6a322cebc6dda0556f3cb979f910c26408b64b51c5da36ba2f38ef55ba1cee719d5a6c01225968799907432",
        "customRawTx": "0xee80843b9aca00830186a0944d5cf5032b2a844602278b01199ed191a86c93ff88016345785d8a0000808203e980801186622d03b6b8da7cf111d1ccba5bb185c56deae6a322cebc6dda0556f3cb9700910c26408b64b51c5da36ba2f38ef55ba1cee719d5a6c012259687999074321b",
        "reason": ""
      },
      {
        "id": 1,
        "from": "0x617b3a3528F9cDd6630fd3301B9c8911F7Bf063D",
        "to": "0x4d5Cf5032B2a844602278b01199ED191A86c93ff",
        "nonce": 0,
        "value": "100000000000000000",
        "gasLimit": 100000,
        "gasPrice": "1000000000",
        "chainId": 1001,
        "rawTx": "0xf86d80843b9aca00830186a0944d5cf5032b2a844602278b01199ed191a86c93ff88016345785d8a0000808207f5a01186622d03b6b8da7cf111d1ccba5bb185c56deae6a322cebc6dda0556f3cb979f910c26408b64b51c5da36ba2f38ef55ba1cee719d5a6c01225968799907432",
        "customRawTx": "0xee80843b9aca00830186a0944d5cf5032b2a844602278b01199ed191a86c93ff88016345785d8a0000808203e980801186622d03b6b8da7cf111d1ccba5bb185c56deae6a322cebc6dda0556f3cb9700910c26408b64b51c5da36ba2f38ef55ba1cee719d5a6c012259687999074321b",
        "reason": "TX INVALID: Invalid nonce"
      },
      {
        "id": 2,
        "from": "0x617b3a3528F9cDd6630fd3301B9c8911F7Bf063D",
        "to": "0x4d5Cf5032B2a844602278b01199ED191A86c93ff",
        "nonce": 2,
        "value": "100000000000000000",
        "gasLimit": 100000,
        "gasPrice": "1000000000",
        "chainId": 1001,
        "rawTx": "0xf86e02843b9aca00830186a0944d5cf5032b2a844602278b01199ed191a86c93ff88016345785d8a0000808207f6a07d6892a0b642053f641a040c5ba59132983cb41af9887cf01f5b132313d68d0fa03c77a17d738c8d850a27fe7276b2c73e006b0e52938d960d7b6931dff1f49c97",
        "customRawTx": "0xee02843b9aca00830186a0944d5cf5032b2a844602278b01199ed191a86c93ff88016345785d8a0000808203e980807d6892a0b642053f641a040c5ba59132983cb41af9887cf01f5b132313d68d0f3c77a17d738c8d850a27fe7276b2c73e006b0e52938d960d7b6931dff1f49c971c",
        "reason": "TX INVALID: Invalid nonce"
      },
      {
        "id": 3,
        "from": "0x617b3a3528F9cDd6630fd3301B9c8911F7Bf063D",
        "to": "0x4d5Cf5032B2a844602278b01199ED191A86c93ff",
        "nonce": 1,
        "value": "100000000000000000",
        "gasLimit": 100000,
        "gasPrice": "1000000000",
        "chainId": 1001,
        "rawTx": "0xf86e01843b9aca00830186a0944d5cf5032b2a844602278b01199ed191a86c93ff88016345785d8a0000808207f6a0b09a953b4dccf40c7333ed1a1df6fda10a18d01d7c4320b05f7680b34837b3bda0421af00d0c99bb1b4d346d99f3634f46fba700dbc57908d3bfa647cbfbcb81a3",
        "customRawTx": "0xee01843b9aca00830186a0944d5cf5032b2a844602278b01199ed191a86c93ff88016345785d8a0000808203e98080b09a953b4dccf40c7333ed1a1df6fda10a18d01d7c4320b05f7680b34837b3bd421af00d0c99bb1b4d346d99f3634f46fba700dbc57908d3bfa647cbfbcb81a31c",
        "reason": ""
      }
    ],
    "expectedNewRoot": "0x128d33979a4413fb027a640e9d922d79fb20f1ed03db57f99420853550517175",
    "expectedNewLeafs": {
      "0x617b3a3528F9cDd6630fd3301B9c8911F7Bf063D": {
        "balance": "99800000000000000000",
        "nonce": "2"
      },
      "0x4d5Cf5032B2a844602278b01199ED191A86c93ff": {
        "balance": "200200000000000000000",
        "nonce": "0"
      }
    },
    "batchL2Data": "0xee80843b9aca00830186a0944d5cf5032b2a844602278b01199ed191a86c93ff88016345785d8a0000808203e980801186622d03b6b8da7cf111d1ccba5bb185c56deae6a322cebc6dda0556f3cb9700910c26408b64b51c5da36ba2f38ef55ba1cee719d5a6c012259687999074321bee80843b9aca00830186a0944d5cf5032b2a844602278b01199ed191a86c93ff88016345785d8a0000808203e980801186622d03b6b8da7cf111d1ccba5bb185c56deae6a322cebc6dda0556f3cb9700910c26408b64b51c5da36ba2f38ef55ba1cee719d5a6c012259687999074321bee02843b9aca00830186a0944d5cf5032b2a844602278b01199ed191a86c93ff88016345785d8a0000808203e980807d6892a0b642053f641a040c5ba59132983cb41af9887cf01f5b132313d68d0f3c77a17d738c8d850a27fe7276b2c73e006b0e52938d960d7b6931dff1f49c971cee01843b9aca00830186a0944d5cf5032b2a844602278b01199ed191a86c93ff88016345785d8a0000808203e98080b09a953b4dccf40c7333ed1a1df6fda10a18d01d7c4320b05f7680b34837b3bd421af00d0c99bb1b4d346d99f3634f46fba700dbc57908d3bfa647cbfbcb81a31c",
    "globalExitRoot": "0x090bcaf734c4f06c93954a827b45a6e8c67b8e0fd1e0a35a1c5982d6961828f9",
    "newLocalExitRoot": "0x17c04c3760510b48c6012742c540a81aba4bca2f78b9d14bfd2f123e2e53ea3e",
    "inputHash": "0x7f4b5bfc87c60d48e9a5ab8b307e37bf11bb1e6f188d6d4c3710bfb0d9587667",
    "batchHashData": "0x85b08c68a445b253fe16e7e7d66b4c42c88e8a5c158e8f167a020332155219c8",
    "localExitRoot": "0x17c04c3760510b48c6012742c540a81aba4bca2f78b9d14bfd2f123e2e53ea3e",
    "timestamp": 1944498031
  }
]