[
    {
        "id": 0,
        "description": "2 accounts and 1 valid transaction (chainIdSequencer).",
        "arity": 4,
        "chainIdSequencer": 1001,
        "defaultChainId": 1000,
        "sequencerAddress": "0x617b3a3528F9cDd6630fd3301B9c8911F7Bf063D",
        "sequencerPvtKey": "0x28b2b0318721be8c8339199172cd7cc8f5e273800a35616ec893083a4b32c02e",
        "genesis": [
            {
                "address": "0x617b3a3528F9cDd6630fd3301B9c8911F7Bf063D",
                "pvtKey": "0x28b2b0318721be8c8339199172cd7cc8f5e273800a35616ec893083a4b32c02e",
                "balance": "100000000000000000000",
                "nonce": "0"
            },
            {
                "address": "0x4d5Cf5032B2a844602278b01199ED191A86c93ff",
                "pvtKey": "0x4d27a600dce8c29b7bd080e29a26972377dbb04d7a27d919adbb602bf13cfd23",
                "balance": "200000000000000000000",
                "nonce": "0"
            }
        ],
        "expectedOldRoot": "4091651772388093439828475955668620102367778455436412389529460210592290187513",
        "txs": [
            {
                "id" : 0,
                "from": "0x617b3a3528F9cDd6630fd3301B9c8911F7Bf063D",
                "to": "0x4d5Cf5032B2a844602278b01199ED191A86c93ff",
                "nonce": 0,
                "value": "100000000000000000",
                "gasLimit": 100000,
                "gasPrice": "1000000000",
                "chainId": 1001,
                "rawTx": "0xf86d80843b9aca00830186a0944d5cf5032b2a844602278b01199ed191a86c93ff88016345785d8a0000808207f5a01186622d03b6b8da7cf111d1ccba5bb185c56deae6a322cebc6dda0556f3cb979f910c26408b64b51c5da36ba2f38ef55ba1cee719d5a6c01225968799907432"
            }
        ],
        "expectedNewRoot": "16839349720732534632663634369605785751289107377345624633588697492886148997782",
        "expectedNewLeafs": {
            "0x617b3a3528F9cDd6630fd3301B9c8911F7Bf063D": {
                "balance": "99900000000000000000",
                "nonce": "1"
            },
            "0x4d5Cf5032B2a844602278b01199ED191A86c93ff": {
                "balance": "200100000000000000000",
                "nonce": "0"
            }
        }
    },
    {
        "id": 1,
        "description": "2 accounts and 2 valid transaction. (1 chainIdSequencer, 1 defaultChainId)",
        "arity": 4,
        "chainIdSequencer": 1001,
        "defaultChainId": 1000,
        "sequencerAddress": "0x617b3a3528F9cDd6630fd3301B9c8911F7Bf063D",
        "sequencerPvtKey": "0x28b2b0318721be8c8339199172cd7cc8f5e273800a35616ec893083a4b32c02e",
        "genesis": [
            {
                "address": "0x617b3a3528F9cDd6630fd3301B9c8911F7Bf063D",
                "pvtKey": "0x28b2b0318721be8c8339199172cd7cc8f5e273800a35616ec893083a4b32c02e",
                "balance": "100000000000000000000",
                "nonce": "0"
            },
            {
                "address": "0x4d5Cf5032B2a844602278b01199ED191A86c93ff",
                "pvtKey": "0x4d27a600dce8c29b7bd080e29a26972377dbb04d7a27d919adbb602bf13cfd23",
                "balance": "200000000000000000000",
                "nonce": "0"
            }
        ],
        "expectedOldRoot": "4091651772388093439828475955668620102367778455436412389529460210592290187513",
        "txs": [
            {
                "id" : 0,
                "from": "0x617b3a3528F9cDd6630fd3301B9c8911F7Bf063D",
                "to": "0x4d5Cf5032B2a844602278b01199ED191A86c93ff",
                "nonce": 0,
                "value": "100000000000000000",
                "gasLimit": 100000,
                "gasPrice": "1000000000",
                "chainId": 1001,
                "rawTx": "0xf86d80843b9aca00830186a0944d5cf5032b2a844602278b01199ed191a86c93ff88016345785d8a0000808207f5a01186622d03b6b8da7cf111d1ccba5bb185c56deae6a322cebc6dda0556f3cb979f910c26408b64b51c5da36ba2f38ef55ba1cee719d5a6c01225968799907432"
            },
            {
                "id" : 1,
                "from": "0x617b3a3528F9cDd6630fd3301B9c8911F7Bf063D",
                "to": "0x4d5Cf5032B2a844602278b01199ED191A86c93ff",
                "nonce": 1,
                "value": "100000000000000000",
                "gasLimit": 100000,
                "gasPrice": "1000000000",
                "chainId": 1000,
                "rawTx": "0xf86e01843b9aca00830186a0944d5cf5032b2a844602278b01199ed191a86c93ff88016345785d8a0000808207f4a03ee20a0764440b016c4a2ee4e7e4eb3a5a97f1e6a6c9f40bf5ecf50f95ff636da063878ddb3e997e519826c7bb26fb7c5950a208e1ec722a9f1c568c4e479b4034"
            }
        ],
        "expectedNewRoot": "14808987698230955071921318994993000815765608643941547189311400032352127416240",
        "expectedNewLeafs": {
            "0x617b3a3528F9cDd6630fd3301B9c8911F7Bf063D": {
                "balance": "99800000000000000000",
                "nonce": "2"
            },
            "0x4d5Cf5032B2a844602278b01199ED191A86c93ff": {
                "balance": "200200000000000000000",
                "nonce": "0"
            }
        }
    },
    {
        "id": 2,
        "description": "2 accounts. 1 valid transaction (chainIdSequencer). 1 invalid (invalid chainId).",
        "arity": 4,
        "chainIdSequencer": 1001,
        "defaultChainId": 1000,
        "sequencerAddress": "0x617b3a3528F9cDd6630fd3301B9c8911F7Bf063D",
        "sequencerPvtKey": "0x28b2b0318721be8c8339199172cd7cc8f5e273800a35616ec893083a4b32c02e",
        "genesis": [
            {
                "address": "0x617b3a3528F9cDd6630fd3301B9c8911F7Bf063D",
                "pvtKey": "0x28b2b0318721be8c8339199172cd7cc8f5e273800a35616ec893083a4b32c02e",
                "balance": "100000000000000000000",
                "nonce": "0"
            },
            {
                "address": "0x4d5Cf5032B2a844602278b01199ED191A86c93ff",
                "pvtKey": "0x4d27a600dce8c29b7bd080e29a26972377dbb04d7a27d919adbb602bf13cfd23",
                "balance": "200000000000000000000",
                "nonce": "0"
            }
        ],
        "expectedOldRoot": "4091651772388093439828475955668620102367778455436412389529460210592290187513",
        "txs": [
            {
                "id" : 0,
                "from": "0x617b3a3528F9cDd6630fd3301B9c8911F7Bf063D",
                "to": "0x4d5Cf5032B2a844602278b01199ED191A86c93ff",
                "nonce": 0,
                "value": "100000000000000000",
                "gasLimit": 100000,
                "gasPrice": "1000000000",
                "chainId": 1001,
                "rawTx": "0xf86d80843b9aca00830186a0944d5cf5032b2a844602278b01199ed191a86c93ff88016345785d8a0000808207f5a01186622d03b6b8da7cf111d1ccba5bb185c56deae6a322cebc6dda0556f3cb979f910c26408b64b51c5da36ba2f38ef55ba1cee719d5a6c01225968799907432"
            },
            {
                "id" : 1,
                "from": "0x617b3a3528F9cDd6630fd3301B9c8911F7Bf063D",
                "to": "0x4d5Cf5032B2a844602278b01199ED191A86c93ff",
                "nonce": 1,
                "value": "100000000000000000",
                "gasLimit": 100000,
                "gasPrice": "1000000000",
                "chainId": 4,
                "rawTx": "0xf86c01843b9aca00830186a0944d5cf5032b2a844602278b01199ed191a86c93ff88016345785d8a0000802ca0ac20136cfb02cecc8996d76f1f3c268ddcd926e805bf0ec23ff8fe1dee31e48aa05c4cd07d11427350f2f312f0d0b6bd020196b656a6bc24fb70d26aed2e2b27d6"
            }
        ],
        "expectedNewRoot": "16839349720732534632663634369605785751289107377345624633588697492886148997782",
        "expectedNewLeafs": {
            "0x617b3a3528F9cDd6630fd3301B9c8911F7Bf063D": {
                "balance": "99900000000000000000",
                "nonce": "1"
            },
            "0x4d5Cf5032B2a844602278b01199ED191A86c93ff": {
                "balance": "200100000000000000000",
                "nonce": "0"
            }
        }
    },
    {
        "id": 3,
        "description": "2 accounts. 1 valid transaction (chainIdSequencer). 1 invalid (invalid chainId). 1 valid transaction (defaultChainId).",
        "arity": 4,
        "chainIdSequencer": 1001,
        "defaultChainId": 1000,
        "sequencerAddress": "0x617b3a3528F9cDd6630fd3301B9c8911F7Bf063D",
        "sequencerPvtKey": "0x28b2b0318721be8c8339199172cd7cc8f5e273800a35616ec893083a4b32c02e",
        "genesis": [
            {
                "address": "0x617b3a3528F9cDd6630fd3301B9c8911F7Bf063D",
                "pvtKey": "0x28b2b0318721be8c8339199172cd7cc8f5e273800a35616ec893083a4b32c02e",
                "balance": "100000000000000000000",
                "nonce": "0"
            },
            {
                "address": "0x4d5Cf5032B2a844602278b01199ED191A86c93ff",
                "pvtKey": "0x4d27a600dce8c29b7bd080e29a26972377dbb04d7a27d919adbb602bf13cfd23",
                "balance": "200000000000000000000",
                "nonce": "0"
            }
        ],
        "expectedOldRoot": "4091651772388093439828475955668620102367778455436412389529460210592290187513",
        "txs": [
            {
                "id" : 0,
                "from": "0x617b3a3528F9cDd6630fd3301B9c8911F7Bf063D",
                "to": "0x4d5Cf5032B2a844602278b01199ED191A86c93ff",
                "nonce": 0,
                "value": "100000000000000000",
                "gasLimit": 100000,
                "gasPrice": "1000000000",
                "chainId": 1001,
                "rawTx": "0xf86d80843b9aca00830186a0944d5cf5032b2a844602278b01199ed191a86c93ff88016345785d8a0000808207f5a01186622d03b6b8da7cf111d1ccba5bb185c56deae6a322cebc6dda0556f3cb979f910c26408b64b51c5da36ba2f38ef55ba1cee719d5a6c01225968799907432"
            },
            {
                "id" : 1,
                "from": "0x617b3a3528F9cDd6630fd3301B9c8911F7Bf063D",
                "to": "0x4d5Cf5032B2a844602278b01199ED191A86c93ff",
                "nonce": 1,
                "value": "100000000000000000",
                "gasLimit": 100000,
                "gasPrice": "1000000000",
                "chainId": 4,
                "rawTx": "0xf86c01843b9aca00830186a0944d5cf5032b2a844602278b01199ed191a86c93ff88016345785d8a0000802ca0ac20136cfb02cecc8996d76f1f3c268ddcd926e805bf0ec23ff8fe1dee31e48aa05c4cd07d11427350f2f312f0d0b6bd020196b656a6bc24fb70d26aed2e2b27d6"
            },
            {
                "id" : 2,
                "from": "0x617b3a3528F9cDd6630fd3301B9c8911F7Bf063D",
                "to": "0x4d5Cf5032B2a844602278b01199ED191A86c93ff",
                "nonce": 1,
                "value": "100000000000000000",
                "gasLimit": 100000,
                "gasPrice": "1000000000",
                "chainId": 1000,
                "rawTx": "0xf86e01843b9aca00830186a0944d5cf5032b2a844602278b01199ed191a86c93ff88016345785d8a0000808207f4a03ee20a0764440b016c4a2ee4e7e4eb3a5a97f1e6a6c9f40bf5ecf50f95ff636da063878ddb3e997e519826c7bb26fb7c5950a208e1ec722a9f1c568c4e479b4034"
            }
        ],
        "expectedNewRoot": "14808987698230955071921318994993000815765608643941547189311400032352127416240",
        "expectedNewLeafs": {
            "0x617b3a3528F9cDd6630fd3301B9c8911F7Bf063D": {
                "balance": "99800000000000000000",
                "nonce": "2"
            },
            "0x4d5Cf5032B2a844602278b01199ED191A86c93ff": {
                "balance": "200200000000000000000",
                "nonce": "0"
            }
        }
    }
]