[
    {
        "id": 0,
        "description": "2 accounts and 1 valid transaction.",
        "arity": 4,
        "chainIdSequencer": 1001,
        "defaultChainId": 1000,
        "sequencerAddress": "0x617b3a3528F9cDd6630fd3301B9c8911F7Bf063D",
        "sequencerPvtKey": "0x28b2b0318721be8c8339199172cd7cc8f5e273800a35616ec893083a4b32c02e",
        "genesis": [
            {
                "address": "0x617b3a3528F9cDd6630fd3301B9c8911F7Bf063D",
                "pvtKey": "0x28b2b0318721be8c8339199172cd7cc8f5e273800a35616ec893083a4b32c02e",
                "balance": "100000000000000000000",
                "nonce": "0"
            },
            {
                "address": "0x4d5Cf5032B2a844602278b01199ED191A86c93ff",
                "pvtKey": "0x4d27a600dce8c29b7bd080e29a26972377dbb04d7a27d919adbb602bf13cfd23",
                "balance": "200000000000000000000",
                "nonce": "0"
            }
        ],
        "expectedOldRoot": "4091651772388093439828475955668620102367778455436412389529460210592290187513",
        "txs": [
            {
                "id" : 0,
                "from": "0x617b3a3528F9cDd6630fd3301B9c8911F7Bf063D",
                "to": "0x4d5Cf5032B2a844602278b01199ED191A86c93ff",
                "nonce": 0,
                "value": "100000000000000000",
                "gasLimit": 100000,
                "gasPrice": "1000000000",
                "chainId": 1001,
                "rawTx": "0xf86d80843b9aca00830186a0944d5cf5032b2a844602278b01199ed191a86c93ff88016345785d8a0000808207f5a01186622d03b6b8da7cf111d1ccba5bb185c56deae6a322cebc6dda0556f3cb979f910c26408b64b51c5da36ba2f38ef55ba1cee719d5a6c01225968799907432"
            }
        ],
        "expectedNewRoot": "16839349720732534632663634369605785751289107377345624633588697492886148997782",
        "expectedNewLeafs": {
            "0x617b3a3528F9cDd6630fd3301B9c8911F7Bf063D": {
                "balance": "99900000000000000000",
                "nonce": "1"
            },
            "0x4d5Cf5032B2a844602278b01199ED191A86c93ff": {
                "balance": "200100000000000000000",
                "nonce": "0"
            }
        }
    },
    {
        "id": 1,
        "description": "2 accounts. 1 valid transaction. 1 invalid transaction (lower nonce)",
        "arity": 4,
        "chainIdSequencer": 1001,
        "defaultChainId": 1000,
        "sequencerAddress": "0x617b3a3528F9cDd6630fd3301B9c8911F7Bf063D",
        "sequencerPvtKey": "0x28b2b0318721be8c8339199172cd7cc8f5e273800a35616ec893083a4b32c02e",
        "genesis": [
            {
                "address": "0x617b3a3528F9cDd6630fd3301B9c8911F7Bf063D",
                "pvtKey": "0x28b2b0318721be8c8339199172cd7cc8f5e273800a35616ec893083a4b32c02e",
                "balance": "100000000000000000000",
                "nonce": "0"
            },
            {
                "address": "0x4d5Cf5032B2a844602278b01199ED191A86c93ff",
                "pvtKey": "0x4d27a600dce8c29b7bd080e29a26972377dbb04d7a27d919adbb602bf13cfd23",
                "balance": "200000000000000000000",
                "nonce": "0"
            }
        ],
        "expectedOldRoot": "4091651772388093439828475955668620102367778455436412389529460210592290187513",
        "txs": [
            {
                "id" : 0,
                "from": "0x617b3a3528F9cDd6630fd3301B9c8911F7Bf063D",
                "to": "0x4d5Cf5032B2a844602278b01199ED191A86c93ff",
                "nonce": 0,
                "value": "100000000000000000",
                "gasLimit": 100000,
                "gasPrice": "1000000000",
                "chainId": 1001,
                "rawTx": "0xf86d80843b9aca00830186a0944d5cf5032b2a844602278b01199ed191a86c93ff88016345785d8a0000808207f5a01186622d03b6b8da7cf111d1ccba5bb185c56deae6a322cebc6dda0556f3cb979f910c26408b64b51c5da36ba2f38ef55ba1cee719d5a6c01225968799907432"
            },
            {
                "id" : 1,
                "from": "0x617b3a3528F9cDd6630fd3301B9c8911F7Bf063D",
                "to": "0x4d5Cf5032B2a844602278b01199ED191A86c93ff",
                "nonce": 0,
                "value": "100000000000000000",
                "gasLimit": 100000,
                "gasPrice": "1000000000",
                "chainId": 1001,
                "rawTx": "0xf86d80843b9aca00830186a0944d5cf5032b2a844602278b01199ed191a86c93ff88016345785d8a0000808207f5a01186622d03b6b8da7cf111d1ccba5bb185c56deae6a322cebc6dda0556f3cb979f910c26408b64b51c5da36ba2f38ef55ba1cee719d5a6c01225968799907432"
            }
        ],
        "expectedNewRoot": "16839349720732534632663634369605785751289107377345624633588697492886148997782",
        "expectedNewLeafs": {
            "0x617b3a3528F9cDd6630fd3301B9c8911F7Bf063D": {
                "balance": "99900000000000000000",
                "nonce": "1"
            },
            "0x4d5Cf5032B2a844602278b01199ED191A86c93ff": {
                "balance": "200100000000000000000",
                "nonce": "0"
            }
        }
    },
    {
        "id": 2,
        "description": "2 accounts. 1 valid transaction. 1 invalid transaction (bigger nonce)",
        "arity": 4,
        "chainIdSequencer": 1001,
        "defaultChainId": 1000,
        "sequencerAddress": "0x617b3a3528F9cDd6630fd3301B9c8911F7Bf063D",
        "sequencerPvtKey": "0x28b2b0318721be8c8339199172cd7cc8f5e273800a35616ec893083a4b32c02e",
        "genesis": [
            {
                "address": "0x617b3a3528F9cDd6630fd3301B9c8911F7Bf063D",
                "pvtKey": "0x28b2b0318721be8c8339199172cd7cc8f5e273800a35616ec893083a4b32c02e",
                "balance": "100000000000000000000",
                "nonce": "0"
            },
            {
                "address": "0x4d5Cf5032B2a844602278b01199ED191A86c93ff",
                "pvtKey": "0x4d27a600dce8c29b7bd080e29a26972377dbb04d7a27d919adbb602bf13cfd23",
                "balance": "200000000000000000000",
                "nonce": "0"
            }
        ],
        "expectedOldRoot": "4091651772388093439828475955668620102367778455436412389529460210592290187513",
        "txs": [
            {
                "id" : 0,
                "from": "0x617b3a3528F9cDd6630fd3301B9c8911F7Bf063D",
                "to": "0x4d5Cf5032B2a844602278b01199ED191A86c93ff",
                "nonce": 0,
                "value": "100000000000000000",
                "gasLimit": 100000,
                "gasPrice": "1000000000",
                "chainId": 1001,
                "rawTx": "0xf86d80843b9aca00830186a0944d5cf5032b2a844602278b01199ed191a86c93ff88016345785d8a0000808207f5a01186622d03b6b8da7cf111d1ccba5bb185c56deae6a322cebc6dda0556f3cb979f910c26408b64b51c5da36ba2f38ef55ba1cee719d5a6c01225968799907432"
            },
            {
                "id" : 1,
                "from": "0x617b3a3528F9cDd6630fd3301B9c8911F7Bf063D",
                "to": "0x4d5Cf5032B2a844602278b01199ED191A86c93ff",
                "nonce": 2,
                "value": "100000000000000000",
                "gasLimit": 100000,
                "gasPrice": "1000000000",
                "chainId": 1001,
                "rawTx": "0xf86e02843b9aca00830186a0944d5cf5032b2a844602278b01199ed191a86c93ff88016345785d8a0000808207f6a07d6892a0b642053f641a040c5ba59132983cb41af9887cf01f5b132313d68d0fa03c77a17d738c8d850a27fe7276b2c73e006b0e52938d960d7b6931dff1f49c97"
            }
        ],
        "expectedNewRoot": "16839349720732534632663634369605785751289107377345624633588697492886148997782",
        "expectedNewLeafs": {
            "0x617b3a3528F9cDd6630fd3301B9c8911F7Bf063D": {
                "balance": "99900000000000000000",
                "nonce": "1"
            },
            "0x4d5Cf5032B2a844602278b01199ED191A86c93ff": {
                "balance": "200100000000000000000",
                "nonce": "0"
            }
        }
    },
    {
        "id": 3,
        "description": "2 accounts. 1 valid transaction. 1 invalid transaction (lower nonce). 1 invalid transaction (bigger nonce). 1 valid transaction",
        "arity": 4,
        "chainIdSequencer": 1001,
        "defaultChainId": 1000,
        "sequencerAddress": "0x617b3a3528F9cDd6630fd3301B9c8911F7Bf063D",
        "sequencerPvtKey": "0x28b2b0318721be8c8339199172cd7cc8f5e273800a35616ec893083a4b32c02e",
        "genesis": [
            {
                "address": "0x617b3a3528F9cDd6630fd3301B9c8911F7Bf063D",
                "pvtKey": "0x28b2b0318721be8c8339199172cd7cc8f5e273800a35616ec893083a4b32c02e",
                "balance": "100000000000000000000",
                "nonce": "0"
            },
            {
                "address": "0x4d5Cf5032B2a844602278b01199ED191A86c93ff",
                "pvtKey": "0x4d27a600dce8c29b7bd080e29a26972377dbb04d7a27d919adbb602bf13cfd23",
                "balance": "200000000000000000000",
                "nonce": "0"
            }
        ],
        "expectedOldRoot": "4091651772388093439828475955668620102367778455436412389529460210592290187513",
        "txs": [
            {
                "id" : 0,
                "from": "0x617b3a3528F9cDd6630fd3301B9c8911F7Bf063D",
                "to": "0x4d5Cf5032B2a844602278b01199ED191A86c93ff",
                "nonce": 0,
                "value": "100000000000000000",
                "gasLimit": 100000,
                "gasPrice": "1000000000",
                "chainId": 1001,
                "rawTx": "0xf86d80843b9aca00830186a0944d5cf5032b2a844602278b01199ed191a86c93ff88016345785d8a0000808207f5a01186622d03b6b8da7cf111d1ccba5bb185c56deae6a322cebc6dda0556f3cb979f910c26408b64b51c5da36ba2f38ef55ba1cee719d5a6c01225968799907432"
            },
            {
                "id" : 1,
                "from": "0x617b3a3528F9cDd6630fd3301B9c8911F7Bf063D",
                "to": "0x4d5Cf5032B2a844602278b01199ED191A86c93ff",
                "nonce": 0,
                "value": "100000000000000000",
                "gasLimit": 100000,
                "gasPrice": "1000000000",
                "chainId": 1001,
                "rawTx": "0xf86d80843b9aca00830186a0944d5cf5032b2a844602278b01199ed191a86c93ff88016345785d8a0000808207f5a01186622d03b6b8da7cf111d1ccba5bb185c56deae6a322cebc6dda0556f3cb979f910c26408b64b51c5da36ba2f38ef55ba1cee719d5a6c01225968799907432"
            },
            {
                "id" : 2,
                "from": "0x617b3a3528F9cDd6630fd3301B9c8911F7Bf063D",
                "to": "0x4d5Cf5032B2a844602278b01199ED191A86c93ff",
                "nonce": 2,
                "value": "100000000000000000",
                "gasLimit": 100000,
                "gasPrice": "1000000000",
                "chainId": 1001,
                "rawTx": "0xf86e02843b9aca00830186a0944d5cf5032b2a844602278b01199ed191a86c93ff88016345785d8a0000808207f6a07d6892a0b642053f641a040c5ba59132983cb41af9887cf01f5b132313d68d0fa03c77a17d738c8d850a27fe7276b2c73e006b0e52938d960d7b6931dff1f49c97"
            },
            {
                "id" : 3,
                "from": "0x617b3a3528F9cDd6630fd3301B9c8911F7Bf063D",
                "to": "0x4d5Cf5032B2a844602278b01199ED191A86c93ff",
                "nonce": 1,
                "value": "100000000000000000",
                "gasLimit": 100000,
                "gasPrice": "1000000000",
                "chainId": 1001,
                "rawTx": "0xf86e01843b9aca00830186a0944d5cf5032b2a844602278b01199ed191a86c93ff88016345785d8a0000808207f6a0b09a953b4dccf40c7333ed1a1df6fda10a18d01d7c4320b05f7680b34837b3bda0421af00d0c99bb1b4d346d99f3634f46fba700dbc57908d3bfa647cbfbcb81a3"
            }
        ],
        "expectedNewRoot": "14808987698230955071921318994993000815765608643941547189311400032352127416240",
        "expectedNewLeafs": {
            "0x617b3a3528F9cDd6630fd3301B9c8911F7Bf063D": {
                "balance": "99800000000000000000",
                "nonce": "2"
            },
            "0x4d5Cf5032B2a844602278b01199ED191A86c93ff": {
                "balance": "200200000000000000000",
                "nonce": "0"
            }
        }
    }
]