[
    {
        "id": 0,
        "description": "2 accounts and 1 valid transaction, from, to and sequencer are the same",
        "arity": 4,
        "chainIdSequencer": 1001,
        "defaultChainId": 1000,
        "sequencerAddress": "0x617b3a3528F9cDd6630fd3301B9c8911F7Bf063D",
        "sequencerPvtKey": "0x28b2b0318721be8c8339199172cd7cc8f5e273800a35616ec893083a4b32c02e",
        "genesis": [
            {
                "address": "0x617b3a3528F9cDd6630fd3301B9c8911F7Bf063D",
                "pvtKey": "0x28b2b0318721be8c8339199172cd7cc8f5e273800a35616ec893083a4b32c02e",
                "balance": "100000000000000000000",
                "nonce": "0"
            },
            {
                "address": "0x4d5Cf5032B2a844602278b01199ED191A86c93ff",
                "pvtKey": "0x4d27a600dce8c29b7bd080e29a26972377dbb04d7a27d919adbb602bf13cfd23",
                "balance": "200000000000000000000",
                "nonce": "0"
            }
        ],
        "expectedOldRoot": "4091651772388093439828475955668620102367778455436412389529460210592290187513",
        "txs": [
            {
                "from": "0x617b3a3528F9cDd6630fd3301B9c8911F7Bf063D",
                "to": "0x617b3a3528F9cDd6630fd3301B9c8911F7Bf063D",
                "nonce": 0,
                "value": "100000000000000000",
                "gasLimit": 100000,
                "gasPrice": "1000000000",
                "chainId": 1001,
                "rawTx": "0xf86e80843b9aca00830186a094617b3a3528f9cdd6630fd3301b9c8911f7bf063d88016345785d8a0000808207f6a014b2304ca08457f37c4e81284398aa9c511875e47b37b1e6877a26c53c0e7a1ca07f2ed42e23e503c446213de2ce077e5cfdc58f0a672dfc0a5d0aa7c0202098c3"
            }
        ],
        "expectedNewRoot": "7421330885082932946539017014672533246023442358092386530613815329387953628301",
        "expectedNewLeafs": {
            "0x617b3a3528F9cDd6630fd3301B9c8911F7Bf063D": {
                "balance": "100000000000000000000",
                "nonce": "1"
            },
            "0x4d5Cf5032B2a844602278b01199ED191A86c93ff": {
                "balance": "200000000000000000000",
                "nonce": "0"
            }
        }
    },
    {
        "id": 1,
        "description": "2 accounts and 2 valid transaction, sequencer is able to do the transaction because the fees are payed at the end of every tx",
        "arity": 4,
        "chainIdSequencer": 1001,
        "defaultChainId": 1000,
        "sequencerAddress": "0x617b3a3528F9cDd6630fd3301B9c8911F7Bf063D",
        "sequencerPvtKey": "0x28b2b0318721be8c8339199172cd7cc8f5e273800a35616ec893083a4b32c02e",
        "genesis": [
        {
            "address": "0x617b3a3528F9cDd6630fd3301B9c8911F7Bf063D",
            "pvtKey": "0x28b2b0318721be8c8339199172cd7cc8f5e273800a35616ec893083a4b32c02e",
            "balance": "0",
            "nonce": "0"
        },
        {
            "address": "0x4d5Cf5032B2a844602278b01199ED191A86c93ff",
            "pvtKey": "0x4d27a600dce8c29b7bd080e29a26972377dbb04d7a27d919adbb602bf13cfd23",
            "balance": "200000000000000000000",
            "nonce": "0"
        }
        ],
        "expectedOldRoot": "11936844145808929426293852725998335514486672496136805838142173944993374821783",
        "txs": [
        {
            "id": 0,
            "from": "0x4d5Cf5032B2a844602278b01199ED191A86c93ff",
            "to": "0x4d5Cf5032B2a844602278b01199ED191A86c93ff",
            "nonce": 0,
            "value": "100000000000000000",
            "gasLimit": 100000,
            "gasPrice": "1000000000",
            "chainId": 1001,
            "rawTx": "0xf86e80843b9aca00830186a0944d5cf5032b2a844602278b01199ed191a86c93ff88016345785d8a0000808207f6a0bde971e211fdb218bc4a46cfd6b7b69160166eb6c491d1f4eaac2a5f04f2dfc7a06d605a2e226569555533df38ee79748e9e70fe7c25c5bd26077db65e89623d9d",
            "reason": ""
        },
        {
            "id": 1,
            "from": "0x617b3a3528F9cDd6630fd3301B9c8911F7Bf063D",
            "to": "0x4d5Cf5032B2a844602278b01199ED191A86c93ff",
            "nonce": 0,
            "value": "20000000000000",
            "gasLimit": 100000,
            "gasPrice": "1",
            "chainId": 1001,
            "rawTx": "0xf8688001830186a0944d5cf5032b2a844602278b01199ed191a86c93ff8612309ce54000808207f6a05270c9d2490f0c4feece99b91e31d7c7fa0f48764730d3d1cd9c01efdeb01099a054b624baef1a677c5fa77c9d0bd9a4d915d98c5933d3aae86c2692d5d020c648",
            "reason": ""
        }
        ],
        "expectedNewRoot": "5532325967989547795466461263128865040573520909247093875514436943970452167558",
        "expectedNewLeafs": {
        "0x617b3a3528F9cDd6630fd3301B9c8911F7Bf063D": {
            "balance": "1000000000000",
            "nonce": "1"
        },
        "0x4d5Cf5032B2a844602278b01199ED191A86c93ff": {
            "balance": "199999999000000000000",
            "nonce": "1"
        }
        },
        "batchL2Data": "0xf080862b4f29945e00830186a0944d5cf5032b2a844602278b01199ed191a86c93ff88016345785d8a0000808203e980808b562ddfd7ad2d35fd46b4305bc58e0553f765cf57410daa1eb0cb2191f4b3e91c5af2233ae0e79eb08e763430bee0fc1582e0452725c8e12190f26f4af286ff1cee80843b9aca00830186a0944d5cf5032b2a844602278b01199ed191a86c93ff8806f05b59d3b20000808203e98080a7ffde488efb26c894235ba05afcdf831c7cde555b10d60806b7949e0078db1b30d23e94ce621ccd6cca286927fdb18267148bc8d4d5b5abe494fd3ac1f0316b1c",
        "globalExitRoot": "4091651772388093439828475955668620102367778455436412389529460210592290187513",
        "newLocalExitRoot": "10742956179515319100591595038388130427995406579252011098325992000171378207294",
        "inputHash": "21301305749018914853563399965634274049372389862539672269711045841144553530350",
        "batchHashData": "84854230035739660055829130065351172256939868407259332500740133927635660483242",
        "localExitRoot": "10742956179515319100591595038388130427995406579252011098325992000171378207294",
        "timestamp": 1944498031
    }
]