[
  {
    "id": 0,
    "description": "Depth trace",
    "arity": 4,
    "chainIdSequencer": 1001,
    "defaultChainId": 1000,
    "sequencerAddress": "0x617b3a3528F9cDd6630fd3301B9c8911F7Bf063D",
    "sequencerPvtKey": "0x28b2b0318721be8c8339199172cd7cc8f5e273800a35616ec893083a4b32c02e",
    "genesis": [
      {
        "address": "0x617b3a3528F9cDd6630fd3301B9c8911F7Bf063D",
        "nonce": "0",
        "balance": "100000000000000000000",
        "pvtKey": "0x28b2b0318721be8c8339199172cd7cc8f5e273800a35616ec893083a4b32c02e"
      },
      {
        "address": "0x4d5Cf5032B2a844602278b01199ED191A86c93ff",
        "nonce": "0",
        "balance": "200000000000000000000",
        "pvtKey": "0x4d27a600dce8c29b7bd080e29a26972377dbb04d7a27d919adbb602bf13cfd23"
      },
      {
        "address": "0x1275fbb540c8efc58b812ba83b0d0b8b9917ae98",
        "nonce": 1,
        "balance": 0,
        "bytecode": "0x60806040526004361061009c5760003560e01c80633182d9a9116100645780633182d9a91461015a5780636aecbc33146101855780638b00fb6a146101b05780638eda2bf8146101e0578063b6f54b2514610210578063f80efde51461022e5761009c565b806303cfd846146100a157806303d3e8a7146100bf5780630f52d66e146100d6578063266f6aec146101135780632c9fe30f1461012a575b600080fd5b6100a961024c565b6040516100b69190610600565b60405180910390f35b3480156100cb57600080fd5b506100d4610258565b005b3480156100e257600080fd5b506100fd60048036038101906100f89190610569565b610267565b60405161010a9190610600565b60405180910390f35b34801561011f57600080fd5b5061012861027d565b005b610144600480360381019061013f919061053c565b61028d565b6040516101519190610600565b60405180910390f35b34801561016657600080fd5b5061016f610398565b60405161017c9190610600565b60405180910390f35b34801561019157600080fd5b5061019a6103b3565b6040516101a79190610600565b60405180910390f35b6101ca60048036038101906101c5919061053c565b6103c0565b6040516101d79190610600565b60405180910390f35b6101fa60048036038101906101f5919061053c565b6103ca565b6040516102079190610600565b60405180910390f35b6102186104d8565b6040516102259190610600565b60405180910390f35b6102366104e4565b6040516102439190610600565b60405180910390f35b60004760008190555090565b6000801461026557600080fd5b565b600081836102759190610631565b905092915050565b600060011461028b57600080fd5b565b60008173ffffffffffffffffffffffffffffffffffffffff166040516024016040516020818303038152906040527f23801894000000000000000000000000000000000000000000000000000000007bffffffffffffffffffffffffffffffffffffffffffffffffffffffff19166020820180517bffffffffffffffffffffffffffffffffffffffffffffffffffffffff838183161783525050505060405161033691906105e9565b600060405180830381855af49150503d8060008114610371576040519150601f19603f3d011682016040523d82523d6000602084013e610376565b606091505b5050503080600355388060045559816000823980518160055550505050919050565b60006912121212121212121212600055640123456689905090565b6000640123456689905090565b6000479050919050565b60008173ffffffffffffffffffffffffffffffffffffffff16346040516024016040516020818303038152906040527f23801894000000000000000000000000000000000000000000000000000000007bffffffffffffffffffffffffffffffffffffffffffffffffffffffff19166020820180517bffffffffffffffffffffffffffffffffffffffffffffffffffffffff838183161783525050505060405161047491906105e9565b60006040518083038185875af1925050503d80600081146104b1576040519150601f19603f3d011682016040523d82523d6000602084013e6104b6565b606091505b5050503080600355388060045559816000823980518160055550505050919050565b60004760008190555090565b6000803390506000349050691212121212121212121260005581600155806002556401234566899250505090565b6000813590506105218161072a565b92915050565b60008135905061053681610741565b92915050565b60006020828403121561055257610551610725565b5b600061056084828501610512565b91505092915050565b600080604083850312156105805761057f610725565b5b600061058e85828601610527565b925050602061059f85828601610527565b9150509250929050565b60006105b48261061b565b6105be8185610626565b93506105ce8185602086016106c3565b80840191505092915050565b6105e3816106b9565b82525050565b60006105f582846105a9565b915081905092915050565b600060208201905061061560008301846105da565b92915050565b600081519050919050565b600081905092915050565b600061063c826106b9565b9150610647836106b9565b9250827fffffffffffffffffffffffffffffffffffffffffffffffffffffffffffffffff0382111561067c5761067b6106f6565b5b828201905092915050565b600061069282610699565b9050919050565b600073ffffffffffffffffffffffffffffffffffffffff82169050919050565b6000819050919050565b60005b838110156106e15780820151818401526020810190506106c6565b838111156106f0576000848401525b50505050565b7f4e487b7100000000000000000000000000000000000000000000000000000000600052601160045260246000fd5b600080fd5b61073381610687565b811461073e57600080fd5b50565b61074a816106b9565b811461075557600080fd5b5056fea2646970667358221220e0ba94a14896fb5cb6b7a234a0bc893cfbbd7b2138fa980b8909cb0d31be6d5b64736f6c63430008070033",
        "abi": [
          {
            "inputs": [
              {
                "internalType": "uint256",
                "name": "a",
                "type": "uint256"
              },
              {
                "internalType": "uint256",
                "name": "b",
                "type": "uint256"
              }
            ],
            "name": "addTwo",
            "outputs": [
              {
                "internalType": "uint256",
                "name": "",
                "type": "uint256"
              }
            ],
            "stateMutability": "nonpayable",
            "type": "function"
          },
          {
            "inputs": [],
            "name": "auxFail",
            "outputs": [],
            "stateMutability": "nonpayable",
            "type": "function"
          },
          {
            "inputs": [],
            "name": "auxReturn",
            "outputs": [
              {
                "internalType": "uint256",
                "name": "",
                "type": "uint256"
              }
            ],
            "stateMutability": "nonpayable",
            "type": "function"
          },
          {
            "inputs": [],
            "name": "auxStop",
            "outputs": [],
            "stateMutability": "nonpayable",
            "type": "function"
          },
          {
            "inputs": [],
            "name": "auxUpdate",
            "outputs": [
              {
                "internalType": "uint256",
                "name": "",
                "type": "uint256"
              }
            ],
            "stateMutability": "nonpayable",
            "type": "function"
          },
          {
            "inputs": [],
            "name": "auxUpdateValues",
            "outputs": [
              {
                "internalType": "uint256",
                "name": "",
                "type": "uint256"
              }
            ],
            "stateMutability": "payable",
            "type": "function"
          },
          {
            "inputs": [],
            "name": "opCallSelfBalance",
            "outputs": [
              {
                "internalType": "uint256",
                "name": "",
                "type": "uint256"
              }
            ],
            "stateMutability": "payable",
            "type": "function"
          },
          {
            "inputs": [
              {
                "internalType": "address",
                "name": "addrCall",
                "type": "address"
              }
            ],
            "name": "opDelegateCallSelfBalance",
            "outputs": [
              {
                "internalType": "uint256",
                "name": "",
                "type": "uint256"
              }
            ],
            "stateMutability": "payable",
            "type": "function"
          },
          {
            "inputs": [
              {
                "internalType": "address",
                "name": "addrCall",
                "type": "address"
              }
            ],
            "name": "opDelegateDelegateSelfBalance",
            "outputs": [
              {
                "internalType": "uint256",
                "name": "",
                "type": "uint256"
              }
            ],
            "stateMutability": "payable",
            "type": "function"
          },
          {
            "inputs": [],
            "name": "opDelegateSelfBalance",
            "outputs": [
              {
                "internalType": "uint256",
                "name": "",
                "type": "uint256"
              }
            ],
            "stateMutability": "payable",
            "type": "function"
          },
          {
            "inputs": [
              {
                "internalType": "address",
                "name": "addrCall",
                "type": "address"
              }
            ],
            "name": "opReturnCallSelfBalance",
            "outputs": [
              {
                "internalType": "uint256",
                "name": "",
                "type": "uint256"
              }
            ],
            "stateMutability": "payable",
            "type": "function"
          }
        ],
        "storage": {
          "0x0000000000000000000000000000000000000000000000000000000000000000": "0x01"
        }
      },
      {
        "address": "0x85e844b762a271022b692cf99ce5c59ba0650ac8",
        "nonce": 1,
        "balance": 0,
        "bytecode": "0x608060405234801561001057600080fd5b50600436106100365760003560e01c80633c2d70e91461003b57806349a0639314610057575b600080fd5b610055600480360381019061005091906101c4565b610087565b005b610071600480360381019061006c9190610197565b61011e565b60405161007e919061026a565b60405180910390f35b3073ffffffffffffffffffffffffffffffffffffffff166349a0639382846040518363ffffffff1660e01b81526004016100c1919061024f565b602060405180830381600088803b1580156100db57600080fd5b5087f11580156100ef573d6000803e3d6000fd5b50505050506040513d601f19601f820116820180604052508101906101149190610204565b6001819055505050565b6000807f6aecbc33000000000000000000000000000000000000000000000000000000006080526020608060046080865afa905050919050565b600081359050610167816102c6565b92915050565b60008135905061017c816102dd565b92915050565b600081519050610191816102dd565b92915050565b6000602082840312156101ad576101ac6102c1565b5b60006101bb84828501610158565b91505092915050565b600080604083850312156101db576101da6102c1565b5b60006101e985828601610158565b92505060206101fa8582860161016d565b9150509250929050565b60006020828403121561021a576102196102c1565b5b600061022884828501610182565b91505092915050565b61023a81610285565b82525050565b610249816102b7565b82525050565b60006020820190506102646000830184610231565b92915050565b600060208201905061027f6000830184610240565b92915050565b600061029082610297565b9050919050565b600073ffffffffffffffffffffffffffffffffffffffff82169050919050565b6000819050919050565b600080fd5b6102cf81610285565b81146102da57600080fd5b50565b6102e6816102b7565b81146102f157600080fd5b5056fea2646970667358221220ce7d76c4886550b4558f326290ff21548557c454c607d24cd1e11b08c4ca8cb264736f6c63430008070033",
        "abi": [
          {
            "inputs": [
              {
                "internalType": "address",
                "name": "addr",
                "type": "address"
              }
            ],
            "name": "secondCall",
            "outputs": [
              {
                "internalType": "uint256",
                "name": "",
                "type": "uint256"
              }
            ],
            "stateMutability": "nonpayable",
            "type": "function"
          },
          {
            "inputs": [
              {
                "internalType": "address",
                "name": "addr",
                "type": "address"
              },
              {
                "internalType": "uint256",
                "name": "gasForwarded",
                "type": "uint256"
              }
            ],
            "name": "start",
            "outputs": [],
            "stateMutability": "nonpayable",
            "type": "function"
          }
        ],
        "storage": {}
      }
    ],
    "expectedOldRoot": "0x58185f3a22d09f5661ce81ac4140322ace6541038ef522726cc180a88b9d8b8a",
    "txs": [
      {
        "from": "0x4d5Cf5032B2a844602278b01199ED191A86c93ff",
        "to": "0x85e844b762a271022b692cf99ce5c59ba0650ac8",
        "nonce": "0",
        "value": "0",
        "data": "0x3c2d70e90000000000000000000000001275fbb540c8efc58b812ba83b0d0b8b9917ae9800000000000000000000000000000000000000000000000000000000000007d0",
        "gasLimit": 500000,
        "gasPrice": "1000000000",
        "chainId": 1000
      }
    ],
    "expectedNewRoot": "0xd22d7ecc01c7c10fc49974d0f70f4d3381af8c67781fe2fef147f4b997b65ddf",
    "expectedNewLeafs": {
      "0x617b3a3528F9cDd6630fd3301B9c8911F7Bf063D": {
        "balance": "100000024730000000000",
        "nonce": "0",
        "storage": null,
        "hashBytecode": "0x0000000000000000000000000000000000000000000000000000000000000000",
        "bytecodeLength": 0
      },
      "0x4d5Cf5032B2a844602278b01199ED191A86c93ff": {
        "balance": "199999975270000000000",
        "nonce": "1",
        "storage": null,
        "hashBytecode": "0x0000000000000000000000000000000000000000000000000000000000000000",
        "bytecodeLength": 0
      },
      "0x1275fbb540c8efc58b812ba83b0d0b8b9917ae98": {
        "balance": "0",
        "nonce": "1",
        "storage": {
          "0x0000000000000000000000000000000000000000000000000000000000000000": "0x01"
        },
        "hashBytecode": "0x07cac13d4325c07fd713d8f45e090b873d91d223764564357a6924fa0697a2f7",
        "bytecodeLength": 1934
      },
      "0x85e844b762a271022b692cf99ce5c59ba0650ac8": {
        "balance": "0",
        "nonce": "1",
        "storage": {},
        "hashBytecode": "0x3d7246991367007bf66a7390c48af51a53e890237501d03da8c04be1a857070f",
        "bytecodeLength": 810
      }
    },
    "timestamp": 1944498031,
    "newLocalExitRoot": "0x0000000000000000000000000000000000000000000000000000000000000000",
    "batchHashData": "0x1c2325707b98c50890379d08c1aa21e9f997707ee5b02f989717e7735bcbce47",
    "globalExitRoot": "0x090bcaf734c4f06c93954a827b45a6e8c67b8e0fd1e0a35a1c5982d6961828f9",
    "batchL2Data": "0xf86b80843b9aca008307a1209485e844b762a271022b692cf99ce5c59ba0650ac880b8443c2d70e90000000000000000000000001275fbb540c8efc58b812ba83b0d0b8b9917ae9800000000000000000000000000000000000000000000000000000000000007d08203e88080757b06dfedbd025c2c30ac4f53160e059f6c59e11af96787e09bb88405dcf6f4301587d20a7afa6766a8750ceaea53e855a7f9bc5ed70b6d309be34d98dd02e11cff",
    "chainID": 1000,
    "oldAccInputHash": "0x0000000000000000000000000000000000000000000000000000000000000000",
    "forkID": 5
  }
]