[
  {
    "id": 0,
    "description": "STOP opcode",
    "arity": 4,
    "chainIdSequencer": 1001,
    "defaultChainId": 1000,
    "sequencerAddress": "0x617b3a3528F9cDd6630fd3301B9c8911F7Bf063D",
    "sequencerPvtKey": "0x28b2b0318721be8c8339199172cd7cc8f5e273800a35616ec893083a4b32c02e",
    "genesis": [
      {
        "address": "0x617b3a3528F9cDd6630fd3301B9c8911F7Bf063D",
        "nonce": "0",
        "balance": "100000000000000000000",
        "pvtKey": "0x28b2b0318721be8c8339199172cd7cc8f5e273800a35616ec893083a4b32c02e"
      },
      {
        "address": "0x4d5Cf5032B2a844602278b01199ED191A86c93ff",
        "nonce": "0",
        "balance": "200000000000000000000",
        "pvtKey": "0x4d27a600dce8c29b7bd080e29a26972377dbb04d7a27d919adbb602bf13cfd23"
      },
      {
        "address": "0x1275fbb540c8efc58b812ba83b0d0b8b9917ae98",
        "nonce": 1,
        "balance": 0,
        "bytecode": "0x608060405234801561001057600080fd5b506004361061007d5760003560e01c80633931a6b31161005b5780633931a6b3146100b257806364fbb77c146100bc5780636664f730146100c6578063c68f6d1a146100e25761007d565b80630e4d2d0214610082578063159278191461008c578063242e46d214610096575b600080fd5b61008a6100ec565b005b6100946100f8565b005b6100b060048036038101906100ab919061015f565b610104565b005b6100ba61011a565b005b6100c4610126565b005b6100e060048036038101906100db919061015f565b610128565b005b6100ea61013e565b005b6002600a048060005550565b60026001018060005550565b808261011091906101f5565b6000819055505050565b60046003028060005550565b005b8082610134919061019f565b6000819055505050565b60056006038060005550565b60008135905061015981610293565b92915050565b600080604083850312156101765761017561028e565b5b60006101848582860161014a565b92505060206101958582860161014a565b9150509250929050565b60006101aa82610226565b91506101b583610226565b9250827fffffffffffffffffffffffffffffffffffffffffffffffffffffffffffffffff038211156101ea576101e9610230565b5b828201905092915050565b600061020082610226565b915061020b83610226565b92508261021b5761021a61025f565b5b828204905092915050565b6000819050919050565b7f4e487b7100000000000000000000000000000000000000000000000000000000600052601160045260246000fd5b7f4e487b7100000000000000000000000000000000000000000000000000000000600052601260045260246000fd5b600080fd5b61029c81610226565b81146102a757600080fd5b5056fea2646970667358221220ee24328a9b7f4d9a28eb224582cad8b3c25774a817400aa5ed747db125b5d42564736f6c63430008070033",
        "abi": [
          {
            "inputs": [],
            "name": "opAdd",
            "outputs": [],
            "stateMutability": "nonpayable",
            "type": "function"
          },
          {
            "inputs": [
              {
                "internalType": "uint256",
                "name": "a",
                "type": "uint256"
              },
              {
                "internalType": "uint256",
                "name": "b",
                "type": "uint256"
              }
            ],
            "name": "opCustomAdd",
            "outputs": [],
            "stateMutability": "nonpayable",
            "type": "function"
          },
          {
            "inputs": [
              {
                "internalType": "uint256",
                "name": "a",
                "type": "uint256"
              },
              {
                "internalType": "uint256",
                "name": "b",
                "type": "uint256"
              }
            ],
            "name": "opCustomDiv",
            "outputs": [],
            "stateMutability": "nonpayable",
            "type": "function"
          },
          {
            "inputs": [],
            "name": "opDiv",
            "outputs": [],
            "stateMutability": "nonpayable",
            "type": "function"
          },
          {
            "inputs": [],
            "name": "opMul",
            "outputs": [],
            "stateMutability": "nonpayable",
            "type": "function"
          },
          {
            "inputs": [],
            "name": "opStop",
            "outputs": [],
            "stateMutability": "pure",
            "type": "function"
          },
          {
            "inputs": [],
            "name": "opSub",
            "outputs": [],
            "stateMutability": "nonpayable",
            "type": "function"
          }
        ],
        "storage": {
          "0x0000000000000000000000000000000000000000000000000000000000000000": "0x01"
        }
      }
    ],
    "expectedOldRoot": "0xe65671994db137eb935220ae5f8edec547cf8abbaf4bec9daf4cb80463236901",
    "txs": [
      {
        "from": "0x4d5Cf5032B2a844602278b01199ED191A86c93ff",
        "to": "0x1275fbb540c8efc58b812ba83b0d0b8b9917ae98",
        "nonce": "0",
        "value": "0",
        "data": "0x64fbb77c",
        "gasLimit": 100000,
        "gasPrice": "1000000000",
        "chainId": 1001
      }
    ],
    "expectedNewRoot": "0x8974f14691b9ac527ca18483d67ceb5d8405fbfd6cf95383fe08af599ac1c070",
    "expectedNewLeafs": {
      "0x617b3a3528F9cDd6630fd3301B9c8911F7Bf063D": {
        "balance": "100000021221000000000",
        "nonce": "0"
      },
      "0x4d5Cf5032B2a844602278b01199ED191A86c93ff": {
        "balance": "199999978779000000000",
        "nonce": "1"
      },
      "0x1275fbb540c8efc58b812ba83b0d0b8b9917ae98": {
        "balance": "0",
        "nonce": "1",
        "storage": {
          "0x0000000000000000000000000000000000000000000000000000000000000000": "0x01"
        },
        "bytecode": "608060405234801561001057600080fd5b506004361061007d5760003560e01c80633931a6b31161005b5780633931a6b3146100b257806364fbb77c146100bc5780636664f730146100c6578063c68f6d1a146100e25761007d565b80630e4d2d0214610082578063159278191461008c578063242e46d214610096575b600080fd5b61008a6100ec565b005b6100946100f8565b005b6100b060048036038101906100ab919061015f565b610104565b005b6100ba61011a565b005b6100c4610126565b005b6100e060048036038101906100db919061015f565b610128565b005b6100ea61013e565b005b6002600a048060005550565b60026001018060005550565b808261011091906101f5565b6000819055505050565b60046003028060005550565b005b8082610134919061019f565b6000819055505050565b60056006038060005550565b60008135905061015981610293565b92915050565b600080604083850312156101765761017561028e565b5b60006101848582860161014a565b92505060206101958582860161014a565b9150509250929050565b60006101aa82610226565b91506101b583610226565b9250827fffffffffffffffffffffffffffffffffffffffffffffffffffffffffffffffff038211156101ea576101e9610230565b5b828201905092915050565b600061020082610226565b915061020b83610226565b92508261021b5761021a61025f565b5b828204905092915050565b6000819050919050565b7f4e487b7100000000000000000000000000000000000000000000000000000000600052601160045260246000fd5b7f4e487b7100000000000000000000000000000000000000000000000000000000600052601260045260246000fd5b600080fd5b61029c81610226565b81146102a757600080fd5b5056fea2646970667358221220ee24328a9b7f4d9a28eb224582cad8b3c25774a817400aa5ed747db125b5d42564736f6c63430008070033"
      }
    },
    "timestamp": 1944498031,
    "newLocalExitRoot": "0x17c04c3760510b48c6012742c540a81aba4bca2f78b9d14bfd2f123e2e53ea3e",
    "batchHashData": "0x9ebef09482e4df8e634a681174e066b883dd8af3c39783312cb94bfa33877d64",
    "inputHash": "0x164bf317b25fc6d2546984bd82e5431f39c995806f90b2957e548ea49adc35bb",
    "globalExitRoot": "0x090bcaf734c4f06c93954a827b45a6e8c67b8e0fd1e0a35a1c5982d6961828f9",
    "localExitRoot": "0x17c04c3760510b48c6012742c540a81aba4bca2f78b9d14bfd2f123e2e53ea3e",
    "batchL2Data": "0xea80843b9aca00830186a0941275fbb540c8efc58b812ba83b0d0b8b9917ae98808464fbb77c8203e98080788bcad70258f341a18ac214bfe3a67610f131039b3809981b9fc10aee42c0110208aeb217d4bd5debc0a629b1fd38338d67fe9c82c057a88df4bfa317e0ba021b"
  },
  {
    "id": 1,
    "description": "ADD opcode",
    "arity": 4,
    "chainIdSequencer": 1001,
    "defaultChainId": 1000,
    "sequencerAddress": "0x617b3a3528F9cDd6630fd3301B9c8911F7Bf063D",
    "sequencerPvtKey": "0x28b2b0318721be8c8339199172cd7cc8f5e273800a35616ec893083a4b32c02e",
    "genesis": [
      {
        "address": "0x617b3a3528F9cDd6630fd3301B9c8911F7Bf063D",
        "nonce": "0",
        "balance": "100000000000000000000",
        "pvtKey": "0x28b2b0318721be8c8339199172cd7cc8f5e273800a35616ec893083a4b32c02e"
      },
      {
        "address": "0x4d5Cf5032B2a844602278b01199ED191A86c93ff",
        "nonce": "0",
        "balance": "200000000000000000000",
        "pvtKey": "0x4d27a600dce8c29b7bd080e29a26972377dbb04d7a27d919adbb602bf13cfd23"
      },
      {
        "address": "0x1275fbb540c8efc58b812ba83b0d0b8b9917ae98",
        "nonce": 1,
        "balance": 0,
        "bytecode": "0x608060405234801561001057600080fd5b506004361061007d5760003560e01c80633931a6b31161005b5780633931a6b3146100b257806364fbb77c146100bc5780636664f730146100c6578063c68f6d1a146100e25761007d565b80630e4d2d0214610082578063159278191461008c578063242e46d214610096575b600080fd5b61008a6100ec565b005b6100946100f8565b005b6100b060048036038101906100ab919061015f565b610104565b005b6100ba61011a565b005b6100c4610126565b005b6100e060048036038101906100db919061015f565b610128565b005b6100ea61013e565b005b6002600a048060005550565b60026001018060005550565b808261011091906101f5565b6000819055505050565b60046003028060005550565b005b8082610134919061019f565b6000819055505050565b60056006038060005550565b60008135905061015981610293565b92915050565b600080604083850312156101765761017561028e565b5b60006101848582860161014a565b92505060206101958582860161014a565b9150509250929050565b60006101aa82610226565b91506101b583610226565b9250827fffffffffffffffffffffffffffffffffffffffffffffffffffffffffffffffff038211156101ea576101e9610230565b5b828201905092915050565b600061020082610226565b915061020b83610226565b92508261021b5761021a61025f565b5b828204905092915050565b6000819050919050565b7f4e487b7100000000000000000000000000000000000000000000000000000000600052601160045260246000fd5b7f4e487b7100000000000000000000000000000000000000000000000000000000600052601260045260246000fd5b600080fd5b61029c81610226565b81146102a757600080fd5b5056fea2646970667358221220ee24328a9b7f4d9a28eb224582cad8b3c25774a817400aa5ed747db125b5d42564736f6c63430008070033",
        "abi": [
          {
            "inputs": [],
            "name": "opAdd",
            "outputs": [],
            "stateMutability": "nonpayable",
            "type": "function"
          },
          {
            "inputs": [
              {
                "internalType": "uint256",
                "name": "a",
                "type": "uint256"
              },
              {
                "internalType": "uint256",
                "name": "b",
                "type": "uint256"
              }
            ],
            "name": "opCustomAdd",
            "outputs": [],
            "stateMutability": "nonpayable",
            "type": "function"
          },
          {
            "inputs": [
              {
                "internalType": "uint256",
                "name": "a",
                "type": "uint256"
              },
              {
                "internalType": "uint256",
                "name": "b",
                "type": "uint256"
              }
            ],
            "name": "opCustomDiv",
            "outputs": [],
            "stateMutability": "nonpayable",
            "type": "function"
          },
          {
            "inputs": [],
            "name": "opDiv",
            "outputs": [],
            "stateMutability": "nonpayable",
            "type": "function"
          },
          {
            "inputs": [],
            "name": "opMul",
            "outputs": [],
            "stateMutability": "nonpayable",
            "type": "function"
          },
          {
            "inputs": [],
            "name": "opStop",
            "outputs": [],
            "stateMutability": "pure",
            "type": "function"
          },
          {
            "inputs": [],
            "name": "opSub",
            "outputs": [],
            "stateMutability": "nonpayable",
            "type": "function"
          }
        ],
        "storage": {
          "0x0000000000000000000000000000000000000000000000000000000000000000": "0x01"
        }
      }
    ],
    "expectedOldRoot": "0xe65671994db137eb935220ae5f8edec547cf8abbaf4bec9daf4cb80463236901",
    "txs": [
      {
        "from": "0x4d5Cf5032B2a844602278b01199ED191A86c93ff",
        "to": "0x1275fbb540c8efc58b812ba83b0d0b8b9917ae98",
        "nonce": "0",
        "value": "0",
        "data": "0x15927819",
        "gasLimit": 100000,
        "gasPrice": "1000000000",
        "chainId": 1001
      }
    ],
    "expectedNewRoot": "0xd39b1e8c72ad6456e71b50cddf07c40709da91f592533d8637e7d4cc7fcd74c9",
    "expectedNewLeafs": {
      "0x617b3a3528F9cDd6630fd3301B9c8911F7Bf063D": {
        "balance": "100000026248000000000",
        "nonce": "0"
      },
      "0x4d5Cf5032B2a844602278b01199ED191A86c93ff": {
        "balance": "199999973752000000000",
        "nonce": "1"
      },
      "0x1275fbb540c8efc58b812ba83b0d0b8b9917ae98": {
        "balance": "0",
        "nonce": "1",
        "storage": {
          "0x0000000000000000000000000000000000000000000000000000000000000000": "0x03"
        },
        "bytecode": "608060405234801561001057600080fd5b506004361061007d5760003560e01c80633931a6b31161005b5780633931a6b3146100b257806364fbb77c146100bc5780636664f730146100c6578063c68f6d1a146100e25761007d565b80630e4d2d0214610082578063159278191461008c578063242e46d214610096575b600080fd5b61008a6100ec565b005b6100946100f8565b005b6100b060048036038101906100ab919061015f565b610104565b005b6100ba61011a565b005b6100c4610126565b005b6100e060048036038101906100db919061015f565b610128565b005b6100ea61013e565b005b6002600a048060005550565b60026001018060005550565b808261011091906101f5565b6000819055505050565b60046003028060005550565b005b8082610134919061019f565b6000819055505050565b60056006038060005550565b60008135905061015981610293565b92915050565b600080604083850312156101765761017561028e565b5b60006101848582860161014a565b92505060206101958582860161014a565b9150509250929050565b60006101aa82610226565b91506101b583610226565b9250827fffffffffffffffffffffffffffffffffffffffffffffffffffffffffffffffff038211156101ea576101e9610230565b5b828201905092915050565b600061020082610226565b915061020b83610226565b92508261021b5761021a61025f565b5b828204905092915050565b6000819050919050565b7f4e487b7100000000000000000000000000000000000000000000000000000000600052601160045260246000fd5b7f4e487b7100000000000000000000000000000000000000000000000000000000600052601260045260246000fd5b600080fd5b61029c81610226565b81146102a757600080fd5b5056fea2646970667358221220ee24328a9b7f4d9a28eb224582cad8b3c25774a817400aa5ed747db125b5d42564736f6c63430008070033"
      }
    },
    "timestamp": 1944498031,
    "newLocalExitRoot": "0x17c04c3760510b48c6012742c540a81aba4bca2f78b9d14bfd2f123e2e53ea3e",
    "batchHashData": "0x5f07d85bf7610a7351d0db47daded157d90d6b0a54800dc8918a266d5cbc06ab",
    "inputHash": "0xf9b4faba50c94c6a62b63671619409fcb520ab8dcaec370e313b40f2d2cdcaee",
    "globalExitRoot": "0x090bcaf734c4f06c93954a827b45a6e8c67b8e0fd1e0a35a1c5982d6961828f9",
    "localExitRoot": "0x17c04c3760510b48c6012742c540a81aba4bca2f78b9d14bfd2f123e2e53ea3e",
    "batchL2Data": "0xea80843b9aca00830186a0941275fbb540c8efc58b812ba83b0d0b8b9917ae988084159278198203e98080b22577e12dd4e9c8c7c9f68a63d6ab3ec6fb612ee6b206dbcd7817257d816e752e69f816289c68eab050ddc279714bd05dc567ec3fc883148a0338334f3d5e771b"
  },
  {
    "id": 2,
    "description": "MUL opcode",
    "arity": 4,
    "chainIdSequencer": 1001,
    "defaultChainId": 1000,
    "sequencerAddress": "0x617b3a3528F9cDd6630fd3301B9c8911F7Bf063D",
    "sequencerPvtKey": "0x28b2b0318721be8c8339199172cd7cc8f5e273800a35616ec893083a4b32c02e",
    "genesis": [
      {
        "address": "0x617b3a3528F9cDd6630fd3301B9c8911F7Bf063D",
        "nonce": "0",
        "balance": "100000000000000000000",
        "pvtKey": "0x28b2b0318721be8c8339199172cd7cc8f5e273800a35616ec893083a4b32c02e"
      },
      {
        "address": "0x4d5Cf5032B2a844602278b01199ED191A86c93ff",
        "nonce": "0",
        "balance": "200000000000000000000",
        "pvtKey": "0x4d27a600dce8c29b7bd080e29a26972377dbb04d7a27d919adbb602bf13cfd23"
      },
      {
        "address": "0x1275fbb540c8efc58b812ba83b0d0b8b9917ae98",
        "nonce": 1,
        "balance": 0,
        "bytecode": "0x608060405234801561001057600080fd5b506004361061007d5760003560e01c80633931a6b31161005b5780633931a6b3146100b257806364fbb77c146100bc5780636664f730146100c6578063c68f6d1a146100e25761007d565b80630e4d2d0214610082578063159278191461008c578063242e46d214610096575b600080fd5b61008a6100ec565b005b6100946100f8565b005b6100b060048036038101906100ab919061015f565b610104565b005b6100ba61011a565b005b6100c4610126565b005b6100e060048036038101906100db919061015f565b610128565b005b6100ea61013e565b005b6002600a048060005550565b60026001018060005550565b808261011091906101f5565b6000819055505050565b60046003028060005550565b005b8082610134919061019f565b6000819055505050565b60056006038060005550565b60008135905061015981610293565b92915050565b600080604083850312156101765761017561028e565b5b60006101848582860161014a565b92505060206101958582860161014a565b9150509250929050565b60006101aa82610226565b91506101b583610226565b9250827fffffffffffffffffffffffffffffffffffffffffffffffffffffffffffffffff038211156101ea576101e9610230565b5b828201905092915050565b600061020082610226565b915061020b83610226565b92508261021b5761021a61025f565b5b828204905092915050565b6000819050919050565b7f4e487b7100000000000000000000000000000000000000000000000000000000600052601160045260246000fd5b7f4e487b7100000000000000000000000000000000000000000000000000000000600052601260045260246000fd5b600080fd5b61029c81610226565b81146102a757600080fd5b5056fea2646970667358221220ee24328a9b7f4d9a28eb224582cad8b3c25774a817400aa5ed747db125b5d42564736f6c63430008070033",
        "abi": [
          {
            "inputs": [],
            "name": "opAdd",
            "outputs": [],
            "stateMutability": "nonpayable",
            "type": "function"
          },
          {
            "inputs": [
              {
                "internalType": "uint256",
                "name": "a",
                "type": "uint256"
              },
              {
                "internalType": "uint256",
                "name": "b",
                "type": "uint256"
              }
            ],
            "name": "opCustomAdd",
            "outputs": [],
            "stateMutability": "nonpayable",
            "type": "function"
          },
          {
            "inputs": [
              {
                "internalType": "uint256",
                "name": "a",
                "type": "uint256"
              },
              {
                "internalType": "uint256",
                "name": "b",
                "type": "uint256"
              }
            ],
            "name": "opCustomDiv",
            "outputs": [],
            "stateMutability": "nonpayable",
            "type": "function"
          },
          {
            "inputs": [],
            "name": "opDiv",
            "outputs": [],
            "stateMutability": "nonpayable",
            "type": "function"
          },
          {
            "inputs": [],
            "name": "opMul",
            "outputs": [],
            "stateMutability": "nonpayable",
            "type": "function"
          },
          {
            "inputs": [],
            "name": "opStop",
            "outputs": [],
            "stateMutability": "pure",
            "type": "function"
          },
          {
            "inputs": [],
            "name": "opSub",
            "outputs": [],
            "stateMutability": "nonpayable",
            "type": "function"
          }
        ],
        "storage": {
          "0x0000000000000000000000000000000000000000000000000000000000000000": "0x01"
        }
      }
    ],
    "expectedOldRoot": "0xe65671994db137eb935220ae5f8edec547cf8abbaf4bec9daf4cb80463236901",
    "txs": [
      {
        "from": "0x4d5Cf5032B2a844602278b01199ED191A86c93ff",
        "to": "0x1275fbb540c8efc58b812ba83b0d0b8b9917ae98",
        "nonce": "0",
        "value": "0",
        "data": "0x3931a6b3",
        "gasLimit": 100000,
        "gasPrice": "1000000000",
        "chainId": 1001
      }
    ],
    "expectedNewRoot": "0x44ec7beb0e7f488773bcb007bf85b7dd460c27ae85fec9ba4867f93b743401a4",
    "expectedNewLeafs": {
      "0x617b3a3528F9cDd6630fd3301B9c8911F7Bf063D": {
        "balance": "100000026227000000000",
        "nonce": "0"
      },
      "0x4d5Cf5032B2a844602278b01199ED191A86c93ff": {
        "balance": "199999973773000000000",
        "nonce": "1"
      },
      "0x1275fbb540c8efc58b812ba83b0d0b8b9917ae98": {
        "balance": "0",
        "nonce": "1",
        "storage": {
          "0x0000000000000000000000000000000000000000000000000000000000000000": "0x0c"
        },
        "bytecode": "608060405234801561001057600080fd5b506004361061007d5760003560e01c80633931a6b31161005b5780633931a6b3146100b257806364fbb77c146100bc5780636664f730146100c6578063c68f6d1a146100e25761007d565b80630e4d2d0214610082578063159278191461008c578063242e46d214610096575b600080fd5b61008a6100ec565b005b6100946100f8565b005b6100b060048036038101906100ab919061015f565b610104565b005b6100ba61011a565b005b6100c4610126565b005b6100e060048036038101906100db919061015f565b610128565b005b6100ea61013e565b005b6002600a048060005550565b60026001018060005550565b808261011091906101f5565b6000819055505050565b60046003028060005550565b005b8082610134919061019f565b6000819055505050565b60056006038060005550565b60008135905061015981610293565b92915050565b600080604083850312156101765761017561028e565b5b60006101848582860161014a565b92505060206101958582860161014a565b9150509250929050565b60006101aa82610226565b91506101b583610226565b9250827fffffffffffffffffffffffffffffffffffffffffffffffffffffffffffffffff038211156101ea576101e9610230565b5b828201905092915050565b600061020082610226565b915061020b83610226565b92508261021b5761021a61025f565b5b828204905092915050565b6000819050919050565b7f4e487b7100000000000000000000000000000000000000000000000000000000600052601160045260246000fd5b7f4e487b7100000000000000000000000000000000000000000000000000000000600052601260045260246000fd5b600080fd5b61029c81610226565b81146102a757600080fd5b5056fea2646970667358221220ee24328a9b7f4d9a28eb224582cad8b3c25774a817400aa5ed747db125b5d42564736f6c63430008070033"
      }
    },
    "timestamp": 1944498031,
    "newLocalExitRoot": "0x17c04c3760510b48c6012742c540a81aba4bca2f78b9d14bfd2f123e2e53ea3e",
    "batchHashData": "0xb67c3ed0e1b546feaf9ec8ef8870aec023d4203ee6f0a82d8dc0781c4cff9270",
    "inputHash": "0x50623bd0ca978ddf13c8d00bd147d7d966ea774357e63550b0f28c24bcf79180",
    "globalExitRoot": "0x090bcaf734c4f06c93954a827b45a6e8c67b8e0fd1e0a35a1c5982d6961828f9",
    "localExitRoot": "0x17c04c3760510b48c6012742c540a81aba4bca2f78b9d14bfd2f123e2e53ea3e",
    "batchL2Data": "0xea80843b9aca00830186a0941275fbb540c8efc58b812ba83b0d0b8b9917ae9880843931a6b38203e980805c812808315573db3cdfb56b3633fb18e11db7d534534ed3e779d0e1fadcec5a76ea6d281a943906f6ad859e45cc25efc9e96bc12ccc3b7ac94abb489e44728e1c"
  },
  {
    "id": 3,
    "description": "SUB opcode",
    "arity": 4,
    "chainIdSequencer": 1001,
    "defaultChainId": 1000,
    "sequencerAddress": "0x617b3a3528F9cDd6630fd3301B9c8911F7Bf063D",
    "sequencerPvtKey": "0x28b2b0318721be8c8339199172cd7cc8f5e273800a35616ec893083a4b32c02e",
    "genesis": [
      {
        "address": "0x617b3a3528F9cDd6630fd3301B9c8911F7Bf063D",
        "nonce": "0",
        "balance": "100000000000000000000",
        "pvtKey": "0x28b2b0318721be8c8339199172cd7cc8f5e273800a35616ec893083a4b32c02e"
      },
      {
        "address": "0x4d5Cf5032B2a844602278b01199ED191A86c93ff",
        "nonce": "0",
        "balance": "200000000000000000000",
        "pvtKey": "0x4d27a600dce8c29b7bd080e29a26972377dbb04d7a27d919adbb602bf13cfd23"
      },
      {
        "address": "0x1275fbb540c8efc58b812ba83b0d0b8b9917ae98",
        "nonce": 1,
        "balance": 0,
        "bytecode": "0x608060405234801561001057600080fd5b506004361061007d5760003560e01c80633931a6b31161005b5780633931a6b3146100b257806364fbb77c146100bc5780636664f730146100c6578063c68f6d1a146100e25761007d565b80630e4d2d0214610082578063159278191461008c578063242e46d214610096575b600080fd5b61008a6100ec565b005b6100946100f8565b005b6100b060048036038101906100ab919061015f565b610104565b005b6100ba61011a565b005b6100c4610126565b005b6100e060048036038101906100db919061015f565b610128565b005b6100ea61013e565b005b6002600a048060005550565b60026001018060005550565b808261011091906101f5565b6000819055505050565b60046003028060005550565b005b8082610134919061019f565b6000819055505050565b60056006038060005550565b60008135905061015981610293565b92915050565b600080604083850312156101765761017561028e565b5b60006101848582860161014a565b92505060206101958582860161014a565b9150509250929050565b60006101aa82610226565b91506101b583610226565b9250827fffffffffffffffffffffffffffffffffffffffffffffffffffffffffffffffff038211156101ea576101e9610230565b5b828201905092915050565b600061020082610226565b915061020b83610226565b92508261021b5761021a61025f565b5b828204905092915050565b6000819050919050565b7f4e487b7100000000000000000000000000000000000000000000000000000000600052601160045260246000fd5b7f4e487b7100000000000000000000000000000000000000000000000000000000600052601260045260246000fd5b600080fd5b61029c81610226565b81146102a757600080fd5b5056fea2646970667358221220ee24328a9b7f4d9a28eb224582cad8b3c25774a817400aa5ed747db125b5d42564736f6c63430008070033",
        "abi": [
          {
            "inputs": [],
            "name": "opAdd",
            "outputs": [],
            "stateMutability": "nonpayable",
            "type": "function"
          },
          {
            "inputs": [
              {
                "internalType": "uint256",
                "name": "a",
                "type": "uint256"
              },
              {
                "internalType": "uint256",
                "name": "b",
                "type": "uint256"
              }
            ],
            "name": "opCustomAdd",
            "outputs": [],
            "stateMutability": "nonpayable",
            "type": "function"
          },
          {
            "inputs": [
              {
                "internalType": "uint256",
                "name": "a",
                "type": "uint256"
              },
              {
                "internalType": "uint256",
                "name": "b",
                "type": "uint256"
              }
            ],
            "name": "opCustomDiv",
            "outputs": [],
            "stateMutability": "nonpayable",
            "type": "function"
          },
          {
            "inputs": [],
            "name": "opDiv",
            "outputs": [],
            "stateMutability": "nonpayable",
            "type": "function"
          },
          {
            "inputs": [],
            "name": "opMul",
            "outputs": [],
            "stateMutability": "nonpayable",
            "type": "function"
          },
          {
            "inputs": [],
            "name": "opStop",
            "outputs": [],
            "stateMutability": "pure",
            "type": "function"
          },
          {
            "inputs": [],
            "name": "opSub",
            "outputs": [],
            "stateMutability": "nonpayable",
            "type": "function"
          }
        ],
        "storage": {
          "0x0000000000000000000000000000000000000000000000000000000000000000": "0x01"
        }
      }
    ],
    "expectedOldRoot": "0xe65671994db137eb935220ae5f8edec547cf8abbaf4bec9daf4cb80463236901",
    "txs": [
      {
        "from": "0x4d5Cf5032B2a844602278b01199ED191A86c93ff",
        "to": "0x1275fbb540c8efc58b812ba83b0d0b8b9917ae98",
        "nonce": "0",
        "value": "0",
        "data": "0xc68f6d1a",
        "gasLimit": 100000,
        "gasPrice": "1000000000",
        "chainId": 1001
      }
    ],
    "expectedNewRoot": "0xceb8d20d2a56006cf831c62d199e3a1acbf262de493c6a45c4227df901ba593a",
    "expectedNewLeafs": {
      "0x617b3a3528F9cDd6630fd3301B9c8911F7Bf063D": {
        "balance": "100000023491000000000",
        "nonce": "0"
      },
      "0x4d5Cf5032B2a844602278b01199ED191A86c93ff": {
        "balance": "199999976509000000000",
        "nonce": "1"
      },
      "0x1275fbb540c8efc58b812ba83b0d0b8b9917ae98": {
        "balance": "0",
        "nonce": "1",
        "storage": {
          "0x0000000000000000000000000000000000000000000000000000000000000000": "0x01"
        },
        "bytecode": "608060405234801561001057600080fd5b506004361061007d5760003560e01c80633931a6b31161005b5780633931a6b3146100b257806364fbb77c146100bc5780636664f730146100c6578063c68f6d1a146100e25761007d565b80630e4d2d0214610082578063159278191461008c578063242e46d214610096575b600080fd5b61008a6100ec565b005b6100946100f8565b005b6100b060048036038101906100ab919061015f565b610104565b005b6100ba61011a565b005b6100c4610126565b005b6100e060048036038101906100db919061015f565b610128565b005b6100ea61013e565b005b6002600a048060005550565b60026001018060005550565b808261011091906101f5565b6000819055505050565b60046003028060005550565b005b8082610134919061019f565b6000819055505050565b60056006038060005550565b60008135905061015981610293565b92915050565b600080604083850312156101765761017561028e565b5b60006101848582860161014a565b92505060206101958582860161014a565b9150509250929050565b60006101aa82610226565b91506101b583610226565b9250827fffffffffffffffffffffffffffffffffffffffffffffffffffffffffffffffff038211156101ea576101e9610230565b5b828201905092915050565b600061020082610226565b915061020b83610226565b92508261021b5761021a61025f565b5b828204905092915050565b6000819050919050565b7f4e487b7100000000000000000000000000000000000000000000000000000000600052601160045260246000fd5b7f4e487b7100000000000000000000000000000000000000000000000000000000600052601260045260246000fd5b600080fd5b61029c81610226565b81146102a757600080fd5b5056fea2646970667358221220ee24328a9b7f4d9a28eb224582cad8b3c25774a817400aa5ed747db125b5d42564736f6c63430008070033"
      }
    },
    "timestamp": 1944498031,
    "newLocalExitRoot": "0x17c04c3760510b48c6012742c540a81aba4bca2f78b9d14bfd2f123e2e53ea3e",
    "batchHashData": "0x80cff7c3ccd755b32c797191509e470c3c14a28c6243ffdec65ec72fe5b71265",
    "inputHash": "0xc1005773b6412156f29761ed62ca1a0e2fc66f7a5d4136ca0439f36404f4837e",
    "globalExitRoot": "0x090bcaf734c4f06c93954a827b45a6e8c67b8e0fd1e0a35a1c5982d6961828f9",
    "localExitRoot": "0x17c04c3760510b48c6012742c540a81aba4bca2f78b9d14bfd2f123e2e53ea3e",
    "batchL2Data": "0xea80843b9aca00830186a0941275fbb540c8efc58b812ba83b0d0b8b9917ae988084c68f6d1a8203e98080dbfb2299f51da738ce5c4aa8b50ea690189278e3f6254dfaefb2b212afb5cdb010a595fc41ea8a6ffad33635c7fd30d46eabc44f59d7d17a71dbe80b2ee4aae91c"
  },
  {
    "id": 4,
    "description": "DIV opcode",
    "arity": 4,
    "chainIdSequencer": 1001,
    "defaultChainId": 1000,
    "sequencerAddress": "0x617b3a3528F9cDd6630fd3301B9c8911F7Bf063D",
    "sequencerPvtKey": "0x28b2b0318721be8c8339199172cd7cc8f5e273800a35616ec893083a4b32c02e",
    "genesis": [
      {
        "address": "0x617b3a3528F9cDd6630fd3301B9c8911F7Bf063D",
        "nonce": "0",
        "balance": "100000000000000000000",
        "pvtKey": "0x28b2b0318721be8c8339199172cd7cc8f5e273800a35616ec893083a4b32c02e"
      },
      {
        "address": "0x4d5Cf5032B2a844602278b01199ED191A86c93ff",
        "nonce": "0",
        "balance": "200000000000000000000",
        "pvtKey": "0x4d27a600dce8c29b7bd080e29a26972377dbb04d7a27d919adbb602bf13cfd23"
      },
      {
        "address": "0x1275fbb540c8efc58b812ba83b0d0b8b9917ae98",
        "nonce": 1,
        "balance": 0,
        "bytecode": "0x608060405234801561001057600080fd5b506004361061007d5760003560e01c80633931a6b31161005b5780633931a6b3146100b257806364fbb77c146100bc5780636664f730146100c6578063c68f6d1a146100e25761007d565b80630e4d2d0214610082578063159278191461008c578063242e46d214610096575b600080fd5b61008a6100ec565b005b6100946100f8565b005b6100b060048036038101906100ab919061015f565b610104565b005b6100ba61011a565b005b6100c4610126565b005b6100e060048036038101906100db919061015f565b610128565b005b6100ea61013e565b005b6002600a048060005550565b60026001018060005550565b808261011091906101f5565b6000819055505050565b60046003028060005550565b005b8082610134919061019f565b6000819055505050565b60056006038060005550565b60008135905061015981610293565b92915050565b600080604083850312156101765761017561028e565b5b60006101848582860161014a565b92505060206101958582860161014a565b9150509250929050565b60006101aa82610226565b91506101b583610226565b9250827fffffffffffffffffffffffffffffffffffffffffffffffffffffffffffffffff038211156101ea576101e9610230565b5b828201905092915050565b600061020082610226565b915061020b83610226565b92508261021b5761021a61025f565b5b828204905092915050565b6000819050919050565b7f4e487b7100000000000000000000000000000000000000000000000000000000600052601160045260246000fd5b7f4e487b7100000000000000000000000000000000000000000000000000000000600052601260045260246000fd5b600080fd5b61029c81610226565b81146102a757600080fd5b5056fea2646970667358221220ee24328a9b7f4d9a28eb224582cad8b3c25774a817400aa5ed747db125b5d42564736f6c63430008070033",
        "abi": [
          {
            "inputs": [],
            "name": "opAdd",
            "outputs": [],
            "stateMutability": "nonpayable",
            "type": "function"
          },
          {
            "inputs": [
              {
                "internalType": "uint256",
                "name": "a",
                "type": "uint256"
              },
              {
                "internalType": "uint256",
                "name": "b",
                "type": "uint256"
              }
            ],
            "name": "opCustomAdd",
            "outputs": [],
            "stateMutability": "nonpayable",
            "type": "function"
          },
          {
            "inputs": [
              {
                "internalType": "uint256",
                "name": "a",
                "type": "uint256"
              },
              {
                "internalType": "uint256",
                "name": "b",
                "type": "uint256"
              }
            ],
            "name": "opCustomDiv",
            "outputs": [],
            "stateMutability": "nonpayable",
            "type": "function"
          },
          {
            "inputs": [],
            "name": "opDiv",
            "outputs": [],
            "stateMutability": "nonpayable",
            "type": "function"
          },
          {
            "inputs": [],
            "name": "opMul",
            "outputs": [],
            "stateMutability": "nonpayable",
            "type": "function"
          },
          {
            "inputs": [],
            "name": "opStop",
            "outputs": [],
            "stateMutability": "pure",
            "type": "function"
          },
          {
            "inputs": [],
            "name": "opSub",
            "outputs": [],
            "stateMutability": "nonpayable",
            "type": "function"
          }
        ],
        "storage": {
          "0x0000000000000000000000000000000000000000000000000000000000000000": "0x01"
        }
      }
    ],
    "expectedOldRoot": "0xe65671994db137eb935220ae5f8edec547cf8abbaf4bec9daf4cb80463236901",
    "txs": [
      {
        "from": "0x4d5Cf5032B2a844602278b01199ED191A86c93ff",
        "to": "0x1275fbb540c8efc58b812ba83b0d0b8b9917ae98",
        "nonce": "0",
        "value": "0",
        "data": "0x0e4d2d02",
        "gasLimit": 100000,
        "gasPrice": "1000000000",
        "chainId": 1001
      }
    ],
    "expectedNewRoot": "0xf06c73f394a8821f6f4601220db66384b3ae411f99105da688b1163a157d6bfb",
    "expectedNewLeafs": {
      "0x617b3a3528F9cDd6630fd3301B9c8911F7Bf063D": {
        "balance": "100000026228000000000",
        "nonce": "0"
      },
      "0x4d5Cf5032B2a844602278b01199ED191A86c93ff": {
        "balance": "199999973772000000000",
        "nonce": "1"
      },
      "0x1275fbb540c8efc58b812ba83b0d0b8b9917ae98": {
        "balance": "0",
        "nonce": "1",
        "storage": {
          "0x0000000000000000000000000000000000000000000000000000000000000000": "0x05"
        },
        "bytecode": "608060405234801561001057600080fd5b506004361061007d5760003560e01c80633931a6b31161005b5780633931a6b3146100b257806364fbb77c146100bc5780636664f730146100c6578063c68f6d1a146100e25761007d565b80630e4d2d0214610082578063159278191461008c578063242e46d214610096575b600080fd5b61008a6100ec565b005b6100946100f8565b005b6100b060048036038101906100ab919061015f565b610104565b005b6100ba61011a565b005b6100c4610126565b005b6100e060048036038101906100db919061015f565b610128565b005b6100ea61013e565b005b6002600a048060005550565b60026001018060005550565b808261011091906101f5565b6000819055505050565b60046003028060005550565b005b8082610134919061019f565b6000819055505050565b60056006038060005550565b60008135905061015981610293565b92915050565b600080604083850312156101765761017561028e565b5b60006101848582860161014a565b92505060206101958582860161014a565b9150509250929050565b60006101aa82610226565b91506101b583610226565b9250827fffffffffffffffffffffffffffffffffffffffffffffffffffffffffffffffff038211156101ea576101e9610230565b5b828201905092915050565b600061020082610226565b915061020b83610226565b92508261021b5761021a61025f565b5b828204905092915050565b6000819050919050565b7f4e487b7100000000000000000000000000000000000000000000000000000000600052601160045260246000fd5b7f4e487b7100000000000000000000000000000000000000000000000000000000600052601260045260246000fd5b600080fd5b61029c81610226565b81146102a757600080fd5b5056fea2646970667358221220ee24328a9b7f4d9a28eb224582cad8b3c25774a817400aa5ed747db125b5d42564736f6c63430008070033"
      }
    },
    "timestamp": 1944498031,
    "newLocalExitRoot": "0x17c04c3760510b48c6012742c540a81aba4bca2f78b9d14bfd2f123e2e53ea3e",
    "batchHashData": "0xd0ed2c92c3853992fe6b7a513c962cf3dbe85dd13844a4a91d53c5a934464d41",
    "inputHash": "0x83fc37f1cdba432eac40eb89db1f735c705b5f2e439c28c6a2bac43c86f8232e",
    "globalExitRoot": "0x090bcaf734c4f06c93954a827b45a6e8c67b8e0fd1e0a35a1c5982d6961828f9",
    "localExitRoot": "0x17c04c3760510b48c6012742c540a81aba4bca2f78b9d14bfd2f123e2e53ea3e",
    "batchL2Data": "0xea80843b9aca00830186a0941275fbb540c8efc58b812ba83b0d0b8b9917ae9880840e4d2d028203e980801b661f0633d7b0df73a9351680d0a16e7b73bb75a8398d4dea225db2fe7ce5d94f8cf7a4a8b4a82d218ab0ea669f86c6e29716e7bb3268aa7c3f8bac425d676a1c"
  },
  {
    "id": 5,
    "description": "DIV custom opcode",
    "arity": 4,
    "chainIdSequencer": 1001,
    "defaultChainId": 1000,
    "sequencerAddress": "0x617b3a3528F9cDd6630fd3301B9c8911F7Bf063D",
    "sequencerPvtKey": "0x28b2b0318721be8c8339199172cd7cc8f5e273800a35616ec893083a4b32c02e",
    "genesis": [
      {
        "address": "0x617b3a3528F9cDd6630fd3301B9c8911F7Bf063D",
        "nonce": "0",
        "balance": "100000000000000000000",
        "pvtKey": "0x28b2b0318721be8c8339199172cd7cc8f5e273800a35616ec893083a4b32c02e"
      },
      {
        "address": "0x4d5Cf5032B2a844602278b01199ED191A86c93ff",
        "nonce": "0",
        "balance": "200000000000000000000",
        "pvtKey": "0x4d27a600dce8c29b7bd080e29a26972377dbb04d7a27d919adbb602bf13cfd23"
      },
      {
        "address": "0x1275fbb540c8efc58b812ba83b0d0b8b9917ae98",
        "nonce": 1,
        "balance": 0,
        "bytecode": "0x608060405234801561001057600080fd5b506004361061007d5760003560e01c80633931a6b31161005b5780633931a6b3146100b257806364fbb77c146100bc5780636664f730146100c6578063c68f6d1a146100e25761007d565b80630e4d2d0214610082578063159278191461008c578063242e46d214610096575b600080fd5b61008a6100ec565b005b6100946100f8565b005b6100b060048036038101906100ab919061015f565b610104565b005b6100ba61011a565b005b6100c4610126565b005b6100e060048036038101906100db919061015f565b610128565b005b6100ea61013e565b005b6002600a048060005550565b60026001018060005550565b808261011091906101f5565b6000819055505050565b60046003028060005550565b005b8082610134919061019f565b6000819055505050565b60056006038060005550565b60008135905061015981610293565b92915050565b600080604083850312156101765761017561028e565b5b60006101848582860161014a565b92505060206101958582860161014a565b9150509250929050565b60006101aa82610226565b91506101b583610226565b9250827fffffffffffffffffffffffffffffffffffffffffffffffffffffffffffffffff038211156101ea576101e9610230565b5b828201905092915050565b600061020082610226565b915061020b83610226565b92508261021b5761021a61025f565b5b828204905092915050565b6000819050919050565b7f4e487b7100000000000000000000000000000000000000000000000000000000600052601160045260246000fd5b7f4e487b7100000000000000000000000000000000000000000000000000000000600052601260045260246000fd5b600080fd5b61029c81610226565b81146102a757600080fd5b5056fea2646970667358221220ee24328a9b7f4d9a28eb224582cad8b3c25774a817400aa5ed747db125b5d42564736f6c63430008070033",
        "abi": [
          {
            "inputs": [],
            "name": "opAdd",
            "outputs": [],
            "stateMutability": "nonpayable",
            "type": "function"
          },
          {
            "inputs": [
              {
                "internalType": "uint256",
                "name": "a",
                "type": "uint256"
              },
              {
                "internalType": "uint256",
                "name": "b",
                "type": "uint256"
              }
            ],
            "name": "opCustomAdd",
            "outputs": [],
            "stateMutability": "nonpayable",
            "type": "function"
          },
          {
            "inputs": [
              {
                "internalType": "uint256",
                "name": "a",
                "type": "uint256"
              },
              {
                "internalType": "uint256",
                "name": "b",
                "type": "uint256"
              }
            ],
            "name": "opCustomDiv",
            "outputs": [],
            "stateMutability": "nonpayable",
            "type": "function"
          },
          {
            "inputs": [],
            "name": "opDiv",
            "outputs": [],
            "stateMutability": "nonpayable",
            "type": "function"
          },
          {
            "inputs": [],
            "name": "opMul",
            "outputs": [],
            "stateMutability": "nonpayable",
            "type": "function"
          },
          {
            "inputs": [],
            "name": "opStop",
            "outputs": [],
            "stateMutability": "pure",
            "type": "function"
          },
          {
            "inputs": [],
            "name": "opSub",
            "outputs": [],
            "stateMutability": "nonpayable",
            "type": "function"
          }
        ],
        "storage": {
          "0x0000000000000000000000000000000000000000000000000000000000000000": "0x01"
        }
      }
    ],
    "expectedOldRoot": "0xe65671994db137eb935220ae5f8edec547cf8abbaf4bec9daf4cb80463236901",
    "txs": [
      {
        "from": "0x4d5Cf5032B2a844602278b01199ED191A86c93ff",
        "to": "0x1275fbb540c8efc58b812ba83b0d0b8b9917ae98",
        "nonce": "0",
        "value": "0",
        "data": "0x6664f73000000000000000000000000000000000000000000000000000000008000000000000000000000000000000000000000000000000000000000000000400000000",
        "gasLimit": 100000,
        "gasPrice": "1",
        "chainId": 1001
      }
    ],
    "expectedNewRoot": "0x8122f097cb8f837c21f8217059df661025fe85b656f799697bad0c23b238d5c5",
    "expectedNewLeafs": {
      "0x617b3a3528F9cDd6630fd3301B9c8911F7Bf063D": {
        "balance": "100000000000000027175",
        "nonce": "0"
      },
      "0x4d5Cf5032B2a844602278b01199ED191A86c93ff": {
        "balance": "199999999999999972825",
        "nonce": "1"
      },
      "0x1275fbb540c8efc58b812ba83b0d0b8b9917ae98": {
        "balance": "0",
        "nonce": "1",
        "storage": {
          "0x0000000000000000000000000000000000000000000000000000000000000000": "0x0c00000000"
        },
        "bytecode": "608060405234801561001057600080fd5b506004361061007d5760003560e01c80633931a6b31161005b5780633931a6b3146100b257806364fbb77c146100bc5780636664f730146100c6578063c68f6d1a146100e25761007d565b80630e4d2d0214610082578063159278191461008c578063242e46d214610096575b600080fd5b61008a6100ec565b005b6100946100f8565b005b6100b060048036038101906100ab919061015f565b610104565b005b6100ba61011a565b005b6100c4610126565b005b6100e060048036038101906100db919061015f565b610128565b005b6100ea61013e565b005b6002600a048060005550565b60026001018060005550565b808261011091906101f5565b6000819055505050565b60046003028060005550565b005b8082610134919061019f565b6000819055505050565b60056006038060005550565b60008135905061015981610293565b92915050565b600080604083850312156101765761017561028e565b5b60006101848582860161014a565b92505060206101958582860161014a565b9150509250929050565b60006101aa82610226565b91506101b583610226565b9250827fffffffffffffffffffffffffffffffffffffffffffffffffffffffffffffffff038211156101ea576101e9610230565b5b828201905092915050565b600061020082610226565b915061020b83610226565b92508261021b5761021a61025f565b5b828204905092915050565b6000819050919050565b7f4e487b7100000000000000000000000000000000000000000000000000000000600052601160045260246000fd5b7f4e487b7100000000000000000000000000000000000000000000000000000000600052601260045260246000fd5b600080fd5b61029c81610226565b81146102a757600080fd5b5056fea2646970667358221220ee24328a9b7f4d9a28eb224582cad8b3c25774a817400aa5ed747db125b5d42564736f6c63430008070033"
      }
    },
    "timestamp": 1944498031,
    "newLocalExitRoot": "0x17c04c3760510b48c6012742c540a81aba4bca2f78b9d14bfd2f123e2e53ea3e",
    "batchHashData": "0x7ece52ccf6433c80ec46f0cc2253993726a4c5be6a0aad349dfbd16d3e4dcb29",
    "inputHash": "0x88263616a31951c3263ac78f5bdcf12221bda99d8b83cba911f09ac0ea6249c5",
    "globalExitRoot": "0x090bcaf734c4f06c93954a827b45a6e8c67b8e0fd1e0a35a1c5982d6961828f9",
    "localExitRoot": "0x17c04c3760510b48c6012742c540a81aba4bca2f78b9d14bfd2f123e2e53ea3e",
    "batchL2Data": "0xf8678001830186a0941275fbb540c8efc58b812ba83b0d0b8b9917ae9880b8446664f730000000000000000000000000000000000000000000000000000000080000000000000000000000000000000000000000000000000000000000000004000000008203e98080a2e52c4abdd23ffb71008dfe455c73268f48c0dfec6c8b990e3c96b02e089a9d3d9f4593406e7fdd0036a02619e573b071786ceb823256904b12ee024814f4b91b"
  }
]