[
  {
    "id": 0,
    "description": "create opcode",
    "arity": 4,
    "chainIdSequencer": 1001,
    "defaultChainId": 1000,
    "sequencerAddress": "0x617b3a3528F9cDd6630fd3301B9c8911F7Bf063D",
    "sequencerPvtKey": "0x28b2b0318721be8c8339199172cd7cc8f5e273800a35616ec893083a4b32c02e",
    "genesis": [
      {
        "address": "0x617b3a3528F9cDd6630fd3301B9c8911F7Bf063D",
        "nonce": "0",
        "balance": "100000000000000000000",
        "pvtKey": "0x28b2b0318721be8c8339199172cd7cc8f5e273800a35616ec893083a4b32c02e"
      },
      {
        "address": "0x4d5Cf5032B2a844602278b01199ED191A86c93ff",
        "nonce": "0",
        "balance": "200000000000000000000",
        "pvtKey": "0x4d27a600dce8c29b7bd080e29a26972377dbb04d7a27d919adbb602bf13cfd23"
      },
      {
        "address": "0x1275fbb540c8efc58b812ba83b0d0b8b9917ae98",
        "nonce": 1,
        "balance": 0,
        "bytecode": "0x60806040526004361061004a5760003560e01c806327c845dc1461004f5780633c77eba3146100595780635b8e995914610089578063b88c4aa9146100c6578063e3306a25146100f6575b600080fd5b610057610133565b005b610073600480360381019061006e9190610232565b610141565b604051610080919061029d565b60405180910390f35b34801561009557600080fd5b506100b060048036038101906100ab9190610232565b61015b565b6040516100bd919061029d565b60405180910390f35b6100e060048036038101906100db9190610232565b610174565b6040516100ed919061029d565b60405180910390f35b34801561010257600080fd5b5061011d60048036038101906101189190610232565b610192565b60405161012a919061029d565b60405180910390f35b600034810190508060015550565b6000808260a06101f4f09050806000558091505092915050565b6000808260a06000f09050806000558091505092915050565b600080620555558360a061012cf59050806000558091505092915050565b60008060028360a06000f59050806000558091505092915050565b60006101c06101bb846102dd565b6102b8565b9050828152602081018484840111156101dc576101db6103be565b5b6101e784828561034a565b509392505050565b600082601f830112610204576102036103b9565b5b81356102148482602086016101ad565b91505092915050565b60008135905061022c816103de565b92915050565b60008060408385031215610249576102486103c8565b5b600083013567ffffffffffffffff811115610267576102666103c3565b5b610273858286016101ef565b92505060206102848582860161021d565b9150509250929050565b6102978161030e565b82525050565b60006020820190506102b2600083018461028e565b92915050565b60006102c26102d3565b90506102ce8282610359565b919050565b6000604051905090565b600067ffffffffffffffff8211156102f8576102f761038a565b5b610301826103cd565b9050602081019050919050565b600061031982610320565b9050919050565b600073ffffffffffffffffffffffffffffffffffffffff82169050919050565b6000819050919050565b82818337600083830152505050565b610362826103cd565b810181811067ffffffffffffffff821117156103815761038061038a565b5b80604052505050565b7f4e487b7100000000000000000000000000000000000000000000000000000000600052604160045260246000fd5b600080fd5b600080fd5b600080fd5b600080fd5b6000601f19601f8301169050919050565b6103e781610340565b81146103f257600080fd5b5056fea26469706673582212206d555c5cfdbc6e6298827b91813af1f15ae6cc068514956d5d4f1a0fa20d58c164736f6c63430008070033",
        "abi": [
          {
            "inputs": [
              {
                "internalType": "bytes",
                "name": "bytecode",
                "type": "bytes"
              },
              {
                "internalType": "uint256",
                "name": "length",
                "type": "uint256"
              }
            ],
            "name": "opCreate",
            "outputs": [
              {
                "internalType": "address",
                "name": "",
                "type": "address"
              }
            ],
            "stateMutability": "nonpayable",
            "type": "function"
          },
          {
            "inputs": [
              {
                "internalType": "bytes",
                "name": "bytecode",
                "type": "bytes"
              },
              {
                "internalType": "uint256",
                "name": "length",
                "type": "uint256"
              }
            ],
            "name": "opCreate2",
            "outputs": [
              {
                "internalType": "address",
                "name": "",
                "type": "address"
              }
            ],
            "stateMutability": "nonpayable",
            "type": "function"
          },
          {
            "inputs": [
              {
                "internalType": "bytes",
                "name": "bytecode",
                "type": "bytes"
              },
              {
                "internalType": "uint256",
                "name": "length",
                "type": "uint256"
              }
            ],
            "name": "opCreate2Value",
            "outputs": [
              {
                "internalType": "address",
                "name": "",
                "type": "address"
              }
            ],
            "stateMutability": "payable",
            "type": "function"
          },
          {
            "inputs": [
              {
                "internalType": "bytes",
                "name": "bytecode",
                "type": "bytes"
              },
              {
                "internalType": "uint256",
                "name": "length",
                "type": "uint256"
              }
            ],
            "name": "opCreateValue",
            "outputs": [
              {
                "internalType": "address",
                "name": "",
                "type": "address"
              }
            ],
            "stateMutability": "payable",
            "type": "function"
          },
          {
            "inputs": [],
            "name": "sendValue",
            "outputs": [],
            "stateMutability": "payable",
            "type": "function"
          }
        ],
        "storage": {}
      }
    ],
    "expectedOldRoot": "0xe6028b995d203f3f3b77f16f203012d9c286e3e744f6cb066a5baa418a61cbf8",
    "txs": [
      {
        "from": "0x4d5Cf5032B2a844602278b01199ED191A86c93ff",
        "to": "0x1275fbb540c8efc58b812ba83b0d0b8b9917ae98",
        "nonce": "0",
        "value": "0",
        "data": "0x5b8e9959000000000000000000000000000000000000000000000000000000000000004000000000000000000000000000000000000000000000000000000000000000da00000000000000000000000000000000000000000000000000000000000000da608060405234801561001057600080fd5b5060bb8061001f6000396000f3fe6080604052348015600f57600080fd5b506004361060285760003560e01c8063f6d97e8c14602d575b600080fd5b60336047565b604051603e91906062565b60405180910390f35b600080600390508091505090565b605c81607b565b82525050565b6000602082019050607560008301846055565b92915050565b600081905091905056fea2646970667358221220a33fdecaf587db45fa0e1fe4bfca25de09e35bb9a45fa6dab1bf1964244a929164736f6c63430008070033000000000000",
        "gasLimit": 800000,
        "gasPrice": "1000000000",
        "chainId": 1000
      }
    ],
    "expectedNewRoot": "0xc143d3f01427458471fda7514c3d3605d61fdfff21b9742bf5c7697ddbaf0935",
    "expectedNewLeafs": {
      "0x617b3a3528F9cDd6630fd3301B9c8911F7Bf063D": {
        "balance": "100000117854000000000",
        "nonce": "0",
        "storage": null,
        "hashBytecode": "0x0000000000000000000000000000000000000000000000000000000000000000",
        "bytecodeLength": 0
      },
      "0x4d5Cf5032B2a844602278b01199ED191A86c93ff": {
        "balance": "199999882146000000000",
        "nonce": "1",
        "storage": null,
        "hashBytecode": "0x0000000000000000000000000000000000000000000000000000000000000000",
        "bytecodeLength": 0
      },
      "0x1275fbb540c8efc58b812ba83b0d0b8b9917ae98": {
        "balance": "0",
        "nonce": "2",
        "storage": {
          "0x0000000000000000000000000000000000000000000000000000000000000000": "0x0ccfcb97611c13f90693e568e432ecd5f724be52"
        },
        "hashBytecode": "0x64497bfbeee254b7643cdd7437c59c62bc8f88d0628fe5fcb4bbbaf02d84f510",
        "bytecodeLength": 1067
      },
      "0x0ccfcb97611c13f90693e568e432ecd5f724be52": {
        "balance": "0",
        "nonce": "1",
        "storage": {},
        "hashBytecode": "0xc0fd06b9925aa0ad80b36b53e4db33fd659858f947ae35572f980fb41f5af5e3",
        "bytecodeLength": 187
      }
    },
    "timestamp": 1944498031,
    "newLocalExitRoot": "0x0000000000000000000000000000000000000000000000000000000000000000",
    "batchHashData": "0x74c28531c0089cb89e8d90bf11e0f6ddbd7a50ae1fe93e37fd95dc31c4075c3b",
    "globalExitRoot": "0x090bcaf734c4f06c93954a827b45a6e8c67b8e0fd1e0a35a1c5982d6961828f9",
    "batchL2Data": "0xf9016c80843b9aca00830c3500941275fbb540c8efc58b812ba83b0d0b8b9917ae9880b901445b8e9959000000000000000000000000000000000000000000000000000000000000004000000000000000000000000000000000000000000000000000000000000000da00000000000000000000000000000000000000000000000000000000000000da608060405234801561001057600080fd5b5060bb8061001f6000396000f3fe6080604052348015600f57600080fd5b506004361060285760003560e01c8063f6d97e8c14602d575b600080fd5b60336047565b604051603e91906062565b60405180910390f35b600080600390508091505090565b605c81607b565b82525050565b6000602082019050607560008301846055565b92915050565b600081905091905056fea2646970667358221220a33fdecaf587db45fa0e1fe4bfca25de09e35bb9a45fa6dab1bf1964244a929164736f6c634300080700330000000000008203e88080be29a9593301b691dd35929d3e74a021ddf801113d51728090bf8d1f0d93f9226bce72c254adb96ed972541500195992e6277b1d8f6afe72d84f1c509fda9a621b",
    "chainID": 1000,
    "oldAccInputHash": "0x0000000000000000000000000000000000000000000000000000000000000000"
  },
  {
    "id": 1,
    "description": "create2 opcode",
    "arity": 4,
    "chainIdSequencer": 1001,
    "defaultChainId": 1000,
    "sequencerAddress": "0x617b3a3528F9cDd6630fd3301B9c8911F7Bf063D",
    "sequencerPvtKey": "0x28b2b0318721be8c8339199172cd7cc8f5e273800a35616ec893083a4b32c02e",
    "genesis": [
      {
        "address": "0x617b3a3528F9cDd6630fd3301B9c8911F7Bf063D",
        "nonce": "0",
        "balance": "100000000000000000000",
        "pvtKey": "0x28b2b0318721be8c8339199172cd7cc8f5e273800a35616ec893083a4b32c02e"
      },
      {
        "address": "0x4d5Cf5032B2a844602278b01199ED191A86c93ff",
        "nonce": "0",
        "balance": "200000000000000000000",
        "pvtKey": "0x4d27a600dce8c29b7bd080e29a26972377dbb04d7a27d919adbb602bf13cfd23"
      },
      {
        "address": "0x1275fbb540c8efc58b812ba83b0d0b8b9917ae98",
        "nonce": 1,
        "balance": 0,
        "bytecode": "0x60806040526004361061004a5760003560e01c806327c845dc1461004f5780633c77eba3146100595780635b8e995914610089578063b88c4aa9146100c6578063e3306a25146100f6575b600080fd5b610057610133565b005b610073600480360381019061006e9190610232565b610141565b604051610080919061029d565b60405180910390f35b34801561009557600080fd5b506100b060048036038101906100ab9190610232565b61015b565b6040516100bd919061029d565b60405180910390f35b6100e060048036038101906100db9190610232565b610174565b6040516100ed919061029d565b60405180910390f35b34801561010257600080fd5b5061011d60048036038101906101189190610232565b610192565b60405161012a919061029d565b60405180910390f35b600034810190508060015550565b6000808260a06101f4f09050806000558091505092915050565b6000808260a06000f09050806000558091505092915050565b600080620555558360a061012cf59050806000558091505092915050565b60008060028360a06000f59050806000558091505092915050565b60006101c06101bb846102dd565b6102b8565b9050828152602081018484840111156101dc576101db6103be565b5b6101e784828561034a565b509392505050565b600082601f830112610204576102036103b9565b5b81356102148482602086016101ad565b91505092915050565b60008135905061022c816103de565b92915050565b60008060408385031215610249576102486103c8565b5b600083013567ffffffffffffffff811115610267576102666103c3565b5b610273858286016101ef565b92505060206102848582860161021d565b9150509250929050565b6102978161030e565b82525050565b60006020820190506102b2600083018461028e565b92915050565b60006102c26102d3565b90506102ce8282610359565b919050565b6000604051905090565b600067ffffffffffffffff8211156102f8576102f761038a565b5b610301826103cd565b9050602081019050919050565b600061031982610320565b9050919050565b600073ffffffffffffffffffffffffffffffffffffffff82169050919050565b6000819050919050565b82818337600083830152505050565b610362826103cd565b810181811067ffffffffffffffff821117156103815761038061038a565b5b80604052505050565b7f4e487b7100000000000000000000000000000000000000000000000000000000600052604160045260246000fd5b600080fd5b600080fd5b600080fd5b600080fd5b6000601f19601f8301169050919050565b6103e781610340565b81146103f257600080fd5b5056fea26469706673582212206d555c5cfdbc6e6298827b91813af1f15ae6cc068514956d5d4f1a0fa20d58c164736f6c63430008070033",
        "abi": [
          {
            "inputs": [
              {
                "internalType": "bytes",
                "name": "bytecode",
                "type": "bytes"
              },
              {
                "internalType": "uint256",
                "name": "length",
                "type": "uint256"
              }
            ],
            "name": "opCreate",
            "outputs": [
              {
                "internalType": "address",
                "name": "",
                "type": "address"
              }
            ],
            "stateMutability": "nonpayable",
            "type": "function"
          },
          {
            "inputs": [
              {
                "internalType": "bytes",
                "name": "bytecode",
                "type": "bytes"
              },
              {
                "internalType": "uint256",
                "name": "length",
                "type": "uint256"
              }
            ],
            "name": "opCreate2",
            "outputs": [
              {
                "internalType": "address",
                "name": "",
                "type": "address"
              }
            ],
            "stateMutability": "nonpayable",
            "type": "function"
          },
          {
            "inputs": [
              {
                "internalType": "bytes",
                "name": "bytecode",
                "type": "bytes"
              },
              {
                "internalType": "uint256",
                "name": "length",
                "type": "uint256"
              }
            ],
            "name": "opCreate2Value",
            "outputs": [
              {
                "internalType": "address",
                "name": "",
                "type": "address"
              }
            ],
            "stateMutability": "payable",
            "type": "function"
          },
          {
            "inputs": [
              {
                "internalType": "bytes",
                "name": "bytecode",
                "type": "bytes"
              },
              {
                "internalType": "uint256",
                "name": "length",
                "type": "uint256"
              }
            ],
            "name": "opCreateValue",
            "outputs": [
              {
                "internalType": "address",
                "name": "",
                "type": "address"
              }
            ],
            "stateMutability": "payable",
            "type": "function"
          },
          {
            "inputs": [],
            "name": "sendValue",
            "outputs": [],
            "stateMutability": "payable",
            "type": "function"
          }
        ],
        "storage": {}
      }
    ],
    "expectedOldRoot": "0xe6028b995d203f3f3b77f16f203012d9c286e3e744f6cb066a5baa418a61cbf8",
    "txs": [
      {
        "from": "0x4d5Cf5032B2a844602278b01199ED191A86c93ff",
        "to": "0x1275fbb540c8efc58b812ba83b0d0b8b9917ae98",
        "nonce": "0",
        "value": "0",
        "data": "0xe3306a25000000000000000000000000000000000000000000000000000000000000004000000000000000000000000000000000000000000000000000000000000000da00000000000000000000000000000000000000000000000000000000000000da608060405234801561001057600080fd5b5060bb8061001f6000396000f3fe6080604052348015600f57600080fd5b506004361060285760003560e01c8063f6d97e8c14602d575b600080fd5b60336047565b604051603e91906062565b60405180910390f35b600080600390508091505090565b605c81607b565b82525050565b6000602082019050607560008301846055565b92915050565b600081905091905056fea2646970667358221220a33fdecaf587db45fa0e1fe4bfca25de09e35bb9a45fa6dab1bf1964244a929164736f6c63430008070033000000000000",
        "gasLimit": 800000,
        "gasPrice": "1000000000",
        "chainId": 1000
      }
    ],
    "expectedNewRoot": "0xf24f2c2bc4f6bed6d72c04348e1eaa8239dd99562b8195261cd2c05c7cce0686",
    "expectedNewLeafs": {
      "0x617b3a3528F9cDd6630fd3301B9c8911F7Bf063D": {
        "balance": "100000117943000000000",
        "nonce": "0",
        "storage": null,
        "hashBytecode": "0x0000000000000000000000000000000000000000000000000000000000000000",
        "bytecodeLength": 0
      },
      "0x4d5Cf5032B2a844602278b01199ED191A86c93ff": {
        "balance": "199999882057000000000",
        "nonce": "1",
        "storage": null,
        "hashBytecode": "0x0000000000000000000000000000000000000000000000000000000000000000",
        "bytecodeLength": 0
      },
      "0x1275fbb540c8efc58b812ba83b0d0b8b9917ae98": {
        "balance": "0",
        "nonce": "2",
        "storage": {
          "0x0000000000000000000000000000000000000000000000000000000000000000": "0x327a17bf6fbd99e80b3950f996786cec5d81e1f7"
        },
        "hashBytecode": "0x64497bfbeee254b7643cdd7437c59c62bc8f88d0628fe5fcb4bbbaf02d84f510",
        "bytecodeLength": 1067
      },
      "0x327a17bf6fbd99e80b3950f996786cec5d81e1f7": {
        "balance": "0",
        "nonce": "1",
        "storage": {},
        "hashBytecode": "0xc0fd06b9925aa0ad80b36b53e4db33fd659858f947ae35572f980fb41f5af5e3",
        "bytecodeLength": 187
      }
    },
    "timestamp": 1944498031,
    "newLocalExitRoot": "0x0000000000000000000000000000000000000000000000000000000000000000",
    "batchHashData": "0x004e6cdbeab9204a8f9efff0585cef25da722b964530695e5ffc03a851d70164",
    "globalExitRoot": "0x090bcaf734c4f06c93954a827b45a6e8c67b8e0fd1e0a35a1c5982d6961828f9",
    "batchL2Data": "0xf9016c80843b9aca00830c3500941275fbb540c8efc58b812ba83b0d0b8b9917ae9880b90144e3306a25000000000000000000000000000000000000000000000000000000000000004000000000000000000000000000000000000000000000000000000000000000da00000000000000000000000000000000000000000000000000000000000000da608060405234801561001057600080fd5b5060bb8061001f6000396000f3fe6080604052348015600f57600080fd5b506004361060285760003560e01c8063f6d97e8c14602d575b600080fd5b60336047565b604051603e91906062565b60405180910390f35b600080600390508091505090565b605c81607b565b82525050565b6000602082019050607560008301846055565b92915050565b600081905091905056fea2646970667358221220a33fdecaf587db45fa0e1fe4bfca25de09e35bb9a45fa6dab1bf1964244a929164736f6c634300080700330000000000008203e8808022cf25afb555d4d7f0955cdbf77b3b66a0bd48a1bd07557b6d7b904f01a596bb28bc8fac00f9bb096e4175be6ff2a7596b0cb4d998893a81592491b1ceed16111b",
    "chainID": 1000,
    "oldAccInputHash": "0x0000000000000000000000000000000000000000000000000000000000000000"
  },
  {
    "id": 2,
    "description": "create opcode with value",
    "arity": 4,
    "chainIdSequencer": 1001,
    "defaultChainId": 1000,
    "sequencerAddress": "0x617b3a3528F9cDd6630fd3301B9c8911F7Bf063D",
    "sequencerPvtKey": "0x28b2b0318721be8c8339199172cd7cc8f5e273800a35616ec893083a4b32c02e",
    "genesis": [
      {
        "address": "0x617b3a3528F9cDd6630fd3301B9c8911F7Bf063D",
        "nonce": "0",
        "balance": "100000000000000000000",
        "pvtKey": "0x28b2b0318721be8c8339199172cd7cc8f5e273800a35616ec893083a4b32c02e"
      },
      {
        "address": "0x4d5Cf5032B2a844602278b01199ED191A86c93ff",
        "nonce": "0",
        "balance": "200000000000000000000",
        "pvtKey": "0x4d27a600dce8c29b7bd080e29a26972377dbb04d7a27d919adbb602bf13cfd23"
      },
      {
        "address": "0x1275fbb540c8efc58b812ba83b0d0b8b9917ae98",
        "nonce": 1,
        "balance": 0,
        "bytecode": "0x60806040526004361061004a5760003560e01c806327c845dc1461004f5780633c77eba3146100595780635b8e995914610089578063b88c4aa9146100c6578063e3306a25146100f6575b600080fd5b610057610133565b005b610073600480360381019061006e9190610232565b610141565b604051610080919061029d565b60405180910390f35b34801561009557600080fd5b506100b060048036038101906100ab9190610232565b61015b565b6040516100bd919061029d565b60405180910390f35b6100e060048036038101906100db9190610232565b610174565b6040516100ed919061029d565b60405180910390f35b34801561010257600080fd5b5061011d60048036038101906101189190610232565b610192565b60405161012a919061029d565b60405180910390f35b600034810190508060015550565b6000808260a06101f4f09050806000558091505092915050565b6000808260a06000f09050806000558091505092915050565b600080620555558360a061012cf59050806000558091505092915050565b60008060028360a06000f59050806000558091505092915050565b60006101c06101bb846102dd565b6102b8565b9050828152602081018484840111156101dc576101db6103be565b5b6101e784828561034a565b509392505050565b600082601f830112610204576102036103b9565b5b81356102148482602086016101ad565b91505092915050565b60008135905061022c816103de565b92915050565b60008060408385031215610249576102486103c8565b5b600083013567ffffffffffffffff811115610267576102666103c3565b5b610273858286016101ef565b92505060206102848582860161021d565b9150509250929050565b6102978161030e565b82525050565b60006020820190506102b2600083018461028e565b92915050565b60006102c26102d3565b90506102ce8282610359565b919050565b6000604051905090565b600067ffffffffffffffff8211156102f8576102f761038a565b5b610301826103cd565b9050602081019050919050565b600061031982610320565b9050919050565b600073ffffffffffffffffffffffffffffffffffffffff82169050919050565b6000819050919050565b82818337600083830152505050565b610362826103cd565b810181811067ffffffffffffffff821117156103815761038061038a565b5b80604052505050565b7f4e487b7100000000000000000000000000000000000000000000000000000000600052604160045260246000fd5b600080fd5b600080fd5b600080fd5b600080fd5b6000601f19601f8301169050919050565b6103e781610340565b81146103f257600080fd5b5056fea26469706673582212206d555c5cfdbc6e6298827b91813af1f15ae6cc068514956d5d4f1a0fa20d58c164736f6c63430008070033",
        "abi": [
          {
            "inputs": [
              {
                "internalType": "bytes",
                "name": "bytecode",
                "type": "bytes"
              },
              {
                "internalType": "uint256",
                "name": "length",
                "type": "uint256"
              }
            ],
            "name": "opCreate",
            "outputs": [
              {
                "internalType": "address",
                "name": "",
                "type": "address"
              }
            ],
            "stateMutability": "nonpayable",
            "type": "function"
          },
          {
            "inputs": [
              {
                "internalType": "bytes",
                "name": "bytecode",
                "type": "bytes"
              },
              {
                "internalType": "uint256",
                "name": "length",
                "type": "uint256"
              }
            ],
            "name": "opCreate2",
            "outputs": [
              {
                "internalType": "address",
                "name": "",
                "type": "address"
              }
            ],
            "stateMutability": "nonpayable",
            "type": "function"
          },
          {
            "inputs": [
              {
                "internalType": "bytes",
                "name": "bytecode",
                "type": "bytes"
              },
              {
                "internalType": "uint256",
                "name": "length",
                "type": "uint256"
              }
            ],
            "name": "opCreate2Value",
            "outputs": [
              {
                "internalType": "address",
                "name": "",
                "type": "address"
              }
            ],
            "stateMutability": "payable",
            "type": "function"
          },
          {
            "inputs": [
              {
                "internalType": "bytes",
                "name": "bytecode",
                "type": "bytes"
              },
              {
                "internalType": "uint256",
                "name": "length",
                "type": "uint256"
              }
            ],
            "name": "opCreateValue",
            "outputs": [
              {
                "internalType": "address",
                "name": "",
                "type": "address"
              }
            ],
            "stateMutability": "payable",
            "type": "function"
          },
          {
            "inputs": [],
            "name": "sendValue",
            "outputs": [],
            "stateMutability": "payable",
            "type": "function"
          }
        ],
        "storage": {}
      }
    ],
    "expectedOldRoot": "0xe6028b995d203f3f3b77f16f203012d9c286e3e744f6cb066a5baa418a61cbf8",
    "txs": [
      {
        "from": "0x4d5Cf5032B2a844602278b01199ED191A86c93ff",
        "to": "0x1275fbb540c8efc58b812ba83b0d0b8b9917ae98",
        "nonce": "0",
        "value": "1000",
        "data": "0x27c845dc",
        "gasLimit": 800000,
        "gasPrice": "1000000000",
        "chainId": 1000
      },
      {
        "from": "0x4d5Cf5032B2a844602278b01199ED191A86c93ff",
        "to": "0x1275fbb540c8efc58b812ba83b0d0b8b9917ae98",
        "nonce": "1",
        "value": "0",
        "data": "0x3c77eba3000000000000000000000000000000000000000000000000000000000000004000000000000000000000000000000000000000000000000000000000000002a000000000000000000000000000000000000000000000000000000000000002a06080604052600160005560026001556102838061001d6000396000f3fe608060405234801561001057600080fd5b50600436106100625760003560e01c80630f0db778146100675780635ef3d3dd146100835780638ca3165d1461009f578063b698c129146100bd578063e4081625146100d9578063e795befc146100f7575b600080fd5b610081600480360381019061007c91906101bd565b610127565b005b61009d60048036038101906100989190610190565b610143565b005b6100a761014d565b6040516100b4919061020c565b60405180910390f35b6100d760048036038101906100d29190610190565b610153565b005b6100e161015d565b6040516100ee919061020c565b60405180910390f35b610111600480360381019061010c9190610190565b610163565b60405161011e919061020c565b60405180910390f35b8060026000848152602001908152602001600020819055505050565b8060008190555050565b60005481565b8060018190555050565b60015481565b60026020528060005260406000206000915090505481565b60008135905061018a81610236565b92915050565b6000602082840312156101a6576101a5610231565b5b60006101b48482850161017b565b91505092915050565b600080604083850312156101d4576101d3610231565b5b60006101e28582860161017b565b92505060206101f38582860161017b565b9150509250929050565b61020681610227565b82525050565b600060208201905061022160008301846101fd565b92915050565b6000819050919050565b600080fd5b61023f81610227565b811461024a57600080fd5b5056fea2646970667358221220d39e086335057db80f702ebac8a7123339d84f5501a81e2fa31d5c84c858fbb564736f6c63430008070033",
        "gasLimit": 800000,
        "gasPrice": "1000000000",
        "chainId": 1000
      }
    ],
    "expectedNewRoot": "0x5a37dd3204c35f6d5f4e2fac66c02e22fd57b6e61a27310771a34bb947c6caa6",
    "expectedNewLeafs": {
      "0x617b3a3528F9cDd6630fd3301B9c8911F7Bf063D": {
        "balance": "100000303525000000000",
        "nonce": "0",
        "storage": null,
        "hashBytecode": "0x0000000000000000000000000000000000000000000000000000000000000000",
        "bytecodeLength": 0
      },
      "0x4d5Cf5032B2a844602278b01199ED191A86c93ff": {
        "balance": "199999696474999999000",
        "nonce": "2",
        "storage": null,
        "hashBytecode": "0x0000000000000000000000000000000000000000000000000000000000000000",
        "bytecodeLength": 0
      },
      "0x1275fbb540c8efc58b812ba83b0d0b8b9917ae98": {
        "balance": "500",
        "nonce": "2",
        "storage": {
          "0x0000000000000000000000000000000000000000000000000000000000000000": "0x0ccfcb97611c13f90693e568e432ecd5f724be52",
          "0x0000000000000000000000000000000000000000000000000000000000000001": "0x03e8"
        },
        "hashBytecode": "0x64497bfbeee254b7643cdd7437c59c62bc8f88d0628fe5fcb4bbbaf02d84f510",
        "bytecodeLength": 1067
      },
      "0x0ccfcb97611c13f90693e568e432ecd5f724be52": {
        "balance": "500",
        "nonce": "1",
        "storage": {
          "0x0000000000000000000000000000000000000000000000000000000000000000": "0x01",
          "0x0000000000000000000000000000000000000000000000000000000000000001": "0x02"
        },
        "hashBytecode": "0xb441dc6e3f86a7e79eb2580a11d42c8e4fc8021f0a3d2f9f2383c26204800fb8",
        "bytecodeLength": 643
      }
    },
    "timestamp": 1944498031,
    "newLocalExitRoot": "0x0000000000000000000000000000000000000000000000000000000000000000",
    "batchHashData": "0x8aaf94bb111f2f3655f385bfec6590fe283fc2f9191e2f8b795213c72214b219",
    "globalExitRoot": "0x090bcaf734c4f06c93954a827b45a6e8c67b8e0fd1e0a35a1c5982d6961828f9",
    "batchL2Data": "0xec80843b9aca00830c3500941275fbb540c8efc58b812ba83b0d0b8b9917ae988203e88427c845dc8203e88080856ee652da1f3716650229e32accfc8b7fc85dbe88bda9fb90b38abcfc29087f2cd85d3fc8fc98377e5f649da74b38935de780c6aedacd209b71afca3f39ae0f1bf9032c01843b9aca00830c3500941275fbb540c8efc58b812ba83b0d0b8b9917ae9880b903043c77eba3000000000000000000000000000000000000000000000000000000000000004000000000000000000000000000000000000000000000000000000000000002a000000000000000000000000000000000000000000000000000000000000002a06080604052600160005560026001556102838061001d6000396000f3fe608060405234801561001057600080fd5b50600436106100625760003560e01c80630f0db778146100675780635ef3d3dd146100835780638ca3165d1461009f578063b698c129146100bd578063e4081625146100d9578063e795befc146100f7575b600080fd5b610081600480360381019061007c91906101bd565b610127565b005b61009d60048036038101906100989190610190565b610143565b005b6100a761014d565b6040516100b4919061020c565b60405180910390f35b6100d760048036038101906100d29190610190565b610153565b005b6100e161015d565b6040516100ee919061020c565b60405180910390f35b610111600480360381019061010c9190610190565b610163565b60405161011e919061020c565b60405180910390f35b8060026000848152602001908152602001600020819055505050565b8060008190555050565b60005481565b8060018190555050565b60015481565b60026020528060005260406000206000915090505481565b60008135905061018a81610236565b92915050565b6000602082840312156101a6576101a5610231565b5b60006101b48482850161017b565b91505092915050565b600080604083850312156101d4576101d3610231565b5b60006101e28582860161017b565b92505060206101f38582860161017b565b9150509250929050565b61020681610227565b82525050565b600060208201905061022160008301846101fd565b92915050565b6000819050919050565b600080fd5b61023f81610227565b811461024a57600080fd5b5056fea2646970667358221220d39e086335057db80f702ebac8a7123339d84f5501a81e2fa31d5c84c858fbb564736f6c634300080700338203e88080cfa31f429dde3ceb5e1151f20620bd871ebedcacee8c0277125138015378da005cc6c731edd335c2a22c9fc17c85baa71e331bcffb3091afdbc1ad3b76d867561c",
    "chainID": 1000,
    "oldAccInputHash": "0x0000000000000000000000000000000000000000000000000000000000000000"
  },
  {
    "id": 3,
    "description": "create2 opcode with value",
    "arity": 4,
    "chainIdSequencer": 1001,
    "defaultChainId": 1000,
    "sequencerAddress": "0x617b3a3528F9cDd6630fd3301B9c8911F7Bf063D",
    "sequencerPvtKey": "0x28b2b0318721be8c8339199172cd7cc8f5e273800a35616ec893083a4b32c02e",
    "genesis": [
      {
        "address": "0x617b3a3528F9cDd6630fd3301B9c8911F7Bf063D",
        "nonce": "0",
        "balance": "100000000000000000000",
        "pvtKey": "0x28b2b0318721be8c8339199172cd7cc8f5e273800a35616ec893083a4b32c02e"
      },
      {
        "address": "0x4d5Cf5032B2a844602278b01199ED191A86c93ff",
        "nonce": "0",
        "balance": "200000000000000000000",
        "pvtKey": "0x4d27a600dce8c29b7bd080e29a26972377dbb04d7a27d919adbb602bf13cfd23"
      },
      {
        "address": "0x1275fbb540c8efc58b812ba83b0d0b8b9917ae98",
        "nonce": 1,
        "balance": 0,
        "bytecode": "0x60806040526004361061004a5760003560e01c806327c845dc1461004f5780633c77eba3146100595780635b8e995914610089578063b88c4aa9146100c6578063e3306a25146100f6575b600080fd5b610057610133565b005b610073600480360381019061006e9190610232565b610141565b604051610080919061029d565b60405180910390f35b34801561009557600080fd5b506100b060048036038101906100ab9190610232565b61015b565b6040516100bd919061029d565b60405180910390f35b6100e060048036038101906100db9190610232565b610174565b6040516100ed919061029d565b60405180910390f35b34801561010257600080fd5b5061011d60048036038101906101189190610232565b610192565b60405161012a919061029d565b60405180910390f35b600034810190508060015550565b6000808260a06101f4f09050806000558091505092915050565b6000808260a06000f09050806000558091505092915050565b600080620555558360a061012cf59050806000558091505092915050565b60008060028360a06000f59050806000558091505092915050565b60006101c06101bb846102dd565b6102b8565b9050828152602081018484840111156101dc576101db6103be565b5b6101e784828561034a565b509392505050565b600082601f830112610204576102036103b9565b5b81356102148482602086016101ad565b91505092915050565b60008135905061022c816103de565b92915050565b60008060408385031215610249576102486103c8565b5b600083013567ffffffffffffffff811115610267576102666103c3565b5b610273858286016101ef565b92505060206102848582860161021d565b9150509250929050565b6102978161030e565b82525050565b60006020820190506102b2600083018461028e565b92915050565b60006102c26102d3565b90506102ce8282610359565b919050565b6000604051905090565b600067ffffffffffffffff8211156102f8576102f761038a565b5b610301826103cd565b9050602081019050919050565b600061031982610320565b9050919050565b600073ffffffffffffffffffffffffffffffffffffffff82169050919050565b6000819050919050565b82818337600083830152505050565b610362826103cd565b810181811067ffffffffffffffff821117156103815761038061038a565b5b80604052505050565b7f4e487b7100000000000000000000000000000000000000000000000000000000600052604160045260246000fd5b600080fd5b600080fd5b600080fd5b600080fd5b6000601f19601f8301169050919050565b6103e781610340565b81146103f257600080fd5b5056fea26469706673582212206d555c5cfdbc6e6298827b91813af1f15ae6cc068514956d5d4f1a0fa20d58c164736f6c63430008070033",
        "abi": [
          {
            "inputs": [
              {
                "internalType": "bytes",
                "name": "bytecode",
                "type": "bytes"
              },
              {
                "internalType": "uint256",
                "name": "length",
                "type": "uint256"
              }
            ],
            "name": "opCreate",
            "outputs": [
              {
                "internalType": "address",
                "name": "",
                "type": "address"
              }
            ],
            "stateMutability": "nonpayable",
            "type": "function"
          },
          {
            "inputs": [
              {
                "internalType": "bytes",
                "name": "bytecode",
                "type": "bytes"
              },
              {
                "internalType": "uint256",
                "name": "length",
                "type": "uint256"
              }
            ],
            "name": "opCreate2",
            "outputs": [
              {
                "internalType": "address",
                "name": "",
                "type": "address"
              }
            ],
            "stateMutability": "nonpayable",
            "type": "function"
          },
          {
            "inputs": [
              {
                "internalType": "bytes",
                "name": "bytecode",
                "type": "bytes"
              },
              {
                "internalType": "uint256",
                "name": "length",
                "type": "uint256"
              }
            ],
            "name": "opCreate2Value",
            "outputs": [
              {
                "internalType": "address",
                "name": "",
                "type": "address"
              }
            ],
            "stateMutability": "payable",
            "type": "function"
          },
          {
            "inputs": [
              {
                "internalType": "bytes",
                "name": "bytecode",
                "type": "bytes"
              },
              {
                "internalType": "uint256",
                "name": "length",
                "type": "uint256"
              }
            ],
            "name": "opCreateValue",
            "outputs": [
              {
                "internalType": "address",
                "name": "",
                "type": "address"
              }
            ],
            "stateMutability": "payable",
            "type": "function"
          },
          {
            "inputs": [],
            "name": "sendValue",
            "outputs": [],
            "stateMutability": "payable",
            "type": "function"
          }
        ],
        "storage": {}
      }
    ],
    "expectedOldRoot": "0xe6028b995d203f3f3b77f16f203012d9c286e3e744f6cb066a5baa418a61cbf8",
    "txs": [
      {
        "from": "0x4d5Cf5032B2a844602278b01199ED191A86c93ff",
        "to": "0x1275fbb540c8efc58b812ba83b0d0b8b9917ae98",
        "nonce": "0",
        "value": "1000",
        "data": "0x27c845dc",
        "gasLimit": 800000,
        "gasPrice": "1000000000",
        "chainId": 1000
      },
      {
        "from": "0x4d5Cf5032B2a844602278b01199ED191A86c93ff",
        "to": "0x1275fbb540c8efc58b812ba83b0d0b8b9917ae98",
        "nonce": "1",
        "value": "0",
        "data": "0xb88c4aa9000000000000000000000000000000000000000000000000000000000000004000000000000000000000000000000000000000000000000000000000000002a000000000000000000000000000000000000000000000000000000000000002a06080604052600160005560026001556102838061001d6000396000f3fe608060405234801561001057600080fd5b50600436106100625760003560e01c80630f0db778146100675780635ef3d3dd146100835780638ca3165d1461009f578063b698c129146100bd578063e4081625146100d9578063e795befc146100f7575b600080fd5b610081600480360381019061007c91906101bd565b610127565b005b61009d60048036038101906100989190610190565b610143565b005b6100a761014d565b6040516100b4919061020c565b60405180910390f35b6100d760048036038101906100d29190610190565b610153565b005b6100e161015d565b6040516100ee919061020c565b60405180910390f35b610111600480360381019061010c9190610190565b610163565b60405161011e919061020c565b60405180910390f35b8060026000848152602001908152602001600020819055505050565b8060008190555050565b60005481565b8060018190555050565b60015481565b60026020528060005260406000206000915090505481565b60008135905061018a81610236565b92915050565b6000602082840312156101a6576101a5610231565b5b60006101b48482850161017b565b91505092915050565b600080604083850312156101d4576101d3610231565b5b60006101e28582860161017b565b92505060206101f38582860161017b565b9150509250929050565b61020681610227565b82525050565b600060208201905061022160008301846101fd565b92915050565b6000819050919050565b600080fd5b61023f81610227565b811461024a57600080fd5b5056fea2646970667358221220d39e086335057db80f702ebac8a7123339d84f5501a81e2fa31d5c84c858fbb564736f6c63430008070033",
        "gasLimit": 800000,
        "gasPrice": "1000000000",
        "chainId": 1000
      }
    ],
    "expectedNewRoot": "0x97f79606a822c9c14374515b37096a4abde72035a88cf5ca282e6259f73bca84",
    "expectedNewLeafs": {
      "0x617b3a3528F9cDd6630fd3301B9c8911F7Bf063D": {
        "balance": "100000303698000000000",
        "nonce": "0",
        "storage": null,
        "hashBytecode": "0x0000000000000000000000000000000000000000000000000000000000000000",
        "bytecodeLength": 0
      },
      "0x4d5Cf5032B2a844602278b01199ED191A86c93ff": {
        "balance": "199999696301999999000",
        "nonce": "2",
        "storage": null,
        "hashBytecode": "0x0000000000000000000000000000000000000000000000000000000000000000",
        "bytecodeLength": 0
      },
      "0x1275fbb540c8efc58b812ba83b0d0b8b9917ae98": {
        "balance": "700",
        "nonce": "2",
        "storage": {
          "0x0000000000000000000000000000000000000000000000000000000000000000": "0x1baa42f276127db8ededfcf8bb7abafe9e58b715",
          "0x0000000000000000000000000000000000000000000000000000000000000001": "0x03e8"
        },
        "hashBytecode": "0x64497bfbeee254b7643cdd7437c59c62bc8f88d0628fe5fcb4bbbaf02d84f510",
        "bytecodeLength": 1067
      },
      "0x1baa42f276127db8ededfcf8bb7abafe9e58b715": {
        "balance": "300",
        "nonce": "1",
        "storage": {
          "0x0000000000000000000000000000000000000000000000000000000000000000": "0x01",
          "0x0000000000000000000000000000000000000000000000000000000000000001": "0x02"
        },
        "hashBytecode": "0xb441dc6e3f86a7e79eb2580a11d42c8e4fc8021f0a3d2f9f2383c26204800fb8",
        "bytecodeLength": 643
      }
    },
    "timestamp": 1944498031,
    "newLocalExitRoot": "0x0000000000000000000000000000000000000000000000000000000000000000",
    "batchHashData": "0x686db75133e34a51573c44d2a58a19ec492d6590eb557a0de795b45afabb7b0b",
    "globalExitRoot": "0x090bcaf734c4f06c93954a827b45a6e8c67b8e0fd1e0a35a1c5982d6961828f9",
    "batchL2Data": "0xec80843b9aca00830c3500941275fbb540c8efc58b812ba83b0d0b8b9917ae988203e88427c845dc8203e88080856ee652da1f3716650229e32accfc8b7fc85dbe88bda9fb90b38abcfc29087f2cd85d3fc8fc98377e5f649da74b38935de780c6aedacd209b71afca3f39ae0f1bf9032c01843b9aca00830c3500941275fbb540c8efc58b812ba83b0d0b8b9917ae9880b90304b88c4aa9000000000000000000000000000000000000000000000000000000000000004000000000000000000000000000000000000000000000000000000000000002a000000000000000000000000000000000000000000000000000000000000002a06080604052600160005560026001556102838061001d6000396000f3fe608060405234801561001057600080fd5b50600436106100625760003560e01c80630f0db778146100675780635ef3d3dd146100835780638ca3165d1461009f578063b698c129146100bd578063e4081625146100d9578063e795befc146100f7575b600080fd5b610081600480360381019061007c91906101bd565b610127565b005b61009d60048036038101906100989190610190565b610143565b005b6100a761014d565b6040516100b4919061020c565b60405180910390f35b6100d760048036038101906100d29190610190565b610153565b005b6100e161015d565b6040516100ee919061020c565b60405180910390f35b610111600480360381019061010c9190610190565b610163565b60405161011e919061020c565b60405180910390f35b8060026000848152602001908152602001600020819055505050565b8060008190555050565b60005481565b8060018190555050565b60015481565b60026020528060005260406000206000915090505481565b60008135905061018a81610236565b92915050565b6000602082840312156101a6576101a5610231565b5b60006101b48482850161017b565b91505092915050565b600080604083850312156101d4576101d3610231565b5b60006101e28582860161017b565b92505060206101f38582860161017b565b9150509250929050565b61020681610227565b82525050565b600060208201905061022160008301846101fd565b92915050565b6000819050919050565b600080fd5b61023f81610227565b811461024a57600080fd5b5056fea2646970667358221220d39e086335057db80f702ebac8a7123339d84f5501a81e2fa31d5c84c858fbb564736f6c634300080700338203e88080f4d627f9565422bad5c0326f8c18e4e8062c05b7bcf954fb142d3c5ac02ae8cc2cf27420830ccfe8f37283c42acf2aff4c2bf167985f95dcc60202162d65cfec1b",
    "chainID": 1000,
    "oldAccInputHash": "0x0000000000000000000000000000000000000000000000000000000000000000"
  }
]