[
  {
    "id": 0,
    "description": "CallA + CallCodeA + updateA",
    "arity": 4,
    "chainIdSequencer": 1001,
    "defaultChainId": 1000,
    "sequencerAddress": "0x617b3a3528F9cDd6630fd3301B9c8911F7Bf063D",
    "sequencerPvtKey": "0x28b2b0318721be8c8339199172cd7cc8f5e273800a35616ec893083a4b32c02e",
    "genesis": [
      {
        "address": "0x617b3a3528F9cDd6630fd3301B9c8911F7Bf063D",
        "nonce": "0",
        "balance": "100000000000000000000",
        "pvtKey": "0x28b2b0318721be8c8339199172cd7cc8f5e273800a35616ec893083a4b32c02e"
      },
      {
        "address": "0x4d5Cf5032B2a844602278b01199ED191A86c93ff",
        "nonce": "0",
        "balance": "200000000000000000000",
        "pvtKey": "0x4d27a600dce8c29b7bd080e29a26972377dbb04d7a27d919adbb602bf13cfd23"
      },
      {
        "address": "0x1275fbb540c8efc58b812ba83b0d0b8b9917ae98",
        "nonce": 1,
        "balance": 0,
        "bytecode": "0x6080604052600436106100345760003560e01c806371329408146100395780637655cfff146100555780637a12cc411461007e575b600080fd5b610053600480360381019061004e9190610647565b6100a7565b005b34801561006157600080fd5b5061007c600480360381019061007791906105bc565b6100ad565b005b34801561008a57600080fd5b506100a560048036038101906100a091906105bc565b610277565b005b33815550565b60008382815181106100c2576100c16109db565b5b6020026020010151905060008383815181106100e1576100e06109db565b5b60200260200101519050600081905033845560018461010091906108dc565b935060018360ff161415610182578073ffffffffffffffffffffffffffffffffffffffff16637655cfff8787876040518463ffffffff1660e01b815260040161014b9392919061078d565b600060405180830381600087803b15801561016557600080fd5b505af1158015610179573d6000803e3d6000fd5b5050505061026f565b60028360ff161415610202578073ffffffffffffffffffffffffffffffffffffffff16637a12cc418787876040518463ffffffff1660e01b81526004016101cb9392919061078d565b600060405180830381600087803b1580156101e557600080fd5b505af11580156101f9573d6000803e3d6000fd5b5050505061026e565b8073ffffffffffffffffffffffffffffffffffffffff166371329408856040518263ffffffff1660e01b815260040161023b91906107d2565b600060405180830381600087803b15801561025557600080fd5b505af1158015610269573d6000803e3d6000fd5b505050505b5b505050505050565b600083828151811061028c5761028b6109db565b5b6020026020010151905060008383815181106102ab576102aa6109db565b5b6020026020010151905060008190503384556001846102ca91906108dc565b935060018360ff16141561034c578073ffffffffffffffffffffffffffffffffffffffff16637655cfff8787876040518463ffffffff1660e01b81526004016103159392919061078d565b600060405180830381600087803b15801561032f57600080fd5b505af1158015610343573d6000803e3d6000fd5b50505050610439565b60028360ff1614156103cc578073ffffffffffffffffffffffffffffffffffffffff16637a12cc418787876040518463ffffffff1660e01b81526004016103959392919061078d565b600060405180830381600087803b1580156103af57600080fd5b505af11580156103c3573d6000803e3d6000fd5b50505050610438565b8073ffffffffffffffffffffffffffffffffffffffff166371329408856040518263ffffffff1660e01b815260040161040591906107d2565b600060405180830381600087803b15801561041f57600080fd5b505af1158015610433573d6000803e3d6000fd5b505050505b5b505050505050565b600061045461044f84610812565b6107ed565b9050808382526020820190508285602086028201111561047757610476610a3e565b5b60005b858110156104a7578161048d8882610521565b84526020840193506020830192505060018101905061047a565b5050509392505050565b60006104c46104bf8461083e565b6107ed565b905080838252602082019050828560208602820111156104e7576104e6610a3e565b5b60005b8581101561051757816104fd88826105a7565b8452602084019350602083019250506001810190506104ea565b5050509392505050565b60008135905061053081610a5e565b92915050565b600082601f83011261054b5761054a610a39565b5b813561055b848260208601610441565b91505092915050565b600082601f83011261057957610578610a39565b5b81356105898482602086016104b1565b91505092915050565b6000813590506105a181610a75565b92915050565b6000813590506105b681610a8c565b92915050565b6000806000606084860312156105d5576105d4610a48565b5b600084013567ffffffffffffffff8111156105f3576105f2610a43565b5b6105ff86828701610564565b935050602084013567ffffffffffffffff8111156106205761061f610a43565b5b61062c86828701610536565b925050604061063d86828701610592565b9150509250925092565b60006020828403121561065d5761065c610a48565b5b600061066b84828501610592565b91505092915050565b600061068083836106a4565b60208301905092915050565b6000610698838361077e565b60208301905092915050565b6106ad81610932565b82525050565b60006106be8261088a565b6106c881856108ba565b93506106d38361086a565b8060005b838110156107045781516106eb8882610674565b97506106f6836108a0565b9250506001810190506106d7565b5085935050505092915050565b600061071c82610895565b61072681856108cb565b93506107318361087a565b8060005b83811015610762578151610749888261068c565b9750610754836108ad565b925050600181019050610735565b5085935050505092915050565b61077881610964565b82525050565b6107878161096e565b82525050565b600060608201905081810360008301526107a78186610711565b905081810360208301526107bb81856106b3565b90506107ca604083018461076f565b949350505050565b60006020820190506107e7600083018461076f565b92915050565b60006107f7610808565b9050610803828261097b565b919050565b6000604051905090565b600067ffffffffffffffff82111561082d5761082c610a0a565b5b602082029050602081019050919050565b600067ffffffffffffffff82111561085957610858610a0a565b5b602082029050602081019050919050565b6000819050602082019050919050565b6000819050602082019050919050565b600081519050919050565b600081519050919050565b6000602082019050919050565b6000602082019050919050565b600082825260208201905092915050565b600082825260208201905092915050565b60006108e782610964565b91506108f283610964565b9250827fffffffffffffffffffffffffffffffffffffffffffffffffffffffffffffffff03821115610927576109266109ac565b5b828201905092915050565b600061093d82610944565b9050919050565b600073ffffffffffffffffffffffffffffffffffffffff82169050919050565b6000819050919050565b600060ff82169050919050565b61098482610a4d565b810181811067ffffffffffffffff821117156109a3576109a2610a0a565b5b80604052505050565b7f4e487b7100000000000000000000000000000000000000000000000000000000600052601160045260246000fd5b7f4e487b7100000000000000000000000000000000000000000000000000000000600052603260045260246000fd5b7f4e487b7100000000000000000000000000000000000000000000000000000000600052604160045260246000fd5b600080fd5b600080fd5b600080fd5b600080fd5b6000601f19601f8301169050919050565b610a6781610932565b8114610a7257600080fd5b50565b610a7e81610964565b8114610a8957600080fd5b50565b610a958161096e565b8114610aa057600080fd5b5056fea2646970667358221220ce8184965191d772b9962a4daff0e0c0edd67acb6bc0fbb2de97dd7206518fb364736f6c63430008070033",
        "abi": [
          {
            "inputs": [
              {
                "internalType": "uint256",
                "name": "count",
                "type": "uint256"
              }
            ],
            "name": "auxUpdateValues",
            "outputs": [],
            "stateMutability": "payable",
            "type": "function"
          },
          {
            "inputs": [
              {
                "internalType": "uint8[]",
                "name": "ops",
                "type": "uint8[]"
              },
              {
                "internalType": "address[]",
                "name": "addr",
                "type": "address[]"
              },
              {
                "internalType": "uint256",
                "name": "count",
                "type": "uint256"
              }
            ],
            "name": "opCall",
            "outputs": [],
            "stateMutability": "nonpayable",
            "type": "function"
          },
          {
            "inputs": [
              {
                "internalType": "uint8[]",
                "name": "ops",
                "type": "uint8[]"
              },
              {
                "internalType": "address[]",
                "name": "addr",
                "type": "address[]"
              },
              {
                "internalType": "uint256",
                "name": "count",
                "type": "uint256"
              }
            ],
            "name": "opCallCode",
            "outputs": [],
            "stateMutability": "nonpayable",
            "type": "function"
          }
        ],
        "storage": {}
      }
    ],
    "expectedOldRoot": "0x78c90db385520ab444537f73bfda00fa5f09eb1436a72780156f999c97be9919",
    "txs": [
      {
        "from": "0x4d5Cf5032B2a844602278b01199ED191A86c93ff",
        "to": "0x1275fbb540c8efc58b812ba83b0d0b8b9917ae98",
        "nonce": "0",
        "value": "0",
        "data": "0x7655cfff000000000000000000000000000000000000000000000000000000000000006000000000000000000000000000000000000000000000000000000000000000e00000000000000000000000000000000000000000000000000000000000000000000000000000000000000000000000000000000000000000000000000000000300000000000000000000000000000000000000000000000000000000000000010000000000000000000000000000000000000000000000000000000000000002000000000000000000000000000000000000000000000000000000000000000300000000000000000000000000000000000000000000000000000000000000030000000000000000000000001275fbb540c8efc58b812ba83b0d0b8b9917ae980000000000000000000000001275fbb540c8efc58b812ba83b0d0b8b9917ae980000000000000000000000001275fbb540c8efc58b812ba83b0d0b8b9917ae98",
        "gasLimit": 800000,
        "gasPrice": "1000000000",
        "chainId": 1001
      }
    ],
    "expectedNewRoot": "0x31b2a58eb35d4b8e5e8a04309129130ada0ea11615b96b53c12cb0e0489c408e",
    "expectedNewLeafs": {
      "0x617b3a3528F9cDd6630fd3301B9c8911F7Bf063D": {
        "balance": "100000129422000000000",
        "nonce": "0",
        "storage": null,
        "hashBytecode": "0x0000000000000000000000000000000000000000000000000000000000000000",
        "bytecodeLength": 0
      },
      "0x4d5Cf5032B2a844602278b01199ED191A86c93ff": {
        "balance": "199999870578000000000",
        "nonce": "1",
        "storage": null,
        "hashBytecode": "0x0000000000000000000000000000000000000000000000000000000000000000",
        "bytecodeLength": 0
      },
      "0x1275fbb540c8efc58b812ba83b0d0b8b9917ae98": {
        "balance": "0",
        "nonce": "1",
        "storage": {
          "0x0000000000000000000000000000000000000000000000000000000000000000": "0x4d5cf5032b2a844602278b01199ed191a86c93ff",
          "0x0000000000000000000000000000000000000000000000000000000000000001": "0x1275fbb540c8efc58b812ba83b0d0b8b9917ae98",
          "0x0000000000000000000000000000000000000000000000000000000000000002": "0x1275fbb540c8efc58b812ba83b0d0b8b9917ae98",
          "0x0000000000000000000000000000000000000000000000000000000000000003": "0x1275fbb540c8efc58b812ba83b0d0b8b9917ae98"
        },
        "hashBytecode": "0xa7929055c14a8d507a29f00fae8c3a410355e3a3779112226acb2c567e8ee80c",
        "bytecodeLength": 2777
      },
      "0x85e844b762a271022b692cf99ce5c59ba0650ac8": {
        "balance": "0",
        "nonce": "0",
        "storage": null,
        "hashBytecode": "0x0000000000000000000000000000000000000000000000000000000000000000",
        "bytecodeLength": 0
      },
      "0x13db4b51c5174ee2366e878a367aa1d426970ade": {
        "balance": "0",
        "nonce": "0",
        "storage": null,
        "hashBytecode": "0x0000000000000000000000000000000000000000000000000000000000000000",
        "bytecodeLength": 0
      }
    },
    "timestamp": 1944498031,
    "newLocalExitRoot": "0x0000000000000000000000000000000000000000000000000000000000000000",
    "batchHashData": "0x65a063d63287e8de5115769ae2eae51bd1239c965d5ba25aa7b7c94cedba4a67",
    "inputHash": "0x09526896375810ac6fe7b11f1bbeb0a5995c55beb504a1af713fef46b65a63a0",
    "globalExitRoot": "0x090bcaf734c4f06c93954a827b45a6e8c67b8e0fd1e0a35a1c5982d6961828f9",
    "oldLocalExitRoot": "0x0000000000000000000000000000000000000000000000000000000000000000",
    "batchL2Data": "0xf9018c80843b9aca00830c3500941275fbb540c8efc58b812ba83b0d0b8b9917ae9880b901647655cfff000000000000000000000000000000000000000000000000000000000000006000000000000000000000000000000000000000000000000000000000000000e00000000000000000000000000000000000000000000000000000000000000000000000000000000000000000000000000000000000000000000000000000000300000000000000000000000000000000000000000000000000000000000000010000000000000000000000000000000000000000000000000000000000000002000000000000000000000000000000000000000000000000000000000000000300000000000000000000000000000000000000000000000000000000000000030000000000000000000000001275fbb540c8efc58b812ba83b0d0b8b9917ae980000000000000000000000001275fbb540c8efc58b812ba83b0d0b8b9917ae980000000000000000000000001275fbb540c8efc58b812ba83b0d0b8b9917ae988203e98080ce84ea78ffa8071f77f1c89a3dcb5f275a096ef1a217620ec96aaef0de7b21c6635d89d8d7660e654c2bfdb406585d5ea578a5e7d264198c183970283d14cee61b"
  },
  {
    "id": 1,
    "description": "CallA + CallCodeB + updateC",
    "arity": 4,
    "chainIdSequencer": 1001,
    "defaultChainId": 1000,
    "sequencerAddress": "0x617b3a3528F9cDd6630fd3301B9c8911F7Bf063D",
    "sequencerPvtKey": "0x28b2b0318721be8c8339199172cd7cc8f5e273800a35616ec893083a4b32c02e",
    "genesis": [
      {
        "address": "0x617b3a3528F9cDd6630fd3301B9c8911F7Bf063D",
        "nonce": "0",
        "balance": "100000000000000000000",
        "pvtKey": "0x28b2b0318721be8c8339199172cd7cc8f5e273800a35616ec893083a4b32c02e"
      },
      {
        "address": "0x4d5Cf5032B2a844602278b01199ED191A86c93ff",
        "nonce": "0",
        "balance": "200000000000000000000",
        "pvtKey": "0x4d27a600dce8c29b7bd080e29a26972377dbb04d7a27d919adbb602bf13cfd23"
      },
      {
        "address": "0x1275fbb540c8efc58b812ba83b0d0b8b9917ae98",
        "nonce": 1,
        "balance": 0,
        "bytecode": "0x6080604052600436106100345760003560e01c806371329408146100395780637655cfff146100555780637a12cc411461007e575b600080fd5b610053600480360381019061004e9190610647565b6100a7565b005b34801561006157600080fd5b5061007c600480360381019061007791906105bc565b6100ad565b005b34801561008a57600080fd5b506100a560048036038101906100a091906105bc565b610277565b005b33815550565b60008382815181106100c2576100c16109db565b5b6020026020010151905060008383815181106100e1576100e06109db565b5b60200260200101519050600081905033845560018461010091906108dc565b935060018360ff161415610182578073ffffffffffffffffffffffffffffffffffffffff16637655cfff8787876040518463ffffffff1660e01b815260040161014b9392919061078d565b600060405180830381600087803b15801561016557600080fd5b505af1158015610179573d6000803e3d6000fd5b5050505061026f565b60028360ff161415610202578073ffffffffffffffffffffffffffffffffffffffff16637a12cc418787876040518463ffffffff1660e01b81526004016101cb9392919061078d565b600060405180830381600087803b1580156101e557600080fd5b505af11580156101f9573d6000803e3d6000fd5b5050505061026e565b8073ffffffffffffffffffffffffffffffffffffffff166371329408856040518263ffffffff1660e01b815260040161023b91906107d2565b600060405180830381600087803b15801561025557600080fd5b505af1158015610269573d6000803e3d6000fd5b505050505b5b505050505050565b600083828151811061028c5761028b6109db565b5b6020026020010151905060008383815181106102ab576102aa6109db565b5b6020026020010151905060008190503384556001846102ca91906108dc565b935060018360ff16141561034c578073ffffffffffffffffffffffffffffffffffffffff16637655cfff8787876040518463ffffffff1660e01b81526004016103159392919061078d565b600060405180830381600087803b15801561032f57600080fd5b505af1158015610343573d6000803e3d6000fd5b50505050610439565b60028360ff1614156103cc578073ffffffffffffffffffffffffffffffffffffffff16637a12cc418787876040518463ffffffff1660e01b81526004016103959392919061078d565b600060405180830381600087803b1580156103af57600080fd5b505af11580156103c3573d6000803e3d6000fd5b50505050610438565b8073ffffffffffffffffffffffffffffffffffffffff166371329408856040518263ffffffff1660e01b815260040161040591906107d2565b600060405180830381600087803b15801561041f57600080fd5b505af1158015610433573d6000803e3d6000fd5b505050505b5b505050505050565b600061045461044f84610812565b6107ed565b9050808382526020820190508285602086028201111561047757610476610a3e565b5b60005b858110156104a7578161048d8882610521565b84526020840193506020830192505060018101905061047a565b5050509392505050565b60006104c46104bf8461083e565b6107ed565b905080838252602082019050828560208602820111156104e7576104e6610a3e565b5b60005b8581101561051757816104fd88826105a7565b8452602084019350602083019250506001810190506104ea565b5050509392505050565b60008135905061053081610a5e565b92915050565b600082601f83011261054b5761054a610a39565b5b813561055b848260208601610441565b91505092915050565b600082601f83011261057957610578610a39565b5b81356105898482602086016104b1565b91505092915050565b6000813590506105a181610a75565b92915050565b6000813590506105b681610a8c565b92915050565b6000806000606084860312156105d5576105d4610a48565b5b600084013567ffffffffffffffff8111156105f3576105f2610a43565b5b6105ff86828701610564565b935050602084013567ffffffffffffffff8111156106205761061f610a43565b5b61062c86828701610536565b925050604061063d86828701610592565b9150509250925092565b60006020828403121561065d5761065c610a48565b5b600061066b84828501610592565b91505092915050565b600061068083836106a4565b60208301905092915050565b6000610698838361077e565b60208301905092915050565b6106ad81610932565b82525050565b60006106be8261088a565b6106c881856108ba565b93506106d38361086a565b8060005b838110156107045781516106eb8882610674565b97506106f6836108a0565b9250506001810190506106d7565b5085935050505092915050565b600061071c82610895565b61072681856108cb565b93506107318361087a565b8060005b83811015610762578151610749888261068c565b9750610754836108ad565b925050600181019050610735565b5085935050505092915050565b61077881610964565b82525050565b6107878161096e565b82525050565b600060608201905081810360008301526107a78186610711565b905081810360208301526107bb81856106b3565b90506107ca604083018461076f565b949350505050565b60006020820190506107e7600083018461076f565b92915050565b60006107f7610808565b9050610803828261097b565b919050565b6000604051905090565b600067ffffffffffffffff82111561082d5761082c610a0a565b5b602082029050602081019050919050565b600067ffffffffffffffff82111561085957610858610a0a565b5b602082029050602081019050919050565b6000819050602082019050919050565b6000819050602082019050919050565b600081519050919050565b600081519050919050565b6000602082019050919050565b6000602082019050919050565b600082825260208201905092915050565b600082825260208201905092915050565b60006108e782610964565b91506108f283610964565b9250827fffffffffffffffffffffffffffffffffffffffffffffffffffffffffffffffff03821115610927576109266109ac565b5b828201905092915050565b600061093d82610944565b9050919050565b600073ffffffffffffffffffffffffffffffffffffffff82169050919050565b6000819050919050565b600060ff82169050919050565b61098482610a4d565b810181811067ffffffffffffffff821117156109a3576109a2610a0a565b5b80604052505050565b7f4e487b7100000000000000000000000000000000000000000000000000000000600052601160045260246000fd5b7f4e487b7100000000000000000000000000000000000000000000000000000000600052603260045260246000fd5b7f4e487b7100000000000000000000000000000000000000000000000000000000600052604160045260246000fd5b600080fd5b600080fd5b600080fd5b600080fd5b6000601f19601f8301169050919050565b610a6781610932565b8114610a7257600080fd5b50565b610a7e81610964565b8114610a8957600080fd5b50565b610a958161096e565b8114610aa057600080fd5b5056fea2646970667358221220ce8184965191d772b9962a4daff0e0c0edd67acb6bc0fbb2de97dd7206518fb364736f6c63430008070033",
        "abi": [
          {
            "inputs": [
              {
                "internalType": "uint256",
                "name": "count",
                "type": "uint256"
              }
            ],
            "name": "auxUpdateValues",
            "outputs": [],
            "stateMutability": "payable",
            "type": "function"
          },
          {
            "inputs": [
              {
                "internalType": "uint8[]",
                "name": "ops",
                "type": "uint8[]"
              },
              {
                "internalType": "address[]",
                "name": "addr",
                "type": "address[]"
              },
              {
                "internalType": "uint256",
                "name": "count",
                "type": "uint256"
              }
            ],
            "name": "opCall",
            "outputs": [],
            "stateMutability": "nonpayable",
            "type": "function"
          },
          {
            "inputs": [
              {
                "internalType": "uint8[]",
                "name": "ops",
                "type": "uint8[]"
              },
              {
                "internalType": "address[]",
                "name": "addr",
                "type": "address[]"
              },
              {
                "internalType": "uint256",
                "name": "count",
                "type": "uint256"
              }
            ],
            "name": "opCallCode",
            "outputs": [],
            "stateMutability": "nonpayable",
            "type": "function"
          }
        ],
        "storage": {}
      },
      {
        "address": "0x85e844b762a271022b692cf99ce5c59ba0650ac8",
        "nonce": 1,
        "balance": 0,
        "bytecode": "0x6080604052600436106100345760003560e01c806371329408146100395780637655cfff146100555780637a12cc411461007e575b600080fd5b610053600480360381019061004e9190610647565b6100a7565b005b34801561006157600080fd5b5061007c600480360381019061007791906105bc565b6100ad565b005b34801561008a57600080fd5b506100a560048036038101906100a091906105bc565b610277565b005b33815550565b60008382815181106100c2576100c16109db565b5b6020026020010151905060008383815181106100e1576100e06109db565b5b60200260200101519050600081905033845560018461010091906108dc565b935060018360ff161415610182578073ffffffffffffffffffffffffffffffffffffffff16637655cfff8787876040518463ffffffff1660e01b815260040161014b9392919061078d565b600060405180830381600087803b15801561016557600080fd5b505af1158015610179573d6000803e3d6000fd5b5050505061026f565b60028360ff161415610202578073ffffffffffffffffffffffffffffffffffffffff16637a12cc418787876040518463ffffffff1660e01b81526004016101cb9392919061078d565b600060405180830381600087803b1580156101e557600080fd5b505af11580156101f9573d6000803e3d6000fd5b5050505061026e565b8073ffffffffffffffffffffffffffffffffffffffff166371329408856040518263ffffffff1660e01b815260040161023b91906107d2565b600060405180830381600087803b15801561025557600080fd5b505af1158015610269573d6000803e3d6000fd5b505050505b5b505050505050565b600083828151811061028c5761028b6109db565b5b6020026020010151905060008383815181106102ab576102aa6109db565b5b6020026020010151905060008190503384556001846102ca91906108dc565b935060018360ff16141561034c578073ffffffffffffffffffffffffffffffffffffffff16637655cfff8787876040518463ffffffff1660e01b81526004016103159392919061078d565b600060405180830381600087803b15801561032f57600080fd5b505af1158015610343573d6000803e3d6000fd5b50505050610439565b60028360ff1614156103cc578073ffffffffffffffffffffffffffffffffffffffff16637a12cc418787876040518463ffffffff1660e01b81526004016103959392919061078d565b600060405180830381600087803b1580156103af57600080fd5b505af11580156103c3573d6000803e3d6000fd5b50505050610438565b8073ffffffffffffffffffffffffffffffffffffffff166371329408856040518263ffffffff1660e01b815260040161040591906107d2565b600060405180830381600087803b15801561041f57600080fd5b505af1158015610433573d6000803e3d6000fd5b505050505b5b505050505050565b600061045461044f84610812565b6107ed565b9050808382526020820190508285602086028201111561047757610476610a3e565b5b60005b858110156104a7578161048d8882610521565b84526020840193506020830192505060018101905061047a565b5050509392505050565b60006104c46104bf8461083e565b6107ed565b905080838252602082019050828560208602820111156104e7576104e6610a3e565b5b60005b8581101561051757816104fd88826105a7565b8452602084019350602083019250506001810190506104ea565b5050509392505050565b60008135905061053081610a5e565b92915050565b600082601f83011261054b5761054a610a39565b5b813561055b848260208601610441565b91505092915050565b600082601f83011261057957610578610a39565b5b81356105898482602086016104b1565b91505092915050565b6000813590506105a181610a75565b92915050565b6000813590506105b681610a8c565b92915050565b6000806000606084860312156105d5576105d4610a48565b5b600084013567ffffffffffffffff8111156105f3576105f2610a43565b5b6105ff86828701610564565b935050602084013567ffffffffffffffff8111156106205761061f610a43565b5b61062c86828701610536565b925050604061063d86828701610592565b9150509250925092565b60006020828403121561065d5761065c610a48565b5b600061066b84828501610592565b91505092915050565b600061068083836106a4565b60208301905092915050565b6000610698838361077e565b60208301905092915050565b6106ad81610932565b82525050565b60006106be8261088a565b6106c881856108ba565b93506106d38361086a565b8060005b838110156107045781516106eb8882610674565b97506106f6836108a0565b9250506001810190506106d7565b5085935050505092915050565b600061071c82610895565b61072681856108cb565b93506107318361087a565b8060005b83811015610762578151610749888261068c565b9750610754836108ad565b925050600181019050610735565b5085935050505092915050565b61077881610964565b82525050565b6107878161096e565b82525050565b600060608201905081810360008301526107a78186610711565b905081810360208301526107bb81856106b3565b90506107ca604083018461076f565b949350505050565b60006020820190506107e7600083018461076f565b92915050565b60006107f7610808565b9050610803828261097b565b919050565b6000604051905090565b600067ffffffffffffffff82111561082d5761082c610a0a565b5b602082029050602081019050919050565b600067ffffffffffffffff82111561085957610858610a0a565b5b602082029050602081019050919050565b6000819050602082019050919050565b6000819050602082019050919050565b600081519050919050565b600081519050919050565b6000602082019050919050565b6000602082019050919050565b600082825260208201905092915050565b600082825260208201905092915050565b60006108e782610964565b91506108f283610964565b9250827fffffffffffffffffffffffffffffffffffffffffffffffffffffffffffffffff03821115610927576109266109ac565b5b828201905092915050565b600061093d82610944565b9050919050565b600073ffffffffffffffffffffffffffffffffffffffff82169050919050565b6000819050919050565b600060ff82169050919050565b61098482610a4d565b810181811067ffffffffffffffff821117156109a3576109a2610a0a565b5b80604052505050565b7f4e487b7100000000000000000000000000000000000000000000000000000000600052601160045260246000fd5b7f4e487b7100000000000000000000000000000000000000000000000000000000600052603260045260246000fd5b7f4e487b7100000000000000000000000000000000000000000000000000000000600052604160045260246000fd5b600080fd5b600080fd5b600080fd5b600080fd5b6000601f19601f8301169050919050565b610a6781610932565b8114610a7257600080fd5b50565b610a7e81610964565b8114610a8957600080fd5b50565b610a958161096e565b8114610aa057600080fd5b5056fea26469706673582212204c2372233fd627fe4b54545820459d6a3d29be27bd36e45229610d75523f203b64736f6c63430008070033",
        "abi": [
          {
            "inputs": [
              {
                "internalType": "uint256",
                "name": "count",
                "type": "uint256"
              }
            ],
            "name": "auxUpdateValues",
            "outputs": [],
            "stateMutability": "payable",
            "type": "function"
          },
          {
            "inputs": [
              {
                "internalType": "uint8[]",
                "name": "ops",
                "type": "uint8[]"
              },
              {
                "internalType": "address[]",
                "name": "addr",
                "type": "address[]"
              },
              {
                "internalType": "uint256",
                "name": "count",
                "type": "uint256"
              }
            ],
            "name": "opCall",
            "outputs": [],
            "stateMutability": "nonpayable",
            "type": "function"
          },
          {
            "inputs": [
              {
                "internalType": "uint8[]",
                "name": "ops",
                "type": "uint8[]"
              },
              {
                "internalType": "address[]",
                "name": "addr",
                "type": "address[]"
              },
              {
                "internalType": "uint256",
                "name": "count",
                "type": "uint256"
              }
            ],
            "name": "opCallCode",
            "outputs": [],
            "stateMutability": "nonpayable",
            "type": "function"
          }
        ],
        "storage": {}
      },
      {
        "address": "0x13db4b51c5174ee2366e878a367aa1d426970ade",
        "nonce": 1,
        "balance": 0,
        "bytecode": "0x6080604052600436106100345760003560e01c806371329408146100395780637655cfff146100555780637a12cc411461007e575b600080fd5b610053600480360381019061004e9190610647565b6100a7565b005b34801561006157600080fd5b5061007c600480360381019061007791906105bc565b6100ad565b005b34801561008a57600080fd5b506100a560048036038101906100a091906105bc565b610277565b005b33815550565b60008382815181106100c2576100c16109db565b5b6020026020010151905060008383815181106100e1576100e06109db565b5b60200260200101519050600081905033845560018461010091906108dc565b935060018360ff161415610182578073ffffffffffffffffffffffffffffffffffffffff16637655cfff8787876040518463ffffffff1660e01b815260040161014b9392919061078d565b600060405180830381600087803b15801561016557600080fd5b505af1158015610179573d6000803e3d6000fd5b5050505061026f565b60028360ff161415610202578073ffffffffffffffffffffffffffffffffffffffff16637a12cc418787876040518463ffffffff1660e01b81526004016101cb9392919061078d565b600060405180830381600087803b1580156101e557600080fd5b505af11580156101f9573d6000803e3d6000fd5b5050505061026e565b8073ffffffffffffffffffffffffffffffffffffffff166371329408856040518263ffffffff1660e01b815260040161023b91906107d2565b600060405180830381600087803b15801561025557600080fd5b505af1158015610269573d6000803e3d6000fd5b505050505b5b505050505050565b600083828151811061028c5761028b6109db565b5b6020026020010151905060008383815181106102ab576102aa6109db565b5b6020026020010151905060008190503384556001846102ca91906108dc565b935060018360ff16141561034c578073ffffffffffffffffffffffffffffffffffffffff16637655cfff8787876040518463ffffffff1660e01b81526004016103159392919061078d565b600060405180830381600087803b15801561032f57600080fd5b505af1158015610343573d6000803e3d6000fd5b50505050610439565b60028360ff1614156103cc578073ffffffffffffffffffffffffffffffffffffffff16637a12cc418787876040518463ffffffff1660e01b81526004016103959392919061078d565b600060405180830381600087803b1580156103af57600080fd5b505af11580156103c3573d6000803e3d6000fd5b50505050610438565b8073ffffffffffffffffffffffffffffffffffffffff166371329408856040518263ffffffff1660e01b815260040161040591906107d2565b600060405180830381600087803b15801561041f57600080fd5b505af1158015610433573d6000803e3d6000fd5b505050505b5b505050505050565b600061045461044f84610812565b6107ed565b9050808382526020820190508285602086028201111561047757610476610a3e565b5b60005b858110156104a7578161048d8882610521565b84526020840193506020830192505060018101905061047a565b5050509392505050565b60006104c46104bf8461083e565b6107ed565b905080838252602082019050828560208602820111156104e7576104e6610a3e565b5b60005b8581101561051757816104fd88826105a7565b8452602084019350602083019250506001810190506104ea565b5050509392505050565b60008135905061053081610a5e565b92915050565b600082601f83011261054b5761054a610a39565b5b813561055b848260208601610441565b91505092915050565b600082601f83011261057957610578610a39565b5b81356105898482602086016104b1565b91505092915050565b6000813590506105a181610a75565b92915050565b6000813590506105b681610a8c565b92915050565b6000806000606084860312156105d5576105d4610a48565b5b600084013567ffffffffffffffff8111156105f3576105f2610a43565b5b6105ff86828701610564565b935050602084013567ffffffffffffffff8111156106205761061f610a43565b5b61062c86828701610536565b925050604061063d86828701610592565b9150509250925092565b60006020828403121561065d5761065c610a48565b5b600061066b84828501610592565b91505092915050565b600061068083836106a4565b60208301905092915050565b6000610698838361077e565b60208301905092915050565b6106ad81610932565b82525050565b60006106be8261088a565b6106c881856108ba565b93506106d38361086a565b8060005b838110156107045781516106eb8882610674565b97506106f6836108a0565b9250506001810190506106d7565b5085935050505092915050565b600061071c82610895565b61072681856108cb565b93506107318361087a565b8060005b83811015610762578151610749888261068c565b9750610754836108ad565b925050600181019050610735565b5085935050505092915050565b61077881610964565b82525050565b6107878161096e565b82525050565b600060608201905081810360008301526107a78186610711565b905081810360208301526107bb81856106b3565b90506107ca604083018461076f565b949350505050565b60006020820190506107e7600083018461076f565b92915050565b60006107f7610808565b9050610803828261097b565b919050565b6000604051905090565b600067ffffffffffffffff82111561082d5761082c610a0a565b5b602082029050602081019050919050565b600067ffffffffffffffff82111561085957610858610a0a565b5b602082029050602081019050919050565b6000819050602082019050919050565b6000819050602082019050919050565b600081519050919050565b600081519050919050565b6000602082019050919050565b6000602082019050919050565b600082825260208201905092915050565b600082825260208201905092915050565b60006108e782610964565b91506108f283610964565b9250827fffffffffffffffffffffffffffffffffffffffffffffffffffffffffffffffff03821115610927576109266109ac565b5b828201905092915050565b600061093d82610944565b9050919050565b600073ffffffffffffffffffffffffffffffffffffffff82169050919050565b6000819050919050565b600060ff82169050919050565b61098482610a4d565b810181811067ffffffffffffffff821117156109a3576109a2610a0a565b5b80604052505050565b7f4e487b7100000000000000000000000000000000000000000000000000000000600052601160045260246000fd5b7f4e487b7100000000000000000000000000000000000000000000000000000000600052603260045260246000fd5b7f4e487b7100000000000000000000000000000000000000000000000000000000600052604160045260246000fd5b600080fd5b600080fd5b600080fd5b600080fd5b6000601f19601f8301169050919050565b610a6781610932565b8114610a7257600080fd5b50565b610a7e81610964565b8114610a8957600080fd5b50565b610a958161096e565b8114610aa057600080fd5b5056fea26469706673582212201d18fed25ceaaec04355e2b747968540b86eca73ddf523225c088bad0fadaad164736f6c63430008070033",
        "abi": [
          {
            "inputs": [
              {
                "internalType": "uint256",
                "name": "count",
                "type": "uint256"
              }
            ],
            "name": "auxUpdateValues",
            "outputs": [],
            "stateMutability": "payable",
            "type": "function"
          },
          {
            "inputs": [
              {
                "internalType": "uint8[]",
                "name": "ops",
                "type": "uint8[]"
              },
              {
                "internalType": "address[]",
                "name": "addr",
                "type": "address[]"
              },
              {
                "internalType": "uint256",
                "name": "count",
                "type": "uint256"
              }
            ],
            "name": "opCall",
            "outputs": [],
            "stateMutability": "nonpayable",
            "type": "function"
          },
          {
            "inputs": [
              {
                "internalType": "uint8[]",
                "name": "ops",
                "type": "uint8[]"
              },
              {
                "internalType": "address[]",
                "name": "addr",
                "type": "address[]"
              },
              {
                "internalType": "uint256",
                "name": "count",
                "type": "uint256"
              }
            ],
            "name": "opCallCode",
            "outputs": [],
            "stateMutability": "nonpayable",
            "type": "function"
          }
        ],
        "storage": {}
      },
      {
        "address": "0x7b086db4c71520cde18d5a7db5a3001ddc122838",
        "nonce": 1,
        "balance": 0,
        "bytecode": "0x6080604052600436106100345760003560e01c806371329408146100395780637655cfff146100555780637a12cc411461007e575b600080fd5b610053600480360381019061004e9190610650565b6100a7565b005b34801561006157600080fd5b5061007c600480360381019061007791906105c5565b6100b0565b005b34801561008a57600080fd5b506100a560048036038101906100a091906105c5565b61027d565b005b33600a82015550565b60008382815181106100c5576100c46109e4565b5b6020026020010151905060008383815181106100e4576100e36109e4565b5b60200260200101519050600081905033600a85015560018461010691906108e5565b935060018360ff161415610188578073ffffffffffffffffffffffffffffffffffffffff16637655cfff8787876040518463ffffffff1660e01b815260040161015193929190610796565b600060405180830381600087803b15801561016b57600080fd5b505af115801561017f573d6000803e3d6000fd5b50505050610275565b60028360ff161415610208578073ffffffffffffffffffffffffffffffffffffffff16637a12cc418787876040518463ffffffff1660e01b81526004016101d193929190610796565b600060405180830381600087803b1580156101eb57600080fd5b505af11580156101ff573d6000803e3d6000fd5b50505050610274565b8073ffffffffffffffffffffffffffffffffffffffff166371329408856040518263ffffffff1660e01b815260040161024191906107db565b600060405180830381600087803b15801561025b57600080fd5b505af115801561026f573d6000803e3d6000fd5b505050505b5b505050505050565b6000838281518110610292576102916109e4565b5b6020026020010151905060008383815181106102b1576102b06109e4565b5b60200260200101519050600081905033600a8501556001846102d391906108e5565b935060018360ff161415610355578073ffffffffffffffffffffffffffffffffffffffff16637655cfff8787876040518463ffffffff1660e01b815260040161031e93929190610796565b600060405180830381600087803b15801561033857600080fd5b505af115801561034c573d6000803e3d6000fd5b50505050610442565b60028360ff1614156103d5578073ffffffffffffffffffffffffffffffffffffffff16637a12cc418787876040518463ffffffff1660e01b815260040161039e93929190610796565b600060405180830381600087803b1580156103b857600080fd5b505af11580156103cc573d6000803e3d6000fd5b50505050610441565b8073ffffffffffffffffffffffffffffffffffffffff166371329408856040518263ffffffff1660e01b815260040161040e91906107db565b600060405180830381600087803b15801561042857600080fd5b505af115801561043c573d6000803e3d6000fd5b505050505b5b505050505050565b600061045d6104588461081b565b6107f6565b905080838252602082019050828560208602820111156104805761047f610a47565b5b60005b858110156104b05781610496888261052a565b845260208401935060208301925050600181019050610483565b5050509392505050565b60006104cd6104c884610847565b6107f6565b905080838252602082019050828560208602820111156104f0576104ef610a47565b5b60005b85811015610520578161050688826105b0565b8452602084019350602083019250506001810190506104f3565b5050509392505050565b60008135905061053981610a67565b92915050565b600082601f83011261055457610553610a42565b5b813561056484826020860161044a565b91505092915050565b600082601f83011261058257610581610a42565b5b81356105928482602086016104ba565b91505092915050565b6000813590506105aa81610a7e565b92915050565b6000813590506105bf81610a95565b92915050565b6000806000606084860312156105de576105dd610a51565b5b600084013567ffffffffffffffff8111156105fc576105fb610a4c565b5b6106088682870161056d565b935050602084013567ffffffffffffffff81111561062957610628610a4c565b5b6106358682870161053f565b92505060406106468682870161059b565b9150509250925092565b60006020828403121561066657610665610a51565b5b60006106748482850161059b565b91505092915050565b600061068983836106ad565b60208301905092915050565b60006106a18383610787565b60208301905092915050565b6106b68161093b565b82525050565b60006106c782610893565b6106d181856108c3565b93506106dc83610873565b8060005b8381101561070d5781516106f4888261067d565b97506106ff836108a9565b9250506001810190506106e0565b5085935050505092915050565b60006107258261089e565b61072f81856108d4565b935061073a83610883565b8060005b8381101561076b5781516107528882610695565b975061075d836108b6565b92505060018101905061073e565b5085935050505092915050565b6107818161096d565b82525050565b61079081610977565b82525050565b600060608201905081810360008301526107b0818661071a565b905081810360208301526107c481856106bc565b90506107d36040830184610778565b949350505050565b60006020820190506107f06000830184610778565b92915050565b6000610800610811565b905061080c8282610984565b919050565b6000604051905090565b600067ffffffffffffffff82111561083657610835610a13565b5b602082029050602081019050919050565b600067ffffffffffffffff82111561086257610861610a13565b5b602082029050602081019050919050565b6000819050602082019050919050565b6000819050602082019050919050565b600081519050919050565b600081519050919050565b6000602082019050919050565b6000602082019050919050565b600082825260208201905092915050565b600082825260208201905092915050565b60006108f08261096d565b91506108fb8361096d565b9250827fffffffffffffffffffffffffffffffffffffffffffffffffffffffffffffffff038211156109305761092f6109b5565b5b828201905092915050565b60006109468261094d565b9050919050565b600073ffffffffffffffffffffffffffffffffffffffff82169050919050565b6000819050919050565b600060ff82169050919050565b61098d82610a56565b810181811067ffffffffffffffff821117156109ac576109ab610a13565b5b80604052505050565b7f4e487b7100000000000000000000000000000000000000000000000000000000600052601160045260246000fd5b7f4e487b7100000000000000000000000000000000000000000000000000000000600052603260045260246000fd5b7f4e487b7100000000000000000000000000000000000000000000000000000000600052604160045260246000fd5b600080fd5b600080fd5b600080fd5b600080fd5b6000601f19601f8301169050919050565b610a708161093b565b8114610a7b57600080fd5b50565b610a878161096d565b8114610a9257600080fd5b50565b610a9e81610977565b8114610aa957600080fd5b5056fea2646970667358221220d664dc70eb94c1d737840eea5e65f7eb2aa00676e09b9635d3047c177dacd61964736f6c63430008070033",
        "abi": [
          {
            "inputs": [
              {
                "internalType": "uint256",
                "name": "count",
                "type": "uint256"
              }
            ],
            "name": "auxUpdateValues",
            "outputs": [],
            "stateMutability": "payable",
            "type": "function"
          },
          {
            "inputs": [
              {
                "internalType": "uint8[]",
                "name": "ops",
                "type": "uint8[]"
              },
              {
                "internalType": "address[]",
                "name": "addr",
                "type": "address[]"
              },
              {
                "internalType": "uint256",
                "name": "count",
                "type": "uint256"
              }
            ],
            "name": "opCall",
            "outputs": [],
            "stateMutability": "nonpayable",
            "type": "function"
          },
          {
            "inputs": [
              {
                "internalType": "uint8[]",
                "name": "ops",
                "type": "uint8[]"
              },
              {
                "internalType": "address[]",
                "name": "addr",
                "type": "address[]"
              },
              {
                "internalType": "uint256",
                "name": "count",
                "type": "uint256"
              }
            ],
            "name": "opCallCode",
            "outputs": [],
            "stateMutability": "nonpayable",
            "type": "function"
          }
        ],
        "storage": {}
      }
    ],
    "expectedOldRoot": "0xb878033cadac9b65c77d25fcc37845c922028a29a5e9608c3ca3cc86bfc96b4a",
    "txs": [
      {
        "from": "0x4d5Cf5032B2a844602278b01199ED191A86c93ff",
        "to": "0x1275fbb540c8efc58b812ba83b0d0b8b9917ae98",
        "nonce": "0",
        "value": "0",
        "data": "0x7655cfff00000000000000000000000000000000000000000000000000000000000000600000000000000000000000000000000000000000000000000000000000000100000000000000000000000000000000000000000000000000000000000000000000000000000000000000000000000000000000000000000000000000000000040000000000000000000000000000000000000000000000000000000000000001000000000000000000000000000000000000000000000000000000000000000200000000000000000000000000000000000000000000000000000000000000010000000000000000000000000000000000000000000000000000000000000003000000000000000000000000000000000000000000000000000000000000000400000000000000000000000013db4b51c5174ee2366e878a367aa1d426970ade00000000000000000000000085e844b762a271022b692cf99ce5c59ba0650ac80000000000000000000000007b086db4c71520cde18d5a7db5a3001ddc1228380000000000000000000000001275fbb540c8efc58b812ba83b0d0b8b9917ae98",
        "gasLimit": 10000000,
        "gasPrice": "1000000000",
        "chainId": 1001
      }
    ],
    "expectedNewRoot": "0x73640e0f26ebdbac324db14abaf3c28827e9c67759b22395543222a82a9921f9",
    "expectedNewLeafs": {
      "0x617b3a3528F9cDd6630fd3301B9c8911F7Bf063D": {
        "balance": "100000170012000000000",
        "nonce": "0",
        "storage": null,
        "hashBytecode": "0x0000000000000000000000000000000000000000000000000000000000000000",
        "bytecodeLength": 0
      },
      "0x4d5Cf5032B2a844602278b01199ED191A86c93ff": {
        "balance": "199999829988000000000",
        "nonce": "1",
        "storage": null,
        "hashBytecode": "0x0000000000000000000000000000000000000000000000000000000000000000",
        "bytecodeLength": 0
      },
      "0x1275fbb540c8efc58b812ba83b0d0b8b9917ae98": {
        "balance": "0",
        "nonce": "1",
        "storage": {
          "0x0000000000000000000000000000000000000000000000000000000000000000": "0x4d5cf5032b2a844602278b01199ed191a86c93ff",
          "0x0000000000000000000000000000000000000000000000000000000000000004": "0x7b086db4c71520cde18d5a7db5a3001ddc122838"
        },
        "hashBytecode": "0xa7929055c14a8d507a29f00fae8c3a410355e3a3779112226acb2c567e8ee80c",
        "bytecodeLength": 2777
      },
      "0x85e844b762a271022b692cf99ce5c59ba0650ac8": {
        "balance": "0",
        "nonce": "1",
        "storage": {},
        "hashBytecode": "0x54fa0e1dcb5945755c9cd68c65e67b2e12c711b4b295418987f436a999568e1f",
        "bytecodeLength": 2777
      },
      "0x13db4b51c5174ee2366e878a367aa1d426970ade": {
        "balance": "0",
        "nonce": "1",
        "storage": {},
        "hashBytecode": "0x8191fd99f12c688202660e1dba7fb410d9afb1557abbb7e2e3849a6ffa70b9d7",
        "bytecodeLength": 2777
      },
      "0x7b086db4c71520cde18d5a7db5a3001ddc122838": {
        "balance": "0",
        "nonce": "1",
        "storage": {
          "0x000000000000000000000000000000000000000000000000000000000000000d": "0x85e844b762a271022b692cf99ce5c59ba0650ac8"
        },
        "hashBytecode": "0xfdefa36dd2ddb1ece82033c02b98b232bee990079818020cc2cb973f6e55c227",
        "bytecodeLength": 2786
      }
    },
    "timestamp": 1944498031,
    "newLocalExitRoot": "0x0000000000000000000000000000000000000000000000000000000000000000",
    "batchHashData": "0x8dbb83a3a526c9774981d2660918fde3b6021a0549dbc237d59fdc6b04a387aa",
    "inputHash": "0x9bdbd13cd8be71aa9f161532ce0b72ced79f0e4c4181ab34fce0de6a3e0028e6",
    "globalExitRoot": "0x090bcaf734c4f06c93954a827b45a6e8c67b8e0fd1e0a35a1c5982d6961828f9",
    "oldLocalExitRoot": "0x0000000000000000000000000000000000000000000000000000000000000000",
    "batchL2Data": "0xf901cc80843b9aca0083989680941275fbb540c8efc58b812ba83b0d0b8b9917ae9880b901a47655cfff00000000000000000000000000000000000000000000000000000000000000600000000000000000000000000000000000000000000000000000000000000100000000000000000000000000000000000000000000000000000000000000000000000000000000000000000000000000000000000000000000000000000000040000000000000000000000000000000000000000000000000000000000000001000000000000000000000000000000000000000000000000000000000000000200000000000000000000000000000000000000000000000000000000000000010000000000000000000000000000000000000000000000000000000000000003000000000000000000000000000000000000000000000000000000000000000400000000000000000000000013db4b51c5174ee2366e878a367aa1d426970ade00000000000000000000000085e844b762a271022b692cf99ce5c59ba0650ac80000000000000000000000007b086db4c71520cde18d5a7db5a3001ddc1228380000000000000000000000001275fbb540c8efc58b812ba83b0d0b8b9917ae988203e98080403fad7677f8046dcadaf106c2c29a708e82b27bfd1fcdf3651c6202f00f8e4d4854e773b6eab652aec445e5711b3fbff77b56ae499c17c34c5520d8fd5c25d21b"
  }
]