[
  {
    "id": 0,
    "description": "create opcode",
    "arity": 4,
    "chainIdSequencer": 1001,
    "defaultChainId": 1000,
    "sequencerAddress": "0x617b3a3528F9cDd6630fd3301B9c8911F7Bf063D",
    "sequencerPvtKey": "0x28b2b0318721be8c8339199172cd7cc8f5e273800a35616ec893083a4b32c02e",
    "genesis": [
      {
        "address": "0x617b3a3528F9cDd6630fd3301B9c8911F7Bf063D",
        "nonce": "0",
        "balance": "100000000000000000000",
        "pvtKey": "0x28b2b0318721be8c8339199172cd7cc8f5e273800a35616ec893083a4b32c02e"
      },
      {
        "address": "0x4d5Cf5032B2a844602278b01199ED191A86c93ff",
        "nonce": "0",
        "balance": "200000000000000000000",
        "pvtKey": "0x4d27a600dce8c29b7bd080e29a26972377dbb04d7a27d919adbb602bf13cfd23"
      },
      {
        "address": "0x1275fbb540c8efc58b812ba83b0d0b8b9917ae98",
        "nonce": 1,
        "balance": 0,
        "bytecode": "0x608060405234801561001057600080fd5b50600436106100365760003560e01c80635b8e99591461003b578063e3306a251461006b575b600080fd5b61005560048036038101906100509190610154565b61009b565b60405161006291906101bf565b60405180910390f35b61008560048036038101906100809190610154565b6100b4565b60405161009291906101bf565b60405180910390f35b6000808260a06000f09050806000558091505092915050565b60008060028360a06000f59050806000558091505092915050565b60006100e26100dd846101ff565b6101da565b9050828152602081018484840111156100fe576100fd6102e0565b5b61010984828561026c565b509392505050565b600082601f830112610126576101256102db565b5b81356101368482602086016100cf565b91505092915050565b60008135905061014e81610300565b92915050565b6000806040838503121561016b5761016a6102ea565b5b600083013567ffffffffffffffff811115610189576101886102e5565b5b61019585828601610111565b92505060206101a68582860161013f565b9150509250929050565b6101b981610230565b82525050565b60006020820190506101d460008301846101b0565b92915050565b60006101e46101f5565b90506101f0828261027b565b919050565b6000604051905090565b600067ffffffffffffffff82111561021a576102196102ac565b5b610223826102ef565b9050602081019050919050565b600061023b82610242565b9050919050565b600073ffffffffffffffffffffffffffffffffffffffff82169050919050565b6000819050919050565b82818337600083830152505050565b610284826102ef565b810181811067ffffffffffffffff821117156102a3576102a26102ac565b5b80604052505050565b7f4e487b7100000000000000000000000000000000000000000000000000000000600052604160045260246000fd5b600080fd5b600080fd5b600080fd5b600080fd5b6000601f19601f8301169050919050565b61030981610262565b811461031457600080fd5b5056fea2646970667358221220a3ee12e2fb8bed610f406c1147a154565f0e98f711f234e3e162de122f6f4be064736f6c63430008070033",
        "abi": [
          {
            "inputs": [
              {
                "internalType": "bytes",
                "name": "bytecode",
                "type": "bytes"
              },
              {
                "internalType": "uint256",
                "name": "length",
                "type": "uint256"
              }
            ],
            "name": "opCreate",
            "outputs": [
              {
                "internalType": "address",
                "name": "",
                "type": "address"
              }
            ],
            "stateMutability": "nonpayable",
            "type": "function"
          },
          {
            "inputs": [
              {
                "internalType": "bytes",
                "name": "bytecode",
                "type": "bytes"
              },
              {
                "internalType": "uint256",
                "name": "length",
                "type": "uint256"
              }
            ],
            "name": "opCreate2",
            "outputs": [
              {
                "internalType": "address",
                "name": "",
                "type": "address"
              }
            ],
            "stateMutability": "nonpayable",
            "type": "function"
          }
        ],
        "storage": {}
      }
    ],
    "expectedOldRoot": "0xfb6eef2ab7f3619b61b3e0b1b9307aedfd6b07173ab038128f7e8c3c2b53b3e3",
    "txs": [
      {
        "from": "0x4d5Cf5032B2a844602278b01199ED191A86c93ff",
        "to": "0x1275fbb540c8efc58b812ba83b0d0b8b9917ae98",
        "nonce": "0",
        "value": "0",
        "data": "0x5b8e9959000000000000000000000000000000000000000000000000000000000000004000000000000000000000000000000000000000000000000000000000000000da00000000000000000000000000000000000000000000000000000000000000da608060405234801561001057600080fd5b5060bb8061001f6000396000f3fe6080604052348015600f57600080fd5b506004361060285760003560e01c8063f6d97e8c14602d575b600080fd5b60336047565b604051603e91906062565b60405180910390f35b600080600390508091505090565b605c81607b565b82525050565b6000602082019050607560008301846055565b92915050565b600081905091905056fea2646970667358221220a33fdecaf587db45fa0e1fe4bfca25de09e35bb9a45fa6dab1bf1964244a929164736f6c63430008070033000000000000",
        "gasLimit": 800000,
        "gasPrice": "1000000000",
        "chainId": 1001
      }
    ],
    "expectedNewRoot": "0xf1a5614c71bf9fca1e1b427d7e230d277c11f546c6edfac7859862490545200d",
    "expectedNewLeafs": {
      "0x617b3a3528F9cDd6630fd3301B9c8911F7Bf063D": {
        "balance": "100000117810000000000",
        "nonce": "0",
        "storage": null,
        "hashBytecode": "0x0000000000000000000000000000000000000000000000000000000000000000"
      },
      "0x4d5Cf5032B2a844602278b01199ED191A86c93ff": {
        "balance": "199999882190000000000",
        "nonce": "1",
        "storage": null,
        "hashBytecode": "0x0000000000000000000000000000000000000000000000000000000000000000"
      },
      "0x1275fbb540c8efc58b812ba83b0d0b8b9917ae98": {
        "balance": "0",
        "nonce": "2",
        "storage": {
          "0x0000000000000000000000000000000000000000000000000000000000000000": "0x0ccfcb97611c13f90693e568e432ecd5f724be52"
        },
        "hashBytecode": "0x297409fd9222056f425bd535da90466f491884486cd5882f1be20d234aec067f"
      },
      "0x0ccfcb97611c13f90693e568e432ecd5f724be52": {
        "balance": "0",
        "nonce": "1",
        "storage": {},
        "hashBytecode": "0x8bacd828d4ea6ab6be4fb832c5f5d6b0c953ce069d38c49a64483f9aea07c540"
      }
    },
    "timestamp": 1944498031,
    "newLocalExitRoot": "0x0000000000000000000000000000000000000000000000000000000000000000",
    "batchHashData": "0x95fed08e693aeb70bee1b016166a39d7596d54868bc4a54d331732f07dacd966",
    "inputHash": "0x99d5d878ec9506d70ddbf229de506ac3e9b03249da5d8fe53fd78402809d3559",
    "globalExitRoot": "0x090bcaf734c4f06c93954a827b45a6e8c67b8e0fd1e0a35a1c5982d6961828f9",
    "oldLocalExitRoot": "0x0000000000000000000000000000000000000000000000000000000000000000",
    "batchL2Data": "0xf9016c80843b9aca00830c3500941275fbb540c8efc58b812ba83b0d0b8b9917ae9880b901445b8e9959000000000000000000000000000000000000000000000000000000000000004000000000000000000000000000000000000000000000000000000000000000da00000000000000000000000000000000000000000000000000000000000000da608060405234801561001057600080fd5b5060bb8061001f6000396000f3fe6080604052348015600f57600080fd5b506004361060285760003560e01c8063f6d97e8c14602d575b600080fd5b60336047565b604051603e91906062565b60405180910390f35b600080600390508091505090565b605c81607b565b82525050565b6000602082019050607560008301846055565b92915050565b600081905091905056fea2646970667358221220a33fdecaf587db45fa0e1fe4bfca25de09e35bb9a45fa6dab1bf1964244a929164736f6c634300080700330000000000008203e98080ba4300df2e55f8f668c8f38162a562cc7ef6b0199e0208db55b27b362a97c1747f8ae94692a61c0859928fdc26ae91652c1832a2048a6663e8f63f73497096af1b"
  },
  {
    "id": 1,
    "description": "create2 opcode",
    "arity": 4,
    "chainIdSequencer": 1001,
    "defaultChainId": 1000,
    "sequencerAddress": "0x617b3a3528F9cDd6630fd3301B9c8911F7Bf063D",
    "sequencerPvtKey": "0x28b2b0318721be8c8339199172cd7cc8f5e273800a35616ec893083a4b32c02e",
    "genesis": [
      {
        "address": "0x617b3a3528F9cDd6630fd3301B9c8911F7Bf063D",
        "nonce": "0",
        "balance": "100000000000000000000",
        "pvtKey": "0x28b2b0318721be8c8339199172cd7cc8f5e273800a35616ec893083a4b32c02e"
      },
      {
        "address": "0x4d5Cf5032B2a844602278b01199ED191A86c93ff",
        "nonce": "0",
        "balance": "200000000000000000000",
        "pvtKey": "0x4d27a600dce8c29b7bd080e29a26972377dbb04d7a27d919adbb602bf13cfd23"
      },
      {
        "address": "0x1275fbb540c8efc58b812ba83b0d0b8b9917ae98",
        "nonce": 1,
        "balance": 0,
        "bytecode": "0x608060405234801561001057600080fd5b50600436106100365760003560e01c80635b8e99591461003b578063e3306a251461006b575b600080fd5b61005560048036038101906100509190610154565b61009b565b60405161006291906101bf565b60405180910390f35b61008560048036038101906100809190610154565b6100b4565b60405161009291906101bf565b60405180910390f35b6000808260a06000f09050806000558091505092915050565b60008060028360a06000f59050806000558091505092915050565b60006100e26100dd846101ff565b6101da565b9050828152602081018484840111156100fe576100fd6102e0565b5b61010984828561026c565b509392505050565b600082601f830112610126576101256102db565b5b81356101368482602086016100cf565b91505092915050565b60008135905061014e81610300565b92915050565b6000806040838503121561016b5761016a6102ea565b5b600083013567ffffffffffffffff811115610189576101886102e5565b5b61019585828601610111565b92505060206101a68582860161013f565b9150509250929050565b6101b981610230565b82525050565b60006020820190506101d460008301846101b0565b92915050565b60006101e46101f5565b90506101f0828261027b565b919050565b6000604051905090565b600067ffffffffffffffff82111561021a576102196102ac565b5b610223826102ef565b9050602081019050919050565b600061023b82610242565b9050919050565b600073ffffffffffffffffffffffffffffffffffffffff82169050919050565b6000819050919050565b82818337600083830152505050565b610284826102ef565b810181811067ffffffffffffffff821117156102a3576102a26102ac565b5b80604052505050565b7f4e487b7100000000000000000000000000000000000000000000000000000000600052604160045260246000fd5b600080fd5b600080fd5b600080fd5b600080fd5b6000601f19601f8301169050919050565b61030981610262565b811461031457600080fd5b5056fea2646970667358221220a3ee12e2fb8bed610f406c1147a154565f0e98f711f234e3e162de122f6f4be064736f6c63430008070033",
        "abi": [
          {
            "inputs": [
              {
                "internalType": "bytes",
                "name": "bytecode",
                "type": "bytes"
              },
              {
                "internalType": "uint256",
                "name": "length",
                "type": "uint256"
              }
            ],
            "name": "opCreate",
            "outputs": [
              {
                "internalType": "address",
                "name": "",
                "type": "address"
              }
            ],
            "stateMutability": "nonpayable",
            "type": "function"
          },
          {
            "inputs": [
              {
                "internalType": "bytes",
                "name": "bytecode",
                "type": "bytes"
              },
              {
                "internalType": "uint256",
                "name": "length",
                "type": "uint256"
              }
            ],
            "name": "opCreate2",
            "outputs": [
              {
                "internalType": "address",
                "name": "",
                "type": "address"
              }
            ],
            "stateMutability": "nonpayable",
            "type": "function"
          }
        ],
        "storage": {}
      }
    ],
    "expectedOldRoot": "0xfb6eef2ab7f3619b61b3e0b1b9307aedfd6b07173ab038128f7e8c3c2b53b3e3",
    "txs": [
      {
        "from": "0x4d5Cf5032B2a844602278b01199ED191A86c93ff",
        "to": "0x1275fbb540c8efc58b812ba83b0d0b8b9917ae98",
        "nonce": "0",
        "value": "0",
        "data": "0xe3306a25000000000000000000000000000000000000000000000000000000000000004000000000000000000000000000000000000000000000000000000000000000da00000000000000000000000000000000000000000000000000000000000000da608060405234801561001057600080fd5b5060bb8061001f6000396000f3fe6080604052348015600f57600080fd5b506004361060285760003560e01c8063f6d97e8c14602d575b600080fd5b60336047565b604051603e91906062565b60405180910390f35b600080600390508091505090565b605c81607b565b82525050565b6000602082019050607560008301846055565b92915050565b600081905091905056fea2646970667358221220a33fdecaf587db45fa0e1fe4bfca25de09e35bb9a45fa6dab1bf1964244a929164736f6c63430008070033000000000000",
        "gasLimit": 800000,
        "gasPrice": "1000000000",
        "chainId": 1001
      }
    ],
    "expectedNewRoot": "0x440b5e4fd6b91dde79df823b49015b8f44b246285ac49c238f262ff0efb77944",
    "expectedNewLeafs": {
      "0x617b3a3528F9cDd6630fd3301B9c8911F7Bf063D": {
        "balance": "100000117877000000000",
        "nonce": "0",
        "storage": null,
        "hashBytecode": "0x0000000000000000000000000000000000000000000000000000000000000000"
      },
      "0x4d5Cf5032B2a844602278b01199ED191A86c93ff": {
        "balance": "199999882123000000000",
        "nonce": "1",
        "storage": null,
        "hashBytecode": "0x0000000000000000000000000000000000000000000000000000000000000000"
      },
      "0x1275fbb540c8efc58b812ba83b0d0b8b9917ae98": {
        "balance": "0",
        "nonce": "2",
        "storage": {
          "0x0000000000000000000000000000000000000000000000000000000000000000": "0x327a17bf6fbd99e80b3950f996786cec5d81e1f7"
        },
        "hashBytecode": "0x297409fd9222056f425bd535da90466f491884486cd5882f1be20d234aec067f"
      },
      "0x327a17bf6fbd99e80b3950f996786cec5d81e1f7": {
        "balance": "0",
        "nonce": "1",
        "storage": {},
        "hashBytecode": "0x8bacd828d4ea6ab6be4fb832c5f5d6b0c953ce069d38c49a64483f9aea07c540"
      }
    },
    "timestamp": 1944498031,
    "newLocalExitRoot": "0x0000000000000000000000000000000000000000000000000000000000000000",
    "batchHashData": "0x828abd0d813e5558562a16659567dbffa1704ba14378ccc1cff60780098d736b",
    "inputHash": "0xf2e554b20dca64afea6bebbd3561e59475076f3f0e95140e7f673a10ea59cdba",
    "globalExitRoot": "0x090bcaf734c4f06c93954a827b45a6e8c67b8e0fd1e0a35a1c5982d6961828f9",
    "oldLocalExitRoot": "0x0000000000000000000000000000000000000000000000000000000000000000",
    "batchL2Data": "0xf9016c80843b9aca00830c3500941275fbb540c8efc58b812ba83b0d0b8b9917ae9880b90144e3306a25000000000000000000000000000000000000000000000000000000000000004000000000000000000000000000000000000000000000000000000000000000da00000000000000000000000000000000000000000000000000000000000000da608060405234801561001057600080fd5b5060bb8061001f6000396000f3fe6080604052348015600f57600080fd5b506004361060285760003560e01c8063f6d97e8c14602d575b600080fd5b60336047565b604051603e91906062565b60405180910390f35b600080600390508091505090565b605c81607b565b82525050565b6000602082019050607560008301846055565b92915050565b600081905091905056fea2646970667358221220a33fdecaf587db45fa0e1fe4bfca25de09e35bb9a45fa6dab1bf1964244a929164736f6c634300080700330000000000008203e98080c35c6fca6d38443b4b6cd156ec3e3288e306a315d8771e498480729cca2cfe7625871ad68cb717261842062f1c0f4a3388ba7a754cbaf72c22c8248228ae83a41c"
  }
]