[
  {
    "id": 0,
    "description": "Call opcode (external)",
    "arity": 4,
    "chainIdSequencer": 1001,
    "defaultChainId": 1000,
    "sequencerAddress": "0x617b3a3528F9cDd6630fd3301B9c8911F7Bf063D",
    "sequencerPvtKey": "0x28b2b0318721be8c8339199172cd7cc8f5e273800a35616ec893083a4b32c02e",
    "genesis": [
      {
        "address": "0x617b3a3528F9cDd6630fd3301B9c8911F7Bf063D",
        "nonce": "0",
        "balance": "100000000000000000000",
        "pvtKey": "0x28b2b0318721be8c8339199172cd7cc8f5e273800a35616ec893083a4b32c02e"
      },
      {
        "address": "0x4d5Cf5032B2a844602278b01199ED191A86c93ff",
        "nonce": "0",
        "balance": "200000000000000000000",
        "pvtKey": "0x4d27a600dce8c29b7bd080e29a26972377dbb04d7a27d919adbb602bf13cfd23"
      },
      {
        "address": "0x1275fbb540c8efc58b812ba83b0d0b8b9917ae98",
        "nonce": 1,
        "balance": 0,
        "bytecode": "0x6080604052600436106100fe5760003560e01c80636aecbc33116100955780639d75d264116100645780639d75d26414610261578063adc9af2614610278578063c59b402514610282578063dac9e88414610299578063f801fa50146102b0576100fe565b80636aecbc33146101df57806370ede0231461020a57806374c7363914610221578063942fbf2914610238576100fe565b80633ab08cf9116100d15780633ab08cf9146101835780634ae22a2e1461019a5780634f1f5752146101b15780635a552f87146101c8576100fe565b80630914e1ec1461010357806318512cb91461011a57806319fd5c51146101435780631bdbf00f1461015a575b600080fd5b34801561010f57600080fd5b506101186102c7565b005b34801561012657600080fd5b50610141600480360381019061013c91906104e3565b61036a565b005b34801561014f57600080fd5b50610158610374565b005b34801561016657600080fd5b50610181600480360381019061017c91906104e3565b610380565b005b34801561018f57600080fd5b5061019861038a565b005b3480156101a657600080fd5b506101af610399565b005b3480156101bd57600080fd5b506101c66103a9565b005b3480156101d457600080fd5b506101dd6103b9565b005b3480156101eb57600080fd5b506101f46103c5565b604051610201919061054c565b60405180910390f35b34801561021657600080fd5b5061021f6103d2565b005b34801561022d57600080fd5b506102366103de565b005b34801561024457600080fd5b5061025f600480360381019061025a91906104e3565b6103e6565b005b34801561026d57600080fd5b506102766103f8565b005b610280610400565b005b34801561028e57600080fd5b5061029761040c565b005b3480156102a557600080fd5b506102ae6104a7565b005b3480156102bc57600080fd5b506102c56104b1565b005b60003073ffffffffffffffffffffffffffffffffffffffff16636aecbc336040518163ffffffff1660e01b8152600401602060405180830381600087803b15801561031157600080fd5b505af1158015610325573d6000803e3d6000fd5b505050506040513d601f19601f820116820180604052508101906103499190610510565b9050600081141561035957600080fd5b60206000803e600051806000555050565b803b806000555050565b60003090508060005550565b803f806000555050565b60003390508031806001555050565b6020600080396000518060005550565b6020600080376000518060005550565b60003390508060005550565b6000640123456689905090565b60003290508060005550565b3a8060005550565b6020600080833c600051806000555050565b368060005550565b60003490508060005550565b60003073ffffffffffffffffffffffffffffffffffffffff16636aecbc336040518163ffffffff1660e01b8152600401602060405180830381600087803b15801561045657600080fd5b505af115801561046a573d6000803e3d6000fd5b505050506040513d601f19601f8201168201806040525081019061048e9190610510565b9050600081141561049e57600080fd5b3d806000555050565b6002358060005550565b388060005550565b6000813590506104c8816105a8565b92915050565b6000815190506104dd816105bf565b92915050565b6000602082840312156104f9576104f86105a3565b5b6000610507848285016104b9565b91505092915050565b600060208284031215610526576105256105a3565b5b6000610534848285016104ce565b91505092915050565b61054681610599565b82525050565b6000602082019050610561600083018461053d565b92915050565b600061057282610579565b9050919050565b600073ffffffffffffffffffffffffffffffffffffffff82169050919050565b6000819050919050565b600080fd5b6105b181610567565b81146105bc57600080fd5b50565b6105c881610599565b81146105d357600080fd5b5056fea264697066735822122048224115d41ee9377a0daa3146f4fd60c8c86c6c2b6a41cae77aa6e7fb96c52364736f6c63430008070033",
        "abi": [
          {
            "inputs": [],
            "name": "auxReturn",
            "outputs": [
              {
                "internalType": "uint256",
                "name": "",
                "type": "uint256"
              }
            ],
            "stateMutability": "nonpayable",
            "type": "function"
          },
          {
            "inputs": [],
            "name": "opAddress",
            "outputs": [],
            "stateMutability": "nonpayable",
            "type": "function"
          },
          {
            "inputs": [],
            "name": "opBalance",
            "outputs": [],
            "stateMutability": "nonpayable",
            "type": "function"
          },
          {
            "inputs": [],
            "name": "opCallDataCopy",
            "outputs": [],
            "stateMutability": "nonpayable",
            "type": "function"
          },
          {
            "inputs": [],
            "name": "opCallDataLoad",
            "outputs": [],
            "stateMutability": "nonpayable",
            "type": "function"
          },
          {
            "inputs": [],
            "name": "opCallDataSize",
            "outputs": [],
            "stateMutability": "nonpayable",
            "type": "function"
          },
          {
            "inputs": [],
            "name": "opCallValue",
            "outputs": [],
            "stateMutability": "payable",
            "type": "function"
          },
          {
            "inputs": [],
            "name": "opCaller",
            "outputs": [],
            "stateMutability": "nonpayable",
            "type": "function"
          },
          {
            "inputs": [],
            "name": "opCodeCopy",
            "outputs": [],
            "stateMutability": "nonpayable",
            "type": "function"
          },
          {
            "inputs": [],
            "name": "opCodeSize",
            "outputs": [],
            "stateMutability": "nonpayable",
            "type": "function"
          },
          {
            "inputs": [
              {
                "internalType": "address",
                "name": "addr",
                "type": "address"
              }
            ],
            "name": "opExtCodeCopy",
            "outputs": [],
            "stateMutability": "nonpayable",
            "type": "function"
          },
          {
            "inputs": [
              {
                "internalType": "address",
                "name": "addr",
                "type": "address"
              }
            ],
            "name": "opExtCodeHash",
            "outputs": [],
            "stateMutability": "nonpayable",
            "type": "function"
          },
          {
            "inputs": [
              {
                "internalType": "address",
                "name": "addr",
                "type": "address"
              }
            ],
            "name": "opExtCodeSize",
            "outputs": [],
            "stateMutability": "nonpayable",
            "type": "function"
          },
          {
            "inputs": [],
            "name": "opGasPrice",
            "outputs": [],
            "stateMutability": "nonpayable",
            "type": "function"
          },
          {
            "inputs": [],
            "name": "opOrigin",
            "outputs": [],
            "stateMutability": "nonpayable",
            "type": "function"
          },
          {
            "inputs": [],
            "name": "opReturnDataCopy",
            "outputs": [],
            "stateMutability": "nonpayable",
            "type": "function"
          },
          {
            "inputs": [],
            "name": "opReturnDataSize",
            "outputs": [],
            "stateMutability": "nonpayable",
            "type": "function"
          }
        ],
        "storage": {}
      },
      {
        "address": "0x85e844b762a271022b692cf99ce5c59ba0650ac8",
        "nonce": 1,
        "balance": 0,
        "bytecode": "0x608060405234801561001057600080fd5b50600436106100365760003560e01c8063102ea40b1461003b57806356d5be7414610057575b600080fd5b6100556004803603810190610050919061025e565b610087565b005b610071600480360381019061006c919061025e565b610128565b60405161007e91906102f1565b60405180910390f35b60003073ffffffffffffffffffffffffffffffffffffffff166356d5be74836040518263ffffffff1660e01b81526004016100c291906102d6565b602060405180830381600087803b1580156100dc57600080fd5b505af11580156100f0573d6000803e3d6000fd5b505050506040513d601f19601f82011682018060405250810190610114919061028b565b9050600081141561012457600080fd5b5050565b6000816000806101000a81548173ffffffffffffffffffffffffffffffffffffffff021916908373ffffffffffffffffffffffffffffffffffffffff16021790555060008060009054906101000a900473ffffffffffffffffffffffffffffffffffffffff1673ffffffffffffffffffffffffffffffffffffffff16636aecbc336040518163ffffffff1660e01b8152600401602060405180830381600087803b1580156101d557600080fd5b505af11580156101e9573d6000803e3d6000fd5b505050506040513d601f19601f8201168201806040525081019061020d919061028b565b9050600081141561021d57600080fd5b60206000803e600051806000555080915050919050565b6000813590506102438161034d565b92915050565b60008151905061025881610364565b92915050565b60006020828403121561027457610273610348565b5b600061028284828501610234565b91505092915050565b6000602082840312156102a1576102a0610348565b5b60006102af84828501610249565b91505092915050565b6102c18161030c565b82525050565b6102d08161033e565b82525050565b60006020820190506102eb60008301846102b8565b92915050565b600060208201905061030660008301846102c7565b92915050565b60006103178261031e565b9050919050565b600073ffffffffffffffffffffffffffffffffffffffff82169050919050565b6000819050919050565b600080fd5b6103568161030c565b811461036157600080fd5b50565b61036d8161033e565b811461037857600080fd5b5056fea2646970667358221220902fc7c1954e250b9f5cb72bdca50cb975193fadc8d982341da089c12f6af5b564736f6c63430008070033",
        "abi": [
          {
            "inputs": [
              {
                "internalType": "address",
                "name": "addr",
                "type": "address"
              }
            ],
            "name": "opCallCall",
            "outputs": [],
            "stateMutability": "nonpayable",
            "type": "function"
          },
          {
            "inputs": [
              {
                "internalType": "address",
                "name": "addr",
                "type": "address"
              }
            ],
            "name": "opCallExternal",
            "outputs": [
              {
                "internalType": "uint256",
                "name": "",
                "type": "uint256"
              }
            ],
            "stateMutability": "nonpayable",
            "type": "function"
          }
        ],
        "storage": {}
      }
    ],
    "expectedOldRoot": "0xb09467f2aab61db1e3653c7ec7fd97195b16595e2e43475bac49a72239fe5dc3",
    "txs": [
      {
        "from": "0x4d5Cf5032B2a844602278b01199ED191A86c93ff",
        "to": "0x85e844b762a271022b692cf99ce5c59ba0650ac8",
        "nonce": "0",
        "value": "0",
        "data": "0x56d5be740000000000000000000000001275fbb540c8efc58b812ba83b0d0b8b9917ae98",
        "gasLimit": 100000,
        "gasPrice": "1000000000",
        "chainId": 1001
      }
    ],
    "expectedNewRoot": "0xd1b4fe0f41ba1622544b05294761d119a369726c6dafd55f0fd992bb2b616b6d",
    "expectedNewLeafs": {
      "0x617b3a3528F9cDd6630fd3301B9c8911F7Bf063D": {
        "balance": "100000048039000000000",
        "nonce": "0"
      },
      "0x4d5Cf5032B2a844602278b01199ED191A86c93ff": {
        "balance": "199999951961000000000",
        "nonce": "1"
      },
      "0x1275fbb540c8efc58b812ba83b0d0b8b9917ae98": {
        "balance": "0",
        "nonce": "1",
        "storage": {},
        "bytecode": "6080604052600436106100fe5760003560e01c80636aecbc33116100955780639d75d264116100645780639d75d26414610261578063adc9af2614610278578063c59b402514610282578063dac9e88414610299578063f801fa50146102b0576100fe565b80636aecbc33146101df57806370ede0231461020a57806374c7363914610221578063942fbf2914610238576100fe565b80633ab08cf9116100d15780633ab08cf9146101835780634ae22a2e1461019a5780634f1f5752146101b15780635a552f87146101c8576100fe565b80630914e1ec1461010357806318512cb91461011a57806319fd5c51146101435780631bdbf00f1461015a575b600080fd5b34801561010f57600080fd5b506101186102c7565b005b34801561012657600080fd5b50610141600480360381019061013c91906104e3565b61036a565b005b34801561014f57600080fd5b50610158610374565b005b34801561016657600080fd5b50610181600480360381019061017c91906104e3565b610380565b005b34801561018f57600080fd5b5061019861038a565b005b3480156101a657600080fd5b506101af610399565b005b3480156101bd57600080fd5b506101c66103a9565b005b3480156101d457600080fd5b506101dd6103b9565b005b3480156101eb57600080fd5b506101f46103c5565b604051610201919061054c565b60405180910390f35b34801561021657600080fd5b5061021f6103d2565b005b34801561022d57600080fd5b506102366103de565b005b34801561024457600080fd5b5061025f600480360381019061025a91906104e3565b6103e6565b005b34801561026d57600080fd5b506102766103f8565b005b610280610400565b005b34801561028e57600080fd5b5061029761040c565b005b3480156102a557600080fd5b506102ae6104a7565b005b3480156102bc57600080fd5b506102c56104b1565b005b60003073ffffffffffffffffffffffffffffffffffffffff16636aecbc336040518163ffffffff1660e01b8152600401602060405180830381600087803b15801561031157600080fd5b505af1158015610325573d6000803e3d6000fd5b505050506040513d601f19601f820116820180604052508101906103499190610510565b9050600081141561035957600080fd5b60206000803e600051806000555050565b803b806000555050565b60003090508060005550565b803f806000555050565b60003390508031806001555050565b6020600080396000518060005550565b6020600080376000518060005550565b60003390508060005550565b6000640123456689905090565b60003290508060005550565b3a8060005550565b6020600080833c600051806000555050565b368060005550565b60003490508060005550565b60003073ffffffffffffffffffffffffffffffffffffffff16636aecbc336040518163ffffffff1660e01b8152600401602060405180830381600087803b15801561045657600080fd5b505af115801561046a573d6000803e3d6000fd5b505050506040513d601f19601f8201168201806040525081019061048e9190610510565b9050600081141561049e57600080fd5b3d806000555050565b6002358060005550565b388060005550565b6000813590506104c8816105a8565b92915050565b6000815190506104dd816105bf565b92915050565b6000602082840312156104f9576104f86105a3565b5b6000610507848285016104b9565b91505092915050565b600060208284031215610526576105256105a3565b5b6000610534848285016104ce565b91505092915050565b61054681610599565b82525050565b6000602082019050610561600083018461053d565b92915050565b600061057282610579565b9050919050565b600073ffffffffffffffffffffffffffffffffffffffff82169050919050565b6000819050919050565b600080fd5b6105b181610567565b81146105bc57600080fd5b50565b6105c881610599565b81146105d357600080fd5b5056fea264697066735822122048224115d41ee9377a0daa3146f4fd60c8c86c6c2b6a41cae77aa6e7fb96c52364736f6c63430008070033"
      },
      "0x85e844b762a271022b692cf99ce5c59ba0650ac8": {
        "balance": "0",
        "nonce": "1",
        "storage": {
          "0x0000000000000000000000000000000000000000000000000000000000000000": "0x0123456689"
        },
        "bytecode": "608060405234801561001057600080fd5b50600436106100365760003560e01c8063102ea40b1461003b57806356d5be7414610057575b600080fd5b6100556004803603810190610050919061025e565b610087565b005b610071600480360381019061006c919061025e565b610128565b60405161007e91906102f1565b60405180910390f35b60003073ffffffffffffffffffffffffffffffffffffffff166356d5be74836040518263ffffffff1660e01b81526004016100c291906102d6565b602060405180830381600087803b1580156100dc57600080fd5b505af11580156100f0573d6000803e3d6000fd5b505050506040513d601f19601f82011682018060405250810190610114919061028b565b9050600081141561012457600080fd5b5050565b6000816000806101000a81548173ffffffffffffffffffffffffffffffffffffffff021916908373ffffffffffffffffffffffffffffffffffffffff16021790555060008060009054906101000a900473ffffffffffffffffffffffffffffffffffffffff1673ffffffffffffffffffffffffffffffffffffffff16636aecbc336040518163ffffffff1660e01b8152600401602060405180830381600087803b1580156101d557600080fd5b505af11580156101e9573d6000803e3d6000fd5b505050506040513d601f19601f8201168201806040525081019061020d919061028b565b9050600081141561021d57600080fd5b60206000803e600051806000555080915050919050565b6000813590506102438161034d565b92915050565b60008151905061025881610364565b92915050565b60006020828403121561027457610273610348565b5b600061028284828501610234565b91505092915050565b6000602082840312156102a1576102a0610348565b5b60006102af84828501610249565b91505092915050565b6102c18161030c565b82525050565b6102d08161033e565b82525050565b60006020820190506102eb60008301846102b8565b92915050565b600060208201905061030660008301846102c7565b92915050565b60006103178261031e565b9050919050565b600073ffffffffffffffffffffffffffffffffffffffff82169050919050565b6000819050919050565b600080fd5b6103568161030c565b811461036157600080fd5b50565b61036d8161033e565b811461037857600080fd5b5056fea2646970667358221220902fc7c1954e250b9f5cb72bdca50cb975193fadc8d982341da089c12f6af5b564736f6c63430008070033"
      }
    },
    "timestamp": 1944498031,
    "newLocalExitRoot": "0x17c04c3760510b48c6012742c540a81aba4bca2f78b9d14bfd2f123e2e53ea3e",
    "batchHashData": "0xfaa37df0d6beb23565da03cb65943a0c55c5eec13f3e981ea1e021ec7a2cb8f6",
    "inputHash": "0xedd9997d3cb9ed50c15e61ddec6530ad4f6444a23dd6232301d3e1059b52a94f",
    "globalExitRoot": "0x090bcaf734c4f06c93954a827b45a6e8c67b8e0fd1e0a35a1c5982d6961828f9",
    "localExitRoot": "0x17c04c3760510b48c6012742c540a81aba4bca2f78b9d14bfd2f123e2e53ea3e",
    "batchL2Data": "0xf84a80843b9aca00830186a09485e844b762a271022b692cf99ce5c59ba0650ac880a456d5be740000000000000000000000001275fbb540c8efc58b812ba83b0d0b8b9917ae988203e980809c2e24ae8941e931319211d02c8dece821aef0b49893bb67608fe4420158ca0459aa76d0b4d84b0f229ce3b3bd67a36dbbf663dffe9816de9298d79d7bb928b61b"
  }
]