[
  {
    "id": 24,
    "description": "A -> Delegate -> B -> Call -> C",
    "arity": 4,
    "chainIdSequencer": 1001,
    "defaultChainId": 1000,
    "sequencerAddress": "0x617b3a3528F9cDd6630fd3301B9c8911F7Bf063D",
    "sequencerPvtKey": "0x28b2b0318721be8c8339199172cd7cc8f5e273800a35616ec893083a4b32c02e",
    "genesis": [
      {
        "address": "0x617b3a3528F9cDd6630fd3301B9c8911F7Bf063D",
        "nonce": "0",
        "balance": "100000000000000000000",
        "pvtKey": "0x28b2b0318721be8c8339199172cd7cc8f5e273800a35616ec893083a4b32c02e"
      },
      {
        "address": "0x4d5Cf5032B2a844602278b01199ED191A86c93ff",
        "nonce": "0",
        "balance": "200000000000000000000",
        "pvtKey": "0x4d27a600dce8c29b7bd080e29a26972377dbb04d7a27d919adbb602bf13cfd23"
      },
      {
        "address": "0x1275fbb540c8efc58b812ba83b0d0b8b9917ae98",
        "nonce": 1,
        "balance": 0,
        "bytecode": "0x60806040526004361061007b5760003560e01c80636aecbc331161004e5780636aecbc33146100f75780638b00fb6a146101225780638eda2bf814610152578063f80efde5146101825761007b565b806303cfd8461461008057806303d3e8a71461009e578063266f6aec146100b55780633182d9a9146100cc575b600080fd5b6100886101a0565b60405161009591906103d2565b60405180910390f35b3480156100aa57600080fd5b506100b36101ac565b005b3480156100c157600080fd5b506100ca6101bb565b005b3480156100d857600080fd5b506100e16101cb565b6040516100ee91906103d2565b60405180910390f35b34801561010357600080fd5b5061010c6101e6565b60405161011991906103d2565b60405180910390f35b61013c6004803603810190610137919061034e565b6101f3565b60405161014991906103d2565b60405180910390f35b61016c6004803603810190610167919061034e565b6101fd565b60405161017991906103d2565b60405180910390f35b61018a61030b565b60405161019791906103d2565b60405180910390f35b60004760008190555090565b600080146101b957600080fd5b565b60006001146101c957600080fd5b565b60006912121212121212121212600055640123456689905090565b6000640123456689905090565b6000479050919050565b60008173ffffffffffffffffffffffffffffffffffffffff16346040516024016040516020818303038152906040527f23801894000000000000000000000000000000000000000000000000000000007bffffffffffffffffffffffffffffffffffffffffffffffffffffffff19166020820180517bffffffffffffffffffffffffffffffffffffffffffffffffffffffff83818316178352505050506040516102a791906103bb565b60006040518083038185875af1925050503d80600081146102e4576040519150601f19603f3d011682016040523d82523d6000602084013e6102e9565b606091505b5050503080600355388060045559816000823980518160055550505050919050565b6000803390506000349050691212121212121212121260005581600155806002556401234566899250505090565b60008135905061034881610477565b92915050565b60006020828403121561036457610363610472565b5b600061037284828501610339565b91505092915050565b6000610386826103ed565b61039081856103f8565b93506103a081856020860161043f565b80840191505092915050565b6103b581610435565b82525050565b60006103c7828461037b565b915081905092915050565b60006020820190506103e760008301846103ac565b92915050565b600081519050919050565b600081905092915050565b600061040e82610415565b9050919050565b600073ffffffffffffffffffffffffffffffffffffffff82169050919050565b6000819050919050565b60005b8381101561045d578082015181840152602081019050610442565b8381111561046c576000848401525b50505050565b600080fd5b61048081610403565b811461048b57600080fd5b5056fea26469706673582212200bf59539d9a2faa996f5cc87c1951b864f5d48d27dc749e3c9abbb8238d55d6564736f6c63430008070033",
        "abi": [
          {
            "inputs": [],
            "name": "auxFail",
            "outputs": [],
            "stateMutability": "nonpayable",
            "type": "function"
          },
          {
            "inputs": [],
            "name": "auxReturn",
            "outputs": [
              {
                "internalType": "uint256",
                "name": "",
                "type": "uint256"
              }
            ],
            "stateMutability": "nonpayable",
            "type": "function"
          },
          {
            "inputs": [],
            "name": "auxStop",
            "outputs": [],
            "stateMutability": "nonpayable",
            "type": "function"
          },
          {
            "inputs": [],
            "name": "auxUpdate",
            "outputs": [
              {
                "internalType": "uint256",
                "name": "",
                "type": "uint256"
              }
            ],
            "stateMutability": "nonpayable",
            "type": "function"
          },
          {
            "inputs": [],
            "name": "auxUpdateValues",
            "outputs": [
              {
                "internalType": "uint256",
                "name": "",
                "type": "uint256"
              }
            ],
            "stateMutability": "payable",
            "type": "function"
          },
          {
            "inputs": [
              {
                "internalType": "address",
                "name": "addrCall",
                "type": "address"
              }
            ],
            "name": "opDelegateCallSelfBalance",
            "outputs": [
              {
                "internalType": "uint256",
                "name": "",
                "type": "uint256"
              }
            ],
            "stateMutability": "payable",
            "type": "function"
          },
          {
            "inputs": [],
            "name": "opDelegateSelfBalance",
            "outputs": [
              {
                "internalType": "uint256",
                "name": "",
                "type": "uint256"
              }
            ],
            "stateMutability": "payable",
            "type": "function"
          },
          {
            "inputs": [
              {
                "internalType": "address",
                "name": "addrCall",
                "type": "address"
              }
            ],
            "name": "opReturnCallSelfBalance",
            "outputs": [
              {
                "internalType": "uint256",
                "name": "",
                "type": "uint256"
              }
            ],
            "stateMutability": "payable",
            "type": "function"
          }
        ],
        "storage": {
          "0x0000000000000000000000000000000000000000000000000000000000000000": "0x01"
        }
      },
      {
        "address": "0x85e844b762a271022b692cf99ce5c59ba0650ac8",
        "nonce": 1,
        "balance": 0,
        "bytecode": "0x6080604052600436106101c25760003560e01c806376da0655116100f7578063a419cc1b11610095578063bce68dec11610064578063bce68dec14610600578063d0e30db014610630578063d78d41bf1461063a578063e268669d14610663576101c2565b8063a419cc1b14610562578063aea87a1d1461058b578063b40a4445146105c8578063b8973660146105e4576101c2565b806383490567116100d157806383490567146104a357806389f41491146104e05780638aebc812146105095780638f740d2414610532576101c2565b806376da06551461042e5780637719db3e1461044a5780637b4fdd7a14610466576101c2565b8063340ce1e11161016457806347c5d25d1161013e57806347c5d25d1461036f5780634fec21a81461039857806356d5be74146103c8578063731d1a0114610405576101c2565b8063340ce1e1146102f45780633ad8b2281461031d5780633d43492514610346576101c2565b8063102ea40b116101a0578063102ea40b1461024957806323b28b0114610272578063334ab9da1461028e57806333665755146102cb576101c2565b8063043b6c7c146101c7578063064055bd146101f05780630c5f7bf214610219575b600080fd5b3480156101d357600080fd5b506101ee60048036038101906101e991906115fd565b6106a0565b005b3480156101fc57600080fd5b50610217600480360381019061021291906115fd565b610741565b005b610233600480360381019061022e91906115fd565b610774565b60405161024091906117c0565b60405180910390f35b34801561025557600080fd5b50610270600480360381019061026b91906115fd565b6107c5565b005b61028c600480360381019061028791906115fd565b610866565b005b34801561029a57600080fd5b506102b560048036038101906102b091906115fd565b6108ae565b6040516102c291906117c0565b60405180910390f35b3480156102d757600080fd5b506102f260048036038101906102ed91906115fd565b6108f2565b005b34801561030057600080fd5b5061031b600480360381019061031691906115fd565b610936565b005b34801561032957600080fd5b50610344600480360381019061033f91906115fd565b61097e565b005b34801561035257600080fd5b5061036d600480360381019061036891906115fd565b6109c1565b005b34801561037b57600080fd5b50610396600480360381019061039191906115fd565b610a0e565b005b6103b260048036038101906103ad91906115fd565b610a4d565b6040516103bf91906117c0565b60405180910390f35b3480156103d457600080fd5b506103ef60048036038101906103ea91906115fd565b610a99565b6040516103fc91906117c0565b60405180910390f35b34801561041157600080fd5b5061042c600480360381019061042791906115fd565b610ba5565b005b6104486004803603810190610443919061162a565b610c68565b005b610464600480360381019061045f91906115fd565b610d18565b005b34801561047257600080fd5b5061048d600480360381019061048891906115fd565b610dbd565b60405161049a91906117c0565b60405180910390f35b3480156104af57600080fd5b506104ca60048036038101906104c591906115fd565b610e88565b6040516104d791906117c0565b60405180910390f35b3480156104ec57600080fd5b50610507600480360381019061050291906115fd565b610f94565b005b34801561051557600080fd5b50610530600480360381019061052b91906115fd565b610fdb565b005b61054c60048036038101906105479190611657565b61108a565b60405161055991906117c0565b60405180910390f35b34801561056e57600080fd5b50610589600480360381019061058491906115fd565b611187565b005b34801561059757600080fd5b506105b260048036038101906105ad91906115fd565b6111c9565b6040516105bf91906117c0565b60405180910390f35b6105e260048036038101906105dd91906115fd565b61127e565b005b6105fe60048036038101906105f991906115fd565b611323565b005b61061a600480360381019061061591906115fd565b611410565b60405161062791906117c0565b60405180910390f35b61063861145e565b005b34801561064657600080fd5b50610661600480360381019061065c91906115fd565b611460565b005b34801561066f57600080fd5b5061068a600480360381019061068591906115fd565b6114b2565b60405161069791906117c0565b60405180910390f35b60003073ffffffffffffffffffffffffffffffffffffffff1663334ab9da836040518263ffffffff1660e01b81526004016106db9190611785565b602060405180830381600087803b1580156106f557600080fd5b505af1158015610709573d6000803e3d6000fd5b505050506040513d601f19601f8201168201806040525081019061072d9190611697565b9050600081141561073d57600080fd5b5050565b7f3182d9a9000000000000000000000000000000000000000000000000000000006080526020608060046080845afa5050565b60007ff80efde50000000000000000000000000000000000000000000000000000000060805260025a0460206080600460808685f460206000803e6000518060035550505063112233449050919050565b60003073ffffffffffffffffffffffffffffffffffffffff166356d5be74836040518263ffffffff1660e01b81526004016108009190611785565b602060405180830381600087803b15801561081a57600080fd5b505af115801561082e573d6000803e3d6000fd5b505050506040513d601f19601f820116820180604052508101906108529190611697565b9050600081141561086257600080fd5b5050565b60003490507f3182d9a900000000000000000000000000000000000000000000000000000000608052602060806004608084865af260206000803e6000518060015550505050565b6000807f3182d9a900000000000000000000000000000000000000000000000000000000608052602060806004608065ffffffffffff875af1905080915050919050565b7f3182d9a90000000000000000000000000000000000000000000000000000000060805260206080600460806000855af1600a601660003e60005180600155505050565b7f3182d9a90000000000000000000000000000000000000000000000000000000060805260025a04602060806004608060008686f260206000803e6000518060015550505050565b7f3182d9a90000000000000000000000000000000000000000000000000000000060805260206080600460806000855af260206000803e60005180600155505050565b7f3182d9a90000000000000000000000000000000000000000000000000000000060805260206080600460806000855af1600a601660173e60005180600155602051905080600255505050565b7f3182d9a90000000000000000000000000000000000000000000000000000000060805260045a04602060806004608060008686f16003600055505050565b60007ff80efde5000000000000000000000000000000000000000000000000000000006080526020608060046080855af460206000803e60005180600355505063112233449050919050565b6000816000806101000a81548173ffffffffffffffffffffffffffffffffffffffff021916908373ffffffffffffffffffffffffffffffffffffffff16021790555060008060009054906101000a900473ffffffffffffffffffffffffffffffffffffffff1673ffffffffffffffffffffffffffffffffffffffff16636aecbc336040518163ffffffff1660e01b8152600401602060405180830381600087803b158015610b4657600080fd5b505af1158015610b5a573d6000803e3d6000fd5b505050506040513d601f19601f82011682018060405250810190610b7e9190611697565b90506000811415610b8e57600080fd5b60206000803e600051806000555080915050919050565b806000806101000a81548173ffffffffffffffffffffffffffffffffffffffff021916908373ffffffffffffffffffffffffffffffffffffffff16021790555060008054906101000a900473ffffffffffffffffffffffffffffffffffffffff1673ffffffffffffffffffffffffffffffffffffffff166303d3e8a76040518163ffffffff1660e01b8152600401600060405180830381600087803b158015610c4d57600080fd5b505af1158015610c61573d6000803e3d6000fd5b5050505050565b60008173ffffffffffffffffffffffffffffffffffffffff1634604051610c8e90611770565b60006040518083038185875af1925050503d8060008114610ccb576040519150601f19603f3d011682016040523d82523d6000602084013e610cd0565b606091505b5050905080610d14576040517f08c379a0000000000000000000000000000000000000000000000000000000008152600401610d0b906117a0565b60405180910390fd5b5050565b60003073ffffffffffffffffffffffffffffffffffffffff16634fec21a8836040518263ffffffff1660e01b8152600401610d539190611785565b602060405180830381600087803b158015610d6d57600080fd5b505af1158015610d81573d6000803e3d6000fd5b505050506040513d601f19601f82011682018060405250810190610da59190611697565b90506000811415610db557600080fd5b806004555050565b6000816000806101000a81548173ffffffffffffffffffffffffffffffffffffffff021916908373ffffffffffffffffffffffffffffffffffffffff16021790555060008054906101000a900473ffffffffffffffffffffffffffffffffffffffff1673ffffffffffffffffffffffffffffffffffffffff1663266f6aec6040518163ffffffff1660e01b8152600401600060405180830381600087803b158015610e6757600080fd5b505af1158015610e7b573d6000803e3d6000fd5b5050505060119050919050565b6000816000806101000a81548173ffffffffffffffffffffffffffffffffffffffff021916908373ffffffffffffffffffffffffffffffffffffffff16021790555060008060009054906101000a900473ffffffffffffffffffffffffffffffffffffffff1673ffffffffffffffffffffffffffffffffffffffff16633182d9a96040518163ffffffff1660e01b8152600401602060405180830381600087803b158015610f3557600080fd5b505af1158015610f49573d6000803e3d6000fd5b505050506040513d601f19601f82011682018060405250810190610f6d9190611697565b90506000811415610f7d57600080fd5b60206000803e600051806001555080915050919050565b7f6aecbc330000000000000000000000000000000000000000000000000000000060805260025a0460206080600460808585fa600a601660003e6000518060015550505050565b60003073ffffffffffffffffffffffffffffffffffffffff1663aea87a1d836040518263ffffffff1660e01b81526004016110169190611785565b602060405180830381600087803b15801561103057600080fd5b505af1158015611044573d6000803e3d6000fd5b505050506040513d601f19601f820116820180604052508101906110689190611697565b9050600081141561107857600080fd5b60206000803e60005180600255505050565b60008273ffffffffffffffffffffffffffffffffffffffff16826040516024016110b49190611785565b6040516020818303038152906040527f8eda2bf8000000000000000000000000000000000000000000000000000000007bffffffffffffffffffffffffffffffffffffffffffffffffffffffff19166020820180517bffffffffffffffffffffffffffffffffffffffffffffffffffffffff838183161783525050505060405161113e9190611759565b600060405180830381855af49150503d8060008114611179576040519150601f19603f3d011682016040523d82523d6000602084013e61117e565b606091505b50505092915050565b7f6aecbc33000000000000000000000000000000000000000000000000000000006080526020608060046080845afa600a601660003e60005180600155505050565b6000803073ffffffffffffffffffffffffffffffffffffffff166356d5be74846040518263ffffffff1660e01b81526004016112059190611785565b602060405180830381600087803b15801561121f57600080fd5b505af1158015611233573d6000803e3d6000fd5b505050506040513d601f19601f820116820180604052508101906112579190611697565b9050600081141561126757600080fd5b60206000803e600051806001555080915050919050565b60003073ffffffffffffffffffffffffffffffffffffffff1663bce68dec836040518263ffffffff1660e01b81526004016112b99190611785565b602060405180830381600087803b1580156112d357600080fd5b505af11580156112e7573d6000803e3d6000fd5b505050506040513d601f19601f8201168201806040525081019061130b9190611697565b9050600081141561131b57600080fd5b806004555050565b8073ffffffffffffffffffffffffffffffffffffffff166040516024016040516020818303038152906040527f03cfd846000000000000000000000000000000000000000000000000000000007bffffffffffffffffffffffffffffffffffffffffffffffffffffffff19166020820180517bffffffffffffffffffffffffffffffffffffffffffffffffffffffff83818316178352505050506040516113ca9190611759565b600060405180830381855af49150503d8060008114611405576040519150601f19603f3d011682016040523d82523d6000602084013e61140a565b606091505b50505050565b60007ff80efde50000000000000000000000000000000000000000000000000000000060805260206080600460806000865af260206000803e60005180600355505063443322119050919050565b565b7f3182d9a90000000000000000000000000000000000000000000000000000000060805260025a04602060806004608060008686f1600a601660173e6000518060015560205190508060025550505050565b6000816000806101000a81548173ffffffffffffffffffffffffffffffffffffffff021916908373ffffffffffffffffffffffffffffffffffffffff16021790555060008060009054906101000a900473ffffffffffffffffffffffffffffffffffffffff1673ffffffffffffffffffffffffffffffffffffffff1663f80efde56040518163ffffffff1660e01b8152600401602060405180830381600087803b15801561155f57600080fd5b505af1158015611573573d6000803e3d6000fd5b505050506040513d601f19601f820116820180604052508101906115979190611697565b905060008114156115a757600080fd5b60206000803e600051806003555080915050919050565b6000813590506115cd816118b4565b92915050565b6000813590506115e2816118cb565b92915050565b6000815190506115f7816118e2565b92915050565b60006020828403121561161357611612611883565b5b6000611621848285016115be565b91505092915050565b6000602082840312156116405761163f611883565b5b600061164e848285016115d3565b91505092915050565b6000806040838503121561166e5761166d611883565b5b600061167c858286016115be565b925050602061168d858286016115be565b9150509250929050565b6000602082840312156116ad576116ac611883565b5b60006116bb848285016115e8565b91505092915050565b6116cd81611802565b82525050565b60006116de826117db565b6116e881856117e6565b93506116f8818560208601611850565b80840191505092915050565b60006117116014836117f1565b915061171c82611888565b602082019050919050565b60006117346000836117e6565b915061173f826118b1565b600082019050919050565b61175381611846565b82525050565b600061176582846116d3565b915081905092915050565b600061177b82611727565b9150819050919050565b600060208201905061179a60008301846116c4565b92915050565b600060208201905081810360008301526117b981611704565b9050919050565b60006020820190506117d5600083018461174a565b92915050565b600081519050919050565b600081905092915050565b600082825260208201905092915050565b600061180d82611826565b9050919050565b600061181f82611826565b9050919050565b600073ffffffffffffffffffffffffffffffffffffffff82169050919050565b6000819050919050565b60005b8381101561186e578082015181840152602081019050611853565b8381111561187d576000848401525b50505050565b600080fd5b7f4661696c656420746f2073656e64206d6f6e6579000000000000000000000000600082015250565b50565b6118bd81611802565b81146118c857600080fd5b50565b6118d481611814565b81146118df57600080fd5b50565b6118eb81611846565b81146118f657600080fd5b5056fea264697066735822122050702e3ff55cac535a86b987c2c41b2593dc72f7cc6fe442cfcff99a2e38167b64736f6c63430008070033",
        "abi": [
          {
            "inputs": [],
            "name": "deposit",
            "outputs": [],
            "stateMutability": "payable",
            "type": "function"
          },
          {
            "inputs": [
              {
                "internalType": "address",
                "name": "addr",
                "type": "address"
              }
            ],
            "name": "opCall2",
            "outputs": [],
            "stateMutability": "nonpayable",
            "type": "function"
          },
          {
            "inputs": [
              {
                "internalType": "address",
                "name": "addr",
                "type": "address"
              }
            ],
            "name": "opCallCall",
            "outputs": [],
            "stateMutability": "nonpayable",
            "type": "function"
          },
          {
            "inputs": [
              {
                "internalType": "address",
                "name": "addr",
                "type": "address"
              }
            ],
            "name": "opCallCallCodeValues",
            "outputs": [],
            "stateMutability": "payable",
            "type": "function"
          },
          {
            "inputs": [
              {
                "internalType": "address",
                "name": "addr",
                "type": "address"
              }
            ],
            "name": "opCallCallFail",
            "outputs": [],
            "stateMutability": "nonpayable",
            "type": "function"
          },
          {
            "inputs": [
              {
                "internalType": "address",
                "name": "addr",
                "type": "address"
              }
            ],
            "name": "opCallCallReturn",
            "outputs": [
              {
                "internalType": "uint256",
                "name": "",
                "type": "uint256"
              }
            ],
            "stateMutability": "nonpayable",
            "type": "function"
          },
          {
            "inputs": [
              {
                "internalType": "address",
                "name": "addr",
                "type": "address"
              }
            ],
            "name": "opCallCallReturnCall",
            "outputs": [],
            "stateMutability": "nonpayable",
            "type": "function"
          },
          {
            "inputs": [
              {
                "internalType": "address",
                "name": "addr",
                "type": "address"
              }
            ],
            "name": "opCallCode",
            "outputs": [],
            "stateMutability": "nonpayable",
            "type": "function"
          },
          {
            "inputs": [
              {
                "internalType": "address",
                "name": "addr",
                "type": "address"
              }
            ],
            "name": "opCallCodeGas",
            "outputs": [],
            "stateMutability": "nonpayable",
            "type": "function"
          },
          {
            "inputs": [
              {
                "internalType": "address",
                "name": "addr",
                "type": "address"
              }
            ],
            "name": "opCallCodeValues",
            "outputs": [
              {
                "internalType": "uint256",
                "name": "",
                "type": "uint256"
              }
            ],
            "stateMutability": "payable",
            "type": "function"
          },
          {
            "inputs": [
              {
                "internalType": "address",
                "name": "addr",
                "type": "address"
              }
            ],
            "name": "opCallCodeWithValue",
            "outputs": [],
            "stateMutability": "payable",
            "type": "function"
          },
          {
            "inputs": [
              {
                "internalType": "address",
                "name": "addr",
                "type": "address"
              }
            ],
            "name": "opCallDelegateCall",
            "outputs": [],
            "stateMutability": "payable",
            "type": "function"
          },
          {
            "inputs": [
              {
                "internalType": "address",
                "name": "addr",
                "type": "address"
              }
            ],
            "name": "opCallExternal",
            "outputs": [
              {
                "internalType": "uint256",
                "name": "",
                "type": "uint256"
              }
            ],
            "stateMutability": "nonpayable",
            "type": "function"
          },
          {
            "inputs": [
              {
                "internalType": "address",
                "name": "addr",
                "type": "address"
              }
            ],
            "name": "opCallExternalUpdate",
            "outputs": [
              {
                "internalType": "uint256",
                "name": "",
                "type": "uint256"
              }
            ],
            "stateMutability": "nonpayable",
            "type": "function"
          },
          {
            "inputs": [
              {
                "internalType": "address",
                "name": "addr",
                "type": "address"
              }
            ],
            "name": "opCallExternalUpdateValues",
            "outputs": [
              {
                "internalType": "uint256",
                "name": "",
                "type": "uint256"
              }
            ],
            "stateMutability": "nonpayable",
            "type": "function"
          },
          {
            "inputs": [
              {
                "internalType": "address",
                "name": "addr",
                "type": "address"
              }
            ],
            "name": "opCallFail",
            "outputs": [
              {
                "internalType": "uint256",
                "name": "",
                "type": "uint256"
              }
            ],
            "stateMutability": "nonpayable",
            "type": "function"
          },
          {
            "inputs": [
              {
                "internalType": "address",
                "name": "addr",
                "type": "address"
              }
            ],
            "name": "opCallFailParams",
            "outputs": [
              {
                "internalType": "uint256",
                "name": "",
                "type": "uint256"
              }
            ],
            "stateMutability": "nonpayable",
            "type": "function"
          },
          {
            "inputs": [
              {
                "internalType": "address",
                "name": "addr",
                "type": "address"
              }
            ],
            "name": "opCallGas",
            "outputs": [],
            "stateMutability": "nonpayable",
            "type": "function"
          },
          {
            "inputs": [
              {
                "internalType": "address",
                "name": "addr",
                "type": "address"
              }
            ],
            "name": "opCallOpcode",
            "outputs": [],
            "stateMutability": "nonpayable",
            "type": "function"
          },
          {
            "inputs": [
              {
                "internalType": "address",
                "name": "addr",
                "type": "address"
              }
            ],
            "name": "opCallOutOfGas",
            "outputs": [],
            "stateMutability": "nonpayable",
            "type": "function"
          },
          {
            "inputs": [
              {
                "internalType": "address",
                "name": "addr",
                "type": "address"
              }
            ],
            "name": "opCallStop",
            "outputs": [],
            "stateMutability": "nonpayable",
            "type": "function"
          },
          {
            "inputs": [
              {
                "internalType": "address",
                "name": "addr",
                "type": "address"
              }
            ],
            "name": "opDelegateCall",
            "outputs": [
              {
                "internalType": "uint256",
                "name": "",
                "type": "uint256"
              }
            ],
            "stateMutability": "payable",
            "type": "function"
          },
          {
            "inputs": [
              {
                "internalType": "address",
                "name": "addr",
                "type": "address"
              }
            ],
            "name": "opDelegateCallGas",
            "outputs": [
              {
                "internalType": "uint256",
                "name": "",
                "type": "uint256"
              }
            ],
            "stateMutability": "payable",
            "type": "function"
          },
          {
            "inputs": [
              {
                "internalType": "address",
                "name": "addrDelegate",
                "type": "address"
              },
              {
                "internalType": "address",
                "name": "addrCall",
                "type": "address"
              }
            ],
            "name": "opDelegateCallSelfBalance",
            "outputs": [
              {
                "internalType": "uint256",
                "name": "",
                "type": "uint256"
              }
            ],
            "stateMutability": "payable",
            "type": "function"
          },
          {
            "inputs": [
              {
                "internalType": "address",
                "name": "addr",
                "type": "address"
              }
            ],
            "name": "opDelegateSelfBalance",
            "outputs": [],
            "stateMutability": "payable",
            "type": "function"
          },
          {
            "inputs": [
              {
                "internalType": "address",
                "name": "addr",
                "type": "address"
              }
            ],
            "name": "opStaticCall",
            "outputs": [],
            "stateMutability": "nonpayable",
            "type": "function"
          },
          {
            "inputs": [
              {
                "internalType": "address",
                "name": "addr",
                "type": "address"
              }
            ],
            "name": "opStaticCallFail",
            "outputs": [],
            "stateMutability": "nonpayable",
            "type": "function"
          },
          {
            "inputs": [
              {
                "internalType": "address",
                "name": "addr",
                "type": "address"
              }
            ],
            "name": "opStaticCallGas",
            "outputs": [],
            "stateMutability": "nonpayable",
            "type": "function"
          },
          {
            "inputs": [
              {
                "internalType": "address payable",
                "name": "addr",
                "type": "address"
              }
            ],
            "name": "sendBalanceToAddr",
            "outputs": [],
            "stateMutability": "payable",
            "type": "function"
          }
        ],
        "storage": {
          "0x0000000000000000000000000000000000000000000000000000000000000001": "0xffffffffffffffffffffffffffffffffffffffffffffffffffffffffffffffff"
        }
      },
      {
        "address": "0x13db4b51c5174ee2366e878a367aa1d426970ade",
        "nonce": 1,
        "balance": 0,
        "bytecode": "0x608060405260043610601c5760003560e01c806323801894146021575b600080fd5b6027603b565b6040516032919060af565b60405180910390f35b60004760008190555033600160006101000a81548173ffffffffffffffffffffffffffffffffffffffff021916908373ffffffffffffffffffffffffffffffffffffffff160217905550308060035538806004555981600082398051816005555050505090565b60a98160c8565b82525050565b600060208201905060c2600083018460a2565b92915050565b600081905091905056fea2646970667358221220d4d2cb558aab7966fac602f3d177e756c8a597dbec167d7b88415914e6e2f2cf64736f6c63430008070033",
        "abi": [
          {
            "inputs": [],
            "name": "opDelegateCallSelfBalance",
            "outputs": [
              {
                "internalType": "uint256",
                "name": "",
                "type": "uint256"
              }
            ],
            "stateMutability": "payable",
            "type": "function"
          }
        ],
        "storage": {
          "0x0000000000000000000000000000000000000000000000000000000000000000": "0x01"
        }
      }
    ],
    "expectedOldRoot": "0xae0575e6573327425bad0a2508d71b6f51f15dc314c16dedc09364e65ec1aba1",
    "txs": [
      {
        "from": "0x4d5Cf5032B2a844602278b01199ED191A86c93ff",
        "to": "0x85e844b762a271022b692cf99ce5c59ba0650ac8",
        "nonce": "0",
        "value": "232323",
        "data": "0x8f740d240000000000000000000000001275fbb540c8efc58b812ba83b0d0b8b9917ae9800000000000000000000000013db4b51c5174ee2366e878a367aa1d426970ade",
        "gasLimit": 1000000,
        "gasPrice": "1000000000",
        "chainId": 1001
      }
    ],
    "expectedNewRoot": "0x3e9869277f2bfbc6d156e2ace748d5fa655d005426159371b2feb196f2887849",
    "expectedNewLeafs": {
      "0x617b3a3528F9cDd6630fd3301B9c8911F7Bf063D": {
        "balance": "100000197435000000000",
        "nonce": "0",
        "storage": null,
        "hashBytecode": "0x0000000000000000000000000000000000000000000000000000000000000000"
      },
      "0x4d5Cf5032B2a844602278b01199ED191A86c93ff": {
        "balance": "199999802564999767677",
        "nonce": "1",
        "storage": null,
        "hashBytecode": "0x0000000000000000000000000000000000000000000000000000000000000000"
      },
      "0x1275fbb540c8efc58b812ba83b0d0b8b9917ae98": {
        "balance": "0",
        "nonce": "1",
        "storage": {
          "0x0000000000000000000000000000000000000000000000000000000000000000": "0x01"
        },
        "hashBytecode": "0xcff45ef0c03157640624f75561b9eadd0b2924a4274d45961b18200875492dcf"
      },
      "0x85e844b762a271022b692cf99ce5c59ba0650ac8": {
        "balance": "0",
        "nonce": "1",
        "storage": {
          "0x0000000000000000000000000000000000000000000000000000000000000003": "0x85e844b762a271022b692cf99ce5c59ba0650ac8",
          "0x0000000000000000000000000000000000000000000000000000000000000004": "0x04c4",
          "0x0000000000000000000000000000000000000000000000000000000000000005": "0x0100",
          "0x0000000000000000000000000000000000000000000000000000000000000001": "0xffffffffffffffffffffffffffffffffffffffffffffffffffffffffffffffff"
        },
        "hashBytecode": "0xc95d3827e8d107f1be8a1bb47616e248a8a409de5dc7d899c5084093138deea6"
      },
      "0x13db4b51c5174ee2366e878a367aa1d426970ade": {
        "balance": "232323",
        "nonce": "1",
        "storage": {
          "0x0000000000000000000000000000000000000000000000000000000000000000": "0x038b83",
          "0x0000000000000000000000000000000000000000000000000000000000000001": "0x85e844b762a271022b692cf99ce5c59ba0650ac8",
          "0x0000000000000000000000000000000000000000000000000000000000000003": "0x13db4b51c5174ee2366e878a367aa1d426970ade",
          "0x0000000000000000000000000000000000000000000000000000000000000004": "0x0108",
          "0x0000000000000000000000000000000000000000000000000000000000000005": "0x60"
        },
        "hashBytecode": "0x615b5bdab1f190100421b9b0fad29f99b553e172c2e51bc65a950600a136dc3a"
      }
    },
    "timestamp": 1944498031,
    "newLocalExitRoot": "0x0000000000000000000000000000000000000000000000000000000000000000",
    "batchHashData": "0x46cdbed8ee5dbf77e960d326d592d3b7c59f1dd351f4ead4bba2e95e820225e5",
    "inputHash": "0x9fe5270d5843df4d390cfc078dd4e7197fb36deee3c9d5f0ae3ba2684e47eb40",
    "globalExitRoot": "0x090bcaf734c4f06c93954a827b45a6e8c67b8e0fd1e0a35a1c5982d6961828f9",
    "oldLocalExitRoot": "0x0000000000000000000000000000000000000000000000000000000000000000",
    "batchL2Data": "0xf86e80843b9aca00830f42409485e844b762a271022b692cf99ce5c59ba0650ac883038b83b8448f740d240000000000000000000000001275fbb540c8efc58b812ba83b0d0b8b9917ae9800000000000000000000000013db4b51c5174ee2366e878a367aa1d426970ade8203e9808038d6d8986e464ff2e6fda8eb706327ecc49fda87f5e2118fc073286c7d71b35e0dd8838c02ffe9d4cc10e3003ddf2ab6b7ccf93802e52f771ef63f441fd772d61c"
  }
]