[
  {
    "id": 0,
    "description": "Call with return",
    "arity": 4,
    "chainIdSequencer": 1001,
    "defaultChainId": 1000,
    "sequencerAddress": "0x617b3a3528F9cDd6630fd3301B9c8911F7Bf063D",
    "sequencerPvtKey": "0x28b2b0318721be8c8339199172cd7cc8f5e273800a35616ec893083a4b32c02e",
    "genesis": [
      {
        "address": "0x617b3a3528F9cDd6630fd3301B9c8911F7Bf063D",
        "nonce": "0",
        "balance": "100000000000000000000",
        "pvtKey": "0x28b2b0318721be8c8339199172cd7cc8f5e273800a35616ec893083a4b32c02e"
      },
      {
        "address": "0x4d5Cf5032B2a844602278b01199ED191A86c93ff",
        "nonce": "0",
        "balance": "200000000000000000000",
        "pvtKey": "0x4d27a600dce8c29b7bd080e29a26972377dbb04d7a27d919adbb602bf13cfd23"
      },
      {
        "address": "0x1275fbb540c8efc58b812ba83b0d0b8b9917ae98",
        "nonce": 1,
        "balance": 0,
        "bytecode": "0x6080604052600436106100295760003560e01c80638eda2bf81461002e578063ed1cf0e21461005e575b600080fd5b610048600480360381019061004391906102f9565b610089565b604051610055919061041b565b60405180910390f35b34801561006a57600080fd5b506100736101a9565b604051610080919061041b565b60405180910390f35b60008060008373ffffffffffffffffffffffffffffffffffffffff1634856040516024016100b791906103d7565b6040516020818303038152906040527f8eda2bf8000000000000000000000000000000000000000000000000000000007bffffffffffffffffffffffffffffffffffffffffffffffffffffffff19166020820180517bffffffffffffffffffffffffffffffffffffffffffffffffffffffff838183161783525050505060405161014191906103c0565b60006040518083038185875af1925050503d806000811461017e576040519150601f19603f3d011682016040523d82523d6000602084013e610183565b606091505b50915091508080602001905181019061019c9190610326565b6000819055505050919050565b60008060003073ffffffffffffffffffffffffffffffffffffffff16600260036040516024016101da9291906103f2565b6040516020818303038152906040527f502aef9d000000000000000000000000000000000000000000000000000000007bffffffffffffffffffffffffffffffffffffffffffffffffffffffff19166020820180517bffffffffffffffffffffffffffffffffffffffffffffffffffffffff838183161783525050505060405161026491906103c0565b6000604051808303816000865af19150503d80600081146102a1576040519150601f19603f3d011682016040523d82523d6000602084013e6102a6565b606091505b5091509150808060200190518101906102bf9190610326565b6000819055506000549250505090565b6000813590506102de816104f1565b92915050565b6000815190506102f381610508565b92915050565b60006020828403121561030f5761030e6104ec565b5b600061031d848285016102cf565b91505092915050565b60006020828403121561033c5761033b6104ec565b5b600061034a848285016102e4565b91505092915050565b61035c8161044c565b82525050565b600061036d82610436565b6103778185610441565b93506103878185602086016104b9565b80840191505092915050565b61039c81610495565b82525050565b6103ab816104a7565b82525050565b6103ba8161047e565b82525050565b60006103cc8284610362565b915081905092915050565b60006020820190506103ec6000830184610353565b92915050565b60006040820190506104076000830185610393565b61041460208301846103a2565b9392505050565b600060208201905061043060008301846103b1565b92915050565b600081519050919050565b600081905092915050565b60006104578261045e565b9050919050565b600073ffffffffffffffffffffffffffffffffffffffff82169050919050565b6000819050919050565b600060ff82169050919050565b60006104a082610488565b9050919050565b60006104b282610488565b9050919050565b60005b838110156104d75780820151818401526020810190506104bc565b838111156104e6576000848401525b50505050565b600080fd5b6104fa8161044c565b811461050557600080fd5b50565b6105118161047e565b811461051c57600080fd5b5056fea2646970667358221220c441a36b6c92dce3278a427f5ccd6512a94b01c54f16592a1d715133c0c65eb964736f6c63430008070033",
        "abi": [
          {
            "inputs": [
              {
                "internalType": "address",
                "name": "addrCall",
                "type": "address"
              }
            ],
            "name": "opDelegateCallSelfBalance",
            "outputs": [
              {
                "internalType": "uint256",
                "name": "",
                "type": "uint256"
              }
            ],
            "stateMutability": "payable",
            "type": "function"
          },
          {
            "inputs": [],
            "name": "simpleReturn",
            "outputs": [
              {
                "internalType": "uint256",
                "name": "",
                "type": "uint256"
              }
            ],
            "stateMutability": "nonpayable",
            "type": "function"
          }
        ],
        "storage": {
          "0x0000000000000000000000000000000000000000000000000000000000000000": "0x01"
        }
      },
      {
        "address": "0x85e844b762a271022b692cf99ce5c59ba0650ac8",
        "nonce": 1,
        "balance": 0,
        "bytecode": "0x6080604052600436106100865760003560e01c80633182d9a9116100595780633182d9a9146101145780636aecbc331461013f5780638b00fb6a1461016a5780638eda2bf81461019a578063f80efde5146101ca57610086565b806303cfd8461461008b57806303d3e8a7146100a95780630f52d66e146100c0578063266f6aec146100fd575b600080fd5b6100936101e8565b6040516100a09190610485565b60405180910390f35b3480156100b557600080fd5b506100be6101f4565b005b3480156100cc57600080fd5b506100e760048036038101906100e291906103ee565b610203565b6040516100f49190610485565b60405180910390f35b34801561010957600080fd5b50610112610219565b005b34801561012057600080fd5b50610129610229565b6040516101369190610485565b60405180910390f35b34801561014b57600080fd5b50610154610244565b6040516101619190610485565b60405180910390f35b610184600480360381019061017f91906103c1565b610251565b6040516101919190610485565b60405180910390f35b6101b460048036038101906101af91906103c1565b61025b565b6040516101c19190610485565b60405180910390f35b6101d2610369565b6040516101df9190610485565b60405180910390f35b60004760008190555090565b6000801461020157600080fd5b565b6000818361021191906104b6565b905092915050565b600060011461022757600080fd5b565b60006912121212121212121212600055640123456689905090565b6000640123456689905090565b6000479050919050565b60008173ffffffffffffffffffffffffffffffffffffffff16346040516024016040516020818303038152906040527f23801894000000000000000000000000000000000000000000000000000000007bffffffffffffffffffffffffffffffffffffffffffffffffffffffff19166020820180517bffffffffffffffffffffffffffffffffffffffffffffffffffffffff8381831617835250505050604051610305919061046e565b60006040518083038185875af1925050503d8060008114610342576040519150601f19603f3d011682016040523d82523d6000602084013e610347565b606091505b5050503080600355388060045559816000823980518160055550505050919050565b6000803390506000349050691212121212121212121260005581600155806002556401234566899250505090565b6000813590506103a6816105af565b92915050565b6000813590506103bb816105c6565b92915050565b6000602082840312156103d7576103d66105aa565b5b60006103e584828501610397565b91505092915050565b60008060408385031215610405576104046105aa565b5b6000610413858286016103ac565b9250506020610424858286016103ac565b9150509250929050565b6000610439826104a0565b61044381856104ab565b9350610453818560208601610548565b80840191505092915050565b6104688161053e565b82525050565b600061047a828461042e565b915081905092915050565b600060208201905061049a600083018461045f565b92915050565b600081519050919050565b600081905092915050565b60006104c18261053e565b91506104cc8361053e565b9250827fffffffffffffffffffffffffffffffffffffffffffffffffffffffffffffffff038211156105015761050061057b565b5b828201905092915050565b60006105178261051e565b9050919050565b600073ffffffffffffffffffffffffffffffffffffffff82169050919050565b6000819050919050565b60005b8381101561056657808201518184015260208101905061054b565b83811115610575576000848401525b50505050565b7f4e487b7100000000000000000000000000000000000000000000000000000000600052601160045260246000fd5b600080fd5b6105b88161050c565b81146105c357600080fd5b50565b6105cf8161053e565b81146105da57600080fd5b5056fea26469706673582212206ee82703a1fdc5ecbaf13ddac214c59329281456387b85c3317e87c343c086a864736f6c63430008070033",
        "abi": [
          {
            "inputs": [
              {
                "internalType": "uint256",
                "name": "a",
                "type": "uint256"
              },
              {
                "internalType": "uint256",
                "name": "b",
                "type": "uint256"
              }
            ],
            "name": "addTwo",
            "outputs": [
              {
                "internalType": "uint256",
                "name": "",
                "type": "uint256"
              }
            ],
            "stateMutability": "nonpayable",
            "type": "function"
          },
          {
            "inputs": [],
            "name": "auxFail",
            "outputs": [],
            "stateMutability": "nonpayable",
            "type": "function"
          },
          {
            "inputs": [],
            "name": "auxReturn",
            "outputs": [
              {
                "internalType": "uint256",
                "name": "",
                "type": "uint256"
              }
            ],
            "stateMutability": "nonpayable",
            "type": "function"
          },
          {
            "inputs": [],
            "name": "auxStop",
            "outputs": [],
            "stateMutability": "nonpayable",
            "type": "function"
          },
          {
            "inputs": [],
            "name": "auxUpdate",
            "outputs": [
              {
                "internalType": "uint256",
                "name": "",
                "type": "uint256"
              }
            ],
            "stateMutability": "nonpayable",
            "type": "function"
          },
          {
            "inputs": [],
            "name": "auxUpdateValues",
            "outputs": [
              {
                "internalType": "uint256",
                "name": "",
                "type": "uint256"
              }
            ],
            "stateMutability": "payable",
            "type": "function"
          },
          {
            "inputs": [
              {
                "internalType": "address",
                "name": "addrCall",
                "type": "address"
              }
            ],
            "name": "opDelegateCallSelfBalance",
            "outputs": [
              {
                "internalType": "uint256",
                "name": "",
                "type": "uint256"
              }
            ],
            "stateMutability": "payable",
            "type": "function"
          },
          {
            "inputs": [],
            "name": "opDelegateSelfBalance",
            "outputs": [
              {
                "internalType": "uint256",
                "name": "",
                "type": "uint256"
              }
            ],
            "stateMutability": "payable",
            "type": "function"
          },
          {
            "inputs": [
              {
                "internalType": "address",
                "name": "addrCall",
                "type": "address"
              }
            ],
            "name": "opReturnCallSelfBalance",
            "outputs": [
              {
                "internalType": "uint256",
                "name": "",
                "type": "uint256"
              }
            ],
            "stateMutability": "payable",
            "type": "function"
          }
        ],
        "storage": {
          "0x0000000000000000000000000000000000000000000000000000000000000000": "0x01"
        }
      }
    ],
    "expectedOldRoot": "0x2ef218f6755f2364647483ce50cf72e76da887ad6e930525df68b28e8f163e35",
    "txs": [
      {
        "from": "0x4d5Cf5032B2a844602278b01199ED191A86c93ff",
        "to": "0x1275fbb540c8efc58b812ba83b0d0b8b9917ae98",
        "nonce": "0",
        "value": "555555",
        "data": "0x8eda2bf800000000000000000000000085e844b762a271022b692cf99ce5c59ba0650ac8",
        "gasLimit": 100000,
        "gasPrice": "1000000000",
        "chainId": 1001
      }
    ],
    "expectedNewRoot": "0xefb4bcb80b3ade46d37115f0948c0ff88a8df04102e819951f305dbc7297d9e4",
    "expectedNewLeafs": {
      "0x617b3a3528F9cDd6630fd3301B9c8911F7Bf063D": {
        "balance": "100000099135000000000",
        "nonce": "0",
        "storage": null,
        "hashBytecode": "0x0000000000000000000000000000000000000000000000000000000000000000"
      },
      "0x4d5Cf5032B2a844602278b01199ED191A86c93ff": {
        "balance": "199999900865000000000",
        "nonce": "1",
        "storage": null,
        "hashBytecode": "0x0000000000000000000000000000000000000000000000000000000000000000"
      },
      "0x1275fbb540c8efc58b812ba83b0d0b8b9917ae98": {
        "balance": "0",
        "nonce": "1",
        "storage": {
          "0x0000000000000000000000000000000000000000000000000000000000000000": "0x01"
        },
        "hashBytecode": "0xc1f72f69707dce260976677cc2c663c6cfe81522cde2a999cd4219ce8c433ff1"
      },
      "0x85e844b762a271022b692cf99ce5c59ba0650ac8": {
        "balance": "0",
        "nonce": "1",
        "storage": {
          "0x0000000000000000000000000000000000000000000000000000000000000000": "0x01"
        },
        "hashBytecode": "0xff75e88faf333132784f4f7d14841fe041544bcd36e3405612d010de01f53c2a"
      },
      "0x13db4b51c5174ee2366e878a367aa1d426970ade": {
        "balance": "0",
        "nonce": "0",
        "storage": null,
        "hashBytecode": "0x0000000000000000000000000000000000000000000000000000000000000000"
      }
    },
    "timestamp": 1944498031,
    "newLocalExitRoot": "0x0000000000000000000000000000000000000000000000000000000000000000",
    "batchHashData": "0xacc36913c35b85f3ee97e0501ade8ca1f77a37c4e34a5bfaac12c69b9fd299f3",
    "inputHash": "0xed391c8e0a6bf08fa0c562389fcfa553dddcf2c08cd62a5bbfbb605510925a1a",
    "globalExitRoot": "0x090bcaf734c4f06c93954a827b45a6e8c67b8e0fd1e0a35a1c5982d6961828f9",
    "oldLocalExitRoot": "0x0000000000000000000000000000000000000000000000000000000000000000",
    "batchL2Data": "0xf84d80843b9aca00830186a0941275fbb540c8efc58b812ba83b0d0b8b9917ae9883087a23a48eda2bf800000000000000000000000085e844b762a271022b692cf99ce5c59ba0650ac88203e9808045f7514d2a9cd0e6b5cf9b3196d24b44355b166c7628791e3c6489df1efabca553d73b323db9e983c69a20ed492634414748bde087f22a8bbf33b12a3c0d86f31c"
  }
]