[
  {
    "id": 0,
    "description": "opSELFDESTRUCT non-empty receiver",
    "arity": 4,
    "chainIdSequencer": 1001,
    "defaultChainId": 1000,
    "sequencerAddress": "0x617b3a3528F9cDd6630fd3301B9c8911F7Bf063D",
    "sequencerPvtKey": "0x28b2b0318721be8c8339199172cd7cc8f5e273800a35616ec893083a4b32c02e",
    "genesis": [
      {
        "address": "0x617b3a3528F9cDd6630fd3301B9c8911F7Bf063D",
        "nonce": "0",
        "balance": "100000000000000000000",
        "pvtKey": "0x28b2b0318721be8c8339199172cd7cc8f5e273800a35616ec893083a4b32c02e"
      },
      {
        "address": "0x4d5Cf5032B2a844602278b01199ED191A86c93ff",
        "nonce": "0",
        "balance": "200000000000000000000",
        "pvtKey": "0x4d27a600dce8c29b7bd080e29a26972377dbb04d7a27d919adbb602bf13cfd23"
      },
      {
        "address": "0xEEEeF5032B2A844602278B01199ED191a86cEEeE",
        "nonce": "1",
        "balance": "0"
      },
      {
        "address": "0x1275fbb540c8efc58b812ba83b0d0b8b9917ae98",
        "nonce": 1,
        "balance": 0,
        "bytecode": "0x60806040526004361061004a5760003560e01c80632b68b9c61461004f5780633fa4f245146100665780635cfb28e714610091578063718da7ee1461009b578063cc5fe89a146100c4575b600080fd5b34801561005b57600080fd5b506100646100db565b005b34801561007257600080fd5b5061007b610114565b6040516100889190610216565b60405180910390f35b61009961011a565b005b3480156100a757600080fd5b506100c260048036038101906100bd91906101da565b610123565b005b3480156100d057600080fd5b506100d9610166565b005b60008054906101000a900473ffffffffffffffffffffffffffffffffffffffff1673ffffffffffffffffffffffffffffffffffffffff16ff5b60015481565b34600181905550565b806000806101000a81548173ffffffffffffffffffffffffffffffffffffffff021916908373ffffffffffffffffffffffffffffffffffffffff16021790555050565b60008060009054906101000a900473ffffffffffffffffffffffffffffffffffffffff16905060008054906101000a900473ffffffffffffffffffffffffffffffffffffffff1673ffffffffffffffffffffffffffffffffffffffff16ff5b6000813590506101d481610272565b92915050565b6000602082840312156101f0576101ef61026d565b5b60006101fe848285016101c5565b91505092915050565b61021081610263565b82525050565b600060208201905061022b6000830184610207565b92915050565b600061023c82610243565b9050919050565b600073ffffffffffffffffffffffffffffffffffffffff82169050919050565b6000819050919050565b600080fd5b61027b81610231565b811461028657600080fd5b5056fea26469706673582212201fc1c1f075e924d7a5c997f61ffcb7e28cd8c866bd85135ab58af3e94d703d2064736f6c63430008070033",
        "abi": [
          {
            "inputs": [],
            "name": "destruct",
            "outputs": [],
            "stateMutability": "nonpayable",
            "type": "function"
          },
          {
            "inputs": [],
            "name": "destructWarm",
            "outputs": [],
            "stateMutability": "nonpayable",
            "type": "function"
          },
          {
            "inputs": [
              {
                "internalType": "address",
                "name": "_receiver",
                "type": "address"
              }
            ],
            "name": "setReceiver",
            "outputs": [],
            "stateMutability": "nonpayable",
            "type": "function"
          },
          {
            "inputs": [],
            "name": "setVal",
            "outputs": [],
            "stateMutability": "payable",
            "type": "function"
          },
          {
            "inputs": [],
            "name": "value",
            "outputs": [
              {
                "internalType": "uint256",
                "name": "",
                "type": "uint256"
              }
            ],
            "stateMutability": "view",
            "type": "function"
          }
        ],
        "storage": {}
      }
    ],
    "expectedOldRoot": "0xad287008f4d3b35ca79ccbcd963a653114ad0e38882cb273be9436494d4d59e1",
    "txs": [
      {
        "from": "0x617b3a3528F9cDd6630fd3301B9c8911F7Bf063D",
        "to": "0x1275fbb540c8efc58b812ba83b0d0b8b9917ae98",
        "nonce": "0",
        "value": "0",
        "data": "0x718da7ee000000000000000000000000eeeef5032b2a844602278b01199ed191a86ceeee",
        "gasLimit": 100000,
        "gasPrice": "1000000000",
        "chainId": 1001
      },
      {
        "from": "0x617b3a3528F9cDd6630fd3301B9c8911F7Bf063D",
        "to": "0x1275fbb540c8efc58b812ba83b0d0b8b9917ae98",
        "nonce": "1",
        "value": "123456789",
        "data": "0x5cfb28e7",
        "gasLimit": 100000,
        "gasPrice": "1000000000",
        "chainId": 1001
      },
      {
        "from": "0x4d5Cf5032B2a844602278b01199ED191A86c93ff",
        "to": "0x1275fbb540c8efc58b812ba83b0d0b8b9917ae98",
        "nonce": "0",
        "value": "0",
        "data": "0x2b68b9c6",
        "gasLimit": 100000,
        "gasPrice": "1000000000",
        "chainId": 1001
      }
    ],
    "expectedNewRoot": "0x5649d80e08f7e13770b62b3d9fce59596c31b19a2ba867f348f49ec8cbde5348",
    "expectedNewLeafs": {
      "0x0000000000000000000000000000000000000000": {
        "balance": "0",
        "nonce": "0",
        "storage": {
          "0xad3228b676f7d3cd4284a5443f17f1962b36e491b30a40b2405849e597ba5fb5": "0xad287008f4d3b35ca79ccbcd963a653114ad0e38882cb273be9436494d4d59e1"
        },
        "hashBytecode": "0x0000000000000000000000000000000000000000000000000000000000000000"
      },
      "0xAE4bB80bE56B819606589DE61d5ec3b522EEB032": {
        "balance": "0",
        "nonce": "0",
        "storage": {
          "0xada5013122d395ba3c54772283fb069b10426056ef8ca54750cb9bb552a59e7d": "0x090bcaf734c4f06c93954a827b45a6e8c67b8e0fd1e0a35a1c5982d6961828f9"
        },
        "hashBytecode": "0x0000000000000000000000000000000000000000000000000000000000000000"
      },
      "0x1275fbb540c8efc58b812ba83b0d0b8b9917ae98": {
        "balance": "0",
        "nonce": "1",
        "storage": {
          "0x0000000000000000000000000000000000000000000000000000000000000000": "0xeeeef5032b2a844602278b01199ed191a86ceeee",
          "0x0000000000000000000000000000000000000000000000000000000000000001": "0x075bcd15"
        },
        "hashBytecode": "0x0000000000000000000000000000000000000000000000000000000000000000"
      },
      "0x617b3a3528F9cDd6630fd3301B9c8911F7Bf063D": {
        "balance": "100000015459876543211",
        "nonce": "2",
        "storage": null,
        "hashBytecode": "0x0000000000000000000000000000000000000000000000000000000000000000"
      },
      "0x4d5Cf5032B2a844602278b01199ED191A86c93ff": {
        "balance": "199999984540000000000",
        "nonce": "1",
        "storage": null,
        "hashBytecode": "0x0000000000000000000000000000000000000000000000000000000000000000"
      },
      "0xEEEeF5032B2A844602278B01199ED191a86cEEeE": {
        "balance": "123456789",
        "nonce": "1",
        "storage": null,
        "hashBytecode": "0x0000000000000000000000000000000000000000000000000000000000000000"
      }
    },
    "timestamp": 1944498031,
    "newLocalExitRoot": "0x0000000000000000000000000000000000000000000000000000000000000000",
    "batchHashData": "0x1b7c1d177b9b37a5166cd517b55694b4a3f1018b5fc11976baf83e80318dc75d",
    "inputHash": "0xa8f58616e7432234515c48df63101e66f50207766b153cfdb9ff76d7cbb2ac3c",
    "globalExitRoot": "0x090bcaf734c4f06c93954a827b45a6e8c67b8e0fd1e0a35a1c5982d6961828f9",
    "oldLocalExitRoot": "0x0000000000000000000000000000000000000000000000000000000000000000",
    "batchL2Data": "0xf84a80843b9aca00830186a0941275fbb540c8efc58b812ba83b0d0b8b9917ae9880a4718da7ee000000000000000000000000eeeef5032b2a844602278b01199ed191a86ceeee8203e98080a457712a6eb67d18d64cf0bb9913a8da248ad89357496274a2c08e2397ac528f6e24598f11ee531f0f63f6066f893f736ebf6202db25e52d31d8203d046c54ed1bee01843b9aca00830186a0941275fbb540c8efc58b812ba83b0d0b8b9917ae9884075bcd15845cfb28e78203e980807b9752d8bb13b79712282210eea9857d26cf931ef506cf3d79502145989f74d00f9fcb01c3ef75732036b49c45dc2c18b356b303933dad72e3954de1e628e8761cea80843b9aca00830186a0941275fbb540c8efc58b812ba83b0d0b8b9917ae9880842b68b9c68203e98080828473d3d621d9ea1f018e94e70623d2e882a445c4938519a1f2041442fd64de580e655d2a43db475b852974fa551b7743442ebb59613e8009d940ce40ef138d1c"
  },
  {
    "id": 1,
    "description": "opSELFDESTRUCT empty receiver",
    "arity": 4,
    "chainIdSequencer": 1001,
    "defaultChainId": 1000,
    "sequencerAddress": "0x617b3a3528F9cDd6630fd3301B9c8911F7Bf063D",
    "sequencerPvtKey": "0x28b2b0318721be8c8339199172cd7cc8f5e273800a35616ec893083a4b32c02e",
    "genesis": [
      {
        "address": "0x617b3a3528F9cDd6630fd3301B9c8911F7Bf063D",
        "nonce": "0",
        "balance": "100000000000000000000",
        "pvtKey": "0x28b2b0318721be8c8339199172cd7cc8f5e273800a35616ec893083a4b32c02e"
      },
      {
        "address": "0x4d5Cf5032B2a844602278b01199ED191A86c93ff",
        "nonce": "0",
        "balance": "200000000000000000000",
        "pvtKey": "0x4d27a600dce8c29b7bd080e29a26972377dbb04d7a27d919adbb602bf13cfd23"
      },
      {
        "address": "0xEEEeF5032B2A844602278B01199ED191a86cEEeE",
        "nonce": "0",
        "balance": "0"
      },
      {
        "address": "0x1275fbb540c8efc58b812ba83b0d0b8b9917ae98",
        "nonce": 1,
        "balance": 0,
        "bytecode": "0x60806040526004361061004a5760003560e01c80632b68b9c61461004f5780633fa4f245146100665780635cfb28e714610091578063718da7ee1461009b578063cc5fe89a146100c4575b600080fd5b34801561005b57600080fd5b506100646100db565b005b34801561007257600080fd5b5061007b610114565b6040516100889190610216565b60405180910390f35b61009961011a565b005b3480156100a757600080fd5b506100c260048036038101906100bd91906101da565b610123565b005b3480156100d057600080fd5b506100d9610166565b005b60008054906101000a900473ffffffffffffffffffffffffffffffffffffffff1673ffffffffffffffffffffffffffffffffffffffff16ff5b60015481565b34600181905550565b806000806101000a81548173ffffffffffffffffffffffffffffffffffffffff021916908373ffffffffffffffffffffffffffffffffffffffff16021790555050565b60008060009054906101000a900473ffffffffffffffffffffffffffffffffffffffff16905060008054906101000a900473ffffffffffffffffffffffffffffffffffffffff1673ffffffffffffffffffffffffffffffffffffffff16ff5b6000813590506101d481610272565b92915050565b6000602082840312156101f0576101ef61026d565b5b60006101fe848285016101c5565b91505092915050565b61021081610263565b82525050565b600060208201905061022b6000830184610207565b92915050565b600061023c82610243565b9050919050565b600073ffffffffffffffffffffffffffffffffffffffff82169050919050565b6000819050919050565b600080fd5b61027b81610231565b811461028657600080fd5b5056fea26469706673582212201fc1c1f075e924d7a5c997f61ffcb7e28cd8c866bd85135ab58af3e94d703d2064736f6c63430008070033",
        "abi": [
          {
            "inputs": [],
            "name": "destruct",
            "outputs": [],
            "stateMutability": "nonpayable",
            "type": "function"
          },
          {
            "inputs": [],
            "name": "destructWarm",
            "outputs": [],
            "stateMutability": "nonpayable",
            "type": "function"
          },
          {
            "inputs": [
              {
                "internalType": "address",
                "name": "_receiver",
                "type": "address"
              }
            ],
            "name": "setReceiver",
            "outputs": [],
            "stateMutability": "nonpayable",
            "type": "function"
          },
          {
            "inputs": [],
            "name": "setVal",
            "outputs": [],
            "stateMutability": "payable",
            "type": "function"
          },
          {
            "inputs": [],
            "name": "value",
            "outputs": [
              {
                "internalType": "uint256",
                "name": "",
                "type": "uint256"
              }
            ],
            "stateMutability": "view",
            "type": "function"
          }
        ],
        "storage": {}
      }
    ],
    "expectedOldRoot": "0x0f601bd79633690cf2dba7106fe8eaf0727acde1581d9d2411733bb0790eff66",
    "txs": [
      {
        "from": "0x617b3a3528F9cDd6630fd3301B9c8911F7Bf063D",
        "to": "0x1275fbb540c8efc58b812ba83b0d0b8b9917ae98",
        "nonce": "0",
        "value": "0",
        "data": "0x718da7ee000000000000000000000000eeeef5032b2a844602278b01199ed191a86ceeee",
        "gasLimit": 100000,
        "gasPrice": "1000000000",
        "chainId": 1001
      },
      {
        "from": "0x617b3a3528F9cDd6630fd3301B9c8911F7Bf063D",
        "to": "0x1275fbb540c8efc58b812ba83b0d0b8b9917ae98",
        "nonce": "1",
        "value": "123456789",
        "data": "0x5cfb28e7",
        "gasLimit": 100000,
        "gasPrice": "1000000000",
        "chainId": 1001
      },
      {
        "from": "0x4d5Cf5032B2a844602278b01199ED191A86c93ff",
        "to": "0x1275fbb540c8efc58b812ba83b0d0b8b9917ae98",
        "nonce": "0",
        "value": "0",
        "data": "0x2b68b9c6",
        "gasLimit": 100000,
        "gasPrice": "1000000000",
        "chainId": 1001
      }
    ],
    "expectedNewRoot": "0xb806775968125a7a3869ecc3e931ddafbc5c1009d379fd8211b9a3f05102a375",
    "expectedNewLeafs": {
      "0x0000000000000000000000000000000000000000": {
        "balance": "0",
        "nonce": "0",
        "storage": {
          "0xad3228b676f7d3cd4284a5443f17f1962b36e491b30a40b2405849e597ba5fb5": "0x0f601bd79633690cf2dba7106fe8eaf0727acde1581d9d2411733bb0790eff66"
        },
        "hashBytecode": "0x0000000000000000000000000000000000000000000000000000000000000000"
      },
      "0xAE4bB80bE56B819606589DE61d5ec3b522EEB032": {
        "balance": "0",
        "nonce": "0",
        "storage": {
          "0xada5013122d395ba3c54772283fb069b10426056ef8ca54750cb9bb552a59e7d": "0x090bcaf734c4f06c93954a827b45a6e8c67b8e0fd1e0a35a1c5982d6961828f9"
        },
        "hashBytecode": "0x0000000000000000000000000000000000000000000000000000000000000000"
      },
      "0x1275fbb540c8efc58b812ba83b0d0b8b9917ae98": {
        "balance": "0",
        "nonce": "1",
        "storage": {
          "0x0000000000000000000000000000000000000000000000000000000000000000": "0xeeeef5032b2a844602278b01199ed191a86ceeee",
          "0x0000000000000000000000000000000000000000000000000000000000000001": "0x075bcd15"
        },
        "hashBytecode": "0x0000000000000000000000000000000000000000000000000000000000000000"
      },
      "0x617b3a3528F9cDd6630fd3301B9c8911F7Bf063D": {
        "balance": "100000031918876543211",
        "nonce": "2",
        "storage": null,
        "hashBytecode": "0x0000000000000000000000000000000000000000000000000000000000000000"
      },
      "0x4d5Cf5032B2a844602278b01199ED191A86c93ff": {
        "balance": "199999968081000000000",
        "nonce": "1",
        "storage": null,
        "hashBytecode": "0x0000000000000000000000000000000000000000000000000000000000000000"
      },
      "0xEEEeF5032B2A844602278B01199ED191a86cEEeE": {
        "balance": "123456789",
        "nonce": "0",
        "storage": null,
        "hashBytecode": "0x0000000000000000000000000000000000000000000000000000000000000000"
      }
    },
    "timestamp": 1944498031,
    "newLocalExitRoot": "0x0000000000000000000000000000000000000000000000000000000000000000",
    "batchHashData": "0x1b7c1d177b9b37a5166cd517b55694b4a3f1018b5fc11976baf83e80318dc75d",
    "inputHash": "0x7233b13208d42861bcd9a4aa7df8e911e4f2e9471e264b3ce7572bef9ecf0ef8",
    "globalExitRoot": "0x090bcaf734c4f06c93954a827b45a6e8c67b8e0fd1e0a35a1c5982d6961828f9",
    "oldLocalExitRoot": "0x0000000000000000000000000000000000000000000000000000000000000000",
    "batchL2Data": "0xf84a80843b9aca00830186a0941275fbb540c8efc58b812ba83b0d0b8b9917ae9880a4718da7ee000000000000000000000000eeeef5032b2a844602278b01199ed191a86ceeee8203e98080a457712a6eb67d18d64cf0bb9913a8da248ad89357496274a2c08e2397ac528f6e24598f11ee531f0f63f6066f893f736ebf6202db25e52d31d8203d046c54ed1bee01843b9aca00830186a0941275fbb540c8efc58b812ba83b0d0b8b9917ae9884075bcd15845cfb28e78203e980807b9752d8bb13b79712282210eea9857d26cf931ef506cf3d79502145989f74d00f9fcb01c3ef75732036b49c45dc2c18b356b303933dad72e3954de1e628e8761cea80843b9aca00830186a0941275fbb540c8efc58b812ba83b0d0b8b9917ae9880842b68b9c68203e98080828473d3d621d9ea1f018e94e70623d2e882a445c4938519a1f2041442fd64de580e655d2a43db475b852974fa551b7743442ebb59613e8009d940ce40ef138d1c"
  },
  {
    "id": 2,
    "description": "opSELFDESTRUCT non-empty cold receiver",
    "arity": 4,
    "chainIdSequencer": 1001,
    "defaultChainId": 1000,
    "sequencerAddress": "0x617b3a3528F9cDd6630fd3301B9c8911F7Bf063D",
    "sequencerPvtKey": "0x28b2b0318721be8c8339199172cd7cc8f5e273800a35616ec893083a4b32c02e",
    "genesis": [
      {
        "address": "0x617b3a3528F9cDd6630fd3301B9c8911F7Bf063D",
        "nonce": "0",
        "balance": "100000000000000000000",
        "pvtKey": "0x28b2b0318721be8c8339199172cd7cc8f5e273800a35616ec893083a4b32c02e"
      },
      {
        "address": "0x4d5Cf5032B2a844602278b01199ED191A86c93ff",
        "nonce": "0",
        "balance": "200000000000000000000",
        "pvtKey": "0x4d27a600dce8c29b7bd080e29a26972377dbb04d7a27d919adbb602bf13cfd23"
      },
      {
        "address": "0xEEEeF5032B2A844602278B01199ED191a86cEEeE",
        "nonce": "0",
        "balance": "0"
      },
      {
        "address": "0x1275fbb540c8efc58b812ba83b0d0b8b9917ae98",
        "nonce": 1,
        "balance": 0,
        "bytecode": "0x60806040526004361061004a5760003560e01c80632b68b9c61461004f5780633fa4f245146100665780635cfb28e714610091578063718da7ee1461009b578063cc5fe89a146100c4575b600080fd5b34801561005b57600080fd5b506100646100db565b005b34801561007257600080fd5b5061007b610114565b6040516100889190610216565b60405180910390f35b61009961011a565b005b3480156100a757600080fd5b506100c260048036038101906100bd91906101da565b610123565b005b3480156100d057600080fd5b506100d9610166565b005b60008054906101000a900473ffffffffffffffffffffffffffffffffffffffff1673ffffffffffffffffffffffffffffffffffffffff16ff5b60015481565b34600181905550565b806000806101000a81548173ffffffffffffffffffffffffffffffffffffffff021916908373ffffffffffffffffffffffffffffffffffffffff16021790555050565b60008060009054906101000a900473ffffffffffffffffffffffffffffffffffffffff16905060008054906101000a900473ffffffffffffffffffffffffffffffffffffffff1673ffffffffffffffffffffffffffffffffffffffff16ff5b6000813590506101d481610272565b92915050565b6000602082840312156101f0576101ef61026d565b5b60006101fe848285016101c5565b91505092915050565b61021081610263565b82525050565b600060208201905061022b6000830184610207565b92915050565b600061023c82610243565b9050919050565b600073ffffffffffffffffffffffffffffffffffffffff82169050919050565b6000819050919050565b600080fd5b61027b81610231565b811461028657600080fd5b5056fea26469706673582212201fc1c1f075e924d7a5c997f61ffcb7e28cd8c866bd85135ab58af3e94d703d2064736f6c63430008070033",
        "abi": [
          {
            "inputs": [],
            "name": "destruct",
            "outputs": [],
            "stateMutability": "nonpayable",
            "type": "function"
          },
          {
            "inputs": [],
            "name": "destructWarm",
            "outputs": [],
            "stateMutability": "nonpayable",
            "type": "function"
          },
          {
            "inputs": [
              {
                "internalType": "address",
                "name": "_receiver",
                "type": "address"
              }
            ],
            "name": "setReceiver",
            "outputs": [],
            "stateMutability": "nonpayable",
            "type": "function"
          },
          {
            "inputs": [],
            "name": "setVal",
            "outputs": [],
            "stateMutability": "payable",
            "type": "function"
          },
          {
            "inputs": [],
            "name": "value",
            "outputs": [
              {
                "internalType": "uint256",
                "name": "",
                "type": "uint256"
              }
            ],
            "stateMutability": "view",
            "type": "function"
          }
        ],
        "storage": {}
      }
    ],
    "expectedOldRoot": "0x0f601bd79633690cf2dba7106fe8eaf0727acde1581d9d2411733bb0790eff66",
    "txs": [
      {
        "from": "0x617b3a3528F9cDd6630fd3301B9c8911F7Bf063D",
        "to": "0x1275fbb540c8efc58b812ba83b0d0b8b9917ae98",
        "nonce": "0",
        "value": "0",
        "data": "0x718da7ee000000000000000000000000eeeef5032b2a844602278b01199ed191a86ceeee",
        "gasLimit": 100000,
        "gasPrice": "1000000000",
        "chainId": 1001
      },
      {
        "from": "0x617b3a3528F9cDd6630fd3301B9c8911F7Bf063D",
        "to": "0x1275fbb540c8efc58b812ba83b0d0b8b9917ae98",
        "nonce": "1",
        "value": "123456789",
        "data": "0x5cfb28e7",
        "gasLimit": 100000,
        "gasPrice": "1000000000",
        "chainId": 1001
      },
      {
        "from": "0x617b3a3528F9cDd6630fd3301B9c8911F7Bf063D",
        "to": "0xEEEeF5032B2A844602278B01199ED191a86cEEeE",
        "nonce": "2",
        "value": "3",
        "gasLimit": 100000,
        "gasPrice": "1000000000",
        "chainId": 1001
      },
      {
        "from": "0x4d5Cf5032B2a844602278b01199ED191A86c93ff",
        "to": "0x1275fbb540c8efc58b812ba83b0d0b8b9917ae98",
        "nonce": "0",
        "value": "0",
        "data": "0x2b68b9c6",
        "gasLimit": 100000,
        "gasPrice": "1000000000",
        "chainId": 1001
      }
    ],
    "expectedNewRoot": "0x775b5cb06a02860c9f0e415d337dea035e55b824076e714fcab6a21ddcef9e91",
    "expectedNewLeafs": {
      "0x0000000000000000000000000000000000000000": {
        "balance": "0",
        "nonce": "0",
        "storage": {
          "0xad3228b676f7d3cd4284a5443f17f1962b36e491b30a40b2405849e597ba5fb5": "0x0f601bd79633690cf2dba7106fe8eaf0727acde1581d9d2411733bb0790eff66"
        },
        "hashBytecode": "0x0000000000000000000000000000000000000000000000000000000000000000"
      },
      "0xAE4bB80bE56B819606589DE61d5ec3b522EEB032": {
        "balance": "0",
        "nonce": "0",
        "storage": {
          "0xada5013122d395ba3c54772283fb069b10426056ef8ca54750cb9bb552a59e7d": "0x090bcaf734c4f06c93954a827b45a6e8c67b8e0fd1e0a35a1c5982d6961828f9"
        },
        "hashBytecode": "0x0000000000000000000000000000000000000000000000000000000000000000"
      },
      "0x1275fbb540c8efc58b812ba83b0d0b8b9917ae98": {
        "balance": "0",
        "nonce": "1",
        "storage": {
          "0x0000000000000000000000000000000000000000000000000000000000000000": "0xeeeef5032b2a844602278b01199ed191a86ceeee",
          "0x0000000000000000000000000000000000000000000000000000000000000001": "0x075bcd15"
        },
        "hashBytecode": "0x0000000000000000000000000000000000000000000000000000000000000000"
      },
      "0x617b3a3528F9cDd6630fd3301B9c8911F7Bf063D": {
        "balance": "100000015459876543208",
        "nonce": "3",
        "storage": null,
        "hashBytecode": "0x0000000000000000000000000000000000000000000000000000000000000000"
      },
      "0x4d5Cf5032B2a844602278b01199ED191A86c93ff": {
        "balance": "199999984540000000000",
        "nonce": "1",
        "storage": null,
        "hashBytecode": "0x0000000000000000000000000000000000000000000000000000000000000000"
      },
      "0xEEEeF5032B2A844602278B01199ED191a86cEEeE": {
        "balance": "123456792",
        "nonce": "0",
        "storage": null,
        "hashBytecode": "0x0000000000000000000000000000000000000000000000000000000000000000"
      }
    },
    "timestamp": 1944498031,
    "newLocalExitRoot": "0x0000000000000000000000000000000000000000000000000000000000000000",
    "batchHashData": "0x00abdcabaa901c9b480ef06897b7a0bbffbda6548beb43ed95404a53cbe70b87",
    "inputHash": "0xd0fcb3de7f27b3cdab26d0b8e3b4eb5edcbf8eb9b69890825c7bf884d5c7f7c6",
    "globalExitRoot": "0x090bcaf734c4f06c93954a827b45a6e8c67b8e0fd1e0a35a1c5982d6961828f9",
    "oldLocalExitRoot": "0x0000000000000000000000000000000000000000000000000000000000000000",
    "batchL2Data": "0xf84a80843b9aca00830186a0941275fbb540c8efc58b812ba83b0d0b8b9917ae9880a4718da7ee000000000000000000000000eeeef5032b2a844602278b01199ed191a86ceeee8203e98080a457712a6eb67d18d64cf0bb9913a8da248ad89357496274a2c08e2397ac528f6e24598f11ee531f0f63f6066f893f736ebf6202db25e52d31d8203d046c54ed1bee01843b9aca00830186a0941275fbb540c8efc58b812ba83b0d0b8b9917ae9884075bcd15845cfb28e78203e980807b9752d8bb13b79712282210eea9857d26cf931ef506cf3d79502145989f74d00f9fcb01c3ef75732036b49c45dc2c18b356b303933dad72e3954de1e628e8761ce602843b9aca00830186a094eeeef5032b2a844602278b01199ed191a86ceeee03808203e9808079c7c70bc67e02ec130feb1ec3d8395e5014579ce602d21620c3b2fc0875776b5bc28d5ddd77789bab73f99f49135e45f7df7a03e712bd9935fd36bcaa1245761bea80843b9aca00830186a0941275fbb540c8efc58b812ba83b0d0b8b9917ae9880842b68b9c68203e98080828473d3d621d9ea1f018e94e70623d2e882a445c4938519a1f2041442fd64de580e655d2a43db475b852974fa551b7743442ebb59613e8009d940ce40ef138d1c"
  },
  {
    "id": 3,
    "description": "opSELFDESTRUCT non-empty warm receiver",
    "arity": 4,
    "chainIdSequencer": 1001,
    "defaultChainId": 1000,
    "sequencerAddress": "0x617b3a3528F9cDd6630fd3301B9c8911F7Bf063D",
    "sequencerPvtKey": "0x28b2b0318721be8c8339199172cd7cc8f5e273800a35616ec893083a4b32c02e",
    "genesis": [
      {
        "address": "0x617b3a3528F9cDd6630fd3301B9c8911F7Bf063D",
        "nonce": "0",
        "balance": "100000000000000000000",
        "pvtKey": "0x28b2b0318721be8c8339199172cd7cc8f5e273800a35616ec893083a4b32c02e"
      },
      {
        "address": "0x4d5Cf5032B2a844602278b01199ED191A86c93ff",
        "nonce": "0",
        "balance": "200000000000000000000",
        "pvtKey": "0x4d27a600dce8c29b7bd080e29a26972377dbb04d7a27d919adbb602bf13cfd23"
      },
      {
        "address": "0xEEEeF5032B2A844602278B01199ED191a86cEEeE",
        "nonce": "0",
        "balance": "0"
      },
      {
        "address": "0x1275fbb540c8efc58b812ba83b0d0b8b9917ae98",
        "nonce": 1,
        "balance": 0,
        "bytecode": "0x60806040526004361061004a5760003560e01c80632b68b9c61461004f5780633fa4f245146100665780635cfb28e714610091578063718da7ee1461009b578063cc5fe89a146100c4575b600080fd5b34801561005b57600080fd5b506100646100db565b005b34801561007257600080fd5b5061007b610114565b6040516100889190610216565b60405180910390f35b61009961011a565b005b3480156100a757600080fd5b506100c260048036038101906100bd91906101da565b610123565b005b3480156100d057600080fd5b506100d9610166565b005b60008054906101000a900473ffffffffffffffffffffffffffffffffffffffff1673ffffffffffffffffffffffffffffffffffffffff16ff5b60015481565b34600181905550565b806000806101000a81548173ffffffffffffffffffffffffffffffffffffffff021916908373ffffffffffffffffffffffffffffffffffffffff16021790555050565b60008060009054906101000a900473ffffffffffffffffffffffffffffffffffffffff16905060008054906101000a900473ffffffffffffffffffffffffffffffffffffffff1673ffffffffffffffffffffffffffffffffffffffff16ff5b6000813590506101d481610272565b92915050565b6000602082840312156101f0576101ef61026d565b5b60006101fe848285016101c5565b91505092915050565b61021081610263565b82525050565b600060208201905061022b6000830184610207565b92915050565b600061023c82610243565b9050919050565b600073ffffffffffffffffffffffffffffffffffffffff82169050919050565b6000819050919050565b600080fd5b61027b81610231565b811461028657600080fd5b5056fea26469706673582212201fc1c1f075e924d7a5c997f61ffcb7e28cd8c866bd85135ab58af3e94d703d2064736f6c63430008070033",
        "abi": [
          {
            "inputs": [],
            "name": "destruct",
            "outputs": [],
            "stateMutability": "nonpayable",
            "type": "function"
          },
          {
            "inputs": [],
            "name": "destructWarm",
            "outputs": [],
            "stateMutability": "nonpayable",
            "type": "function"
          },
          {
            "inputs": [
              {
                "internalType": "address",
                "name": "_receiver",
                "type": "address"
              }
            ],
            "name": "setReceiver",
            "outputs": [],
            "stateMutability": "nonpayable",
            "type": "function"
          },
          {
            "inputs": [],
            "name": "setVal",
            "outputs": [],
            "stateMutability": "payable",
            "type": "function"
          },
          {
            "inputs": [],
            "name": "value",
            "outputs": [
              {
                "internalType": "uint256",
                "name": "",
                "type": "uint256"
              }
            ],
            "stateMutability": "view",
            "type": "function"
          }
        ],
        "storage": {}
      }
    ],
    "expectedOldRoot": "0x0f601bd79633690cf2dba7106fe8eaf0727acde1581d9d2411733bb0790eff66",
    "txs": [
      {
        "from": "0x617b3a3528F9cDd6630fd3301B9c8911F7Bf063D",
        "to": "0x1275fbb540c8efc58b812ba83b0d0b8b9917ae98",
        "nonce": "0",
        "value": "0",
        "data": "0x718da7ee000000000000000000000000eeeef5032b2a844602278b01199ed191a86ceeee",
        "gasLimit": 100000,
        "gasPrice": "1000000000",
        "chainId": 1001
      },
      {
        "from": "0x617b3a3528F9cDd6630fd3301B9c8911F7Bf063D",
        "to": "0x1275fbb540c8efc58b812ba83b0d0b8b9917ae98",
        "nonce": "1",
        "value": "123456789",
        "data": "0x5cfb28e7",
        "gasLimit": 100000,
        "gasPrice": "1000000000",
        "chainId": 1001
      },
      {
        "from": "0x617b3a3528F9cDd6630fd3301B9c8911F7Bf063D",
        "to": "0xEEEeF5032B2A844602278B01199ED191a86cEEeE",
        "nonce": "2",
        "value": "3",
        "gasLimit": 100000,
        "gasPrice": "1000000000",
        "chainId": 1001
      },
      {
        "from": "0x4d5Cf5032B2a844602278b01199ED191A86c93ff",
        "to": "0x1275fbb540c8efc58b812ba83b0d0b8b9917ae98",
        "nonce": "0",
        "value": "0",
        "data": "0xcc5fe89a",
        "gasLimit": 100000,
        "gasPrice": "1000000000",
        "chainId": 1001
      }
    ],
    "expectedNewRoot": "0x6efe4262510e37d9b7fc81cabe6911635e8b07f70363518ee3318f6646f65f4a",
    "expectedNewLeafs": {
      "0x0000000000000000000000000000000000000000": {
        "balance": "0",
        "nonce": "0",
        "storage": {
          "0xad3228b676f7d3cd4284a5443f17f1962b36e491b30a40b2405849e597ba5fb5": "0x0f601bd79633690cf2dba7106fe8eaf0727acde1581d9d2411733bb0790eff66"
        },
        "hashBytecode": "0x0000000000000000000000000000000000000000000000000000000000000000"
      },
      "0xAE4bB80bE56B819606589DE61d5ec3b522EEB032": {
        "balance": "0",
        "nonce": "0",
        "storage": {
          "0xada5013122d395ba3c54772283fb069b10426056ef8ca54750cb9bb552a59e7d": "0x090bcaf734c4f06c93954a827b45a6e8c67b8e0fd1e0a35a1c5982d6961828f9"
        },
        "hashBytecode": "0x0000000000000000000000000000000000000000000000000000000000000000"
      },
      "0x1275fbb540c8efc58b812ba83b0d0b8b9917ae98": {
        "balance": "0",
        "nonce": "1",
        "storage": {
          "0x0000000000000000000000000000000000000000000000000000000000000000": "0xeeeef5032b2a844602278b01199ed191a86ceeee",
          "0x0000000000000000000000000000000000000000000000000000000000000001": "0x075bcd15"
        },
        "hashBytecode": "0x0000000000000000000000000000000000000000000000000000000000000000"
      },
      "0x617b3a3528F9cDd6630fd3301B9c8911F7Bf063D": {
        "balance": "100000015576876543208",
        "nonce": "3",
        "storage": null,
        "hashBytecode": "0x0000000000000000000000000000000000000000000000000000000000000000"
      },
      "0x4d5Cf5032B2a844602278b01199ED191A86c93ff": {
        "balance": "199999984423000000000",
        "nonce": "1",
        "storage": null,
        "hashBytecode": "0x0000000000000000000000000000000000000000000000000000000000000000"
      },
      "0xEEEeF5032B2A844602278B01199ED191a86cEEeE": {
        "balance": "123456792",
        "nonce": "0",
        "storage": null,
        "hashBytecode": "0x0000000000000000000000000000000000000000000000000000000000000000"
      }
    },
    "timestamp": 1944498031,
    "newLocalExitRoot": "0x0000000000000000000000000000000000000000000000000000000000000000",
    "batchHashData": "0xf0caa243790e510fd6cd2db9d29ba071ec46225963be0ea8931bb2ba7cd1f514",
    "inputHash": "0x2ee5816355645a936de5acba3be97e2833c9e0af933081301e42bb8d5e3b6ec7",
    "globalExitRoot": "0x090bcaf734c4f06c93954a827b45a6e8c67b8e0fd1e0a35a1c5982d6961828f9",
    "oldLocalExitRoot": "0x0000000000000000000000000000000000000000000000000000000000000000",
    "batchL2Data": "0xf84a80843b9aca00830186a0941275fbb540c8efc58b812ba83b0d0b8b9917ae9880a4718da7ee000000000000000000000000eeeef5032b2a844602278b01199ed191a86ceeee8203e98080a457712a6eb67d18d64cf0bb9913a8da248ad89357496274a2c08e2397ac528f6e24598f11ee531f0f63f6066f893f736ebf6202db25e52d31d8203d046c54ed1bee01843b9aca00830186a0941275fbb540c8efc58b812ba83b0d0b8b9917ae9884075bcd15845cfb28e78203e980807b9752d8bb13b79712282210eea9857d26cf931ef506cf3d79502145989f74d00f9fcb01c3ef75732036b49c45dc2c18b356b303933dad72e3954de1e628e8761ce602843b9aca00830186a094eeeef5032b2a844602278b01199ed191a86ceeee03808203e9808079c7c70bc67e02ec130feb1ec3d8395e5014579ce602d21620c3b2fc0875776b5bc28d5ddd77789bab73f99f49135e45f7df7a03e712bd9935fd36bcaa1245761bea80843b9aca00830186a0941275fbb540c8efc58b812ba83b0d0b8b9917ae988084cc5fe89a8203e980807b08e5e8eb325f7d16f5cbd79866489b45ea97ecd89b47b20eb87259546b91a955a528e329621d768169faa796f77fd1a5f4e59e0f005b22be05c742ef38b7501c"
  }
]