[
  {
    "id": 0,
    "description": "opSELFDESTRUCT non-empty receiver",
    "arity": 4,
    "chainIdSequencer": 1001,
    "defaultChainId": 1000,
    "sequencerAddress": "0x617b3a3528F9cDd6630fd3301B9c8911F7Bf063D",
    "sequencerPvtKey": "0x28b2b0318721be8c8339199172cd7cc8f5e273800a35616ec893083a4b32c02e",
    "genesis": [
      {
        "address": "0x617b3a3528F9cDd6630fd3301B9c8911F7Bf063D",
        "nonce": "0",
        "balance": "100000000000000000000",
        "pvtKey": "0x28b2b0318721be8c8339199172cd7cc8f5e273800a35616ec893083a4b32c02e"
      },
      {
        "address": "0x4d5Cf5032B2a844602278b01199ED191A86c93ff",
        "nonce": "0",
        "balance": "200000000000000000000",
        "pvtKey": "0x4d27a600dce8c29b7bd080e29a26972377dbb04d7a27d919adbb602bf13cfd23"
      },
      {
        "address": "0xEEEeF5032B2A844602278B01199ED191a86cEEeE",
        "nonce": "1",
        "balance": "0"
      },
      {
        "address": "0x1275fbb540c8efc58b812ba83b0d0b8b9917ae98",
        "nonce": 1,
        "balance": 0,
        "bytecode": "0x6080604052600436106100555760003560e01c80632b68b9c61461005a5780633fa4f245146100715780635cfb28e71461009c578063718da7ee146100a6578063cc5fe89a146100cf578063d0a4c6c5146100e6575b600080fd5b34801561006657600080fd5b5061006f6100fd565b005b34801561007d57600080fd5b50610086610136565b6040516100939190610276565b60405180910390f35b6100a461013c565b005b3480156100b257600080fd5b506100cd60048036038101906100c8919061023a565b610145565b005b3480156100db57600080fd5b506100e4610188565b005b3480156100f257600080fd5b506100fb6101e7565b005b60008054906101000a900473ffffffffffffffffffffffffffffffffffffffff1673ffffffffffffffffffffffffffffffffffffffff16ff5b60015481565b34600181905550565b806000806101000a81548173ffffffffffffffffffffffffffffffffffffffff021916908373ffffffffffffffffffffffffffffffffffffffff16021790555050565b60008060009054906101000a900473ffffffffffffffffffffffffffffffffffffffff16905060008054906101000a900473ffffffffffffffffffffffffffffffffffffffff1673ffffffffffffffffffffffffffffffffffffffff16ff5b600260015560008054906101000a900473ffffffffffffffffffffffffffffffffffffffff1673ffffffffffffffffffffffffffffffffffffffff16ff5b600081359050610234816102d2565b92915050565b6000602082840312156102505761024f6102cd565b5b600061025e84828501610225565b91505092915050565b610270816102c3565b82525050565b600060208201905061028b6000830184610267565b92915050565b600061029c826102a3565b9050919050565b600073ffffffffffffffffffffffffffffffffffffffff82169050919050565b6000819050919050565b600080fd5b6102db81610291565b81146102e657600080fd5b5056fea26469706673582212209fa0bd90a2870a00bfcbd84eb6bdd81c160b115d52247fd68f6c5dbe60c63d9e64736f6c63430008070033",
        "abi": [
          {
            "inputs": [],
            "name": "destruct",
            "outputs": [],
            "stateMutability": "nonpayable",
            "type": "function"
          },
          {
            "inputs": [],
            "name": "destructWarm",
            "outputs": [],
            "stateMutability": "nonpayable",
            "type": "function"
          },
          {
            "inputs": [
              {
                "internalType": "address",
                "name": "_receiver",
                "type": "address"
              }
            ],
            "name": "setReceiver",
            "outputs": [],
            "stateMutability": "nonpayable",
            "type": "function"
          },
          {
            "inputs": [],
            "name": "setVal",
            "outputs": [],
            "stateMutability": "payable",
            "type": "function"
          },
          {
            "inputs": [],
            "name": "sstoreDestruct",
            "outputs": [],
            "stateMutability": "nonpayable",
            "type": "function"
          },
          {
            "inputs": [],
            "name": "value",
            "outputs": [
              {
                "internalType": "uint256",
                "name": "",
                "type": "uint256"
              }
            ],
            "stateMutability": "view",
            "type": "function"
          }
        ],
        "storage": {}
      }
    ],
    "expectedOldRoot": "0x8e9248ecf83a8eeb112384fdba7f5139ed9c25dc264f772cea9756ad6f957173",
    "txs": [
      {
        "from": "0x617b3a3528F9cDd6630fd3301B9c8911F7Bf063D",
        "to": "0x1275fbb540c8efc58b812ba83b0d0b8b9917ae98",
        "nonce": "0",
        "value": "0",
        "data": "0x718da7ee000000000000000000000000eeeef5032b2a844602278b01199ed191a86ceeee",
        "gasLimit": 100000,
        "gasPrice": "1000000000",
        "chainId": 1000
      },
      {
        "from": "0x617b3a3528F9cDd6630fd3301B9c8911F7Bf063D",
        "to": "0x1275fbb540c8efc58b812ba83b0d0b8b9917ae98",
        "nonce": "1",
        "value": "123456789",
        "data": "0x5cfb28e7",
        "gasLimit": 100000,
        "gasPrice": "1000000000",
        "chainId": 1000
      },
      {
        "from": "0x4d5Cf5032B2a844602278b01199ED191A86c93ff",
        "to": "0x1275fbb540c8efc58b812ba83b0d0b8b9917ae98",
        "nonce": "0",
        "value": "0",
        "data": "0x2b68b9c6",
        "gasLimit": 100000,
        "gasPrice": "1000000000",
        "chainId": 1000
      }
    ],
    "expectedNewRoot": "0x22414e24db8184c72594d771d99fbb44a146a4258ae73574b606976f181b04b9",
    "expectedNewLeafs": {
      "0x0000000000000000000000000000000000000000": {
        "balance": "0",
        "nonce": "0",
        "storage": {
          "0x0000000000000000000000000000000000000000000000000000000000000000": "0x03",
          "0x101e368776582e57ab3d116ffe2517c0a585cd5b23174b01e275c2d8329c3d83": "0x22414e24db8184c72594d771d99fbb44a146a4258ae73574b606976f181b04b9",
          "0xabbb5caa7dda850e60932de0934eb1f9d0f59695050f761dc64e443e5030a569": "0x253a56b689fd8feeed8b5fae7c389a9c23435241bce24c0ec619a8d363cd1265",
          "0xada5013122d395ba3c54772283fb069b10426056ef8ca54750cb9bb552a59e7d": "0x4f9e17a7818bdbd1e2e694fa0cbeeb618f7b8de70551bb0a250c457e536f655b"
        },
        "hashBytecode": "0x0000000000000000000000000000000000000000000000000000000000000000",
        "bytecodeLength": 0
      },
      "0xAE4bB80bE56B819606589DE61d5ec3b522EEB032": {
        "balance": "0",
        "nonce": "0",
        "storage": {
          "0x53d3f126103a7f7d6245751d2392e0245bf71479d10a3c27a5b501ace6dde1b7": "0x01"
        },
        "hashBytecode": "0x0000000000000000000000000000000000000000000000000000000000000000",
        "bytecodeLength": 0
      },
      "0x1275fbb540c8efc58b812ba83b0d0b8b9917ae98": {
        "balance": "0",
        "nonce": "1",
        "storage": {
          "0x0000000000000000000000000000000000000000000000000000000000000000": "0xeeeef5032b2a844602278b01199ed191a86ceeee",
          "0x0000000000000000000000000000000000000000000000000000000000000001": "0x075bcd15"
        },
        "hashBytecode": "0xb64fe8293043c1242b2ba5519203312b8d965e6c23f5c74910576c86d4432c2d",
        "bytecodeLength": 799
      },
      "0x617b3a3528F9cDd6630fd3301B9c8911F7Bf063D": {
        "balance": "100000030918876543211",
        "nonce": "2",
        "storage": null,
        "hashBytecode": "0x0000000000000000000000000000000000000000000000000000000000000000",
        "bytecodeLength": 0
      },
      "0x4d5Cf5032B2a844602278b01199ED191A86c93ff": {
        "balance": "199999969081000000000",
        "nonce": "1",
        "storage": null,
        "hashBytecode": "0x0000000000000000000000000000000000000000000000000000000000000000",
        "bytecodeLength": 0
      },
      "0xEEEeF5032B2A844602278B01199ED191a86cEEeE": {
        "balance": "123456789",
        "nonce": "1",
        "storage": null,
        "hashBytecode": "0x0000000000000000000000000000000000000000000000000000000000000000",
        "bytecodeLength": 0
      }
    },
    "timestamp": 1944498031,
    "newLocalExitRoot": "0x0000000000000000000000000000000000000000000000000000000000000000",
    "batchHashData": "0xe2eeb9f7f1117b3878f8963667f6ada24aec8f65ebd2c51d7a77d4088d8fdd70",
    "inputHash": "0xda16ec63ea2fc33e7be579f335b2a7d2dcbe4ea37a87b97a196fa50319508b9b",
    "globalExitRoot": "0x090bcaf734c4f06c93954a827b45a6e8c67b8e0fd1e0a35a1c5982d6961828f9",
    "oldLocalExitRoot": "0x0000000000000000000000000000000000000000000000000000000000000000",
    "batchL2Data": "0xf84a80843b9aca00830186a0941275fbb540c8efc58b812ba83b0d0b8b9917ae9880a4718da7ee000000000000000000000000eeeef5032b2a844602278b01199ed191a86ceeee8203e88080f575c21921ce2d8fb27d7706563bf605e7ac616156380e71bae93bc0e77367e151cce11879fd46346b92536449bf3bd1b8f7a8110978fcb4f8ea4499c988f79a1bee01843b9aca00830186a0941275fbb540c8efc58b812ba83b0d0b8b9917ae9884075bcd15845cfb28e78203e88080753bcbcaec2a03e928e96c7e951e585511acc85ab44ea1ef5344cc727879469923f9591354e24a495186a960957fa25fde99ab8f515a775c1d1947b8f8c7516b1cea80843b9aca00830186a0941275fbb540c8efc58b812ba83b0d0b8b9917ae9880842b68b9c68203e88080b506d57844ffec75125ca857d7a7d2ce4cfc505f6628794ea3fcddc4a8d4e80e1e8c47bdcd2ab62b3add73b01cac019e2437979d808c6a2635dc6a3f4c5fba271b",
    "chainID": 1000
  },
  {
    "id": 1,
    "description": "opSELFDESTRUCT empty receiver",
    "arity": 4,
    "chainIdSequencer": 1001,
    "defaultChainId": 1000,
    "sequencerAddress": "0x617b3a3528F9cDd6630fd3301B9c8911F7Bf063D",
    "sequencerPvtKey": "0x28b2b0318721be8c8339199172cd7cc8f5e273800a35616ec893083a4b32c02e",
    "genesis": [
      {
        "address": "0x617b3a3528F9cDd6630fd3301B9c8911F7Bf063D",
        "nonce": "0",
        "balance": "100000000000000000000",
        "pvtKey": "0x28b2b0318721be8c8339199172cd7cc8f5e273800a35616ec893083a4b32c02e"
      },
      {
        "address": "0x4d5Cf5032B2a844602278b01199ED191A86c93ff",
        "nonce": "0",
        "balance": "200000000000000000000",
        "pvtKey": "0x4d27a600dce8c29b7bd080e29a26972377dbb04d7a27d919adbb602bf13cfd23"
      },
      {
        "address": "0xEEEeF5032B2A844602278B01199ED191a86cEEeE",
        "nonce": "0",
        "balance": "0"
      },
      {
        "address": "0x1275fbb540c8efc58b812ba83b0d0b8b9917ae98",
        "nonce": 1,
        "balance": 0,
        "bytecode": "0x6080604052600436106100555760003560e01c80632b68b9c61461005a5780633fa4f245146100715780635cfb28e71461009c578063718da7ee146100a6578063cc5fe89a146100cf578063d0a4c6c5146100e6575b600080fd5b34801561006657600080fd5b5061006f6100fd565b005b34801561007d57600080fd5b50610086610136565b6040516100939190610276565b60405180910390f35b6100a461013c565b005b3480156100b257600080fd5b506100cd60048036038101906100c8919061023a565b610145565b005b3480156100db57600080fd5b506100e4610188565b005b3480156100f257600080fd5b506100fb6101e7565b005b60008054906101000a900473ffffffffffffffffffffffffffffffffffffffff1673ffffffffffffffffffffffffffffffffffffffff16ff5b60015481565b34600181905550565b806000806101000a81548173ffffffffffffffffffffffffffffffffffffffff021916908373ffffffffffffffffffffffffffffffffffffffff16021790555050565b60008060009054906101000a900473ffffffffffffffffffffffffffffffffffffffff16905060008054906101000a900473ffffffffffffffffffffffffffffffffffffffff1673ffffffffffffffffffffffffffffffffffffffff16ff5b600260015560008054906101000a900473ffffffffffffffffffffffffffffffffffffffff1673ffffffffffffffffffffffffffffffffffffffff16ff5b600081359050610234816102d2565b92915050565b6000602082840312156102505761024f6102cd565b5b600061025e84828501610225565b91505092915050565b610270816102c3565b82525050565b600060208201905061028b6000830184610267565b92915050565b600061029c826102a3565b9050919050565b600073ffffffffffffffffffffffffffffffffffffffff82169050919050565b6000819050919050565b600080fd5b6102db81610291565b81146102e657600080fd5b5056fea26469706673582212209fa0bd90a2870a00bfcbd84eb6bdd81c160b115d52247fd68f6c5dbe60c63d9e64736f6c63430008070033",
        "abi": [
          {
            "inputs": [],
            "name": "destruct",
            "outputs": [],
            "stateMutability": "nonpayable",
            "type": "function"
          },
          {
            "inputs": [],
            "name": "destructWarm",
            "outputs": [],
            "stateMutability": "nonpayable",
            "type": "function"
          },
          {
            "inputs": [
              {
                "internalType": "address",
                "name": "_receiver",
                "type": "address"
              }
            ],
            "name": "setReceiver",
            "outputs": [],
            "stateMutability": "nonpayable",
            "type": "function"
          },
          {
            "inputs": [],
            "name": "setVal",
            "outputs": [],
            "stateMutability": "payable",
            "type": "function"
          },
          {
            "inputs": [],
            "name": "sstoreDestruct",
            "outputs": [],
            "stateMutability": "nonpayable",
            "type": "function"
          },
          {
            "inputs": [],
            "name": "value",
            "outputs": [
              {
                "internalType": "uint256",
                "name": "",
                "type": "uint256"
              }
            ],
            "stateMutability": "view",
            "type": "function"
          }
        ],
        "storage": {}
      }
    ],
    "expectedOldRoot": "0xfb75a60cac5e1c017addd7dd9e1e5178bfe9bebcf3473a895f15f95cfe323fcd",
    "txs": [
      {
        "from": "0x617b3a3528F9cDd6630fd3301B9c8911F7Bf063D",
        "to": "0x1275fbb540c8efc58b812ba83b0d0b8b9917ae98",
        "nonce": "0",
        "value": "0",
        "data": "0x718da7ee000000000000000000000000eeeef5032b2a844602278b01199ed191a86ceeee",
        "gasLimit": 100000,
        "gasPrice": "1000000000",
        "chainId": 1000
      },
      {
        "from": "0x617b3a3528F9cDd6630fd3301B9c8911F7Bf063D",
        "to": "0x1275fbb540c8efc58b812ba83b0d0b8b9917ae98",
        "nonce": "1",
        "value": "123456789",
        "data": "0x5cfb28e7",
        "gasLimit": 100000,
        "gasPrice": "1000000000",
        "chainId": 1000
      },
      {
        "from": "0x4d5Cf5032B2a844602278b01199ED191A86c93ff",
        "to": "0x1275fbb540c8efc58b812ba83b0d0b8b9917ae98",
        "nonce": "0",
        "value": "0",
        "data": "0x2b68b9c6",
        "gasLimit": 100000,
        "gasPrice": "1000000000",
        "chainId": 1000
      }
    ],
    "expectedNewRoot": "0xa239acd815e4ed54e8f6296ddc53f7204af8c78170964a275f1f7f015345c174",
    "expectedNewLeafs": {
      "0x0000000000000000000000000000000000000000": {
        "balance": "0",
        "nonce": "0",
        "storage": {
          "0x0000000000000000000000000000000000000000000000000000000000000000": "0x03",
          "0x101e368776582e57ab3d116ffe2517c0a585cd5b23174b01e275c2d8329c3d83": "0xa239acd815e4ed54e8f6296ddc53f7204af8c78170964a275f1f7f015345c174",
          "0xabbb5caa7dda850e60932de0934eb1f9d0f59695050f761dc64e443e5030a569": "0x70ccdc7fc0a2bfce5103f8a002b07cf4e3b53c472c1f8e67d2ee088915126910",
          "0xada5013122d395ba3c54772283fb069b10426056ef8ca54750cb9bb552a59e7d": "0x085aa4ba1502fb634edb4416330900345f432ca01350b254db6c639accb65a25"
        },
        "hashBytecode": "0x0000000000000000000000000000000000000000000000000000000000000000",
        "bytecodeLength": 0
      },
      "0xAE4bB80bE56B819606589DE61d5ec3b522EEB032": {
        "balance": "0",
        "nonce": "0",
        "storage": {
          "0x53d3f126103a7f7d6245751d2392e0245bf71479d10a3c27a5b501ace6dde1b7": "0x01"
        },
        "hashBytecode": "0x0000000000000000000000000000000000000000000000000000000000000000",
        "bytecodeLength": 0
      },
      "0x1275fbb540c8efc58b812ba83b0d0b8b9917ae98": {
        "balance": "0",
        "nonce": "1",
        "storage": {
          "0x0000000000000000000000000000000000000000000000000000000000000000": "0xeeeef5032b2a844602278b01199ed191a86ceeee",
          "0x0000000000000000000000000000000000000000000000000000000000000001": "0x075bcd15"
        },
        "hashBytecode": "0xb64fe8293043c1242b2ba5519203312b8d965e6c23f5c74910576c86d4432c2d",
        "bytecodeLength": 799
      },
      "0x617b3a3528F9cDd6630fd3301B9c8911F7Bf063D": {
        "balance": "100000055918876543211",
        "nonce": "2",
        "storage": null,
        "hashBytecode": "0x0000000000000000000000000000000000000000000000000000000000000000",
        "bytecodeLength": 0
      },
      "0x4d5Cf5032B2a844602278b01199ED191A86c93ff": {
        "balance": "199999944081000000000",
        "nonce": "1",
        "storage": null,
        "hashBytecode": "0x0000000000000000000000000000000000000000000000000000000000000000",
        "bytecodeLength": 0
      },
      "0xEEEeF5032B2A844602278B01199ED191a86cEEeE": {
        "balance": "123456789",
        "nonce": "0",
        "storage": null,
        "hashBytecode": "0x0000000000000000000000000000000000000000000000000000000000000000",
        "bytecodeLength": 0
      }
    },
    "timestamp": 1944498031,
    "newLocalExitRoot": "0x0000000000000000000000000000000000000000000000000000000000000000",
    "batchHashData": "0xe2eeb9f7f1117b3878f8963667f6ada24aec8f65ebd2c51d7a77d4088d8fdd70",
    "inputHash": "0x96da17fa0453c1cc5b143f984e56367cfa5f0ac3cc890261c03b966786b74abb",
    "globalExitRoot": "0x090bcaf734c4f06c93954a827b45a6e8c67b8e0fd1e0a35a1c5982d6961828f9",
    "oldLocalExitRoot": "0x0000000000000000000000000000000000000000000000000000000000000000",
    "batchL2Data": "0xf84a80843b9aca00830186a0941275fbb540c8efc58b812ba83b0d0b8b9917ae9880a4718da7ee000000000000000000000000eeeef5032b2a844602278b01199ed191a86ceeee8203e88080f575c21921ce2d8fb27d7706563bf605e7ac616156380e71bae93bc0e77367e151cce11879fd46346b92536449bf3bd1b8f7a8110978fcb4f8ea4499c988f79a1bee01843b9aca00830186a0941275fbb540c8efc58b812ba83b0d0b8b9917ae9884075bcd15845cfb28e78203e88080753bcbcaec2a03e928e96c7e951e585511acc85ab44ea1ef5344cc727879469923f9591354e24a495186a960957fa25fde99ab8f515a775c1d1947b8f8c7516b1cea80843b9aca00830186a0941275fbb540c8efc58b812ba83b0d0b8b9917ae9880842b68b9c68203e88080b506d57844ffec75125ca857d7a7d2ce4cfc505f6628794ea3fcddc4a8d4e80e1e8c47bdcd2ab62b3add73b01cac019e2437979d808c6a2635dc6a3f4c5fba271b",
    "chainID": 1000
  },
  {
    "id": 2,
    "description": "opSELFDESTRUCT non-empty cold receiver",
    "arity": 4,
    "chainIdSequencer": 1001,
    "defaultChainId": 1000,
    "sequencerAddress": "0x617b3a3528F9cDd6630fd3301B9c8911F7Bf063D",
    "sequencerPvtKey": "0x28b2b0318721be8c8339199172cd7cc8f5e273800a35616ec893083a4b32c02e",
    "genesis": [
      {
        "address": "0x617b3a3528F9cDd6630fd3301B9c8911F7Bf063D",
        "nonce": "0",
        "balance": "100000000000000000000",
        "pvtKey": "0x28b2b0318721be8c8339199172cd7cc8f5e273800a35616ec893083a4b32c02e"
      },
      {
        "address": "0x4d5Cf5032B2a844602278b01199ED191A86c93ff",
        "nonce": "0",
        "balance": "200000000000000000000",
        "pvtKey": "0x4d27a600dce8c29b7bd080e29a26972377dbb04d7a27d919adbb602bf13cfd23"
      },
      {
        "address": "0xEEEeF5032B2A844602278B01199ED191a86cEEeE",
        "nonce": "0",
        "balance": "0"
      },
      {
        "address": "0x1275fbb540c8efc58b812ba83b0d0b8b9917ae98",
        "nonce": 1,
        "balance": 0,
        "bytecode": "0x6080604052600436106100555760003560e01c80632b68b9c61461005a5780633fa4f245146100715780635cfb28e71461009c578063718da7ee146100a6578063cc5fe89a146100cf578063d0a4c6c5146100e6575b600080fd5b34801561006657600080fd5b5061006f6100fd565b005b34801561007d57600080fd5b50610086610136565b6040516100939190610276565b60405180910390f35b6100a461013c565b005b3480156100b257600080fd5b506100cd60048036038101906100c8919061023a565b610145565b005b3480156100db57600080fd5b506100e4610188565b005b3480156100f257600080fd5b506100fb6101e7565b005b60008054906101000a900473ffffffffffffffffffffffffffffffffffffffff1673ffffffffffffffffffffffffffffffffffffffff16ff5b60015481565b34600181905550565b806000806101000a81548173ffffffffffffffffffffffffffffffffffffffff021916908373ffffffffffffffffffffffffffffffffffffffff16021790555050565b60008060009054906101000a900473ffffffffffffffffffffffffffffffffffffffff16905060008054906101000a900473ffffffffffffffffffffffffffffffffffffffff1673ffffffffffffffffffffffffffffffffffffffff16ff5b600260015560008054906101000a900473ffffffffffffffffffffffffffffffffffffffff1673ffffffffffffffffffffffffffffffffffffffff16ff5b600081359050610234816102d2565b92915050565b6000602082840312156102505761024f6102cd565b5b600061025e84828501610225565b91505092915050565b610270816102c3565b82525050565b600060208201905061028b6000830184610267565b92915050565b600061029c826102a3565b9050919050565b600073ffffffffffffffffffffffffffffffffffffffff82169050919050565b6000819050919050565b600080fd5b6102db81610291565b81146102e657600080fd5b5056fea26469706673582212209fa0bd90a2870a00bfcbd84eb6bdd81c160b115d52247fd68f6c5dbe60c63d9e64736f6c63430008070033",
        "abi": [
          {
            "inputs": [],
            "name": "destruct",
            "outputs": [],
            "stateMutability": "nonpayable",
            "type": "function"
          },
          {
            "inputs": [],
            "name": "destructWarm",
            "outputs": [],
            "stateMutability": "nonpayable",
            "type": "function"
          },
          {
            "inputs": [
              {
                "internalType": "address",
                "name": "_receiver",
                "type": "address"
              }
            ],
            "name": "setReceiver",
            "outputs": [],
            "stateMutability": "nonpayable",
            "type": "function"
          },
          {
            "inputs": [],
            "name": "setVal",
            "outputs": [],
            "stateMutability": "payable",
            "type": "function"
          },
          {
            "inputs": [],
            "name": "sstoreDestruct",
            "outputs": [],
            "stateMutability": "nonpayable",
            "type": "function"
          },
          {
            "inputs": [],
            "name": "value",
            "outputs": [
              {
                "internalType": "uint256",
                "name": "",
                "type": "uint256"
              }
            ],
            "stateMutability": "view",
            "type": "function"
          }
        ],
        "storage": {}
      }
    ],
    "expectedOldRoot": "0xfb75a60cac5e1c017addd7dd9e1e5178bfe9bebcf3473a895f15f95cfe323fcd",
    "txs": [
      {
        "from": "0x617b3a3528F9cDd6630fd3301B9c8911F7Bf063D",
        "to": "0x1275fbb540c8efc58b812ba83b0d0b8b9917ae98",
        "nonce": "0",
        "value": "0",
        "data": "0x718da7ee000000000000000000000000eeeef5032b2a844602278b01199ed191a86ceeee",
        "gasLimit": 100000,
        "gasPrice": "1000000000",
        "chainId": 1000
      },
      {
        "from": "0x617b3a3528F9cDd6630fd3301B9c8911F7Bf063D",
        "to": "0x1275fbb540c8efc58b812ba83b0d0b8b9917ae98",
        "nonce": "1",
        "value": "123456789",
        "data": "0x5cfb28e7",
        "gasLimit": 100000,
        "gasPrice": "1000000000",
        "chainId": 1000
      },
      {
        "from": "0x617b3a3528F9cDd6630fd3301B9c8911F7Bf063D",
        "to": "0xEEEeF5032B2A844602278B01199ED191a86cEEeE",
        "nonce": "2",
        "value": "3",
        "gasLimit": 100000,
        "gasPrice": "1000000000",
        "chainId": 1000
      },
      {
        "from": "0x4d5Cf5032B2a844602278b01199ED191A86c93ff",
        "to": "0x1275fbb540c8efc58b812ba83b0d0b8b9917ae98",
        "nonce": "0",
        "value": "0",
        "data": "0x2b68b9c6",
        "gasLimit": 100000,
        "gasPrice": "1000000000",
        "chainId": 1000
      }
    ],
    "expectedNewRoot": "0xefbc8f2a89a9ddf76c764779eebb5c7bf8bfc86b9a278f1842f658dd0af74298",
    "expectedNewLeafs": {
      "0x0000000000000000000000000000000000000000": {
        "balance": "0",
        "nonce": "0",
        "storage": {
          "0x0000000000000000000000000000000000000000000000000000000000000000": "0x04",
          "0x101e368776582e57ab3d116ffe2517c0a585cd5b23174b01e275c2d8329c3d83": "0x412c7e9e948208042176c96d64bbd6b517576b5373e1229cd97db0d1138abe12",
          "0x52d75039926638d3c558b2bdefb945d5be8dae29dedd1c313212a4d472d9fde5": "0xefbc8f2a89a9ddf76c764779eebb5c7bf8bfc86b9a278f1842f658dd0af74298",
          "0xabbb5caa7dda850e60932de0934eb1f9d0f59695050f761dc64e443e5030a569": "0x70ccdc7fc0a2bfce5103f8a002b07cf4e3b53c472c1f8e67d2ee088915126910",
          "0xada5013122d395ba3c54772283fb069b10426056ef8ca54750cb9bb552a59e7d": "0x085aa4ba1502fb634edb4416330900345f432ca01350b254db6c639accb65a25"
        },
        "hashBytecode": "0x0000000000000000000000000000000000000000000000000000000000000000",
        "bytecodeLength": 0
      },
      "0xAE4bB80bE56B819606589DE61d5ec3b522EEB032": {
        "balance": "0",
        "nonce": "0",
        "storage": {
          "0x53d3f126103a7f7d6245751d2392e0245bf71479d10a3c27a5b501ace6dde1b7": "0x01"
        },
        "hashBytecode": "0x0000000000000000000000000000000000000000000000000000000000000000",
        "bytecodeLength": 0
      },
      "0x1275fbb540c8efc58b812ba83b0d0b8b9917ae98": {
        "balance": "0",
        "nonce": "1",
        "storage": {
          "0x0000000000000000000000000000000000000000000000000000000000000000": "0xeeeef5032b2a844602278b01199ed191a86ceeee",
          "0x0000000000000000000000000000000000000000000000000000000000000001": "0x075bcd15"
        },
        "hashBytecode": "0xb64fe8293043c1242b2ba5519203312b8d965e6c23f5c74910576c86d4432c2d",
        "bytecodeLength": 799
      },
      "0x617b3a3528F9cDd6630fd3301B9c8911F7Bf063D": {
        "balance": "100000030918876543208",
        "nonce": "3",
        "storage": null,
        "hashBytecode": "0x0000000000000000000000000000000000000000000000000000000000000000",
        "bytecodeLength": 0
      },
      "0x4d5Cf5032B2a844602278b01199ED191A86c93ff": {
        "balance": "199999969081000000000",
        "nonce": "1",
        "storage": null,
        "hashBytecode": "0x0000000000000000000000000000000000000000000000000000000000000000",
        "bytecodeLength": 0
      },
      "0xEEEeF5032B2A844602278B01199ED191a86cEEeE": {
        "balance": "123456792",
        "nonce": "0",
        "storage": null,
        "hashBytecode": "0x0000000000000000000000000000000000000000000000000000000000000000",
        "bytecodeLength": 0
      }
    },
    "timestamp": 1944498031,
    "newLocalExitRoot": "0x0000000000000000000000000000000000000000000000000000000000000000",
    "batchHashData": "0xc0e71e643aa61e4f3dedb4f588ed48862b9cc52b179642d57e0816a52b7b5299",
    "inputHash": "0x4f8a35f58b345b585b511e45e18df1c21ab8311d1df4d58a687c4a8ae98dceb8",
    "globalExitRoot": "0x090bcaf734c4f06c93954a827b45a6e8c67b8e0fd1e0a35a1c5982d6961828f9",
    "oldLocalExitRoot": "0x0000000000000000000000000000000000000000000000000000000000000000",
    "batchL2Data": "0xf84a80843b9aca00830186a0941275fbb540c8efc58b812ba83b0d0b8b9917ae9880a4718da7ee000000000000000000000000eeeef5032b2a844602278b01199ed191a86ceeee8203e88080f575c21921ce2d8fb27d7706563bf605e7ac616156380e71bae93bc0e77367e151cce11879fd46346b92536449bf3bd1b8f7a8110978fcb4f8ea4499c988f79a1bee01843b9aca00830186a0941275fbb540c8efc58b812ba83b0d0b8b9917ae9884075bcd15845cfb28e78203e88080753bcbcaec2a03e928e96c7e951e585511acc85ab44ea1ef5344cc727879469923f9591354e24a495186a960957fa25fde99ab8f515a775c1d1947b8f8c7516b1ce602843b9aca00830186a094eeeef5032b2a844602278b01199ed191a86ceeee03808203e88080d051fe638181b4a417fb38ab7db717d97ebd8f74daef6134fe5f8fdf45d88b9759c5811954b33e0b171dd59af635f6c166cb503b8ab9a415749b5bdb059664821bea80843b9aca00830186a0941275fbb540c8efc58b812ba83b0d0b8b9917ae9880842b68b9c68203e88080b506d57844ffec75125ca857d7a7d2ce4cfc505f6628794ea3fcddc4a8d4e80e1e8c47bdcd2ab62b3add73b01cac019e2437979d808c6a2635dc6a3f4c5fba271b",
    "chainID": 1000
  },
  {
    "id": 3,
    "description": "opSELFDESTRUCT non-empty warm receiver",
    "arity": 4,
    "chainIdSequencer": 1001,
    "defaultChainId": 1000,
    "sequencerAddress": "0x617b3a3528F9cDd6630fd3301B9c8911F7Bf063D",
    "sequencerPvtKey": "0x28b2b0318721be8c8339199172cd7cc8f5e273800a35616ec893083a4b32c02e",
    "genesis": [
      {
        "address": "0x617b3a3528F9cDd6630fd3301B9c8911F7Bf063D",
        "nonce": "0",
        "balance": "100000000000000000000",
        "pvtKey": "0x28b2b0318721be8c8339199172cd7cc8f5e273800a35616ec893083a4b32c02e"
      },
      {
        "address": "0x4d5Cf5032B2a844602278b01199ED191A86c93ff",
        "nonce": "0",
        "balance": "200000000000000000000",
        "pvtKey": "0x4d27a600dce8c29b7bd080e29a26972377dbb04d7a27d919adbb602bf13cfd23"
      },
      {
        "address": "0xEEEeF5032B2A844602278B01199ED191a86cEEeE",
        "nonce": "0",
        "balance": "0"
      },
      {
        "address": "0x1275fbb540c8efc58b812ba83b0d0b8b9917ae98",
        "nonce": 1,
        "balance": 0,
        "bytecode": "0x6080604052600436106100555760003560e01c80632b68b9c61461005a5780633fa4f245146100715780635cfb28e71461009c578063718da7ee146100a6578063cc5fe89a146100cf578063d0a4c6c5146100e6575b600080fd5b34801561006657600080fd5b5061006f6100fd565b005b34801561007d57600080fd5b50610086610136565b6040516100939190610276565b60405180910390f35b6100a461013c565b005b3480156100b257600080fd5b506100cd60048036038101906100c8919061023a565b610145565b005b3480156100db57600080fd5b506100e4610188565b005b3480156100f257600080fd5b506100fb6101e7565b005b60008054906101000a900473ffffffffffffffffffffffffffffffffffffffff1673ffffffffffffffffffffffffffffffffffffffff16ff5b60015481565b34600181905550565b806000806101000a81548173ffffffffffffffffffffffffffffffffffffffff021916908373ffffffffffffffffffffffffffffffffffffffff16021790555050565b60008060009054906101000a900473ffffffffffffffffffffffffffffffffffffffff16905060008054906101000a900473ffffffffffffffffffffffffffffffffffffffff1673ffffffffffffffffffffffffffffffffffffffff16ff5b600260015560008054906101000a900473ffffffffffffffffffffffffffffffffffffffff1673ffffffffffffffffffffffffffffffffffffffff16ff5b600081359050610234816102d2565b92915050565b6000602082840312156102505761024f6102cd565b5b600061025e84828501610225565b91505092915050565b610270816102c3565b82525050565b600060208201905061028b6000830184610267565b92915050565b600061029c826102a3565b9050919050565b600073ffffffffffffffffffffffffffffffffffffffff82169050919050565b6000819050919050565b600080fd5b6102db81610291565b81146102e657600080fd5b5056fea26469706673582212209fa0bd90a2870a00bfcbd84eb6bdd81c160b115d52247fd68f6c5dbe60c63d9e64736f6c63430008070033",
        "abi": [
          {
            "inputs": [],
            "name": "destruct",
            "outputs": [],
            "stateMutability": "nonpayable",
            "type": "function"
          },
          {
            "inputs": [],
            "name": "destructWarm",
            "outputs": [],
            "stateMutability": "nonpayable",
            "type": "function"
          },
          {
            "inputs": [
              {
                "internalType": "address",
                "name": "_receiver",
                "type": "address"
              }
            ],
            "name": "setReceiver",
            "outputs": [],
            "stateMutability": "nonpayable",
            "type": "function"
          },
          {
            "inputs": [],
            "name": "setVal",
            "outputs": [],
            "stateMutability": "payable",
            "type": "function"
          },
          {
            "inputs": [],
            "name": "sstoreDestruct",
            "outputs": [],
            "stateMutability": "nonpayable",
            "type": "function"
          },
          {
            "inputs": [],
            "name": "value",
            "outputs": [
              {
                "internalType": "uint256",
                "name": "",
                "type": "uint256"
              }
            ],
            "stateMutability": "view",
            "type": "function"
          }
        ],
        "storage": {}
      }
    ],
    "expectedOldRoot": "0xfb75a60cac5e1c017addd7dd9e1e5178bfe9bebcf3473a895f15f95cfe323fcd",
    "txs": [
      {
        "from": "0x617b3a3528F9cDd6630fd3301B9c8911F7Bf063D",
        "to": "0x1275fbb540c8efc58b812ba83b0d0b8b9917ae98",
        "nonce": "0",
        "value": "0",
        "data": "0x718da7ee000000000000000000000000eeeef5032b2a844602278b01199ed191a86ceeee",
        "gasLimit": 100000,
        "gasPrice": "1000000000",
        "chainId": 1000
      },
      {
        "from": "0x617b3a3528F9cDd6630fd3301B9c8911F7Bf063D",
        "to": "0x1275fbb540c8efc58b812ba83b0d0b8b9917ae98",
        "nonce": "1",
        "value": "123456789",
        "data": "0x5cfb28e7",
        "gasLimit": 100000,
        "gasPrice": "1000000000",
        "chainId": 1000
      },
      {
        "from": "0x617b3a3528F9cDd6630fd3301B9c8911F7Bf063D",
        "to": "0xEEEeF5032B2A844602278B01199ED191a86cEEeE",
        "nonce": "2",
        "value": "3",
        "gasLimit": 100000,
        "gasPrice": "1000000000",
        "chainId": 1000
      },
      {
        "from": "0x4d5Cf5032B2a844602278b01199ED191A86c93ff",
        "to": "0x1275fbb540c8efc58b812ba83b0d0b8b9917ae98",
        "nonce": "0",
        "value": "0",
        "data": "0xcc5fe89a",
        "gasLimit": 100000,
        "gasPrice": "1000000000",
        "chainId": 1000
      }
    ],
    "expectedNewRoot": "0x89d035a6846eebd332705fdd5cbda4a0844564b5505128537446bc7257b1ad27",
    "expectedNewLeafs": {
      "0x0000000000000000000000000000000000000000": {
        "balance": "0",
        "nonce": "0",
        "storage": {
          "0x0000000000000000000000000000000000000000000000000000000000000000": "0x04",
          "0x101e368776582e57ab3d116ffe2517c0a585cd5b23174b01e275c2d8329c3d83": "0x412c7e9e948208042176c96d64bbd6b517576b5373e1229cd97db0d1138abe12",
          "0x52d75039926638d3c558b2bdefb945d5be8dae29dedd1c313212a4d472d9fde5": "0x89d035a6846eebd332705fdd5cbda4a0844564b5505128537446bc7257b1ad27",
          "0xabbb5caa7dda850e60932de0934eb1f9d0f59695050f761dc64e443e5030a569": "0x70ccdc7fc0a2bfce5103f8a002b07cf4e3b53c472c1f8e67d2ee088915126910",
          "0xada5013122d395ba3c54772283fb069b10426056ef8ca54750cb9bb552a59e7d": "0x085aa4ba1502fb634edb4416330900345f432ca01350b254db6c639accb65a25"
        },
        "hashBytecode": "0x0000000000000000000000000000000000000000000000000000000000000000",
        "bytecodeLength": 0
      },
      "0xAE4bB80bE56B819606589DE61d5ec3b522EEB032": {
        "balance": "0",
        "nonce": "0",
        "storage": {
          "0x53d3f126103a7f7d6245751d2392e0245bf71479d10a3c27a5b501ace6dde1b7": "0x01"
        },
        "hashBytecode": "0x0000000000000000000000000000000000000000000000000000000000000000",
        "bytecodeLength": 0
      },
      "0x1275fbb540c8efc58b812ba83b0d0b8b9917ae98": {
        "balance": "0",
        "nonce": "1",
        "storage": {
          "0x0000000000000000000000000000000000000000000000000000000000000000": "0xeeeef5032b2a844602278b01199ed191a86ceeee",
          "0x0000000000000000000000000000000000000000000000000000000000000001": "0x075bcd15"
        },
        "hashBytecode": "0xb64fe8293043c1242b2ba5519203312b8d965e6c23f5c74910576c86d4432c2d",
        "bytecodeLength": 799
      },
      "0x617b3a3528F9cDd6630fd3301B9c8911F7Bf063D": {
        "balance": "100000031153876543208",
        "nonce": "3",
        "storage": null,
        "hashBytecode": "0x0000000000000000000000000000000000000000000000000000000000000000",
        "bytecodeLength": 0
      },
      "0x4d5Cf5032B2a844602278b01199ED191A86c93ff": {
        "balance": "199999968846000000000",
        "nonce": "1",
        "storage": null,
        "hashBytecode": "0x0000000000000000000000000000000000000000000000000000000000000000",
        "bytecodeLength": 0
      },
      "0xEEEeF5032B2A844602278B01199ED191a86cEEeE": {
        "balance": "123456792",
        "nonce": "0",
        "storage": null,
        "hashBytecode": "0x0000000000000000000000000000000000000000000000000000000000000000",
        "bytecodeLength": 0
      }
    },
    "timestamp": 1944498031,
    "newLocalExitRoot": "0x0000000000000000000000000000000000000000000000000000000000000000",
    "batchHashData": "0x704f94896746e4b093969dd6fa36af224bc639988ace223109f16b3f61620c50",
    "inputHash": "0x9eb83c8a98eba54e917116e3b436862ef0f5ce32a6fdce0f33885c437a050649",
    "globalExitRoot": "0x090bcaf734c4f06c93954a827b45a6e8c67b8e0fd1e0a35a1c5982d6961828f9",
    "oldLocalExitRoot": "0x0000000000000000000000000000000000000000000000000000000000000000",
    "batchL2Data": "0xf84a80843b9aca00830186a0941275fbb540c8efc58b812ba83b0d0b8b9917ae9880a4718da7ee000000000000000000000000eeeef5032b2a844602278b01199ed191a86ceeee8203e88080f575c21921ce2d8fb27d7706563bf605e7ac616156380e71bae93bc0e77367e151cce11879fd46346b92536449bf3bd1b8f7a8110978fcb4f8ea4499c988f79a1bee01843b9aca00830186a0941275fbb540c8efc58b812ba83b0d0b8b9917ae9884075bcd15845cfb28e78203e88080753bcbcaec2a03e928e96c7e951e585511acc85ab44ea1ef5344cc727879469923f9591354e24a495186a960957fa25fde99ab8f515a775c1d1947b8f8c7516b1ce602843b9aca00830186a094eeeef5032b2a844602278b01199ed191a86ceeee03808203e88080d051fe638181b4a417fb38ab7db717d97ebd8f74daef6134fe5f8fdf45d88b9759c5811954b33e0b171dd59af635f6c166cb503b8ab9a415749b5bdb059664821bea80843b9aca00830186a0941275fbb540c8efc58b812ba83b0d0b8b9917ae988084cc5fe89a8203e88080f4297a8ca0e63388f19879997cc13d21b64f3d69ec0143f0842c472ae6a9e13276a1677a51b72b02d6594ba2facf04b00e21bbc6b5c1af2b47c0ebdbe00834341c",
    "chainID": 1000
  },
  {
    "id": 4,
    "description": "opSELFDESTRUCT non-empty cold receiver & sstore",
    "arity": 4,
    "chainIdSequencer": 1001,
    "defaultChainId": 1000,
    "sequencerAddress": "0x617b3a3528F9cDd6630fd3301B9c8911F7Bf063D",
    "sequencerPvtKey": "0x28b2b0318721be8c8339199172cd7cc8f5e273800a35616ec893083a4b32c02e",
    "genesis": [
      {
        "address": "0x617b3a3528F9cDd6630fd3301B9c8911F7Bf063D",
        "nonce": "0",
        "balance": "100000000000000000000",
        "pvtKey": "0x28b2b0318721be8c8339199172cd7cc8f5e273800a35616ec893083a4b32c02e"
      },
      {
        "address": "0x4d5Cf5032B2a844602278b01199ED191A86c93ff",
        "nonce": "0",
        "balance": "200000000000000000000",
        "pvtKey": "0x4d27a600dce8c29b7bd080e29a26972377dbb04d7a27d919adbb602bf13cfd23"
      },
      {
        "address": "0xEEEeF5032B2A844602278B01199ED191a86cEEeE",
        "nonce": "0",
        "balance": "0"
      },
      {
        "address": "0x1275fbb540c8efc58b812ba83b0d0b8b9917ae98",
        "nonce": 1,
        "balance": 0,
        "bytecode": "0x6080604052600436106100555760003560e01c80632b68b9c61461005a5780633fa4f245146100715780635cfb28e71461009c578063718da7ee146100a6578063cc5fe89a146100cf578063d0a4c6c5146100e6575b600080fd5b34801561006657600080fd5b5061006f6100fd565b005b34801561007d57600080fd5b50610086610136565b6040516100939190610276565b60405180910390f35b6100a461013c565b005b3480156100b257600080fd5b506100cd60048036038101906100c8919061023a565b610145565b005b3480156100db57600080fd5b506100e4610188565b005b3480156100f257600080fd5b506100fb6101e7565b005b60008054906101000a900473ffffffffffffffffffffffffffffffffffffffff1673ffffffffffffffffffffffffffffffffffffffff16ff5b60015481565b34600181905550565b806000806101000a81548173ffffffffffffffffffffffffffffffffffffffff021916908373ffffffffffffffffffffffffffffffffffffffff16021790555050565b60008060009054906101000a900473ffffffffffffffffffffffffffffffffffffffff16905060008054906101000a900473ffffffffffffffffffffffffffffffffffffffff1673ffffffffffffffffffffffffffffffffffffffff16ff5b600260015560008054906101000a900473ffffffffffffffffffffffffffffffffffffffff1673ffffffffffffffffffffffffffffffffffffffff16ff5b600081359050610234816102d2565b92915050565b6000602082840312156102505761024f6102cd565b5b600061025e84828501610225565b91505092915050565b610270816102c3565b82525050565b600060208201905061028b6000830184610267565b92915050565b600061029c826102a3565b9050919050565b600073ffffffffffffffffffffffffffffffffffffffff82169050919050565b6000819050919050565b600080fd5b6102db81610291565b81146102e657600080fd5b5056fea26469706673582212209fa0bd90a2870a00bfcbd84eb6bdd81c160b115d52247fd68f6c5dbe60c63d9e64736f6c63430008070033",
        "abi": [
          {
            "inputs": [],
            "name": "destruct",
            "outputs": [],
            "stateMutability": "nonpayable",
            "type": "function"
          },
          {
            "inputs": [],
            "name": "destructWarm",
            "outputs": [],
            "stateMutability": "nonpayable",
            "type": "function"
          },
          {
            "inputs": [
              {
                "internalType": "address",
                "name": "_receiver",
                "type": "address"
              }
            ],
            "name": "setReceiver",
            "outputs": [],
            "stateMutability": "nonpayable",
            "type": "function"
          },
          {
            "inputs": [],
            "name": "setVal",
            "outputs": [],
            "stateMutability": "payable",
            "type": "function"
          },
          {
            "inputs": [],
            "name": "sstoreDestruct",
            "outputs": [],
            "stateMutability": "nonpayable",
            "type": "function"
          },
          {
            "inputs": [],
            "name": "value",
            "outputs": [
              {
                "internalType": "uint256",
                "name": "",
                "type": "uint256"
              }
            ],
            "stateMutability": "view",
            "type": "function"
          }
        ],
        "storage": {}
      }
    ],
    "expectedOldRoot": "0xfb75a60cac5e1c017addd7dd9e1e5178bfe9bebcf3473a895f15f95cfe323fcd",
    "txs": [
      {
        "from": "0x617b3a3528F9cDd6630fd3301B9c8911F7Bf063D",
        "to": "0x1275fbb540c8efc58b812ba83b0d0b8b9917ae98",
        "nonce": "0",
        "value": "0",
        "data": "0x718da7ee000000000000000000000000eeeef5032b2a844602278b01199ed191a86ceeee",
        "gasLimit": 100000,
        "gasPrice": "1000000000",
        "chainId": 1001
      },
      {
        "from": "0x617b3a3528F9cDd6630fd3301B9c8911F7Bf063D",
        "to": "0x1275fbb540c8efc58b812ba83b0d0b8b9917ae98",
        "nonce": "1",
        "value": "123456789",
        "data": "0x5cfb28e7",
        "gasLimit": 100000,
        "gasPrice": "1000000000",
        "chainId": 1001
      },
      {
        "from": "0x617b3a3528F9cDd6630fd3301B9c8911F7Bf063D",
        "to": "0xEEEeF5032B2A844602278B01199ED191a86cEEeE",
        "nonce": "2",
        "value": "3",
        "gasLimit": 100000,
        "gasPrice": "1000000000",
        "chainId": 1001
      },
      {
        "from": "0x4d5Cf5032B2a844602278b01199ED191A86c93ff",
        "to": "0x1275fbb540c8efc58b812ba83b0d0b8b9917ae98",
        "nonce": "0",
        "value": "0",
        "data": "0xd0a4c6c5",
        "gasLimit": 100000,
        "gasPrice": "1000000000",
        "chainId": 1001
      }
    ],
    "expectedNewRoot": "0x2138ec9693fb997a5eadf8f454098f48510ad0c0291d7f26fe1f3059b1c4b2e6",
    "expectedNewLeafs": {
      "0x0000000000000000000000000000000000000000": {
        "balance": "0",
        "nonce": "0",
        "storage": {
          "0x0000000000000000000000000000000000000000000000000000000000000000": "0x04",
          "0x101e368776582e57ab3d116ffe2517c0a585cd5b23174b01e275c2d8329c3d83": "0x412c7e9e948208042176c96d64bbd6b517576b5373e1229cd97db0d1138abe12",
          "0x52d75039926638d3c558b2bdefb945d5be8dae29dedd1c313212a4d472d9fde5": "0x2138ec9693fb997a5eadf8f454098f48510ad0c0291d7f26fe1f3059b1c4b2e6",
          "0xabbb5caa7dda850e60932de0934eb1f9d0f59695050f761dc64e443e5030a569": "0x70ccdc7fc0a2bfce5103f8a002b07cf4e3b53c472c1f8e67d2ee088915126910",
          "0xada5013122d395ba3c54772283fb069b10426056ef8ca54750cb9bb552a59e7d": "0x085aa4ba1502fb634edb4416330900345f432ca01350b254db6c639accb65a25"
        },
        "hashBytecode": "0x0000000000000000000000000000000000000000000000000000000000000000",
        "bytecodeLength": 0
      },
      "0xAE4bB80bE56B819606589DE61d5ec3b522EEB032": {
        "balance": "0",
        "nonce": "0",
        "storage": {
          "0x53d3f126103a7f7d6245751d2392e0245bf71479d10a3c27a5b501ace6dde1b7": "0x01"
        },
        "hashBytecode": "0x0000000000000000000000000000000000000000000000000000000000000000",
        "bytecodeLength": 0
      },
      "0x1275fbb540c8efc58b812ba83b0d0b8b9917ae98": {
        "balance": "0",
        "nonce": "1",
        "storage": {
          "0x0000000000000000000000000000000000000000000000000000000000000000": "0xeeeef5032b2a844602278b01199ed191a86ceeee",
          "0x0000000000000000000000000000000000000000000000000000000000000001": "0x02"
        },
        "hashBytecode": "0xb64fe8293043c1242b2ba5519203312b8d965e6c23f5c74910576c86d4432c2d",
        "bytecodeLength": 799
      },
      "0x617b3a3528F9cDd6630fd3301B9c8911F7Bf063D": {
        "balance": "100000036034876543208",
        "nonce": "3",
        "storage": null,
        "hashBytecode": "0x0000000000000000000000000000000000000000000000000000000000000000",
        "bytecodeLength": 0
      },
      "0x4d5Cf5032B2a844602278b01199ED191A86c93ff": {
        "balance": "199999963965000000000",
        "nonce": "1",
        "storage": null,
        "hashBytecode": "0x0000000000000000000000000000000000000000000000000000000000000000",
        "bytecodeLength": 0
      },
      "0xEEEeF5032B2A844602278B01199ED191a86cEEeE": {
        "balance": "123456792",
        "nonce": "0",
        "storage": null,
        "hashBytecode": "0x0000000000000000000000000000000000000000000000000000000000000000",
        "bytecodeLength": 0
      }
    },
    "timestamp": 1944498031,
    "newLocalExitRoot": "0x0000000000000000000000000000000000000000000000000000000000000000",
    "batchHashData": "0x280b1ee10960a55f76fd7898c3e77294c30d640d1d4aad4f25c6136c985f0569",
    "inputHash": "0x6cf11f62dd368fdffa274200680f54d4f19e79dbc4c992131526b6e057af7a32",
    "globalExitRoot": "0x090bcaf734c4f06c93954a827b45a6e8c67b8e0fd1e0a35a1c5982d6961828f9",
    "oldLocalExitRoot": "0x0000000000000000000000000000000000000000000000000000000000000000",
    "batchL2Data": "0xf84a80843b9aca00830186a0941275fbb540c8efc58b812ba83b0d0b8b9917ae9880a4718da7ee000000000000000000000000eeeef5032b2a844602278b01199ed191a86ceeee8203e88080f575c21921ce2d8fb27d7706563bf605e7ac616156380e71bae93bc0e77367e151cce11879fd46346b92536449bf3bd1b8f7a8110978fcb4f8ea4499c988f79a1bee01843b9aca00830186a0941275fbb540c8efc58b812ba83b0d0b8b9917ae9884075bcd15845cfb28e78203e88080753bcbcaec2a03e928e96c7e951e585511acc85ab44ea1ef5344cc727879469923f9591354e24a495186a960957fa25fde99ab8f515a775c1d1947b8f8c7516b1ce602843b9aca00830186a094eeeef5032b2a844602278b01199ed191a86ceeee03808203e88080d051fe638181b4a417fb38ab7db717d97ebd8f74daef6134fe5f8fdf45d88b9759c5811954b33e0b171dd59af635f6c166cb503b8ab9a415749b5bdb059664821bea80843b9aca00830186a0941275fbb540c8efc58b812ba83b0d0b8b9917ae988084d0a4c6c58203e88080ecdbe42e2da2f7b5792175e76580c16f0e5214ac13517c1b4f038c73dd3272807dc566258a3a9ad76b1faa88da736e6db415215f18086eb994e81d2548c934a81c",
    "chainID": 1000
  }
]