[
  {
    "id": 0,
    "description": "precompiled IDENTITY_0",
    "arity": 4,
    "chainIdSequencer": 1001,
    "defaultChainId": 1000,
    "sequencerAddress": "0x617b3a3528F9cDd6630fd3301B9c8911F7Bf063D",
    "sequencerPvtKey": "0x28b2b0318721be8c8339199172cd7cc8f5e273800a35616ec893083a4b32c02e",
    "genesis": [
      {
        "address": "0x617b3a3528F9cDd6630fd3301B9c8911F7Bf063D",
        "nonce": "0",
        "balance": "100000000000000000000",
        "pvtKey": "0x28b2b0318721be8c8339199172cd7cc8f5e273800a35616ec893083a4b32c02e"
      },
      {
        "address": "0x4d5Cf5032B2a844602278b01199ED191A86c93ff",
        "nonce": "0",
        "balance": "200000000000000000000",
        "pvtKey": "0x4d27a600dce8c29b7bd080e29a26972377dbb04d7a27d919adbb602bf13cfd23"
      },
      {
        "address": "0x1275fbb540c8efc58b812ba83b0d0b8b9917ae98",
        "nonce": 1,
        "balance": 0,
        "bytecode": "0x608060405234801561001057600080fd5b506004361061002b5760003560e01c8063324b638514610030575b600080fd5b61004a600480360381019061004591906101e5565b61004c565b005b6000815167ffffffffffffffff81111561006957610068610325565b5b6040519080825280601f01601f19166020018201604052801561009b5781602001600182028036833780820191505090505b509050815180602083018260208601600060045af16100b657fe5b5080600290805190602001906100cd9291906100d2565b505050565b8280546100de90610293565b90600052602060002090601f0160209004810192826101005760008555610147565b82601f1061011957805160ff1916838001178555610147565b82800160010185558215610147579182015b8281111561014657825182559160200191906001019061012b565b5b5090506101549190610158565b5090565b5b80821115610171576000816000905550600101610159565b5090565b600061018861018384610253565b61022e565b9050828152602081018484840111156101a4576101a3610359565b5b6101af848285610284565b509392505050565b600082601f8301126101cc576101cb610354565b5b81356101dc848260208601610175565b91505092915050565b6000602082840312156101fb576101fa610363565b5b600082013567ffffffffffffffff8111156102195761021861035e565b5b610225848285016101b7565b91505092915050565b6000610238610249565b905061024482826102c5565b919050565b6000604051905090565b600067ffffffffffffffff82111561026e5761026d610325565b5b61027782610368565b9050602081019050919050565b82818337600083830152505050565b600060028204905060018216806102ab57607f821691505b602082108114156102bf576102be6102f6565b5b50919050565b6102ce82610368565b810181811067ffffffffffffffff821117156102ed576102ec610325565b5b80604052505050565b7f4e487b7100000000000000000000000000000000000000000000000000000000600052602260045260246000fd5b7f4e487b7100000000000000000000000000000000000000000000000000000000600052604160045260246000fd5b600080fd5b600080fd5b600080fd5b600080fd5b6000601f19601f830116905091905056fea2646970667358221220167e70841f47f163f2cd17142dbda8e6f90829eabf703b49ac24ec6bb179436c64736f6c63430008070033",
        "abi": [
          {
            "inputs": [
              {
                "internalType": "bytes",
                "name": "data",
                "type": "bytes"
              }
            ],
            "name": "identity_0",
            "outputs": [],
            "stateMutability": "nonpayable",
            "type": "function"
          }
        ],
        "storage": {}
      }
    ],
    "expectedOldRoot": "0xb2266fb0714ec71d3bf6a0ab9ceb9e8bf167bd1e8dd75ba868cf42aada71210e",
    "txs": [
      {
        "from": "0x4d5Cf5032B2a844602278b01199ED191A86c93ff",
        "to": "0x1275fbb540c8efc58b812ba83b0d0b8b9917ae98",
        "nonce": "0",
        "value": "0",
        "data": "0x324b63850000000000000000000000000000000000000000000000000000000000000020000000000000000000000000000000000000000000000000000000000000002312345678901234567890123456789012345678901234567890123456789012345678900000000000000000000000000000000000000000000000000000000000",
        "gasLimit": 100000,
        "gasPrice": "1000000000",
        "chainId": 1000
      }
    ],
    "expectedNewRoot": "0xdab506e769e25f4ea95b23c1c8ecfacacd50d2157bd4d89a50f29c7c8db88a14",
    "expectedNewLeafs": {
      "0x617b3a3528F9cDd6630fd3301B9c8911F7Bf063D": {
        "balance": "100000090209000000000",
        "nonce": "0",
        "storage": null,
        "hashBytecode": "0x0000000000000000000000000000000000000000000000000000000000000000",
        "bytecodeLength": 0
      },
      "0x4d5Cf5032B2a844602278b01199ED191A86c93ff": {
        "balance": "199999909791000000000",
        "nonce": "1",
        "storage": null,
        "hashBytecode": "0x0000000000000000000000000000000000000000000000000000000000000000",
        "bytecodeLength": 0
      },
      "0x1275fbb540c8efc58b812ba83b0d0b8b9917ae98": {
        "balance": "0",
        "nonce": "1",
        "storage": {
          "0x0000000000000000000000000000000000000000000000000000000000000002": "0x47",
          "0x405787fa12a823e0f2b7631cc41b3ba8828b3321ca811111fa75cd3aa3bb5ace": "0x1234567890123456789012345678901234567890123456789012345678901234",
          "0x405787fa12a823e0f2b7631cc41b3ba8828b3321ca811111fa75cd3aa3bb5acf": "0x5678900000000000000000000000000000000000000000000000000000000000"
        },
        "hashBytecode": "0x461f8bac52673ac309716377344b32dce2e9f7aa70bb2344f2c11f380a26fabd",
        "bytecodeLength": 943
      }
    },
    "timestamp": 1944498031,
    "newLocalExitRoot": "0x0000000000000000000000000000000000000000000000000000000000000000",
    "batchHashData": "0x2a52715acc510824d2291fe8c2754f4637180abca3ae4fb0b338fcbb289b739e",
    "inputHash": "0x4abe1a26fba9151aac82c6b768f5fd6bd64147883decbaff323cb8bd351198c4",
    "globalExitRoot": "0x090bcaf734c4f06c93954a827b45a6e8c67b8e0fd1e0a35a1c5982d6961828f9",
    "oldLocalExitRoot": "0x0000000000000000000000000000000000000000000000000000000000000000",
    "batchL2Data": "0xf8ab80843b9aca00830186a0941275fbb540c8efc58b812ba83b0d0b8b9917ae9880b884324b638500000000000000000000000000000000000000000000000000000000000000200000000000000000000000000000000000000000000000000000000000000023123456789012345678901234567890123456789012345678901234567890123456789000000000000000000000000000000000000000000000000000000000008203e880801778b2ddf921c588503ec0f21aefabf4e3fa2ebad45bcbb24e6fd83046c43280694b142377b2f5886701c7b06df64989b62862edc42c617e53b6231a34e84d171c"
  }
]