[
  {
    "id": 0,
    "description": "precompiled modexp_0",
    "arity": 4,
    "chainIdSequencer": 1001,
    "defaultChainId": 1000,
    "sequencerAddress": "0x617b3a3528F9cDd6630fd3301B9c8911F7Bf063D",
    "sequencerPvtKey": "0x28b2b0318721be8c8339199172cd7cc8f5e273800a35616ec893083a4b32c02e",
    "genesis": [
      {
        "address": "0x617b3a3528F9cDd6630fd3301B9c8911F7Bf063D",
        "nonce": "0",
        "balance": "100000000000000000000",
        "pvtKey": "0x28b2b0318721be8c8339199172cd7cc8f5e273800a35616ec893083a4b32c02e"
      },
      {
        "address": "0x4d5Cf5032B2a844602278b01199ED191A86c93ff",
        "nonce": "0",
        "balance": "200000000000000000000",
        "pvtKey": "0x4d27a600dce8c29b7bd080e29a26972377dbb04d7a27d919adbb602bf13cfd23"
      },
      {
        "address": "0x1275fbb540c8efc58b812ba83b0d0b8b9917ae98",
        "nonce": 1,
        "balance": 0,
        "bytecode": "0x608060405234801561001057600080fd5b50600436106100575760003560e01c80637c5d155c1461005c5780639737c9b71461006657806399023de614610082578063ca8b6b0c1461008c578063f3e5787c14610096575b600080fd5b6100646100a0565b005b610080600480360381019061007b91906103d2565b610155565b005b61008a6101b3565b005b610094610270565b005b61009e61030a565b005b606060405160208152602080820152604080820152620124f86060820152602160808201527f111111111111111111111111111111111111111111111111111111111111111160a08201527f111111111111111111111111111111111111111111111111111111111111111160c082015260408160e083600060055af180600081146101495782519350836001556020830151935083600255604083015193508360035561014f565b60026003555b50505050565b606060405160208152602080820152602060408201528460608201528360808201528260a082015260208160c083600060055af180600081146101a457825193508360015560016003556101aa565b60026003555b50505050505050565b60606040516020815260208082015260416040820152620124f86060820152602160808201527f111111111111111111111111111111111111111111111111111111111111111160a08201527f111111111111111111111111111111111111111111111111111111111111111160c0820152601160e082015360418160e183600060055af180600081146102645782519350836001556020830151935083600255604083015193508360035561026a565b60026003555b50505050565b606060405160208152602080820152602760408201526007606082015260086080820152600060a0820152600060c0820153600060c1820153600060c2820153600060c3820153600060c4820153600060c5820153600960c682015360278160c783600060055af180600081146102fe57825193508360015560208301519350836001556001600355610304565b60026003555b50505050565b6060604051602081526020808201526027604082015260076060820152606e608082015279111111111111111111111111111111111111111111111111111160a0820152601160c0820153601160c1820153601160c2820153601160c3820153601160c4820153601160c5820153601160c682015360278160c783600060055af180600081146103b1578251935083600155602083015193508360025560016003556103b7565b60026003555b50505050565b6000813590506103cc81610434565b92915050565b6000806000606084860312156103eb576103ea61042f565b5b60006103f9868287016103bd565b935050602061040a868287016103bd565b925050604061041b868287016103bd565b9150509250925092565b6000819050919050565b600080fd5b61043d81610425565b811461044857600080fd5b5056fea2646970667358221220f9c21ca9f6a3a2d7ca2ca5e4348bc62d769029af6e924e205992862fc8b95a0364736f6c63430008070033",
        "abi": [
          {
            "inputs": [
              {
                "internalType": "bytes32",
                "name": "base",
                "type": "bytes32"
              },
              {
                "internalType": "bytes32",
                "name": "exponent",
                "type": "bytes32"
              },
              {
                "internalType": "bytes32",
                "name": "modulus",
                "type": "bytes32"
              }
            ],
            "name": "modexp_0",
            "outputs": [],
            "stateMutability": "nonpayable",
            "type": "function"
          },
          {
            "inputs": [],
            "name": "modexp_1",
            "outputs": [],
            "stateMutability": "nonpayable",
            "type": "function"
          },
          {
            "inputs": [],
            "name": "modexp_2",
            "outputs": [],
            "stateMutability": "nonpayable",
            "type": "function"
          },
          {
            "inputs": [],
            "name": "modexp_3",
            "outputs": [],
            "stateMutability": "nonpayable",
            "type": "function"
          },
          {
            "inputs": [],
            "name": "modexp_4",
            "outputs": [],
            "stateMutability": "nonpayable",
            "type": "function"
          }
        ],
        "storage": {}
      }
    ],
    "expectedOldRoot": "0x8a4c4fb3292f6c7ee6ffbc921505d9c9490876d3ce1368c085ee9dfac9de86a9",
    "txs": [
      {
        "from": "0x4d5Cf5032B2a844602278b01199ED191A86c93ff",
        "to": "0x1275fbb540c8efc58b812ba83b0d0b8b9917ae98",
        "nonce": "0",
        "value": "0",
        "data": "0x9737c9b7000000000000000000000000000000000000000000000000000000000000000700000000000000000000000000000000000000000000000000000000000000080000000000000000000000000000000000000000000000000000000000000009",
        "gasLimit": 100000,
        "gasPrice": "1000000000",
        "chainId": 1000
      }
    ],
    "expectedNewRoot": "0xf17f33ab767bafbe043c235487a30d91f8cbf7536e1e9fd293f68586ee4e6d71",
    "expectedNewLeafs": {
      "0x617b3a3528F9cDd6630fd3301B9c8911F7Bf063D": {
        "balance": "100000066935000000000",
        "nonce": "0",
        "storage": null,
        "hashBytecode": "0x0000000000000000000000000000000000000000000000000000000000000000",
        "bytecodeLength": 0
      },
      "0x4d5Cf5032B2a844602278b01199ED191A86c93ff": {
        "balance": "199999933065000000000",
        "nonce": "1",
        "storage": null,
        "hashBytecode": "0x0000000000000000000000000000000000000000000000000000000000000000",
        "bytecodeLength": 0
      },
      "0x1275fbb540c8efc58b812ba83b0d0b8b9917ae98": {
        "balance": "0",
        "nonce": "1",
        "storage": {
          "0x0000000000000000000000000000000000000000000000000000000000000001": "0x04",
          "0x0000000000000000000000000000000000000000000000000000000000000003": "0x01"
        },
        "hashBytecode": "0x73fe094ff77d8abf005db6e3abf77b28ca7fd561783c267117f0c15e0053a521",
        "bytecodeLength": 1153
      }
    },
    "timestamp": 1944498031,
    "newLocalExitRoot": "0x0000000000000000000000000000000000000000000000000000000000000000",
    "batchHashData": "0x8d3368ae90b8db14b698b43f604e0b84a57c77a0a7d496bf25f58b6db1f9838f",
    "globalExitRoot": "0x090bcaf734c4f06c93954a827b45a6e8c67b8e0fd1e0a35a1c5982d6961828f9",
    "batchL2Data": "0xf88b80843b9aca00830186a0941275fbb540c8efc58b812ba83b0d0b8b9917ae9880b8649737c9b70000000000000000000000000000000000000000000000000000000000000007000000000000000000000000000000000000000000000000000000000000000800000000000000000000000000000000000000000000000000000000000000098203e880801fc3d816a32827b499d66f230cdf87879d0a59bf002bc6e4f1fed32118aeca8e20e7f62134cb2d87bc3ce06872c4d7e146359c2f833a328af8823b953c737c7b1cff",
    "chainID": 1000,
    "oldAccInputHash": "0x0000000000000000000000000000000000000000000000000000000000000000",
    "forkID": 5
  },
  {
    "id": 1,
    "description": "precompiled modexp_1",
    "arity": 4,
    "chainIdSequencer": 1001,
    "defaultChainId": 1000,
    "sequencerAddress": "0x617b3a3528F9cDd6630fd3301B9c8911F7Bf063D",
    "sequencerPvtKey": "0x28b2b0318721be8c8339199172cd7cc8f5e273800a35616ec893083a4b32c02e",
    "genesis": [
      {
        "address": "0x617b3a3528F9cDd6630fd3301B9c8911F7Bf063D",
        "nonce": "0",
        "balance": "100000000000000000000",
        "pvtKey": "0x28b2b0318721be8c8339199172cd7cc8f5e273800a35616ec893083a4b32c02e"
      },
      {
        "address": "0x4d5Cf5032B2a844602278b01199ED191A86c93ff",
        "nonce": "0",
        "balance": "200000000000000000000",
        "pvtKey": "0x4d27a600dce8c29b7bd080e29a26972377dbb04d7a27d919adbb602bf13cfd23"
      },
      {
        "address": "0x1275fbb540c8efc58b812ba83b0d0b8b9917ae98",
        "nonce": 1,
        "balance": 0,
        "bytecode": "0x608060405234801561001057600080fd5b50600436106100575760003560e01c80637c5d155c1461005c5780639737c9b71461006657806399023de614610082578063ca8b6b0c1461008c578063f3e5787c14610096575b600080fd5b6100646100a0565b005b610080600480360381019061007b91906103d2565b610155565b005b61008a6101b3565b005b610094610270565b005b61009e61030a565b005b606060405160208152602080820152604080820152620124f86060820152602160808201527f111111111111111111111111111111111111111111111111111111111111111160a08201527f111111111111111111111111111111111111111111111111111111111111111160c082015260408160e083600060055af180600081146101495782519350836001556020830151935083600255604083015193508360035561014f565b60026003555b50505050565b606060405160208152602080820152602060408201528460608201528360808201528260a082015260208160c083600060055af180600081146101a457825193508360015560016003556101aa565b60026003555b50505050505050565b60606040516020815260208082015260416040820152620124f86060820152602160808201527f111111111111111111111111111111111111111111111111111111111111111160a08201527f111111111111111111111111111111111111111111111111111111111111111160c0820152601160e082015360418160e183600060055af180600081146102645782519350836001556020830151935083600255604083015193508360035561026a565b60026003555b50505050565b606060405160208152602080820152602760408201526007606082015260086080820152600060a0820152600060c0820153600060c1820153600060c2820153600060c3820153600060c4820153600060c5820153600960c682015360278160c783600060055af180600081146102fe57825193508360015560208301519350836001556001600355610304565b60026003555b50505050565b6060604051602081526020808201526027604082015260076060820152606e608082015279111111111111111111111111111111111111111111111111111160a0820152601160c0820153601160c1820153601160c2820153601160c3820153601160c4820153601160c5820153601160c682015360278160c783600060055af180600081146103b1578251935083600155602083015193508360025560016003556103b7565b60026003555b50505050565b6000813590506103cc81610434565b92915050565b6000806000606084860312156103eb576103ea61042f565b5b60006103f9868287016103bd565b935050602061040a868287016103bd565b925050604061041b868287016103bd565b9150509250925092565b6000819050919050565b600080fd5b61043d81610425565b811461044857600080fd5b5056fea2646970667358221220f9c21ca9f6a3a2d7ca2ca5e4348bc62d769029af6e924e205992862fc8b95a0364736f6c63430008070033",
        "abi": [
          {
            "inputs": [
              {
                "internalType": "bytes32",
                "name": "base",
                "type": "bytes32"
              },
              {
                "internalType": "bytes32",
                "name": "exponent",
                "type": "bytes32"
              },
              {
                "internalType": "bytes32",
                "name": "modulus",
                "type": "bytes32"
              }
            ],
            "name": "modexp_0",
            "outputs": [],
            "stateMutability": "nonpayable",
            "type": "function"
          },
          {
            "inputs": [],
            "name": "modexp_1",
            "outputs": [],
            "stateMutability": "nonpayable",
            "type": "function"
          },
          {
            "inputs": [],
            "name": "modexp_2",
            "outputs": [],
            "stateMutability": "nonpayable",
            "type": "function"
          },
          {
            "inputs": [],
            "name": "modexp_3",
            "outputs": [],
            "stateMutability": "nonpayable",
            "type": "function"
          },
          {
            "inputs": [],
            "name": "modexp_4",
            "outputs": [],
            "stateMutability": "nonpayable",
            "type": "function"
          }
        ],
        "storage": {}
      }
    ],
    "expectedOldRoot": "0x8a4c4fb3292f6c7ee6ffbc921505d9c9490876d3ce1368c085ee9dfac9de86a9",
    "txs": [
      {
        "from": "0x4d5Cf5032B2a844602278b01199ED191A86c93ff",
        "to": "0x1275fbb540c8efc58b812ba83b0d0b8b9917ae98",
        "nonce": "0",
        "value": "0",
        "data": "0xca8b6b0c",
        "gasLimit": 100000,
        "gasPrice": "1000000000",
        "chainId": 1000
      }
    ],
    "expectedNewRoot": "0xb0ded1ffc7e1491c9793f950fe1154d3c6ea9ca41dad12b27a10af087d9eba22",
    "expectedNewLeafs": {
      "0x617b3a3528F9cDd6630fd3301B9c8911F7Bf063D": {
        "balance": "100000066185000000000",
        "nonce": "0",
        "storage": null,
        "hashBytecode": "0x0000000000000000000000000000000000000000000000000000000000000000",
        "bytecodeLength": 0
      },
      "0x4d5Cf5032B2a844602278b01199ED191A86c93ff": {
        "balance": "199999933815000000000",
        "nonce": "1",
        "storage": null,
        "hashBytecode": "0x0000000000000000000000000000000000000000000000000000000000000000",
        "bytecodeLength": 0
      },
      "0x1275fbb540c8efc58b812ba83b0d0b8b9917ae98": {
        "balance": "0",
        "nonce": "1",
        "storage": {
          "0x0000000000000000000000000000000000000000000000000000000000000001": "0x0400000000000000000000000000000000000000000000000020",
          "0x0000000000000000000000000000000000000000000000000000000000000003": "0x01"
        },
        "hashBytecode": "0x73fe094ff77d8abf005db6e3abf77b28ca7fd561783c267117f0c15e0053a521",
        "bytecodeLength": 1153
      }
    },
    "timestamp": 1944498031,
    "newLocalExitRoot": "0x0000000000000000000000000000000000000000000000000000000000000000",
    "batchHashData": "0x1170bf43b6e7e78bf2af368aa997edb4da235a95ba2ddb204edbf09dd0bb7370",
    "globalExitRoot": "0x090bcaf734c4f06c93954a827b45a6e8c67b8e0fd1e0a35a1c5982d6961828f9",
    "batchL2Data": "0xea80843b9aca00830186a0941275fbb540c8efc58b812ba83b0d0b8b9917ae988084ca8b6b0c8203e88080308888d8ff809dcbdcb8293fc134de90bda708cda5914cf5f6d1dd1e0e9cc1ec676676381e1d1c2da479ff505418bda4e74b2162ee818b555b79b1676d0b3d271bff",
    "chainID": 1000,
    "oldAccInputHash": "0x0000000000000000000000000000000000000000000000000000000000000000",
    "forkID": 5
  },
  {
    "id": 2,
    "description": "precompiled modexp_2",
    "arity": 4,
    "chainIdSequencer": 1001,
    "defaultChainId": 1000,
    "sequencerAddress": "0x617b3a3528F9cDd6630fd3301B9c8911F7Bf063D",
    "sequencerPvtKey": "0x28b2b0318721be8c8339199172cd7cc8f5e273800a35616ec893083a4b32c02e",
    "genesis": [
      {
        "address": "0x617b3a3528F9cDd6630fd3301B9c8911F7Bf063D",
        "nonce": "0",
        "balance": "100000000000000000000",
        "pvtKey": "0x28b2b0318721be8c8339199172cd7cc8f5e273800a35616ec893083a4b32c02e"
      },
      {
        "address": "0x4d5Cf5032B2a844602278b01199ED191A86c93ff",
        "nonce": "0",
        "balance": "200000000000000000000",
        "pvtKey": "0x4d27a600dce8c29b7bd080e29a26972377dbb04d7a27d919adbb602bf13cfd23"
      },
      {
        "address": "0x1275fbb540c8efc58b812ba83b0d0b8b9917ae98",
        "nonce": 1,
        "balance": 0,
        "bytecode": "0x608060405234801561001057600080fd5b50600436106100575760003560e01c80637c5d155c1461005c5780639737c9b71461006657806399023de614610082578063ca8b6b0c1461008c578063f3e5787c14610096575b600080fd5b6100646100a0565b005b610080600480360381019061007b91906103d2565b610155565b005b61008a6101b3565b005b610094610270565b005b61009e61030a565b005b606060405160208152602080820152604080820152620124f86060820152602160808201527f111111111111111111111111111111111111111111111111111111111111111160a08201527f111111111111111111111111111111111111111111111111111111111111111160c082015260408160e083600060055af180600081146101495782519350836001556020830151935083600255604083015193508360035561014f565b60026003555b50505050565b606060405160208152602080820152602060408201528460608201528360808201528260a082015260208160c083600060055af180600081146101a457825193508360015560016003556101aa565b60026003555b50505050505050565b60606040516020815260208082015260416040820152620124f86060820152602160808201527f111111111111111111111111111111111111111111111111111111111111111160a08201527f111111111111111111111111111111111111111111111111111111111111111160c0820152601160e082015360418160e183600060055af180600081146102645782519350836001556020830151935083600255604083015193508360035561026a565b60026003555b50505050565b606060405160208152602080820152602760408201526007606082015260086080820152600060a0820152600060c0820153600060c1820153600060c2820153600060c3820153600060c4820153600060c5820153600960c682015360278160c783600060055af180600081146102fe57825193508360015560208301519350836001556001600355610304565b60026003555b50505050565b6060604051602081526020808201526027604082015260076060820152606e608082015279111111111111111111111111111111111111111111111111111160a0820152601160c0820153601160c1820153601160c2820153601160c3820153601160c4820153601160c5820153601160c682015360278160c783600060055af180600081146103b1578251935083600155602083015193508360025560016003556103b7565b60026003555b50505050565b6000813590506103cc81610434565b92915050565b6000806000606084860312156103eb576103ea61042f565b5b60006103f9868287016103bd565b935050602061040a868287016103bd565b925050604061041b868287016103bd565b9150509250925092565b6000819050919050565b600080fd5b61043d81610425565b811461044857600080fd5b5056fea2646970667358221220f9c21ca9f6a3a2d7ca2ca5e4348bc62d769029af6e924e205992862fc8b95a0364736f6c63430008070033",
        "abi": [
          {
            "inputs": [
              {
                "internalType": "bytes32",
                "name": "base",
                "type": "bytes32"
              },
              {
                "internalType": "bytes32",
                "name": "exponent",
                "type": "bytes32"
              },
              {
                "internalType": "bytes32",
                "name": "modulus",
                "type": "bytes32"
              }
            ],
            "name": "modexp_0",
            "outputs": [],
            "stateMutability": "nonpayable",
            "type": "function"
          },
          {
            "inputs": [],
            "name": "modexp_1",
            "outputs": [],
            "stateMutability": "nonpayable",
            "type": "function"
          },
          {
            "inputs": [],
            "name": "modexp_2",
            "outputs": [],
            "stateMutability": "nonpayable",
            "type": "function"
          },
          {
            "inputs": [],
            "name": "modexp_3",
            "outputs": [],
            "stateMutability": "nonpayable",
            "type": "function"
          },
          {
            "inputs": [],
            "name": "modexp_4",
            "outputs": [],
            "stateMutability": "nonpayable",
            "type": "function"
          }
        ],
        "storage": {}
      }
    ],
    "expectedOldRoot": "0x8a4c4fb3292f6c7ee6ffbc921505d9c9490876d3ce1368c085ee9dfac9de86a9",
    "txs": [
      {
        "from": "0x4d5Cf5032B2a844602278b01199ED191A86c93ff",
        "to": "0x1275fbb540c8efc58b812ba83b0d0b8b9917ae98",
        "nonce": "0",
        "value": "0",
        "data": "0xf3e5787c",
        "gasLimit": 100000,
        "gasPrice": "1000000000",
        "chainId": 1000
      }
    ],
    "expectedNewRoot": "0xb4d3797baf153e82cd5f01a251a3882e204a3e2e4ccc9903bdee112af05523a9",
    "expectedNewLeafs": {
      "0x617b3a3528F9cDd6630fd3301B9c8911F7Bf063D": {
        "balance": "100000088207000000000",
        "nonce": "0",
        "storage": null,
        "hashBytecode": "0x0000000000000000000000000000000000000000000000000000000000000000",
        "bytecodeLength": 0
      },
      "0x4d5Cf5032B2a844602278b01199ED191A86c93ff": {
        "balance": "199999911793000000000",
        "nonce": "1",
        "storage": null,
        "hashBytecode": "0x0000000000000000000000000000000000000000000000000000000000000000",
        "bytecodeLength": 0
      },
      "0x1275fbb540c8efc58b812ba83b0d0b8b9917ae98": {
        "balance": "0",
        "nonce": "1",
        "storage": {
          "0x0000000000000000000000000000000000000000000000000000000000000001": "0x0db4b1a9996aa32645a52888d460414285f199d998a726d85677",
          "0x0000000000000000000000000000000000000000000000000000000000000003": "0x01",
          "0x0000000000000000000000000000000000000000000000000000000000000002": "0xc4f91ad5aa40ae00000000000000000000000000000000000000000000000020"
        },
        "hashBytecode": "0x73fe094ff77d8abf005db6e3abf77b28ca7fd561783c267117f0c15e0053a521",
        "bytecodeLength": 1153
      }
    },
    "timestamp": 1944498031,
    "newLocalExitRoot": "0x0000000000000000000000000000000000000000000000000000000000000000",
    "batchHashData": "0xbde7ac0679c7960d8356d51bfa6529cdeb9c8bd3834369d0187b093f83f0be66",
    "globalExitRoot": "0x090bcaf734c4f06c93954a827b45a6e8c67b8e0fd1e0a35a1c5982d6961828f9",
    "batchL2Data": "0xea80843b9aca00830186a0941275fbb540c8efc58b812ba83b0d0b8b9917ae988084f3e5787c8203e880805f7d30f6ab8c26af8abac9e519c52ba4d19de9215eea18d954d945c1ad1d8e5a10c4e2e68e77588ef97e8733a213a85204df7696e962361f809fafc0287889971bff",
    "chainID": 1000,
    "oldAccInputHash": "0x0000000000000000000000000000000000000000000000000000000000000000",
    "forkID": 5
  },
  {
    "id": 3,
    "description": "precompiled modexp_3",
    "arity": 4,
    "chainIdSequencer": 1001,
    "defaultChainId": 1000,
    "sequencerAddress": "0x617b3a3528F9cDd6630fd3301B9c8911F7Bf063D",
    "sequencerPvtKey": "0x28b2b0318721be8c8339199172cd7cc8f5e273800a35616ec893083a4b32c02e",
    "genesis": [
      {
        "address": "0x617b3a3528F9cDd6630fd3301B9c8911F7Bf063D",
        "nonce": "0",
        "balance": "100000000000000000000",
        "pvtKey": "0x28b2b0318721be8c8339199172cd7cc8f5e273800a35616ec893083a4b32c02e"
      },
      {
        "address": "0x4d5Cf5032B2a844602278b01199ED191A86c93ff",
        "nonce": "0",
        "balance": "200000000000000000000",
        "pvtKey": "0x4d27a600dce8c29b7bd080e29a26972377dbb04d7a27d919adbb602bf13cfd23"
      },
      {
        "address": "0x1275fbb540c8efc58b812ba83b0d0b8b9917ae98",
        "nonce": 1,
        "balance": 0,
        "bytecode": "0x608060405234801561001057600080fd5b50600436106100575760003560e01c80637c5d155c1461005c5780639737c9b71461006657806399023de614610082578063ca8b6b0c1461008c578063f3e5787c14610096575b600080fd5b6100646100a0565b005b610080600480360381019061007b91906103d2565b610155565b005b61008a6101b3565b005b610094610270565b005b61009e61030a565b005b606060405160208152602080820152604080820152620124f86060820152602160808201527f111111111111111111111111111111111111111111111111111111111111111160a08201527f111111111111111111111111111111111111111111111111111111111111111160c082015260408160e083600060055af180600081146101495782519350836001556020830151935083600255604083015193508360035561014f565b60026003555b50505050565b606060405160208152602080820152602060408201528460608201528360808201528260a082015260208160c083600060055af180600081146101a457825193508360015560016003556101aa565b60026003555b50505050505050565b60606040516020815260208082015260416040820152620124f86060820152602160808201527f111111111111111111111111111111111111111111111111111111111111111160a08201527f111111111111111111111111111111111111111111111111111111111111111160c0820152601160e082015360418160e183600060055af180600081146102645782519350836001556020830151935083600255604083015193508360035561026a565b60026003555b50505050565b606060405160208152602080820152602760408201526007606082015260086080820152600060a0820152600060c0820153600060c1820153600060c2820153600060c3820153600060c4820153600060c5820153600960c682015360278160c783600060055af180600081146102fe57825193508360015560208301519350836001556001600355610304565b60026003555b50505050565b6060604051602081526020808201526027604082015260076060820152606e608082015279111111111111111111111111111111111111111111111111111160a0820152601160c0820153601160c1820153601160c2820153601160c3820153601160c4820153601160c5820153601160c682015360278160c783600060055af180600081146103b1578251935083600155602083015193508360025560016003556103b7565b60026003555b50505050565b6000813590506103cc81610434565b92915050565b6000806000606084860312156103eb576103ea61042f565b5b60006103f9868287016103bd565b935050602061040a868287016103bd565b925050604061041b868287016103bd565b9150509250925092565b6000819050919050565b600080fd5b61043d81610425565b811461044857600080fd5b5056fea2646970667358221220f9c21ca9f6a3a2d7ca2ca5e4348bc62d769029af6e924e205992862fc8b95a0364736f6c63430008070033",
        "abi": [
          {
            "inputs": [
              {
                "internalType": "bytes32",
                "name": "base",
                "type": "bytes32"
              },
              {
                "internalType": "bytes32",
                "name": "exponent",
                "type": "bytes32"
              },
              {
                "internalType": "bytes32",
                "name": "modulus",
                "type": "bytes32"
              }
            ],
            "name": "modexp_0",
            "outputs": [],
            "stateMutability": "nonpayable",
            "type": "function"
          },
          {
            "inputs": [],
            "name": "modexp_1",
            "outputs": [],
            "stateMutability": "nonpayable",
            "type": "function"
          },
          {
            "inputs": [],
            "name": "modexp_2",
            "outputs": [],
            "stateMutability": "nonpayable",
            "type": "function"
          },
          {
            "inputs": [],
            "name": "modexp_3",
            "outputs": [],
            "stateMutability": "nonpayable",
            "type": "function"
          },
          {
            "inputs": [],
            "name": "modexp_4",
            "outputs": [],
            "stateMutability": "nonpayable",
            "type": "function"
          }
        ],
        "storage": {}
      }
    ],
    "expectedOldRoot": "0x8a4c4fb3292f6c7ee6ffbc921505d9c9490876d3ce1368c085ee9dfac9de86a9",
    "txs": [
      {
        "from": "0x4d5Cf5032B2a844602278b01199ED191A86c93ff",
        "to": "0x1275fbb540c8efc58b812ba83b0d0b8b9917ae98",
        "nonce": "0",
        "value": "0",
        "data": "0x99023de6",
        "gasLimit": 100000,
        "gasPrice": "1000000000",
        "chainId": 1000
      }
    ],
    "expectedNewRoot": "0xb39fd09bc078916f5c0ce8951764b8940fc400e3255ace8cfca94170dc1d8a7b",
    "expectedNewLeafs": {
      "0x617b3a3528F9cDd6630fd3301B9c8911F7Bf063D": {
        "balance": "100000088108000000000",
        "nonce": "0",
        "storage": null,
        "hashBytecode": "0x0000000000000000000000000000000000000000000000000000000000000000",
        "bytecodeLength": 0
      },
      "0x4d5Cf5032B2a844602278b01199ED191A86c93ff": {
        "balance": "199999911892000000000",
        "nonce": "1",
        "storage": null,
        "hashBytecode": "0x0000000000000000000000000000000000000000000000000000000000000000",
        "bytecodeLength": 0
      },
      "0x1275fbb540c8efc58b812ba83b0d0b8b9917ae98": {
        "balance": "0",
        "nonce": "1",
        "storage": {
          "0x0000000000000000000000000000000000000000000000000000000000000001": "0x10bcbc725cbfd35766998bff2c1fa166519ed8f5d7459171bb99bc1ade81554a",
          "0x0000000000000000000000000000000000000000000000000000000000000002": "0x6cc4c5a08d569471c5297cdb455db8a3d3110d5e9199999999999999999999ef",
          "0x0000000000000000000000000000000000000000000000000000000000000003": "0x5700000000000000000000000000000000000000000000000000000000000041"
        },
        "hashBytecode": "0x73fe094ff77d8abf005db6e3abf77b28ca7fd561783c267117f0c15e0053a521",
        "bytecodeLength": 1153
      }
    },
    "timestamp": 1944498031,
    "newLocalExitRoot": "0x0000000000000000000000000000000000000000000000000000000000000000",
    "batchHashData": "0x8ae27809a095220a4630015257850221918a7c655a38fed6c6023c6d4c387794",
    "globalExitRoot": "0x090bcaf734c4f06c93954a827b45a6e8c67b8e0fd1e0a35a1c5982d6961828f9",
    "batchL2Data": "0xea80843b9aca00830186a0941275fbb540c8efc58b812ba83b0d0b8b9917ae98808499023de68203e8808025d0de604f28e941bba50d3b80d6a1591c5a917dae9f7285c2dea6ad342a9f90769440148bc49dfdf897b051998dcca2c9c083a96346b4ab15a83e104e023c6e1cff",
    "chainID": 1000,
    "oldAccInputHash": "0x0000000000000000000000000000000000000000000000000000000000000000",
    "forkID": 5
  },
  {
    "id": 4,
    "description": "precompiled modexp_4",
    "arity": 4,
    "chainIdSequencer": 1001,
    "defaultChainId": 1000,
    "sequencerAddress": "0x617b3a3528F9cDd6630fd3301B9c8911F7Bf063D",
    "sequencerPvtKey": "0x28b2b0318721be8c8339199172cd7cc8f5e273800a35616ec893083a4b32c02e",
    "genesis": [
      {
        "address": "0x617b3a3528F9cDd6630fd3301B9c8911F7Bf063D",
        "nonce": "0",
        "balance": "100000000000000000000",
        "pvtKey": "0x28b2b0318721be8c8339199172cd7cc8f5e273800a35616ec893083a4b32c02e"
      },
      {
        "address": "0x4d5Cf5032B2a844602278b01199ED191A86c93ff",
        "nonce": "0",
        "balance": "200000000000000000000",
        "pvtKey": "0x4d27a600dce8c29b7bd080e29a26972377dbb04d7a27d919adbb602bf13cfd23"
      },
      {
        "address": "0x1275fbb540c8efc58b812ba83b0d0b8b9917ae98",
        "nonce": 1,
        "balance": 0,
        "bytecode": "0x608060405234801561001057600080fd5b50600436106100575760003560e01c80637c5d155c1461005c5780639737c9b71461006657806399023de614610082578063ca8b6b0c1461008c578063f3e5787c14610096575b600080fd5b6100646100a0565b005b610080600480360381019061007b91906103d2565b610155565b005b61008a6101b3565b005b610094610270565b005b61009e61030a565b005b606060405160208152602080820152604080820152620124f86060820152602160808201527f111111111111111111111111111111111111111111111111111111111111111160a08201527f111111111111111111111111111111111111111111111111111111111111111160c082015260408160e083600060055af180600081146101495782519350836001556020830151935083600255604083015193508360035561014f565b60026003555b50505050565b606060405160208152602080820152602060408201528460608201528360808201528260a082015260208160c083600060055af180600081146101a457825193508360015560016003556101aa565b60026003555b50505050505050565b60606040516020815260208082015260416040820152620124f86060820152602160808201527f111111111111111111111111111111111111111111111111111111111111111160a08201527f111111111111111111111111111111111111111111111111111111111111111160c0820152601160e082015360418160e183600060055af180600081146102645782519350836001556020830151935083600255604083015193508360035561026a565b60026003555b50505050565b606060405160208152602080820152602760408201526007606082015260086080820152600060a0820152600060c0820153600060c1820153600060c2820153600060c3820153600060c4820153600060c5820153600960c682015360278160c783600060055af180600081146102fe57825193508360015560208301519350836001556001600355610304565b60026003555b50505050565b6060604051602081526020808201526027604082015260076060820152606e608082015279111111111111111111111111111111111111111111111111111160a0820152601160c0820153601160c1820153601160c2820153601160c3820153601160c4820153601160c5820153601160c682015360278160c783600060055af180600081146103b1578251935083600155602083015193508360025560016003556103b7565b60026003555b50505050565b6000813590506103cc81610434565b92915050565b6000806000606084860312156103eb576103ea61042f565b5b60006103f9868287016103bd565b935050602061040a868287016103bd565b925050604061041b868287016103bd565b9150509250925092565b6000819050919050565b600080fd5b61043d81610425565b811461044857600080fd5b5056fea2646970667358221220f9c21ca9f6a3a2d7ca2ca5e4348bc62d769029af6e924e205992862fc8b95a0364736f6c63430008070033",
        "abi": [
          {
            "inputs": [
              {
                "internalType": "bytes32",
                "name": "base",
                "type": "bytes32"
              },
              {
                "internalType": "bytes32",
                "name": "exponent",
                "type": "bytes32"
              },
              {
                "internalType": "bytes32",
                "name": "modulus",
                "type": "bytes32"
              }
            ],
            "name": "modexp_0",
            "outputs": [],
            "stateMutability": "nonpayable",
            "type": "function"
          },
          {
            "inputs": [],
            "name": "modexp_1",
            "outputs": [],
            "stateMutability": "nonpayable",
            "type": "function"
          },
          {
            "inputs": [],
            "name": "modexp_2",
            "outputs": [],
            "stateMutability": "nonpayable",
            "type": "function"
          },
          {
            "inputs": [],
            "name": "modexp_3",
            "outputs": [],
            "stateMutability": "nonpayable",
            "type": "function"
          },
          {
            "inputs": [],
            "name": "modexp_4",
            "outputs": [],
            "stateMutability": "nonpayable",
            "type": "function"
          }
        ],
        "storage": {}
      }
    ],
    "expectedOldRoot": "0x8a4c4fb3292f6c7ee6ffbc921505d9c9490876d3ce1368c085ee9dfac9de86a9",
    "txs": [
      {
        "from": "0x4d5Cf5032B2a844602278b01199ED191A86c93ff",
        "to": "0x1275fbb540c8efc58b812ba83b0d0b8b9917ae98",
        "nonce": "0",
        "value": "0",
        "data": "0x7c5d155c",
        "gasLimit": 100000,
        "gasPrice": "1000000000",
        "chainId": 1000
      }
    ],
    "expectedNewRoot": "0x768fb3bdd6c4558e7f0385bafd7c8aba892d8d51bc586d6c0663d9b6fcc8f416",
    "expectedNewLeafs": {
      "0x617b3a3528F9cDd6630fd3301B9c8911F7Bf063D": {
        "balance": "100000088046000000000",
        "nonce": "0",
        "storage": null,
        "hashBytecode": "0x0000000000000000000000000000000000000000000000000000000000000000",
        "bytecodeLength": 0
      },
      "0x4d5Cf5032B2a844602278b01199ED191A86c93ff": {
        "balance": "199999911954000000000",
        "nonce": "1",
        "storage": null,
        "hashBytecode": "0x0000000000000000000000000000000000000000000000000000000000000000",
        "bytecodeLength": 0
      },
      "0x1275fbb540c8efc58b812ba83b0d0b8b9917ae98": {
        "balance": "0",
        "nonce": "1",
        "storage": {
          "0x0000000000000000000000000000000000000000000000000000000000000003": "0x40",
          "0x0000000000000000000000000000000000000000000000000000000000000001": "0x0100b6a104179baaddd0437063e5aa95e31d3a1b89d5b5ffde005f22c5998eb1",
          "0x0000000000000000000000000000000000000000000000000000000000000002": "0x0909e4d19ad8b6096dc11f89a1fce8175551a2d5ddddddddddddddddde339b55"
        },
        "hashBytecode": "0x73fe094ff77d8abf005db6e3abf77b28ca7fd561783c267117f0c15e0053a521",
        "bytecodeLength": 1153
      }
    },
    "timestamp": 1944498031,
    "newLocalExitRoot": "0x0000000000000000000000000000000000000000000000000000000000000000",
    "batchHashData": "0xea3708d1c76be449ba6d24d860f7f89b48843cfb827f29720ac7fde6814ef952",
    "globalExitRoot": "0x090bcaf734c4f06c93954a827b45a6e8c67b8e0fd1e0a35a1c5982d6961828f9",
    "batchL2Data": "0xea80843b9aca00830186a0941275fbb540c8efc58b812ba83b0d0b8b9917ae9880847c5d155c8203e88080ee7ceff2dfe565a2960ee4fd565239bb2f947fd59979d7033c4d883894953dcd0ef40efa59b97fae9d77b2146dada5ab784930a467e7f081c060add18b81cf9c1bff",
    "chainID": 1000,
    "oldAccInputHash": "0x0000000000000000000000000000000000000000000000000000000000000000",
    "forkID": 5
  }
]