[
  {
    "id": 0,
    "description": "precompiled modexp_0",
    "arity": 4,
    "chainIdSequencer": 1001,
    "defaultChainId": 1000,
    "sequencerAddress": "0x617b3a3528F9cDd6630fd3301B9c8911F7Bf063D",
    "sequencerPvtKey": "0x28b2b0318721be8c8339199172cd7cc8f5e273800a35616ec893083a4b32c02e",
    "genesis": [
      {
        "address": "0x617b3a3528F9cDd6630fd3301B9c8911F7Bf063D",
        "nonce": "0",
        "balance": "100000000000000000000",
        "pvtKey": "0x28b2b0318721be8c8339199172cd7cc8f5e273800a35616ec893083a4b32c02e"
      },
      {
        "address": "0x4d5Cf5032B2a844602278b01199ED191A86c93ff",
        "nonce": "0",
        "balance": "200000000000000000000",
        "pvtKey": "0x4d27a600dce8c29b7bd080e29a26972377dbb04d7a27d919adbb602bf13cfd23"
      },
      {
        "address": "0x1275fbb540c8efc58b812ba83b0d0b8b9917ae98",
        "nonce": 1,
        "balance": 0,
        "bytecode": "0x608060405234801561001057600080fd5b50600436106100625760003560e01c806311674b84146100675780637c5d155c146100715780639737c9b71461007b57806399023de614610097578063ca8b6b0c146100a1578063f3e5787c146100ab575b600080fd5b61006f6100b5565b005b61007961014c565b005b610095600480360381019061009091906103bb565b610201565b005b61009f610259565b005b6100a96102d2565b005b6100b361032d565b005b606060405160208152602080820152602060408201527fffffffffffffffffffffffffffffffffffffffffffffffffffffffffffffffff60608201527fffffffffffffffffffffffffffffffffffffffffffffffffffffffffffffffff6080820152610ea960a082015260208160c083600060055af18060008114610141578251935083600155610146565b600080fd5b50505050565b606060405160208152602080820152602060408201527fffffffffffffffffffffffffffffffffffffffffffffffffffffffffffffffff60608201527fffffffffffffffffffffffffffffffffffffffffffffffffffffffffffffffff60808201527fffffffffffffffffffffffffffffffffffffffffffffffffffffffffffffffff60a082015260208160c083600060055af180600081146101f65782519350836001556101fb565b600080fd5b50505050565b606060405160208152602080820152602060408201528460608201528360808201528260a082015260208160c083600060055af1806000811461024b578251935083600155610250565b600080fd5b50505050505050565b60606040516020815260208082015260206040820152610ea760608201527fffffffffffffffffffffffffffffffffffffffffffffffffffffffffffffffff608082015261ffff60a082015260208160c083600060055af180600081146102c75782519350836001556102cc565b600080fd5b50505050565b6060604051602081526020808201526020604082015261ffff606082015261ffff6080820152610ea560a082015260208160c083600060055af18060008114610322578251935083600155610327565b600080fd5b50505050565b606060405160208152602080820152602060408201527fffffffffffffffffffffffffffffffffffffffffffffffffffffffffffffffff606082015261ffff6080820152610ea660a082015260208160c083600060055af1806000811461039b5782519350836001556103a0565b600080fd5b50505050565b6000813590506103b58161041d565b92915050565b6000806000606084860312156103d4576103d3610418565b5b60006103e2868287016103a6565b93505060206103f3868287016103a6565b9250506040610404868287016103a6565b9150509250925092565b6000819050919050565b600080fd5b6104268161040e565b811461043157600080fd5b5056fea2646970667358221220433b201aa5d17869bd9723f31a5d0085c5b8e98b5d80848b510909d5d132da6a64736f6c63430008070033",
        "abi": [
          {
            "inputs": [
              {
                "internalType": "bytes32",
                "name": "base",
                "type": "bytes32"
              },
              {
                "internalType": "bytes32",
                "name": "exponent",
                "type": "bytes32"
              },
              {
                "internalType": "bytes32",
                "name": "modulus",
                "type": "bytes32"
              }
            ],
            "name": "modexp_0",
            "outputs": [],
            "stateMutability": "nonpayable",
            "type": "function"
          },
          {
            "inputs": [],
            "name": "modexp_1",
            "outputs": [],
            "stateMutability": "nonpayable",
            "type": "function"
          },
          {
            "inputs": [],
            "name": "modexp_2",
            "outputs": [],
            "stateMutability": "nonpayable",
            "type": "function"
          },
          {
            "inputs": [],
            "name": "modexp_3",
            "outputs": [],
            "stateMutability": "nonpayable",
            "type": "function"
          },
          {
            "inputs": [],
            "name": "modexp_4",
            "outputs": [],
            "stateMutability": "nonpayable",
            "type": "function"
          },
          {
            "inputs": [],
            "name": "modexp_5",
            "outputs": [],
            "stateMutability": "nonpayable",
            "type": "function"
          }
        ],
        "storage": {}
      }
    ],
    "expectedOldRoot": "0x189fd45fe784f8008406783d8a067730ceb547477ee747045a5f6b3c0a1e0cc2",
    "txs": [
      {
        "from": "0x4d5Cf5032B2a844602278b01199ED191A86c93ff",
        "to": "0x1275fbb540c8efc58b812ba83b0d0b8b9917ae98",
        "nonce": "0",
        "value": "0",
        "data": "0x9737c9b7000000000000000000000000000000000000000000000000000000000000000700000000000000000000000000000000000000000000000000000000000000080000000000000000000000000000000000000000000000000000000000000009",
        "gasLimit": 100000,
        "gasPrice": "1000000000",
        "chainId": 1000
      }
    ],
    "expectedNewRoot": "0xe6308e15a7fc2d6c955116ccf01985655498c4d598a8666e9f2d2153ae9de657",
    "expectedNewLeafs": {
      "0x617b3a3528F9cDd6630fd3301B9c8911F7Bf063D": {
        "balance": "100000044851000000000",
        "nonce": "0",
        "storage": null,
        "hashBytecode": "0x0000000000000000000000000000000000000000000000000000000000000000",
        "bytecodeLength": 0
      },
      "0x4d5Cf5032B2a844602278b01199ED191A86c93ff": {
        "balance": "199999955149000000000",
        "nonce": "1",
        "storage": null,
        "hashBytecode": "0x0000000000000000000000000000000000000000000000000000000000000000",
        "bytecodeLength": 0
      },
      "0x1275fbb540c8efc58b812ba83b0d0b8b9917ae98": {
        "balance": "0",
        "nonce": "1",
        "storage": {
          "0x0000000000000000000000000000000000000000000000000000000000000001": "0x04"
        },
        "hashBytecode": "0xf2c21c3833c6d6431216b4de74b4fc21a102f1c6243d6e3e04c5feaca1fa9b3c",
        "bytecodeLength": 1130
      }
    },
    "timestamp": 1944498031,
    "newLocalExitRoot": "0x0000000000000000000000000000000000000000000000000000000000000000",
    "batchHashData": "0x6dc04e27db510fe3c3bd7dc752775da3644f7ad8f74f3a7f7dddc545016ba7f0",
    "globalExitRoot": "0x090bcaf734c4f06c93954a827b45a6e8c67b8e0fd1e0a35a1c5982d6961828f9",
    "batchL2Data": "0xf88b80843b9aca00830186a0941275fbb540c8efc58b812ba83b0d0b8b9917ae9880b8649737c9b70000000000000000000000000000000000000000000000000000000000000007000000000000000000000000000000000000000000000000000000000000000800000000000000000000000000000000000000000000000000000000000000098203e880801fc3d816a32827b499d66f230cdf87879d0a59bf002bc6e4f1fed32118aeca8e20e7f62134cb2d87bc3ce06872c4d7e146359c2f833a328af8823b953c737c7b1c",
    "chainID": 1000,
    "oldAccInputHash": "0x0000000000000000000000000000000000000000000000000000000000000000"
  },
  {
    "id": 1,
    "description": "precompiled modexp_1",
    "arity": 4,
    "chainIdSequencer": 1001,
    "defaultChainId": 1000,
    "sequencerAddress": "0x617b3a3528F9cDd6630fd3301B9c8911F7Bf063D",
    "sequencerPvtKey": "0x28b2b0318721be8c8339199172cd7cc8f5e273800a35616ec893083a4b32c02e",
    "genesis": [
      {
        "address": "0x617b3a3528F9cDd6630fd3301B9c8911F7Bf063D",
        "nonce": "0",
        "balance": "100000000000000000000",
        "pvtKey": "0x28b2b0318721be8c8339199172cd7cc8f5e273800a35616ec893083a4b32c02e"
      },
      {
        "address": "0x4d5Cf5032B2a844602278b01199ED191A86c93ff",
        "nonce": "0",
        "balance": "200000000000000000000",
        "pvtKey": "0x4d27a600dce8c29b7bd080e29a26972377dbb04d7a27d919adbb602bf13cfd23"
      },
      {
        "address": "0x1275fbb540c8efc58b812ba83b0d0b8b9917ae98",
        "nonce": 1,
        "balance": 0,
        "bytecode": "0x608060405234801561001057600080fd5b50600436106100625760003560e01c806311674b84146100675780637c5d155c146100715780639737c9b71461007b57806399023de614610097578063ca8b6b0c146100a1578063f3e5787c146100ab575b600080fd5b61006f6100b5565b005b61007961014c565b005b610095600480360381019061009091906103bb565b610201565b005b61009f610259565b005b6100a96102d2565b005b6100b361032d565b005b606060405160208152602080820152602060408201527fffffffffffffffffffffffffffffffffffffffffffffffffffffffffffffffff60608201527fffffffffffffffffffffffffffffffffffffffffffffffffffffffffffffffff6080820152610ea960a082015260208160c083600060055af18060008114610141578251935083600155610146565b600080fd5b50505050565b606060405160208152602080820152602060408201527fffffffffffffffffffffffffffffffffffffffffffffffffffffffffffffffff60608201527fffffffffffffffffffffffffffffffffffffffffffffffffffffffffffffffff60808201527fffffffffffffffffffffffffffffffffffffffffffffffffffffffffffffffff60a082015260208160c083600060055af180600081146101f65782519350836001556101fb565b600080fd5b50505050565b606060405160208152602080820152602060408201528460608201528360808201528260a082015260208160c083600060055af1806000811461024b578251935083600155610250565b600080fd5b50505050505050565b60606040516020815260208082015260206040820152610ea760608201527fffffffffffffffffffffffffffffffffffffffffffffffffffffffffffffffff608082015261ffff60a082015260208160c083600060055af180600081146102c75782519350836001556102cc565b600080fd5b50505050565b6060604051602081526020808201526020604082015261ffff606082015261ffff6080820152610ea560a082015260208160c083600060055af18060008114610322578251935083600155610327565b600080fd5b50505050565b606060405160208152602080820152602060408201527fffffffffffffffffffffffffffffffffffffffffffffffffffffffffffffffff606082015261ffff6080820152610ea660a082015260208160c083600060055af1806000811461039b5782519350836001556103a0565b600080fd5b50505050565b6000813590506103b58161041d565b92915050565b6000806000606084860312156103d4576103d3610418565b5b60006103e2868287016103a6565b93505060206103f3868287016103a6565b9250506040610404868287016103a6565b9150509250925092565b6000819050919050565b600080fd5b6104268161040e565b811461043157600080fd5b5056fea2646970667358221220433b201aa5d17869bd9723f31a5d0085c5b8e98b5d80848b510909d5d132da6a64736f6c63430008070033",
        "abi": [
          {
            "inputs": [
              {
                "internalType": "bytes32",
                "name": "base",
                "type": "bytes32"
              },
              {
                "internalType": "bytes32",
                "name": "exponent",
                "type": "bytes32"
              },
              {
                "internalType": "bytes32",
                "name": "modulus",
                "type": "bytes32"
              }
            ],
            "name": "modexp_0",
            "outputs": [],
            "stateMutability": "nonpayable",
            "type": "function"
          },
          {
            "inputs": [],
            "name": "modexp_1",
            "outputs": [],
            "stateMutability": "nonpayable",
            "type": "function"
          },
          {
            "inputs": [],
            "name": "modexp_2",
            "outputs": [],
            "stateMutability": "nonpayable",
            "type": "function"
          },
          {
            "inputs": [],
            "name": "modexp_3",
            "outputs": [],
            "stateMutability": "nonpayable",
            "type": "function"
          },
          {
            "inputs": [],
            "name": "modexp_4",
            "outputs": [],
            "stateMutability": "nonpayable",
            "type": "function"
          },
          {
            "inputs": [],
            "name": "modexp_5",
            "outputs": [],
            "stateMutability": "nonpayable",
            "type": "function"
          }
        ],
        "storage": {}
      }
    ],
    "expectedOldRoot": "0x189fd45fe784f8008406783d8a067730ceb547477ee747045a5f6b3c0a1e0cc2",
    "txs": [
      {
        "from": "0x4d5Cf5032B2a844602278b01199ED191A86c93ff",
        "to": "0x1275fbb540c8efc58b812ba83b0d0b8b9917ae98",
        "nonce": "0",
        "value": "0",
        "data": "0xca8b6b0c",
        "gasLimit": 100000,
        "gasPrice": "1000000000",
        "chainId": 1000
      }
    ],
    "expectedNewRoot": "0xb86da11ab9b9df6de3639245a40a02be432ad518533d50bb97d0fbdbc2ee0fad",
    "expectedNewLeafs": {
      "0x617b3a3528F9cDd6630fd3301B9c8911F7Bf063D": {
        "balance": "100000043870000000000",
        "nonce": "0",
        "storage": null,
        "hashBytecode": "0x0000000000000000000000000000000000000000000000000000000000000000",
        "bytecodeLength": 0
      },
      "0x4d5Cf5032B2a844602278b01199ED191A86c93ff": {
        "balance": "199999956130000000000",
        "nonce": "1",
        "storage": null,
        "hashBytecode": "0x0000000000000000000000000000000000000000000000000000000000000000",
        "bytecodeLength": 0
      },
      "0x1275fbb540c8efc58b812ba83b0d0b8b9917ae98": {
        "balance": "0",
        "nonce": "1",
        "storage": {
          "0x0000000000000000000000000000000000000000000000000000000000000001": "0x040f"
        },
        "hashBytecode": "0xf2c21c3833c6d6431216b4de74b4fc21a102f1c6243d6e3e04c5feaca1fa9b3c",
        "bytecodeLength": 1130
      }
    },
    "timestamp": 1944498031,
    "newLocalExitRoot": "0x0000000000000000000000000000000000000000000000000000000000000000",
    "batchHashData": "0xa84bbc8aae5882bc1f1bfe084225399bc51e51a794426f33bea8c7d9c504bde7",
    "globalExitRoot": "0x090bcaf734c4f06c93954a827b45a6e8c67b8e0fd1e0a35a1c5982d6961828f9",
    "batchL2Data": "0xea80843b9aca00830186a0941275fbb540c8efc58b812ba83b0d0b8b9917ae988084ca8b6b0c8203e88080308888d8ff809dcbdcb8293fc134de90bda708cda5914cf5f6d1dd1e0e9cc1ec676676381e1d1c2da479ff505418bda4e74b2162ee818b555b79b1676d0b3d271b",
    "chainID": 1000,
    "oldAccInputHash": "0x0000000000000000000000000000000000000000000000000000000000000000"
  },
  {
    "id": 2,
    "description": "precompiled modexp_2",
    "arity": 4,
    "chainIdSequencer": 1001,
    "defaultChainId": 1000,
    "sequencerAddress": "0x617b3a3528F9cDd6630fd3301B9c8911F7Bf063D",
    "sequencerPvtKey": "0x28b2b0318721be8c8339199172cd7cc8f5e273800a35616ec893083a4b32c02e",
    "genesis": [
      {
        "address": "0x617b3a3528F9cDd6630fd3301B9c8911F7Bf063D",
        "nonce": "0",
        "balance": "100000000000000000000",
        "pvtKey": "0x28b2b0318721be8c8339199172cd7cc8f5e273800a35616ec893083a4b32c02e"
      },
      {
        "address": "0x4d5Cf5032B2a844602278b01199ED191A86c93ff",
        "nonce": "0",
        "balance": "200000000000000000000",
        "pvtKey": "0x4d27a600dce8c29b7bd080e29a26972377dbb04d7a27d919adbb602bf13cfd23"
      },
      {
        "address": "0x1275fbb540c8efc58b812ba83b0d0b8b9917ae98",
        "nonce": 1,
        "balance": 0,
        "bytecode": "0x608060405234801561001057600080fd5b50600436106100625760003560e01c806311674b84146100675780637c5d155c146100715780639737c9b71461007b57806399023de614610097578063ca8b6b0c146100a1578063f3e5787c146100ab575b600080fd5b61006f6100b5565b005b61007961014c565b005b610095600480360381019061009091906103bb565b610201565b005b61009f610259565b005b6100a96102d2565b005b6100b361032d565b005b606060405160208152602080820152602060408201527fffffffffffffffffffffffffffffffffffffffffffffffffffffffffffffffff60608201527fffffffffffffffffffffffffffffffffffffffffffffffffffffffffffffffff6080820152610ea960a082015260208160c083600060055af18060008114610141578251935083600155610146565b600080fd5b50505050565b606060405160208152602080820152602060408201527fffffffffffffffffffffffffffffffffffffffffffffffffffffffffffffffff60608201527fffffffffffffffffffffffffffffffffffffffffffffffffffffffffffffffff60808201527fffffffffffffffffffffffffffffffffffffffffffffffffffffffffffffffff60a082015260208160c083600060055af180600081146101f65782519350836001556101fb565b600080fd5b50505050565b606060405160208152602080820152602060408201528460608201528360808201528260a082015260208160c083600060055af1806000811461024b578251935083600155610250565b600080fd5b50505050505050565b60606040516020815260208082015260206040820152610ea760608201527fffffffffffffffffffffffffffffffffffffffffffffffffffffffffffffffff608082015261ffff60a082015260208160c083600060055af180600081146102c75782519350836001556102cc565b600080fd5b50505050565b6060604051602081526020808201526020604082015261ffff606082015261ffff6080820152610ea560a082015260208160c083600060055af18060008114610322578251935083600155610327565b600080fd5b50505050565b606060405160208152602080820152602060408201527fffffffffffffffffffffffffffffffffffffffffffffffffffffffffffffffff606082015261ffff6080820152610ea660a082015260208160c083600060055af1806000811461039b5782519350836001556103a0565b600080fd5b50505050565b6000813590506103b58161041d565b92915050565b6000806000606084860312156103d4576103d3610418565b5b60006103e2868287016103a6565b93505060206103f3868287016103a6565b9250506040610404868287016103a6565b9150509250925092565b6000819050919050565b600080fd5b6104268161040e565b811461043157600080fd5b5056fea2646970667358221220433b201aa5d17869bd9723f31a5d0085c5b8e98b5d80848b510909d5d132da6a64736f6c63430008070033",
        "abi": [
          {
            "inputs": [
              {
                "internalType": "bytes32",
                "name": "base",
                "type": "bytes32"
              },
              {
                "internalType": "bytes32",
                "name": "exponent",
                "type": "bytes32"
              },
              {
                "internalType": "bytes32",
                "name": "modulus",
                "type": "bytes32"
              }
            ],
            "name": "modexp_0",
            "outputs": [],
            "stateMutability": "nonpayable",
            "type": "function"
          },
          {
            "inputs": [],
            "name": "modexp_1",
            "outputs": [],
            "stateMutability": "nonpayable",
            "type": "function"
          },
          {
            "inputs": [],
            "name": "modexp_2",
            "outputs": [],
            "stateMutability": "nonpayable",
            "type": "function"
          },
          {
            "inputs": [],
            "name": "modexp_3",
            "outputs": [],
            "stateMutability": "nonpayable",
            "type": "function"
          },
          {
            "inputs": [],
            "name": "modexp_4",
            "outputs": [],
            "stateMutability": "nonpayable",
            "type": "function"
          },
          {
            "inputs": [],
            "name": "modexp_5",
            "outputs": [],
            "stateMutability": "nonpayable",
            "type": "function"
          }
        ],
        "storage": {}
      }
    ],
    "expectedOldRoot": "0x189fd45fe784f8008406783d8a067730ceb547477ee747045a5f6b3c0a1e0cc2",
    "txs": [
      {
        "from": "0x4d5Cf5032B2a844602278b01199ED191A86c93ff",
        "to": "0x1275fbb540c8efc58b812ba83b0d0b8b9917ae98",
        "nonce": "0",
        "value": "0",
        "data": "0xf3e5787c",
        "gasLimit": 100000,
        "gasPrice": "1000000000",
        "chainId": 1000
      }
    ],
    "expectedNewRoot": "0x5c14854ee154d59b9b840671322d90822cc0a16b264182168f14cdd1bedbb0b4",
    "expectedNewLeafs": {
      "0x617b3a3528F9cDd6630fd3301B9c8911F7Bf063D": {
        "balance": "100000043892000000000",
        "nonce": "0",
        "storage": null,
        "hashBytecode": "0x0000000000000000000000000000000000000000000000000000000000000000",
        "bytecodeLength": 0
      },
      "0x4d5Cf5032B2a844602278b01199ED191A86c93ff": {
        "balance": "199999956108000000000",
        "nonce": "1",
        "storage": null,
        "hashBytecode": "0x0000000000000000000000000000000000000000000000000000000000000000",
        "bytecodeLength": 0
      },
      "0x1275fbb540c8efc58b812ba83b0d0b8b9917ae98": {
        "balance": "0",
        "nonce": "1",
        "storage": {
          "0x0000000000000000000000000000000000000000000000000000000000000001": "0x0753"
        },
        "hashBytecode": "0xf2c21c3833c6d6431216b4de74b4fc21a102f1c6243d6e3e04c5feaca1fa9b3c",
        "bytecodeLength": 1130
      }
    },
    "timestamp": 1944498031,
    "newLocalExitRoot": "0x0000000000000000000000000000000000000000000000000000000000000000",
    "batchHashData": "0x94f148fa4fd365f99d014ffa009fc86112e05d55407434c494f024f0b48a59e9",
    "globalExitRoot": "0x090bcaf734c4f06c93954a827b45a6e8c67b8e0fd1e0a35a1c5982d6961828f9",
    "batchL2Data": "0xea80843b9aca00830186a0941275fbb540c8efc58b812ba83b0d0b8b9917ae988084f3e5787c8203e880805f7d30f6ab8c26af8abac9e519c52ba4d19de9215eea18d954d945c1ad1d8e5a10c4e2e68e77588ef97e8733a213a85204df7696e962361f809fafc0287889971b",
    "chainID": 1000,
    "oldAccInputHash": "0x0000000000000000000000000000000000000000000000000000000000000000"
  },
  {
    "id": 3,
    "description": "precompiled modexp_3",
    "arity": 4,
    "chainIdSequencer": 1001,
    "defaultChainId": 1000,
    "sequencerAddress": "0x617b3a3528F9cDd6630fd3301B9c8911F7Bf063D",
    "sequencerPvtKey": "0x28b2b0318721be8c8339199172cd7cc8f5e273800a35616ec893083a4b32c02e",
    "genesis": [
      {
        "address": "0x617b3a3528F9cDd6630fd3301B9c8911F7Bf063D",
        "nonce": "0",
        "balance": "100000000000000000000",
        "pvtKey": "0x28b2b0318721be8c8339199172cd7cc8f5e273800a35616ec893083a4b32c02e"
      },
      {
        "address": "0x4d5Cf5032B2a844602278b01199ED191A86c93ff",
        "nonce": "0",
        "balance": "200000000000000000000",
        "pvtKey": "0x4d27a600dce8c29b7bd080e29a26972377dbb04d7a27d919adbb602bf13cfd23"
      },
      {
        "address": "0x1275fbb540c8efc58b812ba83b0d0b8b9917ae98",
        "nonce": 1,
        "balance": 0,
        "bytecode": "0x608060405234801561001057600080fd5b50600436106100625760003560e01c806311674b84146100675780637c5d155c146100715780639737c9b71461007b57806399023de614610097578063ca8b6b0c146100a1578063f3e5787c146100ab575b600080fd5b61006f6100b5565b005b61007961014c565b005b610095600480360381019061009091906103bb565b610201565b005b61009f610259565b005b6100a96102d2565b005b6100b361032d565b005b606060405160208152602080820152602060408201527fffffffffffffffffffffffffffffffffffffffffffffffffffffffffffffffff60608201527fffffffffffffffffffffffffffffffffffffffffffffffffffffffffffffffff6080820152610ea960a082015260208160c083600060055af18060008114610141578251935083600155610146565b600080fd5b50505050565b606060405160208152602080820152602060408201527fffffffffffffffffffffffffffffffffffffffffffffffffffffffffffffffff60608201527fffffffffffffffffffffffffffffffffffffffffffffffffffffffffffffffff60808201527fffffffffffffffffffffffffffffffffffffffffffffffffffffffffffffffff60a082015260208160c083600060055af180600081146101f65782519350836001556101fb565b600080fd5b50505050565b606060405160208152602080820152602060408201528460608201528360808201528260a082015260208160c083600060055af1806000811461024b578251935083600155610250565b600080fd5b50505050505050565b60606040516020815260208082015260206040820152610ea760608201527fffffffffffffffffffffffffffffffffffffffffffffffffffffffffffffffff608082015261ffff60a082015260208160c083600060055af180600081146102c75782519350836001556102cc565b600080fd5b50505050565b6060604051602081526020808201526020604082015261ffff606082015261ffff6080820152610ea560a082015260208160c083600060055af18060008114610322578251935083600155610327565b600080fd5b50505050565b606060405160208152602080820152602060408201527fffffffffffffffffffffffffffffffffffffffffffffffffffffffffffffffff606082015261ffff6080820152610ea660a082015260208160c083600060055af1806000811461039b5782519350836001556103a0565b600080fd5b50505050565b6000813590506103b58161041d565b92915050565b6000806000606084860312156103d4576103d3610418565b5b60006103e2868287016103a6565b93505060206103f3868287016103a6565b9250506040610404868287016103a6565b9150509250925092565b6000819050919050565b600080fd5b6104268161040e565b811461043157600080fd5b5056fea2646970667358221220433b201aa5d17869bd9723f31a5d0085c5b8e98b5d80848b510909d5d132da6a64736f6c63430008070033",
        "abi": [
          {
            "inputs": [
              {
                "internalType": "bytes32",
                "name": "base",
                "type": "bytes32"
              },
              {
                "internalType": "bytes32",
                "name": "exponent",
                "type": "bytes32"
              },
              {
                "internalType": "bytes32",
                "name": "modulus",
                "type": "bytes32"
              }
            ],
            "name": "modexp_0",
            "outputs": [],
            "stateMutability": "nonpayable",
            "type": "function"
          },
          {
            "inputs": [],
            "name": "modexp_1",
            "outputs": [],
            "stateMutability": "nonpayable",
            "type": "function"
          },
          {
            "inputs": [],
            "name": "modexp_2",
            "outputs": [],
            "stateMutability": "nonpayable",
            "type": "function"
          },
          {
            "inputs": [],
            "name": "modexp_3",
            "outputs": [],
            "stateMutability": "nonpayable",
            "type": "function"
          },
          {
            "inputs": [],
            "name": "modexp_4",
            "outputs": [],
            "stateMutability": "nonpayable",
            "type": "function"
          },
          {
            "inputs": [],
            "name": "modexp_5",
            "outputs": [],
            "stateMutability": "nonpayable",
            "type": "function"
          }
        ],
        "storage": {}
      }
    ],
    "expectedOldRoot": "0x189fd45fe784f8008406783d8a067730ceb547477ee747045a5f6b3c0a1e0cc2",
    "txs": [
      {
        "from": "0x4d5Cf5032B2a844602278b01199ED191A86c93ff",
        "to": "0x1275fbb540c8efc58b812ba83b0d0b8b9917ae98",
        "nonce": "0",
        "value": "0",
        "data": "0x99023de6",
        "gasLimit": 100000,
        "gasPrice": "1000000000",
        "chainId": 1000
      }
    ],
    "expectedNewRoot": "0xfc2fd2ed13c85209b43ca2e0a0fd0ec84c90f5d60ea76758a30ff160a3da0725",
    "expectedNewLeafs": {
      "0x617b3a3528F9cDd6630fd3301B9c8911F7Bf063D": {
        "balance": "100000045008000000000",
        "nonce": "0",
        "storage": null,
        "hashBytecode": "0x0000000000000000000000000000000000000000000000000000000000000000",
        "bytecodeLength": 0
      },
      "0x4d5Cf5032B2a844602278b01199ED191A86c93ff": {
        "balance": "199999954992000000000",
        "nonce": "1",
        "storage": null,
        "hashBytecode": "0x0000000000000000000000000000000000000000000000000000000000000000",
        "bytecodeLength": 0
      },
      "0x1275fbb540c8efc58b812ba83b0d0b8b9917ae98": {
        "balance": "0",
        "nonce": "1",
        "storage": {
          "0x0000000000000000000000000000000000000000000000000000000000000001": "0x7aa4"
        },
        "hashBytecode": "0xf2c21c3833c6d6431216b4de74b4fc21a102f1c6243d6e3e04c5feaca1fa9b3c",
        "bytecodeLength": 1130
      }
    },
    "timestamp": 1944498031,
    "newLocalExitRoot": "0x0000000000000000000000000000000000000000000000000000000000000000",
    "batchHashData": "0xed6d031767f1cb04fc6cec4f7a5fb346dae3731a695de968816f21cfa624c0fc",
    "globalExitRoot": "0x090bcaf734c4f06c93954a827b45a6e8c67b8e0fd1e0a35a1c5982d6961828f9",
    "batchL2Data": "0xea80843b9aca00830186a0941275fbb540c8efc58b812ba83b0d0b8b9917ae98808499023de68203e8808025d0de604f28e941bba50d3b80d6a1591c5a917dae9f7285c2dea6ad342a9f90769440148bc49dfdf897b051998dcca2c9c083a96346b4ab15a83e104e023c6e1c",
    "chainID": 1000,
    "oldAccInputHash": "0x0000000000000000000000000000000000000000000000000000000000000000"
  },
  {
    "id": 4,
    "description": "precompiled modexp_4",
    "arity": 4,
    "chainIdSequencer": 1001,
    "defaultChainId": 1000,
    "sequencerAddress": "0x617b3a3528F9cDd6630fd3301B9c8911F7Bf063D",
    "sequencerPvtKey": "0x28b2b0318721be8c8339199172cd7cc8f5e273800a35616ec893083a4b32c02e",
    "genesis": [
      {
        "address": "0x617b3a3528F9cDd6630fd3301B9c8911F7Bf063D",
        "nonce": "0",
        "balance": "100000000000000000000",
        "pvtKey": "0x28b2b0318721be8c8339199172cd7cc8f5e273800a35616ec893083a4b32c02e"
      },
      {
        "address": "0x4d5Cf5032B2a844602278b01199ED191A86c93ff",
        "nonce": "0",
        "balance": "200000000000000000000",
        "pvtKey": "0x4d27a600dce8c29b7bd080e29a26972377dbb04d7a27d919adbb602bf13cfd23"
      },
      {
        "address": "0x1275fbb540c8efc58b812ba83b0d0b8b9917ae98",
        "nonce": 1,
        "balance": 0,
        "bytecode": "0x608060405234801561001057600080fd5b50600436106100625760003560e01c806311674b84146100675780637c5d155c146100715780639737c9b71461007b57806399023de614610097578063ca8b6b0c146100a1578063f3e5787c146100ab575b600080fd5b61006f6100b5565b005b61007961014c565b005b610095600480360381019061009091906103bb565b610201565b005b61009f610259565b005b6100a96102d2565b005b6100b361032d565b005b606060405160208152602080820152602060408201527fffffffffffffffffffffffffffffffffffffffffffffffffffffffffffffffff60608201527fffffffffffffffffffffffffffffffffffffffffffffffffffffffffffffffff6080820152610ea960a082015260208160c083600060055af18060008114610141578251935083600155610146565b600080fd5b50505050565b606060405160208152602080820152602060408201527fffffffffffffffffffffffffffffffffffffffffffffffffffffffffffffffff60608201527fffffffffffffffffffffffffffffffffffffffffffffffffffffffffffffffff60808201527fffffffffffffffffffffffffffffffffffffffffffffffffffffffffffffffff60a082015260208160c083600060055af180600081146101f65782519350836001556101fb565b600080fd5b50505050565b606060405160208152602080820152602060408201528460608201528360808201528260a082015260208160c083600060055af1806000811461024b578251935083600155610250565b600080fd5b50505050505050565b60606040516020815260208082015260206040820152610ea760608201527fffffffffffffffffffffffffffffffffffffffffffffffffffffffffffffffff608082015261ffff60a082015260208160c083600060055af180600081146102c75782519350836001556102cc565b600080fd5b50505050565b6060604051602081526020808201526020604082015261ffff606082015261ffff6080820152610ea560a082015260208160c083600060055af18060008114610322578251935083600155610327565b600080fd5b50505050565b606060405160208152602080820152602060408201527fffffffffffffffffffffffffffffffffffffffffffffffffffffffffffffffff606082015261ffff6080820152610ea660a082015260208160c083600060055af1806000811461039b5782519350836001556103a0565b600080fd5b50505050565b6000813590506103b58161041d565b92915050565b6000806000606084860312156103d4576103d3610418565b5b60006103e2868287016103a6565b93505060206103f3868287016103a6565b9250506040610404868287016103a6565b9150509250925092565b6000819050919050565b600080fd5b6104268161040e565b811461043157600080fd5b5056fea2646970667358221220433b201aa5d17869bd9723f31a5d0085c5b8e98b5d80848b510909d5d132da6a64736f6c63430008070033",
        "abi": [
          {
            "inputs": [
              {
                "internalType": "bytes32",
                "name": "base",
                "type": "bytes32"
              },
              {
                "internalType": "bytes32",
                "name": "exponent",
                "type": "bytes32"
              },
              {
                "internalType": "bytes32",
                "name": "modulus",
                "type": "bytes32"
              }
            ],
            "name": "modexp_0",
            "outputs": [],
            "stateMutability": "nonpayable",
            "type": "function"
          },
          {
            "inputs": [],
            "name": "modexp_1",
            "outputs": [],
            "stateMutability": "nonpayable",
            "type": "function"
          },
          {
            "inputs": [],
            "name": "modexp_2",
            "outputs": [],
            "stateMutability": "nonpayable",
            "type": "function"
          },
          {
            "inputs": [],
            "name": "modexp_3",
            "outputs": [],
            "stateMutability": "nonpayable",
            "type": "function"
          },
          {
            "inputs": [],
            "name": "modexp_4",
            "outputs": [],
            "stateMutability": "nonpayable",
            "type": "function"
          },
          {
            "inputs": [],
            "name": "modexp_5",
            "outputs": [],
            "stateMutability": "nonpayable",
            "type": "function"
          }
        ],
        "storage": {}
      }
    ],
    "expectedOldRoot": "0x189fd45fe784f8008406783d8a067730ceb547477ee747045a5f6b3c0a1e0cc2",
    "txs": [
      {
        "from": "0x4d5Cf5032B2a844602278b01199ED191A86c93ff",
        "to": "0x1275fbb540c8efc58b812ba83b0d0b8b9917ae98",
        "nonce": "0",
        "value": "0",
        "data": "0x7c5d155c",
        "gasLimit": 100000,
        "gasPrice": "1000000000",
        "chainId": 1000
      }
    ],
    "expectedNewRoot": "0xa507166c32a5443c4e320a1b5fc755c7cc5e896a81ee84ac4ac18242ffb9ee33",
    "expectedNewLeafs": {
      "0x617b3a3528F9cDd6630fd3301B9c8911F7Bf063D": {
        "balance": "100000025064000000000",
        "nonce": "0",
        "storage": null,
        "hashBytecode": "0x0000000000000000000000000000000000000000000000000000000000000000",
        "bytecodeLength": 0
      },
      "0x4d5Cf5032B2a844602278b01199ED191A86c93ff": {
        "balance": "199999974936000000000",
        "nonce": "1",
        "storage": null,
        "hashBytecode": "0x0000000000000000000000000000000000000000000000000000000000000000",
        "bytecodeLength": 0
      },
      "0x1275fbb540c8efc58b812ba83b0d0b8b9917ae98": {
        "balance": "0",
        "nonce": "1",
        "storage": {},
        "hashBytecode": "0xf2c21c3833c6d6431216b4de74b4fc21a102f1c6243d6e3e04c5feaca1fa9b3c",
        "bytecodeLength": 1130
      }
    },
    "timestamp": 1944498031,
    "newLocalExitRoot": "0x0000000000000000000000000000000000000000000000000000000000000000",
    "batchHashData": "0x07ae35d69d8c8f724dfcce558f57ffe1a7e0caf2124f0931585a80ca6584da5a",
    "globalExitRoot": "0x090bcaf734c4f06c93954a827b45a6e8c67b8e0fd1e0a35a1c5982d6961828f9",
    "batchL2Data": "0xea80843b9aca00830186a0941275fbb540c8efc58b812ba83b0d0b8b9917ae9880847c5d155c8203e88080ee7ceff2dfe565a2960ee4fd565239bb2f947fd59979d7033c4d883894953dcd0ef40efa59b97fae9d77b2146dada5ab784930a467e7f081c060add18b81cf9c1b",
    "chainID": 1000,
    "oldAccInputHash": "0x0000000000000000000000000000000000000000000000000000000000000000"
  },
  {
    "id": 5,
    "description": "precompiled modexp_5",
    "arity": 4,
    "chainIdSequencer": 1001,
    "defaultChainId": 1000,
    "sequencerAddress": "0x617b3a3528F9cDd6630fd3301B9c8911F7Bf063D",
    "sequencerPvtKey": "0x28b2b0318721be8c8339199172cd7cc8f5e273800a35616ec893083a4b32c02e",
    "genesis": [
      {
        "address": "0x617b3a3528F9cDd6630fd3301B9c8911F7Bf063D",
        "nonce": "0",
        "balance": "100000000000000000000",
        "pvtKey": "0x28b2b0318721be8c8339199172cd7cc8f5e273800a35616ec893083a4b32c02e"
      },
      {
        "address": "0x4d5Cf5032B2a844602278b01199ED191A86c93ff",
        "nonce": "0",
        "balance": "200000000000000000000",
        "pvtKey": "0x4d27a600dce8c29b7bd080e29a26972377dbb04d7a27d919adbb602bf13cfd23"
      },
      {
        "address": "0x1275fbb540c8efc58b812ba83b0d0b8b9917ae98",
        "nonce": 1,
        "balance": 0,
        "bytecode": "0x608060405234801561001057600080fd5b50600436106100625760003560e01c806311674b84146100675780637c5d155c146100715780639737c9b71461007b57806399023de614610097578063ca8b6b0c146100a1578063f3e5787c146100ab575b600080fd5b61006f6100b5565b005b61007961014c565b005b610095600480360381019061009091906103bb565b610201565b005b61009f610259565b005b6100a96102d2565b005b6100b361032d565b005b606060405160208152602080820152602060408201527fffffffffffffffffffffffffffffffffffffffffffffffffffffffffffffffff60608201527fffffffffffffffffffffffffffffffffffffffffffffffffffffffffffffffff6080820152610ea960a082015260208160c083600060055af18060008114610141578251935083600155610146565b600080fd5b50505050565b606060405160208152602080820152602060408201527fffffffffffffffffffffffffffffffffffffffffffffffffffffffffffffffff60608201527fffffffffffffffffffffffffffffffffffffffffffffffffffffffffffffffff60808201527fffffffffffffffffffffffffffffffffffffffffffffffffffffffffffffffff60a082015260208160c083600060055af180600081146101f65782519350836001556101fb565b600080fd5b50505050565b606060405160208152602080820152602060408201528460608201528360808201528260a082015260208160c083600060055af1806000811461024b578251935083600155610250565b600080fd5b50505050505050565b60606040516020815260208082015260206040820152610ea760608201527fffffffffffffffffffffffffffffffffffffffffffffffffffffffffffffffff608082015261ffff60a082015260208160c083600060055af180600081146102c75782519350836001556102cc565b600080fd5b50505050565b6060604051602081526020808201526020604082015261ffff606082015261ffff6080820152610ea560a082015260208160c083600060055af18060008114610322578251935083600155610327565b600080fd5b50505050565b606060405160208152602080820152602060408201527fffffffffffffffffffffffffffffffffffffffffffffffffffffffffffffffff606082015261ffff6080820152610ea660a082015260208160c083600060055af1806000811461039b5782519350836001556103a0565b600080fd5b50505050565b6000813590506103b58161041d565b92915050565b6000806000606084860312156103d4576103d3610418565b5b60006103e2868287016103a6565b93505060206103f3868287016103a6565b9250506040610404868287016103a6565b9150509250925092565b6000819050919050565b600080fd5b6104268161040e565b811461043157600080fd5b5056fea2646970667358221220433b201aa5d17869bd9723f31a5d0085c5b8e98b5d80848b510909d5d132da6a64736f6c63430008070033",
        "abi": [
          {
            "inputs": [
              {
                "internalType": "bytes32",
                "name": "base",
                "type": "bytes32"
              },
              {
                "internalType": "bytes32",
                "name": "exponent",
                "type": "bytes32"
              },
              {
                "internalType": "bytes32",
                "name": "modulus",
                "type": "bytes32"
              }
            ],
            "name": "modexp_0",
            "outputs": [],
            "stateMutability": "nonpayable",
            "type": "function"
          },
          {
            "inputs": [],
            "name": "modexp_1",
            "outputs": [],
            "stateMutability": "nonpayable",
            "type": "function"
          },
          {
            "inputs": [],
            "name": "modexp_2",
            "outputs": [],
            "stateMutability": "nonpayable",
            "type": "function"
          },
          {
            "inputs": [],
            "name": "modexp_3",
            "outputs": [],
            "stateMutability": "nonpayable",
            "type": "function"
          },
          {
            "inputs": [],
            "name": "modexp_4",
            "outputs": [],
            "stateMutability": "nonpayable",
            "type": "function"
          },
          {
            "inputs": [],
            "name": "modexp_5",
            "outputs": [],
            "stateMutability": "nonpayable",
            "type": "function"
          }
        ],
        "storage": {}
      }
    ],
    "expectedOldRoot": "0x189fd45fe784f8008406783d8a067730ceb547477ee747045a5f6b3c0a1e0cc2",
    "txs": [
      {
        "from": "0x4d5Cf5032B2a844602278b01199ED191A86c93ff",
        "to": "0x1275fbb540c8efc58b812ba83b0d0b8b9917ae98",
        "nonce": "0",
        "value": "0",
        "data": "0x11674b84",
        "gasLimit": 100000,
        "gasPrice": "1000000000",
        "chainId": 1000
      }
    ],
    "expectedNewRoot": "0x2aa972c1495fa6a7f2987a7039a7d950e3156daa3ac46e29e0f66ff4bdacf20c",
    "expectedNewLeafs": {
      "0x617b3a3528F9cDd6630fd3301B9c8911F7Bf063D": {
        "balance": "100000044942000000000",
        "nonce": "0",
        "storage": null,
        "hashBytecode": "0x0000000000000000000000000000000000000000000000000000000000000000",
        "bytecodeLength": 0
      },
      "0x4d5Cf5032B2a844602278b01199ED191A86c93ff": {
        "balance": "199999955058000000000",
        "nonce": "1",
        "storage": null,
        "hashBytecode": "0x0000000000000000000000000000000000000000000000000000000000000000",
        "bytecodeLength": 0
      },
      "0x1275fbb540c8efc58b812ba83b0d0b8b9917ae98": {
        "balance": "0",
        "nonce": "1",
        "storage": {
          "0x0000000000000000000000000000000000000000000000000000000000000001": "0x09ea"
        },
        "hashBytecode": "0xf2c21c3833c6d6431216b4de74b4fc21a102f1c6243d6e3e04c5feaca1fa9b3c",
        "bytecodeLength": 1130
      }
    },
    "timestamp": 1944498031,
    "newLocalExitRoot": "0x0000000000000000000000000000000000000000000000000000000000000000",
    "batchHashData": "0x8bc8eca52972ff6ae2c0c2c762c8ea4e3ce24c69cde56a3fbae418ff27084264",
    "globalExitRoot": "0x090bcaf734c4f06c93954a827b45a6e8c67b8e0fd1e0a35a1c5982d6961828f9",
    "batchL2Data": "0xea80843b9aca00830186a0941275fbb540c8efc58b812ba83b0d0b8b9917ae98808411674b848203e8808024ae046c488027c748e497fca890339a91041b5584f85bc3060ddfe028161e9306d18384d77f49238f5cd7ed90c3194b4683f8e2598ef79361aa43c143ab7ee71c",
    "chainID": 1000,
    "oldAccInputHash": "0x0000000000000000000000000000000000000000000000000000000000000000"
  }
]