[
  {
    "id": 0,
    "description": "precompiled modexp_0",
    "arity": 4,
    "chainIdSequencer": 1001,
    "defaultChainId": 1000,
    "sequencerAddress": "0x617b3a3528F9cDd6630fd3301B9c8911F7Bf063D",
    "sequencerPvtKey": "0x28b2b0318721be8c8339199172cd7cc8f5e273800a35616ec893083a4b32c02e",
    "genesis": [
      {
        "address": "0x617b3a3528F9cDd6630fd3301B9c8911F7Bf063D",
        "nonce": "0",
        "balance": "100000000000000000000",
        "pvtKey": "0x28b2b0318721be8c8339199172cd7cc8f5e273800a35616ec893083a4b32c02e"
      },
      {
        "address": "0x4d5Cf5032B2a844602278b01199ED191A86c93ff",
        "nonce": "0",
        "balance": "200000000000000000000",
        "pvtKey": "0x4d27a600dce8c29b7bd080e29a26972377dbb04d7a27d919adbb602bf13cfd23"
      },
      {
        "address": "0x1275fbb540c8efc58b812ba83b0d0b8b9917ae98",
        "nonce": 1,
        "balance": 0,
        "bytecode": "0x608060405234801561001057600080fd5b50600436106100365760003560e01c80639737c9b71461003b578063ca8b6b0c14610057575b600080fd5b61005560048036038101906100509190610147565b610061565b005b61005f6100b9565b005b606060405160208152602080820152602060408201528460608201528360808201528260a082015260208160c083600060055af180600081146100ab5782519350836001556100b0565b600080fd5b50505050505050565b606060405160208152602080820152602060408201527fffffffffffffffffffffffffffffffffffffffffffffffffffffffffffffffff6060820152610ea06080820152610ea060a082015260208160c083600060055af1806000811461012757825193508360015561012c565b600080fd5b50505050565b600081359050610141816101a9565b92915050565b6000806000606084860312156101605761015f6101a4565b5b600061016e86828701610132565b935050602061017f86828701610132565b925050604061019086828701610132565b9150509250925092565b6000819050919050565b600080fd5b6101b28161019a565b81146101bd57600080fd5b5056fea264697066735822122078531caa3e34d057610c591021be1b953d47a47ca846929d4b4d1ce36aca20cf64736f6c63430008070033",
        "abi": [
          {
            "inputs": [
              {
                "internalType": "bytes32",
                "name": "base",
                "type": "bytes32"
              },
              {
                "internalType": "bytes32",
                "name": "exponent",
                "type": "bytes32"
              },
              {
                "internalType": "bytes32",
                "name": "modulus",
                "type": "bytes32"
              }
            ],
            "name": "modexp_0",
            "outputs": [],
            "stateMutability": "nonpayable",
            "type": "function"
          },
          {
            "inputs": [],
            "name": "modexp_1",
            "outputs": [],
            "stateMutability": "nonpayable",
            "type": "function"
          }
        ],
        "storage": {}
      }
    ],
    "expectedOldRoot": "0x1729810d38c7b068fb046768e5b948f933cbb7b1dfd56ffa6c1c27cb2c4d3ca0",
    "txs": [
      {
        "from": "0x4d5Cf5032B2a844602278b01199ED191A86c93ff",
        "to": "0x1275fbb540c8efc58b812ba83b0d0b8b9917ae98",
        "nonce": "0",
        "value": "0",
        "data": "0x9737c9b7000000000000000000000000000000000000000000000000000000000000000700000000000000000000000000000000000000000000000000000000000000080000000000000000000000000000000000000000000000000000000000000009",
        "gasLimit": 100000,
        "gasPrice": "1000000000",
        "chainId": 1000
      }
    ],
    "expectedNewRoot": "0x9d2ecd143f07b9cbfbc99a6d9dfdb100b681744d8c5e2476297eeac514a15d2e",
    "expectedNewLeafs": {
      "0x617b3a3528F9cDd6630fd3301B9c8911F7Bf063D": {
        "balance": "100000044807000000000",
        "nonce": "0",
        "storage": null,
        "hashBytecode": "0x0000000000000000000000000000000000000000000000000000000000000000",
        "bytecodeLength": 0
      },
      "0x4d5Cf5032B2a844602278b01199ED191A86c93ff": {
        "balance": "199999955193000000000",
        "nonce": "1",
        "storage": null,
        "hashBytecode": "0x0000000000000000000000000000000000000000000000000000000000000000",
        "bytecodeLength": 0
      },
      "0x1275fbb540c8efc58b812ba83b0d0b8b9917ae98": {
        "balance": "0",
        "nonce": "1",
        "storage": {
          "0x0000000000000000000000000000000000000000000000000000000000000001": "0x04"
        },
        "hashBytecode": "0x43f2569c38d91960cc032f1f122fdcb4c799fd79e4856fba500aed0b62aedb0a",
        "bytecodeLength": 502
      }
    },
    "timestamp": 1944498031,
    "newLocalExitRoot": "0x0000000000000000000000000000000000000000000000000000000000000000",
    "batchHashData": "0x6dc04e27db510fe3c3bd7dc752775da3644f7ad8f74f3a7f7dddc545016ba7f0",
    "globalExitRoot": "0x090bcaf734c4f06c93954a827b45a6e8c67b8e0fd1e0a35a1c5982d6961828f9",
    "batchL2Data": "0xf88b80843b9aca00830186a0941275fbb540c8efc58b812ba83b0d0b8b9917ae9880b8649737c9b70000000000000000000000000000000000000000000000000000000000000007000000000000000000000000000000000000000000000000000000000000000800000000000000000000000000000000000000000000000000000000000000098203e880801fc3d816a32827b499d66f230cdf87879d0a59bf002bc6e4f1fed32118aeca8e20e7f62134cb2d87bc3ce06872c4d7e146359c2f833a328af8823b953c737c7b1c",
    "chainID": 1000,
    "oldAccInputHash": "0x0000000000000000000000000000000000000000000000000000000000000000"
  }
]