[
  {
    "id": 0,
    "description": "precompiled IDENTITY_0",
    "arity": 4,
    "chainIdSequencer": 1001,
    "defaultChainId": 1000,
    "sequencerAddress": "0x617b3a3528F9cDd6630fd3301B9c8911F7Bf063D",
    "sequencerPvtKey": "0x28b2b0318721be8c8339199172cd7cc8f5e273800a35616ec893083a4b32c02e",
    "genesis": [
      {
        "address": "0x617b3a3528F9cDd6630fd3301B9c8911F7Bf063D",
        "nonce": "0",
        "balance": "100000000000000000000",
        "pvtKey": "0x28b2b0318721be8c8339199172cd7cc8f5e273800a35616ec893083a4b32c02e"
      },
      {
        "address": "0x4d5Cf5032B2a844602278b01199ED191A86c93ff",
        "nonce": "0",
        "balance": "200000000000000000000",
        "pvtKey": "0x4d27a600dce8c29b7bd080e29a26972377dbb04d7a27d919adbb602bf13cfd23"
      },
      {
        "address": "0x1275fbb540c8efc58b812ba83b0d0b8b9917ae98",
        "nonce": 1,
        "balance": 0,
        "bytecode": "0x608060405234801561001057600080fd5b50600436106100365760003560e01c8063324b63851461003b5780634dc8cac914610057575b600080fd5b61005560048036038101906100509190610291565b610073565b005b610071600480360381019061006c9190610291565b6100f9565b005b6000815167ffffffffffffffff8111156100905761008f6103d1565b5b6040519080825280601f01601f1916602001820160405280156100c25781602001600182028036833780820191505090505b509050815180602083018260208601600060045af16100dd57fe5b5080600290805190602001906100f492919061017e565b505050565b6000815167ffffffffffffffff811115610116576101156103d1565b5b6040519080825280601f01601f1916602001820160405280156101485781602001600182028036833780820191505090505b509050815180602083018260208601600060045af1806005555050806002908051906020019061017992919061017e565b505050565b82805461018a9061033f565b90600052602060002090601f0160209004810192826101ac57600085556101f3565b82601f106101c557805160ff19168380011785556101f3565b828001600101855582156101f3579182015b828111156101f25782518255916020019190600101906101d7565b5b5090506102009190610204565b5090565b5b8082111561021d576000816000905550600101610205565b5090565b600061023461022f846102ff565b6102da565b9050828152602081018484840111156102505761024f610405565b5b61025b848285610330565b509392505050565b600082601f83011261027857610277610400565b5b8135610288848260208601610221565b91505092915050565b6000602082840312156102a7576102a661040f565b5b600082013567ffffffffffffffff8111156102c5576102c461040a565b5b6102d184828501610263565b91505092915050565b60006102e46102f5565b90506102f08282610371565b919050565b6000604051905090565b600067ffffffffffffffff82111561031a576103196103d1565b5b61032382610414565b9050602081019050919050565b82818337600083830152505050565b6000600282049050600182168061035757607f821691505b6020821081141561036b5761036a6103a2565b5b50919050565b61037a82610414565b810181811067ffffffffffffffff82111715610399576103986103d1565b5b80604052505050565b7f4e487b7100000000000000000000000000000000000000000000000000000000600052602260045260246000fd5b7f4e487b7100000000000000000000000000000000000000000000000000000000600052604160045260246000fd5b600080fd5b600080fd5b600080fd5b600080fd5b6000601f19601f830116905091905056fea264697066735822122080fd96c13b90019bc5c7e42828f564cbcc49491655e8f3c3bf93b7c65cf433e764736f6c63430008070033",
        "abi": [
          {
            "inputs": [
              {
                "internalType": "bytes",
                "name": "data",
                "type": "bytes"
              }
            ],
            "name": "identity_0",
            "outputs": [],
            "stateMutability": "nonpayable",
            "type": "function"
          },
          {
            "inputs": [
              {
                "internalType": "bytes",
                "name": "data",
                "type": "bytes"
              }
            ],
            "name": "identity_1",
            "outputs": [],
            "stateMutability": "nonpayable",
            "type": "function"
          }
        ],
        "storage": {}
      }
    ],
    "expectedOldRoot": "0x15c54bb3bea5b401668174dcdff2ad897337ceef012989df498ca57902c6e502",
    "txs": [
      {
        "from": "0x4d5Cf5032B2a844602278b01199ED191A86c93ff",
        "to": "0x1275fbb540c8efc58b812ba83b0d0b8b9917ae98",
        "nonce": "0",
        "value": "0",
        "data": "0x324b63850000000000000000000000000000000000000000000000000000000000000020000000000000000000000000000000000000000000000000000000000000002312345678901234567890123456789012345678901234567890123456789012345678900000000000000000000000000000000000000000000000000000000000",
        "gasLimit": 100000,
        "gasPrice": "1000000000",
        "chainId": 1000
      }
    ],
    "expectedNewRoot": "0xe7f7e66808ad0077dc470e3ad2fa9272b015f12335470212d14251b09b4795f1",
    "expectedNewLeafs": {
      "0x617b3a3528F9cDd6630fd3301B9c8911F7Bf063D": {
        "balance": "100000090209000000000",
        "nonce": "0",
        "storage": null,
        "hashBytecode": "0x0000000000000000000000000000000000000000000000000000000000000000",
        "bytecodeLength": 0
      },
      "0x4d5Cf5032B2a844602278b01199ED191A86c93ff": {
        "balance": "199999909791000000000",
        "nonce": "1",
        "storage": null,
        "hashBytecode": "0x0000000000000000000000000000000000000000000000000000000000000000",
        "bytecodeLength": 0
      },
      "0x1275fbb540c8efc58b812ba83b0d0b8b9917ae98": {
        "balance": "0",
        "nonce": "1",
        "storage": {
          "0x0000000000000000000000000000000000000000000000000000000000000002": "0x47",
          "0x405787fa12a823e0f2b7631cc41b3ba8828b3321ca811111fa75cd3aa3bb5ace": "0x1234567890123456789012345678901234567890123456789012345678901234",
          "0x405787fa12a823e0f2b7631cc41b3ba8828b3321ca811111fa75cd3aa3bb5acf": "0x5678900000000000000000000000000000000000000000000000000000000000"
        },
        "hashBytecode": "0xceb9c8ef13e085c557303c1dffb823a36b9e8d018ee6be8815e1bce5694fd5d6",
        "bytecodeLength": 1115
      }
    },
    "timestamp": 1944498031,
    "newLocalExitRoot": "0x0000000000000000000000000000000000000000000000000000000000000000",
    "batchHashData": "0xc0e9d28b18b7690027d4a5c0b78794688f9da62d2781383694920320449f1da8",
    "globalExitRoot": "0x090bcaf734c4f06c93954a827b45a6e8c67b8e0fd1e0a35a1c5982d6961828f9",
    "batchL2Data": "0xf8ab80843b9aca00830186a0941275fbb540c8efc58b812ba83b0d0b8b9917ae9880b884324b638500000000000000000000000000000000000000000000000000000000000000200000000000000000000000000000000000000000000000000000000000000023123456789012345678901234567890123456789012345678901234567890123456789000000000000000000000000000000000000000000000000000000000008203e880801778b2ddf921c588503ec0f21aefabf4e3fa2ebad45bcbb24e6fd83046c43280694b142377b2f5886701c7b06df64989b62862edc42c617e53b6231a34e84d171c",
    "chainID": 1000,
    "oldAccInputHash": "0x0000000000000000000000000000000000000000000000000000000000000000",
    "forkID": 1
  },
  {
    "id": 1,
    "description": "precompiled IDENTITY_1",
    "arity": 4,
    "chainIdSequencer": 1001,
    "defaultChainId": 1000,
    "sequencerAddress": "0x617b3a3528F9cDd6630fd3301B9c8911F7Bf063D",
    "sequencerPvtKey": "0x28b2b0318721be8c8339199172cd7cc8f5e273800a35616ec893083a4b32c02e",
    "genesis": [
      {
        "address": "0x617b3a3528F9cDd6630fd3301B9c8911F7Bf063D",
        "nonce": "0",
        "balance": "100000000000000000000",
        "pvtKey": "0x28b2b0318721be8c8339199172cd7cc8f5e273800a35616ec893083a4b32c02e"
      },
      {
        "address": "0x4d5Cf5032B2a844602278b01199ED191A86c93ff",
        "nonce": "0",
        "balance": "200000000000000000000",
        "pvtKey": "0x4d27a600dce8c29b7bd080e29a26972377dbb04d7a27d919adbb602bf13cfd23"
      },
      {
        "address": "0x1275fbb540c8efc58b812ba83b0d0b8b9917ae98",
        "nonce": 1,
        "balance": 0,
        "bytecode": "0x608060405234801561001057600080fd5b50600436106100365760003560e01c8063324b63851461003b5780634dc8cac914610057575b600080fd5b61005560048036038101906100509190610291565b610073565b005b610071600480360381019061006c9190610291565b6100f9565b005b6000815167ffffffffffffffff8111156100905761008f6103d1565b5b6040519080825280601f01601f1916602001820160405280156100c25781602001600182028036833780820191505090505b509050815180602083018260208601600060045af16100dd57fe5b5080600290805190602001906100f492919061017e565b505050565b6000815167ffffffffffffffff811115610116576101156103d1565b5b6040519080825280601f01601f1916602001820160405280156101485781602001600182028036833780820191505090505b509050815180602083018260208601600060045af1806005555050806002908051906020019061017992919061017e565b505050565b82805461018a9061033f565b90600052602060002090601f0160209004810192826101ac57600085556101f3565b82601f106101c557805160ff19168380011785556101f3565b828001600101855582156101f3579182015b828111156101f25782518255916020019190600101906101d7565b5b5090506102009190610204565b5090565b5b8082111561021d576000816000905550600101610205565b5090565b600061023461022f846102ff565b6102da565b9050828152602081018484840111156102505761024f610405565b5b61025b848285610330565b509392505050565b600082601f83011261027857610277610400565b5b8135610288848260208601610221565b91505092915050565b6000602082840312156102a7576102a661040f565b5b600082013567ffffffffffffffff8111156102c5576102c461040a565b5b6102d184828501610263565b91505092915050565b60006102e46102f5565b90506102f08282610371565b919050565b6000604051905090565b600067ffffffffffffffff82111561031a576103196103d1565b5b61032382610414565b9050602081019050919050565b82818337600083830152505050565b6000600282049050600182168061035757607f821691505b6020821081141561036b5761036a6103a2565b5b50919050565b61037a82610414565b810181811067ffffffffffffffff82111715610399576103986103d1565b5b80604052505050565b7f4e487b7100000000000000000000000000000000000000000000000000000000600052602260045260246000fd5b7f4e487b7100000000000000000000000000000000000000000000000000000000600052604160045260246000fd5b600080fd5b600080fd5b600080fd5b600080fd5b6000601f19601f830116905091905056fea264697066735822122080fd96c13b90019bc5c7e42828f564cbcc49491655e8f3c3bf93b7c65cf433e764736f6c63430008070033",
        "abi": [
          {
            "inputs": [
              {
                "internalType": "bytes",
                "name": "data",
                "type": "bytes"
              }
            ],
            "name": "identity_0",
            "outputs": [],
            "stateMutability": "nonpayable",
            "type": "function"
          },
          {
            "inputs": [
              {
                "internalType": "bytes",
                "name": "data",
                "type": "bytes"
              }
            ],
            "name": "identity_1",
            "outputs": [],
            "stateMutability": "nonpayable",
            "type": "function"
          }
        ],
        "storage": {}
      }
    ],
    "expectedOldRoot": "0x15c54bb3bea5b401668174dcdff2ad897337ceef012989df498ca57902c6e502",
    "txs": [
      {
        "from": "0x4d5Cf5032B2a844602278b01199ED191A86c93ff",
        "to": "0x1275fbb540c8efc58b812ba83b0d0b8b9917ae98",
        "nonce": "0",
        "value": "0",
        "data": "0x4dc8cac90000000000000000000000000000000000000000000000000000000000000020000000000000000000000000000000000000000000000000000000000000002312345678901234567890123456789012345678901234567890123456789012345678900000000000000000000000000000000000000000000000000000000000",
        "gasLimit": 100000,
        "gasPrice": "1000000000",
        "chainId": 1000
      }
    ],
    "expectedNewRoot": "0xa7930a4487bdd23c3ac99539925569a1546cfa662a044e50410b25d98b9658c5",
    "expectedNewLeafs": {
      "0x617b3a3528F9cDd6630fd3301B9c8911F7Bf063D": {
        "balance": "100000100000000000000",
        "nonce": "0",
        "storage": null,
        "hashBytecode": "0x0000000000000000000000000000000000000000000000000000000000000000",
        "bytecodeLength": 0
      },
      "0x4d5Cf5032B2a844602278b01199ED191A86c93ff": {
        "balance": "199999900000000000000",
        "nonce": "1",
        "storage": null,
        "hashBytecode": "0x0000000000000000000000000000000000000000000000000000000000000000",
        "bytecodeLength": 0
      },
      "0x1275fbb540c8efc58b812ba83b0d0b8b9917ae98": {
        "balance": "0",
        "nonce": "1",
        "storage": {},
        "hashBytecode": "0xceb9c8ef13e085c557303c1dffb823a36b9e8d018ee6be8815e1bce5694fd5d6",
        "bytecodeLength": 1115
      }
    },
    "timestamp": 1944498031,
    "newLocalExitRoot": "0x0000000000000000000000000000000000000000000000000000000000000000",
    "batchHashData": "0x71c5350f2116df54a3e19d15be759616dc0cd9f85e2b45e253e7ba32537ba50b",
    "globalExitRoot": "0x090bcaf734c4f06c93954a827b45a6e8c67b8e0fd1e0a35a1c5982d6961828f9",
    "batchL2Data": "0xf8ab80843b9aca00830186a0941275fbb540c8efc58b812ba83b0d0b8b9917ae9880b8844dc8cac900000000000000000000000000000000000000000000000000000000000000200000000000000000000000000000000000000000000000000000000000000023123456789012345678901234567890123456789012345678901234567890123456789000000000000000000000000000000000000000000000000000000000008203e8808020a608496feb419ab34d41dcd2834da46880a38b09643ccbe0ef9161f069c31e6e52351ef163d5a3ca1be9e83fbfb46b3b774721ed93abcf1e2feb576845ea6e1c",
    "chainID": 1000,
    "oldAccInputHash": "0x0000000000000000000000000000000000000000000000000000000000000000",
    "forkID": 1
  }
]