[
  {
    "id": 0,
    "description": "Stack overflow",
    "arity": 4,
    "chainIdSequencer": 1001,
    "defaultChainId": 1000,
    "sequencerAddress": "0x617b3a3528F9cDd6630fd3301B9c8911F7Bf063D",
    "sequencerPvtKey": "0x28b2b0318721be8c8339199172cd7cc8f5e273800a35616ec893083a4b32c02e",
    "genesis": [
      {
        "address": "0x617b3a3528F9cDd6630fd3301B9c8911F7Bf063D",
        "nonce": "0",
        "balance": "100000000000000000000",
        "pvtKey": "0x28b2b0318721be8c8339199172cd7cc8f5e273800a35616ec893083a4b32c02e"
      },
      {
        "address": "0x4d5Cf5032B2a844602278b01199ED191A86c93ff",
        "nonce": "0",
        "balance": "200000000000000000000",
        "pvtKey": "0x4d27a600dce8c29b7bd080e29a26972377dbb04d7a27d919adbb602bf13cfd23"
      },
      {
        "address": "0x1275fbb540c8efc58b812ba83b0d0b8b9917ae98",
        "nonce": 1,
        "balance": 0,
        "bytecode": "0x6080604052348015600f57600080fd5b5060043610603c5760003560e01c80638c192bc9146041578063d0657416146049578063ddf91d0c146051575b600080fd5b60476059565b005b604f6065565b005b605760a0565b005b60046003018060005550565b7fddf91d0c00000000000000000000000000000000000000000000000000000000608052602060806004608060003060025a04f18060015550565b60a660a0565b56fea2646970667358221220958f0168315c50ef10ab358eb38e1cbd6a809895af0ed8d3c823532d2862c71e64736f6c63430008070033",
        "abi": [
          {
            "inputs": [],
            "name": "stackOverflow",
            "outputs": [],
            "stateMutability": "nonpayable",
            "type": "function"
          },
          {
            "inputs": [],
            "name": "stackOverflowCall",
            "outputs": [],
            "stateMutability": "nonpayable",
            "type": "function"
          },
          {
            "inputs": [],
            "name": "stackUnderflow",
            "outputs": [],
            "stateMutability": "nonpayable",
            "type": "function"
          }
        ],
        "storage": {}
      }
    ],
    "expectedOldRoot": "0x3130d4a38badbf6b24d4389eca25e5577a2e3795389484e0aa1690f859de7708",
    "txs": [
      {
        "from": "0x4d5Cf5032B2a844602278b01199ED191A86c93ff",
        "to": "0x1275fbb540c8efc58b812ba83b0d0b8b9917ae98",
        "nonce": "0",
        "value": "0",
        "data": "0xddf91d0c",
        "gasLimit": 8000000,
        "gasPrice": "1000000000",
        "chainId": 1001
      }
    ],
    "expectedNewRoot": "0xa49524a58ff622ec90c192ea744510d1bfa9b1a6fe97c0c05d20284d844a6568",
    "expectedNewLeafs": {
      "0x617b3a3528F9cDd6630fd3301B9c8911F7Bf063D": {
        "balance": "100008000000000000000",
        "nonce": "0",
        "storage": null,
        "hashBytecode": "0x0000000000000000000000000000000000000000000000000000000000000000",
        "bytecodeLength": 0
      },
      "0x4d5Cf5032B2a844602278b01199ED191A86c93ff": {
        "balance": "199992000000000000000",
        "nonce": "1",
        "storage": null,
        "hashBytecode": "0x0000000000000000000000000000000000000000000000000000000000000000",
        "bytecodeLength": 0
      },
      "0x1275fbb540c8efc58b812ba83b0d0b8b9917ae98": {
        "balance": "0",
        "nonce": "1",
        "storage": {},
        "hashBytecode": "0xf8ded2ef0d87cc22f52135af0ebba4980f4aaea330296c55377373ba071aad76",
        "bytecodeLength": 222
      }
    },
    "timestamp": 1944498031,
    "newLocalExitRoot": "0x0000000000000000000000000000000000000000000000000000000000000000",
    "batchHashData": "0xd3083725012d2d899bb4697fddde09127bbd3e8782917f1cbc6118368a3646bc",
    "inputHash": "0x654b411d841d86fd77973274463d3569d9f1cbf3e400632d654c2cdacebb9aae",
    "globalExitRoot": "0x090bcaf734c4f06c93954a827b45a6e8c67b8e0fd1e0a35a1c5982d6961828f9",
    "oldLocalExitRoot": "0x0000000000000000000000000000000000000000000000000000000000000000",
    "batchL2Data": "0xea80843b9aca00837a1200941275fbb540c8efc58b812ba83b0d0b8b9917ae988084ddf91d0c8203e980803bc9c571200493df648dde7c81dabd3ce37370d95f8ce6dae63d8a78996ad9903fb16ef100ee0c41d7bc790109b2598497d6de6ec75023582c880cff090849eb1c"
  },
  {
    "id": 1,
    "description": "Stack overflow call",
    "arity": 4,
    "chainIdSequencer": 1001,
    "defaultChainId": 1000,
    "sequencerAddress": "0x617b3a3528F9cDd6630fd3301B9c8911F7Bf063D",
    "sequencerPvtKey": "0x28b2b0318721be8c8339199172cd7cc8f5e273800a35616ec893083a4b32c02e",
    "genesis": [
      {
        "address": "0x617b3a3528F9cDd6630fd3301B9c8911F7Bf063D",
        "nonce": "0",
        "balance": "100000000000000000000",
        "pvtKey": "0x28b2b0318721be8c8339199172cd7cc8f5e273800a35616ec893083a4b32c02e"
      },
      {
        "address": "0x4d5Cf5032B2a844602278b01199ED191A86c93ff",
        "nonce": "0",
        "balance": "200000000000000000000",
        "pvtKey": "0x4d27a600dce8c29b7bd080e29a26972377dbb04d7a27d919adbb602bf13cfd23"
      },
      {
        "address": "0x1275fbb540c8efc58b812ba83b0d0b8b9917ae98",
        "nonce": 1,
        "balance": 0,
        "bytecode": "0x6080604052348015600f57600080fd5b5060043610603c5760003560e01c80638c192bc9146041578063d0657416146049578063ddf91d0c146051575b600080fd5b60476059565b005b604f6065565b005b605760a0565b005b60046003018060005550565b7fddf91d0c00000000000000000000000000000000000000000000000000000000608052602060806004608060003060025a04f18060015550565b60a660a0565b56fea2646970667358221220958f0168315c50ef10ab358eb38e1cbd6a809895af0ed8d3c823532d2862c71e64736f6c63430008070033",
        "abi": [
          {
            "inputs": [],
            "name": "stackOverflow",
            "outputs": [],
            "stateMutability": "nonpayable",
            "type": "function"
          },
          {
            "inputs": [],
            "name": "stackOverflowCall",
            "outputs": [],
            "stateMutability": "nonpayable",
            "type": "function"
          },
          {
            "inputs": [],
            "name": "stackUnderflow",
            "outputs": [],
            "stateMutability": "nonpayable",
            "type": "function"
          }
        ],
        "storage": {}
      }
    ],
    "expectedOldRoot": "0x3130d4a38badbf6b24d4389eca25e5577a2e3795389484e0aa1690f859de7708",
    "txs": [
      {
        "from": "0x4d5Cf5032B2a844602278b01199ED191A86c93ff",
        "to": "0x1275fbb540c8efc58b812ba83b0d0b8b9917ae98",
        "nonce": "0",
        "value": "0",
        "data": "0xd0657416",
        "gasLimit": 8000000,
        "gasPrice": "1000000000",
        "chainId": 1001
      }
    ],
    "expectedNewRoot": "0x38f0149990734191af0b92cf8b3ac759ef0d5e1e1f6082ea116aaf123221a9b3",
    "expectedNewLeafs": {
      "0x617b3a3528F9cDd6630fd3301B9c8911F7Bf063D": {
        "balance": "100004012940000000000",
        "nonce": "0",
        "storage": null,
        "hashBytecode": "0x0000000000000000000000000000000000000000000000000000000000000000",
        "bytecodeLength": 0
      },
      "0x4d5Cf5032B2a844602278b01199ED191A86c93ff": {
        "balance": "199995987060000000000",
        "nonce": "1",
        "storage": null,
        "hashBytecode": "0x0000000000000000000000000000000000000000000000000000000000000000",
        "bytecodeLength": 0
      },
      "0x1275fbb540c8efc58b812ba83b0d0b8b9917ae98": {
        "balance": "0",
        "nonce": "1",
        "storage": {},
        "hashBytecode": "0xf8ded2ef0d87cc22f52135af0ebba4980f4aaea330296c55377373ba071aad76",
        "bytecodeLength": 222
      }
    },
    "timestamp": 1944498031,
    "newLocalExitRoot": "0x0000000000000000000000000000000000000000000000000000000000000000",
    "batchHashData": "0xec23bddae13c43e4766843317b81145e9b0588b51c333ebcc990871968dcdb19",
    "inputHash": "0x8ef1fc1a21e513fec2ace2ebf508e7835787c4dd8914683db8abd3f0cb3d73a0",
    "globalExitRoot": "0x090bcaf734c4f06c93954a827b45a6e8c67b8e0fd1e0a35a1c5982d6961828f9",
    "oldLocalExitRoot": "0x0000000000000000000000000000000000000000000000000000000000000000",
    "batchL2Data": "0xea80843b9aca00837a1200941275fbb540c8efc58b812ba83b0d0b8b9917ae988084d06574168203e98080191ed165a59096bbc6c0744a1ec417122647152f8d6ebc2051af4452c3df900d12c89c6f89223e9aeae2254773256dacc30538434d8d00be8de6cc680bc1719b1b"
  },
  {
    "id": 2,
    "description": "stack underflow",
    "arity": 4,
    "chainIdSequencer": 1001,
    "defaultChainId": 1000,
    "sequencerAddress": "0x617b3a3528F9cDd6630fd3301B9c8911F7Bf063D",
    "sequencerPvtKey": "0x28b2b0318721be8c8339199172cd7cc8f5e273800a35616ec893083a4b32c02e",
    "genesis": [
      {
        "address": "0x617b3a3528F9cDd6630fd3301B9c8911F7Bf063D",
        "nonce": "0",
        "balance": "100000000000000000000",
        "pvtKey": "0x28b2b0318721be8c8339199172cd7cc8f5e273800a35616ec893083a4b32c02e"
      },
      {
        "address": "0x4d5Cf5032B2a844602278b01199ED191A86c93ff",
        "nonce": "0",
        "balance": "200000000000000000000",
        "pvtKey": "0x4d27a600dce8c29b7bd080e29a26972377dbb04d7a27d919adbb602bf13cfd23"
      },
      {
        "address": "0x1275fbb540c8efc58b812ba83b0d0b8b9917ae98",
        "nonce": 1,
        "balance": 0,
        "bytecode": "0x60806040526004361061004a5760003560e01c806327c845dc1461004f5780633c77eba3146100595780635b8e995914610089578063b88c4aa9146100c6578063e3306a25146100f6575b600080fd5b610057610133565b005b610073600480360381019061006e9190610232565b610141565b604051610080919061029d565b60405180910390f35b34801561009557600080fd5b506100b060048036038101906100ab9190610232565b61015b565b6040516100bd919061029d565b60405180910390f35b6100e060048036038101906100db9190610232565b610174565b6040516100ed919061029d565b60405180910390f35b34801561010257600080fd5b5061011d60048036038101906101189190610232565b610192565b60405161012a919061029d565b60405180910390f35b600034810190508060015550565b6000808260a06101f4f09050806000558091505092915050565b6000808260a06000f09050806000558091505092915050565b600080620555558360a061012cf59050806000558091505092915050565b60008060028360a06000f59050806000558091505092915050565b60006101c06101bb846102dd565b6102b8565b9050828152602081018484840111156101dc576101db6103be565b5b6101e784828561034a565b509392505050565b600082601f830112610204576102036103b9565b5b81356102148482602086016101ad565b91505092915050565b60008135905061022c816103de565b92915050565b60008060408385031215610249576102486103c8565b5b600083013567ffffffffffffffff811115610267576102666103c3565b5b610273858286016101ef565b92505060206102848582860161021d565b9150509250929050565b6102978161030e565b82525050565b60006020820190506102b2600083018461028e565b92915050565b60006102c26102d3565b90506102ce8282610359565b919050565b6000604051905090565b600067ffffffffffffffff8211156102f8576102f761038a565b5b610301826103cd565b9050602081019050919050565b600061031982610320565b9050919050565b600073ffffffffffffffffffffffffffffffffffffffff82169050919050565b6000819050919050565b82818337600083830152505050565b610362826103cd565b810181811067ffffffffffffffff821117156103815761038061038a565b5b80604052505050565b7f4e487b7100000000000000000000000000000000000000000000000000000000600052604160045260246000fd5b600080fd5b600080fd5b600080fd5b600080fd5b6000601f19601f8301169050919050565b6103e781610340565b81146103f257600080fd5b5056fea26469706673582212206d555c5cfdbc6e6298827b91813af1f15ae6cc068514956d5d4f1a0fa20d58c164736f6c63430008070033",
        "abi": [
          {
            "inputs": [
              {
                "internalType": "bytes",
                "name": "bytecode",
                "type": "bytes"
              },
              {
                "internalType": "uint256",
                "name": "length",
                "type": "uint256"
              }
            ],
            "name": "opCreate",
            "outputs": [
              {
                "internalType": "address",
                "name": "",
                "type": "address"
              }
            ],
            "stateMutability": "nonpayable",
            "type": "function"
          },
          {
            "inputs": [
              {
                "internalType": "bytes",
                "name": "bytecode",
                "type": "bytes"
              },
              {
                "internalType": "uint256",
                "name": "length",
                "type": "uint256"
              }
            ],
            "name": "opCreate2",
            "outputs": [
              {
                "internalType": "address",
                "name": "",
                "type": "address"
              }
            ],
            "stateMutability": "nonpayable",
            "type": "function"
          },
          {
            "inputs": [
              {
                "internalType": "bytes",
                "name": "bytecode",
                "type": "bytes"
              },
              {
                "internalType": "uint256",
                "name": "length",
                "type": "uint256"
              }
            ],
            "name": "opCreate2Value",
            "outputs": [
              {
                "internalType": "address",
                "name": "",
                "type": "address"
              }
            ],
            "stateMutability": "payable",
            "type": "function"
          },
          {
            "inputs": [
              {
                "internalType": "bytes",
                "name": "bytecode",
                "type": "bytes"
              },
              {
                "internalType": "uint256",
                "name": "length",
                "type": "uint256"
              }
            ],
            "name": "opCreateValue",
            "outputs": [
              {
                "internalType": "address",
                "name": "",
                "type": "address"
              }
            ],
            "stateMutability": "payable",
            "type": "function"
          },
          {
            "inputs": [],
            "name": "sendValue",
            "outputs": [],
            "stateMutability": "payable",
            "type": "function"
          }
        ],
        "storage": {}
      }
    ],
    "expectedOldRoot": "0xe6028b995d203f3f3b77f16f203012d9c286e3e744f6cb066a5baa418a61cbf8",
    "txs": [
      {
        "from": "0x4d5Cf5032B2a844602278b01199ED191A86c93ff",
        "to": "0x1275fbb540c8efc58b812ba83b0d0b8b9917ae98",
        "nonce": "0",
        "value": "0",
        "data": "0x5b8e99590000000000000000000000000000000000000000000000000000000000000040000000000000000000000000000000000000000000000000000000000000000300000000000000000000000000000000000000000000000000000000000000035050500000000000000000000000000000000000000000000000000000000000",
        "gasLimit": 800000,
        "gasPrice": "1000000000",
        "chainId": 1001
      }
    ],
    "expectedNewRoot": "0xc12bee642cb43c9ced8e69d4125c2459c1c1f3f780723e8fa0f06a34a0819f30",
    "expectedNewLeafs": {
      "0x617b3a3528F9cDd6630fd3301B9c8911F7Bf063D": {
        "balance": "100000790819000000000",
        "nonce": "0",
        "storage": null,
        "hashBytecode": "0x0000000000000000000000000000000000000000000000000000000000000000",
        "bytecodeLength": 0
      },
      "0x4d5Cf5032B2a844602278b01199ED191A86c93ff": {
        "balance": "199999209181000000000",
        "nonce": "1",
        "storage": null,
        "hashBytecode": "0x0000000000000000000000000000000000000000000000000000000000000000",
        "bytecodeLength": 0
      },
      "0x1275fbb540c8efc58b812ba83b0d0b8b9917ae98": {
        "balance": "0",
        "nonce": "2",
        "storage": {},
        "hashBytecode": "0x64497bfbeee254b7643cdd7437c59c62bc8f88d0628fe5fcb4bbbaf02d84f510",
        "bytecodeLength": 1067
      },
      "0x0ccfcb97611c13f90693e568e432ecd5f724be52": {
        "balance": "0",
        "nonce": "0",
        "storage": null,
        "hashBytecode": "0x0000000000000000000000000000000000000000000000000000000000000000",
        "bytecodeLength": 0
      }
    },
    "timestamp": 1944498031,
    "newLocalExitRoot": "0x0000000000000000000000000000000000000000000000000000000000000000",
    "batchHashData": "0xefe9ce809ddc384e952e78fe3a1d80f8a4a24322b8751d4880f413bc4d0948d8",
    "inputHash": "0x32ce6ffe4669682f168e1c46b2be129d39f51a6b98c1d67aab8feba094cd92f1",
    "globalExitRoot": "0x090bcaf734c4f06c93954a827b45a6e8c67b8e0fd1e0a35a1c5982d6961828f9",
    "oldLocalExitRoot": "0x0000000000000000000000000000000000000000000000000000000000000000",
    "batchL2Data": "0xf8ab80843b9aca00830c3500941275fbb540c8efc58b812ba83b0d0b8b9917ae9880b8845b8e995900000000000000000000000000000000000000000000000000000000000000400000000000000000000000000000000000000000000000000000000000000003000000000000000000000000000000000000000000000000000000000000000350505000000000000000000000000000000000000000000000000000000000008203e980807dd90978ef68fc6e476ea6ef475e6b57093b02ae5b92553b3f4fd41869ff8d2876118e47b96407fe51b36d41d44608d2fc1e19dac28029c568f10d932297b3bc1c"
  }
]