[
  {
    "id": 0,
    "description": "2 accounts and 1 valid transaction (to contract).",
    "arity": 4,
    "chainIdSequencer": 1001,
    "defaultChainId": 1000,
    "sequencerAddress": "0x617b3a3528F9cDd6630fd3301B9c8911F7Bf063D",
    "sequencerPvtKey": "0x28b2b0318721be8c8339199172cd7cc8f5e273800a35616ec893083a4b32c02e",
    "genesis": [
      {
        "address": "0x617b3a3528F9cDd6630fd3301B9c8911F7Bf063D",
        "nonce": "0",
        "balance": "100000000000000000000",
        "pvtKey": "0x28b2b0318721be8c8339199172cd7cc8f5e273800a35616ec893083a4b32c02e"
      },
      {
        "address": "0x4d5Cf5032B2a844602278b01199ED191A86c93ff",
        "nonce": "0",
        "balance": "200000000000000000000",
        "pvtKey": "0x4d27a600dce8c29b7bd080e29a26972377dbb04d7a27d919adbb602bf13cfd23"
      },
      {
        "address": "0x1275fbb540c8efc58b812ba83b0d0b8b9917ae98",
        "nonce": 1,
        "balance": 0,
        "bytecode": "0x608060405234801561001057600080fd5b50600436106100625760003560e01c80630f0db778146100675780635ef3d3dd146100835780638ca3165d1461009f578063b698c129146100bd578063e4081625146100d9578063e795befc146100f7575b600080fd5b610081600480360381019061007c91906101bd565b610127565b005b61009d60048036038101906100989190610190565b610143565b005b6100a761014d565b6040516100b4919061020c565b60405180910390f35b6100d760048036038101906100d29190610190565b610153565b005b6100e161015d565b6040516100ee919061020c565b60405180910390f35b610111600480360381019061010c9190610190565b610163565b60405161011e919061020c565b60405180910390f35b8060026000848152602001908152602001600020819055505050565b8060008190555050565b60005481565b8060018190555050565b60015481565b60026020528060005260406000206000915090505481565b60008135905061018a81610236565b92915050565b6000602082840312156101a6576101a5610231565b5b60006101b48482850161017b565b91505092915050565b600080604083850312156101d4576101d3610231565b5b60006101e28582860161017b565b92505060206101f38582860161017b565b9150509250929050565b61020681610227565b82525050565b600060208201905061022160008301846101fd565b92915050565b6000819050919050565b600080fd5b61023f81610227565b811461024a57600080fd5b5056fea26469706673582212205feec680dbd3ffdb3d28421e0c45d9127cc1de581ab1d493e719a7579f16c06964736f6c63430008070033",
        "abi": [
          {
            "inputs": [
              {
                "internalType": "uint256",
                "name": "_stoFirst",
                "type": "uint256"
              }
            ],
            "name": "setFirst",
            "outputs": [],
            "stateMutability": "nonpayable",
            "type": "function"
          },
          {
            "inputs": [
              {
                "internalType": "uint256",
                "name": "key",
                "type": "uint256"
              },
              {
                "internalType": "uint256",
                "name": "value",
                "type": "uint256"
              }
            ],
            "name": "setMapping",
            "outputs": [],
            "stateMutability": "nonpayable",
            "type": "function"
          },
          {
            "inputs": [
              {
                "internalType": "uint256",
                "name": "_stoSecond",
                "type": "uint256"
              }
            ],
            "name": "setSecond",
            "outputs": [],
            "stateMutability": "nonpayable",
            "type": "function"
          },
          {
            "inputs": [],
            "name": "stoFirst",
            "outputs": [
              {
                "internalType": "uint256",
                "name": "",
                "type": "uint256"
              }
            ],
            "stateMutability": "view",
            "type": "function"
          },
          {
            "inputs": [
              {
                "internalType": "uint256",
                "name": "",
                "type": "uint256"
              }
            ],
            "name": "stoMapping",
            "outputs": [
              {
                "internalType": "uint256",
                "name": "",
                "type": "uint256"
              }
            ],
            "stateMutability": "view",
            "type": "function"
          },
          {
            "inputs": [],
            "name": "stoSecond",
            "outputs": [
              {
                "internalType": "uint256",
                "name": "",
                "type": "uint256"
              }
            ],
            "stateMutability": "view",
            "type": "function"
          }
        ],
        "storage": {
          "0x0000000000000000000000000000000000000000000000000000000000000000": "0x01",
          "0x0000000000000000000000000000000000000000000000000000000000000001": "0x02"
        }
      }
    ],
    "expectedOldRoot": "0x8753a67a8c1e1f34361688bcb4ade9a303748a50f396e9b2184224f96f17e688",
    "txs": [
      {
        "from": "0x4d5Cf5032B2a844602278b01199ED191A86c93ff",
        "to": "0x1275fbb540c8efc58b812ba83b0d0b8b9917ae98",
        "nonce": "0",
        "value": "0",
        "data": "0x5ef3d3dd0000000000000000000000000000000000000000000000000000000000000007",
        "gasLimit": 100000,
        "gasPrice": "1000000000",
        "chainId": 1000
      }
    ],
    "expectedNewRoot": "0x41e1b7bc7543f4dfe11843a1c048fe45bc893e9bdfba8c4bbf3dcabfedb33ce1",
    "expectedNewLeafs": {
      "0x617b3a3528F9cDd6630fd3301B9c8911F7Bf063D": {
        "balance": "100000026624000000000",
        "nonce": "0",
        "storage": null,
        "hashBytecode": "0x0000000000000000000000000000000000000000000000000000000000000000",
        "bytecodeLength": 0
      },
      "0x4d5Cf5032B2a844602278b01199ED191A86c93ff": {
        "balance": "199999973376000000000",
        "nonce": "1",
        "storage": null,
        "hashBytecode": "0x0000000000000000000000000000000000000000000000000000000000000000",
        "bytecodeLength": 0
      },
      "0x1275fbb540c8efc58b812ba83b0d0b8b9917ae98": {
        "balance": "0",
        "nonce": "1",
        "storage": {
          "0x0000000000000000000000000000000000000000000000000000000000000000": "0x07",
          "0x0000000000000000000000000000000000000000000000000000000000000001": "0x02"
        },
        "hashBytecode": "0x37b6873a51b6e346373661b3579866c2a9e055364b6734e8232c61a1f2358428",
        "bytecodeLength": 643
      }
    },
    "timestamp": 1944498031,
    "newLocalExitRoot": "0x0000000000000000000000000000000000000000000000000000000000000000",
    "batchHashData": "0xeaf9942a50643674b0543bdd5bc0cb42e17cb38c001d5408b7af2df3c78bdc3b",
    "inputHash": "0x00860275b2f0decaec808f39205fbf84adb514c6a1f0aba274821d68259928d8",
    "globalExitRoot": "0x090bcaf734c4f06c93954a827b45a6e8c67b8e0fd1e0a35a1c5982d6961828f9",
    "oldLocalExitRoot": "0x0000000000000000000000000000000000000000000000000000000000000000",
    "batchL2Data": "0xf84a80843b9aca00830186a0941275fbb540c8efc58b812ba83b0d0b8b9917ae9880a45ef3d3dd00000000000000000000000000000000000000000000000000000000000000078203e880803943e5a952e27d85c91f61610159fd8caf0dd68db76a1df7fb52934156d9ec935ceec6b0f908e36ee8b2c70350b3813d72558572ff95deac79069168e68726571c",
    "chainID": 1000
  },
  {
    "id": 1,
    "description": "2 accounts and 1 valid transaction. (transfer)",
    "arity": 4,
    "chainIdSequencer": 1001,
    "defaultChainId": 1000,
    "sequencerAddress": "0x617b3a3528F9cDd6630fd3301B9c8911F7Bf063D",
    "sequencerPvtKey": "0x28b2b0318721be8c8339199172cd7cc8f5e273800a35616ec893083a4b32c02e",
    "genesis": [
      {
        "address": "0x617b3a3528F9cDd6630fd3301B9c8911F7Bf063D",
        "nonce": "0",
        "balance": "100000000000000000000",
        "pvtKey": "0x28b2b0318721be8c8339199172cd7cc8f5e273800a35616ec893083a4b32c02e"
      },
      {
        "address": "0x4d5Cf5032B2a844602278b01199ED191A86c93ff",
        "nonce": "0",
        "balance": "200000000000000000000",
        "pvtKey": "0x4d27a600dce8c29b7bd080e29a26972377dbb04d7a27d919adbb602bf13cfd23"
      }
    ],
    "expectedOldRoot": "0x4a9bfcb163ec91c5beb22e6aca41592433092c8c7821b01d37fd0de483f9265d",
    "txs": [
      {
        "from": "0x617b3a3528F9cDd6630fd3301B9c8911F7Bf063D",
        "to": "0x4d5Cf5032B2a844602278b01199ED191A86c93ff",
        "nonce": 0,
        "value": "100000000000000000",
        "gasLimit": 100000,
        "gasPrice": "1000000000",
        "chainId": 1000
      }
    ],
    "expectedNewRoot": "0x5a52a0ee8577a03e831f627fead1921da142f3820f5880118e98ae6362626b3c",
    "expectedNewLeafs": {
      "0x617b3a3528F9cDd6630fd3301B9c8911F7Bf063D": {
        "balance": "99900000000000000000",
        "nonce": "1",
        "storage": null,
        "hashBytecode": "0x0000000000000000000000000000000000000000000000000000000000000000",
        "bytecodeLength": 0
      },
      "0x4d5Cf5032B2a844602278b01199ED191A86c93ff": {
        "balance": "200100000000000000000",
        "nonce": "0",
        "storage": null,
        "hashBytecode": "0x0000000000000000000000000000000000000000000000000000000000000000",
        "bytecodeLength": 0
      }
    },
    "timestamp": 1944498031,
    "newLocalExitRoot": "0x0000000000000000000000000000000000000000000000000000000000000000",
    "batchHashData": "0x9370689d3c20a5a4739f902a31e2ea20c7d7be121a0fc19468a2e1b5d87f4111",
    "inputHash": "0x6dcef8046ea49c2ffc910e13524b18727c1ef1520d3d7d477f9cd84cd7ac7dfb",
    "globalExitRoot": "0x090bcaf734c4f06c93954a827b45a6e8c67b8e0fd1e0a35a1c5982d6961828f9",
    "oldLocalExitRoot": "0x0000000000000000000000000000000000000000000000000000000000000000",
    "batchL2Data": "0xee80843b9aca00830186a0944d5cf5032b2a844602278b01199ed191a86c93ff88016345785d8a0000808203e880801cee7e01dc62f69a12c3510c6d64de04ee6346d84b6a017f3e786c7d87f963e75d8cc91fa983cd6d9cf55fff80d73bd26cd333b0f098acc1e58edb1fd484ad731b",
    "chainID": 1000
  },
  {
    "id": 2,
    "description": "2 accounts and 2 valid transaction. (to contract & transfer)",
    "arity": 4,
    "chainIdSequencer": 1001,
    "defaultChainId": 1000,
    "sequencerAddress": "0x617b3a3528F9cDd6630fd3301B9c8911F7Bf063D",
    "sequencerPvtKey": "0x28b2b0318721be8c8339199172cd7cc8f5e273800a35616ec893083a4b32c02e",
    "genesis": [
      {
        "address": "0x617b3a3528F9cDd6630fd3301B9c8911F7Bf063D",
        "nonce": "0",
        "balance": "100000000000000000000",
        "pvtKey": "0x28b2b0318721be8c8339199172cd7cc8f5e273800a35616ec893083a4b32c02e"
      },
      {
        "address": "0x4d5Cf5032B2a844602278b01199ED191A86c93ff",
        "nonce": "0",
        "balance": "200000000000000000000",
        "pvtKey": "0x4d27a600dce8c29b7bd080e29a26972377dbb04d7a27d919adbb602bf13cfd23"
      },
      {
        "address": "0x1275fbb540c8efc58b812ba83b0d0b8b9917ae98",
        "nonce": 1,
        "balance": 0,
        "bytecode": "0x608060405234801561001057600080fd5b50600436106100625760003560e01c80630f0db778146100675780635ef3d3dd146100835780638ca3165d1461009f578063b698c129146100bd578063e4081625146100d9578063e795befc146100f7575b600080fd5b610081600480360381019061007c91906101bd565b610127565b005b61009d60048036038101906100989190610190565b610143565b005b6100a761014d565b6040516100b4919061020c565b60405180910390f35b6100d760048036038101906100d29190610190565b610153565b005b6100e161015d565b6040516100ee919061020c565b60405180910390f35b610111600480360381019061010c9190610190565b610163565b60405161011e919061020c565b60405180910390f35b8060026000848152602001908152602001600020819055505050565b8060008190555050565b60005481565b8060018190555050565b60015481565b60026020528060005260406000206000915090505481565b60008135905061018a81610236565b92915050565b6000602082840312156101a6576101a5610231565b5b60006101b48482850161017b565b91505092915050565b600080604083850312156101d4576101d3610231565b5b60006101e28582860161017b565b92505060206101f38582860161017b565b9150509250929050565b61020681610227565b82525050565b600060208201905061022160008301846101fd565b92915050565b6000819050919050565b600080fd5b61023f81610227565b811461024a57600080fd5b5056fea26469706673582212205feec680dbd3ffdb3d28421e0c45d9127cc1de581ab1d493e719a7579f16c06964736f6c63430008070033",
        "abi": [
          {
            "inputs": [
              {
                "internalType": "uint256",
                "name": "_stoFirst",
                "type": "uint256"
              }
            ],
            "name": "setFirst",
            "outputs": [],
            "stateMutability": "nonpayable",
            "type": "function"
          },
          {
            "inputs": [
              {
                "internalType": "uint256",
                "name": "key",
                "type": "uint256"
              },
              {
                "internalType": "uint256",
                "name": "value",
                "type": "uint256"
              }
            ],
            "name": "setMapping",
            "outputs": [],
            "stateMutability": "nonpayable",
            "type": "function"
          },
          {
            "inputs": [
              {
                "internalType": "uint256",
                "name": "_stoSecond",
                "type": "uint256"
              }
            ],
            "name": "setSecond",
            "outputs": [],
            "stateMutability": "nonpayable",
            "type": "function"
          },
          {
            "inputs": [],
            "name": "stoFirst",
            "outputs": [
              {
                "internalType": "uint256",
                "name": "",
                "type": "uint256"
              }
            ],
            "stateMutability": "view",
            "type": "function"
          },
          {
            "inputs": [
              {
                "internalType": "uint256",
                "name": "",
                "type": "uint256"
              }
            ],
            "name": "stoMapping",
            "outputs": [
              {
                "internalType": "uint256",
                "name": "",
                "type": "uint256"
              }
            ],
            "stateMutability": "view",
            "type": "function"
          },
          {
            "inputs": [],
            "name": "stoSecond",
            "outputs": [
              {
                "internalType": "uint256",
                "name": "",
                "type": "uint256"
              }
            ],
            "stateMutability": "view",
            "type": "function"
          }
        ],
        "storage": {
          "0x0000000000000000000000000000000000000000000000000000000000000000": "0x01",
          "0x0000000000000000000000000000000000000000000000000000000000000001": "0x02"
        }
      }
    ],
    "expectedOldRoot": "0x8753a67a8c1e1f34361688bcb4ade9a303748a50f396e9b2184224f96f17e688",
    "txs": [
      {
        "from": "0x4d5Cf5032B2a844602278b01199ED191A86c93ff",
        "to": "0x1275fbb540c8efc58b812ba83b0d0b8b9917ae98",
        "nonce": "0",
        "value": "0",
        "data": "0x5ef3d3dd0000000000000000000000000000000000000000000000000000000000000007",
        "gasLimit": 100000,
        "gasPrice": "1000000000",
        "chainId": 1000
      },
      {
        "from": "0x617b3a3528F9cDd6630fd3301B9c8911F7Bf063D",
        "to": "0x4d5Cf5032B2a844602278b01199ED191A86c93ff",
        "nonce": 0,
        "value": "100000000000000000",
        "gasLimit": 100000,
        "gasPrice": "1000000000",
        "chainId": 1000
      }
    ],
    "expectedNewRoot": "0xbd5ad9f651501cd48e787bca494916541d0e2ee99fd2a6396fa7b127456280d7",
    "expectedNewLeafs": {
      "0x617b3a3528F9cDd6630fd3301B9c8911F7Bf063D": {
        "balance": "99900026624000000000",
        "nonce": "1",
        "storage": null,
        "hashBytecode": "0x0000000000000000000000000000000000000000000000000000000000000000",
        "bytecodeLength": 0
      },
      "0x4d5Cf5032B2a844602278b01199ED191A86c93ff": {
        "balance": "200099973376000000000",
        "nonce": "1",
        "storage": null,
        "hashBytecode": "0x0000000000000000000000000000000000000000000000000000000000000000",
        "bytecodeLength": 0
      },
      "0x1275fbb540c8efc58b812ba83b0d0b8b9917ae98": {
        "balance": "0",
        "nonce": "1",
        "storage": {
          "0x0000000000000000000000000000000000000000000000000000000000000000": "0x07",
          "0x0000000000000000000000000000000000000000000000000000000000000001": "0x02"
        },
        "hashBytecode": "0x37b6873a51b6e346373661b3579866c2a9e055364b6734e8232c61a1f2358428",
        "bytecodeLength": 643
      }
    },
    "timestamp": 1944498031,
    "newLocalExitRoot": "0x0000000000000000000000000000000000000000000000000000000000000000",
    "batchHashData": "0x74cd37dc6dde2c5d2b9f6eba15e7cb1c059df44cfbd9654c55b1557ca7aca031",
    "inputHash": "0x3144a51059fb8b6cd9fd1b33e158df07f4f57f71cc19abf85a9b09e97450b30a",
    "globalExitRoot": "0x090bcaf734c4f06c93954a827b45a6e8c67b8e0fd1e0a35a1c5982d6961828f9",
    "oldLocalExitRoot": "0x0000000000000000000000000000000000000000000000000000000000000000",
    "batchL2Data": "0xf84a80843b9aca00830186a0941275fbb540c8efc58b812ba83b0d0b8b9917ae9880a45ef3d3dd00000000000000000000000000000000000000000000000000000000000000078203e880803943e5a952e27d85c91f61610159fd8caf0dd68db76a1df7fb52934156d9ec935ceec6b0f908e36ee8b2c70350b3813d72558572ff95deac79069168e68726571cee80843b9aca00830186a0944d5cf5032b2a844602278b01199ed191a86c93ff88016345785d8a0000808203e880801cee7e01dc62f69a12c3510c6d64de04ee6346d84b6a017f3e786c7d87f963e75d8cc91fa983cd6d9cf55fff80d73bd26cd333b0f098acc1e58edb1fd484ad731b",
    "chainID": 1000
  },
  {
    "id": 3,
    "description": "2 accounts and 1 invalid transaction (nonce).",
    "arity": 4,
    "chainIdSequencer": 1001,
    "defaultChainId": 1000,
    "sequencerAddress": "0x617b3a3528F9cDd6630fd3301B9c8911F7Bf063D",
    "sequencerPvtKey": "0x28b2b0318721be8c8339199172cd7cc8f5e273800a35616ec893083a4b32c02e",
    "genesis": [
      {
        "address": "0x617b3a3528F9cDd6630fd3301B9c8911F7Bf063D",
        "nonce": "0",
        "balance": "100000000000000000000",
        "pvtKey": "0x28b2b0318721be8c8339199172cd7cc8f5e273800a35616ec893083a4b32c02e"
      },
      {
        "address": "0x4d5Cf5032B2a844602278b01199ED191A86c93ff",
        "nonce": "0",
        "balance": "200000000000000000000",
        "pvtKey": "0x4d27a600dce8c29b7bd080e29a26972377dbb04d7a27d919adbb602bf13cfd23"
      }
    ],
    "expectedOldRoot": "0x4a9bfcb163ec91c5beb22e6aca41592433092c8c7821b01d37fd0de483f9265d",
    "txs": [
      {
        "from": "0x617b3a3528F9cDd6630fd3301B9c8911F7Bf063D",
        "to": "0x4d5Cf5032B2a844602278b01199ED191A86c93ff",
        "nonce": 1,
        "value": "100000000000000000",
        "gasLimit": 100000,
        "gasPrice": "1000000000",
        "chainId": 1000
      }
    ],
    "expectedNewRoot": "0x7c29e07c803e993311b3d1633e5e9dd9f6db8cf813b7b60117599c7d1d7b66bb",
    "expectedNewLeafs": {
      "0x617b3a3528F9cDd6630fd3301B9c8911F7Bf063D": {
        "balance": "100000000000000000000",
        "nonce": "0",
        "storage": null,
        "hashBytecode": "0x0000000000000000000000000000000000000000000000000000000000000000",
        "bytecodeLength": 0
      },
      "0x4d5Cf5032B2a844602278b01199ED191A86c93ff": {
        "balance": "200000000000000000000",
        "nonce": "0",
        "storage": null,
        "hashBytecode": "0x0000000000000000000000000000000000000000000000000000000000000000",
        "bytecodeLength": 0
      }
    },
    "timestamp": 1944498031,
    "newLocalExitRoot": "0x0000000000000000000000000000000000000000000000000000000000000000",
    "batchHashData": "0xdbbf6a94152bb9ab56d8917a85b534e36614bd78b769f8156f86a79d7ff8b785",
    "inputHash": "0x253c6c41b56bcf86bd89406b79a27c7e7a7d6b09b23a9521284ee5de5498b81c",
    "globalExitRoot": "0x090bcaf734c4f06c93954a827b45a6e8c67b8e0fd1e0a35a1c5982d6961828f9",
    "oldLocalExitRoot": "0x0000000000000000000000000000000000000000000000000000000000000000",
    "batchL2Data": "0xee01843b9aca00830186a0944d5cf5032b2a844602278b01199ed191a86c93ff88016345785d8a0000808203e880803ee20a0764440b016c4a2ee4e7e4eb3a5a97f1e6a6c9f40bf5ecf50f95ff636d63878ddb3e997e519826c7bb26fb7c5950a208e1ec722a9f1c568c4e479b40341c",
    "chainID": 1000
  },
  {
    "id": 4,
    "description": "2 accounts and 1 invalid transaction (balance).",
    "arity": 4,
    "chainIdSequencer": 1001,
    "defaultChainId": 1000,
    "sequencerAddress": "0x617b3a3528F9cDd6630fd3301B9c8911F7Bf063D",
    "sequencerPvtKey": "0x28b2b0318721be8c8339199172cd7cc8f5e273800a35616ec893083a4b32c02e",
    "genesis": [
      {
        "address": "0x617b3a3528F9cDd6630fd3301B9c8911F7Bf063D",
        "nonce": "0",
        "balance": "0",
        "pvtKey": "0x28b2b0318721be8c8339199172cd7cc8f5e273800a35616ec893083a4b32c02e"
      },
      {
        "address": "0x4d5Cf5032B2a844602278b01199ED191A86c93ff",
        "nonce": "0",
        "balance": "200000000000000000000",
        "pvtKey": "0x4d27a600dce8c29b7bd080e29a26972377dbb04d7a27d919adbb602bf13cfd23"
      }
    ],
    "expectedOldRoot": "0x8397a02db0909df274170a8a1a4e45f6d7f24e66606976cd00960d8c6c850c97",
    "txs": [
      {
        "from": "0x617b3a3528F9cDd6630fd3301B9c8911F7Bf063D",
        "to": "0x4d5Cf5032B2a844602278b01199ED191A86c93ff",
        "nonce": 0,
        "value": "100000000000000000",
        "gasLimit": 100000,
        "gasPrice": "1000000000",
        "chainId": 1000
      }
    ],
    "expectedNewRoot": "0xd1f693a0f57d171d5ec96e58b0d9f8322bd22e2d88830c0b4d93bb008f66876f",
    "expectedNewLeafs": {
      "0x617b3a3528F9cDd6630fd3301B9c8911F7Bf063D": {
        "balance": "0",
        "nonce": "0",
        "storage": null,
        "hashBytecode": "0x0000000000000000000000000000000000000000000000000000000000000000",
        "bytecodeLength": 0
      },
      "0x4d5Cf5032B2a844602278b01199ED191A86c93ff": {
        "balance": "200000000000000000000",
        "nonce": "0",
        "storage": null,
        "hashBytecode": "0x0000000000000000000000000000000000000000000000000000000000000000",
        "bytecodeLength": 0
      }
    },
    "timestamp": 1944498031,
    "newLocalExitRoot": "0x0000000000000000000000000000000000000000000000000000000000000000",
    "batchHashData": "0x9370689d3c20a5a4739f902a31e2ea20c7d7be121a0fc19468a2e1b5d87f4111",
    "inputHash": "0xf4314e5a2073c436456a47bf7f4d1f0526c557c53103b818660e33f7a6f7ff7b",
    "globalExitRoot": "0x090bcaf734c4f06c93954a827b45a6e8c67b8e0fd1e0a35a1c5982d6961828f9",
    "oldLocalExitRoot": "0x0000000000000000000000000000000000000000000000000000000000000000",
    "batchL2Data": "0xee80843b9aca00830186a0944d5cf5032b2a844602278b01199ed191a86c93ff88016345785d8a0000808203e880801cee7e01dc62f69a12c3510c6d64de04ee6346d84b6a017f3e786c7d87f963e75d8cc91fa983cd6d9cf55fff80d73bd26cd333b0f098acc1e58edb1fd484ad731b",
    "chainID": 1000
  },
  {
    "id": 5,
    "description": "2 accounts and 1 invalid transaction (chain Id).",
    "arity": 4,
    "chainIdSequencer": 1001,
    "defaultChainId": 1000,
    "sequencerAddress": "0x617b3a3528F9cDd6630fd3301B9c8911F7Bf063D",
    "sequencerPvtKey": "0x28b2b0318721be8c8339199172cd7cc8f5e273800a35616ec893083a4b32c02e",
    "genesis": [
      {
        "address": "0x617b3a3528F9cDd6630fd3301B9c8911F7Bf063D",
        "nonce": "0",
        "balance": "100000000000000000000",
        "pvtKey": "0x28b2b0318721be8c8339199172cd7cc8f5e273800a35616ec893083a4b32c02e"
      },
      {
        "address": "0x4d5Cf5032B2a844602278b01199ED191A86c93ff",
        "nonce": "0",
        "balance": "200000000000000000000",
        "pvtKey": "0x4d27a600dce8c29b7bd080e29a26972377dbb04d7a27d919adbb602bf13cfd23"
      }
    ],
    "expectedOldRoot": "0x4a9bfcb163ec91c5beb22e6aca41592433092c8c7821b01d37fd0de483f9265d",
    "txs": [
      {
        "from": "0x617b3a3528F9cDd6630fd3301B9c8911F7Bf063D",
        "to": "0x4d5Cf5032B2a844602278b01199ED191A86c93ff",
        "nonce": 0,
        "value": "100000000000000000",
        "gasLimit": 100000,
        "gasPrice": "1000000000",
        "chainId": 1002
      }
    ],
    "expectedNewRoot": "0x5a52a0ee8577a03e831f627fead1921da142f3820f5880118e98ae6362626b3c",
    "expectedNewLeafs": {
      "0x617b3a3528F9cDd6630fd3301B9c8911F7Bf063D": {
        "balance": "99900000000000000000",
        "nonce": "1",
        "storage": null,
        "hashBytecode": "0x0000000000000000000000000000000000000000000000000000000000000000",
        "bytecodeLength": 0
      },
      "0x4d5Cf5032B2a844602278b01199ED191A86c93ff": {
        "balance": "200100000000000000000",
        "nonce": "0",
        "storage": null,
        "hashBytecode": "0x0000000000000000000000000000000000000000000000000000000000000000",
        "bytecodeLength": 0
      }
    },
    "timestamp": 1944498031,
    "newLocalExitRoot": "0x0000000000000000000000000000000000000000000000000000000000000000",
    "batchHashData": "0x9370689d3c20a5a4739f902a31e2ea20c7d7be121a0fc19468a2e1b5d87f4111",
    "inputHash": "0x6dcef8046ea49c2ffc910e13524b18727c1ef1520d3d7d477f9cd84cd7ac7dfb",
    "globalExitRoot": "0x090bcaf734c4f06c93954a827b45a6e8c67b8e0fd1e0a35a1c5982d6961828f9",
    "oldLocalExitRoot": "0x0000000000000000000000000000000000000000000000000000000000000000",
    "batchL2Data": "0xee80843b9aca00830186a0944d5cf5032b2a844602278b01199ed191a86c93ff88016345785d8a0000808203e880801cee7e01dc62f69a12c3510c6d64de04ee6346d84b6a017f3e786c7d87f963e75d8cc91fa983cd6d9cf55fff80d73bd26cd333b0f098acc1e58edb1fd484ad731b",
    "chainID": 1000
  },
  {
    "id": 6,
    "description": "2 accounts and 1 invalid transaction (to).",
    "arity": 4,
    "chainIdSequencer": 1001,
    "defaultChainId": 1000,
    "sequencerAddress": "0x617b3a3528F9cDd6630fd3301B9c8911F7Bf063D",
    "sequencerPvtKey": "0x28b2b0318721be8c8339199172cd7cc8f5e273800a35616ec893083a4b32c02e",
    "genesis": [
      {
        "address": "0x617b3a3528F9cDd6630fd3301B9c8911F7Bf063D",
        "nonce": "0",
        "balance": "100000000000000000000",
        "pvtKey": "0x28b2b0318721be8c8339199172cd7cc8f5e273800a35616ec893083a4b32c02e"
      },
      {
        "address": "0x4d5Cf5032B2a844602278b01199ED191A86c93ff",
        "nonce": "0",
        "balance": "200000000000000000000",
        "pvtKey": "0x4d27a600dce8c29b7bd080e29a26972377dbb04d7a27d919adbb602bf13cfd23"
      }
    ],
    "expectedOldRoot": "0x4a9bfcb163ec91c5beb22e6aca41592433092c8c7821b01d37fd0de483f9265d",
    "txs": [
      {
        "from": "0x617b3a3528F9cDd6630fd3301B9c8911F7Bf063D",
        "to": "0x4d5Cf5032B2a844602278b01199ED191A86c93f",
        "nonce": 0,
        "value": "100000000000000000",
        "gasLimit": 100000,
        "gasPrice": "1000000000",
        "chainId": 1000
      }
    ],
    "expectedNewRoot": "0x7c29e07c803e993311b3d1633e5e9dd9f6db8cf813b7b60117599c7d1d7b66bb",
    "expectedNewLeafs": {
      "0x617b3a3528F9cDd6630fd3301B9c8911F7Bf063D": {
        "balance": "100000000000000000000",
        "nonce": "0",
        "storage": null,
        "hashBytecode": "0x0000000000000000000000000000000000000000000000000000000000000000",
        "bytecodeLength": 0
      },
      "0x4d5Cf5032B2a844602278b01199ED191A86c93ff": {
        "balance": "200000000000000000000",
        "nonce": "0",
        "storage": null,
        "hashBytecode": "0x0000000000000000000000000000000000000000000000000000000000000000",
        "bytecodeLength": 0
      }
    },
    "timestamp": 1944498031,
    "newLocalExitRoot": "0x0000000000000000000000000000000000000000000000000000000000000000",
    "batchHashData": "0xdfabf558cba1609705f9e17ab6bd8afd9f81983abda82b0dc7ec7d96598d146b",
    "inputHash": "0x182683946098c2ee6fa2fd8c11f39af7083e889793a743ac2a6a9bee132ace9c",
    "globalExitRoot": "0x090bcaf734c4f06c93954a827b45a6e8c67b8e0fd1e0a35a1c5982d6961828f9",
    "oldLocalExitRoot": "0x0000000000000000000000000000000000000000000000000000000000000000",
    "batchL2Data": "0x",
    "chainID": 1000
  },
  {
    "id": 7,
    "description": "2 accounts and 1 invalid transaction (from).",
    "arity": 4,
    "chainIdSequencer": 1001,
    "defaultChainId": 1000,
    "sequencerAddress": "0x617b3a3528F9cDd6630fd3301B9c8911F7Bf063D",
    "sequencerPvtKey": "0x28b2b0318721be8c8339199172cd7cc8f5e273800a35616ec893083a4b32c02e",
    "genesis": [
      {
        "address": "0x617b3a3528F9cDd6630fd3301B9c8911F7Bf063D",
        "nonce": "0",
        "balance": "100000000000000000000",
        "pvtKey": "0x28b2b0318721be8c8339199172cd7cc8f5e273800a35616ec893083a4b32c02e"
      },
      {
        "address": "0x4d5Cf5032B2a844602278b01199ED191A86c93ff",
        "nonce": "0",
        "balance": "200000000000000000000",
        "pvtKey": "0x4d27a600dce8c29b7bd080e29a26972377dbb04d7a27d919adbb602bf13cfd23"
      }
    ],
    "expectedOldRoot": "0x4a9bfcb163ec91c5beb22e6aca41592433092c8c7821b01d37fd0de483f9265d",
    "txs": [
      {
        "from": "0x617b3a3528F9cDd6630fd3301B9c8911F7Bf063",
        "to": "0x4d5Cf5032B2a844602278b01199ED191A86c93ff",
        "nonce": 0,
        "value": "100000000000000000",
        "gasLimit": 100000,
        "gasPrice": "1000000000",
        "chainId": 1000
      }
    ],
    "expectedNewRoot": "0x7c29e07c803e993311b3d1633e5e9dd9f6db8cf813b7b60117599c7d1d7b66bb",
    "expectedNewLeafs": {
      "0x617b3a3528F9cDd6630fd3301B9c8911F7Bf063D": {
        "balance": "100000000000000000000",
        "nonce": "0",
        "storage": null,
        "hashBytecode": "0x0000000000000000000000000000000000000000000000000000000000000000",
        "bytecodeLength": 0
      },
      "0x4d5Cf5032B2a844602278b01199ED191A86c93ff": {
        "balance": "200000000000000000000",
        "nonce": "0",
        "storage": null,
        "hashBytecode": "0x0000000000000000000000000000000000000000000000000000000000000000",
        "bytecodeLength": 0
      }
    },
    "timestamp": 1944498031,
    "newLocalExitRoot": "0x0000000000000000000000000000000000000000000000000000000000000000",
    "batchHashData": "0xdfabf558cba1609705f9e17ab6bd8afd9f81983abda82b0dc7ec7d96598d146b",
    "inputHash": "0x182683946098c2ee6fa2fd8c11f39af7083e889793a743ac2a6a9bee132ace9c",
    "globalExitRoot": "0x090bcaf734c4f06c93954a827b45a6e8c67b8e0fd1e0a35a1c5982d6961828f9",
    "oldLocalExitRoot": "0x0000000000000000000000000000000000000000000000000000000000000000",
    "batchL2Data": "0x",
    "chainID": 1000
  },
  {
    "id": 8,
    "description": "2 accounts and 1 invalid transaction, enough balance for gas but not enough balance for value.",
    "arity": 4,
    "chainIdSequencer": 1001,
    "defaultChainId": 1000,
    "sequencerAddress": "0x617b3a3528F9cDd6630fd3301B9c8911F7Bf063D",
    "sequencerPvtKey": "0x28b2b0318721be8c8339199172cd7cc8f5e273800a35616ec893083a4b32c02e",
    "genesis": [
      {
        "address": "0x617b3a3528F9cDd6630fd3301B9c8911F7Bf063D",
        "nonce": "0",
        "balance": "100000000",
        "pvtKey": "0x28b2b0318721be8c8339199172cd7cc8f5e273800a35616ec893083a4b32c02e"
      },
      {
        "address": "0x4d5Cf5032B2a844602278b01199ED191A86c93ff",
        "nonce": "0",
        "balance": "200000000000000000000",
        "pvtKey": "0x4d27a600dce8c29b7bd080e29a26972377dbb04d7a27d919adbb602bf13cfd23"
      }
    ],
    "expectedOldRoot": "0x3a435545e9cca7762809ab33340e96de89bf94811b48088ae8f63e6a520b2409",
    "txs": [
      {
        "from": "0x617b3a3528F9cDd6630fd3301B9c8911F7Bf063D",
        "to": "0x4d5Cf5032B2a844602278b01199ED191A86c93ff",
        "nonce": 0,
        "value": "100000000000000000",
        "gasLimit": 10000,
        "gasPrice": "10000",
        "chainId": 1000
      }
    ],
    "expectedNewRoot": "0x13255da08166ade1bae0807ddda0aa5bd2ab4e0c483ede1f4dbb1f2d91ce32b6",
    "expectedNewLeafs": {
      "0x617b3a3528F9cDd6630fd3301B9c8911F7Bf063D": {
        "balance": "100000000",
        "nonce": "0",
        "storage": null,
        "hashBytecode": "0x0000000000000000000000000000000000000000000000000000000000000000",
        "bytecodeLength": 0
      },
      "0x4d5Cf5032B2a844602278b01199ED191A86c93ff": {
        "balance": "200000000000000000000",
        "nonce": "0",
        "storage": null,
        "hashBytecode": "0x0000000000000000000000000000000000000000000000000000000000000000",
        "bytecodeLength": 0
      }
    },
    "timestamp": 1944498031,
    "newLocalExitRoot": "0x0000000000000000000000000000000000000000000000000000000000000000",
    "batchHashData": "0xe1fab7ff034dc9eac5f6fe894d37be791e75790164467afb2b937079804b221b",
    "inputHash": "0xeefd1a0ab11cecc7acfdf3e9f5fb6d3d1df612a45ad0448786ffee15cf2ba4ee",
    "globalExitRoot": "0x090bcaf734c4f06c93954a827b45a6e8c67b8e0fd1e0a35a1c5982d6961828f9",
    "oldLocalExitRoot": "0x0000000000000000000000000000000000000000000000000000000000000000",
    "batchL2Data": "0xeb80822710822710944d5cf5032b2a844602278b01199ed191a86c93ff88016345785d8a0000808203e88080f003735f8f4214fb6a38b1f9c6531e5f333429ef3e4b7831276f4ec206b4836f2bb5869a7ef2b8b69aef7323208374ef399a79d16cafa28ac55682671bf71ffb1c",
    "chainID": 1000
  }
]