[
  {
    "id": 0,
    "description": "View function",
    "arity": 4,
    "chainIdSequencer": 1001,
    "defaultChainId": 1000,
    "sequencerAddress": "0x617b3a3528F9cDd6630fd3301B9c8911F7Bf063D",
    "sequencerPvtKey": "0x28b2b0318721be8c8339199172cd7cc8f5e273800a35616ec893083a4b32c02e",
    "genesis": [
      {
        "address": "0x617b3a3528F9cDd6630fd3301B9c8911F7Bf063D",
        "nonce": "0",
        "balance": "100000000000000000000",
        "pvtKey": "0x28b2b0318721be8c8339199172cd7cc8f5e273800a35616ec893083a4b32c02e"
      },
      {
        "address": "0x4d5Cf5032B2a844602278b01199ED191A86c93ff",
        "nonce": "0",
        "balance": "200000000000000000000",
        "pvtKey": "0x4d27a600dce8c29b7bd080e29a26972377dbb04d7a27d919adbb602bf13cfd23"
      },
      {
        "address": "0xeB17ce701E9D92724AA2ABAdA7E4B28830597Dd9",
        "nonce": "0",
        "balance": "200000000000000000000",
        "pvtKey": "0x1d0722aff4b29780e9a78e0bf28d5e127fb276cfbb0c3eb6a0e1728401777f17"
      },
      {
        "address": "0x1275fbb540c8efc58b812ba83b0d0b8b9917ae98",
        "nonce": 1,
        "balance": 0,
        "bytecode": "0x608060405234801561001057600080fd5b506004361061002b5760003560e01c80634d9011f214610030575b600080fd5b61004a600480360381019061004591906100a1565b610060565b60405161005791906100f0565b60405180910390f35b600080600090506000548385610076919061010b565b610080919061010b565b90508091505092915050565b60008135905061009b8161019f565b92915050565b600080604083850312156100b8576100b761019a565b5b60006100c68582860161008c565b92505060206100d78582860161008c565b9150509250929050565b6100ea81610161565b82525050565b600060208201905061010560008301846100e1565b92915050565b600061011682610161565b915061012183610161565b9250827fffffffffffffffffffffffffffffffffffffffffffffffffffffffffffffffff038211156101565761015561016b565b5b828201905092915050565b6000819050919050565b7f4e487b7100000000000000000000000000000000000000000000000000000000600052601160045260246000fd5b600080fd5b6101a881610161565b81146101b357600080fd5b5056fea2646970667358221220a65b03a379d79ac48d43ebbe5265470d2351bdea3c803ed94511370c7dcdb89464736f6c63430008070033",
        "abi": [
          {
            "inputs": [
              {
                "internalType": "uint256",
                "name": "a",
                "type": "uint256"
              },
              {
                "internalType": "uint256",
                "name": "b",
                "type": "uint256"
              }
            ],
            "name": "testView",
            "outputs": [
              {
                "internalType": "uint256",
                "name": "",
                "type": "uint256"
              }
            ],
            "stateMutability": "view",
            "type": "function"
          }
        ],
        "storage": {
          "0x0000000000000000000000000000000000000000000000000000000000000000": "0x04"
        }
      }
    ],
    "expectedOldRoot": "0xc403e829a228dc4c66ff3fc92bd965ca291d8092c9faeaf6703cf0439286c593",
    "txs": [
      {
        "from": "0x4d5Cf5032B2a844602278b01199ED191A86c93ff",
        "to": "0x1275fbb540c8efc58b812ba83b0d0b8b9917ae98",
        "nonce": "0",
        "value": "0",
        "data": "0x4d9011f200000000000000000000000000000000000000000000000000000000000000020000000000000000000000000000000000000000000000000000000000000003",
        "gasLimit": 100000,
        "gasPrice": "1000000000",
        "chainId": 1000
      }
    ],
    "expectedNewRoot": "0x134101817aad48970c6a92c5751a088c3061da15c0a69e8f8d158b23f37c4c95",
    "expectedNewLeafs": {
      "0x617b3a3528F9cDd6630fd3301B9c8911F7Bf063D": {
        "balance": "100000024606000000000",
        "nonce": "0",
        "storage": null,
        "hashBytecode": "0x0000000000000000000000000000000000000000000000000000000000000000",
        "bytecodeLength": 0
      },
      "0x4d5Cf5032B2a844602278b01199ED191A86c93ff": {
        "balance": "199999975394000000000",
        "nonce": "1",
        "storage": null,
        "hashBytecode": "0x0000000000000000000000000000000000000000000000000000000000000000",
        "bytecodeLength": 0
      },
      "0x1275fbb540c8efc58b812ba83b0d0b8b9917ae98": {
        "balance": "0",
        "nonce": "1",
        "storage": {
          "0x0000000000000000000000000000000000000000000000000000000000000000": "0x04"
        },
        "hashBytecode": "0x115b32c62badf96d73dfd1da01261c18f4138f83d134f9b35aea600e18916a5c",
        "bytecodeLength": 492
      },
      "0xeB17ce701E9D92724AA2ABAdA7E4B28830597Dd9": {
        "balance": "200000000000000000000",
        "nonce": "0",
        "storage": null,
        "hashBytecode": "0x0000000000000000000000000000000000000000000000000000000000000000",
        "bytecodeLength": 0
      }
    },
    "timestamp": 1944498031,
    "newLocalExitRoot": "0x0000000000000000000000000000000000000000000000000000000000000000",
    "batchHashData": "0xe5d0e2766ed719443eee92cf23b36f43b4a738209043575c218047803afd01a1",
    "globalExitRoot": "0x090bcaf734c4f06c93954a827b45a6e8c67b8e0fd1e0a35a1c5982d6961828f9",
    "batchL2Data": "0xf86b80843b9aca00830186a0941275fbb540c8efc58b812ba83b0d0b8b9917ae9880b8444d9011f2000000000000000000000000000000000000000000000000000000000000000200000000000000000000000000000000000000000000000000000000000000038203e8808027e83b19c1237ad111d7d7969d6126cde66ebf8aec18d1b1c1d28cbf7f4974e80b3c5a49be833798010cccaaf5186faf00165b582f29dfefbe26e34de1740ac71c",
    "chainID": 1000,
    "oldAccInputHash": "0x0000000000000000000000000000000000000000000000000000000000000000",
    "forkID": 4
  }
]