[
  {
    "id": 0,
    "description": "Get timestamp",
    "defaultChainId": 1000,
    "sequencerAddress": "0x617b3a3528F9cDd6630fd3301B9c8911F7Bf063D",
    "sequencerPvtKey": "0x28b2b0318721be8c8339199172cd7cc8f5e273800a35616ec893083a4b32c02e",
    "genesis": {
      "accounts": [
        {
          "address": "0x617b3a3528F9cDd6630fd3301B9c8911F7Bf063D",
          "pvtKey": "0x28b2b0318721be8c8339199172cd7cc8f5e273800a35616ec893083a4b32c02e",
          "balance": "100000000000000000000",
          "nonce": "0"
        },
        {
          "address": "0x4d5Cf5032B2a844602278b01199ED191A86c93ff",
          "pvtKey": "0x4d27a600dce8c29b7bd080e29a26972377dbb04d7a27d919adbb602bf13cfd23",
          "balance": "200000000000000000000",
          "nonce": "0"
        }
      ],
      "contracts": [
        {
          "contractName": "OpBlockInfo",
          "paramsDeploy": {}
        }
      ]
    },
    "expectedOldRoot": "0x305f6aba22392c0c7c9d6ade7fb60d9b4550a26c724f77d827e7619c1bd3e5e1",
    "oldLocalExitRoot": "0x0000000000000000000000000000000000000000000000000000000000000000",
    "oldAccInputHash": "0x0000000000000000000000000000000000000000000000000000000000000000",
    "batches": [
      {
        "txs": [
          {
            "from": "0x4d5Cf5032B2a844602278b01199ED191A86c93ff",
            "to": "contract",
            "nonce": 0,
            "value": "0",
            "contractName": "OpBlockInfo",
            "function": "opTimestamp",
            "params": [],
            "chainId": 1000,
            "reason": "",
            "gasLimit": 100000,
            "gasPrice": "1000000000",
            "data": "0x188ec356",
            "customRawTx": "0xea80843b9aca00830186a0941275fbb540c8efc58b812ba83b0d0b8b9917ae988084188ec3568203e880800a62ce9876e027f7a954f96c485c63c9bf043bd1fe1012c5634cf959bf7743190a601eedbcfef58146bdda9845fea5d9356b09d667010d557c73f83353a119a61cff",
            "rawTx": "0xf86a80843b9aca00830186a0941275fbb540c8efc58b812ba83b0d0b8b9917ae988084188ec3568207f4a00a62ce9876e027f7a954f96c485c63c9bf043bd1fe1012c5634cf959bf774319a00a601eedbcfef58146bdda9845fea5d9356b09d667010d557c73f83353a119a6"
          },
          {
            "from": "0x4d5Cf5032B2a844602278b01199ED191A86c93ff",
            "to": "contract",
            "nonce": 1,
            "value": "0",
            "contractName": "OpBlockInfo",
            "function": "opCoinbase",
            "params": [],
            "chainId": 1000,
            "reason": "",
            "gasLimit": 100000,
            "gasPrice": "1000000000",
            "data": "0xd1a82a9d",
            "customRawTx": "0xea01843b9aca00830186a0941275fbb540c8efc58b812ba83b0d0b8b9917ae988084d1a82a9d8203e880803c696d27506eebe00e52cd1c327eefd2ebb8c7a5d5309118ad18381630b2a5d47971958df81d8daa0d393daddb17a250c294452078db34b22d9e5ee85d2482e81bff",
            "rawTx": "0xf86a01843b9aca00830186a0941275fbb540c8efc58b812ba83b0d0b8b9917ae988084d1a82a9d8207f3a03c696d27506eebe00e52cd1c327eefd2ebb8c7a5d5309118ad18381630b2a5d4a07971958df81d8daa0d393daddb17a250c294452078db34b22d9e5ee85d2482e8"
          },
          {
            "from": "0x4d5Cf5032B2a844602278b01199ED191A86c93ff",
            "to": "contract",
            "nonce": 2,
            "value": "0",
            "contractName": "OpBlockInfo",
            "function": "opNumber",
            "params": [],
            "chainId": 1000,
            "reason": "",
            "gasLimit": 100000,
            "gasPrice": "1000000000",
            "data": "0x6d6516c0",
            "customRawTx": "0xea02843b9aca00830186a0941275fbb540c8efc58b812ba83b0d0b8b9917ae9880846d6516c08203e88080db91fc325e867faa9625a5c7c152dfaf207a992b6eea855fcabe264f489b043a431f20ba77bd0269a6aedb6287118d383305d0dd677478209e60f6d3af3b17201cff",
            "rawTx": "0xf86a02843b9aca00830186a0941275fbb540c8efc58b812ba83b0d0b8b9917ae9880846d6516c08207f4a0db91fc325e867faa9625a5c7c152dfaf207a992b6eea855fcabe264f489b043aa0431f20ba77bd0269a6aedb6287118d383305d0dd677478209e60f6d3af3b1720"
          },
          {
            "from": "0x4d5Cf5032B2a844602278b01199ED191A86c93ff",
            "to": "contract",
            "nonce": 3,
            "value": "0",
            "contractName": "OpBlockInfo",
            "function": "opDifficulty",
            "params": [],
            "chainId": 1000,
            "reason": "",
            "gasLimit": 100000,
            "gasPrice": "1000000000",
            "data": "0xb6baffe3",
            "customRawTx": "0xea03843b9aca00830186a0941275fbb540c8efc58b812ba83b0d0b8b9917ae988084b6baffe38203e88080e0c0469634b096c3b190713c8a8faa9c4fccc8b2d83cc8da056a897a28a616277c5bf403ce3a4c77cb0c6ca14cdd24d8fa785b4a0bde1500abba55db7df7483a1bff",
            "rawTx": "0xf86a03843b9aca00830186a0941275fbb540c8efc58b812ba83b0d0b8b9917ae988084b6baffe38207f3a0e0c0469634b096c3b190713c8a8faa9c4fccc8b2d83cc8da056a897a28a61627a07c5bf403ce3a4c77cb0c6ca14cdd24d8fa785b4a0bde1500abba55db7df7483a"
          },
          {
            "from": "0x4d5Cf5032B2a844602278b01199ED191A86c93ff",
            "to": "contract",
            "nonce": 4,
            "value": "0",
            "contractName": "OpBlockInfo",
            "function": "opGasLimit",
            "params": [],
            "chainId": 1000,
            "reason": "",
            "gasLimit": 100000,
            "gasPrice": "1000000000",
            "data": "0x1a93d1c3",
            "customRawTx": "0xea04843b9aca00830186a0941275fbb540c8efc58b812ba83b0d0b8b9917ae9880841a93d1c38203e8808057c7bfa7288275d862a91776d6d05c2290058a42840f08108b8b157f139120ce565bc8d0b5291e949c1c87e2f829b76d6a5d15e767e61716d1095dcc7cb5b44d1cff",
            "rawTx": "0xf86a04843b9aca00830186a0941275fbb540c8efc58b812ba83b0d0b8b9917ae9880841a93d1c38207f4a057c7bfa7288275d862a91776d6d05c2290058a42840f08108b8b157f139120cea0565bc8d0b5291e949c1c87e2f829b76d6a5d15e767e61716d1095dcc7cb5b44d"
          },
          {
            "from": "0x4d5Cf5032B2a844602278b01199ED191A86c93ff",
            "to": "contract",
            "nonce": 5,
            "value": "0",
            "contractName": "OpBlockInfo",
            "function": "opChainId",
            "params": [],
            "chainId": 1000,
            "reason": "",
            "gasLimit": 100000,
            "gasPrice": "1000000000",
            "data": "0x3408e470",
            "customRawTx": "0xea05843b9aca00830186a0941275fbb540c8efc58b812ba83b0d0b8b9917ae9880843408e4708203e88080e255f868a61169a2330cb539671e1a66ee846bc06cc888ea8fcd7ae51cdc62940c6dec27e6f756dd84923bcebb1f85db125299c0b622eaa8d5722cb3dace239d1cff",
            "rawTx": "0xf86a05843b9aca00830186a0941275fbb540c8efc58b812ba83b0d0b8b9917ae9880843408e4708207f4a0e255f868a61169a2330cb539671e1a66ee846bc06cc888ea8fcd7ae51cdc6294a00c6dec27e6f756dd84923bcebb1f85db125299c0b622eaa8d5722cb3dace239d"
          },
          {
            "from": "0x4d5Cf5032B2a844602278b01199ED191A86c93ff",
            "to": "contract",
            "nonce": 6,
            "value": "0",
            "contractName": "OpBlockInfo",
            "function": "opBlockHash",
            "params": [
              0
            ],
            "chainId": 1000,
            "reason": "",
            "gasLimit": 100000,
            "gasPrice": "1000000000",
            "data": "0xe9413d380000000000000000000000000000000000000000000000000000000000000000",
            "customRawTx": "0xf84a06843b9aca00830186a0941275fbb540c8efc58b812ba83b0d0b8b9917ae9880a4e9413d3800000000000000000000000000000000000000000000000000000000000000008203e8808098f56115cad149a409a86e7610863248799a31d80e87d46582d08a3c0933a40a25455a74fa3ca2ada0bf39dac88a172d032583bfec15061f39184ef9f70126771cff",
            "rawTx": "0xf88a06843b9aca00830186a0941275fbb540c8efc58b812ba83b0d0b8b9917ae9880a4e9413d3800000000000000000000000000000000000000000000000000000000000000008207f4a098f56115cad149a409a86e7610863248799a31d80e87d46582d08a3c0933a40aa025455a74fa3ca2ada0bf39dac88a172d032583bfec15061f39184ef9f7012677"
          }
        ],
        "expectedNewRoot": "0x501d006ddb7f7890c729b4f55dfb64d4ff1dcfe9be3bb21e91b6f1f3d837d785",
        "expectedNewLeafs": {
          "0xa40d5f56745a118d0906a34e69aec8c0db1cb8fa": {
            "balance": "0",
            "nonce": "0",
            "storage": {
              "0xa1cf62fa0d95d8eeee4c409ad79cecceb916bc269e2baeace39036c2d9dda8e8": "0x01"
            }
          },
          "0x617b3a3528f9cdd6630fd3301b9c8911f7bf063d": {
            "balance": "100000043449000000000",
            "nonce": "0"
          },
          "0x4d5cf5032b2a844602278b01199ed191a86c93ff": {
            "balance": "199999956551000000000",
            "nonce": "1"
          },
          "0x1275fbb540c8efc58b812ba83b0d0b8b9917ae98": {
            "balance": "0",
            "nonce": "1",
            "storage": {
              "0x0000000000000000000000000000000000000000000000000000000000000002": "0x01"
            }
          },
          "0x000000000000000000000000000000005ca1ab1e": {
            "balance": "0",
            "nonce": "0",
            "storage": {
              "0x0000000000000000000000000000000000000000000000000000000000000000": "0x01",
              "0x0000000000000000000000000000000000000000000000000000000000000002": "0x01",
              "0xa6eef7e35abe7026729641147f7915573c7e97b47efa546f5f6e3230263bcb49": "0x305f6aba22392c0c7c9d6ade7fb60d9b4550a26c724f77d827e7619c1bd3e5e1",
              "0x0000000000000000000000000000000000000000000000000000000000000003": "0xbe92bb20e9361ba9d0d39e7a1d9b8c5d0f24e154ba4a23eec79fb5e2531489ca"
            }
          }
        },
        "batchL2Data": "0x0b000000000000000100000001ee80843b9aca00830186a0941275fbb540c8efc58b812ba83b0d0b8b9917ae98808848796d71188ec3568203e88080e922e1ffaf4b712aa761bbd204602522956fa5bc550fe43580d7345c8b91916831a814f498cabcd547adcc5b6394ce5bec26d07e0fce1909fcfd5cdf724ef6c01bffee80843b9aca00830186a0941275fbb540c8efc58b812ba83b0d0b8b9917ae98808848796d71188ec3568203e88080e922e1ffaf4b712aa761bbd204602522956fa5bc550fe43580d7345c8b91916831a814f498cabcd547adcc5b6394ce5bec26d07e0fce1909fcfd5cdf724ef6c01bffee80843b9aca00830186a0941275fbb540c8efc58b812ba83b0d0b8b9917ae98808848796d71188ec3568203e88080e922e1ffaf4b712aa761bbd204602522956fa5bc550fe43580d7345c8b91916831a814f498cabcd547adcc5b6394ce5bec26d07e0fce1909fcfd5cdf724ef6c01bffee80843b9aca00830186a0941275fbb540c8efc58b812ba83b0d0b8b9917ae98808848796d71188ec3568203e88080e922e1ffaf4b712aa761bbd204602522956fa5bc550fe43580d7345c8b91916831a814f498cabcd547adcc5b6394ce5bec26d07e0fce1909fcfd5cdf724ef6c01bffee80843b9aca00830186a0941275fbb540c8efc58b812ba83b0d0b8b9917ae98808848796d71188ec3568203e88080e922e1ffaf4b712aa761bbd204602522956fa5bc550fe43580d7345c8b91916831a814f498cabcd547adcc5b6394ce5bec26d07e0fce1909fcfd5cdf724ef6c01bffee80843b9aca00830186a0941275fbb540c8efc58b812ba83b0d0b8b9917ae98808848796d71188ec3568203e88080e922e1ffaf4b712aa761bbd204602522956fa5bc550fe43580d7345c8b91916831a814f498cabcd547adcc5b6394ce5bec26d07e0fce1909fcfd5cdf724ef6c01bffee80843b9aca00830186a0941275fbb540c8efc58b812ba83b0d0b8b9917ae98808848796d71188ec3568203e88080e922e1ffaf4b712aa761bbd204602522956fa5bc550fe43580d7345c8b91916831a814f498cabcd547adcc5b6394ce5bec26d07e0fce1909fcfd5cdf724ef6c01bff",
        "historicGERRoot": "0x090bcaf734c4f06c93954a827b45a6e8c67b8e0fd1e0a35a1c5982d6961828f9",
        "newLocalExitRoot": "0x0000000000000000000000000000000000000000000000000000000000000000",
        "batchHashData": "0xc593abcdf8de5f8f26f9f876263e9660d0cd00663535132f8e5d12358f083d1a",
        "timestamp": 1944498031,
        "virtualCounters": {
          "steps": 118745,
          "arith": 8877,
          "binary": 14636,
          "memAlign": 2,
          "keccaks": 30,
          "padding": 189,
          "poseidon": 19665
        }
      },
      {
        "txs": [
          {
            "from": "0x4d5Cf5032B2a844602278b01199ED191A86c93ff",
            "to": "contract",
            "nonce": 7,
            "value": "0",
            "contractName": "OpBlockInfo",
            "function": "opTimestamp",
            "params": [],
            "chainId": 1000,
            "reason": "",
            "gasLimit": 100000,
            "gasPrice": "1000000000",
            "data": "0x188ec356",
            "customRawTx": "0xea07843b9aca00830186a0941275fbb540c8efc58b812ba83b0d0b8b9917ae988084188ec3568203e880800be264304cfc20c400929c82d1435cfbaa18e9a49c34ce65274633820803c415132ab24e00f892d77ad39c87e897772100e3323f31915a3e5eb261e056d99bc31bff",
            "rawTx": "0xf86a07843b9aca00830186a0941275fbb540c8efc58b812ba83b0d0b8b9917ae988084188ec3568207f3a00be264304cfc20c400929c82d1435cfbaa18e9a49c34ce65274633820803c415a0132ab24e00f892d77ad39c87e897772100e3323f31915a3e5eb261e056d99bc3"
          },
          {
            "from": "0x4d5Cf5032B2a844602278b01199ED191A86c93ff",
            "to": "contract",
            "nonce": 8,
            "value": "0",
            "contractName": "OpBlockInfo",
            "function": "opCoinbase",
            "params": [],
            "chainId": 1000,
            "reason": "",
            "gasLimit": 100000,
            "gasPrice": "1000000000",
            "data": "0xd1a82a9d",
            "customRawTx": "0xea08843b9aca00830186a0941275fbb540c8efc58b812ba83b0d0b8b9917ae988084d1a82a9d8203e88080775e9a77a45dafb120ec840926129c5db8ad3843722de88f2c7f6df4383c92fe0176dcd120e97ff6a1a1d60150aac3fdbca81bbfd1e2e9349ed9da4fa3bd85a81bff",
            "rawTx": "0xf86a08843b9aca00830186a0941275fbb540c8efc58b812ba83b0d0b8b9917ae988084d1a82a9d8207f3a0775e9a77a45dafb120ec840926129c5db8ad3843722de88f2c7f6df4383c92fea00176dcd120e97ff6a1a1d60150aac3fdbca81bbfd1e2e9349ed9da4fa3bd85a8"
          },
          {
            "from": "0x4d5Cf5032B2a844602278b01199ED191A86c93ff",
            "to": "contract",
            "nonce": 9,
            "value": "0",
            "contractName": "OpBlockInfo",
            "function": "opNumber",
            "params": [],
            "chainId": 1000,
            "reason": "",
            "gasLimit": 100000,
            "gasPrice": "1000000000",
            "data": "0x6d6516c0",
            "customRawTx": "0xea09843b9aca00830186a0941275fbb540c8efc58b812ba83b0d0b8b9917ae9880846d6516c08203e88080f969b5ab22f54db86a57efcfa83f3369047d328d2c56044bd49d7f863e69ed2b5a95c2b1b41801a5b4d7bb548829fe5a51c72dd5e5a08bd2a56f49bc3246a3081cff",
            "rawTx": "0xf86a09843b9aca00830186a0941275fbb540c8efc58b812ba83b0d0b8b9917ae9880846d6516c08207f4a0f969b5ab22f54db86a57efcfa83f3369047d328d2c56044bd49d7f863e69ed2ba05a95c2b1b41801a5b4d7bb548829fe5a51c72dd5e5a08bd2a56f49bc3246a308"
          },
          {
            "from": "0x4d5Cf5032B2a844602278b01199ED191A86c93ff",
            "to": "contract",
            "nonce": 10,
            "value": "0",
            "contractName": "OpBlockInfo",
            "function": "opDifficulty",
            "params": [],
            "chainId": 1000,
            "reason": "",
            "gasLimit": 100000,
            "gasPrice": "1000000000",
            "data": "0xb6baffe3",
            "customRawTx": "0xea0a843b9aca00830186a0941275fbb540c8efc58b812ba83b0d0b8b9917ae988084b6baffe38203e88080b60beddfce8bf365e93cb4f88f45ed0e5649659de56dbf52332e6c9c16aa10bd576fb90bd967e2495fe8fa09d75d58b82668c54dab54d91f5e4ab0d76d2649ae1bff",
            "rawTx": "0xf86a0a843b9aca00830186a0941275fbb540c8efc58b812ba83b0d0b8b9917ae988084b6baffe38207f3a0b60beddfce8bf365e93cb4f88f45ed0e5649659de56dbf52332e6c9c16aa10bda0576fb90bd967e2495fe8fa09d75d58b82668c54dab54d91f5e4ab0d76d2649ae"
          },
          {
            "from": "0x4d5Cf5032B2a844602278b01199ED191A86c93ff",
            "to": "contract",
            "nonce": 11,
            "value": "0",
            "contractName": "OpBlockInfo",
            "function": "getGasLimit",
            "params": [],
            "chainId": 1000,
            "reason": "",
            "gasLimit": 100000,
            "gasPrice": "1000000000",
            "data": "0x1a93d1c3",
            "customRawTx": "0xea0b843b9aca00830186a0941275fbb540c8efc58b812ba83b0d0b8b9917ae9880841a93d1c38203e88080416d143b11a02e0c28344feb6af0f90ecb5b0bd5eec26047b25c0f775502be751e40d32fefe94aee39ad9b2605afeb2e86f31b56ac82874f841054c6a01331851bff",
            "rawTx": "0xf86a0b843b9aca00830186a0941275fbb540c8efc58b812ba83b0d0b8b9917ae9880841a93d1c38207f3a0416d143b11a02e0c28344feb6af0f90ecb5b0bd5eec26047b25c0f775502be75a01e40d32fefe94aee39ad9b2605afeb2e86f31b56ac82874f841054c6a0133185"
          },
          {
            "from": "0x4d5Cf5032B2a844602278b01199ED191A86c93ff",
            "to": "contract",
            "nonce": 12,
            "value": "0",
            "contractName": "OpBlockInfo",
            "function": "getChainId",
            "params": [],
            "chainId": 1000,
            "reason": "",
            "gasLimit": 100000,
            "gasPrice": "1000000000",
            "data": "0x3408e470",
            "customRawTx": "0xea0c843b9aca00830186a0941275fbb540c8efc58b812ba83b0d0b8b9917ae9880843408e4708203e88080a1ec9b236321a7d3545cfe1a1baedf65d75e589223d732d424576756adb0396e74470d226d5b61895150d96dbd1b1ba8a8ad69a6bf9311a141ece602b6420d961cff",
            "rawTx": "0xf86a0c843b9aca00830186a0941275fbb540c8efc58b812ba83b0d0b8b9917ae9880843408e4708207f4a0a1ec9b236321a7d3545cfe1a1baedf65d75e589223d732d424576756adb0396ea074470d226d5b61895150d96dbd1b1ba8a8ad69a6bf9311a141ece602b6420d96"
          },
          {
            "from": "0x4d5Cf5032B2a844602278b01199ED191A86c93ff",
            "to": "contract",
            "nonce": 13,
            "value": "0",
            "contractName": "OpBlockInfo",
            "function": "getBlockhash",
            "params": [
              1
            ],
            "chainId": 1000,
            "reason": "",
            "gasLimit": 100000,
            "gasPrice": "1000000000",
            "data": "0xe9413d380000000000000000000000000000000000000000000000000000000000000001",
            "customRawTx": "0xf84a0d843b9aca00830186a0941275fbb540c8efc58b812ba83b0d0b8b9917ae9880a4e9413d3800000000000000000000000000000000000000000000000000000000000000018203e8808068ad61295298051fac15519066926aad57ed5af83b351e586a0fbe70006c48295695cc59543fd10d4af41a8a266aef5efd2d691abc356fc679c66e2545fd9ef61bff",
            "rawTx": "0xf88a0d843b9aca00830186a0941275fbb540c8efc58b812ba83b0d0b8b9917ae9880a4e9413d3800000000000000000000000000000000000000000000000000000000000000018207f3a068ad61295298051fac15519066926aad57ed5af83b351e586a0fbe70006c4829a05695cc59543fd10d4af41a8a266aef5efd2d691abc356fc679c66e2545fd9ef6"
          }
        ],
        "expectedNewRoot": "0x3bb2700299a1316585eb12699c4c163342c24143462c12b33b914df058173640",
        "expectedNewLeafs": {
          "0x000000000000000000000000000000005ca1ab1e": {
            "balance": "0",
            "nonce": "0",
            "storage": {
              "0x0000000000000000000000000000000000000000000000000000000000000000": "0x02",
              "0x0000000000000000000000000000000000000000000000000000000000000002": "0x02",
              "0xa6eef7e35abe7026729641147f7915573c7e97b47efa546f5f6e3230263bcb49": "0x305f6aba22392c0c7c9d6ade7fb60d9b4550a26c724f77d827e7619c1bd3e5e1",
              "0x0000000000000000000000000000000000000000000000000000000000000003": "0x1c5ff1446761d681472c470af8b86204d417825d059b243ed12cdc658a912fdb",
              "0xcc69885fda6bcc1a4ace058b4a62bf5e179ea78fd58a1ccd71c22cc9b688792f": "0x501d006ddb7f7890c729b4f55dfb64d4ff1dcfe9be3bb21e91b6f1f3d837d785"
            }
          },
          "0x617b3a3528f9cdd6630fd3301b9c8911f7bf063d": {
            "nonce": "0",
            "balance": "100000000000000000000",
            "pvtKey": "0x28b2b0318721be8c8339199172cd7cc8f5e273800a35616ec893083a4b32c02e"
          },
          "0x4d5cf5032b2a844602278b01199ed191a86c93ff": {
            "nonce": "0",
            "balance": "200000000000000000000",
            "pvtKey": "0x4d27a600dce8c29b7bd080e29a26972377dbb04d7a27d919adbb602bf13cfd23"
          },
          "0x1275fbb540c8efc58b812ba83b0d0b8b9917ae98": {
            "nonce": 1,
            "balance": 0,
            "abi": [
              {
                "inputs": [
                  {
                    "internalType": "uint256",
                    "name": "numBatch",
                    "type": "uint256"
                  }
                ],
                "name": "opBlockHash",
                "outputs": [],
                "stateMutability": "nonpayable",
                "type": "function"
              },
              {
                "inputs": [],
                "name": "opChainId",
                "outputs": [],
                "stateMutability": "nonpayable",
                "type": "function"
              },
              {
                "inputs": [],
                "name": "opCoinbase",
                "outputs": [],
                "stateMutability": "nonpayable",
                "type": "function"
              },
              {
                "inputs": [],
                "name": "opDifficulty",
                "outputs": [],
                "stateMutability": "nonpayable",
                "type": "function"
              },
              {
                "inputs": [],
                "name": "opGasLimit",
                "outputs": [],
                "stateMutability": "nonpayable",
                "type": "function"
              },
              {
                "inputs": [],
                "name": "opNumber",
                "outputs": [],
                "stateMutability": "nonpayable",
                "type": "function"
              },
              {
                "inputs": [],
                "name": "opSelfBalance",
                "outputs": [],
                "stateMutability": "nonpayable",
                "type": "function"
              },
              {
                "inputs": [],
                "name": "opTimestamp",
                "outputs": [],
                "stateMutability": "nonpayable",
                "type": "function"
              },
              {
                "inputs": [],
                "name": "test",
                "outputs": [
                  {
                    "internalType": "uint256",
                    "name": "",
                    "type": "uint256"
                  }
                ],
                "stateMutability": "view",
                "type": "function"
              },
              {
                "inputs": [],
                "name": "testBlockhash",
                "outputs": [
                  {
                    "internalType": "bytes32",
                    "name": "",
                    "type": "bytes32"
                  }
                ],
                "stateMutability": "view",
                "type": "function"
              },
              {
                "inputs": [],
                "name": "testCoinbase",
                "outputs": [
                  {
                    "internalType": "address",
                    "name": "",
                    "type": "address"
                  }
                ],
                "stateMutability": "view",
                "type": "function"
              },
              {
                "stateMutability": "payable",
                "type": "receive"
              }
            ],
            "storage": {
              "0x0000000000000000000000000000000000000000000000000000000000000002": "0x01"
            }
          }
        },
        "batchL2Data": "0x0b000000000000000100000001ee08843b9aca00830186a0941275fbb540c8efc58b812ba83b0d0b8b9917ae988088ac580f9ad1a82a9d8203e880803db9b321cdeb22fabaed33da8514ee9212c88f4af47de76e61ec612042feaefc393a60f67b33ac6b4426e0e5a955edf82848f5241d8de5010355df1838ac9ca61bffee08843b9aca00830186a0941275fbb540c8efc58b812ba83b0d0b8b9917ae988088ac580f9ad1a82a9d8203e880803db9b321cdeb22fabaed33da8514ee9212c88f4af47de76e61ec612042feaefc393a60f67b33ac6b4426e0e5a955edf82848f5241d8de5010355df1838ac9ca61bffee08843b9aca00830186a0941275fbb540c8efc58b812ba83b0d0b8b9917ae988088ac580f9ad1a82a9d8203e880803db9b321cdeb22fabaed33da8514ee9212c88f4af47de76e61ec612042feaefc393a60f67b33ac6b4426e0e5a955edf82848f5241d8de5010355df1838ac9ca61bffee08843b9aca00830186a0941275fbb540c8efc58b812ba83b0d0b8b9917ae988088ac580f9ad1a82a9d8203e880803db9b321cdeb22fabaed33da8514ee9212c88f4af47de76e61ec612042feaefc393a60f67b33ac6b4426e0e5a955edf82848f5241d8de5010355df1838ac9ca61bffee08843b9aca00830186a0941275fbb540c8efc58b812ba83b0d0b8b9917ae988088ac580f9ad1a82a9d8203e880803db9b321cdeb22fabaed33da8514ee9212c88f4af47de76e61ec612042feaefc393a60f67b33ac6b4426e0e5a955edf82848f5241d8de5010355df1838ac9ca61bffee08843b9aca00830186a0941275fbb540c8efc58b812ba83b0d0b8b9917ae988088ac580f9ad1a82a9d8203e880803db9b321cdeb22fabaed33da8514ee9212c88f4af47de76e61ec612042feaefc393a60f67b33ac6b4426e0e5a955edf82848f5241d8de5010355df1838ac9ca61bffee08843b9aca00830186a0941275fbb540c8efc58b812ba83b0d0b8b9917ae988088ac580f9ad1a82a9d8203e880803db9b321cdeb22fabaed33da8514ee9212c88f4af47de76e61ec612042feaefc393a60f67b33ac6b4426e0e5a955edf82848f5241d8de5010355df1838ac9ca61bff",
        "historicGERRoot": "0x090bcaf734c4f06c93954a827b45a6e8c67b8e0fd1e0a35a1c5982d6961828f9",
        "newLocalExitRoot": "0x0000000000000000000000000000000000000000000000000000000000000000",
        "batchHashData": "0xdc208c0db6a4e0b1ed1c1424e83e7859c44c96d575d0c742fee8e8c16196294c",
        "timestamp": 1944498031,
        "virtualCounters": {
          "steps": 115135,
          "arith": 8870,
          "binary": 14469,
          "memAlign": 0,
          "keccaks": 30,
          "padding": 189,
          "poseidon": 19275
        }
      },
      {
        "txs": [],
        "expectedNewRoot": "0x5e4c14cb617409549b19b11112b2d6105c01e47b9dd1a66904e7f158a8483789",
        "expectedNewLeafs": {
          "0x000000000000000000000000000000005ca1ab1e": {
            "balance": "0",
            "nonce": "0",
            "storage": {
              "0x0000000000000000000000000000000000000000000000000000000000000000": "0x03",
              "0x0000000000000000000000000000000000000000000000000000000000000002": "0x03",
              "0xa6eef7e35abe7026729641147f7915573c7e97b47efa546f5f6e3230263bcb49": "0x305f6aba22392c0c7c9d6ade7fb60d9b4550a26c724f77d827e7619c1bd3e5e1",
              "0x0000000000000000000000000000000000000000000000000000000000000003": "0xd1abc197ce86c67b9cfd74f6ec2d4fae50a46e8a9744efbbca36446484b520a1",
              "0xcc69885fda6bcc1a4ace058b4a62bf5e179ea78fd58a1ccd71c22cc9b688792f": "0x501d006ddb7f7890c729b4f55dfb64d4ff1dcfe9be3bb21e91b6f1f3d837d785",
              "0xd9d16d34ffb15ba3a3d852f0d403e2ce1d691fb54de27ac87cd2f993f3ec330f": "0x3bb2700299a1316585eb12699c4c163342c24143462c12b33b914df058173640"
            }
          },
          "0x617b3a3528f9cdd6630fd3301b9c8911f7bf063d": {
            "nonce": "0",
            "balance": "100000000000000000000",
            "pvtKey": "0x28b2b0318721be8c8339199172cd7cc8f5e273800a35616ec893083a4b32c02e"
          },
          "0x4d5cf5032b2a844602278b01199ed191a86c93ff": {
            "nonce": "0",
            "balance": "200000000000000000000",
            "pvtKey": "0x4d27a600dce8c29b7bd080e29a26972377dbb04d7a27d919adbb602bf13cfd23"
          },
          "0x1275fbb540c8efc58b812ba83b0d0b8b9917ae98": {
            "nonce": 1,
            "balance": 0,
            "abi": [
              {
                "inputs": [
                  {
                    "internalType": "uint256",
                    "name": "numBatch",
                    "type": "uint256"
                  }
                ],
                "name": "opBlockHash",
                "outputs": [],
                "stateMutability": "nonpayable",
                "type": "function"
              },
              {
                "inputs": [],
                "name": "opChainId",
                "outputs": [],
                "stateMutability": "nonpayable",
                "type": "function"
              },
              {
                "inputs": [],
                "name": "opCoinbase",
                "outputs": [],
                "stateMutability": "nonpayable",
                "type": "function"
              },
              {
                "inputs": [],
                "name": "opDifficulty",
                "outputs": [],
                "stateMutability": "nonpayable",
                "type": "function"
              },
              {
                "inputs": [],
                "name": "opGasLimit",
                "outputs": [],
                "stateMutability": "nonpayable",
                "type": "function"
              },
              {
                "inputs": [],
                "name": "opNumber",
                "outputs": [],
                "stateMutability": "nonpayable",
                "type": "function"
              },
              {
                "inputs": [],
                "name": "opSelfBalance",
                "outputs": [],
                "stateMutability": "nonpayable",
                "type": "function"
              },
              {
                "inputs": [],
                "name": "opTimestamp",
                "outputs": [],
                "stateMutability": "nonpayable",
                "type": "function"
              },
              {
                "inputs": [],
                "name": "test",
                "outputs": [
                  {
                    "internalType": "uint256",
                    "name": "",
                    "type": "uint256"
                  }
                ],
                "stateMutability": "view",
                "type": "function"
              },
              {
                "inputs": [],
                "name": "testBlockhash",
                "outputs": [
                  {
                    "internalType": "bytes32",
                    "name": "",
                    "type": "bytes32"
                  }
                ],
                "stateMutability": "view",
                "type": "function"
              },
              {
                "inputs": [],
                "name": "testCoinbase",
                "outputs": [
                  {
                    "internalType": "address",
                    "name": "",
                    "type": "address"
                  }
                ],
                "stateMutability": "view",
                "type": "function"
              },
              {
                "stateMutability": "payable",
                "type": "receive"
              }
            ],
            "storage": {
              "0x0000000000000000000000000000000000000000000000000000000000000002": "0x01"
            }
          }
        },
        "batchL2Data": "0x0b000000000000000100000001",
        "historicGERRoot": "0x190bcaf734c4f06c93954a827b45a6e8c67b8e0fd1e0a35a1c5982d6961828f9",
        "newLocalExitRoot": "0x0000000000000000000000000000000000000000000000000000000000000000",
        "batchHashData": "0xd2425cc0c2f857c894589599bd948528bb48b59c54d5e57cb5487c71065547a1",
        "timestamp": 1944498033,
        "virtualCounters": {
          "steps": 552,
          "arith": 1,
          "binary": 21,
          "memAlign": 0,
          "keccaks": 4,
          "padding": 0,
          "poseidon": 1054
        }
      },
      {
        "txs": [],
        "expectedNewRoot": "0x742716c1366e8cb8051b96bcb09261d7d3aff8881e4810819faaf68a02642e2d",
        "expectedNewLeafs": {
          "0x000000000000000000000000000000005ca1ab1e": {
            "balance": "0",
            "nonce": "0",
            "storage": {
              "0x0000000000000000000000000000000000000000000000000000000000000000": "0x04",
              "0x0000000000000000000000000000000000000000000000000000000000000002": "0x04",
              "0xa6eef7e35abe7026729641147f7915573c7e97b47efa546f5f6e3230263bcb49": "0x305f6aba22392c0c7c9d6ade7fb60d9b4550a26c724f77d827e7619c1bd3e5e1",
              "0x0000000000000000000000000000000000000000000000000000000000000003": "0x124fb56eaca6425488f7d5ecd7fca6fdf60f5846873b3dcb8f5860b64e4ee681",
              "0xcc69885fda6bcc1a4ace058b4a62bf5e179ea78fd58a1ccd71c22cc9b688792f": "0x501d006ddb7f7890c729b4f55dfb64d4ff1dcfe9be3bb21e91b6f1f3d837d785",
              "0xd9d16d34ffb15ba3a3d852f0d403e2ce1d691fb54de27ac87cd2f993f3ec330f": "0x3bb2700299a1316585eb12699c4c163342c24143462c12b33b914df058173640",
              "0x7dfe757ecd65cbd7922a9c0161e935dd7fdbcc0e999689c7d31633896b1fc60b": "0x5e4c14cb617409549b19b11112b2d6105c01e47b9dd1a66904e7f158a8483789"
            }
          },
          "0x617b3a3528f9cdd6630fd3301b9c8911f7bf063d": {
            "nonce": "0",
            "balance": "100000000000000000000",
            "pvtKey": "0x28b2b0318721be8c8339199172cd7cc8f5e273800a35616ec893083a4b32c02e"
          },
          "0x4d5cf5032b2a844602278b01199ed191a86c93ff": {
            "nonce": "0",
            "balance": "200000000000000000000",
            "pvtKey": "0x4d27a600dce8c29b7bd080e29a26972377dbb04d7a27d919adbb602bf13cfd23"
          },
          "0x1275fbb540c8efc58b812ba83b0d0b8b9917ae98": {
            "nonce": 1,
            "balance": 0,
            "abi": [
              {
                "inputs": [
                  {
                    "internalType": "uint256",
                    "name": "numBatch",
                    "type": "uint256"
                  }
                ],
                "name": "opBlockHash",
                "outputs": [],
                "stateMutability": "nonpayable",
                "type": "function"
              },
              {
                "inputs": [],
                "name": "opChainId",
                "outputs": [],
                "stateMutability": "nonpayable",
                "type": "function"
              },
              {
                "inputs": [],
                "name": "opCoinbase",
                "outputs": [],
                "stateMutability": "nonpayable",
                "type": "function"
              },
              {
                "inputs": [],
                "name": "opDifficulty",
                "outputs": [],
                "stateMutability": "nonpayable",
                "type": "function"
              },
              {
                "inputs": [],
                "name": "opGasLimit",
                "outputs": [],
                "stateMutability": "nonpayable",
                "type": "function"
              },
              {
                "inputs": [],
                "name": "opNumber",
                "outputs": [],
                "stateMutability": "nonpayable",
                "type": "function"
              },
              {
                "inputs": [],
                "name": "opSelfBalance",
                "outputs": [],
                "stateMutability": "nonpayable",
                "type": "function"
              },
              {
                "inputs": [],
                "name": "opTimestamp",
                "outputs": [],
                "stateMutability": "nonpayable",
                "type": "function"
              },
              {
                "inputs": [],
                "name": "test",
                "outputs": [
                  {
                    "internalType": "uint256",
                    "name": "",
                    "type": "uint256"
                  }
                ],
                "stateMutability": "view",
                "type": "function"
              },
              {
                "inputs": [],
                "name": "testBlockhash",
                "outputs": [
                  {
                    "internalType": "bytes32",
                    "name": "",
                    "type": "bytes32"
                  }
                ],
                "stateMutability": "view",
                "type": "function"
              },
              {
                "inputs": [],
                "name": "testCoinbase",
                "outputs": [
                  {
                    "internalType": "address",
                    "name": "",
                    "type": "address"
                  }
                ],
                "stateMutability": "view",
                "type": "function"
              },
              {
                "stateMutability": "payable",
                "type": "receive"
              }
            ],
            "storage": {
              "0x0000000000000000000000000000000000000000000000000000000000000002": "0x01"
            }
          }
        },
        "batchL2Data": "0x0b000000000000000100000001",
        "historicGERRoot": "0x190bcaf734c4f06c93954a827b45a6e8c67b8e0fd1e0a35a1c5982d6961828f9",
        "newLocalExitRoot": "0x0000000000000000000000000000000000000000000000000000000000000000",
        "batchHashData": "0xd2425cc0c2f857c894589599bd948528bb48b59c54d5e57cb5487c71065547a1",
        "timestamp": 1944498042,
        "virtualCounters": {
          "steps": 552,
          "arith": 1,
          "binary": 21,
          "memAlign": 0,
          "keccaks": 4,
          "padding": 0,
          "poseidon": 1054
        }
      }
    ],
    "forkID": 6
  }
]