[
  {
    "id": 0,
    "description": "Get timestamp",
    "defaultChainId": 1000,
    "sequencerAddress": "0x617b3a3528F9cDd6630fd3301B9c8911F7Bf063D",
    "sequencerPvtKey": "0x28b2b0318721be8c8339199172cd7cc8f5e273800a35616ec893083a4b32c02e",
    "genesis": [
      {
        "address": "0x617b3a3528F9cDd6630fd3301B9c8911F7Bf063D",
        "nonce": "0",
        "balance": "100000000000000000000",
        "pvtKey": "0x28b2b0318721be8c8339199172cd7cc8f5e273800a35616ec893083a4b32c02e"
      },
      {
        "address": "0x4d5Cf5032B2a844602278b01199ED191A86c93ff",
        "nonce": "0",
        "balance": "200000000000000000000",
        "pvtKey": "0x4d27a600dce8c29b7bd080e29a26972377dbb04d7a27d919adbb602bf13cfd23"
      },
      {
        "address": "0x1275fbb540c8efc58b812ba83b0d0b8b9917ae98",
        "nonce": 1,
        "balance": 0,
        "bytecode": "0x6080604052600436106100a05760003560e01c806388cbe50d1161006457806388cbe50d14610133578063ab8fd80c1461014a578063ac580f9a14610175578063b890daa81461018c578063c157b304146101a3578063f8a8fd6d146101cc576100a7565b8063301711df146100ac57806335b15493146100c3578063448bdac6146100da57806348796d71146100f1578063773a54d014610108576100a7565b366100a757005b600080fd5b3480156100b857600080fd5b506100c16101f7565b005b3480156100cf57600080fd5b506100d86101ff565b005b3480156100e657600080fd5b506100ef610207565b005b3480156100fd57600080fd5b5061010661020f565b005b34801561011457600080fd5b5061011d610217565b60405161012a91906102d8565b60405180910390f35b34801561013f57600080fd5b5061014861023b565b005b34801561015657600080fd5b5061015f610243565b60405161016c91906102f3565b60405180910390f35b34801561018157600080fd5b5061018a610249565b005b34801561019857600080fd5b506101a1610251565b005b3480156101af57600080fd5b506101ca60048036038101906101c5919061027e565b610259565b005b3480156101d857600080fd5b506101e1610263565b6040516101ee919061030e565b60405180910390f35b448060025550565b468060025550565b438060025550565b428060025550565b60008054906101000a900473ffffffffffffffffffffffffffffffffffffffff1681565b458060025550565b60015481565b418060005550565b478060025550565b8040806001555050565b60025481565b60008135905061027881610374565b92915050565b6000602082840312156102945761029361036f565b5b60006102a284828501610269565b91505092915050565b6102b481610329565b82525050565b6102c38161033b565b82525050565b6102d281610365565b82525050565b60006020820190506102ed60008301846102ab565b92915050565b600060208201905061030860008301846102ba565b92915050565b600060208201905061032360008301846102c9565b92915050565b600061033482610345565b9050919050565b6000819050919050565b600073ffffffffffffffffffffffffffffffffffffffff82169050919050565b6000819050919050565b600080fd5b61037d81610365565b811461038857600080fd5b5056fea2646970667358221220d3a2ad1ac1bbd7cd5c3032e8a5cf66ce1d38f1dea07190e55faab24927d17ff764736f6c63430008070033",
        "abi": [
          {
            "inputs": [
              {
                "internalType": "uint256",
                "name": "numBatch",
                "type": "uint256"
              }
            ],
            "name": "opBlockHash",
            "outputs": [],
            "stateMutability": "nonpayable",
            "type": "function"
          },
          {
            "inputs": [],
            "name": "opChainId",
            "outputs": [],
            "stateMutability": "nonpayable",
            "type": "function"
          },
          {
            "inputs": [],
            "name": "opCoinbase",
            "outputs": [],
            "stateMutability": "nonpayable",
            "type": "function"
          },
          {
            "inputs": [],
            "name": "opDifficulty",
            "outputs": [],
            "stateMutability": "nonpayable",
            "type": "function"
          },
          {
            "inputs": [],
            "name": "opGasLimit",
            "outputs": [],
            "stateMutability": "nonpayable",
            "type": "function"
          },
          {
            "inputs": [],
            "name": "opNumber",
            "outputs": [],
            "stateMutability": "nonpayable",
            "type": "function"
          },
          {
            "inputs": [],
            "name": "opSelfBalance",
            "outputs": [],
            "stateMutability": "nonpayable",
            "type": "function"
          },
          {
            "inputs": [],
            "name": "opTimestamp",
            "outputs": [],
            "stateMutability": "nonpayable",
            "type": "function"
          },
          {
            "inputs": [],
            "name": "test",
            "outputs": [
              {
                "internalType": "uint256",
                "name": "",
                "type": "uint256"
              }
            ],
            "stateMutability": "view",
            "type": "function"
          },
          {
            "inputs": [],
            "name": "testBlockhash",
            "outputs": [
              {
                "internalType": "bytes32",
                "name": "",
                "type": "bytes32"
              }
            ],
            "stateMutability": "view",
            "type": "function"
          },
          {
            "inputs": [],
            "name": "testCoinbase",
            "outputs": [
              {
                "internalType": "address",
                "name": "",
                "type": "address"
              }
            ],
            "stateMutability": "view",
            "type": "function"
          },
          {
            "stateMutability": "payable",
            "type": "receive"
          }
        ],
        "storage": {}
      }
    ],
    "oldStateRoot": "0x9a77f147fbeb1aadfb9a4b08fb08fc3e3b3c21e3c791665522dfc40884ab2bb5",
    "oldLocalExitRoot": "0x0000000000000000000000000000000000000000000000000000000000000000",
    "oldBatchAccInputHash": "0x0000000000000000000000000000000000000000000000000000000000000000",
    "batches": [
      {
        "txs": [
          {
            "from": "0x4d5Cf5032B2a844602278b01199ED191A86c93ff",
            "to": "0x1275fbb540c8efc58b812ba83b0d0b8b9917ae98",
            "nonce": 0,
            "value": "0",
            "data": "0x48796d71188ec356",
            "gasLimit": 100000,
            "gasPrice": "1000000000",
            "chainId": 1000,
            "reason": "",
            "rawTx": "0xf86e80843b9aca00830186a0941275fbb540c8efc58b812ba83b0d0b8b9917ae98808848796d71188ec3568207f3a0e922e1ffaf4b712aa761bbd204602522956fa5bc550fe43580d7345c8b919168a031a814f498cabcd547adcc5b6394ce5bec26d07e0fce1909fcfd5cdf724ef6c0",
            "customRawTx": "0xee80843b9aca00830186a0941275fbb540c8efc58b812ba83b0d0b8b9917ae98808848796d71188ec3568203e88080e922e1ffaf4b712aa761bbd204602522956fa5bc550fe43580d7345c8b91916831a814f498cabcd547adcc5b6394ce5bec26d07e0fce1909fcfd5cdf724ef6c01bff"
          },
          {
            "from": "0x4d5Cf5032B2a844602278b01199ED191A86c93ff",
            "to": "0x1275fbb540c8efc58b812ba83b0d0b8b9917ae98",
            "nonce": 1,
            "value": "0",
            "data": "0xac580f9ad1a82a9d",
            "gasLimit": 100000,
            "gasPrice": "1000000000",
            "chainId": 1000,
            "reason": "",
            "rawTx": "0xf86e01843b9aca00830186a0941275fbb540c8efc58b812ba83b0d0b8b9917ae988088ac580f9ad1a82a9d8207f3a03e1294a7208caa4b4ddb6bf22b0a265189da99e5d50a81a5268fc887f48f1eb4a03146da096510a4dd91550d34ba074489ff393a09079f03b15ca72de4d91fc7d2",
            "customRawTx": "0xee01843b9aca00830186a0941275fbb540c8efc58b812ba83b0d0b8b9917ae988088ac580f9ad1a82a9d8203e880803e1294a7208caa4b4ddb6bf22b0a265189da99e5d50a81a5268fc887f48f1eb43146da096510a4dd91550d34ba074489ff393a09079f03b15ca72de4d91fc7d21bff"
          },
          {
            "from": "0x4d5Cf5032B2a844602278b01199ED191A86c93ff",
            "to": "0x1275fbb540c8efc58b812ba83b0d0b8b9917ae98",
            "nonce": 2,
            "value": "0",
            "data": "0x448bdac66d6516c0",
            "gasLimit": 100000,
            "gasPrice": "1000000000",
            "chainId": 1000,
            "reason": "",
            "rawTx": "0xf86e02843b9aca00830186a0941275fbb540c8efc58b812ba83b0d0b8b9917ae988088448bdac66d6516c08207f4a093bcb7f44a817dbcc06c09fe08cc8ef45f883571a9809d6b5836587152e3285fa0643adfc442dfcf5917008ea6acb3439b1319f4e1a5587822eff32fd2c8366eb5",
            "customRawTx": "0xee02843b9aca00830186a0941275fbb540c8efc58b812ba83b0d0b8b9917ae988088448bdac66d6516c08203e8808093bcb7f44a817dbcc06c09fe08cc8ef45f883571a9809d6b5836587152e3285f643adfc442dfcf5917008ea6acb3439b1319f4e1a5587822eff32fd2c8366eb51cff"
          },
          {
            "from": "0x4d5Cf5032B2a844602278b01199ED191A86c93ff",
            "to": "0x1275fbb540c8efc58b812ba83b0d0b8b9917ae98",
            "nonce": 3,
            "value": "0",
            "data": "0x301711dfb6baffe3",
            "gasLimit": 100000,
            "gasPrice": "1000000000",
            "chainId": 1000,
            "reason": "",
            "rawTx": "0xf86e03843b9aca00830186a0941275fbb540c8efc58b812ba83b0d0b8b9917ae988088301711dfb6baffe38207f4a0f1f26d4c85a8150cdaf4b2b53da06afa500756329bfd25ade7a13ebcc1326c96a02501a9c97230198687f3c3fff0116736b1e10b249cf536a9737ac3d43d688184",
            "customRawTx": "0xee03843b9aca00830186a0941275fbb540c8efc58b812ba83b0d0b8b9917ae988088301711dfb6baffe38203e88080f1f26d4c85a8150cdaf4b2b53da06afa500756329bfd25ade7a13ebcc1326c962501a9c97230198687f3c3fff0116736b1e10b249cf536a9737ac3d43d6881841cff"
          },
          {
            "from": "0x4d5Cf5032B2a844602278b01199ED191A86c93ff",
            "to": "0x1275fbb540c8efc58b812ba83b0d0b8b9917ae98",
            "nonce": 4,
            "value": "0",
            "data": "0x88cbe50d1a93d1c3",
            "gasLimit": 100000,
            "gasPrice": "1000000000",
            "chainId": 1000,
            "reason": "",
            "rawTx": "0xf86e04843b9aca00830186a0941275fbb540c8efc58b812ba83b0d0b8b9917ae98808888cbe50d1a93d1c38207f4a076a463f1f182f9f86a5e20cadd1866ff1a0f8d324b8aa897fe92c46d86bc0ec9a066f9968ca519d0f3943f938ee9abc470e2686b26c13413f4573152d5855d3b93",
            "customRawTx": "0xee04843b9aca00830186a0941275fbb540c8efc58b812ba83b0d0b8b9917ae98808888cbe50d1a93d1c38203e8808076a463f1f182f9f86a5e20cadd1866ff1a0f8d324b8aa897fe92c46d86bc0ec966f9968ca519d0f3943f938ee9abc470e2686b26c13413f4573152d5855d3b931cff"
          },
          {
            "from": "0x4d5Cf5032B2a844602278b01199ED191A86c93ff",
            "to": "0x1275fbb540c8efc58b812ba83b0d0b8b9917ae98",
            "nonce": 5,
            "value": "0",
            "data": "0x35b154933408e470",
            "gasLimit": 100000,
            "gasPrice": "1000000000",
            "chainId": 1000,
            "reason": "",
            "rawTx": "0xf86e05843b9aca00830186a0941275fbb540c8efc58b812ba83b0d0b8b9917ae98808835b154933408e4708207f4a00c47046f3e93e99047d146cbc8304da3a948a1cdadfb667b86599afb9925e725a040874bb733c34683d1f9ce0eca0eda1f21b4d23251dbe30947a5e5429ad86859",
            "customRawTx": "0xee05843b9aca00830186a0941275fbb540c8efc58b812ba83b0d0b8b9917ae98808835b154933408e4708203e880800c47046f3e93e99047d146cbc8304da3a948a1cdadfb667b86599afb9925e72540874bb733c34683d1f9ce0eca0eda1f21b4d23251dbe30947a5e5429ad868591cff"
          },
          {
            "from": "0x4d5Cf5032B2a844602278b01199ED191A86c93ff",
            "to": "0x1275fbb540c8efc58b812ba83b0d0b8b9917ae98",
            "nonce": 6,
            "value": "0",
            "data": "0xc157b3040000000000000000000000000000000000000000000000000000000000000000e9413d380000000000000000000000000000000000000000000000000000000000000000",
            "gasLimit": 100000,
            "gasPrice": "1000000000",
            "chainId": 1000,
            "reason": "",
            "rawTx": "0xf8af06843b9aca00830186a0941275fbb540c8efc58b812ba83b0d0b8b9917ae9880b848c157b3040000000000000000000000000000000000000000000000000000000000000000e9413d3800000000000000000000000000000000000000000000000000000000000000008207f4a09b88ba2eb239b9a33b11421f6f55e21a7ec009aee99df97ba81d3f78aaf4dadfa06dc86de19c84fc0044caa3f937cfcec8dcd4796b7996d2e21951362e1afbdef5",
            "customRawTx": "0xf86f06843b9aca00830186a0941275fbb540c8efc58b812ba83b0d0b8b9917ae9880b848c157b3040000000000000000000000000000000000000000000000000000000000000000e9413d3800000000000000000000000000000000000000000000000000000000000000008203e880809b88ba2eb239b9a33b11421f6f55e21a7ec009aee99df97ba81d3f78aaf4dadf6dc86de19c84fc0044caa3f937cfcec8dcd4796b7996d2e21951362e1afbdef51cff"
          }
        ],
        "newStateRoot": "0x222f11a36ab7524870785c8b201b2b1f14c943a75e185fb74b7b9899fad3d86e",
        "expectedNewLeafs": {
          "0xa40d5f56745a118d0906a34e69aec8c0db1cb8fa": {
            "balance": "0",
            "nonce": "0",
            "storage": {
              "0x53d3f126103a7f7d6245751d2392e0245bf71479d10a3c27a5b501ace6dde1b7": "0x24a5871d68723340d9eadc674aa8ad75f3e33b61d5a9db7db92af856a19270bb"
            }
          },
          "0x617b3a3528f9cdd6630fd3301b9c8911f7bf063d": {
            "balance": "100000240040000000000",
            "nonce": "0"
          },
          "0x4d5cf5032b2a844602278b01199ed191a86c93ff": {
            "balance": "199999759960000000000",
            "nonce": "7"
          },
          "0x1275fbb540c8efc58b812ba83b0d0b8b9917ae98": {
            "balance": "0",
            "nonce": "1",
            "storage": {
              "0x0000000000000000000000000000000000000000000000000000000000000000": "0x617b3a3528f9cdd6630fd3301b9c8911f7bf063d",
              "0x0000000000000000000000000000000000000000000000000000000000000002": "0x03e8",
              "0x0000000000000000000000000000000000000000000000000000000000000001": "0x9a77f147fbeb1aadfb9a4b08fb08fc3e3b3c21e3c791665522dfc40884ab2bb5"
            }
          },
          "0x000000000000000000000000000000005ca1ab1e": {
            "balance": "0",
            "nonce": "0",
            "storage": {
              "0x0000000000000000000000000000000000000000000000000000000000000000": "0x01",
              "0x0000000000000000000000000000000000000000000000000000000000000002": "0x03e8",
              "0xa6eef7e35abe7026729641147f7915573c7e97b47efa546f5f6e3230263bcb49": "0x9a77f147fbeb1aadfb9a4b08fb08fc3e3b3c21e3c791665522dfc40884ab2bb5",
              "0x0000000000000000000000000000000000000000000000000000000000000003": "0xc58bc88516a85f8b4fe3ec789a566ea51172cc7a66a56eaed843e5b1e3a2b99c"
            }
          }
        },
        "batchL2Data": "0x0b000003e800000001ee80843b9aca00830186a0941275fbb540c8efc58b812ba83b0d0b8b9917ae98808848796d71188ec3568203e88080e922e1ffaf4b712aa761bbd204602522956fa5bc550fe43580d7345c8b91916831a814f498cabcd547adcc5b6394ce5bec26d07e0fce1909fcfd5cdf724ef6c01bffee01843b9aca00830186a0941275fbb540c8efc58b812ba83b0d0b8b9917ae988088ac580f9ad1a82a9d8203e880803e1294a7208caa4b4ddb6bf22b0a265189da99e5d50a81a5268fc887f48f1eb43146da096510a4dd91550d34ba074489ff393a09079f03b15ca72de4d91fc7d21bffee02843b9aca00830186a0941275fbb540c8efc58b812ba83b0d0b8b9917ae988088448bdac66d6516c08203e8808093bcb7f44a817dbcc06c09fe08cc8ef45f883571a9809d6b5836587152e3285f643adfc442dfcf5917008ea6acb3439b1319f4e1a5587822eff32fd2c8366eb51cffee03843b9aca00830186a0941275fbb540c8efc58b812ba83b0d0b8b9917ae988088301711dfb6baffe38203e88080f1f26d4c85a8150cdaf4b2b53da06afa500756329bfd25ade7a13ebcc1326c962501a9c97230198687f3c3fff0116736b1e10b249cf536a9737ac3d43d6881841cffee04843b9aca00830186a0941275fbb540c8efc58b812ba83b0d0b8b9917ae98808888cbe50d1a93d1c38203e8808076a463f1f182f9f86a5e20cadd1866ff1a0f8d324b8aa897fe92c46d86bc0ec966f9968ca519d0f3943f938ee9abc470e2686b26c13413f4573152d5855d3b931cffee05843b9aca00830186a0941275fbb540c8efc58b812ba83b0d0b8b9917ae98808835b154933408e4708203e880800c47046f3e93e99047d146cbc8304da3a948a1cdadfb667b86599afb9925e72540874bb733c34683d1f9ce0eca0eda1f21b4d23251dbe30947a5e5429ad868591cfff86f06843b9aca00830186a0941275fbb540c8efc58b812ba83b0d0b8b9917ae9880b848c157b3040000000000000000000000000000000000000000000000000000000000000000e9413d3800000000000000000000000000000000000000000000000000000000000000008203e880809b88ba2eb239b9a33b11421f6f55e21a7ec009aee99df97ba81d3f78aaf4dadf6dc86de19c84fc0044caa3f937cfcec8dcd4796b7996d2e21951362e1afbdef51cff",
        "newLocalExitRoot": "0x0000000000000000000000000000000000000000000000000000000000000000",
        "batchHashData": "0x07a432d365a567df51cbc39a8744f92f469fb0d16ee3f4319d3a68c305442d5f",
        "timestamp": 1944498031,
        "newL1InfoTreeRoot": "0x7b7158db88da6155e257d54f25853a309d9405f5d093e28faacae1972b8850e5",
        "newL1InfoTreeIndex": 1,
        "newTimestamp": "1000",
        "l1InfoTree": {
          "1": {
            "globalExitRoot": "0x090bcaf734c4f06c93954a827b45a6e8c67b8e0fd1e0a35a1c5982d6961828f9",
            "blockHash": "0x24a5871d68723340d9eadc674aa8ad75f3e33b61d5a9db7db92af856a19270bb",
            "minTimestamp": "42",
            "historicRoot": "0x887c22bd8750d34016ac3c66b5ff102dacdd73f6b014e710b51e8022af9a1968"
          }
        }
      },
      {
        "txs": [
          {
            "from": "0x4d5Cf5032B2a844602278b01199ED191A86c93ff",
            "to": "0x1275fbb540c8efc58b812ba83b0d0b8b9917ae98",
            "nonce": 7,
            "value": "0",
            "data": "0x48796d71188ec356",
            "gasLimit": 100000,
            "gasPrice": "1000000000",
            "chainId": 1000,
            "reason": "",
            "rawTx": "0xf86e07843b9aca00830186a0941275fbb540c8efc58b812ba83b0d0b8b9917ae98808848796d71188ec3568207f3a024753ea4a99f2de3a643efbc149b6039cc743e04c58f5a0802c7628ab819c3a9a03b9d3c60cd540bda3752986f34d396384df3ec49c45da193219e571662204792",
            "customRawTx": "0xee07843b9aca00830186a0941275fbb540c8efc58b812ba83b0d0b8b9917ae98808848796d71188ec3568203e8808024753ea4a99f2de3a643efbc149b6039cc743e04c58f5a0802c7628ab819c3a93b9d3c60cd540bda3752986f34d396384df3ec49c45da193219e5716622047921bff"
          },
          {
            "from": "0x4d5Cf5032B2a844602278b01199ED191A86c93ff",
            "to": "0x1275fbb540c8efc58b812ba83b0d0b8b9917ae98",
            "nonce": 8,
            "value": "0",
            "data": "0xac580f9ad1a82a9d",
            "gasLimit": 100000,
            "gasPrice": "1000000000",
            "chainId": 1000,
            "reason": "",
            "rawTx": "0xf86e08843b9aca00830186a0941275fbb540c8efc58b812ba83b0d0b8b9917ae988088ac580f9ad1a82a9d8207f3a03db9b321cdeb22fabaed33da8514ee9212c88f4af47de76e61ec612042feaefca0393a60f67b33ac6b4426e0e5a955edf82848f5241d8de5010355df1838ac9ca6",
            "customRawTx": "0xee08843b9aca00830186a0941275fbb540c8efc58b812ba83b0d0b8b9917ae988088ac580f9ad1a82a9d8203e880803db9b321cdeb22fabaed33da8514ee9212c88f4af47de76e61ec612042feaefc393a60f67b33ac6b4426e0e5a955edf82848f5241d8de5010355df1838ac9ca61bff"
          },
          {
            "from": "0x4d5Cf5032B2a844602278b01199ED191A86c93ff",
            "to": "0x1275fbb540c8efc58b812ba83b0d0b8b9917ae98",
            "nonce": 9,
            "value": "0",
            "data": "0x448bdac66d6516c0",
            "gasLimit": 100000,
            "gasPrice": "1000000000",
            "chainId": 1000,
            "reason": "",
            "rawTx": "0xf86e09843b9aca00830186a0941275fbb540c8efc58b812ba83b0d0b8b9917ae988088448bdac66d6516c08207f3a03a60ca08d85d25729e533a0f9cd9c8838280ba55fb48eed524d849f3a5af527ea00e11cefa1221b2548b1385156135ab9ec08e1f4deefdf1a68b1110c8ace9b574",
            "customRawTx": "0xee09843b9aca00830186a0941275fbb540c8efc58b812ba83b0d0b8b9917ae988088448bdac66d6516c08203e880803a60ca08d85d25729e533a0f9cd9c8838280ba55fb48eed524d849f3a5af527e0e11cefa1221b2548b1385156135ab9ec08e1f4deefdf1a68b1110c8ace9b5741bff"
          },
          {
            "from": "0x4d5Cf5032B2a844602278b01199ED191A86c93ff",
            "to": "0x1275fbb540c8efc58b812ba83b0d0b8b9917ae98",
            "nonce": 10,
            "value": "0",
            "data": "0x301711dfb6baffe3",
            "gasLimit": 100000,
            "gasPrice": "1000000000",
            "chainId": 1000,
            "reason": "",
            "rawTx": "0xf86e0a843b9aca00830186a0941275fbb540c8efc58b812ba83b0d0b8b9917ae988088301711dfb6baffe38207f3a03c45592690ae34877f60ed235a368ab3868a8f98ed41e525c1e1c7a4a748a91da04c0417debc730b29a9d887e56027078af9203b3178ea3f9906a934c7e02cfb33",
            "customRawTx": "0xee0a843b9aca00830186a0941275fbb540c8efc58b812ba83b0d0b8b9917ae988088301711dfb6baffe38203e880803c45592690ae34877f60ed235a368ab3868a8f98ed41e525c1e1c7a4a748a91d4c0417debc730b29a9d887e56027078af9203b3178ea3f9906a934c7e02cfb331bff"
          },
          {
            "from": "0x4d5Cf5032B2a844602278b01199ED191A86c93ff",
            "to": "0x1275fbb540c8efc58b812ba83b0d0b8b9917ae98",
            "nonce": 11,
            "value": "0",
            "data": "0x88cbe50d1a93d1c3",
            "gasLimit": 100000,
            "gasPrice": "1000000000",
            "chainId": 1000,
            "reason": "",
            "rawTx": "0xf86e0b843b9aca00830186a0941275fbb540c8efc58b812ba83b0d0b8b9917ae98808888cbe50d1a93d1c38207f3a0dc2a3398c88e80e90e9d450b4e738c00bf61bd1ff1cc1c6d51fa3d762ae17148a04b18f9fcc2326d6b2d114707a3c0638449e0583e24062d6009248cbb5fe826ad",
            "customRawTx": "0xee0b843b9aca00830186a0941275fbb540c8efc58b812ba83b0d0b8b9917ae98808888cbe50d1a93d1c38203e88080dc2a3398c88e80e90e9d450b4e738c00bf61bd1ff1cc1c6d51fa3d762ae171484b18f9fcc2326d6b2d114707a3c0638449e0583e24062d6009248cbb5fe826ad1bff"
          },
          {
            "from": "0x4d5Cf5032B2a844602278b01199ED191A86c93ff",
            "to": "0x1275fbb540c8efc58b812ba83b0d0b8b9917ae98",
            "nonce": 12,
            "value": "0",
            "data": "0x35b154933408e470",
            "gasLimit": 100000,
            "gasPrice": "1000000000",
            "chainId": 1000,
            "reason": "",
            "rawTx": "0xf86e0c843b9aca00830186a0941275fbb540c8efc58b812ba83b0d0b8b9917ae98808835b154933408e4708207f4a01e43b95686613b9ca78b79b7663c56497c31e1ec0d806b6a7194d5ed1a94962da02e4917cb3db92c15a11235b146549c3a10e211c2967cd97aa1cfe6a9c231ad65",
            "customRawTx": "0xee0c843b9aca00830186a0941275fbb540c8efc58b812ba83b0d0b8b9917ae98808835b154933408e4708203e880801e43b95686613b9ca78b79b7663c56497c31e1ec0d806b6a7194d5ed1a94962d2e4917cb3db92c15a11235b146549c3a10e211c2967cd97aa1cfe6a9c231ad651cff"
          },
          {
            "from": "0x4d5Cf5032B2a844602278b01199ED191A86c93ff",
            "to": "0x1275fbb540c8efc58b812ba83b0d0b8b9917ae98",
            "nonce": 13,
            "value": "0",
            "data": "0xc157b3040000000000000000000000000000000000000000000000000000000000000001e9413d380000000000000000000000000000000000000000000000000000000000000001",
            "gasLimit": 100000,
            "gasPrice": "1000000000",
            "chainId": 1000,
            "reason": "",
            "rawTx": "0xf8af0d843b9aca00830186a0941275fbb540c8efc58b812ba83b0d0b8b9917ae9880b848c157b3040000000000000000000000000000000000000000000000000000000000000001e9413d3800000000000000000000000000000000000000000000000000000000000000018207f3a0621491943ce87f83f2d791c3f1de6a49e2267d02f7c16d4c97b9d8da4e974581a0506ca73df0583824fe7f1ade0acc7293ecef2492bd611ca7a7c199ff76078aeb",
            "customRawTx": "0xf86f0d843b9aca00830186a0941275fbb540c8efc58b812ba83b0d0b8b9917ae9880b848c157b3040000000000000000000000000000000000000000000000000000000000000001e9413d3800000000000000000000000000000000000000000000000000000000000000018203e88080621491943ce87f83f2d791c3f1de6a49e2267d02f7c16d4c97b9d8da4e974581506ca73df0583824fe7f1ade0acc7293ecef2492bd611ca7a7c199ff76078aeb1bff"
          }
        ],
        "newStateRoot": "0xa4079e8ca78c7b5aabf5cb3812e4c4c991c9a6795c469639aa90fc79582c5552",
        "expectedNewLeafs": {
          "0x000000000000000000000000000000005ca1ab1e": {
            "balance": "0",
            "nonce": "0",
            "storage": {
              "0xa6eef7e35abe7026729641147f7915573c7e97b47efa546f5f6e3230263bcb49": "0x9a77f147fbeb1aadfb9a4b08fb08fc3e3b3c21e3c791665522dfc40884ab2bb5",
              "0xcc69885fda6bcc1a4ace058b4a62bf5e179ea78fd58a1ccd71c22cc9b688792f": "0x222f11a36ab7524870785c8b201b2b1f14c943a75e185fb74b7b9899fad3d86e",
              "0x0000000000000000000000000000000000000000000000000000000000000000": "0x02",
              "0x0000000000000000000000000000000000000000000000000000000000000002": "0x07d0",
              "0x0000000000000000000000000000000000000000000000000000000000000003": "0xd894aa50d996536e4ad006f907d7618e18b32c51c6a44d49c542ae8958c481b0"
            }
          },
          "0x4d5cf5032b2a844602278b01199ed191a86c93ff": {
            "balance": "199999573996000000000",
            "nonce": "14"
          },
          "0x1275fbb540c8efc58b812ba83b0d0b8b9917ae98": {
            "balance": "0",
            "nonce": "1",
            "storage": {
              "0x0000000000000000000000000000000000000000000000000000000000000000": "0x617b3a3528f9cdd6630fd3301b9c8911f7bf063d",
              "0x0000000000000000000000000000000000000000000000000000000000000002": "0x03e8",
              "0x0000000000000000000000000000000000000000000000000000000000000001": "0x222f11a36ab7524870785c8b201b2b1f14c943a75e185fb74b7b9899fad3d86e"
            }
          },
          "0x617b3a3528f9cdd6630fd3301b9c8911f7bf063d": {
            "balance": "100000426004000000000",
            "nonce": "0"
          }
        },
        "batchL2Data": "0x0b000003e800000000ee07843b9aca00830186a0941275fbb540c8efc58b812ba83b0d0b8b9917ae98808848796d71188ec3568203e8808024753ea4a99f2de3a643efbc149b6039cc743e04c58f5a0802c7628ab819c3a93b9d3c60cd540bda3752986f34d396384df3ec49c45da193219e5716622047921bffee08843b9aca00830186a0941275fbb540c8efc58b812ba83b0d0b8b9917ae988088ac580f9ad1a82a9d8203e880803db9b321cdeb22fabaed33da8514ee9212c88f4af47de76e61ec612042feaefc393a60f67b33ac6b4426e0e5a955edf82848f5241d8de5010355df1838ac9ca61bffee09843b9aca00830186a0941275fbb540c8efc58b812ba83b0d0b8b9917ae988088448bdac66d6516c08203e880803a60ca08d85d25729e533a0f9cd9c8838280ba55fb48eed524d849f3a5af527e0e11cefa1221b2548b1385156135ab9ec08e1f4deefdf1a68b1110c8ace9b5741bffee0a843b9aca00830186a0941275fbb540c8efc58b812ba83b0d0b8b9917ae988088301711dfb6baffe38203e880803c45592690ae34877f60ed235a368ab3868a8f98ed41e525c1e1c7a4a748a91d4c0417debc730b29a9d887e56027078af9203b3178ea3f9906a934c7e02cfb331bffee0b843b9aca00830186a0941275fbb540c8efc58b812ba83b0d0b8b9917ae98808888cbe50d1a93d1c38203e88080dc2a3398c88e80e90e9d450b4e738c00bf61bd1ff1cc1c6d51fa3d762ae171484b18f9fcc2326d6b2d114707a3c0638449e0583e24062d6009248cbb5fe826ad1bffee0c843b9aca00830186a0941275fbb540c8efc58b812ba83b0d0b8b9917ae98808835b154933408e4708203e880801e43b95686613b9ca78b79b7663c56497c31e1ec0d806b6a7194d5ed1a94962d2e4917cb3db92c15a11235b146549c3a10e211c2967cd97aa1cfe6a9c231ad651cfff86f0d843b9aca00830186a0941275fbb540c8efc58b812ba83b0d0b8b9917ae9880b848c157b3040000000000000000000000000000000000000000000000000000000000000001e9413d3800000000000000000000000000000000000000000000000000000000000000018203e88080621491943ce87f83f2d791c3f1de6a49e2267d02f7c16d4c97b9d8da4e974581506ca73df0583824fe7f1ade0acc7293ecef2492bd611ca7a7c199ff76078aeb1bff",
        "newLocalExitRoot": "0x0000000000000000000000000000000000000000000000000000000000000000",
        "batchHashData": "0xea77522da173bd92553c3f8f3a48d096cd684da9333672355b46264ad143de2d",
        "timestamp": 1944498031,
        "newL1InfoTreeRoot": "0x4a9bfcb163ec91c5beb22e6aca41592433092c8c7821b01d37fd0de483f9265d",
        "newL1InfoTreeIndex": 0,
        "newTimestamp": "2000",
        "l1InfoTree": {
          "0": {
            "globalExitRoot": "0x090bcaf734c4f06c93954a827b45a6e8c67b8e0fd1e0a35a1c5982d6961828f9",
            "blockHash": "0x24a5871d68723340d9eadc674aa8ad75f3e33b61d5a9db7db92af856a19270bb",
            "minTimestamp": "42",
            "historicRoot": "0x887c22bd8750d34016ac3c66b5ff102dacdd73f6b014e710b51e8022af9a1968"
          }
        }
      },
      {
        "txs": [],
        "newStateRoot": "0x6974241cb0e11e6c64618b74e8c4d6b945c647ac0f97fb4f64474862debb25ef",
        "expectedNewLeafs": {
          "0x000000000000000000000000000000005ca1ab1e": {
            "balance": "0",
            "nonce": "0",
            "storage": {
              "0xa6eef7e35abe7026729641147f7915573c7e97b47efa546f5f6e3230263bcb49": "0x9a77f147fbeb1aadfb9a4b08fb08fc3e3b3c21e3c791665522dfc40884ab2bb5",
              "0xcc69885fda6bcc1a4ace058b4a62bf5e179ea78fd58a1ccd71c22cc9b688792f": "0x222f11a36ab7524870785c8b201b2b1f14c943a75e185fb74b7b9899fad3d86e",
              "0x0000000000000000000000000000000000000000000000000000000000000000": "0x03",
              "0x0000000000000000000000000000000000000000000000000000000000000002": "0x0bb8",
              "0x0000000000000000000000000000000000000000000000000000000000000003": "0x9c19798c7f712917c9362d0dfce8ae4e08dab44761de8d6041bfdd5edaa3fd8e",
              "0xd9d16d34ffb15ba3a3d852f0d403e2ce1d691fb54de27ac87cd2f993f3ec330f": "0xa4079e8ca78c7b5aabf5cb3812e4c4c991c9a6795c469639aa90fc79582c5552"
            }
          },
          "0x617b3a3528f9cdd6630fd3301b9c8911f7bf063d": {
            "nonce": "0",
            "balance": "100000000000000000000",
            "pvtKey": "0x28b2b0318721be8c8339199172cd7cc8f5e273800a35616ec893083a4b32c02e"
          },
          "0x4d5cf5032b2a844602278b01199ed191a86c93ff": {
            "nonce": "0",
            "balance": "200000000000000000000",
            "pvtKey": "0x4d27a600dce8c29b7bd080e29a26972377dbb04d7a27d919adbb602bf13cfd23"
          },
          "0x1275fbb540c8efc58b812ba83b0d0b8b9917ae98": {
            "nonce": 1,
            "balance": 0,
            "abi": [
              {
                "inputs": [
                  {
                    "internalType": "uint256",
                    "name": "numBatch",
                    "type": "uint256"
                  }
                ],
                "name": "opBlockHash",
                "outputs": [],
                "stateMutability": "nonpayable",
                "type": "function"
              },
              {
                "inputs": [],
                "name": "opChainId",
                "outputs": [],
                "stateMutability": "nonpayable",
                "type": "function"
              },
              {
                "inputs": [],
                "name": "opCoinbase",
                "outputs": [],
                "stateMutability": "nonpayable",
                "type": "function"
              },
              {
                "inputs": [],
                "name": "opDifficulty",
                "outputs": [],
                "stateMutability": "nonpayable",
                "type": "function"
              },
              {
                "inputs": [],
                "name": "opGasLimit",
                "outputs": [],
                "stateMutability": "nonpayable",
                "type": "function"
              },
              {
                "inputs": [],
                "name": "opNumber",
                "outputs": [],
                "stateMutability": "nonpayable",
                "type": "function"
              },
              {
                "inputs": [],
                "name": "opSelfBalance",
                "outputs": [],
                "stateMutability": "nonpayable",
                "type": "function"
              },
              {
                "inputs": [],
                "name": "opTimestamp",
                "outputs": [],
                "stateMutability": "nonpayable",
                "type": "function"
              },
              {
                "inputs": [],
                "name": "test",
                "outputs": [
                  {
                    "internalType": "uint256",
                    "name": "",
                    "type": "uint256"
                  }
                ],
                "stateMutability": "view",
                "type": "function"
              },
              {
                "inputs": [],
                "name": "testBlockhash",
                "outputs": [
                  {
                    "internalType": "bytes32",
                    "name": "",
                    "type": "bytes32"
                  }
                ],
                "stateMutability": "view",
                "type": "function"
              },
              {
                "inputs": [],
                "name": "testCoinbase",
                "outputs": [
                  {
                    "internalType": "address",
                    "name": "",
                    "type": "address"
                  }
                ],
                "stateMutability": "view",
                "type": "function"
              },
              {
                "stateMutability": "payable",
                "type": "receive"
              }
            ],
            "storage": {
              "0x0000000000000000000000000000000000000000000000000000000000000000": "0x617b3a3528f9cdd6630fd3301b9c8911f7bf063d",
              "0x0000000000000000000000000000000000000000000000000000000000000002": "0x03e8",
              "0x0000000000000000000000000000000000000000000000000000000000000001": "0x222f11a36ab7524870785c8b201b2b1f14c943a75e185fb74b7b9899fad3d86e"
            }
          }
        },
        "batchL2Data": "0x0b000003e800000000",
        "newLocalExitRoot": "0x0000000000000000000000000000000000000000000000000000000000000000",
        "batchHashData": "0x0c1ceed2d4568c8438794040388d6892216e58449d3832ea6e348d38d41d58d0",
        "timestamp": 1944498033,
        "newL1InfoTreeRoot": "0x4a9bfcb163ec91c5beb22e6aca41592433092c8c7821b01d37fd0de483f9265d",
        "newL1InfoTreeIndex": 0,
        "newTimestamp": "3000",
        "l1InfoTree": {
          "0": {
            "globalExitRoot": "0x090bcaf734c4f06c93954a827b45a6e8c67b8e0fd1e0a35a1c5982d6961828f9",
            "blockHash": "0x24a5871d68723340d9eadc674aa8ad75f3e33b61d5a9db7db92af856a19270bb",
            "minTimestamp": "42",
            "historicRoot": "0x887c22bd8750d34016ac3c66b5ff102dacdd73f6b014e710b51e8022af9a1968"
          }
        }
      },
      {
        "txs": [],
        "newStateRoot": "0xfe1835c44fa28325e2961a3a015ec6698d745975c71e4cb0f1bdb385e2506021",
        "expectedNewLeafs": {
          "0x000000000000000000000000000000005ca1ab1e": {
            "balance": "0",
            "nonce": "0",
            "storage": {
              "0xa6eef7e35abe7026729641147f7915573c7e97b47efa546f5f6e3230263bcb49": "0x9a77f147fbeb1aadfb9a4b08fb08fc3e3b3c21e3c791665522dfc40884ab2bb5",
              "0xcc69885fda6bcc1a4ace058b4a62bf5e179ea78fd58a1ccd71c22cc9b688792f": "0x222f11a36ab7524870785c8b201b2b1f14c943a75e185fb74b7b9899fad3d86e",
              "0x0000000000000000000000000000000000000000000000000000000000000000": "0x04",
              "0x0000000000000000000000000000000000000000000000000000000000000002": "0x0fa0",
              "0x0000000000000000000000000000000000000000000000000000000000000003": "0x37d7cfbc0045669ee2e861b7543f4c68be4090f13801d45f6775ec8b8d5c85a3",
              "0xd9d16d34ffb15ba3a3d852f0d403e2ce1d691fb54de27ac87cd2f993f3ec330f": "0xa4079e8ca78c7b5aabf5cb3812e4c4c991c9a6795c469639aa90fc79582c5552",
              "0x7dfe757ecd65cbd7922a9c0161e935dd7fdbcc0e999689c7d31633896b1fc60b": "0x6974241cb0e11e6c64618b74e8c4d6b945c647ac0f97fb4f64474862debb25ef"
            }
          },
          "0x617b3a3528f9cdd6630fd3301b9c8911f7bf063d": {
            "nonce": "0",
            "balance": "100000000000000000000",
            "pvtKey": "0x28b2b0318721be8c8339199172cd7cc8f5e273800a35616ec893083a4b32c02e"
          },
          "0x4d5cf5032b2a844602278b01199ed191a86c93ff": {
            "nonce": "0",
            "balance": "200000000000000000000",
            "pvtKey": "0x4d27a600dce8c29b7bd080e29a26972377dbb04d7a27d919adbb602bf13cfd23"
          },
          "0x1275fbb540c8efc58b812ba83b0d0b8b9917ae98": {
            "nonce": 1,
            "balance": 0,
            "abi": [
              {
                "inputs": [
                  {
                    "internalType": "uint256",
                    "name": "numBatch",
                    "type": "uint256"
                  }
                ],
                "name": "opBlockHash",
                "outputs": [],
                "stateMutability": "nonpayable",
                "type": "function"
              },
              {
                "inputs": [],
                "name": "opChainId",
                "outputs": [],
                "stateMutability": "nonpayable",
                "type": "function"
              },
              {
                "inputs": [],
                "name": "opCoinbase",
                "outputs": [],
                "stateMutability": "nonpayable",
                "type": "function"
              },
              {
                "inputs": [],
                "name": "opDifficulty",
                "outputs": [],
                "stateMutability": "nonpayable",
                "type": "function"
              },
              {
                "inputs": [],
                "name": "opGasLimit",
                "outputs": [],
                "stateMutability": "nonpayable",
                "type": "function"
              },
              {
                "inputs": [],
                "name": "opNumber",
                "outputs": [],
                "stateMutability": "nonpayable",
                "type": "function"
              },
              {
                "inputs": [],
                "name": "opSelfBalance",
                "outputs": [],
                "stateMutability": "nonpayable",
                "type": "function"
              },
              {
                "inputs": [],
                "name": "opTimestamp",
                "outputs": [],
                "stateMutability": "nonpayable",
                "type": "function"
              },
              {
                "inputs": [],
                "name": "test",
                "outputs": [
                  {
                    "internalType": "uint256",
                    "name": "",
                    "type": "uint256"
                  }
                ],
                "stateMutability": "view",
                "type": "function"
              },
              {
                "inputs": [],
                "name": "testBlockhash",
                "outputs": [
                  {
                    "internalType": "bytes32",
                    "name": "",
                    "type": "bytes32"
                  }
                ],
                "stateMutability": "view",
                "type": "function"
              },
              {
                "inputs": [],
                "name": "testCoinbase",
                "outputs": [
                  {
                    "internalType": "address",
                    "name": "",
                    "type": "address"
                  }
                ],
                "stateMutability": "view",
                "type": "function"
              },
              {
                "stateMutability": "payable",
                "type": "receive"
              }
            ],
            "storage": {
              "0x0000000000000000000000000000000000000000000000000000000000000000": "0x617b3a3528f9cdd6630fd3301b9c8911f7bf063d",
              "0x0000000000000000000000000000000000000000000000000000000000000002": "0x03e8",
              "0x0000000000000000000000000000000000000000000000000000000000000001": "0x222f11a36ab7524870785c8b201b2b1f14c943a75e185fb74b7b9899fad3d86e"
            }
          }
        },
        "batchL2Data": "0x0b000003e800000000",
        "newLocalExitRoot": "0x0000000000000000000000000000000000000000000000000000000000000000",
        "batchHashData": "0x0c1ceed2d4568c8438794040388d6892216e58449d3832ea6e348d38d41d58d0",
        "timestamp": 1944498042,
        "newL1InfoTreeRoot": "0x4a9bfcb163ec91c5beb22e6aca41592433092c8c7821b01d37fd0de483f9265d",
        "newL1InfoTreeIndex": 0,
        "newTimestamp": "4000",
        "l1InfoTree": {
          "0": {
            "globalExitRoot": "0x090bcaf734c4f06c93954a827b45a6e8c67b8e0fd1e0a35a1c5982d6961828f9",
            "blockHash": "0x24a5871d68723340d9eadc674aa8ad75f3e33b61d5a9db7db92af856a19270bb",
            "minTimestamp": "42",
            "historicRoot": "0x887c22bd8750d34016ac3c66b5ff102dacdd73f6b014e710b51e8022af9a1968"
          }
        }
      }
    ],
    "forkID": 9,
    "forcedHashData": "0x0000000000000000000000000000000000000000000000000000000000000000",
    "previousL1InfoTreeRoot": "0x4a9bfcb163ec91c5beb22e6aca41592433092c8c7821b01d37fd0de483f9265d",
    "previousL1InfoTreeIndex": 0
  }
]