[
  {
    "id": 0,
    "description": "Get timestamp",
    "defaultChainId": 1000,
    "sequencerAddress": "0x617b3a3528F9cDd6630fd3301B9c8911F7Bf063D",
    "sequencerPvtKey": "0x28b2b0318721be8c8339199172cd7cc8f5e273800a35616ec893083a4b32c02e",
    "genesis": [
      {
        "address": "0x617b3a3528F9cDd6630fd3301B9c8911F7Bf063D",
        "nonce": "0",
        "balance": "100000000000000000000",
        "pvtKey": "0x28b2b0318721be8c8339199172cd7cc8f5e273800a35616ec893083a4b32c02e"
      },
      {
        "address": "0x4d5Cf5032B2a844602278b01199ED191A86c93ff",
        "nonce": "0",
        "balance": "200000000000000000000",
        "pvtKey": "0x4d27a600dce8c29b7bd080e29a26972377dbb04d7a27d919adbb602bf13cfd23"
      },
      {
        "address": "0x1275fbb540c8efc58b812ba83b0d0b8b9917ae98",
        "nonce": 1,
        "balance": 0,
        "bytecode": "0x6080604052600436106100a05760003560e01c806388cbe50d1161006457806388cbe50d14610133578063ab8fd80c1461014a578063ac580f9a14610175578063b890daa81461018c578063c157b304146101a3578063f8a8fd6d146101cc576100a7565b8063301711df146100ac57806335b15493146100c3578063448bdac6146100da57806348796d71146100f1578063773a54d014610108576100a7565b366100a757005b600080fd5b3480156100b857600080fd5b506100c16101f7565b005b3480156100cf57600080fd5b506100d86101ff565b005b3480156100e657600080fd5b506100ef610207565b005b3480156100fd57600080fd5b5061010661020f565b005b34801561011457600080fd5b5061011d610217565b60405161012a91906102d8565b60405180910390f35b34801561013f57600080fd5b5061014861023b565b005b34801561015657600080fd5b5061015f610243565b60405161016c91906102f3565b60405180910390f35b34801561018157600080fd5b5061018a610249565b005b34801561019857600080fd5b506101a1610251565b005b3480156101af57600080fd5b506101ca60048036038101906101c5919061027e565b610259565b005b3480156101d857600080fd5b506101e1610263565b6040516101ee919061030e565b60405180910390f35b448060025550565b468060025550565b438060025550565b428060025550565b60008054906101000a900473ffffffffffffffffffffffffffffffffffffffff1681565b458060025550565b60015481565b418060005550565b478060025550565b8040806001555050565b60025481565b60008135905061027881610374565b92915050565b6000602082840312156102945761029361036f565b5b60006102a284828501610269565b91505092915050565b6102b481610329565b82525050565b6102c38161033b565b82525050565b6102d281610365565b82525050565b60006020820190506102ed60008301846102ab565b92915050565b600060208201905061030860008301846102ba565b92915050565b600060208201905061032360008301846102c9565b92915050565b600061033482610345565b9050919050565b6000819050919050565b600073ffffffffffffffffffffffffffffffffffffffff82169050919050565b6000819050919050565b600080fd5b61037d81610365565b811461038857600080fd5b5056fea2646970667358221220b305aa6fc661cc27e465d6f3934851480f42f186f79fef02af6a347fa1a971da64736f6c63430008070033",
        "abi": [
          {
            "inputs": [
              {
                "internalType": "uint256",
                "name": "numBatch",
                "type": "uint256"
              }
            ],
            "name": "opBlockHash",
            "outputs": [],
            "stateMutability": "nonpayable",
            "type": "function"
          },
          {
            "inputs": [],
            "name": "opChainId",
            "outputs": [],
            "stateMutability": "nonpayable",
            "type": "function"
          },
          {
            "inputs": [],
            "name": "opCoinbase",
            "outputs": [],
            "stateMutability": "nonpayable",
            "type": "function"
          },
          {
            "inputs": [],
            "name": "opDifficulty",
            "outputs": [],
            "stateMutability": "nonpayable",
            "type": "function"
          },
          {
            "inputs": [],
            "name": "opGasLimit",
            "outputs": [],
            "stateMutability": "nonpayable",
            "type": "function"
          },
          {
            "inputs": [],
            "name": "opNumber",
            "outputs": [],
            "stateMutability": "nonpayable",
            "type": "function"
          },
          {
            "inputs": [],
            "name": "opSelfBalance",
            "outputs": [],
            "stateMutability": "nonpayable",
            "type": "function"
          },
          {
            "inputs": [],
            "name": "opTimestamp",
            "outputs": [],
            "stateMutability": "nonpayable",
            "type": "function"
          },
          {
            "inputs": [],
            "name": "test",
            "outputs": [
              {
                "internalType": "uint256",
                "name": "",
                "type": "uint256"
              }
            ],
            "stateMutability": "view",
            "type": "function"
          },
          {
            "inputs": [],
            "name": "testBlockhash",
            "outputs": [
              {
                "internalType": "bytes32",
                "name": "",
                "type": "bytes32"
              }
            ],
            "stateMutability": "view",
            "type": "function"
          },
          {
            "inputs": [],
            "name": "testCoinbase",
            "outputs": [
              {
                "internalType": "address",
                "name": "",
                "type": "address"
              }
            ],
            "stateMutability": "view",
            "type": "function"
          },
          {
            "stateMutability": "payable",
            "type": "receive"
          }
        ],
        "storage": {}
      }
    ],
    "expectedOldRoot": "0x305f6aba22392c0c7c9d6ade7fb60d9b4550a26c724f77d827e7619c1bd3e5e1",
    "oldLocalExitRoot": "0x0000000000000000000000000000000000000000000000000000000000000000",
    "oldAccInputHash": "0x0000000000000000000000000000000000000000000000000000000000000000",
    "batches": [
      {
        "txs": [
          {
            "from": "0x4d5Cf5032B2a844602278b01199ED191A86c93ff",
            "to": "0x1275fbb540c8efc58b812ba83b0d0b8b9917ae98",
            "nonce": 0,
            "value": "0",
            "data": "0x48796d71188ec356",
            "gasLimit": 100000,
            "gasPrice": "1000000000",
            "chainId": 1000,
            "rawTx": "0xf86e80843b9aca00830186a0941275fbb540c8efc58b812ba83b0d0b8b9917ae98808848796d71188ec3568207f3a0e922e1ffaf4b712aa761bbd204602522956fa5bc550fe43580d7345c8b919168a031a814f498cabcd547adcc5b6394ce5bec26d07e0fce1909fcfd5cdf724ef6c0",
            "customRawTx": "0xee80843b9aca00830186a0941275fbb540c8efc58b812ba83b0d0b8b9917ae98808848796d71188ec3568203e88080e922e1ffaf4b712aa761bbd204602522956fa5bc550fe43580d7345c8b91916831a814f498cabcd547adcc5b6394ce5bec26d07e0fce1909fcfd5cdf724ef6c01bff"
          },
          {
            "from": "0x4d5Cf5032B2a844602278b01199ED191A86c93ff",
            "to": "0x1275fbb540c8efc58b812ba83b0d0b8b9917ae98",
            "nonce": 0,
            "value": "0",
            "data": "0x48796d71188ec356",
            "gasLimit": 100000,
            "gasPrice": "1000000000",
            "chainId": 1000,
            "rawTx": "0xf86e80843b9aca00830186a0941275fbb540c8efc58b812ba83b0d0b8b9917ae98808848796d71188ec3568207f3a0e922e1ffaf4b712aa761bbd204602522956fa5bc550fe43580d7345c8b919168a031a814f498cabcd547adcc5b6394ce5bec26d07e0fce1909fcfd5cdf724ef6c0",
            "customRawTx": "0xee80843b9aca00830186a0941275fbb540c8efc58b812ba83b0d0b8b9917ae98808848796d71188ec3568203e88080e922e1ffaf4b712aa761bbd204602522956fa5bc550fe43580d7345c8b91916831a814f498cabcd547adcc5b6394ce5bec26d07e0fce1909fcfd5cdf724ef6c01bff"
          },
          {
            "from": "0x4d5Cf5032B2a844602278b01199ED191A86c93ff",
            "to": "0x1275fbb540c8efc58b812ba83b0d0b8b9917ae98",
            "nonce": 0,
            "value": "0",
            "data": "0x48796d71188ec356",
            "gasLimit": 100000,
            "gasPrice": "1000000000",
            "chainId": 1000,
            "rawTx": "0xf86e80843b9aca00830186a0941275fbb540c8efc58b812ba83b0d0b8b9917ae98808848796d71188ec3568207f3a0e922e1ffaf4b712aa761bbd204602522956fa5bc550fe43580d7345c8b919168a031a814f498cabcd547adcc5b6394ce5bec26d07e0fce1909fcfd5cdf724ef6c0",
            "customRawTx": "0xee80843b9aca00830186a0941275fbb540c8efc58b812ba83b0d0b8b9917ae98808848796d71188ec3568203e88080e922e1ffaf4b712aa761bbd204602522956fa5bc550fe43580d7345c8b91916831a814f498cabcd547adcc5b6394ce5bec26d07e0fce1909fcfd5cdf724ef6c01bff"
          },
          {
            "from": "0x4d5Cf5032B2a844602278b01199ED191A86c93ff",
            "to": "0x1275fbb540c8efc58b812ba83b0d0b8b9917ae98",
            "nonce": 0,
            "value": "0",
            "data": "0x48796d71188ec356",
            "gasLimit": 100000,
            "gasPrice": "1000000000",
            "chainId": 1000,
            "rawTx": "0xf86e80843b9aca00830186a0941275fbb540c8efc58b812ba83b0d0b8b9917ae98808848796d71188ec3568207f3a0e922e1ffaf4b712aa761bbd204602522956fa5bc550fe43580d7345c8b919168a031a814f498cabcd547adcc5b6394ce5bec26d07e0fce1909fcfd5cdf724ef6c0",
            "customRawTx": "0xee80843b9aca00830186a0941275fbb540c8efc58b812ba83b0d0b8b9917ae98808848796d71188ec3568203e88080e922e1ffaf4b712aa761bbd204602522956fa5bc550fe43580d7345c8b91916831a814f498cabcd547adcc5b6394ce5bec26d07e0fce1909fcfd5cdf724ef6c01bff"
          },
          {
            "from": "0x4d5Cf5032B2a844602278b01199ED191A86c93ff",
            "to": "0x1275fbb540c8efc58b812ba83b0d0b8b9917ae98",
            "nonce": 0,
            "value": "0",
            "data": "0x48796d71188ec356",
            "gasLimit": 100000,
            "gasPrice": "1000000000",
            "chainId": 1000,
            "rawTx": "0xf86e80843b9aca00830186a0941275fbb540c8efc58b812ba83b0d0b8b9917ae98808848796d71188ec3568207f3a0e922e1ffaf4b712aa761bbd204602522956fa5bc550fe43580d7345c8b919168a031a814f498cabcd547adcc5b6394ce5bec26d07e0fce1909fcfd5cdf724ef6c0",
            "customRawTx": "0xee80843b9aca00830186a0941275fbb540c8efc58b812ba83b0d0b8b9917ae98808848796d71188ec3568203e88080e922e1ffaf4b712aa761bbd204602522956fa5bc550fe43580d7345c8b91916831a814f498cabcd547adcc5b6394ce5bec26d07e0fce1909fcfd5cdf724ef6c01bff"
          },
          {
            "from": "0x4d5Cf5032B2a844602278b01199ED191A86c93ff",
            "to": "0x1275fbb540c8efc58b812ba83b0d0b8b9917ae98",
            "nonce": 0,
            "value": "0",
            "data": "0x48796d71188ec356",
            "gasLimit": 100000,
            "gasPrice": "1000000000",
            "chainId": 1000,
            "rawTx": "0xf86e80843b9aca00830186a0941275fbb540c8efc58b812ba83b0d0b8b9917ae98808848796d71188ec3568207f3a0e922e1ffaf4b712aa761bbd204602522956fa5bc550fe43580d7345c8b919168a031a814f498cabcd547adcc5b6394ce5bec26d07e0fce1909fcfd5cdf724ef6c0",
            "customRawTx": "0xee80843b9aca00830186a0941275fbb540c8efc58b812ba83b0d0b8b9917ae98808848796d71188ec3568203e88080e922e1ffaf4b712aa761bbd204602522956fa5bc550fe43580d7345c8b91916831a814f498cabcd547adcc5b6394ce5bec26d07e0fce1909fcfd5cdf724ef6c01bff"
          },
          {
            "from": "0x4d5Cf5032B2a844602278b01199ED191A86c93ff",
            "to": "0x1275fbb540c8efc58b812ba83b0d0b8b9917ae98",
            "nonce": 0,
            "value": "0",
            "data": "0x48796d71188ec356",
            "gasLimit": 100000,
            "gasPrice": "1000000000",
            "chainId": 1000,
            "rawTx": "0xf86e80843b9aca00830186a0941275fbb540c8efc58b812ba83b0d0b8b9917ae98808848796d71188ec3568207f3a0e922e1ffaf4b712aa761bbd204602522956fa5bc550fe43580d7345c8b919168a031a814f498cabcd547adcc5b6394ce5bec26d07e0fce1909fcfd5cdf724ef6c0",
            "customRawTx": "0xee80843b9aca00830186a0941275fbb540c8efc58b812ba83b0d0b8b9917ae98808848796d71188ec3568203e88080e922e1ffaf4b712aa761bbd204602522956fa5bc550fe43580d7345c8b91916831a814f498cabcd547adcc5b6394ce5bec26d07e0fce1909fcfd5cdf724ef6c01bff"
          }
        ],
        "expectedNewRoot": "0x15253c6d8d6dc7ee45481e56e8e15bd2f01ef8f6a173a19d3261141e5f5f7852",
        "expectedNewLeafs": {
          "0xa40d5f56745a118d0906a34e69aec8c0db1cb8fa": {
            "balance": "0",
            "nonce": "0",
            "storage": {
              "0xa1cf62fa0d95d8eeee4c409ad79cecceb916bc269e2baeace39036c2d9dda8e8": "0x01"
            }
          },
          "0x000000000000000000000000000000005ca1ab1e": {
            "balance": "0",
            "nonce": "0",
            "storage": {
              "0x0000000000000000000000000000000000000000000000000000000000000000": "0x01",
              "0x0000000000000000000000000000000000000000000000000000000000000002": "0x01",
              "0xcc69885fda6bcc1a4ace058b4a62bf5e179ea78fd58a1ccd71c22cc9b688792f": "0x674660ec7c01ee0f44524dfa4c8105315eb90fcc2f07d8d360374933347d95d2"
            }
          },
          "0x617b3a3528f9cdd6630fd3301b9c8911f7bf063d": {
            "balance": "100000043449000000000",
            "nonce": "0"
          },
          "0x4d5cf5032b2a844602278b01199ed191a86c93ff": {
            "balance": "199999956551000000000",
            "nonce": "1"
          },
          "0x1275fbb540c8efc58b812ba83b0d0b8b9917ae98": {
            "balance": "0",
            "nonce": "1",
            "storage": {
              "0x0000000000000000000000000000000000000000000000000000000000000002": "0x01"
            }
          }
        },
        "batchL2Data": "0x0b000000000000000100000001ee80843b9aca00830186a0941275fbb540c8efc58b812ba83b0d0b8b9917ae98808848796d71188ec3568203e88080e922e1ffaf4b712aa761bbd204602522956fa5bc550fe43580d7345c8b91916831a814f498cabcd547adcc5b6394ce5bec26d07e0fce1909fcfd5cdf724ef6c01bffee80843b9aca00830186a0941275fbb540c8efc58b812ba83b0d0b8b9917ae98808848796d71188ec3568203e88080e922e1ffaf4b712aa761bbd204602522956fa5bc550fe43580d7345c8b91916831a814f498cabcd547adcc5b6394ce5bec26d07e0fce1909fcfd5cdf724ef6c01bffee80843b9aca00830186a0941275fbb540c8efc58b812ba83b0d0b8b9917ae98808848796d71188ec3568203e88080e922e1ffaf4b712aa761bbd204602522956fa5bc550fe43580d7345c8b91916831a814f498cabcd547adcc5b6394ce5bec26d07e0fce1909fcfd5cdf724ef6c01bffee80843b9aca00830186a0941275fbb540c8efc58b812ba83b0d0b8b9917ae98808848796d71188ec3568203e88080e922e1ffaf4b712aa761bbd204602522956fa5bc550fe43580d7345c8b91916831a814f498cabcd547adcc5b6394ce5bec26d07e0fce1909fcfd5cdf724ef6c01bffee80843b9aca00830186a0941275fbb540c8efc58b812ba83b0d0b8b9917ae98808848796d71188ec3568203e88080e922e1ffaf4b712aa761bbd204602522956fa5bc550fe43580d7345c8b91916831a814f498cabcd547adcc5b6394ce5bec26d07e0fce1909fcfd5cdf724ef6c01bffee80843b9aca00830186a0941275fbb540c8efc58b812ba83b0d0b8b9917ae98808848796d71188ec3568203e88080e922e1ffaf4b712aa761bbd204602522956fa5bc550fe43580d7345c8b91916831a814f498cabcd547adcc5b6394ce5bec26d07e0fce1909fcfd5cdf724ef6c01bffee80843b9aca00830186a0941275fbb540c8efc58b812ba83b0d0b8b9917ae98808848796d71188ec3568203e88080e922e1ffaf4b712aa761bbd204602522956fa5bc550fe43580d7345c8b91916831a814f498cabcd547adcc5b6394ce5bec26d07e0fce1909fcfd5cdf724ef6c01bff",
        "historicGERRoot": "0x090bcaf734c4f06c93954a827b45a6e8c67b8e0fd1e0a35a1c5982d6961828f9",
        "newLocalExitRoot": "0x0000000000000000000000000000000000000000000000000000000000000000",
        "batchHashData": "0xc593abcdf8de5f8f26f9f876263e9660d0cd00663535132f8e5d12358f083d1a",
        "timestamp": 1944498031
      },
      {
        "txs": [
          {
            "from": "0x4d5Cf5032B2a844602278b01199ED191A86c93ff",
            "to": "0x1275fbb540c8efc58b812ba83b0d0b8b9917ae98",
            "nonce": 8,
            "value": "0",
            "data": "0xac580f9ad1a82a9d",
            "gasLimit": 100000,
            "gasPrice": "1000000000",
            "chainId": 1000,
            "rawTx": "0xf86e08843b9aca00830186a0941275fbb540c8efc58b812ba83b0d0b8b9917ae988088ac580f9ad1a82a9d8207f3a03db9b321cdeb22fabaed33da8514ee9212c88f4af47de76e61ec612042feaefca0393a60f67b33ac6b4426e0e5a955edf82848f5241d8de5010355df1838ac9ca6",
            "customRawTx": "0xee08843b9aca00830186a0941275fbb540c8efc58b812ba83b0d0b8b9917ae988088ac580f9ad1a82a9d8203e880803db9b321cdeb22fabaed33da8514ee9212c88f4af47de76e61ec612042feaefc393a60f67b33ac6b4426e0e5a955edf82848f5241d8de5010355df1838ac9ca61bff"
          },
          {
            "from": "0x4d5Cf5032B2a844602278b01199ED191A86c93ff",
            "to": "0x1275fbb540c8efc58b812ba83b0d0b8b9917ae98",
            "nonce": 8,
            "value": "0",
            "data": "0xac580f9ad1a82a9d",
            "gasLimit": 100000,
            "gasPrice": "1000000000",
            "chainId": 1000,
            "rawTx": "0xf86e08843b9aca00830186a0941275fbb540c8efc58b812ba83b0d0b8b9917ae988088ac580f9ad1a82a9d8207f3a03db9b321cdeb22fabaed33da8514ee9212c88f4af47de76e61ec612042feaefca0393a60f67b33ac6b4426e0e5a955edf82848f5241d8de5010355df1838ac9ca6",
            "customRawTx": "0xee08843b9aca00830186a0941275fbb540c8efc58b812ba83b0d0b8b9917ae988088ac580f9ad1a82a9d8203e880803db9b321cdeb22fabaed33da8514ee9212c88f4af47de76e61ec612042feaefc393a60f67b33ac6b4426e0e5a955edf82848f5241d8de5010355df1838ac9ca61bff"
          },
          {
            "from": "0x4d5Cf5032B2a844602278b01199ED191A86c93ff",
            "to": "0x1275fbb540c8efc58b812ba83b0d0b8b9917ae98",
            "nonce": 8,
            "value": "0",
            "data": "0xac580f9ad1a82a9d",
            "gasLimit": 100000,
            "gasPrice": "1000000000",
            "chainId": 1000,
            "rawTx": "0xf86e08843b9aca00830186a0941275fbb540c8efc58b812ba83b0d0b8b9917ae988088ac580f9ad1a82a9d8207f3a03db9b321cdeb22fabaed33da8514ee9212c88f4af47de76e61ec612042feaefca0393a60f67b33ac6b4426e0e5a955edf82848f5241d8de5010355df1838ac9ca6",
            "customRawTx": "0xee08843b9aca00830186a0941275fbb540c8efc58b812ba83b0d0b8b9917ae988088ac580f9ad1a82a9d8203e880803db9b321cdeb22fabaed33da8514ee9212c88f4af47de76e61ec612042feaefc393a60f67b33ac6b4426e0e5a955edf82848f5241d8de5010355df1838ac9ca61bff"
          },
          {
            "from": "0x4d5Cf5032B2a844602278b01199ED191A86c93ff",
            "to": "0x1275fbb540c8efc58b812ba83b0d0b8b9917ae98",
            "nonce": 8,
            "value": "0",
            "data": "0xac580f9ad1a82a9d",
            "gasLimit": 100000,
            "gasPrice": "1000000000",
            "chainId": 1000,
            "rawTx": "0xf86e08843b9aca00830186a0941275fbb540c8efc58b812ba83b0d0b8b9917ae988088ac580f9ad1a82a9d8207f3a03db9b321cdeb22fabaed33da8514ee9212c88f4af47de76e61ec612042feaefca0393a60f67b33ac6b4426e0e5a955edf82848f5241d8de5010355df1838ac9ca6",
            "customRawTx": "0xee08843b9aca00830186a0941275fbb540c8efc58b812ba83b0d0b8b9917ae988088ac580f9ad1a82a9d8203e880803db9b321cdeb22fabaed33da8514ee9212c88f4af47de76e61ec612042feaefc393a60f67b33ac6b4426e0e5a955edf82848f5241d8de5010355df1838ac9ca61bff"
          },
          {
            "from": "0x4d5Cf5032B2a844602278b01199ED191A86c93ff",
            "to": "0x1275fbb540c8efc58b812ba83b0d0b8b9917ae98",
            "nonce": 8,
            "value": "0",
            "data": "0xac580f9ad1a82a9d",
            "gasLimit": 100000,
            "gasPrice": "1000000000",
            "chainId": 1000,
            "rawTx": "0xf86e08843b9aca00830186a0941275fbb540c8efc58b812ba83b0d0b8b9917ae988088ac580f9ad1a82a9d8207f3a03db9b321cdeb22fabaed33da8514ee9212c88f4af47de76e61ec612042feaefca0393a60f67b33ac6b4426e0e5a955edf82848f5241d8de5010355df1838ac9ca6",
            "customRawTx": "0xee08843b9aca00830186a0941275fbb540c8efc58b812ba83b0d0b8b9917ae988088ac580f9ad1a82a9d8203e880803db9b321cdeb22fabaed33da8514ee9212c88f4af47de76e61ec612042feaefc393a60f67b33ac6b4426e0e5a955edf82848f5241d8de5010355df1838ac9ca61bff"
          },
          {
            "from": "0x4d5Cf5032B2a844602278b01199ED191A86c93ff",
            "to": "0x1275fbb540c8efc58b812ba83b0d0b8b9917ae98",
            "nonce": 8,
            "value": "0",
            "data": "0xac580f9ad1a82a9d",
            "gasLimit": 100000,
            "gasPrice": "1000000000",
            "chainId": 1000,
            "rawTx": "0xf86e08843b9aca00830186a0941275fbb540c8efc58b812ba83b0d0b8b9917ae988088ac580f9ad1a82a9d8207f3a03db9b321cdeb22fabaed33da8514ee9212c88f4af47de76e61ec612042feaefca0393a60f67b33ac6b4426e0e5a955edf82848f5241d8de5010355df1838ac9ca6",
            "customRawTx": "0xee08843b9aca00830186a0941275fbb540c8efc58b812ba83b0d0b8b9917ae988088ac580f9ad1a82a9d8203e880803db9b321cdeb22fabaed33da8514ee9212c88f4af47de76e61ec612042feaefc393a60f67b33ac6b4426e0e5a955edf82848f5241d8de5010355df1838ac9ca61bff"
          },
          {
            "from": "0x4d5Cf5032B2a844602278b01199ED191A86c93ff",
            "to": "0x1275fbb540c8efc58b812ba83b0d0b8b9917ae98",
            "nonce": 8,
            "value": "0",
            "data": "0xac580f9ad1a82a9d",
            "gasLimit": 100000,
            "gasPrice": "1000000000",
            "chainId": 1000,
            "rawTx": "0xf86e08843b9aca00830186a0941275fbb540c8efc58b812ba83b0d0b8b9917ae988088ac580f9ad1a82a9d8207f3a03db9b321cdeb22fabaed33da8514ee9212c88f4af47de76e61ec612042feaefca0393a60f67b33ac6b4426e0e5a955edf82848f5241d8de5010355df1838ac9ca6",
            "customRawTx": "0xee08843b9aca00830186a0941275fbb540c8efc58b812ba83b0d0b8b9917ae988088ac580f9ad1a82a9d8203e880803db9b321cdeb22fabaed33da8514ee9212c88f4af47de76e61ec612042feaefc393a60f67b33ac6b4426e0e5a955edf82848f5241d8de5010355df1838ac9ca61bff"
          }
        ],
        "expectedNewRoot": "0x639ff684d7b817eb2dc85a241f29fe5cc0a56b8890c10d5573b31efffd6a431e",
        "expectedNewLeafs": {
          "0x000000000000000000000000000000005ca1ab1e": {
            "balance": "0",
            "nonce": "0",
            "storage": {
              "0x0000000000000000000000000000000000000000000000000000000000000000": "0x02",
              "0x0000000000000000000000000000000000000000000000000000000000000002": "0x02",
              "0xcc69885fda6bcc1a4ace058b4a62bf5e179ea78fd58a1ccd71c22cc9b688792f": "0x674660ec7c01ee0f44524dfa4c8105315eb90fcc2f07d8d360374933347d95d2",
              "0xd9d16d34ffb15ba3a3d852f0d403e2ce1d691fb54de27ac87cd2f993f3ec330f": "0x80ae393c964dc85bb3fc5bb2455be821abcb3e4c1ff1932c3da0cd1e9931d7fe"
            }
          },
          "0x617b3a3528f9cdd6630fd3301b9c8911f7bf063d": {
            "nonce": "0",
            "balance": "100000000000000000000",
            "pvtKey": "0x28b2b0318721be8c8339199172cd7cc8f5e273800a35616ec893083a4b32c02e"
          },
          "0x4d5cf5032b2a844602278b01199ed191a86c93ff": {
            "nonce": "0",
            "balance": "200000000000000000000",
            "pvtKey": "0x4d27a600dce8c29b7bd080e29a26972377dbb04d7a27d919adbb602bf13cfd23"
          },
          "0x1275fbb540c8efc58b812ba83b0d0b8b9917ae98": {
            "nonce": 1,
            "balance": 0,
            "abi": [
              {
                "inputs": [
                  {
                    "internalType": "uint256",
                    "name": "numBatch",
                    "type": "uint256"
                  }
                ],
                "name": "opBlockHash",
                "outputs": [],
                "stateMutability": "nonpayable",
                "type": "function"
              },
              {
                "inputs": [],
                "name": "opChainId",
                "outputs": [],
                "stateMutability": "nonpayable",
                "type": "function"
              },
              {
                "inputs": [],
                "name": "opCoinbase",
                "outputs": [],
                "stateMutability": "nonpayable",
                "type": "function"
              },
              {
                "inputs": [],
                "name": "opDifficulty",
                "outputs": [],
                "stateMutability": "nonpayable",
                "type": "function"
              },
              {
                "inputs": [],
                "name": "opGasLimit",
                "outputs": [],
                "stateMutability": "nonpayable",
                "type": "function"
              },
              {
                "inputs": [],
                "name": "opNumber",
                "outputs": [],
                "stateMutability": "nonpayable",
                "type": "function"
              },
              {
                "inputs": [],
                "name": "opSelfBalance",
                "outputs": [],
                "stateMutability": "nonpayable",
                "type": "function"
              },
              {
                "inputs": [],
                "name": "opTimestamp",
                "outputs": [],
                "stateMutability": "nonpayable",
                "type": "function"
              },
              {
                "inputs": [],
                "name": "test",
                "outputs": [
                  {
                    "internalType": "uint256",
                    "name": "",
                    "type": "uint256"
                  }
                ],
                "stateMutability": "view",
                "type": "function"
              },
              {
                "inputs": [],
                "name": "testBlockhash",
                "outputs": [
                  {
                    "internalType": "bytes32",
                    "name": "",
                    "type": "bytes32"
                  }
                ],
                "stateMutability": "view",
                "type": "function"
              },
              {
                "inputs": [],
                "name": "testCoinbase",
                "outputs": [
                  {
                    "internalType": "address",
                    "name": "",
                    "type": "address"
                  }
                ],
                "stateMutability": "view",
                "type": "function"
              },
              {
                "stateMutability": "payable",
                "type": "receive"
              }
            ],
            "storage": {
              "0x0000000000000000000000000000000000000000000000000000000000000002": "0x01"
            }
          }
        },
        "batchL2Data": "0x0b000000000000000100000001ee08843b9aca00830186a0941275fbb540c8efc58b812ba83b0d0b8b9917ae988088ac580f9ad1a82a9d8203e880803db9b321cdeb22fabaed33da8514ee9212c88f4af47de76e61ec612042feaefc393a60f67b33ac6b4426e0e5a955edf82848f5241d8de5010355df1838ac9ca61bffee08843b9aca00830186a0941275fbb540c8efc58b812ba83b0d0b8b9917ae988088ac580f9ad1a82a9d8203e880803db9b321cdeb22fabaed33da8514ee9212c88f4af47de76e61ec612042feaefc393a60f67b33ac6b4426e0e5a955edf82848f5241d8de5010355df1838ac9ca61bffee08843b9aca00830186a0941275fbb540c8efc58b812ba83b0d0b8b9917ae988088ac580f9ad1a82a9d8203e880803db9b321cdeb22fabaed33da8514ee9212c88f4af47de76e61ec612042feaefc393a60f67b33ac6b4426e0e5a955edf82848f5241d8de5010355df1838ac9ca61bffee08843b9aca00830186a0941275fbb540c8efc58b812ba83b0d0b8b9917ae988088ac580f9ad1a82a9d8203e880803db9b321cdeb22fabaed33da8514ee9212c88f4af47de76e61ec612042feaefc393a60f67b33ac6b4426e0e5a955edf82848f5241d8de5010355df1838ac9ca61bffee08843b9aca00830186a0941275fbb540c8efc58b812ba83b0d0b8b9917ae988088ac580f9ad1a82a9d8203e880803db9b321cdeb22fabaed33da8514ee9212c88f4af47de76e61ec612042feaefc393a60f67b33ac6b4426e0e5a955edf82848f5241d8de5010355df1838ac9ca61bffee08843b9aca00830186a0941275fbb540c8efc58b812ba83b0d0b8b9917ae988088ac580f9ad1a82a9d8203e880803db9b321cdeb22fabaed33da8514ee9212c88f4af47de76e61ec612042feaefc393a60f67b33ac6b4426e0e5a955edf82848f5241d8de5010355df1838ac9ca61bffee08843b9aca00830186a0941275fbb540c8efc58b812ba83b0d0b8b9917ae988088ac580f9ad1a82a9d8203e880803db9b321cdeb22fabaed33da8514ee9212c88f4af47de76e61ec612042feaefc393a60f67b33ac6b4426e0e5a955edf82848f5241d8de5010355df1838ac9ca61bff",
        "historicGERRoot": "0x090bcaf734c4f06c93954a827b45a6e8c67b8e0fd1e0a35a1c5982d6961828f9",
        "newLocalExitRoot": "0x0000000000000000000000000000000000000000000000000000000000000000",
        "batchHashData": "0xdc208c0db6a4e0b1ed1c1424e83e7859c44c96d575d0c742fee8e8c16196294c",
        "timestamp": 1944498031
      },
      {
        "txs": [],
        "expectedNewRoot": "0x9ddcc59be3e817e92fb22cad0779b0bc4da6e03285cb3ee2d54f4bbbb4d9cc96",
        "expectedNewLeafs": {
          "0x000000000000000000000000000000005ca1ab1e": {
            "balance": "0",
            "nonce": "0",
            "storage": {
              "0x0000000000000000000000000000000000000000000000000000000000000000": "0x03",
              "0x0000000000000000000000000000000000000000000000000000000000000002": "0x03",
              "0x7dfe757ecd65cbd7922a9c0161e935dd7fdbcc0e999689c7d31633896b1fc60b": "0x5606556c6e0b32332e5d61ba391d1e4015328a8cefd0a211fffe987e321b2d44",
              "0xcc69885fda6bcc1a4ace058b4a62bf5e179ea78fd58a1ccd71c22cc9b688792f": "0x674660ec7c01ee0f44524dfa4c8105315eb90fcc2f07d8d360374933347d95d2",
              "0xd9d16d34ffb15ba3a3d852f0d403e2ce1d691fb54de27ac87cd2f993f3ec330f": "0x80ae393c964dc85bb3fc5bb2455be821abcb3e4c1ff1932c3da0cd1e9931d7fe"
            }
          },
          "0x617b3a3528f9cdd6630fd3301b9c8911f7bf063d": {
            "nonce": "0",
            "balance": "100000000000000000000",
            "pvtKey": "0x28b2b0318721be8c8339199172cd7cc8f5e273800a35616ec893083a4b32c02e"
          },
          "0x4d5cf5032b2a844602278b01199ed191a86c93ff": {
            "nonce": "0",
            "balance": "200000000000000000000",
            "pvtKey": "0x4d27a600dce8c29b7bd080e29a26972377dbb04d7a27d919adbb602bf13cfd23"
          },
          "0x1275fbb540c8efc58b812ba83b0d0b8b9917ae98": {
            "nonce": 1,
            "balance": 0,
            "abi": [
              {
                "inputs": [
                  {
                    "internalType": "uint256",
                    "name": "numBatch",
                    "type": "uint256"
                  }
                ],
                "name": "opBlockHash",
                "outputs": [],
                "stateMutability": "nonpayable",
                "type": "function"
              },
              {
                "inputs": [],
                "name": "opChainId",
                "outputs": [],
                "stateMutability": "nonpayable",
                "type": "function"
              },
              {
                "inputs": [],
                "name": "opCoinbase",
                "outputs": [],
                "stateMutability": "nonpayable",
                "type": "function"
              },
              {
                "inputs": [],
                "name": "opDifficulty",
                "outputs": [],
                "stateMutability": "nonpayable",
                "type": "function"
              },
              {
                "inputs": [],
                "name": "opGasLimit",
                "outputs": [],
                "stateMutability": "nonpayable",
                "type": "function"
              },
              {
                "inputs": [],
                "name": "opNumber",
                "outputs": [],
                "stateMutability": "nonpayable",
                "type": "function"
              },
              {
                "inputs": [],
                "name": "opSelfBalance",
                "outputs": [],
                "stateMutability": "nonpayable",
                "type": "function"
              },
              {
                "inputs": [],
                "name": "opTimestamp",
                "outputs": [],
                "stateMutability": "nonpayable",
                "type": "function"
              },
              {
                "inputs": [],
                "name": "test",
                "outputs": [
                  {
                    "internalType": "uint256",
                    "name": "",
                    "type": "uint256"
                  }
                ],
                "stateMutability": "view",
                "type": "function"
              },
              {
                "inputs": [],
                "name": "testBlockhash",
                "outputs": [
                  {
                    "internalType": "bytes32",
                    "name": "",
                    "type": "bytes32"
                  }
                ],
                "stateMutability": "view",
                "type": "function"
              },
              {
                "inputs": [],
                "name": "testCoinbase",
                "outputs": [
                  {
                    "internalType": "address",
                    "name": "",
                    "type": "address"
                  }
                ],
                "stateMutability": "view",
                "type": "function"
              },
              {
                "stateMutability": "payable",
                "type": "receive"
              }
            ],
            "storage": {
              "0x0000000000000000000000000000000000000000000000000000000000000002": "0x01"
            }
          }
        },
        "batchL2Data": "0x0b000000000000000100000001",
        "historicGERRoot": "0x190bcaf734c4f06c93954a827b45a6e8c67b8e0fd1e0a35a1c5982d6961828f9",
        "newLocalExitRoot": "0x0000000000000000000000000000000000000000000000000000000000000000",
        "batchHashData": "0xd2425cc0c2f857c894589599bd948528bb48b59c54d5e57cb5487c71065547a1",
        "timestamp": 1944498033
      },
      {
        "txs": [],
        "expectedNewRoot": "0xc7ae4e463b8b925ef2c145ca98f671d5d4a75831deae1ade1155339505aa49c4",
        "expectedNewLeafs": {
          "0x000000000000000000000000000000005ca1ab1e": {
            "balance": "0",
            "nonce": "0",
            "storage": {
              "0x0000000000000000000000000000000000000000000000000000000000000000": "0x04",
              "0x0000000000000000000000000000000000000000000000000000000000000002": "0x04",
              "0x7dfe757ecd65cbd7922a9c0161e935dd7fdbcc0e999689c7d31633896b1fc60b": "0x5606556c6e0b32332e5d61ba391d1e4015328a8cefd0a211fffe987e321b2d44",
              "0xcc69885fda6bcc1a4ace058b4a62bf5e179ea78fd58a1ccd71c22cc9b688792f": "0x674660ec7c01ee0f44524dfa4c8105315eb90fcc2f07d8d360374933347d95d2",
              "0xd9d16d34ffb15ba3a3d852f0d403e2ce1d691fb54de27ac87cd2f993f3ec330f": "0x80ae393c964dc85bb3fc5bb2455be821abcb3e4c1ff1932c3da0cd1e9931d7fe",
              "0xedc95719e9a3b28dd8e80877cb5880a9be7de1a13fc8b05e7999683b6b567643": "0xbd6a84cf3b7d1d9b3e998aedf678ef07b50b8d718d51108bc41974191ccd00a2"
            }
          },
          "0x617b3a3528f9cdd6630fd3301b9c8911f7bf063d": {
            "nonce": "0",
            "balance": "100000000000000000000",
            "pvtKey": "0x28b2b0318721be8c8339199172cd7cc8f5e273800a35616ec893083a4b32c02e"
          },
          "0x4d5cf5032b2a844602278b01199ed191a86c93ff": {
            "nonce": "0",
            "balance": "200000000000000000000",
            "pvtKey": "0x4d27a600dce8c29b7bd080e29a26972377dbb04d7a27d919adbb602bf13cfd23"
          },
          "0x1275fbb540c8efc58b812ba83b0d0b8b9917ae98": {
            "nonce": 1,
            "balance": 0,
            "abi": [
              {
                "inputs": [
                  {
                    "internalType": "uint256",
                    "name": "numBatch",
                    "type": "uint256"
                  }
                ],
                "name": "opBlockHash",
                "outputs": [],
                "stateMutability": "nonpayable",
                "type": "function"
              },
              {
                "inputs": [],
                "name": "opChainId",
                "outputs": [],
                "stateMutability": "nonpayable",
                "type": "function"
              },
              {
                "inputs": [],
                "name": "opCoinbase",
                "outputs": [],
                "stateMutability": "nonpayable",
                "type": "function"
              },
              {
                "inputs": [],
                "name": "opDifficulty",
                "outputs": [],
                "stateMutability": "nonpayable",
                "type": "function"
              },
              {
                "inputs": [],
                "name": "opGasLimit",
                "outputs": [],
                "stateMutability": "nonpayable",
                "type": "function"
              },
              {
                "inputs": [],
                "name": "opNumber",
                "outputs": [],
                "stateMutability": "nonpayable",
                "type": "function"
              },
              {
                "inputs": [],
                "name": "opSelfBalance",
                "outputs": [],
                "stateMutability": "nonpayable",
                "type": "function"
              },
              {
                "inputs": [],
                "name": "opTimestamp",
                "outputs": [],
                "stateMutability": "nonpayable",
                "type": "function"
              },
              {
                "inputs": [],
                "name": "test",
                "outputs": [
                  {
                    "internalType": "uint256",
                    "name": "",
                    "type": "uint256"
                  }
                ],
                "stateMutability": "view",
                "type": "function"
              },
              {
                "inputs": [],
                "name": "testBlockhash",
                "outputs": [
                  {
                    "internalType": "bytes32",
                    "name": "",
                    "type": "bytes32"
                  }
                ],
                "stateMutability": "view",
                "type": "function"
              },
              {
                "inputs": [],
                "name": "testCoinbase",
                "outputs": [
                  {
                    "internalType": "address",
                    "name": "",
                    "type": "address"
                  }
                ],
                "stateMutability": "view",
                "type": "function"
              },
              {
                "stateMutability": "payable",
                "type": "receive"
              }
            ],
            "storage": {
              "0x0000000000000000000000000000000000000000000000000000000000000002": "0x01"
            }
          }
        },
        "batchL2Data": "0x0b000000000000000100000001",
        "historicGERRoot": "0x190bcaf734c4f06c93954a827b45a6e8c67b8e0fd1e0a35a1c5982d6961828f9",
        "newLocalExitRoot": "0x0000000000000000000000000000000000000000000000000000000000000000",
        "batchHashData": "0xd2425cc0c2f857c894589599bd948528bb48b59c54d5e57cb5487c71065547a1",
        "timestamp": 1944498042
      }
    ],
    "forkID": 6
  }
]