[
  {
    "id": 0,
    "description": "opSELFDESTRUCT non-empty receiver",
    "arity": 4,
    "chainIdSequencer": 1001,
    "defaultChainId": 1000,
    "sequencerAddress": "0x617b3a3528F9cDd6630fd3301B9c8911F7Bf063D",
    "sequencerPvtKey": "0x28b2b0318721be8c8339199172cd7cc8f5e273800a35616ec893083a4b32c02e",
    "genesis": {
      "accounts": [
        {
          "address": "0x617b3a3528F9cDd6630fd3301B9c8911F7Bf063D",
          "pvtKey": "0x28b2b0318721be8c8339199172cd7cc8f5e273800a35616ec893083a4b32c02e",
          "balance": "100000000000000000000",
          "nonce": "0"
        },
        {
          "address": "0x4d5Cf5032B2a844602278b01199ED191A86c93ff",
          "pvtKey": "0x4d27a600dce8c29b7bd080e29a26972377dbb04d7a27d919adbb602bf13cfd23",
          "balance": "200000000000000000000",
          "nonce": "0"
        },
        {
          "address": "0xEEEeF5032B2A844602278B01199ED191a86cEEeE",
          "balance": "0",
          "nonce": "1"
        }
      ],
      "contracts": [
        {
          "contractName": "Selfdestruct",
          "paramsDeploy": {}
        }
      ]
    },
    "expectedOldRoot": "0x8e9248ecf83a8eeb112384fdba7f5139ed9c25dc264f772cea9756ad6f957173",
    "txs": [
      {
        "from": "0x617b3a3528F9cDd6630fd3301B9c8911F7Bf063D",
        "to": "contract",
        "nonce": "0",
        "value": "0",
        "contractName": "Selfdestruct",
        "function": "setReceiver",
        "params": [
          "0xEEEeF5032B2A844602278B01199ED191a86cEEeE"
        ],
        "gasLimit": 100000,
        "gasPrice": "1000000000",
        "chainId": 1000
      },
      {
        "from": "0x617b3a3528F9cDd6630fd3301B9c8911F7Bf063D",
        "to": "contract",
        "nonce": "1",
        "value": "123456789",
        "contractName": "Selfdestruct",
        "function": "setVal",
        "params": [],
        "gasLimit": 100000,
        "gasPrice": "1000000000",
        "chainId": 1000
      },
      {
        "from": "0x4d5Cf5032B2a844602278b01199ED191A86c93ff",
        "to": "contract",
        "nonce": "0",
        "value": "0",
        "contractName": "Selfdestruct",
        "function": "destruct",
        "params": [],
        "gasLimit": 100000,
        "gasPrice": "1000000000",
        "chainId": 1000
      }
    ],
    "expectedNewRoot": "0x0e54aa0c6fb05a37960d2ea9eae04d0419c2559d8027a1c67448765e78d52395",
    "expectedNewLeafs": {
      "0x0000000000000000000000000000000000000000": {
        "balance": "0",
        "nonce": "0",
        "storage": {
          "0xad3228b676f7d3cd4284a5443f17f1962b36e491b30a40b2405849e597ba5fb5": "0x8e9248ecf83a8eeb112384fdba7f5139ed9c25dc264f772cea9756ad6f957173"
        },
        "hashBytecode": "0x0000000000000000000000000000000000000000000000000000000000000000",
        "bytecodeLength": 0
      },
      "0xAE4bB80bE56B819606589DE61d5ec3b522EEB032": {
        "balance": "0",
        "nonce": "0",
        "storage": {
          "0x53d3f126103a7f7d6245751d2392e0245bf71479d10a3c27a5b501ace6dde1b7": "0x01"
        },
        "hashBytecode": "0x0000000000000000000000000000000000000000000000000000000000000000",
        "bytecodeLength": 0
      },
      "0x1275fbb540c8efc58b812ba83b0d0b8b9917ae98": {
        "balance": "0",
        "nonce": "1",
        "storage": {
          "0x0000000000000000000000000000000000000000000000000000000000000000": "0xeeeef5032b2a844602278b01199ed191a86ceeee",
          "0x0000000000000000000000000000000000000000000000000000000000000001": "0x075bcd15"
        },
        "hashBytecode": "0x0000000000000000000000000000000000000000000000000000000000000000",
        "bytecodeLength": 0
      },
      "0x617b3a3528F9cDd6630fd3301B9c8911F7Bf063D": {
        "balance": "100000015459876543211",
        "nonce": "2",
        "storage": null,
        "hashBytecode": "0x0000000000000000000000000000000000000000000000000000000000000000",
        "bytecodeLength": 0
      },
      "0x4d5Cf5032B2a844602278b01199ED191A86c93ff": {
        "balance": "199999984540000000000",
        "nonce": "1",
        "storage": null,
        "hashBytecode": "0x0000000000000000000000000000000000000000000000000000000000000000",
        "bytecodeLength": 0
      },
      "0xEEEeF5032B2A844602278B01199ED191a86cEEeE": {
        "balance": "123456789",
        "nonce": "1",
        "storage": null,
        "hashBytecode": "0x0000000000000000000000000000000000000000000000000000000000000000",
        "bytecodeLength": 0
      }
    },
    "timestamp": 1944498031,
    "newLocalExitRoot": "0x0000000000000000000000000000000000000000000000000000000000000000",
    "batchHashData": "0xe2eeb9f7f1117b3878f8963667f6ada24aec8f65ebd2c51d7a77d4088d8fdd70",
    "inputHash": "0xa9d00d5a622d9fa2b47958ae3b04db8ad7a226d4cf13faffc83bfe9ac48d359f",
    "globalExitRoot": "0x090bcaf734c4f06c93954a827b45a6e8c67b8e0fd1e0a35a1c5982d6961828f9",
    "oldLocalExitRoot": "0x0000000000000000000000000000000000000000000000000000000000000000",
    "batchL2Data": "0xf84a80843b9aca00830186a0941275fbb540c8efc58b812ba83b0d0b8b9917ae9880a4718da7ee000000000000000000000000eeeef5032b2a844602278b01199ed191a86ceeee8203e88080f575c21921ce2d8fb27d7706563bf605e7ac616156380e71bae93bc0e77367e151cce11879fd46346b92536449bf3bd1b8f7a8110978fcb4f8ea4499c988f79a1bee01843b9aca00830186a0941275fbb540c8efc58b812ba83b0d0b8b9917ae9884075bcd15845cfb28e78203e88080753bcbcaec2a03e928e96c7e951e585511acc85ab44ea1ef5344cc727879469923f9591354e24a495186a960957fa25fde99ab8f515a775c1d1947b8f8c7516b1cea80843b9aca00830186a0941275fbb540c8efc58b812ba83b0d0b8b9917ae9880842b68b9c68203e88080b506d57844ffec75125ca857d7a7d2ce4cfc505f6628794ea3fcddc4a8d4e80e1e8c47bdcd2ab62b3add73b01cac019e2437979d808c6a2635dc6a3f4c5fba271b"
  },
  {
    "id": 1,
    "description": "opSELFDESTRUCT empty receiver",
    "arity": 4,
    "chainIdSequencer": 1001,
    "defaultChainId": 1000,
    "sequencerAddress": "0x617b3a3528F9cDd6630fd3301B9c8911F7Bf063D",
    "sequencerPvtKey": "0x28b2b0318721be8c8339199172cd7cc8f5e273800a35616ec893083a4b32c02e",
    "genesis": {
      "accounts": [
        {
          "address": "0x617b3a3528F9cDd6630fd3301B9c8911F7Bf063D",
          "pvtKey": "0x28b2b0318721be8c8339199172cd7cc8f5e273800a35616ec893083a4b32c02e",
          "balance": "100000000000000000000",
          "nonce": "0"
        },
        {
          "address": "0x4d5Cf5032B2a844602278b01199ED191A86c93ff",
          "pvtKey": "0x4d27a600dce8c29b7bd080e29a26972377dbb04d7a27d919adbb602bf13cfd23",
          "balance": "200000000000000000000",
          "nonce": "0"
        },
        {
          "address": "0xEEEeF5032B2A844602278B01199ED191a86cEEeE",
          "balance": "0",
          "nonce": "0"
        }
      ],
      "contracts": [
        {
          "contractName": "Selfdestruct",
          "paramsDeploy": {}
        }
      ]
    },
    "expectedOldRoot": "0xfb75a60cac5e1c017addd7dd9e1e5178bfe9bebcf3473a895f15f95cfe323fcd",
    "txs": [
      {
        "from": "0x617b3a3528F9cDd6630fd3301B9c8911F7Bf063D",
        "to": "contract",
        "nonce": "0",
        "value": "0",
        "contractName": "Selfdestruct",
        "function": "setReceiver",
        "params": [
          "0xEEEeF5032B2A844602278B01199ED191a86cEEeE"
        ],
        "gasLimit": 100000,
        "gasPrice": "1000000000",
        "chainId": 1000
      },
      {
        "from": "0x617b3a3528F9cDd6630fd3301B9c8911F7Bf063D",
        "to": "contract",
        "nonce": "1",
        "value": "123456789",
        "contractName": "Selfdestruct",
        "function": "setVal",
        "params": [],
        "gasLimit": 100000,
        "gasPrice": "1000000000",
        "chainId": 1000
      },
      {
        "from": "0x4d5Cf5032B2a844602278b01199ED191A86c93ff",
        "to": "contract",
        "nonce": "0",
        "value": "0",
        "contractName": "Selfdestruct",
        "function": "destruct",
        "params": [],
        "gasLimit": 100000,
        "gasPrice": "1000000000",
        "chainId": 1000
      }
    ],
    "expectedNewRoot": "0x4f37668d7de4427831b3c3b4bc6a53b41009c4fe1dd14459444d535c236e0e45",
    "expectedNewLeafs": {
      "0x0000000000000000000000000000000000000000": {
        "balance": "0",
        "nonce": "0",
        "storage": {
          "0xad3228b676f7d3cd4284a5443f17f1962b36e491b30a40b2405849e597ba5fb5": "0xfb75a60cac5e1c017addd7dd9e1e5178bfe9bebcf3473a895f15f95cfe323fcd"
        },
        "hashBytecode": "0x0000000000000000000000000000000000000000000000000000000000000000",
        "bytecodeLength": 0
      },
      "0xAE4bB80bE56B819606589DE61d5ec3b522EEB032": {
        "balance": "0",
        "nonce": "0",
        "storage": {
          "0x53d3f126103a7f7d6245751d2392e0245bf71479d10a3c27a5b501ace6dde1b7": "0x01"
        },
        "hashBytecode": "0x0000000000000000000000000000000000000000000000000000000000000000",
        "bytecodeLength": 0
      },
      "0x1275fbb540c8efc58b812ba83b0d0b8b9917ae98": {
        "balance": "0",
        "nonce": "1",
        "storage": {
          "0x0000000000000000000000000000000000000000000000000000000000000000": "0xeeeef5032b2a844602278b01199ed191a86ceeee",
          "0x0000000000000000000000000000000000000000000000000000000000000001": "0x075bcd15"
        },
        "hashBytecode": "0x0000000000000000000000000000000000000000000000000000000000000000",
        "bytecodeLength": 0
      },
      "0x617b3a3528F9cDd6630fd3301B9c8911F7Bf063D": {
        "balance": "100000031918876543211",
        "nonce": "2",
        "storage": null,
        "hashBytecode": "0x0000000000000000000000000000000000000000000000000000000000000000",
        "bytecodeLength": 0
      },
      "0x4d5Cf5032B2a844602278b01199ED191A86c93ff": {
        "balance": "199999968081000000000",
        "nonce": "1",
        "storage": null,
        "hashBytecode": "0x0000000000000000000000000000000000000000000000000000000000000000",
        "bytecodeLength": 0
      },
      "0xEEEeF5032B2A844602278B01199ED191a86cEEeE": {
        "balance": "123456789",
        "nonce": "0",
        "storage": null,
        "hashBytecode": "0x0000000000000000000000000000000000000000000000000000000000000000",
        "bytecodeLength": 0
      }
    },
    "timestamp": 1944498031,
    "newLocalExitRoot": "0x0000000000000000000000000000000000000000000000000000000000000000",
    "batchHashData": "0xe2eeb9f7f1117b3878f8963667f6ada24aec8f65ebd2c51d7a77d4088d8fdd70",
    "inputHash": "0xc2f94672f2d6b4aa7ed458025e8f09534816b357a27e1811648b25fb467a1c0e",
    "globalExitRoot": "0x090bcaf734c4f06c93954a827b45a6e8c67b8e0fd1e0a35a1c5982d6961828f9",
    "oldLocalExitRoot": "0x0000000000000000000000000000000000000000000000000000000000000000",
    "batchL2Data": "0xf84a80843b9aca00830186a0941275fbb540c8efc58b812ba83b0d0b8b9917ae9880a4718da7ee000000000000000000000000eeeef5032b2a844602278b01199ed191a86ceeee8203e88080f575c21921ce2d8fb27d7706563bf605e7ac616156380e71bae93bc0e77367e151cce11879fd46346b92536449bf3bd1b8f7a8110978fcb4f8ea4499c988f79a1bee01843b9aca00830186a0941275fbb540c8efc58b812ba83b0d0b8b9917ae9884075bcd15845cfb28e78203e88080753bcbcaec2a03e928e96c7e951e585511acc85ab44ea1ef5344cc727879469923f9591354e24a495186a960957fa25fde99ab8f515a775c1d1947b8f8c7516b1cea80843b9aca00830186a0941275fbb540c8efc58b812ba83b0d0b8b9917ae9880842b68b9c68203e88080b506d57844ffec75125ca857d7a7d2ce4cfc505f6628794ea3fcddc4a8d4e80e1e8c47bdcd2ab62b3add73b01cac019e2437979d808c6a2635dc6a3f4c5fba271b"
  },
  {
    "id": 2,
    "description": "opSELFDESTRUCT non-empty cold receiver",
    "arity": 4,
    "chainIdSequencer": 1001,
    "defaultChainId": 1000,
    "sequencerAddress": "0x617b3a3528F9cDd6630fd3301B9c8911F7Bf063D",
    "sequencerPvtKey": "0x28b2b0318721be8c8339199172cd7cc8f5e273800a35616ec893083a4b32c02e",
    "genesis": {
      "accounts": [
        {
          "address": "0x617b3a3528F9cDd6630fd3301B9c8911F7Bf063D",
          "pvtKey": "0x28b2b0318721be8c8339199172cd7cc8f5e273800a35616ec893083a4b32c02e",
          "balance": "100000000000000000000",
          "nonce": "0"
        },
        {
          "address": "0x4d5Cf5032B2a844602278b01199ED191A86c93ff",
          "pvtKey": "0x4d27a600dce8c29b7bd080e29a26972377dbb04d7a27d919adbb602bf13cfd23",
          "balance": "200000000000000000000",
          "nonce": "0"
        },
        {
          "address": "0xEEEeF5032B2A844602278B01199ED191a86cEEeE",
          "balance": "0",
          "nonce": "0"
        }
      ],
      "contracts": [
        {
          "contractName": "Selfdestruct",
          "paramsDeploy": {}
        }
      ]
    },
    "expectedOldRoot": "0xfb75a60cac5e1c017addd7dd9e1e5178bfe9bebcf3473a895f15f95cfe323fcd",
    "txs": [
      {
        "from": "0x617b3a3528F9cDd6630fd3301B9c8911F7Bf063D",
        "to": "contract",
        "nonce": "0",
        "value": "0",
        "contractName": "Selfdestruct",
        "function": "setReceiver",
        "params": [
          "0xEEEeF5032B2A844602278B01199ED191a86cEEeE"
        ],
        "gasLimit": 100000,
        "gasPrice": "1000000000",
        "chainId": 1000
      },
      {
        "from": "0x617b3a3528F9cDd6630fd3301B9c8911F7Bf063D",
        "to": "contract",
        "nonce": "1",
        "value": "123456789",
        "contractName": "Selfdestruct",
        "function": "setVal",
        "params": [],
        "gasLimit": 100000,
        "gasPrice": "1000000000",
        "chainId": 1000
      },
      {
        "from": "0x617b3a3528F9cDd6630fd3301B9c8911F7Bf063D",
        "to": "0xEEEeF5032B2A844602278B01199ED191a86cEEeE",
        "nonce": "2",
        "value": "3",
        "gasLimit": 100000,
        "gasPrice": "1000000000",
        "chainId": 1000
      },
      {
        "from": "0x4d5Cf5032B2a844602278b01199ED191A86c93ff",
        "to": "contract",
        "nonce": "0",
        "value": "0",
        "contractName": "Selfdestruct",
        "function": "destruct",
        "params": [],
        "gasLimit": 100000,
        "gasPrice": "1000000000",
        "chainId": 1000
      }
    ],
    "expectedNewRoot": "0x9c7e630aab03f90a8b62f2a5c97af8efb247daa8aa2f65c0842af31d680cab19",
    "expectedNewLeafs": {
      "0x0000000000000000000000000000000000000000": {
        "balance": "0",
        "nonce": "0",
        "storage": {
          "0xad3228b676f7d3cd4284a5443f17f1962b36e491b30a40b2405849e597ba5fb5": "0xfb75a60cac5e1c017addd7dd9e1e5178bfe9bebcf3473a895f15f95cfe323fcd"
        },
        "hashBytecode": "0x0000000000000000000000000000000000000000000000000000000000000000",
        "bytecodeLength": 0
      },
      "0xAE4bB80bE56B819606589DE61d5ec3b522EEB032": {
        "balance": "0",
        "nonce": "0",
        "storage": {
          "0x53d3f126103a7f7d6245751d2392e0245bf71479d10a3c27a5b501ace6dde1b7": "0x01"
        },
        "hashBytecode": "0x0000000000000000000000000000000000000000000000000000000000000000",
        "bytecodeLength": 0
      },
      "0x1275fbb540c8efc58b812ba83b0d0b8b9917ae98": {
        "balance": "0",
        "nonce": "1",
        "storage": {
          "0x0000000000000000000000000000000000000000000000000000000000000000": "0xeeeef5032b2a844602278b01199ed191a86ceeee",
          "0x0000000000000000000000000000000000000000000000000000000000000001": "0x075bcd15"
        },
        "hashBytecode": "0x0000000000000000000000000000000000000000000000000000000000000000",
        "bytecodeLength": 0
      },
      "0x617b3a3528F9cDd6630fd3301B9c8911F7Bf063D": {
        "balance": "100000015459876543208",
        "nonce": "3",
        "storage": null,
        "hashBytecode": "0x0000000000000000000000000000000000000000000000000000000000000000",
        "bytecodeLength": 0
      },
      "0x4d5Cf5032B2a844602278b01199ED191A86c93ff": {
        "balance": "199999984540000000000",
        "nonce": "1",
        "storage": null,
        "hashBytecode": "0x0000000000000000000000000000000000000000000000000000000000000000",
        "bytecodeLength": 0
      },
      "0xEEEeF5032B2A844602278B01199ED191a86cEEeE": {
        "balance": "123456792",
        "nonce": "0",
        "storage": null,
        "hashBytecode": "0x0000000000000000000000000000000000000000000000000000000000000000",
        "bytecodeLength": 0
      }
    },
    "timestamp": 1944498031,
    "newLocalExitRoot": "0x0000000000000000000000000000000000000000000000000000000000000000",
    "batchHashData": "0xc0e71e643aa61e4f3dedb4f588ed48862b9cc52b179642d57e0816a52b7b5299",
    "inputHash": "0x33f4ab2417852ee2691ce938df88404b66e365c969576e970c925cfa208d2426",
    "globalExitRoot": "0x090bcaf734c4f06c93954a827b45a6e8c67b8e0fd1e0a35a1c5982d6961828f9",
    "oldLocalExitRoot": "0x0000000000000000000000000000000000000000000000000000000000000000",
    "batchL2Data": "0xf84a80843b9aca00830186a0941275fbb540c8efc58b812ba83b0d0b8b9917ae9880a4718da7ee000000000000000000000000eeeef5032b2a844602278b01199ed191a86ceeee8203e88080f575c21921ce2d8fb27d7706563bf605e7ac616156380e71bae93bc0e77367e151cce11879fd46346b92536449bf3bd1b8f7a8110978fcb4f8ea4499c988f79a1bee01843b9aca00830186a0941275fbb540c8efc58b812ba83b0d0b8b9917ae9884075bcd15845cfb28e78203e88080753bcbcaec2a03e928e96c7e951e585511acc85ab44ea1ef5344cc727879469923f9591354e24a495186a960957fa25fde99ab8f515a775c1d1947b8f8c7516b1ce602843b9aca00830186a094eeeef5032b2a844602278b01199ed191a86ceeee03808203e88080d051fe638181b4a417fb38ab7db717d97ebd8f74daef6134fe5f8fdf45d88b9759c5811954b33e0b171dd59af635f6c166cb503b8ab9a415749b5bdb059664821bea80843b9aca00830186a0941275fbb540c8efc58b812ba83b0d0b8b9917ae9880842b68b9c68203e88080b506d57844ffec75125ca857d7a7d2ce4cfc505f6628794ea3fcddc4a8d4e80e1e8c47bdcd2ab62b3add73b01cac019e2437979d808c6a2635dc6a3f4c5fba271b"
  },
  {
    "id": 3,
    "description": "opSELFDESTRUCT non-empty warm receiver",
    "arity": 4,
    "chainIdSequencer": 1001,
    "defaultChainId": 1000,
    "sequencerAddress": "0x617b3a3528F9cDd6630fd3301B9c8911F7Bf063D",
    "sequencerPvtKey": "0x28b2b0318721be8c8339199172cd7cc8f5e273800a35616ec893083a4b32c02e",
    "genesis": {
      "accounts": [
        {
          "address": "0x617b3a3528F9cDd6630fd3301B9c8911F7Bf063D",
          "pvtKey": "0x28b2b0318721be8c8339199172cd7cc8f5e273800a35616ec893083a4b32c02e",
          "balance": "100000000000000000000",
          "nonce": "0"
        },
        {
          "address": "0x4d5Cf5032B2a844602278b01199ED191A86c93ff",
          "pvtKey": "0x4d27a600dce8c29b7bd080e29a26972377dbb04d7a27d919adbb602bf13cfd23",
          "balance": "200000000000000000000",
          "nonce": "0"
        },
        {
          "address": "0xEEEeF5032B2A844602278B01199ED191a86cEEeE",
          "balance": "0",
          "nonce": "0"
        }
      ],
      "contracts": [
        {
          "contractName": "Selfdestruct",
          "paramsDeploy": {}
        }
      ]
    },
    "expectedOldRoot": "0xfb75a60cac5e1c017addd7dd9e1e5178bfe9bebcf3473a895f15f95cfe323fcd",
    "txs": [
      {
        "from": "0x617b3a3528F9cDd6630fd3301B9c8911F7Bf063D",
        "to": "contract",
        "nonce": "0",
        "value": "0",
        "contractName": "Selfdestruct",
        "function": "setReceiver",
        "params": [
          "0xEEEeF5032B2A844602278B01199ED191a86cEEeE"
        ],
        "gasLimit": 100000,
        "gasPrice": "1000000000",
        "chainId": 1000
      },
      {
        "from": "0x617b3a3528F9cDd6630fd3301B9c8911F7Bf063D",
        "to": "contract",
        "nonce": "1",
        "value": "123456789",
        "contractName": "Selfdestruct",
        "function": "setVal",
        "params": [],
        "gasLimit": 100000,
        "gasPrice": "1000000000",
        "chainId": 1000
      },
      {
        "from": "0x617b3a3528F9cDd6630fd3301B9c8911F7Bf063D",
        "to": "0xEEEeF5032B2A844602278B01199ED191a86cEEeE",
        "nonce": "2",
        "value": "3",
        "gasLimit": 100000,
        "gasPrice": "1000000000",
        "chainId": 1000
      },
      {
        "from": "0x4d5Cf5032B2a844602278b01199ED191A86c93ff",
        "to": "contract",
        "nonce": "0",
        "value": "0",
        "contractName": "Selfdestruct",
        "function": "destructWarm",
        "params": [],
        "gasLimit": 100000,
        "gasPrice": "1000000000",
        "chainId": 1000
      }
    ],
    "expectedNewRoot": "0x15d30e6a231ba2ea99405eb26e2d3a12bfdfd8f3d28e8a6aa5742ff244c94861",
    "expectedNewLeafs": {
      "0x0000000000000000000000000000000000000000": {
        "balance": "0",
        "nonce": "0",
        "storage": {
          "0xad3228b676f7d3cd4284a5443f17f1962b36e491b30a40b2405849e597ba5fb5": "0xfb75a60cac5e1c017addd7dd9e1e5178bfe9bebcf3473a895f15f95cfe323fcd"
        },
        "hashBytecode": "0x0000000000000000000000000000000000000000000000000000000000000000",
        "bytecodeLength": 0
      },
      "0xAE4bB80bE56B819606589DE61d5ec3b522EEB032": {
        "balance": "0",
        "nonce": "0",
        "storage": {
          "0x53d3f126103a7f7d6245751d2392e0245bf71479d10a3c27a5b501ace6dde1b7": "0x01"
        },
        "hashBytecode": "0x0000000000000000000000000000000000000000000000000000000000000000",
        "bytecodeLength": 0
      },
      "0x1275fbb540c8efc58b812ba83b0d0b8b9917ae98": {
        "balance": "0",
        "nonce": "1",
        "storage": {
          "0x0000000000000000000000000000000000000000000000000000000000000000": "0xeeeef5032b2a844602278b01199ed191a86ceeee",
          "0x0000000000000000000000000000000000000000000000000000000000000001": "0x075bcd15"
        },
        "hashBytecode": "0x0000000000000000000000000000000000000000000000000000000000000000",
        "bytecodeLength": 0
      },
      "0x617b3a3528F9cDd6630fd3301B9c8911F7Bf063D": {
        "balance": "100000015576876543208",
        "nonce": "3",
        "storage": null,
        "hashBytecode": "0x0000000000000000000000000000000000000000000000000000000000000000",
        "bytecodeLength": 0
      },
      "0x4d5Cf5032B2a844602278b01199ED191A86c93ff": {
        "balance": "199999984423000000000",
        "nonce": "1",
        "storage": null,
        "hashBytecode": "0x0000000000000000000000000000000000000000000000000000000000000000",
        "bytecodeLength": 0
      },
      "0xEEEeF5032B2A844602278B01199ED191a86cEEeE": {
        "balance": "123456792",
        "nonce": "0",
        "storage": null,
        "hashBytecode": "0x0000000000000000000000000000000000000000000000000000000000000000",
        "bytecodeLength": 0
      }
    },
    "timestamp": 1944498031,
    "newLocalExitRoot": "0x0000000000000000000000000000000000000000000000000000000000000000",
    "batchHashData": "0x704f94896746e4b093969dd6fa36af224bc639988ace223109f16b3f61620c50",
    "inputHash": "0x4f5a6f6a4f0aa932c53568615eeb86a60ceba1b77c8e331c75ff2c78572bcbbb",
    "globalExitRoot": "0x090bcaf734c4f06c93954a827b45a6e8c67b8e0fd1e0a35a1c5982d6961828f9",
    "oldLocalExitRoot": "0x0000000000000000000000000000000000000000000000000000000000000000",
    "batchL2Data": "0xf84a80843b9aca00830186a0941275fbb540c8efc58b812ba83b0d0b8b9917ae9880a4718da7ee000000000000000000000000eeeef5032b2a844602278b01199ed191a86ceeee8203e88080f575c21921ce2d8fb27d7706563bf605e7ac616156380e71bae93bc0e77367e151cce11879fd46346b92536449bf3bd1b8f7a8110978fcb4f8ea4499c988f79a1bee01843b9aca00830186a0941275fbb540c8efc58b812ba83b0d0b8b9917ae9884075bcd15845cfb28e78203e88080753bcbcaec2a03e928e96c7e951e585511acc85ab44ea1ef5344cc727879469923f9591354e24a495186a960957fa25fde99ab8f515a775c1d1947b8f8c7516b1ce602843b9aca00830186a094eeeef5032b2a844602278b01199ed191a86ceeee03808203e88080d051fe638181b4a417fb38ab7db717d97ebd8f74daef6134fe5f8fdf45d88b9759c5811954b33e0b171dd59af635f6c166cb503b8ab9a415749b5bdb059664821bea80843b9aca00830186a0941275fbb540c8efc58b812ba83b0d0b8b9917ae988084cc5fe89a8203e88080f4297a8ca0e63388f19879997cc13d21b64f3d69ec0143f0842c472ae6a9e13276a1677a51b72b02d6594ba2facf04b00e21bbc6b5c1af2b47c0ebdbe00834341c"
  },
  {
    "id": 4,
    "description": "opSELFDESTRUCT non-empty cold receiver & sstore",
    "arity": 4,
    "chainIdSequencer": 1001,
    "defaultChainId": 1000,
    "sequencerAddress": "0x617b3a3528F9cDd6630fd3301B9c8911F7Bf063D",
    "sequencerPvtKey": "0x28b2b0318721be8c8339199172cd7cc8f5e273800a35616ec893083a4b32c02e",
    "genesis": {
      "accounts": [
        {
          "address": "0x617b3a3528F9cDd6630fd3301B9c8911F7Bf063D",
          "pvtKey": "0x28b2b0318721be8c8339199172cd7cc8f5e273800a35616ec893083a4b32c02e",
          "balance": "100000000000000000000",
          "nonce": "0"
        },
        {
          "address": "0x4d5Cf5032B2a844602278b01199ED191A86c93ff",
          "pvtKey": "0x4d27a600dce8c29b7bd080e29a26972377dbb04d7a27d919adbb602bf13cfd23",
          "balance": "200000000000000000000",
          "nonce": "0"
        },
        {
          "address": "0xEEEeF5032B2A844602278B01199ED191a86cEEeE",
          "balance": "0",
          "nonce": "0"
        }
      ],
      "contracts": [
        {
          "contractName": "Selfdestruct",
          "paramsDeploy": {}
        }
      ]
    },
    "expectedOldRoot": "0xfb75a60cac5e1c017addd7dd9e1e5178bfe9bebcf3473a895f15f95cfe323fcd",
    "txs": [
      {
        "from": "0x617b3a3528F9cDd6630fd3301B9c8911F7Bf063D",
        "to": "contract",
        "nonce": "0",
        "value": "0",
        "contractName": "Selfdestruct",
        "function": "setReceiver",
        "params": [
          "0xEEEeF5032B2A844602278B01199ED191a86cEEeE"
        ],
        "gasLimit": 100000,
        "gasPrice": "1000000000",
        "chainId": 1001
      },
      {
        "from": "0x617b3a3528F9cDd6630fd3301B9c8911F7Bf063D",
        "to": "contract",
        "nonce": "1",
        "value": "123456789",
        "contractName": "Selfdestruct",
        "function": "setVal",
        "params": [],
        "gasLimit": 100000,
        "gasPrice": "1000000000",
        "chainId": 1001
      },
      {
        "from": "0x617b3a3528F9cDd6630fd3301B9c8911F7Bf063D",
        "to": "0xEEEeF5032B2A844602278B01199ED191a86cEEeE",
        "nonce": "2",
        "value": "3",
        "gasLimit": 100000,
        "gasPrice": "1000000000",
        "chainId": 1001
      },
      {
        "from": "0x4d5Cf5032B2a844602278b01199ED191A86c93ff",
        "to": "contract",
        "nonce": "0",
        "value": "0",
        "contractName": "Selfdestruct",
        "function": "sstoreDestruct",
        "params": [],
        "gasLimit": 100000,
        "gasPrice": "1000000000",
        "chainId": 1001
      }
    ],
    "expectedNewRoot": "0x505a66092e30dd02f70a49312379e82e82016fcbb828beb79bebcecebdea38de",
    "expectedNewLeafs": {
      "0x0000000000000000000000000000000000000000": {
        "balance": "0",
        "nonce": "0",
        "storage": {
          "0xad3228b676f7d3cd4284a5443f17f1962b36e491b30a40b2405849e597ba5fb5": "0xfb75a60cac5e1c017addd7dd9e1e5178bfe9bebcf3473a895f15f95cfe323fcd"
        },
        "hashBytecode": "0x0000000000000000000000000000000000000000000000000000000000000000",
        "bytecodeLength": 0
      },
      "0xAE4bB80bE56B819606589DE61d5ec3b522EEB032": {
        "balance": "0",
        "nonce": "0",
        "storage": {
          "0x53d3f126103a7f7d6245751d2392e0245bf71479d10a3c27a5b501ace6dde1b7": "0x01"
        },
        "hashBytecode": "0x0000000000000000000000000000000000000000000000000000000000000000",
        "bytecodeLength": 0
      },
      "0x1275fbb540c8efc58b812ba83b0d0b8b9917ae98": {
        "balance": "0",
        "nonce": "1",
        "storage": {},
        "hashBytecode": "0xb64fe8293043c1242b2ba5519203312b8d965e6c23f5c74910576c86d4432c2d",
        "bytecodeLength": 799
      },
      "0x617b3a3528F9cDd6630fd3301B9c8911F7Bf063D": {
        "balance": "100000000000000000000",
        "nonce": "0",
        "storage": null,
        "hashBytecode": "0x0000000000000000000000000000000000000000000000000000000000000000",
        "bytecodeLength": 0
      },
      "0x4d5Cf5032B2a844602278b01199ED191A86c93ff": {
        "balance": "200000000000000000000",
        "nonce": "0",
        "storage": null,
        "hashBytecode": "0x0000000000000000000000000000000000000000000000000000000000000000",
        "bytecodeLength": 0
      },
      "0xEEEeF5032B2A844602278B01199ED191a86cEEeE": {
        "balance": "0",
        "nonce": "0",
        "storage": null,
        "hashBytecode": "0x0000000000000000000000000000000000000000000000000000000000000000",
        "bytecodeLength": 0
      }
    },
    "timestamp": 1944498031,
    "newLocalExitRoot": "0x0000000000000000000000000000000000000000000000000000000000000000",
    "batchHashData": "0xec57c53615a7070d715ff4b90265a823d97f31fa1db3dd778bb6aadc8004d695",
    "inputHash": "0xae0df3e8ddac1c7db7d0f02b37ce6cf20e5b9c371db244e286eca37ab04119c8",
    "globalExitRoot": "0x090bcaf734c4f06c93954a827b45a6e8c67b8e0fd1e0a35a1c5982d6961828f9",
    "oldLocalExitRoot": "0x0000000000000000000000000000000000000000000000000000000000000000",
    "batchL2Data": "0xf84a80843b9aca00830186a0941275fbb540c8efc58b812ba83b0d0b8b9917ae9880a4718da7ee000000000000000000000000eeeef5032b2a844602278b01199ed191a86ceeee8203e98080a457712a6eb67d18d64cf0bb9913a8da248ad89357496274a2c08e2397ac528f6e24598f11ee531f0f63f6066f893f736ebf6202db25e52d31d8203d046c54ed1bee01843b9aca00830186a0941275fbb540c8efc58b812ba83b0d0b8b9917ae9884075bcd15845cfb28e78203e980807b9752d8bb13b79712282210eea9857d26cf931ef506cf3d79502145989f74d00f9fcb01c3ef75732036b49c45dc2c18b356b303933dad72e3954de1e628e8761ce602843b9aca00830186a094eeeef5032b2a844602278b01199ed191a86ceeee03808203e9808079c7c70bc67e02ec130feb1ec3d8395e5014579ce602d21620c3b2fc0875776b5bc28d5ddd77789bab73f99f49135e45f7df7a03e712bd9935fd36bcaa1245761bea80843b9aca00830186a0941275fbb540c8efc58b812ba83b0d0b8b9917ae988084d0a4c6c58203e9808039d58f2a469f268b4e15b7ad9fb3ad60b6e93f88dc8426508674c27fecccd9a2102f96869e3fc3e9b1061f129ae9c7d49c445b4040157de3a38cd5d8a7b0103b1b"
  }
]