[
  {
    "id": 0,
    "description": "Call opcode staticcall fail",
    "arity": 4,
    "chainIdSequencer": 1001,
    "defaultChainId": 1000,
    "sequencerAddress": "0x617b3a3528F9cDd6630fd3301B9c8911F7Bf063D",
    "sequencerPvtKey": "0x28b2b0318721be8c8339199172cd7cc8f5e273800a35616ec893083a4b32c02e",
    "genesis": {
      "accounts": [
        {
          "address": "0x617b3a3528F9cDd6630fd3301B9c8911F7Bf063D",
          "pvtKey": "0x28b2b0318721be8c8339199172cd7cc8f5e273800a35616ec893083a4b32c02e",
          "balance": "100000000000000000000",
          "nonce": "0"
        },
        {
          "address": "0x4d5Cf5032B2a844602278b01199ED191A86c93ff",
          "pvtKey": "0x4d27a600dce8c29b7bd080e29a26972377dbb04d7a27d919adbb602bf13cfd23",
          "balance": "200000000000000000000",
          "nonce": "0"
        }
      ],
      "contracts": [
        {
          "contractName": "OpCallAux",
          "paramsDeploy": {}
        },
        {
          "contractName": "OpCall",
          "paramsDeploy": {}
        }
      ]
    },
    "expectedOldRoot": "0x1ea052e5c932390854929fc89fbc835994ee66051b9aba6fa3019eb55ebcbc4a",
    "txs": [
      {
        "from": "0x4d5Cf5032B2a844602278b01199ED191A86c93ff",
        "to": "contract",
        "nonce": "0",
        "value": "0",
        "contractName": "OpCall",
        "function": "opStaticCallFail",
        "params": [
          "0x1275fbb540c8efc58b812ba83b0d0b8b9917ae98"
        ],
        "gasLimit": 3000000,
        "gasPrice": "1000000000",
        "chainId": 1001
      }
    ],
    "expectedNewRoot": "0x5d213cdede6b313b0bd0b95e26dcaea091964eebc84c27d8fb2b29bc47366e03",
    "expectedNewLeafs": {
      "0x617b3a3528F9cDd6630fd3301B9c8911F7Bf063D": {
        "balance": "100000047345000000000",
        "nonce": "1",
        "storage": null,
        "hashBytecode": "0x0000000000000000000000000000000000000000000000000000000000000000"
      },
      "0x4d5Cf5032B2a844602278b01199ED191A86c93ff": {
        "balance": "199999952655000000000",
        "nonce": "1",
        "storage": null,
        "hashBytecode": "0x0000000000000000000000000000000000000000000000000000000000000000"
      },
      "0x1275fbb540c8efc58b812ba83b0d0b8b9917ae98": {
        "balance": "0",
        "nonce": "1",
        "storage": {
          "0x0000000000000000000000000000000000000000000000000000000000000000": "0x12121212121212121212"
        },
        "hashBytecode": "0xff75e88faf333132784f4f7d14841fe041544bcd36e3405612d010de01f53c2a"
      },
      "0x85e844b762a271022b692cf99ce5c59ba0650ac8": {
        "balance": "0",
        "nonce": "1",
        "storage": {
          "0x0000000000000000000000000000000000000000000000000000000000000001": "0x012345668900000000000000000000000000000000000000000000"
        },
        "hashBytecode": "0xc95d3827e8d107f1be8a1bb47616e248a8a409de5dc7d899c5084093138deea6"
      }
    },
    "timestamp": 1944498031,
    "newLocalExitRoot": "0x0000000000000000000000000000000000000000000000000000000000000000",
    "batchHashData": "0xf6c66a7f77bb0d443445bcab7eb6dc8ea36e0b4b0ed97ebe9350d17909857dff",
    "inputHash": "0x380f5df9024156ed51e535955c537ff70e3076d3ac3eb7381f5b6763b6bc105b",
    "globalExitRoot": "0x090bcaf734c4f06c93954a827b45a6e8c67b8e0fd1e0a35a1c5982d6961828f9",
    "oldLocalExitRoot": "0x0000000000000000000000000000000000000000000000000000000000000000",
    "batchL2Data": "0xf84a80843b9aca00830f42409485e844b762a271022b692cf99ce5c59ba0650ac880a47b4fdd7a0000000000000000000000001275fbb540c8efc58b812ba83b0d0b8b9917ae988203e98080e507196880c4a67b26bd96e8eb847bb62dc82c928f18d183839bcd73c73d749b16152dca7a08be02df26b91ed9012a801e4b0db50b3013bc4ecade09e029d41c1cf84a80843b9aca00830f42409485e844b762a271022b692cf99ce5c59ba0650ac880a4336657550000000000000000000000001275fbb540c8efc58b812ba83b0d0b8b9917ae988203e98080cda0ab3f504aa6af8d3c382ac1262fea2e365bec3045acbe58ad46c4f22fba584efb70a184cb35c96409282ef7be891aa844cb1926d3d97c095b2ed8bc14952b1b"
  },
  {
    "id": 1,
    "description": "Call opcode call fail",
    "arity": 4,
    "chainIdSequencer": 1001,
    "defaultChainId": 1000,
    "sequencerAddress": "0x617b3a3528F9cDd6630fd3301B9c8911F7Bf063D",
    "sequencerPvtKey": "0x28b2b0318721be8c8339199172cd7cc8f5e273800a35616ec893083a4b32c02e",
    "genesis": {
      "accounts": [
        {
          "address": "0x617b3a3528F9cDd6630fd3301B9c8911F7Bf063D",
          "pvtKey": "0x28b2b0318721be8c8339199172cd7cc8f5e273800a35616ec893083a4b32c02e",
          "balance": "100000000000000000000",
          "nonce": "0"
        },
        {
          "address": "0x4d5Cf5032B2a844602278b01199ED191A86c93ff",
          "pvtKey": "0x4d27a600dce8c29b7bd080e29a26972377dbb04d7a27d919adbb602bf13cfd23",
          "balance": "200000000000000000000",
          "nonce": "0"
        }
      ],
      "contracts": [
        {
          "contractName": "OpCallAux",
          "paramsDeploy": {}
        },
        {
          "contractName": "OpCall",
          "paramsDeploy": {}
        }
      ]
    },
    "expectedOldRoot": "0x1ea052e5c932390854929fc89fbc835994ee66051b9aba6fa3019eb55ebcbc4a",
    "txs": [
      {
        "from": "0x4d5Cf5032B2a844602278b01199ED191A86c93ff",
        "to": "contract",
        "nonce": "0",
        "value": "0",
        "contractName": "OpCall",
        "function": "opCallFail",
        "params": [
          "0x1275fbb540c8efc58b812ba83b0d0b8b9917ae98"
        ],
        "gasLimit": 1000000,
        "gasPrice": "1000000000",
        "chainId": 1001
      }
    ],
    "expectedNewRoot": "0x04d06e0a8fde9828ce4c718027398e5a39236222c24a19d58d44a924f475d275",
    "expectedNewLeafs": {
      "0x617b3a3528F9cDd6630fd3301B9c8911F7Bf063D": {
        "balance": "100000047345000000000",
        "nonce": "0",
        "storage": null,
        "hashBytecode": "0x0000000000000000000000000000000000000000000000000000000000000000"
      },
      "0x4d5Cf5032B2a844602278b01199ED191A86c93ff": {
        "balance": "199999952655000000000",
        "nonce": "1",
        "storage": null,
        "hashBytecode": "0x0000000000000000000000000000000000000000000000000000000000000000"
      },
      "0x1275fbb540c8efc58b812ba83b0d0b8b9917ae98": {
        "balance": "0",
        "nonce": "1",
        "storage": {
          "0x0000000000000000000000000000000000000000000000000000000000000000": "0x01"
        },
        "hashBytecode": "0xff75e88faf333132784f4f7d14841fe041544bcd36e3405612d010de01f53c2a"
      },
      "0x85e844b762a271022b692cf99ce5c59ba0650ac8": {
        "balance": "0",
        "nonce": "1",
        "storage": {
          "0x0000000000000000000000000000000000000000000000000000000000000001": "0xffffffffffffffffffffffffffffffffffffffffffffffffffffffffffffffff"
        },
        "hashBytecode": "0xc95d3827e8d107f1be8a1bb47616e248a8a409de5dc7d899c5084093138deea6"
      }
    },
    "timestamp": 1944498031,
    "newLocalExitRoot": "0x0000000000000000000000000000000000000000000000000000000000000000",
    "batchHashData": "0x9449c5d5d4c67e56c4dd5f9b7fb4ca20335705cb63bdea32be40ff4fe0a589b8",
    "inputHash": "0x8fef2bbc768d72fde47aac854c7f5beb0876cbdf9d4725ab5554270dc0238ad8",
    "globalExitRoot": "0x090bcaf734c4f06c93954a827b45a6e8c67b8e0fd1e0a35a1c5982d6961828f9",
    "oldLocalExitRoot": "0x0000000000000000000000000000000000000000000000000000000000000000",
    "batchL2Data": "0xf84a80843b9aca00830f42409485e844b762a271022b692cf99ce5c59ba0650ac880a47b4fdd7a0000000000000000000000001275fbb540c8efc58b812ba83b0d0b8b9917ae988203e98080e507196880c4a67b26bd96e8eb847bb62dc82c928f18d183839bcd73c73d749b16152dca7a08be02df26b91ed9012a801e4b0db50b3013bc4ecade09e029d41c1c"
  },
  {
    "id": 2,
    "description": "Call opcode call fail params",
    "arity": 4,
    "chainIdSequencer": 1001,
    "defaultChainId": 1000,
    "sequencerAddress": "0x617b3a3528F9cDd6630fd3301B9c8911F7Bf063D",
    "sequencerPvtKey": "0x28b2b0318721be8c8339199172cd7cc8f5e273800a35616ec893083a4b32c02e",
    "genesis": {
      "accounts": [
        {
          "address": "0x617b3a3528F9cDd6630fd3301B9c8911F7Bf063D",
          "pvtKey": "0x28b2b0318721be8c8339199172cd7cc8f5e273800a35616ec893083a4b32c02e",
          "balance": "100000000000000000000",
          "nonce": "0"
        },
        {
          "address": "0x4d5Cf5032B2a844602278b01199ED191A86c93ff",
          "pvtKey": "0x4d27a600dce8c29b7bd080e29a26972377dbb04d7a27d919adbb602bf13cfd23",
          "balance": "200000000000000000000",
          "nonce": "0"
        }
      ],
      "contracts": [
        {
          "contractName": "OpCallAux",
          "paramsDeploy": {}
        },
        {
          "contractName": "OpCall",
          "paramsDeploy": {}
        }
      ]
    },
    "expectedOldRoot": "0x1ea052e5c932390854929fc89fbc835994ee66051b9aba6fa3019eb55ebcbc4a",
    "txs": [
      {
        "from": "0x4d5Cf5032B2a844602278b01199ED191A86c93ff",
        "to": "contract",
        "nonce": "0",
        "value": "0",
        "contractName": "OpCall",
        "function": "opCallCallFail",
        "params": [
          "0x1275fbb540c8efc58b812ba83b0d0b8b9917ae98"
        ],
        "gasLimit": 1000000,
        "gasPrice": "1000000000",
        "chainId": 1001
      }
    ],
    "expectedNewRoot": "0xf150861e67f97208eca8dd8c490f3129de3f804416e5c79643d84a4175b40f63",
    "expectedNewLeafs": {
      "0x617b3a3528F9cDd6630fd3301B9c8911F7Bf063D": {
        "balance": "100000032876000000000",
        "nonce": "0",
        "storage": null,
        "hashBytecode": "0x0000000000000000000000000000000000000000000000000000000000000000"
      },
      "0x4d5Cf5032B2a844602278b01199ED191A86c93ff": {
        "balance": "199999967124000000000",
        "nonce": "1",
        "storage": null,
        "hashBytecode": "0x0000000000000000000000000000000000000000000000000000000000000000"
      },
      "0x1275fbb540c8efc58b812ba83b0d0b8b9917ae98": {
        "balance": "0",
        "nonce": "1",
        "storage": {
          "0x0000000000000000000000000000000000000000000000000000000000000000": "0x01"
        },
        "hashBytecode": "0xff75e88faf333132784f4f7d14841fe041544bcd36e3405612d010de01f53c2a"
      },
      "0x85e844b762a271022b692cf99ce5c59ba0650ac8": {
        "balance": "0",
        "nonce": "1",
        "storage": {
          "0x0000000000000000000000000000000000000000000000000000000000000001": "0xffffffffffffffffffffffffffffffffffffffffffffffffffffffffffffffff"
        },
        "hashBytecode": "0xc95d3827e8d107f1be8a1bb47616e248a8a409de5dc7d899c5084093138deea6"
      }
    },
    "timestamp": 1944498031,
    "newLocalExitRoot": "0x0000000000000000000000000000000000000000000000000000000000000000",
    "batchHashData": "0x38f90da801c87519150f6d071c370c54d7a99aee34378e67e5e4cfef382414b5",
    "inputHash": "0x526c5b3175ac3359548a395f5c269f65cd84fc48cd93337a26b3052002088967",
    "globalExitRoot": "0x090bcaf734c4f06c93954a827b45a6e8c67b8e0fd1e0a35a1c5982d6961828f9",
    "oldLocalExitRoot": "0x0000000000000000000000000000000000000000000000000000000000000000",
    "batchL2Data": "0xf84a80843b9aca00830f42409485e844b762a271022b692cf99ce5c59ba0650ac880a4043b6c7c0000000000000000000000001275fbb540c8efc58b812ba83b0d0b8b9917ae988203e98080fc30f9cbe65fd0883286935cd9cd09c9c3726493f888a3c9a3beeaa0dc1e9154481253d70a298979761c8f1b6955f71e5a16c077c49367a9037ee11cf9ff5fb91b"
  },
  {
    "id": 3,
    "description": "Call opcode call fail & call correct",
    "arity": 4,
    "chainIdSequencer": 1001,
    "defaultChainId": 1000,
    "sequencerAddress": "0x617b3a3528F9cDd6630fd3301B9c8911F7Bf063D",
    "sequencerPvtKey": "0x28b2b0318721be8c8339199172cd7cc8f5e273800a35616ec893083a4b32c02e",
    "genesis": {
      "accounts": [
        {
          "address": "0x617b3a3528F9cDd6630fd3301B9c8911F7Bf063D",
          "pvtKey": "0x28b2b0318721be8c8339199172cd7cc8f5e273800a35616ec893083a4b32c02e",
          "balance": "100000000000000000000",
          "nonce": "0"
        },
        {
          "address": "0x4d5Cf5032B2a844602278b01199ED191A86c93ff",
          "pvtKey": "0x4d27a600dce8c29b7bd080e29a26972377dbb04d7a27d919adbb602bf13cfd23",
          "balance": "200000000000000000000",
          "nonce": "0"
        }
      ],
      "contracts": [
        {
          "contractName": "OpCallAux",
          "paramsDeploy": {}
        },
        {
          "contractName": "OpCall",
          "paramsDeploy": {}
        }
      ]
    },
    "expectedOldRoot": "0x1ea052e5c932390854929fc89fbc835994ee66051b9aba6fa3019eb55ebcbc4a",
    "txs": [
      {
        "from": "0x4d5Cf5032B2a844602278b01199ED191A86c93ff",
        "to": "contract",
        "nonce": "0",
        "value": "0",
        "contractName": "OpCall",
        "function": "opCallOpcode",
        "params": [
          "0x1275fbb540c8efc58b812ba83b0d0b8b9917ae98"
        ],
        "gasLimit": 1000000,
        "gasPrice": "1000000000",
        "chainId": 1001
      },
      {
        "from": "0x4d5Cf5032B2a844602278b01199ED191A86c93ff",
        "to": "contract",
        "nonce": "1",
        "value": "0",
        "contractName": "OpCall",
        "function": "opCallFail",
        "params": [
          "0x1275fbb540c8efc58b812ba83b0d0b8b9917ae98"
        ],
        "gasLimit": 1000000,
        "gasPrice": "1000000000",
        "chainId": 1001
      }
    ],
    "expectedNewRoot": "0x015c3c5cbfa9c4dce582a8703c08167c72e7ee397cac4cbbf402bf2f2c9035c6",
    "expectedNewLeafs": {
      "0x617b3a3528F9cDd6630fd3301B9c8911F7Bf063D": {
        "balance": "100000082353000000000",
        "nonce": "0",
        "storage": null,
        "hashBytecode": "0x0000000000000000000000000000000000000000000000000000000000000000"
      },
      "0x4d5Cf5032B2a844602278b01199ED191A86c93ff": {
        "balance": "199999917647000000000",
        "nonce": "2",
        "storage": null,
        "hashBytecode": "0x0000000000000000000000000000000000000000000000000000000000000000"
      },
      "0x1275fbb540c8efc58b812ba83b0d0b8b9917ae98": {
        "balance": "0",
        "nonce": "1",
        "storage": {
          "0x0000000000000000000000000000000000000000000000000000000000000000": "0x12121212121212121212"
        },
        "hashBytecode": "0xff75e88faf333132784f4f7d14841fe041544bcd36e3405612d010de01f53c2a"
      },
      "0x85e844b762a271022b692cf99ce5c59ba0650ac8": {
        "balance": "0",
        "nonce": "1",
        "storage": {
          "0x0000000000000000000000000000000000000000000000000000000000000001": "0x012345668900000000000000000000000000000000000000000000"
        },
        "hashBytecode": "0xc95d3827e8d107f1be8a1bb47616e248a8a409de5dc7d899c5084093138deea6"
      }
    },
    "timestamp": 1944498031,
    "newLocalExitRoot": "0x0000000000000000000000000000000000000000000000000000000000000000",
    "batchHashData": "0x166bb607f6f4ff385e13621fa2b1d3afb0239d24c3fd5d09d5c9a5a566b1c56c",
    "inputHash": "0xb40ac3a0297e39b76ddaf21d7fd77618d64ef0d6cfc504e4e11389916795731e",
    "globalExitRoot": "0x090bcaf734c4f06c93954a827b45a6e8c67b8e0fd1e0a35a1c5982d6961828f9",
    "oldLocalExitRoot": "0x0000000000000000000000000000000000000000000000000000000000000000",
    "batchL2Data": "0xf84a80843b9aca00830f42409485e844b762a271022b692cf99ce5c59ba0650ac880a4336657550000000000000000000000001275fbb540c8efc58b812ba83b0d0b8b9917ae988203e98080178e3fc670d5eb8826bd00f494cd5bd70de94de0949a5b4a753c4d6a2663fcaa38b336c8b5a197d8a870f790eb8131996b11c2c9378de334b58ba423b339b5831bf84a01843b9aca00830f42409485e844b762a271022b692cf99ce5c59ba0650ac880a47b4fdd7a0000000000000000000000001275fbb540c8efc58b812ba83b0d0b8b9917ae988203e98080974ce18aea4c35996dc9bb17ea41d22e3b9e91fbda5edea9d33032cc73646fc857c404ff8b2d946d22c5925a8c4c2465a0981625199886bfae1caaf4b1fa06301b"
  },
  {
    "id": 4,
    "description": "Call opcode call fail & call correct",
    "arity": 4,
    "chainIdSequencer": 1001,
    "defaultChainId": 1000,
    "sequencerAddress": "0x617b3a3528F9cDd6630fd3301B9c8911F7Bf063D",
    "sequencerPvtKey": "0x28b2b0318721be8c8339199172cd7cc8f5e273800a35616ec893083a4b32c02e",
    "genesis": {
      "accounts": [
        {
          "address": "0x617b3a3528F9cDd6630fd3301B9c8911F7Bf063D",
          "pvtKey": "0x28b2b0318721be8c8339199172cd7cc8f5e273800a35616ec893083a4b32c02e",
          "balance": "100000000000000000000",
          "nonce": "0"
        },
        {
          "address": "0x4d5Cf5032B2a844602278b01199ED191A86c93ff",
          "pvtKey": "0x4d27a600dce8c29b7bd080e29a26972377dbb04d7a27d919adbb602bf13cfd23",
          "balance": "200000000000000000000",
          "nonce": "0"
        }
      ],
      "contracts": [
        {
          "contractName": "OpCallAux",
          "paramsDeploy": {}
        },
        {
          "contractName": "OpCall",
          "paramsDeploy": {}
        }
      ]
    },
    "expectedOldRoot": "0x1ea052e5c932390854929fc89fbc835994ee66051b9aba6fa3019eb55ebcbc4a",
    "txs": [
      {
        "from": "0x4d5Cf5032B2a844602278b01199ED191A86c93ff",
        "to": "contract",
        "nonce": "0",
        "value": "0",
        "contractName": "OpCall",
        "function": "opCallFail",
        "params": [
          "0x1275fbb540c8efc58b812ba83b0d0b8b9917ae98"
        ],
        "gasLimit": 1000000,
        "gasPrice": "1000000000",
        "chainId": 1001
      },
      {
        "from": "0x617b3a3528F9cDd6630fd3301B9c8911F7Bf063D",
        "to": "contract",
        "nonce": "0",
        "value": "0",
        "contractName": "OpCall",
        "function": "opCallOpcode",
        "params": [
          "0x1275fbb540c8efc58b812ba83b0d0b8b9917ae98"
        ],
        "gasLimit": 1000000,
        "gasPrice": "1000000000",
        "chainId": 1001
      }
    ],
    "expectedNewRoot": "0x5d213cdede6b313b0bd0b95e26dcaea091964eebc84c27d8fb2b29bc47366e03",
    "expectedNewLeafs": {
      "0x617b3a3528F9cDd6630fd3301B9c8911F7Bf063D": {
        "balance": "100000047345000000000",
        "nonce": "1",
        "storage": null,
        "hashBytecode": "0x0000000000000000000000000000000000000000000000000000000000000000"
      },
      "0x4d5Cf5032B2a844602278b01199ED191A86c93ff": {
        "balance": "199999952655000000000",
        "nonce": "1",
        "storage": null,
        "hashBytecode": "0x0000000000000000000000000000000000000000000000000000000000000000"
      },
      "0x1275fbb540c8efc58b812ba83b0d0b8b9917ae98": {
        "balance": "0",
        "nonce": "1",
        "storage": {
          "0x0000000000000000000000000000000000000000000000000000000000000000": "0x12121212121212121212"
        },
        "hashBytecode": "0xff75e88faf333132784f4f7d14841fe041544bcd36e3405612d010de01f53c2a"
      },
      "0x85e844b762a271022b692cf99ce5c59ba0650ac8": {
        "balance": "0",
        "nonce": "1",
        "storage": {
          "0x0000000000000000000000000000000000000000000000000000000000000001": "0x012345668900000000000000000000000000000000000000000000"
        },
        "hashBytecode": "0xc95d3827e8d107f1be8a1bb47616e248a8a409de5dc7d899c5084093138deea6"
      }
    },
    "timestamp": 1944498031,
    "newLocalExitRoot": "0x0000000000000000000000000000000000000000000000000000000000000000",
    "batchHashData": "0xf6c66a7f77bb0d443445bcab7eb6dc8ea36e0b4b0ed97ebe9350d17909857dff",
    "inputHash": "0x380f5df9024156ed51e535955c537ff70e3076d3ac3eb7381f5b6763b6bc105b",
    "globalExitRoot": "0x090bcaf734c4f06c93954a827b45a6e8c67b8e0fd1e0a35a1c5982d6961828f9",
    "oldLocalExitRoot": "0x0000000000000000000000000000000000000000000000000000000000000000",
    "batchL2Data": "0xf84a80843b9aca00830f42409485e844b762a271022b692cf99ce5c59ba0650ac880a47b4fdd7a0000000000000000000000001275fbb540c8efc58b812ba83b0d0b8b9917ae988203e98080e507196880c4a67b26bd96e8eb847bb62dc82c928f18d183839bcd73c73d749b16152dca7a08be02df26b91ed9012a801e4b0db50b3013bc4ecade09e029d41c1cf84a80843b9aca00830f42409485e844b762a271022b692cf99ce5c59ba0650ac880a4336657550000000000000000000000001275fbb540c8efc58b812ba83b0d0b8b9917ae988203e98080cda0ab3f504aa6af8d3c382ac1262fea2e365bec3045acbe58ad46c4f22fba584efb70a184cb35c96409282ef7be891aa844cb1926d3d97c095b2ed8bc14952b1b"
  },
  {
    "id": 5,
    "description": "Call opcode call fail & call correct",
    "arity": 4,
    "chainIdSequencer": 1001,
    "defaultChainId": 1000,
    "sequencerAddress": "0x617b3a3528F9cDd6630fd3301B9c8911F7Bf063D",
    "sequencerPvtKey": "0x28b2b0318721be8c8339199172cd7cc8f5e273800a35616ec893083a4b32c02e",
    "genesis": {
      "accounts": [
        {
          "address": "0x617b3a3528F9cDd6630fd3301B9c8911F7Bf063D",
          "pvtKey": "0x28b2b0318721be8c8339199172cd7cc8f5e273800a35616ec893083a4b32c02e",
          "balance": "100000000000000000000",
          "nonce": "0"
        },
        {
          "address": "0x4d5Cf5032B2a844602278b01199ED191A86c93ff",
          "pvtKey": "0x4d27a600dce8c29b7bd080e29a26972377dbb04d7a27d919adbb602bf13cfd23",
          "balance": "200000000000000000000",
          "nonce": "0"
        }
      ],
      "contracts": [
        {
          "contractName": "OpCallAux",
          "paramsDeploy": {}
        },
        {
          "contractName": "OpCall",
          "paramsDeploy": {}
        }
      ]
    },
    "expectedOldRoot": "0x1ea052e5c932390854929fc89fbc835994ee66051b9aba6fa3019eb55ebcbc4a",
    "txs": [
      {
        "from": "0x617b3a3528F9cDd6630fd3301B9c8911F7Bf063D",
        "to": "contract",
        "nonce": "0",
        "value": "0",
        "contractName": "OpCall",
        "function": "opCallFail",
        "params": [
          "0x1275fbb540c8efc58b812ba83b0d0b8b9917ae98"
        ],
        "gasLimit": 1000000,
        "gasPrice": "1000000000",
        "chainId": 1001
      },
      {
        "from": "0x4d5Cf5032B2a844602278b01199ED191A86c93ff",
        "to": "contract",
        "nonce": "0",
        "value": "0",
        "contractName": "OpCall",
        "function": "opCallOpcode",
        "params": [
          "0x1275fbb540c8efc58b812ba83b0d0b8b9917ae98"
        ],
        "gasLimit": 1000000,
        "gasPrice": "1000000000",
        "chainId": 1001
      }
    ],
    "expectedNewRoot": "0xa53c8a4163181e6548648508ca250c61a57b99ae205064baca6096fe82e21dad",
    "expectedNewLeafs": {
      "0x617b3a3528F9cDd6630fd3301B9c8911F7Bf063D": {
        "balance": "100000035008000000000",
        "nonce": "1",
        "storage": null,
        "hashBytecode": "0x0000000000000000000000000000000000000000000000000000000000000000"
      },
      "0x4d5Cf5032B2a844602278b01199ED191A86c93ff": {
        "balance": "199999964992000000000",
        "nonce": "1",
        "storage": null,
        "hashBytecode": "0x0000000000000000000000000000000000000000000000000000000000000000"
      },
      "0x1275fbb540c8efc58b812ba83b0d0b8b9917ae98": {
        "balance": "0",
        "nonce": "1",
        "storage": {
          "0x0000000000000000000000000000000000000000000000000000000000000000": "0x12121212121212121212"
        },
        "hashBytecode": "0xff75e88faf333132784f4f7d14841fe041544bcd36e3405612d010de01f53c2a"
      },
      "0x85e844b762a271022b692cf99ce5c59ba0650ac8": {
        "balance": "0",
        "nonce": "1",
        "storage": {
          "0x0000000000000000000000000000000000000000000000000000000000000001": "0x012345668900000000000000000000000000000000000000000000"
        },
        "hashBytecode": "0xc95d3827e8d107f1be8a1bb47616e248a8a409de5dc7d899c5084093138deea6"
      }
    },
    "timestamp": 1944498031,
    "newLocalExitRoot": "0x0000000000000000000000000000000000000000000000000000000000000000",
    "batchHashData": "0x929a6bbeca495c1d6fbd893c911b6ed34b22e9b44ce0e130219d7f97ff54d608",
    "inputHash": "0xd414a788c5e554feb2a30f4ddeac644ac9fc0b8c635b44f5f4c31a07a680b81a",
    "globalExitRoot": "0x090bcaf734c4f06c93954a827b45a6e8c67b8e0fd1e0a35a1c5982d6961828f9",
    "oldLocalExitRoot": "0x0000000000000000000000000000000000000000000000000000000000000000",
    "batchL2Data": "0xf84a80843b9aca00830f42409485e844b762a271022b692cf99ce5c59ba0650ac880a47b4fdd7a0000000000000000000000001275fbb540c8efc58b812ba83b0d0b8b9917ae988203e9808023c04ff807474776a1dbd6b8ac00420b9070a4d975697f89aafbc40be3c67bcd0b2e154c828a8d323d6ddd00ed47565cc50587a590de77e135bc322f18daa2701cf84a80843b9aca00830f42409485e844b762a271022b692cf99ce5c59ba0650ac880a4336657550000000000000000000000001275fbb540c8efc58b812ba83b0d0b8b9917ae988203e98080178e3fc670d5eb8826bd00f494cd5bd70de94de0949a5b4a753c4d6a2663fcaa38b336c8b5a197d8a870f790eb8131996b11c2c9378de334b58ba423b339b5831b"
  },
  {
    "id": 6,
    "description": "Call opcode call fail & call correct",
    "arity": 4,
    "chainIdSequencer": 1001,
    "defaultChainId": 1000,
    "sequencerAddress": "0x617b3a3528F9cDd6630fd3301B9c8911F7Bf063D",
    "sequencerPvtKey": "0x28b2b0318721be8c8339199172cd7cc8f5e273800a35616ec893083a4b32c02e",
    "genesis": {
      "accounts": [
        {
          "address": "0x617b3a3528F9cDd6630fd3301B9c8911F7Bf063D",
          "pvtKey": "0x28b2b0318721be8c8339199172cd7cc8f5e273800a35616ec893083a4b32c02e",
          "balance": "100000000000000000000",
          "nonce": "0"
        },
        {
          "address": "0x4d5Cf5032B2a844602278b01199ED191A86c93ff",
          "pvtKey": "0x4d27a600dce8c29b7bd080e29a26972377dbb04d7a27d919adbb602bf13cfd23",
          "balance": "200000000000000000000",
          "nonce": "0"
        }
      ],
      "contracts": [
        {
          "contractName": "OpCallAux",
          "paramsDeploy": {}
        },
        {
          "contractName": "OpCall",
          "paramsDeploy": {}
        }
      ]
    },
    "expectedOldRoot": "0x1ea052e5c932390854929fc89fbc835994ee66051b9aba6fa3019eb55ebcbc4a",
    "txs": [
      {
        "from": "0x617b3a3528F9cDd6630fd3301B9c8911F7Bf063D",
        "to": "contract",
        "nonce": "0",
        "value": "0",
        "contractName": "OpCall",
        "function": "opCallOpcode",
        "params": [
          "0x1275fbb540c8efc58b812ba83b0d0b8b9917ae98"
        ],
        "gasLimit": 1000000,
        "gasPrice": "1000000000",
        "chainId": 1001
      },
      {
        "from": "0x617b3a3528F9cDd6630fd3301B9c8911F7Bf063D",
        "to": "contract",
        "nonce": "1",
        "value": "0",
        "contractName": "OpCall",
        "function": "opCallFail",
        "params": [
          "0x1275fbb540c8efc58b812ba83b0d0b8b9917ae98"
        ],
        "gasLimit": 1000000,
        "gasPrice": "1000000000",
        "chainId": 1001
      }
    ],
    "expectedNewRoot": "0x3323458975145fbe93f50eeb75cf09f59c78d3d6ad38673b3175b842ba3d696f",
    "expectedNewLeafs": {
      "0x617b3a3528F9cDd6630fd3301B9c8911F7Bf063D": {
        "balance": "100000000000000000000",
        "nonce": "2",
        "storage": null,
        "hashBytecode": "0x0000000000000000000000000000000000000000000000000000000000000000"
      },
      "0x4d5Cf5032B2a844602278b01199ED191A86c93ff": {
        "balance": "200000000000000000000",
        "nonce": "0",
        "storage": null,
        "hashBytecode": "0x0000000000000000000000000000000000000000000000000000000000000000"
      },
      "0x1275fbb540c8efc58b812ba83b0d0b8b9917ae98": {
        "balance": "0",
        "nonce": "1",
        "storage": {
          "0x0000000000000000000000000000000000000000000000000000000000000000": "0x12121212121212121212"
        },
        "hashBytecode": "0xff75e88faf333132784f4f7d14841fe041544bcd36e3405612d010de01f53c2a"
      },
      "0x85e844b762a271022b692cf99ce5c59ba0650ac8": {
        "balance": "0",
        "nonce": "1",
        "storage": {
          "0x0000000000000000000000000000000000000000000000000000000000000001": "0x012345668900000000000000000000000000000000000000000000"
        },
        "hashBytecode": "0xc95d3827e8d107f1be8a1bb47616e248a8a409de5dc7d899c5084093138deea6"
      }
    },
    "timestamp": 1944498031,
    "newLocalExitRoot": "0x0000000000000000000000000000000000000000000000000000000000000000",
    "batchHashData": "0x2d1b05940196c6fae5b18c3636b15783197a0f2ab7546e1844df7233a8ef92bc",
    "inputHash": "0x79fba64ae9bf9ce7f96e5607a239228835df103c9a77ec5a3ff596fbae9fc8c3",
    "globalExitRoot": "0x090bcaf734c4f06c93954a827b45a6e8c67b8e0fd1e0a35a1c5982d6961828f9",
    "oldLocalExitRoot": "0x0000000000000000000000000000000000000000000000000000000000000000",
    "batchL2Data": "0xf84a80843b9aca00830f42409485e844b762a271022b692cf99ce5c59ba0650ac880a4336657550000000000000000000000001275fbb540c8efc58b812ba83b0d0b8b9917ae988203e98080cda0ab3f504aa6af8d3c382ac1262fea2e365bec3045acbe58ad46c4f22fba584efb70a184cb35c96409282ef7be891aa844cb1926d3d97c095b2ed8bc14952b1bf84a01843b9aca00830f42409485e844b762a271022b692cf99ce5c59ba0650ac880a47b4fdd7a0000000000000000000000001275fbb540c8efc58b812ba83b0d0b8b9917ae988203e9808000582744a12df012666021dbc60e45e234b2d964bdaa63243de8e6496652948952d32a80e0856c3ce9bd6152496559931a27426e51403be302f5466767bdebeb1b"
  }
]