[
  {
    "id": 0,
    "description": "precompiled modexp_0",
    "arity": 4,
    "chainIdSequencer": 1001,
    "defaultChainId": 1000,
    "sequencerAddress": "0x617b3a3528F9cDd6630fd3301B9c8911F7Bf063D",
    "sequencerPvtKey": "0x28b2b0318721be8c8339199172cd7cc8f5e273800a35616ec893083a4b32c02e",
    "genesis": {
      "accounts": [
        {
          "address": "0x617b3a3528F9cDd6630fd3301B9c8911F7Bf063D",
          "pvtKey": "0x28b2b0318721be8c8339199172cd7cc8f5e273800a35616ec893083a4b32c02e",
          "balance": "100000000000000000000",
          "nonce": "0"
        },
        {
          "address": "0x4d5Cf5032B2a844602278b01199ED191A86c93ff",
          "pvtKey": "0x4d27a600dce8c29b7bd080e29a26972377dbb04d7a27d919adbb602bf13cfd23",
          "balance": "200000000000000000000",
          "nonce": "0"
        }
      ],
      "contracts": [
        {
          "contractName": "PreModExp",
          "paramsDeploy": {}
        }
      ]
    },
    "expectedOldRoot": "0xe69c8142907b94fed3bc0561b88b244470ff15873a1ead17226a338b928c4511",
    "txs": [
      {
        "from": "0x4d5Cf5032B2a844602278b01199ED191A86c93ff",
        "to": "contract",
        "nonce": "0",
        "value": "0",
        "contractName": "PreModExp",
        "function": "modexp_0",
        "params": [
          "0x0000000000000000000000000000000000000000000000000000000000000007",
          "0x0000000000000000000000000000000000000000000000000000000000000008",
          "0x0000000000000000000000000000000000000000000000000000000000000009"
        ],
        "gasLimit": 100000,
        "gasPrice": "1000000000",
        "chainId": 1001
      }
    ],
    "expectedNewRoot": "0x53e08ede16bcda0793df2b2aa0efc35827e8c4f445b85984c0aba2ea2f87c2df",
    "expectedNewLeafs": {
      "0x617b3a3528F9cDd6630fd3301B9c8911F7Bf063D": {
        "balance": "100000044807000000000",
        "nonce": "0",
        "storage": null,
        "hashBytecode": "0x0000000000000000000000000000000000000000000000000000000000000000",
        "bytecodeLength": 0
      },
      "0x4d5Cf5032B2a844602278b01199ED191A86c93ff": {
        "balance": "199999955193000000000",
        "nonce": "1",
        "storage": null,
        "hashBytecode": "0x0000000000000000000000000000000000000000000000000000000000000000",
        "bytecodeLength": 0
      },
      "0x1275fbb540c8efc58b812ba83b0d0b8b9917ae98": {
        "balance": "0",
        "nonce": "1",
        "storage": {
          "0x0000000000000000000000000000000000000000000000000000000000000001": "0x04"
        },
        "hashBytecode": "0x2383b49c30c71c8a753f87f96dfdc16183ed76e77f1023e77d36a9ddc9428d32",
        "bytecodeLength": 360
      }
    },
    "timestamp": 1944498031,
    "newLocalExitRoot": "0x0000000000000000000000000000000000000000000000000000000000000000",
    "batchHashData": "0x0870607466a33854de2ef51ba3d2b72ebbe4f46d070ec3abc22e91d1af07d8c3",
    "inputHash": "0x5eaa55b37d6e1e040311dba4a2a187e3fcad9f438303c1bb60eb88b60f8775f3",
    "globalExitRoot": "0x090bcaf734c4f06c93954a827b45a6e8c67b8e0fd1e0a35a1c5982d6961828f9",
    "oldLocalExitRoot": "0x0000000000000000000000000000000000000000000000000000000000000000",
    "batchL2Data": "0xf88b80843b9aca00830186a0941275fbb540c8efc58b812ba83b0d0b8b9917ae9880b8649737c9b70000000000000000000000000000000000000000000000000000000000000007000000000000000000000000000000000000000000000000000000000000000800000000000000000000000000000000000000000000000000000000000000098203e9808028f7a5ad1ba19f14aee1dcaa0b323ce9772b3e6e64741f099e7939398a4b713a433f4881304dd5a1e8bee60ab73e632660870a8e4d232d9965f0bd1070be21a91b"
  }
]