[
  {
    "id": 0,
    "description": "create opcode",
    "arity": 4,
    "chainIdSequencer": 1001,
    "defaultChainId": 1000,
    "sequencerAddress": "0x617b3a3528F9cDd6630fd3301B9c8911F7Bf063D",
    "sequencerPvtKey": "0x28b2b0318721be8c8339199172cd7cc8f5e273800a35616ec893083a4b32c02e",
    "genesis": {
      "accounts": [
        {
          "address": "0x617b3a3528F9cDd6630fd3301B9c8911F7Bf063D",
          "pvtKey": "0x28b2b0318721be8c8339199172cd7cc8f5e273800a35616ec893083a4b32c02e",
          "balance": "100000000000000000000",
          "nonce": "0"
        },
        {
          "address": "0x4d5Cf5032B2a844602278b01199ED191A86c93ff",
          "pvtKey": "0x4d27a600dce8c29b7bd080e29a26972377dbb04d7a27d919adbb602bf13cfd23",
          "balance": "200000000000000000000",
          "nonce": "0"
        }
      ],
      "contracts": [
        {
          "contractName": "OpCreates",
          "paramsDeploy": {}
        }
      ]
    },
    "expectedOldRoot": "0xe6028b995d203f3f3b77f16f203012d9c286e3e744f6cb066a5baa418a61cbf8",
    "txs": [
      {
        "from": "0x4d5Cf5032B2a844602278b01199ED191A86c93ff",
        "to": "contract",
        "nonce": "0",
        "value": "0",
        "contractName": "OpCreates",
        "function": "opCreate",
        "params": [
          "0x608060405234801561001057600080fd5b5060bb8061001f6000396000f3fe6080604052348015600f57600080fd5b506004361060285760003560e01c8063f6d97e8c14602d575b600080fd5b60336047565b604051603e91906062565b60405180910390f35b600080600390508091505090565b605c81607b565b82525050565b6000602082019050607560008301846055565b92915050565b600081905091905056fea2646970667358221220a33fdecaf587db45fa0e1fe4bfca25de09e35bb9a45fa6dab1bf1964244a929164736f6c63430008070033",
          218
        ],
        "gasLimit": 800000,
        "gasPrice": "1000000000",
        "chainId": 1000
      }
    ],
    "expectedNewRoot": "0xc143d3f01427458471fda7514c3d3605d61fdfff21b9742bf5c7697ddbaf0935",
    "expectedNewLeafs": {
      "0x617b3a3528F9cDd6630fd3301B9c8911F7Bf063D": {
        "balance": "100000117854000000000",
        "nonce": "0",
        "storage": null,
        "hashBytecode": "0x0000000000000000000000000000000000000000000000000000000000000000",
        "bytecodeLength": 0
      },
      "0x4d5Cf5032B2a844602278b01199ED191A86c93ff": {
        "balance": "199999882146000000000",
        "nonce": "1",
        "storage": null,
        "hashBytecode": "0x0000000000000000000000000000000000000000000000000000000000000000",
        "bytecodeLength": 0
      },
      "0x1275fbb540c8efc58b812ba83b0d0b8b9917ae98": {
        "balance": "0",
        "nonce": "2",
        "storage": {
          "0x0000000000000000000000000000000000000000000000000000000000000000": "0x0ccfcb97611c13f90693e568e432ecd5f724be52"
        },
        "hashBytecode": "0x64497bfbeee254b7643cdd7437c59c62bc8f88d0628fe5fcb4bbbaf02d84f510",
        "bytecodeLength": 1067
      },
      "0x0ccfcb97611c13f90693e568e432ecd5f724be52": {
        "balance": "0",
        "nonce": "1",
        "storage": {},
        "hashBytecode": "0xc0fd06b9925aa0ad80b36b53e4db33fd659858f947ae35572f980fb41f5af5e3",
        "bytecodeLength": 187
      }
    },
    "timestamp": 1944498031,
    "newLocalExitRoot": "0x0000000000000000000000000000000000000000000000000000000000000000",
    "batchHashData": "0x74c28531c0089cb89e8d90bf11e0f6ddbd7a50ae1fe93e37fd95dc31c4075c3b",
    "globalExitRoot": "0x090bcaf734c4f06c93954a827b45a6e8c67b8e0fd1e0a35a1c5982d6961828f9",
    "batchL2Data": "0xf9016c80843b9aca00830c3500941275fbb540c8efc58b812ba83b0d0b8b9917ae9880b901445b8e9959000000000000000000000000000000000000000000000000000000000000004000000000000000000000000000000000000000000000000000000000000000da00000000000000000000000000000000000000000000000000000000000000da608060405234801561001057600080fd5b5060bb8061001f6000396000f3fe6080604052348015600f57600080fd5b506004361060285760003560e01c8063f6d97e8c14602d575b600080fd5b60336047565b604051603e91906062565b60405180910390f35b600080600390508091505090565b605c81607b565b82525050565b6000602082019050607560008301846055565b92915050565b600081905091905056fea2646970667358221220a33fdecaf587db45fa0e1fe4bfca25de09e35bb9a45fa6dab1bf1964244a929164736f6c634300080700330000000000008203e88080be29a9593301b691dd35929d3e74a021ddf801113d51728090bf8d1f0d93f9226bce72c254adb96ed972541500195992e6277b1d8f6afe72d84f1c509fda9a621b",
    "chainID": 1000,
    "oldAccInputHash": "0x0000000000000000000000000000000000000000000000000000000000000000"
  },
  {
    "id": 1,
    "description": "create2 opcode",
    "arity": 4,
    "chainIdSequencer": 1001,
    "defaultChainId": 1000,
    "sequencerAddress": "0x617b3a3528F9cDd6630fd3301B9c8911F7Bf063D",
    "sequencerPvtKey": "0x28b2b0318721be8c8339199172cd7cc8f5e273800a35616ec893083a4b32c02e",
    "genesis": {
      "accounts": [
        {
          "address": "0x617b3a3528F9cDd6630fd3301B9c8911F7Bf063D",
          "pvtKey": "0x28b2b0318721be8c8339199172cd7cc8f5e273800a35616ec893083a4b32c02e",
          "balance": "100000000000000000000",
          "nonce": "0"
        },
        {
          "address": "0x4d5Cf5032B2a844602278b01199ED191A86c93ff",
          "pvtKey": "0x4d27a600dce8c29b7bd080e29a26972377dbb04d7a27d919adbb602bf13cfd23",
          "balance": "200000000000000000000",
          "nonce": "0"
        }
      ],
      "contracts": [
        {
          "contractName": "OpCreates",
          "paramsDeploy": {}
        }
      ]
    },
    "expectedOldRoot": "0xe6028b995d203f3f3b77f16f203012d9c286e3e744f6cb066a5baa418a61cbf8",
    "txs": [
      {
        "from": "0x4d5Cf5032B2a844602278b01199ED191A86c93ff",
        "to": "contract",
        "nonce": "0",
        "value": "0",
        "contractName": "OpCreates",
        "function": "opCreate2",
        "params": [
          "0x608060405234801561001057600080fd5b5060bb8061001f6000396000f3fe6080604052348015600f57600080fd5b506004361060285760003560e01c8063f6d97e8c14602d575b600080fd5b60336047565b604051603e91906062565b60405180910390f35b600080600390508091505090565b605c81607b565b82525050565b6000602082019050607560008301846055565b92915050565b600081905091905056fea2646970667358221220a33fdecaf587db45fa0e1fe4bfca25de09e35bb9a45fa6dab1bf1964244a929164736f6c63430008070033",
          218
        ],
        "gasLimit": 800000,
        "gasPrice": "1000000000",
        "chainId": 1000
      }
    ],
    "expectedNewRoot": "0xf24f2c2bc4f6bed6d72c04348e1eaa8239dd99562b8195261cd2c05c7cce0686",
    "expectedNewLeafs": {
      "0x617b3a3528F9cDd6630fd3301B9c8911F7Bf063D": {
        "balance": "100000117943000000000",
        "nonce": "0",
        "storage": null,
        "hashBytecode": "0x0000000000000000000000000000000000000000000000000000000000000000",
        "bytecodeLength": 0
      },
      "0x4d5Cf5032B2a844602278b01199ED191A86c93ff": {
        "balance": "199999882057000000000",
        "nonce": "1",
        "storage": null,
        "hashBytecode": "0x0000000000000000000000000000000000000000000000000000000000000000",
        "bytecodeLength": 0
      },
      "0x1275fbb540c8efc58b812ba83b0d0b8b9917ae98": {
        "balance": "0",
        "nonce": "2",
        "storage": {
          "0x0000000000000000000000000000000000000000000000000000000000000000": "0x327a17bf6fbd99e80b3950f996786cec5d81e1f7"
        },
        "hashBytecode": "0x64497bfbeee254b7643cdd7437c59c62bc8f88d0628fe5fcb4bbbaf02d84f510",
        "bytecodeLength": 1067
      },
      "0x327a17bf6fbd99e80b3950f996786cec5d81e1f7": {
        "balance": "0",
        "nonce": "1",
        "storage": {},
        "hashBytecode": "0xc0fd06b9925aa0ad80b36b53e4db33fd659858f947ae35572f980fb41f5af5e3",
        "bytecodeLength": 187
      }
    },
    "timestamp": 1944498031,
    "newLocalExitRoot": "0x0000000000000000000000000000000000000000000000000000000000000000",
    "batchHashData": "0x004e6cdbeab9204a8f9efff0585cef25da722b964530695e5ffc03a851d70164",
    "globalExitRoot": "0x090bcaf734c4f06c93954a827b45a6e8c67b8e0fd1e0a35a1c5982d6961828f9",
    "batchL2Data": "0xf9016c80843b9aca00830c3500941275fbb540c8efc58b812ba83b0d0b8b9917ae9880b90144e3306a25000000000000000000000000000000000000000000000000000000000000004000000000000000000000000000000000000000000000000000000000000000da00000000000000000000000000000000000000000000000000000000000000da608060405234801561001057600080fd5b5060bb8061001f6000396000f3fe6080604052348015600f57600080fd5b506004361060285760003560e01c8063f6d97e8c14602d575b600080fd5b60336047565b604051603e91906062565b60405180910390f35b600080600390508091505090565b605c81607b565b82525050565b6000602082019050607560008301846055565b92915050565b600081905091905056fea2646970667358221220a33fdecaf587db45fa0e1fe4bfca25de09e35bb9a45fa6dab1bf1964244a929164736f6c634300080700330000000000008203e8808022cf25afb555d4d7f0955cdbf77b3b66a0bd48a1bd07557b6d7b904f01a596bb28bc8fac00f9bb096e4175be6ff2a7596b0cb4d998893a81592491b1ceed16111b",
    "chainID": 1000,
    "oldAccInputHash": "0x0000000000000000000000000000000000000000000000000000000000000000"
  },
  {
    "id": 2,
    "description": "create opcode with value",
    "arity": 4,
    "chainIdSequencer": 1001,
    "defaultChainId": 1000,
    "sequencerAddress": "0x617b3a3528F9cDd6630fd3301B9c8911F7Bf063D",
    "sequencerPvtKey": "0x28b2b0318721be8c8339199172cd7cc8f5e273800a35616ec893083a4b32c02e",
    "genesis": {
      "accounts": [
        {
          "address": "0x617b3a3528F9cDd6630fd3301B9c8911F7Bf063D",
          "pvtKey": "0x28b2b0318721be8c8339199172cd7cc8f5e273800a35616ec893083a4b32c02e",
          "balance": "100000000000000000000",
          "nonce": "0"
        },
        {
          "address": "0x4d5Cf5032B2a844602278b01199ED191A86c93ff",
          "pvtKey": "0x4d27a600dce8c29b7bd080e29a26972377dbb04d7a27d919adbb602bf13cfd23",
          "balance": "200000000000000000000",
          "nonce": "0"
        }
      ],
      "contracts": [
        {
          "contractName": "OpCreates",
          "paramsDeploy": {}
        }
      ]
    },
    "expectedOldRoot": "0xe6028b995d203f3f3b77f16f203012d9c286e3e744f6cb066a5baa418a61cbf8",
    "txs": [
      {
        "from": "0x4d5Cf5032B2a844602278b01199ED191A86c93ff",
        "to": "contract",
        "nonce": "0",
        "value": "1000",
        "contractName": "OpCreates",
        "function": "sendValue",
        "params": [],
        "gasLimit": 800000,
        "gasPrice": "1000000000",
        "chainId": 1000
      },
      {
        "from": "0x4d5Cf5032B2a844602278b01199ED191A86c93ff",
        "to": "contract",
        "nonce": "1",
        "value": "0",
        "contractName": "OpCreates",
        "function": "opCreateValue",
        "params": [
          "0x6080604052600160005560026001556102838061001d6000396000f3fe608060405234801561001057600080fd5b50600436106100625760003560e01c80630f0db778146100675780635ef3d3dd146100835780638ca3165d1461009f578063b698c129146100bd578063e4081625146100d9578063e795befc146100f7575b600080fd5b610081600480360381019061007c91906101bd565b610127565b005b61009d60048036038101906100989190610190565b610143565b005b6100a761014d565b6040516100b4919061020c565b60405180910390f35b6100d760048036038101906100d29190610190565b610153565b005b6100e161015d565b6040516100ee919061020c565b60405180910390f35b610111600480360381019061010c9190610190565b610163565b60405161011e919061020c565b60405180910390f35b8060026000848152602001908152602001600020819055505050565b8060008190555050565b60005481565b8060018190555050565b60015481565b60026020528060005260406000206000915090505481565b60008135905061018a81610236565b92915050565b6000602082840312156101a6576101a5610231565b5b60006101b48482850161017b565b91505092915050565b600080604083850312156101d4576101d3610231565b5b60006101e28582860161017b565b92505060206101f38582860161017b565b9150509250929050565b61020681610227565b82525050565b600060208201905061022160008301846101fd565b92915050565b6000819050919050565b600080fd5b61023f81610227565b811461024a57600080fd5b5056fea2646970667358221220d39e086335057db80f702ebac8a7123339d84f5501a81e2fa31d5c84c858fbb564736f6c63430008070033",
          672
        ],
        "gasLimit": 800000,
        "gasPrice": "1000000000",
        "chainId": 1000
      }
    ],
    "expectedNewRoot": "0x5a37dd3204c35f6d5f4e2fac66c02e22fd57b6e61a27310771a34bb947c6caa6",
    "expectedNewLeafs": {
      "0x617b3a3528F9cDd6630fd3301B9c8911F7Bf063D": {
        "balance": "100000303525000000000",
        "nonce": "0",
        "storage": null,
        "hashBytecode": "0x0000000000000000000000000000000000000000000000000000000000000000",
        "bytecodeLength": 0
      },
      "0x4d5Cf5032B2a844602278b01199ED191A86c93ff": {
        "balance": "199999696474999999000",
        "nonce": "2",
        "storage": null,
        "hashBytecode": "0x0000000000000000000000000000000000000000000000000000000000000000",
        "bytecodeLength": 0
      },
      "0x1275fbb540c8efc58b812ba83b0d0b8b9917ae98": {
        "balance": "500",
        "nonce": "2",
        "storage": {
          "0x0000000000000000000000000000000000000000000000000000000000000000": "0x0ccfcb97611c13f90693e568e432ecd5f724be52",
          "0x0000000000000000000000000000000000000000000000000000000000000001": "0x03e8"
        },
        "hashBytecode": "0x64497bfbeee254b7643cdd7437c59c62bc8f88d0628fe5fcb4bbbaf02d84f510",
        "bytecodeLength": 1067
      },
      "0x0ccfcb97611c13f90693e568e432ecd5f724be52": {
        "balance": "500",
        "nonce": "1",
        "storage": {
          "0x0000000000000000000000000000000000000000000000000000000000000000": "0x01",
          "0x0000000000000000000000000000000000000000000000000000000000000001": "0x02"
        },
        "hashBytecode": "0xb441dc6e3f86a7e79eb2580a11d42c8e4fc8021f0a3d2f9f2383c26204800fb8",
        "bytecodeLength": 643
      }
    },
    "timestamp": 1944498031,
    "newLocalExitRoot": "0x0000000000000000000000000000000000000000000000000000000000000000",
    "batchHashData": "0x8aaf94bb111f2f3655f385bfec6590fe283fc2f9191e2f8b795213c72214b219",
    "globalExitRoot": "0x090bcaf734c4f06c93954a827b45a6e8c67b8e0fd1e0a35a1c5982d6961828f9",
    "batchL2Data": "0xec80843b9aca00830c3500941275fbb540c8efc58b812ba83b0d0b8b9917ae988203e88427c845dc8203e88080856ee652da1f3716650229e32accfc8b7fc85dbe88bda9fb90b38abcfc29087f2cd85d3fc8fc98377e5f649da74b38935de780c6aedacd209b71afca3f39ae0f1bf9032c01843b9aca00830c3500941275fbb540c8efc58b812ba83b0d0b8b9917ae9880b903043c77eba3000000000000000000000000000000000000000000000000000000000000004000000000000000000000000000000000000000000000000000000000000002a000000000000000000000000000000000000000000000000000000000000002a06080604052600160005560026001556102838061001d6000396000f3fe608060405234801561001057600080fd5b50600436106100625760003560e01c80630f0db778146100675780635ef3d3dd146100835780638ca3165d1461009f578063b698c129146100bd578063e4081625146100d9578063e795befc146100f7575b600080fd5b610081600480360381019061007c91906101bd565b610127565b005b61009d60048036038101906100989190610190565b610143565b005b6100a761014d565b6040516100b4919061020c565b60405180910390f35b6100d760048036038101906100d29190610190565b610153565b005b6100e161015d565b6040516100ee919061020c565b60405180910390f35b610111600480360381019061010c9190610190565b610163565b60405161011e919061020c565b60405180910390f35b8060026000848152602001908152602001600020819055505050565b8060008190555050565b60005481565b8060018190555050565b60015481565b60026020528060005260406000206000915090505481565b60008135905061018a81610236565b92915050565b6000602082840312156101a6576101a5610231565b5b60006101b48482850161017b565b91505092915050565b600080604083850312156101d4576101d3610231565b5b60006101e28582860161017b565b92505060206101f38582860161017b565b9150509250929050565b61020681610227565b82525050565b600060208201905061022160008301846101fd565b92915050565b6000819050919050565b600080fd5b61023f81610227565b811461024a57600080fd5b5056fea2646970667358221220d39e086335057db80f702ebac8a7123339d84f5501a81e2fa31d5c84c858fbb564736f6c634300080700338203e88080cfa31f429dde3ceb5e1151f20620bd871ebedcacee8c0277125138015378da005cc6c731edd335c2a22c9fc17c85baa71e331bcffb3091afdbc1ad3b76d867561c",
    "chainID": 1000,
    "oldAccInputHash": "0x0000000000000000000000000000000000000000000000000000000000000000"
  },
  {
    "id": 3,
    "description": "create2 opcode with value",
    "arity": 4,
    "chainIdSequencer": 1001,
    "defaultChainId": 1000,
    "sequencerAddress": "0x617b3a3528F9cDd6630fd3301B9c8911F7Bf063D",
    "sequencerPvtKey": "0x28b2b0318721be8c8339199172cd7cc8f5e273800a35616ec893083a4b32c02e",
    "genesis": {
      "accounts": [
        {
          "address": "0x617b3a3528F9cDd6630fd3301B9c8911F7Bf063D",
          "pvtKey": "0x28b2b0318721be8c8339199172cd7cc8f5e273800a35616ec893083a4b32c02e",
          "balance": "100000000000000000000",
          "nonce": "0"
        },
        {
          "address": "0x4d5Cf5032B2a844602278b01199ED191A86c93ff",
          "pvtKey": "0x4d27a600dce8c29b7bd080e29a26972377dbb04d7a27d919adbb602bf13cfd23",
          "balance": "200000000000000000000",
          "nonce": "0"
        }
      ],
      "contracts": [
        {
          "contractName": "OpCreates",
          "paramsDeploy": {}
        }
      ]
    },
    "expectedOldRoot": "0xe6028b995d203f3f3b77f16f203012d9c286e3e744f6cb066a5baa418a61cbf8",
    "txs": [
      {
        "from": "0x4d5Cf5032B2a844602278b01199ED191A86c93ff",
        "to": "contract",
        "nonce": "0",
        "value": "1000",
        "contractName": "OpCreates",
        "function": "sendValue",
        "params": [],
        "gasLimit": 800000,
        "gasPrice": "1000000000",
        "chainId": 1000
      },
      {
        "from": "0x4d5Cf5032B2a844602278b01199ED191A86c93ff",
        "to": "contract",
        "nonce": "1",
        "value": "0",
        "contractName": "OpCreates",
        "function": "opCreate2Value",
        "params": [
          "0x6080604052600160005560026001556102838061001d6000396000f3fe608060405234801561001057600080fd5b50600436106100625760003560e01c80630f0db778146100675780635ef3d3dd146100835780638ca3165d1461009f578063b698c129146100bd578063e4081625146100d9578063e795befc146100f7575b600080fd5b610081600480360381019061007c91906101bd565b610127565b005b61009d60048036038101906100989190610190565b610143565b005b6100a761014d565b6040516100b4919061020c565b60405180910390f35b6100d760048036038101906100d29190610190565b610153565b005b6100e161015d565b6040516100ee919061020c565b60405180910390f35b610111600480360381019061010c9190610190565b610163565b60405161011e919061020c565b60405180910390f35b8060026000848152602001908152602001600020819055505050565b8060008190555050565b60005481565b8060018190555050565b60015481565b60026020528060005260406000206000915090505481565b60008135905061018a81610236565b92915050565b6000602082840312156101a6576101a5610231565b5b60006101b48482850161017b565b91505092915050565b600080604083850312156101d4576101d3610231565b5b60006101e28582860161017b565b92505060206101f38582860161017b565b9150509250929050565b61020681610227565b82525050565b600060208201905061022160008301846101fd565b92915050565b6000819050919050565b600080fd5b61023f81610227565b811461024a57600080fd5b5056fea2646970667358221220d39e086335057db80f702ebac8a7123339d84f5501a81e2fa31d5c84c858fbb564736f6c63430008070033",
          672
        ],
        "gasLimit": 800000,
        "gasPrice": "1000000000",
        "chainId": 1000
      }
    ],
    "expectedNewRoot": "0x97f79606a822c9c14374515b37096a4abde72035a88cf5ca282e6259f73bca84",
    "expectedNewLeafs": {
      "0x617b3a3528F9cDd6630fd3301B9c8911F7Bf063D": {
        "balance": "100000303698000000000",
        "nonce": "0",
        "storage": null,
        "hashBytecode": "0x0000000000000000000000000000000000000000000000000000000000000000",
        "bytecodeLength": 0
      },
      "0x4d5Cf5032B2a844602278b01199ED191A86c93ff": {
        "balance": "199999696301999999000",
        "nonce": "2",
        "storage": null,
        "hashBytecode": "0x0000000000000000000000000000000000000000000000000000000000000000",
        "bytecodeLength": 0
      },
      "0x1275fbb540c8efc58b812ba83b0d0b8b9917ae98": {
        "balance": "700",
        "nonce": "2",
        "storage": {
          "0x0000000000000000000000000000000000000000000000000000000000000000": "0x1baa42f276127db8ededfcf8bb7abafe9e58b715",
          "0x0000000000000000000000000000000000000000000000000000000000000001": "0x03e8"
        },
        "hashBytecode": "0x64497bfbeee254b7643cdd7437c59c62bc8f88d0628fe5fcb4bbbaf02d84f510",
        "bytecodeLength": 1067
      },
      "0x1baa42f276127db8ededfcf8bb7abafe9e58b715": {
        "balance": "300",
        "nonce": "1",
        "storage": {
          "0x0000000000000000000000000000000000000000000000000000000000000000": "0x01",
          "0x0000000000000000000000000000000000000000000000000000000000000001": "0x02"
        },
        "hashBytecode": "0xb441dc6e3f86a7e79eb2580a11d42c8e4fc8021f0a3d2f9f2383c26204800fb8",
        "bytecodeLength": 643
      }
    },
    "timestamp": 1944498031,
    "newLocalExitRoot": "0x0000000000000000000000000000000000000000000000000000000000000000",
    "batchHashData": "0x686db75133e34a51573c44d2a58a19ec492d6590eb557a0de795b45afabb7b0b",
    "globalExitRoot": "0x090bcaf734c4f06c93954a827b45a6e8c67b8e0fd1e0a35a1c5982d6961828f9",
    "batchL2Data": "0xec80843b9aca00830c3500941275fbb540c8efc58b812ba83b0d0b8b9917ae988203e88427c845dc8203e88080856ee652da1f3716650229e32accfc8b7fc85dbe88bda9fb90b38abcfc29087f2cd85d3fc8fc98377e5f649da74b38935de780c6aedacd209b71afca3f39ae0f1bf9032c01843b9aca00830c3500941275fbb540c8efc58b812ba83b0d0b8b9917ae9880b90304b88c4aa9000000000000000000000000000000000000000000000000000000000000004000000000000000000000000000000000000000000000000000000000000002a000000000000000000000000000000000000000000000000000000000000002a06080604052600160005560026001556102838061001d6000396000f3fe608060405234801561001057600080fd5b50600436106100625760003560e01c80630f0db778146100675780635ef3d3dd146100835780638ca3165d1461009f578063b698c129146100bd578063e4081625146100d9578063e795befc146100f7575b600080fd5b610081600480360381019061007c91906101bd565b610127565b005b61009d60048036038101906100989190610190565b610143565b005b6100a761014d565b6040516100b4919061020c565b60405180910390f35b6100d760048036038101906100d29190610190565b610153565b005b6100e161015d565b6040516100ee919061020c565b60405180910390f35b610111600480360381019061010c9190610190565b610163565b60405161011e919061020c565b60405180910390f35b8060026000848152602001908152602001600020819055505050565b8060008190555050565b60005481565b8060018190555050565b60015481565b60026020528060005260406000206000915090505481565b60008135905061018a81610236565b92915050565b6000602082840312156101a6576101a5610231565b5b60006101b48482850161017b565b91505092915050565b600080604083850312156101d4576101d3610231565b5b60006101e28582860161017b565b92505060206101f38582860161017b565b9150509250929050565b61020681610227565b82525050565b600060208201905061022160008301846101fd565b92915050565b6000819050919050565b600080fd5b61023f81610227565b811461024a57600080fd5b5056fea2646970667358221220d39e086335057db80f702ebac8a7123339d84f5501a81e2fa31d5c84c858fbb564736f6c634300080700338203e88080f4d627f9565422bad5c0326f8c18e4e8062c05b7bcf954fb142d3c5ac02ae8cc2cf27420830ccfe8f37283c42acf2aff4c2bf167985f95dcc60202162d65cfec1b",
    "chainID": 1000,
    "oldAccInputHash": "0x0000000000000000000000000000000000000000000000000000000000000000"
  },
  {
    "id": 4,
    "description": "create opcode starting bytecode with 0xEF",
    "arity": 4,
    "chainIdSequencer": 1001,
    "defaultChainId": 1000,
    "sequencerAddress": "0x617b3a3528F9cDd6630fd3301B9c8911F7Bf063D",
    "sequencerPvtKey": "0x28b2b0318721be8c8339199172cd7cc8f5e273800a35616ec893083a4b32c02e",
    "genesis": {
      "accounts": [
        {
          "address": "0x617b3a3528F9cDd6630fd3301B9c8911F7Bf063D",
          "pvtKey": "0x28b2b0318721be8c8339199172cd7cc8f5e273800a35616ec893083a4b32c02e",
          "balance": "100000000000000000000",
          "nonce": "0"
        },
        {
          "address": "0x4d5Cf5032B2a844602278b01199ED191A86c93ff",
          "pvtKey": "0x4d27a600dce8c29b7bd080e29a26972377dbb04d7a27d919adbb602bf13cfd23",
          "balance": "200000000000000000000",
          "nonce": "0"
        }
      ],
      "contracts": [
        {
          "contractName": "OpCreates",
          "paramsDeploy": {}
        }
      ]
    },
    "expectedOldRoot": "0xe6028b995d203f3f3b77f16f203012d9c286e3e744f6cb066a5baa418a61cbf8",
    "txs": [
      {
        "from": "0x4d5Cf5032B2a844602278b01199ED191A86c93ff",
        "to": "contract",
        "nonce": "0",
        "value": "0",
        "contractName": "OpCreates",
        "function": "opCreate",
        "params": [
          "0x60ef60005360036000f3",
          10
        ],
        "gasLimit": 800000,
        "gasPrice": "1000000000",
        "chainId": 1000
      }
    ],
    "expectedNewRoot": "0x8416f2a13424b80e00c54c4aee3ecba044dfa469f39322875307033c3d30b5db",
    "expectedNewLeafs": {
      "0x617b3a3528F9cDd6630fd3301B9c8911F7Bf063D": {
        "balance": "100000790820000000000",
        "nonce": "0",
        "storage": null,
        "hashBytecode": "0x0000000000000000000000000000000000000000000000000000000000000000",
        "bytecodeLength": 0
      },
      "0x4d5Cf5032B2a844602278b01199ED191A86c93ff": {
        "balance": "199999209180000000000",
        "nonce": "1",
        "storage": null,
        "hashBytecode": "0x0000000000000000000000000000000000000000000000000000000000000000",
        "bytecodeLength": 0
      },
      "0x1275fbb540c8efc58b812ba83b0d0b8b9917ae98": {
        "balance": "0",
        "nonce": "2",
        "storage": {},
        "hashBytecode": "0x64497bfbeee254b7643cdd7437c59c62bc8f88d0628fe5fcb4bbbaf02d84f510",
        "bytecodeLength": 1067
      },
      "0x0ccfcb97611c13f90693e568e432ecd5f724be52": {
        "balance": "0",
        "nonce": "0",
        "storage": null,
        "hashBytecode": "0x0000000000000000000000000000000000000000000000000000000000000000",
        "bytecodeLength": 0
      }
    },
    "timestamp": 1944498031,
    "newLocalExitRoot": "0x0000000000000000000000000000000000000000000000000000000000000000",
    "batchHashData": "0x98749db52083230827766633e573ed7b611b4c7664d9079f94aebfad6d754524",
    "globalExitRoot": "0x090bcaf734c4f06c93954a827b45a6e8c67b8e0fd1e0a35a1c5982d6961828f9",
    "batchL2Data": "0xf8ab80843b9aca00830c3500941275fbb540c8efc58b812ba83b0d0b8b9917ae9880b8845b8e99590000000000000000000000000000000000000000000000000000000000000040000000000000000000000000000000000000000000000000000000000000000a000000000000000000000000000000000000000000000000000000000000000a60ef60005360036000f3000000000000000000000000000000000000000000008203e880804c71834eb72a1b2f7f8bd9cd5ed542480443b346791cc071019a89eea56d96b8653e681b432cabbb0faae2157d3d44d4c750d43cda77d68a0c37aa49cb05d8721b",
    "chainID": 1000,
    "oldAccInputHash": "0x0000000000000000000000000000000000000000000000000000000000000000"
  },
  {
    "id": 5,
    "description": "create opcode starting bytecode with 0xFE",
    "arity": 4,
    "chainIdSequencer": 1001,
    "defaultChainId": 1000,
    "sequencerAddress": "0x617b3a3528F9cDd6630fd3301B9c8911F7Bf063D",
    "sequencerPvtKey": "0x28b2b0318721be8c8339199172cd7cc8f5e273800a35616ec893083a4b32c02e",
    "genesis": {
      "accounts": [
        {
          "address": "0x617b3a3528F9cDd6630fd3301B9c8911F7Bf063D",
          "pvtKey": "0x28b2b0318721be8c8339199172cd7cc8f5e273800a35616ec893083a4b32c02e",
          "balance": "100000000000000000000",
          "nonce": "0"
        },
        {
          "address": "0x4d5Cf5032B2a844602278b01199ED191A86c93ff",
          "pvtKey": "0x4d27a600dce8c29b7bd080e29a26972377dbb04d7a27d919adbb602bf13cfd23",
          "balance": "200000000000000000000",
          "nonce": "0"
        }
      ],
      "contracts": [
        {
          "contractName": "OpCreates",
          "paramsDeploy": {}
        }
      ]
    },
    "expectedOldRoot": "0xe6028b995d203f3f3b77f16f203012d9c286e3e744f6cb066a5baa418a61cbf8",
    "txs": [
      {
        "from": "0x4d5Cf5032B2a844602278b01199ED191A86c93ff",
        "to": "contract",
        "nonce": "0",
        "value": "0",
        "contractName": "OpCreates",
        "function": "opCreate",
        "params": [
          "0x60fe60005360036000f3",
          10
        ],
        "gasLimit": 800000,
        "gasPrice": "1000000000",
        "chainId": 1000
      }
    ],
    "expectedNewRoot": "0x07b03c6b12b0297580be220d1cd025b0cefdb4f0a4701409337063e8cdeb81e3",
    "expectedNewLeafs": {
      "0x617b3a3528F9cDd6630fd3301B9c8911F7Bf063D": {
        "balance": "100000077829000000000",
        "nonce": "0",
        "storage": null,
        "hashBytecode": "0x0000000000000000000000000000000000000000000000000000000000000000",
        "bytecodeLength": 0
      },
      "0x4d5Cf5032B2a844602278b01199ED191A86c93ff": {
        "balance": "199999922171000000000",
        "nonce": "1",
        "storage": null,
        "hashBytecode": "0x0000000000000000000000000000000000000000000000000000000000000000",
        "bytecodeLength": 0
      },
      "0x1275fbb540c8efc58b812ba83b0d0b8b9917ae98": {
        "balance": "0",
        "nonce": "2",
        "storage": {
          "0x0000000000000000000000000000000000000000000000000000000000000000": "0x0ccfcb97611c13f90693e568e432ecd5f724be52"
        },
        "hashBytecode": "0x64497bfbeee254b7643cdd7437c59c62bc8f88d0628fe5fcb4bbbaf02d84f510",
        "bytecodeLength": 1067
      },
      "0x0ccfcb97611c13f90693e568e432ecd5f724be52": {
        "balance": "0",
        "nonce": "1",
        "storage": {},
        "hashBytecode": "0x3a70336077bff8dc404d8b589da93994d7c4845a8eb3c6336b7fd25ddddf3617",
        "bytecodeLength": 3
      }
    },
    "timestamp": 1944498031,
    "newLocalExitRoot": "0x0000000000000000000000000000000000000000000000000000000000000000",
    "batchHashData": "0x9e532344bb0f556f661458458db1fc2e3d3adbc859f0ebe75f482276f1e53b44",
    "globalExitRoot": "0x090bcaf734c4f06c93954a827b45a6e8c67b8e0fd1e0a35a1c5982d6961828f9",
    "batchL2Data": "0xf8ab80843b9aca00830c3500941275fbb540c8efc58b812ba83b0d0b8b9917ae9880b8845b8e99590000000000000000000000000000000000000000000000000000000000000040000000000000000000000000000000000000000000000000000000000000000a000000000000000000000000000000000000000000000000000000000000000a60fe60005360036000f3000000000000000000000000000000000000000000008203e8808060fbddf51064ae790a375ef40af18b5ff34eb8fe7a40b266260e9bdae2bb12b8515005964e7ff49e512afda549b9aa55facd60d6d0a8615fe8db33108d1ddf2b1c",
    "chainID": 1000,
    "oldAccInputHash": "0x0000000000000000000000000000000000000000000000000000000000000000"
  },
  {
    "id": 6,
    "description": "create2 opcode starting bytecode with 0xEF",
    "arity": 4,
    "chainIdSequencer": 1001,
    "defaultChainId": 1000,
    "sequencerAddress": "0x617b3a3528F9cDd6630fd3301B9c8911F7Bf063D",
    "sequencerPvtKey": "0x28b2b0318721be8c8339199172cd7cc8f5e273800a35616ec893083a4b32c02e",
    "genesis": {
      "accounts": [
        {
          "address": "0x617b3a3528F9cDd6630fd3301B9c8911F7Bf063D",
          "pvtKey": "0x28b2b0318721be8c8339199172cd7cc8f5e273800a35616ec893083a4b32c02e",
          "balance": "100000000000000000000",
          "nonce": "0"
        },
        {
          "address": "0x4d5Cf5032B2a844602278b01199ED191A86c93ff",
          "pvtKey": "0x4d27a600dce8c29b7bd080e29a26972377dbb04d7a27d919adbb602bf13cfd23",
          "balance": "200000000000000000000",
          "nonce": "0"
        }
      ],
      "contracts": [
        {
          "contractName": "OpCreates",
          "paramsDeploy": {}
        }
      ]
    },
    "expectedOldRoot": "0xe6028b995d203f3f3b77f16f203012d9c286e3e744f6cb066a5baa418a61cbf8",
    "txs": [
      {
        "from": "0x4d5Cf5032B2a844602278b01199ED191A86c93ff",
        "to": "contract",
        "nonce": "0",
        "value": "0",
        "contractName": "OpCreates",
        "function": "opCreate2",
        "params": [
          "0x60ef60005360016000f3",
          10
        ],
        "gasLimit": 800000,
        "gasPrice": "1000000000",
        "chainId": 1000
      }
    ],
    "expectedNewRoot": "0x8416f2a13424b80e00c54c4aee3ecba044dfa469f39322875307033c3d30b5db",
    "expectedNewLeafs": {
      "0x617b3a3528F9cDd6630fd3301B9c8911F7Bf063D": {
        "balance": "100000790820000000000",
        "nonce": "0",
        "storage": null,
        "hashBytecode": "0x0000000000000000000000000000000000000000000000000000000000000000",
        "bytecodeLength": 0
      },
      "0x4d5Cf5032B2a844602278b01199ED191A86c93ff": {
        "balance": "199999209180000000000",
        "nonce": "1",
        "storage": null,
        "hashBytecode": "0x0000000000000000000000000000000000000000000000000000000000000000",
        "bytecodeLength": 0
      },
      "0x1275fbb540c8efc58b812ba83b0d0b8b9917ae98": {
        "balance": "0",
        "nonce": "2",
        "storage": {},
        "hashBytecode": "0x64497bfbeee254b7643cdd7437c59c62bc8f88d0628fe5fcb4bbbaf02d84f510",
        "bytecodeLength": 1067
      },
      "0x327a17bf6fbd99e80b3950f996786cec5d81e1f7": {
        "balance": "0",
        "nonce": "0",
        "storage": null,
        "hashBytecode": "0x0000000000000000000000000000000000000000000000000000000000000000",
        "bytecodeLength": 0
      }
    },
    "timestamp": 1944498031,
    "newLocalExitRoot": "0x0000000000000000000000000000000000000000000000000000000000000000",
    "batchHashData": "0x070281e3565cd884f4af165ff42553dc5091346c0be7aa3800d1727858b9ccad",
    "globalExitRoot": "0x090bcaf734c4f06c93954a827b45a6e8c67b8e0fd1e0a35a1c5982d6961828f9",
    "batchL2Data": "0xf8ab80843b9aca00830c3500941275fbb540c8efc58b812ba83b0d0b8b9917ae9880b884e3306a250000000000000000000000000000000000000000000000000000000000000040000000000000000000000000000000000000000000000000000000000000000a000000000000000000000000000000000000000000000000000000000000000a60ef60005360016000f3000000000000000000000000000000000000000000008203e88080dfbfeb19db3890d1015fb7f2f6765e1d5acd3062e3d65874b3840a18dcb30e563e936924dfc90d1e9ad1ba1d922f1d2357fd41ef1afc7fd0c8884297200d1b121c",
    "chainID": 1000,
    "oldAccInputHash": "0x0000000000000000000000000000000000000000000000000000000000000000"
  },
  {
    "id": 7,
    "description": "create2 opcode starting bytecode with 0xff",
    "arity": 4,
    "chainIdSequencer": 1001,
    "defaultChainId": 1000,
    "sequencerAddress": "0x617b3a3528F9cDd6630fd3301B9c8911F7Bf063D",
    "sequencerPvtKey": "0x28b2b0318721be8c8339199172cd7cc8f5e273800a35616ec893083a4b32c02e",
    "genesis": {
      "accounts": [
        {
          "address": "0x617b3a3528F9cDd6630fd3301B9c8911F7Bf063D",
          "pvtKey": "0x28b2b0318721be8c8339199172cd7cc8f5e273800a35616ec893083a4b32c02e",
          "balance": "100000000000000000000",
          "nonce": "0"
        },
        {
          "address": "0x4d5Cf5032B2a844602278b01199ED191A86c93ff",
          "pvtKey": "0x4d27a600dce8c29b7bd080e29a26972377dbb04d7a27d919adbb602bf13cfd23",
          "balance": "200000000000000000000",
          "nonce": "0"
        }
      ],
      "contracts": [
        {
          "contractName": "OpCreates",
          "paramsDeploy": {}
        }
      ]
    },
    "expectedOldRoot": "0xe6028b995d203f3f3b77f16f203012d9c286e3e744f6cb066a5baa418a61cbf8",
    "txs": [
      {
        "from": "0x4d5Cf5032B2a844602278b01199ED191A86c93ff",
        "to": "contract",
        "nonce": "0",
        "value": "0",
        "contractName": "OpCreates",
        "function": "opCreate2",
        "params": [
          "0x60ff60005360016000f3",
          10
        ],
        "gasLimit": 800000,
        "gasPrice": "1000000000",
        "chainId": 1000
      }
    ],
    "expectedNewRoot": "0x14fe8a76fea7c045fd6be50fd9d93791b70114c389ac3360bd844f575969ef83",
    "expectedNewLeafs": {
      "0x617b3a3528F9cDd6630fd3301B9c8911F7Bf063D": {
        "balance": "100000077482000000000",
        "nonce": "0",
        "storage": null,
        "hashBytecode": "0x0000000000000000000000000000000000000000000000000000000000000000",
        "bytecodeLength": 0
      },
      "0x4d5Cf5032B2a844602278b01199ED191A86c93ff": {
        "balance": "199999922518000000000",
        "nonce": "1",
        "storage": null,
        "hashBytecode": "0x0000000000000000000000000000000000000000000000000000000000000000",
        "bytecodeLength": 0
      },
      "0x1275fbb540c8efc58b812ba83b0d0b8b9917ae98": {
        "balance": "0",
        "nonce": "2",
        "storage": {
          "0x0000000000000000000000000000000000000000000000000000000000000000": "0xc1f9d0af0d34eb730fb870ac11bb1286b61e82c3"
        },
        "hashBytecode": "0x64497bfbeee254b7643cdd7437c59c62bc8f88d0628fe5fcb4bbbaf02d84f510",
        "bytecodeLength": 1067
      },
      "0xc1f9d0af0d34eb730fb870ac11bb1286b61e82c3": {
        "balance": "0",
        "nonce": "1",
        "storage": {},
        "hashBytecode": "0xf8dfcf170bbe5a2444f268eaee9f0721ace543d12164e07ac940727749eb3998",
        "bytecodeLength": 1
      }
    },
    "timestamp": 1944498031,
    "newLocalExitRoot": "0x0000000000000000000000000000000000000000000000000000000000000000",
    "batchHashData": "0x08201c90091ea2a688a038789a4557f32cca42b51801f063879c383f0af906df",
    "globalExitRoot": "0x090bcaf734c4f06c93954a827b45a6e8c67b8e0fd1e0a35a1c5982d6961828f9",
    "batchL2Data": "0xf8ab80843b9aca00830c3500941275fbb540c8efc58b812ba83b0d0b8b9917ae9880b884e3306a250000000000000000000000000000000000000000000000000000000000000040000000000000000000000000000000000000000000000000000000000000000a000000000000000000000000000000000000000000000000000000000000000a60ff60005360016000f3000000000000000000000000000000000000000000008203e88080f6443d11f8bd9a2c8f0b4f2a2ecac338f67a0bb8e6957235f98c495f85b5489d530d651c559a6c60aee3211517dafe7c7ff5acd4aca25004298b8660831ed4011b",
    "chainID": 1000,
    "oldAccInputHash": "0x0000000000000000000000000000000000000000000000000000000000000000"
  }
]