[
  {
    "id": 0,
    "description": "precompiled IDENTITY_0",
    "arity": 4,
    "chainIdSequencer": 1001,
    "defaultChainId": 1000,
    "sequencerAddress": "0x617b3a3528F9cDd6630fd3301B9c8911F7Bf063D",
    "sequencerPvtKey": "0x28b2b0318721be8c8339199172cd7cc8f5e273800a35616ec893083a4b32c02e",
    "genesis": {
      "accounts": [
        {
          "address": "0x617b3a3528F9cDd6630fd3301B9c8911F7Bf063D",
          "pvtKey": "0x28b2b0318721be8c8339199172cd7cc8f5e273800a35616ec893083a4b32c02e",
          "balance": "100000000000000000000",
          "nonce": "0"
        },
        {
          "address": "0x4d5Cf5032B2a844602278b01199ED191A86c93ff",
          "pvtKey": "0x4d27a600dce8c29b7bd080e29a26972377dbb04d7a27d919adbb602bf13cfd23",
          "balance": "200000000000000000000",
          "nonce": "0"
        }
      ],
      "contracts": [
        {
          "contractName": "PreIdentity",
          "paramsDeploy": {}
        }
      ]
    },
    "expectedOldRoot": "0xb2266fb0714ec71d3bf6a0ab9ceb9e8bf167bd1e8dd75ba868cf42aada71210e",
    "txs": [
      {
        "from": "0x4d5Cf5032B2a844602278b01199ED191A86c93ff",
        "to": "contract",
        "nonce": "0",
        "value": "0",
        "contractName": "PreIdentity",
        "function": "identity_0",
        "params": [
          "0x1234567890123456789012345678901234567890123456789012345678901234567890"
        ],
        "gasLimit": 100000,
        "gasPrice": "1000000000",
        "chainId": 1000
      }
    ],
    "expectedNewRoot": "0xdab506e769e25f4ea95b23c1c8ecfacacd50d2157bd4d89a50f29c7c8db88a14",
    "expectedNewLeafs": {
      "0x617b3a3528F9cDd6630fd3301B9c8911F7Bf063D": {
        "balance": "100000090209000000000",
        "nonce": "0",
        "storage": null,
        "hashBytecode": "0x0000000000000000000000000000000000000000000000000000000000000000",
        "bytecodeLength": 0
      },
      "0x4d5Cf5032B2a844602278b01199ED191A86c93ff": {
        "balance": "199999909791000000000",
        "nonce": "1",
        "storage": null,
        "hashBytecode": "0x0000000000000000000000000000000000000000000000000000000000000000",
        "bytecodeLength": 0
      },
      "0x1275fbb540c8efc58b812ba83b0d0b8b9917ae98": {
        "balance": "0",
        "nonce": "1",
        "storage": {
          "0x0000000000000000000000000000000000000000000000000000000000000002": "0x47",
          "0x405787fa12a823e0f2b7631cc41b3ba8828b3321ca811111fa75cd3aa3bb5ace": "0x1234567890123456789012345678901234567890123456789012345678901234",
          "0x405787fa12a823e0f2b7631cc41b3ba8828b3321ca811111fa75cd3aa3bb5acf": "0x5678900000000000000000000000000000000000000000000000000000000000"
        },
        "hashBytecode": "0x461f8bac52673ac309716377344b32dce2e9f7aa70bb2344f2c11f380a26fabd",
        "bytecodeLength": 943
      }
    },
    "timestamp": 1944498031,
    "newLocalExitRoot": "0x0000000000000000000000000000000000000000000000000000000000000000",
    "batchHashData": "0x2a52715acc510824d2291fe8c2754f4637180abca3ae4fb0b338fcbb289b739e",
    "inputHash": "0x4abe1a26fba9151aac82c6b768f5fd6bd64147883decbaff323cb8bd351198c4",
    "globalExitRoot": "0x090bcaf734c4f06c93954a827b45a6e8c67b8e0fd1e0a35a1c5982d6961828f9",
    "oldLocalExitRoot": "0x0000000000000000000000000000000000000000000000000000000000000000",
    "batchL2Data": "0xf8ab80843b9aca00830186a0941275fbb540c8efc58b812ba83b0d0b8b9917ae9880b884324b638500000000000000000000000000000000000000000000000000000000000000200000000000000000000000000000000000000000000000000000000000000023123456789012345678901234567890123456789012345678901234567890123456789000000000000000000000000000000000000000000000000000000000008203e880801778b2ddf921c588503ec0f21aefabf4e3fa2ebad45bcbb24e6fd83046c43280694b142377b2f5886701c7b06df64989b62862edc42c617e53b6231a34e84d171c"
  }
]