[
  {
    "id": 0,
    "description": "Call opcode staticcall fail",
    "arity": 4,
    "chainIdSequencer": 1001,
    "defaultChainId": 1000,
    "sequencerAddress": "0x617b3a3528F9cDd6630fd3301B9c8911F7Bf063D",
    "sequencerPvtKey": "0x28b2b0318721be8c8339199172cd7cc8f5e273800a35616ec893083a4b32c02e",
    "genesis": {
      "accounts": [
        {
          "address": "0x617b3a3528F9cDd6630fd3301B9c8911F7Bf063D",
          "pvtKey": "0x28b2b0318721be8c8339199172cd7cc8f5e273800a35616ec893083a4b32c02e",
          "balance": "100000000000000000000",
          "nonce": "0"
        },
        {
          "address": "0x4d5Cf5032B2a844602278b01199ED191A86c93ff",
          "pvtKey": "0x4d27a600dce8c29b7bd080e29a26972377dbb04d7a27d919adbb602bf13cfd23",
          "balance": "200000000000000000000",
          "nonce": "0"
        }
      ],
      "contracts": [
        {
          "contractName": "OpCallAux",
          "paramsDeploy": {}
        },
        {
          "contractName": "OpCall",
          "paramsDeploy": {}
        }
      ]
    },
    "expectedOldRoot": "0xc4f3b2187703d28e981e7e6671ad05a04b871fe25643d7bfaa03f2d5cb7b5ec4",
    "txs": [
      {
        "from": "0x4d5Cf5032B2a844602278b01199ED191A86c93ff",
        "to": "contract",
        "nonce": "0",
        "value": "0",
        "contractName": "OpCall",
        "function": "opStaticCallFail",
        "params": [
          "0x1275fbb540c8efc58b812ba83b0d0b8b9917ae98"
        ],
        "gasLimit": 3000000,
        "gasPrice": "1000000000",
        "chainId": 1000
      }
    ],
    "expectedNewRoot": "0x205960ed3a02b41a403720fdfd0d82728c88505b184ed4985c72535f19249153",
    "expectedNewLeafs": {
      "0x617b3a3528F9cDd6630fd3301B9c8911F7Bf063D": {
        "balance": "100002953523000000000",
        "nonce": "0",
        "storage": null,
        "hashBytecode": "0x0000000000000000000000000000000000000000000000000000000000000000",
        "bytecodeLength": 0
      },
      "0x4d5Cf5032B2a844602278b01199ED191A86c93ff": {
        "balance": "199997046477000000000",
        "nonce": "1",
        "storage": null,
        "hashBytecode": "0x0000000000000000000000000000000000000000000000000000000000000000",
        "bytecodeLength": 0
      },
      "0x1275fbb540c8efc58b812ba83b0d0b8b9917ae98": {
        "balance": "0",
        "nonce": "1",
        "storage": {
          "0x0000000000000000000000000000000000000000000000000000000000000000": "0x01"
        },
        "hashBytecode": "0x97319fbc8123c2049e8737ed1ae080e8a2a39c378e3c9e2fda384396cb4b4d2e",
        "bytecodeLength": 1555
      },
      "0x85e844b762a271022b692cf99ce5c59ba0650ac8": {
        "balance": "0",
        "nonce": "1",
        "storage": {
          "0x0000000000000000000000000000000000000000000000000000000000000001": "0xffffffffffffffffffffffffffffffffffffffffffffffffffffffffffffffff"
        },
        "hashBytecode": "0xb2684931dc3e75c5913c7b2f94346373aa2f74aee2a795df8279c515ead90181",
        "bytecodeLength": 6447
      }
    },
    "timestamp": 1944498031,
    "newLocalExitRoot": "0x0000000000000000000000000000000000000000000000000000000000000000",
    "batchHashData": "0x69d3457bd9bed4af5d4dd2adacf83b275c8f56627b99d3c88f3f760d60468dbd",
    "inputHash": "0xd4d8b3bf1dc6b846bd5aec653a95a83f7cc3124b84adc22f627144feedb2b242",
    "globalExitRoot": "0x090bcaf734c4f06c93954a827b45a6e8c67b8e0fd1e0a35a1c5982d6961828f9",
    "oldLocalExitRoot": "0x0000000000000000000000000000000000000000000000000000000000000000",
    "batchL2Data": "0xf84a80843b9aca00832dc6c09485e844b762a271022b692cf99ce5c59ba0650ac880a4064055bd0000000000000000000000001275fbb540c8efc58b812ba83b0d0b8b9917ae988203e8808086a5c02a7dac61c4c80c1194c9c2d970f39c777b040f3cae16880d75c0dc54c760df3cad9f79eb670b2f61cdad84bb2e07400a8a3d95d2548c6f96af6ef2ad101c"
  },
  {
    "id": 1,
    "description": "Call opcode call fail",
    "arity": 4,
    "chainIdSequencer": 1001,
    "defaultChainId": 1000,
    "sequencerAddress": "0x617b3a3528F9cDd6630fd3301B9c8911F7Bf063D",
    "sequencerPvtKey": "0x28b2b0318721be8c8339199172cd7cc8f5e273800a35616ec893083a4b32c02e",
    "genesis": {
      "accounts": [
        {
          "address": "0x617b3a3528F9cDd6630fd3301B9c8911F7Bf063D",
          "pvtKey": "0x28b2b0318721be8c8339199172cd7cc8f5e273800a35616ec893083a4b32c02e",
          "balance": "100000000000000000000",
          "nonce": "0"
        },
        {
          "address": "0x4d5Cf5032B2a844602278b01199ED191A86c93ff",
          "pvtKey": "0x4d27a600dce8c29b7bd080e29a26972377dbb04d7a27d919adbb602bf13cfd23",
          "balance": "200000000000000000000",
          "nonce": "0"
        }
      ],
      "contracts": [
        {
          "contractName": "OpCallAux",
          "paramsDeploy": {}
        },
        {
          "contractName": "OpCall",
          "paramsDeploy": {}
        }
      ]
    },
    "expectedOldRoot": "0xc4f3b2187703d28e981e7e6671ad05a04b871fe25643d7bfaa03f2d5cb7b5ec4",
    "txs": [
      {
        "from": "0x4d5Cf5032B2a844602278b01199ED191A86c93ff",
        "to": "contract",
        "nonce": "0",
        "value": "0",
        "contractName": "OpCall",
        "function": "opCallFail",
        "params": [
          "0x1275fbb540c8efc58b812ba83b0d0b8b9917ae98"
        ],
        "gasLimit": 1000000,
        "gasPrice": "1000000000",
        "chainId": 1000
      }
    ],
    "expectedNewRoot": "0x4d02af3529d324b017b502e2e01e167a7983465825625675bb7250ea340a957c",
    "expectedNewLeafs": {
      "0x617b3a3528F9cDd6630fd3301B9c8911F7Bf063D": {
        "balance": "100000047345000000000",
        "nonce": "0",
        "storage": null,
        "hashBytecode": "0x0000000000000000000000000000000000000000000000000000000000000000",
        "bytecodeLength": 0
      },
      "0x4d5Cf5032B2a844602278b01199ED191A86c93ff": {
        "balance": "199999952655000000000",
        "nonce": "1",
        "storage": null,
        "hashBytecode": "0x0000000000000000000000000000000000000000000000000000000000000000",
        "bytecodeLength": 0
      },
      "0x1275fbb540c8efc58b812ba83b0d0b8b9917ae98": {
        "balance": "0",
        "nonce": "1",
        "storage": {
          "0x0000000000000000000000000000000000000000000000000000000000000000": "0x01"
        },
        "hashBytecode": "0x97319fbc8123c2049e8737ed1ae080e8a2a39c378e3c9e2fda384396cb4b4d2e",
        "bytecodeLength": 1555
      },
      "0x85e844b762a271022b692cf99ce5c59ba0650ac8": {
        "balance": "0",
        "nonce": "1",
        "storage": {
          "0x0000000000000000000000000000000000000000000000000000000000000001": "0xffffffffffffffffffffffffffffffffffffffffffffffffffffffffffffffff"
        },
        "hashBytecode": "0xb2684931dc3e75c5913c7b2f94346373aa2f74aee2a795df8279c515ead90181",
        "bytecodeLength": 6447
      }
    },
    "timestamp": 1944498031,
    "newLocalExitRoot": "0x0000000000000000000000000000000000000000000000000000000000000000",
    "batchHashData": "0x23aced8d04b3cb35f55e4b63f08b30932cac7f413084a0219b3abf2a7133657d",
    "inputHash": "0xa3edabeeca4552d1011051f53d1327ecc88c52ef91e7312de45cda0488444c76",
    "globalExitRoot": "0x090bcaf734c4f06c93954a827b45a6e8c67b8e0fd1e0a35a1c5982d6961828f9",
    "oldLocalExitRoot": "0x0000000000000000000000000000000000000000000000000000000000000000",
    "batchL2Data": "0xf84a80843b9aca00830f42409485e844b762a271022b692cf99ce5c59ba0650ac880a47b4fdd7a0000000000000000000000001275fbb540c8efc58b812ba83b0d0b8b9917ae988203e880808bbd28bb7a2223cc27e6e1f220b86721cf76f5c7e3431f3407732fb409a941fc04be80d210a1403e126447570608d839452cacad78be71bed05adf1da27364a01c"
  },
  {
    "id": 2,
    "description": "Call opcode call fail params",
    "arity": 4,
    "chainIdSequencer": 1001,
    "defaultChainId": 1000,
    "sequencerAddress": "0x617b3a3528F9cDd6630fd3301B9c8911F7Bf063D",
    "sequencerPvtKey": "0x28b2b0318721be8c8339199172cd7cc8f5e273800a35616ec893083a4b32c02e",
    "genesis": {
      "accounts": [
        {
          "address": "0x617b3a3528F9cDd6630fd3301B9c8911F7Bf063D",
          "pvtKey": "0x28b2b0318721be8c8339199172cd7cc8f5e273800a35616ec893083a4b32c02e",
          "balance": "100000000000000000000",
          "nonce": "0"
        },
        {
          "address": "0x4d5Cf5032B2a844602278b01199ED191A86c93ff",
          "pvtKey": "0x4d27a600dce8c29b7bd080e29a26972377dbb04d7a27d919adbb602bf13cfd23",
          "balance": "200000000000000000000",
          "nonce": "0"
        }
      ],
      "contracts": [
        {
          "contractName": "OpCallAux",
          "paramsDeploy": {}
        },
        {
          "contractName": "OpCall",
          "paramsDeploy": {}
        }
      ]
    },
    "expectedOldRoot": "0xc4f3b2187703d28e981e7e6671ad05a04b871fe25643d7bfaa03f2d5cb7b5ec4",
    "txs": [
      {
        "from": "0x4d5Cf5032B2a844602278b01199ED191A86c93ff",
        "to": "contract",
        "nonce": "0",
        "value": "0",
        "contractName": "OpCall",
        "function": "opCallCallFail",
        "params": [
          "0x1275fbb540c8efc58b812ba83b0d0b8b9917ae98"
        ],
        "gasLimit": 1000000,
        "gasPrice": "1000000000",
        "chainId": 1000
      }
    ],
    "expectedNewRoot": "0xf9ff01128af6033a39639889cabe8bc5a854e0df1f1761f26e084480b952f1d9",
    "expectedNewLeafs": {
      "0x617b3a3528F9cDd6630fd3301B9c8911F7Bf063D": {
        "balance": "100000032876000000000",
        "nonce": "0",
        "storage": null,
        "hashBytecode": "0x0000000000000000000000000000000000000000000000000000000000000000",
        "bytecodeLength": 0
      },
      "0x4d5Cf5032B2a844602278b01199ED191A86c93ff": {
        "balance": "199999967124000000000",
        "nonce": "1",
        "storage": null,
        "hashBytecode": "0x0000000000000000000000000000000000000000000000000000000000000000",
        "bytecodeLength": 0
      },
      "0x1275fbb540c8efc58b812ba83b0d0b8b9917ae98": {
        "balance": "0",
        "nonce": "1",
        "storage": {
          "0x0000000000000000000000000000000000000000000000000000000000000000": "0x01"
        },
        "hashBytecode": "0x97319fbc8123c2049e8737ed1ae080e8a2a39c378e3c9e2fda384396cb4b4d2e",
        "bytecodeLength": 1555
      },
      "0x85e844b762a271022b692cf99ce5c59ba0650ac8": {
        "balance": "0",
        "nonce": "1",
        "storage": {
          "0x0000000000000000000000000000000000000000000000000000000000000001": "0xffffffffffffffffffffffffffffffffffffffffffffffffffffffffffffffff"
        },
        "hashBytecode": "0xb2684931dc3e75c5913c7b2f94346373aa2f74aee2a795df8279c515ead90181",
        "bytecodeLength": 6447
      }
    },
    "timestamp": 1944498031,
    "newLocalExitRoot": "0x0000000000000000000000000000000000000000000000000000000000000000",
    "batchHashData": "0x2d89c646589d0933be756c85c31ef39177df01e8e4dadb17ce21b94ba9dbe6c0",
    "inputHash": "0xd24387e108debe684208e6e7cb96a68d73d1a1bc8e9649a13a06f2b30648ab8d",
    "globalExitRoot": "0x090bcaf734c4f06c93954a827b45a6e8c67b8e0fd1e0a35a1c5982d6961828f9",
    "oldLocalExitRoot": "0x0000000000000000000000000000000000000000000000000000000000000000",
    "batchL2Data": "0xf84a80843b9aca00830f42409485e844b762a271022b692cf99ce5c59ba0650ac880a4043b6c7c0000000000000000000000001275fbb540c8efc58b812ba83b0d0b8b9917ae988203e88080270054eef8377badb608efb3d0ed7c47ef9caefdce21f921962cc46047df594a2b7542c7f2267838a6a65f1f6c0c9e89de6f5d124f56705c52242e67b71bdff61c"
  },
  {
    "id": 3,
    "description": "Call opcode call fail & call correct",
    "arity": 4,
    "chainIdSequencer": 1001,
    "defaultChainId": 1000,
    "sequencerAddress": "0x617b3a3528F9cDd6630fd3301B9c8911F7Bf063D",
    "sequencerPvtKey": "0x28b2b0318721be8c8339199172cd7cc8f5e273800a35616ec893083a4b32c02e",
    "genesis": {
      "accounts": [
        {
          "address": "0x617b3a3528F9cDd6630fd3301B9c8911F7Bf063D",
          "pvtKey": "0x28b2b0318721be8c8339199172cd7cc8f5e273800a35616ec893083a4b32c02e",
          "balance": "100000000000000000000",
          "nonce": "0"
        },
        {
          "address": "0x4d5Cf5032B2a844602278b01199ED191A86c93ff",
          "pvtKey": "0x4d27a600dce8c29b7bd080e29a26972377dbb04d7a27d919adbb602bf13cfd23",
          "balance": "200000000000000000000",
          "nonce": "0"
        }
      ],
      "contracts": [
        {
          "contractName": "OpCallAux",
          "paramsDeploy": {}
        },
        {
          "contractName": "OpCall",
          "paramsDeploy": {}
        }
      ]
    },
    "expectedOldRoot": "0xc4f3b2187703d28e981e7e6671ad05a04b871fe25643d7bfaa03f2d5cb7b5ec4",
    "txs": [
      {
        "from": "0x4d5Cf5032B2a844602278b01199ED191A86c93ff",
        "to": "contract",
        "nonce": "0",
        "value": "0",
        "contractName": "OpCall",
        "function": "opCallOpcode",
        "params": [
          "0x1275fbb540c8efc58b812ba83b0d0b8b9917ae98"
        ],
        "gasLimit": 1000000,
        "gasPrice": "1000000000",
        "chainId": 1000
      },
      {
        "from": "0x4d5Cf5032B2a844602278b01199ED191A86c93ff",
        "to": "contract",
        "nonce": "1",
        "value": "0",
        "contractName": "OpCall",
        "function": "opCallFail",
        "params": [
          "0x1275fbb540c8efc58b812ba83b0d0b8b9917ae98"
        ],
        "gasLimit": 1000000,
        "gasPrice": "1000000000",
        "chainId": 1000
      }
    ],
    "expectedNewRoot": "0xe5bc27adec07f4203c93e42c7f4de44eaa7ea1f121ca690cc25d1f85f7e81676",
    "expectedNewLeafs": {
      "0x617b3a3528F9cDd6630fd3301B9c8911F7Bf063D": {
        "balance": "100000082353000000000",
        "nonce": "0",
        "storage": null,
        "hashBytecode": "0x0000000000000000000000000000000000000000000000000000000000000000",
        "bytecodeLength": 0
      },
      "0x4d5Cf5032B2a844602278b01199ED191A86c93ff": {
        "balance": "199999917647000000000",
        "nonce": "2",
        "storage": null,
        "hashBytecode": "0x0000000000000000000000000000000000000000000000000000000000000000",
        "bytecodeLength": 0
      },
      "0x1275fbb540c8efc58b812ba83b0d0b8b9917ae98": {
        "balance": "0",
        "nonce": "1",
        "storage": {
          "0x0000000000000000000000000000000000000000000000000000000000000000": "0x12121212121212121212"
        },
        "hashBytecode": "0x97319fbc8123c2049e8737ed1ae080e8a2a39c378e3c9e2fda384396cb4b4d2e",
        "bytecodeLength": 1555
      },
      "0x85e844b762a271022b692cf99ce5c59ba0650ac8": {
        "balance": "0",
        "nonce": "1",
        "storage": {
          "0x0000000000000000000000000000000000000000000000000000000000000001": "0x012345668900000000000000000000000000000000000000000000"
        },
        "hashBytecode": "0xb2684931dc3e75c5913c7b2f94346373aa2f74aee2a795df8279c515ead90181",
        "bytecodeLength": 6447
      }
    },
    "timestamp": 1944498031,
    "newLocalExitRoot": "0x0000000000000000000000000000000000000000000000000000000000000000",
    "batchHashData": "0xc4079cee38e708278b28b33f8900f242fbde5f265f4af989d9019c0a3dfb2043",
    "inputHash": "0x428fab17950a583db507e106ef75c1ceaf50454771438854b097114651289f77",
    "globalExitRoot": "0x090bcaf734c4f06c93954a827b45a6e8c67b8e0fd1e0a35a1c5982d6961828f9",
    "oldLocalExitRoot": "0x0000000000000000000000000000000000000000000000000000000000000000",
    "batchL2Data": "0xf84a80843b9aca00830f42409485e844b762a271022b692cf99ce5c59ba0650ac880a4336657550000000000000000000000001275fbb540c8efc58b812ba83b0d0b8b9917ae988203e88080fad60d6587bdf84466dec6f15d1141dfb58dd4151af342a2e3137b03db8966ee44964ba9a4c2db1bb33bb23013173fda3a39845ca9b81c760eba5b17c7e9aff11bf84a01843b9aca00830f42409485e844b762a271022b692cf99ce5c59ba0650ac880a47b4fdd7a0000000000000000000000001275fbb540c8efc58b812ba83b0d0b8b9917ae988203e88080696fd4813ccb29915b0b567462d457201bcc7a6f9d8e023fba97d98855b08c2b6b6048091ec72004c396debe1fd296980e4e0f7dd79d73d1ad778203c1b3b1511b"
  },
  {
    "id": 4,
    "description": "Call opcode call fail & call correct",
    "arity": 4,
    "chainIdSequencer": 1001,
    "defaultChainId": 1000,
    "sequencerAddress": "0x617b3a3528F9cDd6630fd3301B9c8911F7Bf063D",
    "sequencerPvtKey": "0x28b2b0318721be8c8339199172cd7cc8f5e273800a35616ec893083a4b32c02e",
    "genesis": {
      "accounts": [
        {
          "address": "0x617b3a3528F9cDd6630fd3301B9c8911F7Bf063D",
          "pvtKey": "0x28b2b0318721be8c8339199172cd7cc8f5e273800a35616ec893083a4b32c02e",
          "balance": "100000000000000000000",
          "nonce": "0"
        },
        {
          "address": "0x4d5Cf5032B2a844602278b01199ED191A86c93ff",
          "pvtKey": "0x4d27a600dce8c29b7bd080e29a26972377dbb04d7a27d919adbb602bf13cfd23",
          "balance": "200000000000000000000",
          "nonce": "0"
        }
      ],
      "contracts": [
        {
          "contractName": "OpCallAux",
          "paramsDeploy": {}
        },
        {
          "contractName": "OpCall",
          "paramsDeploy": {}
        }
      ]
    },
    "expectedOldRoot": "0xc4f3b2187703d28e981e7e6671ad05a04b871fe25643d7bfaa03f2d5cb7b5ec4",
    "txs": [
      {
        "from": "0x4d5Cf5032B2a844602278b01199ED191A86c93ff",
        "to": "contract",
        "nonce": "0",
        "value": "0",
        "contractName": "OpCall",
        "function": "opCallFail",
        "params": [
          "0x1275fbb540c8efc58b812ba83b0d0b8b9917ae98"
        ],
        "gasLimit": 1000000,
        "gasPrice": "1000000000",
        "chainId": 1000
      },
      {
        "from": "0x617b3a3528F9cDd6630fd3301B9c8911F7Bf063D",
        "to": "contract",
        "nonce": "0",
        "value": "0",
        "contractName": "OpCall",
        "function": "opCallOpcode",
        "params": [
          "0x1275fbb540c8efc58b812ba83b0d0b8b9917ae98"
        ],
        "gasLimit": 1000000,
        "gasPrice": "1000000000",
        "chainId": 1000
      }
    ],
    "expectedNewRoot": "0xcf2843d5dab34b2f073e949a4313d7d2d3e5636931d0f9add842052e052d7ae0",
    "expectedNewLeafs": {
      "0x617b3a3528F9cDd6630fd3301B9c8911F7Bf063D": {
        "balance": "100000047345000000000",
        "nonce": "1",
        "storage": null,
        "hashBytecode": "0x0000000000000000000000000000000000000000000000000000000000000000",
        "bytecodeLength": 0
      },
      "0x4d5Cf5032B2a844602278b01199ED191A86c93ff": {
        "balance": "199999952655000000000",
        "nonce": "1",
        "storage": null,
        "hashBytecode": "0x0000000000000000000000000000000000000000000000000000000000000000",
        "bytecodeLength": 0
      },
      "0x1275fbb540c8efc58b812ba83b0d0b8b9917ae98": {
        "balance": "0",
        "nonce": "1",
        "storage": {
          "0x0000000000000000000000000000000000000000000000000000000000000000": "0x12121212121212121212"
        },
        "hashBytecode": "0x97319fbc8123c2049e8737ed1ae080e8a2a39c378e3c9e2fda384396cb4b4d2e",
        "bytecodeLength": 1555
      },
      "0x85e844b762a271022b692cf99ce5c59ba0650ac8": {
        "balance": "0",
        "nonce": "1",
        "storage": {
          "0x0000000000000000000000000000000000000000000000000000000000000001": "0x012345668900000000000000000000000000000000000000000000"
        },
        "hashBytecode": "0xb2684931dc3e75c5913c7b2f94346373aa2f74aee2a795df8279c515ead90181",
        "bytecodeLength": 6447
      }
    },
    "timestamp": 1944498031,
    "newLocalExitRoot": "0x0000000000000000000000000000000000000000000000000000000000000000",
    "batchHashData": "0x94a50270203565db14a6f0c295646eacd32c2939c94c1e4352f6cf99a0b0b743",
    "inputHash": "0x020f176814dcc64d2d38cf55183a2ffb74a8fa892e900a6c8010bff1cdece3f3",
    "globalExitRoot": "0x090bcaf734c4f06c93954a827b45a6e8c67b8e0fd1e0a35a1c5982d6961828f9",
    "oldLocalExitRoot": "0x0000000000000000000000000000000000000000000000000000000000000000",
    "batchL2Data": "0xf84a80843b9aca00830f42409485e844b762a271022b692cf99ce5c59ba0650ac880a47b4fdd7a0000000000000000000000001275fbb540c8efc58b812ba83b0d0b8b9917ae988203e880808bbd28bb7a2223cc27e6e1f220b86721cf76f5c7e3431f3407732fb409a941fc04be80d210a1403e126447570608d839452cacad78be71bed05adf1da27364a01cf84a80843b9aca00830f42409485e844b762a271022b692cf99ce5c59ba0650ac880a4336657550000000000000000000000001275fbb540c8efc58b812ba83b0d0b8b9917ae988203e880805a39710f3934088d683cdb570b4607f8663a8330031d05a7820beb3a07d42c2d5f5cca637fb9c98dad1bba0535dde54f4d192a7033586ecfadcf6c13478f4e061b"
  },
  {
    "id": 5,
    "description": "Call opcode call fail & call correct",
    "arity": 4,
    "chainIdSequencer": 1001,
    "defaultChainId": 1000,
    "sequencerAddress": "0x617b3a3528F9cDd6630fd3301B9c8911F7Bf063D",
    "sequencerPvtKey": "0x28b2b0318721be8c8339199172cd7cc8f5e273800a35616ec893083a4b32c02e",
    "genesis": {
      "accounts": [
        {
          "address": "0x617b3a3528F9cDd6630fd3301B9c8911F7Bf063D",
          "pvtKey": "0x28b2b0318721be8c8339199172cd7cc8f5e273800a35616ec893083a4b32c02e",
          "balance": "100000000000000000000",
          "nonce": "0"
        },
        {
          "address": "0x4d5Cf5032B2a844602278b01199ED191A86c93ff",
          "pvtKey": "0x4d27a600dce8c29b7bd080e29a26972377dbb04d7a27d919adbb602bf13cfd23",
          "balance": "200000000000000000000",
          "nonce": "0"
        }
      ],
      "contracts": [
        {
          "contractName": "OpCallAux",
          "paramsDeploy": {}
        },
        {
          "contractName": "OpCall",
          "paramsDeploy": {}
        }
      ]
    },
    "expectedOldRoot": "0xc4f3b2187703d28e981e7e6671ad05a04b871fe25643d7bfaa03f2d5cb7b5ec4",
    "txs": [
      {
        "from": "0x617b3a3528F9cDd6630fd3301B9c8911F7Bf063D",
        "to": "contract",
        "nonce": "0",
        "value": "0",
        "contractName": "OpCall",
        "function": "opCallFail",
        "params": [
          "0x1275fbb540c8efc58b812ba83b0d0b8b9917ae98"
        ],
        "gasLimit": 1000000,
        "gasPrice": "1000000000",
        "chainId": 1000
      },
      {
        "from": "0x4d5Cf5032B2a844602278b01199ED191A86c93ff",
        "to": "contract",
        "nonce": "0",
        "value": "0",
        "contractName": "OpCall",
        "function": "opCallOpcode",
        "params": [
          "0x1275fbb540c8efc58b812ba83b0d0b8b9917ae98"
        ],
        "gasLimit": 1000000,
        "gasPrice": "1000000000",
        "chainId": 1000
      }
    ],
    "expectedNewRoot": "0xe24693729adf77aa09cc3b8096583866b67dc5ac679f7999ba4d77f494a01255",
    "expectedNewLeafs": {
      "0x617b3a3528F9cDd6630fd3301B9c8911F7Bf063D": {
        "balance": "100000035008000000000",
        "nonce": "1",
        "storage": null,
        "hashBytecode": "0x0000000000000000000000000000000000000000000000000000000000000000",
        "bytecodeLength": 0
      },
      "0x4d5Cf5032B2a844602278b01199ED191A86c93ff": {
        "balance": "199999964992000000000",
        "nonce": "1",
        "storage": null,
        "hashBytecode": "0x0000000000000000000000000000000000000000000000000000000000000000",
        "bytecodeLength": 0
      },
      "0x1275fbb540c8efc58b812ba83b0d0b8b9917ae98": {
        "balance": "0",
        "nonce": "1",
        "storage": {
          "0x0000000000000000000000000000000000000000000000000000000000000000": "0x12121212121212121212"
        },
        "hashBytecode": "0x97319fbc8123c2049e8737ed1ae080e8a2a39c378e3c9e2fda384396cb4b4d2e",
        "bytecodeLength": 1555
      },
      "0x85e844b762a271022b692cf99ce5c59ba0650ac8": {
        "balance": "0",
        "nonce": "1",
        "storage": {
          "0x0000000000000000000000000000000000000000000000000000000000000001": "0x012345668900000000000000000000000000000000000000000000"
        },
        "hashBytecode": "0xb2684931dc3e75c5913c7b2f94346373aa2f74aee2a795df8279c515ead90181",
        "bytecodeLength": 6447
      }
    },
    "timestamp": 1944498031,
    "newLocalExitRoot": "0x0000000000000000000000000000000000000000000000000000000000000000",
    "batchHashData": "0xfba867286c092376d141ab1ad7e71c4de223550ee6892f7b5420afbf2e9188c5",
    "inputHash": "0x265cad2475c368f8044efa19b135abee9d3cb78890d07af010199e21f5b6f965",
    "globalExitRoot": "0x090bcaf734c4f06c93954a827b45a6e8c67b8e0fd1e0a35a1c5982d6961828f9",
    "oldLocalExitRoot": "0x0000000000000000000000000000000000000000000000000000000000000000",
    "batchL2Data": "0xf84a80843b9aca00830f42409485e844b762a271022b692cf99ce5c59ba0650ac880a47b4fdd7a0000000000000000000000001275fbb540c8efc58b812ba83b0d0b8b9917ae988203e880807792f4a3cc2d58f8daa40172cd6050bbf8f782fe9b2b3dad85b18b56b89edb4114f60677bce736b04d5f2f115e072e182915c4a6cbe2da0d703032c1d0a7827b1cf84a80843b9aca00830f42409485e844b762a271022b692cf99ce5c59ba0650ac880a4336657550000000000000000000000001275fbb540c8efc58b812ba83b0d0b8b9917ae988203e88080fad60d6587bdf84466dec6f15d1141dfb58dd4151af342a2e3137b03db8966ee44964ba9a4c2db1bb33bb23013173fda3a39845ca9b81c760eba5b17c7e9aff11b"
  },
  {
    "id": 6,
    "description": "Call opcode call fail & call correct",
    "arity": 4,
    "chainIdSequencer": 1001,
    "defaultChainId": 1000,
    "sequencerAddress": "0x617b3a3528F9cDd6630fd3301B9c8911F7Bf063D",
    "sequencerPvtKey": "0x28b2b0318721be8c8339199172cd7cc8f5e273800a35616ec893083a4b32c02e",
    "genesis": {
      "accounts": [
        {
          "address": "0x617b3a3528F9cDd6630fd3301B9c8911F7Bf063D",
          "pvtKey": "0x28b2b0318721be8c8339199172cd7cc8f5e273800a35616ec893083a4b32c02e",
          "balance": "100000000000000000000",
          "nonce": "0"
        },
        {
          "address": "0x4d5Cf5032B2a844602278b01199ED191A86c93ff",
          "pvtKey": "0x4d27a600dce8c29b7bd080e29a26972377dbb04d7a27d919adbb602bf13cfd23",
          "balance": "200000000000000000000",
          "nonce": "0"
        }
      ],
      "contracts": [
        {
          "contractName": "OpCallAux",
          "paramsDeploy": {}
        },
        {
          "contractName": "OpCall",
          "paramsDeploy": {}
        }
      ]
    },
    "expectedOldRoot": "0xc4f3b2187703d28e981e7e6671ad05a04b871fe25643d7bfaa03f2d5cb7b5ec4",
    "txs": [
      {
        "from": "0x617b3a3528F9cDd6630fd3301B9c8911F7Bf063D",
        "to": "contract",
        "nonce": "0",
        "value": "0",
        "contractName": "OpCall",
        "function": "opCallOpcode",
        "params": [
          "0x1275fbb540c8efc58b812ba83b0d0b8b9917ae98"
        ],
        "gasLimit": 1000000,
        "gasPrice": "1000000000",
        "chainId": 1000
      },
      {
        "from": "0x617b3a3528F9cDd6630fd3301B9c8911F7Bf063D",
        "to": "contract",
        "nonce": "1",
        "value": "0",
        "contractName": "OpCall",
        "function": "opCallFail",
        "params": [
          "0x1275fbb540c8efc58b812ba83b0d0b8b9917ae98"
        ],
        "gasLimit": 1000000,
        "gasPrice": "1000000000",
        "chainId": 1000
      }
    ],
    "expectedNewRoot": "0xd1825fd2ac8cc63438dca8ac41d950425b96a4b61403ad69aee4380eb6b6bbf4",
    "expectedNewLeafs": {
      "0x617b3a3528F9cDd6630fd3301B9c8911F7Bf063D": {
        "balance": "100000000000000000000",
        "nonce": "2",
        "storage": null,
        "hashBytecode": "0x0000000000000000000000000000000000000000000000000000000000000000",
        "bytecodeLength": 0
      },
      "0x4d5Cf5032B2a844602278b01199ED191A86c93ff": {
        "balance": "200000000000000000000",
        "nonce": "0",
        "storage": null,
        "hashBytecode": "0x0000000000000000000000000000000000000000000000000000000000000000",
        "bytecodeLength": 0
      },
      "0x1275fbb540c8efc58b812ba83b0d0b8b9917ae98": {
        "balance": "0",
        "nonce": "1",
        "storage": {
          "0x0000000000000000000000000000000000000000000000000000000000000000": "0x12121212121212121212"
        },
        "hashBytecode": "0x97319fbc8123c2049e8737ed1ae080e8a2a39c378e3c9e2fda384396cb4b4d2e",
        "bytecodeLength": 1555
      },
      "0x85e844b762a271022b692cf99ce5c59ba0650ac8": {
        "balance": "0",
        "nonce": "1",
        "storage": {
          "0x0000000000000000000000000000000000000000000000000000000000000001": "0x012345668900000000000000000000000000000000000000000000"
        },
        "hashBytecode": "0xb2684931dc3e75c5913c7b2f94346373aa2f74aee2a795df8279c515ead90181",
        "bytecodeLength": 6447
      }
    },
    "timestamp": 1944498031,
    "newLocalExitRoot": "0x0000000000000000000000000000000000000000000000000000000000000000",
    "batchHashData": "0xc9f94c3b482bee4990c5c6c2d2905f84c535aa8eb4eb481d73164436bd71d9f0",
    "inputHash": "0x1c4148ddf96e3570801d2b39107a16adf5df1273e9bd9696b5f92af76b100caf",
    "globalExitRoot": "0x090bcaf734c4f06c93954a827b45a6e8c67b8e0fd1e0a35a1c5982d6961828f9",
    "oldLocalExitRoot": "0x0000000000000000000000000000000000000000000000000000000000000000",
    "batchL2Data": "0xf84a80843b9aca00830f42409485e844b762a271022b692cf99ce5c59ba0650ac880a4336657550000000000000000000000001275fbb540c8efc58b812ba83b0d0b8b9917ae988203e880805a39710f3934088d683cdb570b4607f8663a8330031d05a7820beb3a07d42c2d5f5cca637fb9c98dad1bba0535dde54f4d192a7033586ecfadcf6c13478f4e061bf84a01843b9aca00830f42409485e844b762a271022b692cf99ce5c59ba0650ac880a47b4fdd7a0000000000000000000000001275fbb540c8efc58b812ba83b0d0b8b9917ae988203e880808e022a6caad18e0e6c3be6a850892d3d793e202c90250c191616b65fca5d3e5a1c7f983c36fa96b332d4562f397f39d6af6e214295e9db7782b49b3a4178e9cd1c"
  }
]