[
  {
    "id": 0,
    "description": "opSELFDESTRUCT non-empty receiver",
    "arity": 4,
    "chainIdSequencer": 1001,
    "defaultChainId": 1000,
    "sequencerAddress": "0x617b3a3528F9cDd6630fd3301B9c8911F7Bf063D",
    "sequencerPvtKey": "0x28b2b0318721be8c8339199172cd7cc8f5e273800a35616ec893083a4b32c02e",
    "genesis": {
      "accounts": [
        {
          "address": "0x617b3a3528F9cDd6630fd3301B9c8911F7Bf063D",
          "pvtKey": "0x28b2b0318721be8c8339199172cd7cc8f5e273800a35616ec893083a4b32c02e",
          "balance": "100000000000000000000",
          "nonce": "0"
        },
        {
          "address": "0x4d5Cf5032B2a844602278b01199ED191A86c93ff",
          "pvtKey": "0x4d27a600dce8c29b7bd080e29a26972377dbb04d7a27d919adbb602bf13cfd23",
          "balance": "200000000000000000000",
          "nonce": "0"
        },
        {
          "address": "0xEEEeF5032B2A844602278B01199ED191a86cEEeE",
          "balance": "0",
          "nonce": "1"
        }
      ],
      "contracts": [
        {
          "contractName": "Selfdestruct",
          "paramsDeploy": {}
        }
      ]
    },
    "expectedOldRoot": "0x8e9248ecf83a8eeb112384fdba7f5139ed9c25dc264f772cea9756ad6f957173",
    "txs": [
      {
        "from": "0x617b3a3528F9cDd6630fd3301B9c8911F7Bf063D",
        "to": "contract",
        "nonce": "0",
        "value": "0",
        "contractName": "Selfdestruct",
        "function": "setReceiver",
        "params": [
          "0xEEEeF5032B2A844602278B01199ED191a86cEEeE"
        ],
        "gasLimit": 100000,
        "gasPrice": "1000000000",
        "chainId": 1000
      },
      {
        "from": "0x617b3a3528F9cDd6630fd3301B9c8911F7Bf063D",
        "to": "contract",
        "nonce": "1",
        "value": "123456789",
        "contractName": "Selfdestruct",
        "function": "setVal",
        "params": [],
        "gasLimit": 100000,
        "gasPrice": "1000000000",
        "chainId": 1000
      },
      {
        "from": "0x4d5Cf5032B2a844602278b01199ED191A86c93ff",
        "to": "contract",
        "nonce": "0",
        "value": "0",
        "contractName": "Selfdestruct",
        "function": "destruct",
        "params": [],
        "gasLimit": 100000,
        "gasPrice": "1000000000",
        "chainId": 1000
      }
    ],
    "expectedNewRoot": "0x74ab4b1879489894a68db714a269f376f67c7e782a383121f3ec9da5fc5eb2b2",
    "expectedNewLeafs": {
      "0x0000000000000000000000000000000000000000": {
        "balance": "0",
        "nonce": "0",
        "storage": null,
        "hashBytecode": "0x0000000000000000000000000000000000000000000000000000000000000000",
        "bytecodeLength": 0
      },
      "0xAE4bB80bE56B819606589DE61d5ec3b522EEB032": {
        "balance": "0",
        "nonce": "0",
        "storage": null,
        "hashBytecode": "0x0000000000000000000000000000000000000000000000000000000000000000",
        "bytecodeLength": 0
      },
      "0x1275fbb540c8efc58b812ba83b0d0b8b9917ae98": {
        "balance": "0",
        "nonce": "1",
        "storage": {
          "0x0000000000000000000000000000000000000000000000000000000000000000": "0xeeeef5032b2a844602278b01199ed191a86ceeee",
          "0x0000000000000000000000000000000000000000000000000000000000000001": "0x075bcd15"
        },
        "hashBytecode": "0xb64fe8293043c1242b2ba5519203312b8d965e6c23f5c74910576c86d4432c2d",
        "bytecodeLength": 799
      },
      "0x617b3a3528F9cDd6630fd3301B9c8911F7Bf063D": {
        "balance": "100000030918876543211",
        "nonce": "2",
        "storage": null,
        "hashBytecode": "0x0000000000000000000000000000000000000000000000000000000000000000",
        "bytecodeLength": 0
      },
      "0x4d5Cf5032B2a844602278b01199ED191A86c93ff": {
        "balance": "199999969081000000000",
        "nonce": "1",
        "storage": null,
        "hashBytecode": "0x0000000000000000000000000000000000000000000000000000000000000000",
        "bytecodeLength": 0
      },
      "0xEEEeF5032B2A844602278B01199ED191a86cEEeE": {
        "balance": "123456789",
        "nonce": "1",
        "storage": null,
        "hashBytecode": "0x0000000000000000000000000000000000000000000000000000000000000000",
        "bytecodeLength": 0
      }
    },
    "timestamp": 1944498031,
    "newLocalExitRoot": "0x0000000000000000000000000000000000000000000000000000000000000000",
    "batchHashData": "0x6062c81473a1d6c2c20e44f387e3fb17dc0359a696510f0ac0f7153f3cd3efae",
    "globalExitRoot": "0x090bcaf734c4f06c93954a827b45a6e8c67b8e0fd1e0a35a1c5982d6961828f9",
    "batchL2Data": "0xf84a80843b9aca00830186a0941275fbb540c8efc58b812ba83b0d0b8b9917ae9880a4718da7ee000000000000000000000000eeeef5032b2a844602278b01199ed191a86ceeee8203e88080f575c21921ce2d8fb27d7706563bf605e7ac616156380e71bae93bc0e77367e151cce11879fd46346b92536449bf3bd1b8f7a8110978fcb4f8ea4499c988f79a1bee01843b9aca00830186a0941275fbb540c8efc58b812ba83b0d0b8b9917ae9884075bcd15845cfb28e78203e88080753bcbcaec2a03e928e96c7e951e585511acc85ab44ea1ef5344cc727879469923f9591354e24a495186a960957fa25fde99ab8f515a775c1d1947b8f8c7516b1cea80843b9aca00830186a0941275fbb540c8efc58b812ba83b0d0b8b9917ae9880842b68b9c68203e88080b506d57844ffec75125ca857d7a7d2ce4cfc505f6628794ea3fcddc4a8d4e80e1e8c47bdcd2ab62b3add73b01cac019e2437979d808c6a2635dc6a3f4c5fba271b",
    "chainID": 1000,
    "oldAccInputHash": "0x0000000000000000000000000000000000000000000000000000000000000000",
    "forkID": 4
  },
  {
    "id": 1,
    "description": "opSELFDESTRUCT empty receiver",
    "arity": 4,
    "chainIdSequencer": 1001,
    "defaultChainId": 1000,
    "sequencerAddress": "0x617b3a3528F9cDd6630fd3301B9c8911F7Bf063D",
    "sequencerPvtKey": "0x28b2b0318721be8c8339199172cd7cc8f5e273800a35616ec893083a4b32c02e",
    "genesis": {
      "accounts": [
        {
          "address": "0x617b3a3528F9cDd6630fd3301B9c8911F7Bf063D",
          "pvtKey": "0x28b2b0318721be8c8339199172cd7cc8f5e273800a35616ec893083a4b32c02e",
          "balance": "100000000000000000000",
          "nonce": "0"
        },
        {
          "address": "0x4d5Cf5032B2a844602278b01199ED191A86c93ff",
          "pvtKey": "0x4d27a600dce8c29b7bd080e29a26972377dbb04d7a27d919adbb602bf13cfd23",
          "balance": "200000000000000000000",
          "nonce": "0"
        },
        {
          "address": "0xEEEeF5032B2A844602278B01199ED191a86cEEeE",
          "balance": "0",
          "nonce": "0"
        }
      ],
      "contracts": [
        {
          "contractName": "Selfdestruct",
          "paramsDeploy": {}
        }
      ]
    },
    "expectedOldRoot": "0xfb75a60cac5e1c017addd7dd9e1e5178bfe9bebcf3473a895f15f95cfe323fcd",
    "txs": [
      {
        "from": "0x617b3a3528F9cDd6630fd3301B9c8911F7Bf063D",
        "to": "contract",
        "nonce": "0",
        "value": "0",
        "contractName": "Selfdestruct",
        "function": "setReceiver",
        "params": [
          "0xEEEeF5032B2A844602278B01199ED191a86cEEeE"
        ],
        "gasLimit": 100000,
        "gasPrice": "1000000000",
        "chainId": 1000
      },
      {
        "from": "0x617b3a3528F9cDd6630fd3301B9c8911F7Bf063D",
        "to": "contract",
        "nonce": "1",
        "value": "123456789",
        "contractName": "Selfdestruct",
        "function": "setVal",
        "params": [],
        "gasLimit": 100000,
        "gasPrice": "1000000000",
        "chainId": 1000
      },
      {
        "from": "0x4d5Cf5032B2a844602278b01199ED191A86c93ff",
        "to": "contract",
        "nonce": "0",
        "value": "0",
        "contractName": "Selfdestruct",
        "function": "destruct",
        "params": [],
        "gasLimit": 100000,
        "gasPrice": "1000000000",
        "chainId": 1000
      }
    ],
    "expectedNewRoot": "0x1866d184273fb85a34e3cce3132a1aff5dcf78b9419165bd7e70c312bc57c5aa",
    "expectedNewLeafs": {
      "0x0000000000000000000000000000000000000000": {
        "balance": "0",
        "nonce": "0",
        "storage": null,
        "hashBytecode": "0x0000000000000000000000000000000000000000000000000000000000000000",
        "bytecodeLength": 0
      },
      "0xAE4bB80bE56B819606589DE61d5ec3b522EEB032": {
        "balance": "0",
        "nonce": "0",
        "storage": null,
        "hashBytecode": "0x0000000000000000000000000000000000000000000000000000000000000000",
        "bytecodeLength": 0
      },
      "0x1275fbb540c8efc58b812ba83b0d0b8b9917ae98": {
        "balance": "0",
        "nonce": "1",
        "storage": {
          "0x0000000000000000000000000000000000000000000000000000000000000000": "0xeeeef5032b2a844602278b01199ed191a86ceeee",
          "0x0000000000000000000000000000000000000000000000000000000000000001": "0x075bcd15"
        },
        "hashBytecode": "0xb64fe8293043c1242b2ba5519203312b8d965e6c23f5c74910576c86d4432c2d",
        "bytecodeLength": 799
      },
      "0x617b3a3528F9cDd6630fd3301B9c8911F7Bf063D": {
        "balance": "100000055918876543211",
        "nonce": "2",
        "storage": null,
        "hashBytecode": "0x0000000000000000000000000000000000000000000000000000000000000000",
        "bytecodeLength": 0
      },
      "0x4d5Cf5032B2a844602278b01199ED191A86c93ff": {
        "balance": "199999944081000000000",
        "nonce": "1",
        "storage": null,
        "hashBytecode": "0x0000000000000000000000000000000000000000000000000000000000000000",
        "bytecodeLength": 0
      },
      "0xEEEeF5032B2A844602278B01199ED191a86cEEeE": {
        "balance": "123456789",
        "nonce": "0",
        "storage": null,
        "hashBytecode": "0x0000000000000000000000000000000000000000000000000000000000000000",
        "bytecodeLength": 0
      }
    },
    "timestamp": 1944498031,
    "newLocalExitRoot": "0x0000000000000000000000000000000000000000000000000000000000000000",
    "batchHashData": "0x6062c81473a1d6c2c20e44f387e3fb17dc0359a696510f0ac0f7153f3cd3efae",
    "globalExitRoot": "0x090bcaf734c4f06c93954a827b45a6e8c67b8e0fd1e0a35a1c5982d6961828f9",
    "batchL2Data": "0xf84a80843b9aca00830186a0941275fbb540c8efc58b812ba83b0d0b8b9917ae9880a4718da7ee000000000000000000000000eeeef5032b2a844602278b01199ed191a86ceeee8203e88080f575c21921ce2d8fb27d7706563bf605e7ac616156380e71bae93bc0e77367e151cce11879fd46346b92536449bf3bd1b8f7a8110978fcb4f8ea4499c988f79a1bee01843b9aca00830186a0941275fbb540c8efc58b812ba83b0d0b8b9917ae9884075bcd15845cfb28e78203e88080753bcbcaec2a03e928e96c7e951e585511acc85ab44ea1ef5344cc727879469923f9591354e24a495186a960957fa25fde99ab8f515a775c1d1947b8f8c7516b1cea80843b9aca00830186a0941275fbb540c8efc58b812ba83b0d0b8b9917ae9880842b68b9c68203e88080b506d57844ffec75125ca857d7a7d2ce4cfc505f6628794ea3fcddc4a8d4e80e1e8c47bdcd2ab62b3add73b01cac019e2437979d808c6a2635dc6a3f4c5fba271b",
    "chainID": 1000,
    "oldAccInputHash": "0x0000000000000000000000000000000000000000000000000000000000000000",
    "forkID": 4
  },
  {
    "id": 2,
    "description": "opSELFDESTRUCT non-empty cold receiver",
    "arity": 4,
    "chainIdSequencer": 1001,
    "defaultChainId": 1000,
    "sequencerAddress": "0x617b3a3528F9cDd6630fd3301B9c8911F7Bf063D",
    "sequencerPvtKey": "0x28b2b0318721be8c8339199172cd7cc8f5e273800a35616ec893083a4b32c02e",
    "genesis": {
      "accounts": [
        {
          "address": "0x617b3a3528F9cDd6630fd3301B9c8911F7Bf063D",
          "pvtKey": "0x28b2b0318721be8c8339199172cd7cc8f5e273800a35616ec893083a4b32c02e",
          "balance": "100000000000000000000",
          "nonce": "0"
        },
        {
          "address": "0x4d5Cf5032B2a844602278b01199ED191A86c93ff",
          "pvtKey": "0x4d27a600dce8c29b7bd080e29a26972377dbb04d7a27d919adbb602bf13cfd23",
          "balance": "200000000000000000000",
          "nonce": "0"
        },
        {
          "address": "0xEEEeF5032B2A844602278B01199ED191a86cEEeE",
          "balance": "0",
          "nonce": "0"
        }
      ],
      "contracts": [
        {
          "contractName": "Selfdestruct",
          "paramsDeploy": {}
        }
      ]
    },
    "expectedOldRoot": "0xfb75a60cac5e1c017addd7dd9e1e5178bfe9bebcf3473a895f15f95cfe323fcd",
    "txs": [
      {
        "from": "0x617b3a3528F9cDd6630fd3301B9c8911F7Bf063D",
        "to": "contract",
        "nonce": "0",
        "value": "0",
        "contractName": "Selfdestruct",
        "function": "setReceiver",
        "params": [
          "0xEEEeF5032B2A844602278B01199ED191a86cEEeE"
        ],
        "gasLimit": 100000,
        "gasPrice": "1000000000",
        "chainId": 1000
      },
      {
        "from": "0x617b3a3528F9cDd6630fd3301B9c8911F7Bf063D",
        "to": "contract",
        "nonce": "1",
        "value": "123456789",
        "contractName": "Selfdestruct",
        "function": "setVal",
        "params": [],
        "gasLimit": 100000,
        "gasPrice": "1000000000",
        "chainId": 1000
      },
      {
        "from": "0x617b3a3528F9cDd6630fd3301B9c8911F7Bf063D",
        "to": "0xEEEeF5032B2A844602278B01199ED191a86cEEeE",
        "nonce": "2",
        "value": "3",
        "gasLimit": 100000,
        "gasPrice": "1000000000",
        "chainId": 1000
      },
      {
        "from": "0x4d5Cf5032B2a844602278b01199ED191A86c93ff",
        "to": "contract",
        "nonce": "0",
        "value": "0",
        "contractName": "Selfdestruct",
        "function": "destruct",
        "params": [],
        "gasLimit": 100000,
        "gasPrice": "1000000000",
        "chainId": 1000
      }
    ],
    "expectedNewRoot": "0x8360d71de740381dd097c40e3349f7d8779a20ec70c5d8bc93e6231e9088a2a6",
    "expectedNewLeafs": {
      "0x0000000000000000000000000000000000000000": {
        "balance": "0",
        "nonce": "0",
        "storage": null,
        "hashBytecode": "0x0000000000000000000000000000000000000000000000000000000000000000",
        "bytecodeLength": 0
      },
      "0xAE4bB80bE56B819606589DE61d5ec3b522EEB032": {
        "balance": "0",
        "nonce": "0",
        "storage": null,
        "hashBytecode": "0x0000000000000000000000000000000000000000000000000000000000000000",
        "bytecodeLength": 0
      },
      "0x1275fbb540c8efc58b812ba83b0d0b8b9917ae98": {
        "balance": "0",
        "nonce": "1",
        "storage": {
          "0x0000000000000000000000000000000000000000000000000000000000000000": "0xeeeef5032b2a844602278b01199ed191a86ceeee",
          "0x0000000000000000000000000000000000000000000000000000000000000001": "0x075bcd15"
        },
        "hashBytecode": "0xb64fe8293043c1242b2ba5519203312b8d965e6c23f5c74910576c86d4432c2d",
        "bytecodeLength": 799
      },
      "0x617b3a3528F9cDd6630fd3301B9c8911F7Bf063D": {
        "balance": "100000030918876543208",
        "nonce": "3",
        "storage": null,
        "hashBytecode": "0x0000000000000000000000000000000000000000000000000000000000000000",
        "bytecodeLength": 0
      },
      "0x4d5Cf5032B2a844602278b01199ED191A86c93ff": {
        "balance": "199999969081000000000",
        "nonce": "1",
        "storage": null,
        "hashBytecode": "0x0000000000000000000000000000000000000000000000000000000000000000",
        "bytecodeLength": 0
      },
      "0xEEEeF5032B2A844602278B01199ED191a86cEEeE": {
        "balance": "123456792",
        "nonce": "0",
        "storage": null,
        "hashBytecode": "0x0000000000000000000000000000000000000000000000000000000000000000",
        "bytecodeLength": 0
      }
    },
    "timestamp": 1944498031,
    "newLocalExitRoot": "0x0000000000000000000000000000000000000000000000000000000000000000",
    "batchHashData": "0xbf71df7e8bdda983c40e081165215cbd914c8778dec0ff40f386f5b2b0ff8d4b",
    "globalExitRoot": "0x090bcaf734c4f06c93954a827b45a6e8c67b8e0fd1e0a35a1c5982d6961828f9",
    "batchL2Data": "0xf84a80843b9aca00830186a0941275fbb540c8efc58b812ba83b0d0b8b9917ae9880a4718da7ee000000000000000000000000eeeef5032b2a844602278b01199ed191a86ceeee8203e88080f575c21921ce2d8fb27d7706563bf605e7ac616156380e71bae93bc0e77367e151cce11879fd46346b92536449bf3bd1b8f7a8110978fcb4f8ea4499c988f79a1bee01843b9aca00830186a0941275fbb540c8efc58b812ba83b0d0b8b9917ae9884075bcd15845cfb28e78203e88080753bcbcaec2a03e928e96c7e951e585511acc85ab44ea1ef5344cc727879469923f9591354e24a495186a960957fa25fde99ab8f515a775c1d1947b8f8c7516b1ce602843b9aca00830186a094eeeef5032b2a844602278b01199ed191a86ceeee03808203e88080d051fe638181b4a417fb38ab7db717d97ebd8f74daef6134fe5f8fdf45d88b9759c5811954b33e0b171dd59af635f6c166cb503b8ab9a415749b5bdb059664821bea80843b9aca00830186a0941275fbb540c8efc58b812ba83b0d0b8b9917ae9880842b68b9c68203e88080b506d57844ffec75125ca857d7a7d2ce4cfc505f6628794ea3fcddc4a8d4e80e1e8c47bdcd2ab62b3add73b01cac019e2437979d808c6a2635dc6a3f4c5fba271b",
    "chainID": 1000,
    "oldAccInputHash": "0x0000000000000000000000000000000000000000000000000000000000000000",
    "forkID": 4
  },
  {
    "id": 3,
    "description": "opSELFDESTRUCT non-empty warm receiver",
    "arity": 4,
    "chainIdSequencer": 1001,
    "defaultChainId": 1000,
    "sequencerAddress": "0x617b3a3528F9cDd6630fd3301B9c8911F7Bf063D",
    "sequencerPvtKey": "0x28b2b0318721be8c8339199172cd7cc8f5e273800a35616ec893083a4b32c02e",
    "genesis": {
      "accounts": [
        {
          "address": "0x617b3a3528F9cDd6630fd3301B9c8911F7Bf063D",
          "pvtKey": "0x28b2b0318721be8c8339199172cd7cc8f5e273800a35616ec893083a4b32c02e",
          "balance": "100000000000000000000",
          "nonce": "0"
        },
        {
          "address": "0x4d5Cf5032B2a844602278b01199ED191A86c93ff",
          "pvtKey": "0x4d27a600dce8c29b7bd080e29a26972377dbb04d7a27d919adbb602bf13cfd23",
          "balance": "200000000000000000000",
          "nonce": "0"
        },
        {
          "address": "0xEEEeF5032B2A844602278B01199ED191a86cEEeE",
          "balance": "0",
          "nonce": "0"
        }
      ],
      "contracts": [
        {
          "contractName": "Selfdestruct",
          "paramsDeploy": {}
        }
      ]
    },
    "expectedOldRoot": "0xfb75a60cac5e1c017addd7dd9e1e5178bfe9bebcf3473a895f15f95cfe323fcd",
    "txs": [
      {
        "from": "0x617b3a3528F9cDd6630fd3301B9c8911F7Bf063D",
        "to": "contract",
        "nonce": "0",
        "value": "0",
        "contractName": "Selfdestruct",
        "function": "setReceiver",
        "params": [
          "0xEEEeF5032B2A844602278B01199ED191a86cEEeE"
        ],
        "gasLimit": 100000,
        "gasPrice": "1000000000",
        "chainId": 1000
      },
      {
        "from": "0x617b3a3528F9cDd6630fd3301B9c8911F7Bf063D",
        "to": "contract",
        "nonce": "1",
        "value": "123456789",
        "contractName": "Selfdestruct",
        "function": "setVal",
        "params": [],
        "gasLimit": 100000,
        "gasPrice": "1000000000",
        "chainId": 1000
      },
      {
        "from": "0x617b3a3528F9cDd6630fd3301B9c8911F7Bf063D",
        "to": "0xEEEeF5032B2A844602278B01199ED191a86cEEeE",
        "nonce": "2",
        "value": "3",
        "gasLimit": 100000,
        "gasPrice": "1000000000",
        "chainId": 1000
      },
      {
        "from": "0x4d5Cf5032B2a844602278b01199ED191A86c93ff",
        "to": "contract",
        "nonce": "0",
        "value": "0",
        "contractName": "Selfdestruct",
        "function": "destructWarm",
        "params": [],
        "gasLimit": 100000,
        "gasPrice": "1000000000",
        "chainId": 1000
      }
    ],
    "expectedNewRoot": "0x6cb5898a28b2ae19f933a6e017db8e9b0ae316a7f612b9faa6fe90c8f90b515f",
    "expectedNewLeafs": {
      "0x0000000000000000000000000000000000000000": {
        "balance": "0",
        "nonce": "0",
        "storage": null,
        "hashBytecode": "0x0000000000000000000000000000000000000000000000000000000000000000",
        "bytecodeLength": 0
      },
      "0xAE4bB80bE56B819606589DE61d5ec3b522EEB032": {
        "balance": "0",
        "nonce": "0",
        "storage": null,
        "hashBytecode": "0x0000000000000000000000000000000000000000000000000000000000000000",
        "bytecodeLength": 0
      },
      "0x1275fbb540c8efc58b812ba83b0d0b8b9917ae98": {
        "balance": "0",
        "nonce": "1",
        "storage": {
          "0x0000000000000000000000000000000000000000000000000000000000000000": "0xeeeef5032b2a844602278b01199ed191a86ceeee",
          "0x0000000000000000000000000000000000000000000000000000000000000001": "0x075bcd15"
        },
        "hashBytecode": "0xb64fe8293043c1242b2ba5519203312b8d965e6c23f5c74910576c86d4432c2d",
        "bytecodeLength": 799
      },
      "0x617b3a3528F9cDd6630fd3301B9c8911F7Bf063D": {
        "balance": "100000031153876543208",
        "nonce": "3",
        "storage": null,
        "hashBytecode": "0x0000000000000000000000000000000000000000000000000000000000000000",
        "bytecodeLength": 0
      },
      "0x4d5Cf5032B2a844602278b01199ED191A86c93ff": {
        "balance": "199999968846000000000",
        "nonce": "1",
        "storage": null,
        "hashBytecode": "0x0000000000000000000000000000000000000000000000000000000000000000",
        "bytecodeLength": 0
      },
      "0xEEEeF5032B2A844602278B01199ED191a86cEEeE": {
        "balance": "123456792",
        "nonce": "0",
        "storage": null,
        "hashBytecode": "0x0000000000000000000000000000000000000000000000000000000000000000",
        "bytecodeLength": 0
      }
    },
    "timestamp": 1944498031,
    "newLocalExitRoot": "0x0000000000000000000000000000000000000000000000000000000000000000",
    "batchHashData": "0xf6d36aff11c86780de6e8030ea0d89e3ab606aec1c171766da01b53630e010a7",
    "globalExitRoot": "0x090bcaf734c4f06c93954a827b45a6e8c67b8e0fd1e0a35a1c5982d6961828f9",
    "batchL2Data": "0xf84a80843b9aca00830186a0941275fbb540c8efc58b812ba83b0d0b8b9917ae9880a4718da7ee000000000000000000000000eeeef5032b2a844602278b01199ed191a86ceeee8203e88080f575c21921ce2d8fb27d7706563bf605e7ac616156380e71bae93bc0e77367e151cce11879fd46346b92536449bf3bd1b8f7a8110978fcb4f8ea4499c988f79a1bee01843b9aca00830186a0941275fbb540c8efc58b812ba83b0d0b8b9917ae9884075bcd15845cfb28e78203e88080753bcbcaec2a03e928e96c7e951e585511acc85ab44ea1ef5344cc727879469923f9591354e24a495186a960957fa25fde99ab8f515a775c1d1947b8f8c7516b1ce602843b9aca00830186a094eeeef5032b2a844602278b01199ed191a86ceeee03808203e88080d051fe638181b4a417fb38ab7db717d97ebd8f74daef6134fe5f8fdf45d88b9759c5811954b33e0b171dd59af635f6c166cb503b8ab9a415749b5bdb059664821bea80843b9aca00830186a0941275fbb540c8efc58b812ba83b0d0b8b9917ae988084cc5fe89a8203e88080f4297a8ca0e63388f19879997cc13d21b64f3d69ec0143f0842c472ae6a9e13276a1677a51b72b02d6594ba2facf04b00e21bbc6b5c1af2b47c0ebdbe00834341c",
    "chainID": 1000,
    "oldAccInputHash": "0x0000000000000000000000000000000000000000000000000000000000000000",
    "forkID": 4
  },
  {
    "id": 4,
    "description": "opSELFDESTRUCT non-empty cold receiver & sstore",
    "arity": 4,
    "chainIdSequencer": 1001,
    "defaultChainId": 1000,
    "sequencerAddress": "0x617b3a3528F9cDd6630fd3301B9c8911F7Bf063D",
    "sequencerPvtKey": "0x28b2b0318721be8c8339199172cd7cc8f5e273800a35616ec893083a4b32c02e",
    "genesis": {
      "accounts": [
        {
          "address": "0x617b3a3528F9cDd6630fd3301B9c8911F7Bf063D",
          "pvtKey": "0x28b2b0318721be8c8339199172cd7cc8f5e273800a35616ec893083a4b32c02e",
          "balance": "100000000000000000000",
          "nonce": "0"
        },
        {
          "address": "0x4d5Cf5032B2a844602278b01199ED191A86c93ff",
          "pvtKey": "0x4d27a600dce8c29b7bd080e29a26972377dbb04d7a27d919adbb602bf13cfd23",
          "balance": "200000000000000000000",
          "nonce": "0"
        },
        {
          "address": "0xEEEeF5032B2A844602278B01199ED191a86cEEeE",
          "balance": "0",
          "nonce": "0"
        }
      ],
      "contracts": [
        {
          "contractName": "Selfdestruct",
          "paramsDeploy": {}
        }
      ]
    },
    "expectedOldRoot": "0xfb75a60cac5e1c017addd7dd9e1e5178bfe9bebcf3473a895f15f95cfe323fcd",
    "txs": [
      {
        "from": "0x617b3a3528F9cDd6630fd3301B9c8911F7Bf063D",
        "to": "contract",
        "nonce": "0",
        "value": "0",
        "contractName": "Selfdestruct",
        "function": "setReceiver",
        "params": [
          "0xEEEeF5032B2A844602278B01199ED191a86cEEeE"
        ],
        "gasLimit": 100000,
        "gasPrice": "1000000000",
        "chainId": 1001
      },
      {
        "from": "0x617b3a3528F9cDd6630fd3301B9c8911F7Bf063D",
        "to": "contract",
        "nonce": "1",
        "value": "123456789",
        "contractName": "Selfdestruct",
        "function": "setVal",
        "params": [],
        "gasLimit": 100000,
        "gasPrice": "1000000000",
        "chainId": 1001
      },
      {
        "from": "0x617b3a3528F9cDd6630fd3301B9c8911F7Bf063D",
        "to": "0xEEEeF5032B2A844602278B01199ED191a86cEEeE",
        "nonce": "2",
        "value": "3",
        "gasLimit": 100000,
        "gasPrice": "1000000000",
        "chainId": 1001
      },
      {
        "from": "0x4d5Cf5032B2a844602278b01199ED191A86c93ff",
        "to": "contract",
        "nonce": "0",
        "value": "0",
        "contractName": "Selfdestruct",
        "function": "sstoreDestruct",
        "params": [],
        "gasLimit": 100000,
        "gasPrice": "1000000000",
        "chainId": 1001
      }
    ],
    "expectedNewRoot": "0x2de2957047b56697e444f9c825ecea804a9138fb959a1139a0584b92ec2b9711",
    "expectedNewLeafs": {
      "0x0000000000000000000000000000000000000000": {
        "balance": "0",
        "nonce": "0",
        "storage": null,
        "hashBytecode": "0x0000000000000000000000000000000000000000000000000000000000000000",
        "bytecodeLength": 0
      },
      "0xAE4bB80bE56B819606589DE61d5ec3b522EEB032": {
        "balance": "0",
        "nonce": "0",
        "storage": null,
        "hashBytecode": "0x0000000000000000000000000000000000000000000000000000000000000000",
        "bytecodeLength": 0
      },
      "0x1275fbb540c8efc58b812ba83b0d0b8b9917ae98": {
        "balance": "0",
        "nonce": "1",
        "storage": {
          "0x0000000000000000000000000000000000000000000000000000000000000000": "0xeeeef5032b2a844602278b01199ed191a86ceeee",
          "0x0000000000000000000000000000000000000000000000000000000000000001": "0x02"
        },
        "hashBytecode": "0xb64fe8293043c1242b2ba5519203312b8d965e6c23f5c74910576c86d4432c2d",
        "bytecodeLength": 799
      },
      "0x617b3a3528F9cDd6630fd3301B9c8911F7Bf063D": {
        "balance": "100000036034876543208",
        "nonce": "3",
        "storage": null,
        "hashBytecode": "0x0000000000000000000000000000000000000000000000000000000000000000",
        "bytecodeLength": 0
      },
      "0x4d5Cf5032B2a844602278b01199ED191A86c93ff": {
        "balance": "199999963965000000000",
        "nonce": "1",
        "storage": null,
        "hashBytecode": "0x0000000000000000000000000000000000000000000000000000000000000000",
        "bytecodeLength": 0
      },
      "0xEEEeF5032B2A844602278B01199ED191a86cEEeE": {
        "balance": "123456792",
        "nonce": "0",
        "storage": null,
        "hashBytecode": "0x0000000000000000000000000000000000000000000000000000000000000000",
        "bytecodeLength": 0
      }
    },
    "timestamp": 1944498031,
    "newLocalExitRoot": "0x0000000000000000000000000000000000000000000000000000000000000000",
    "batchHashData": "0xf84032244ab4cc0e17cb1f9e8f96b5a6007c4d7a5db3ca644816450810615348",
    "globalExitRoot": "0x090bcaf734c4f06c93954a827b45a6e8c67b8e0fd1e0a35a1c5982d6961828f9",
    "batchL2Data": "0xf84a80843b9aca00830186a0941275fbb540c8efc58b812ba83b0d0b8b9917ae9880a4718da7ee000000000000000000000000eeeef5032b2a844602278b01199ed191a86ceeee8203e88080f575c21921ce2d8fb27d7706563bf605e7ac616156380e71bae93bc0e77367e151cce11879fd46346b92536449bf3bd1b8f7a8110978fcb4f8ea4499c988f79a1bee01843b9aca00830186a0941275fbb540c8efc58b812ba83b0d0b8b9917ae9884075bcd15845cfb28e78203e88080753bcbcaec2a03e928e96c7e951e585511acc85ab44ea1ef5344cc727879469923f9591354e24a495186a960957fa25fde99ab8f515a775c1d1947b8f8c7516b1ce602843b9aca00830186a094eeeef5032b2a844602278b01199ed191a86ceeee03808203e88080d051fe638181b4a417fb38ab7db717d97ebd8f74daef6134fe5f8fdf45d88b9759c5811954b33e0b171dd59af635f6c166cb503b8ab9a415749b5bdb059664821bea80843b9aca00830186a0941275fbb540c8efc58b812ba83b0d0b8b9917ae988084d0a4c6c58203e88080ecdbe42e2da2f7b5792175e76580c16f0e5214ac13517c1b4f038c73dd3272807dc566258a3a9ad76b1faa88da736e6db415215f18086eb994e81d2548c934a81c",
    "chainID": 1000,
    "oldAccInputHash": "0x0000000000000000000000000000000000000000000000000000000000000000",
    "forkID": 4
  }
]