[
  {
    "id": 0,
    "description": "Genesis with uniswap V2 router + one swap",
    "arity": 4,
    "chainIdSequencer": 1001,
    "defaultChainId": 1000,
    "sequencerAddress": "0x9000000000000000000000000000000000000009",
    "sequencerPvtKey": "0x28b2b0318721be8c8339199172cd7cc8f5e273800a35616ec893083a4b32c02e",
    "genesis": {
      "accounts": [
        {
          "address": "0x617b3a3528F9cDd6630fd3301B9c8911F7Bf063D",
          "pvtKey": "0x28b2b0318721be8c8339199172cd7cc8f5e273800a35616ec893083a4b32c02e",
          "balance": "100000000000000000000",
          "nonce": "0"
        },
        {
          "address": "0x4d5Cf5032B2a844602278b01199ED191A86c93ff",
          "pvtKey": "0x4d27a600dce8c29b7bd080e29a26972377dbb04d7a27d919adbb602bf13cfd23",
          "balance": "200000000000000000000",
          "nonce": "0"
        }
      ],
      "contracts": [
        {
          "contractName": "UniswapV2Factory",
          "paramsDeploy": {
            "types": [
              "address"
            ],
            "values": [
              "0x617b3a3528F9cDd6630fd3301B9c8911F7Bf063D"
            ]
          }
        },
        {
          "contractName": "Token",
          "paramsDeploy": {
            "types": [
              "string"
            ],
            "values": [
              "ZKCOINA"
            ]
          }
        },
        {
          "contractName": "Token",
          "paramsDeploy": {
            "types": [
              "string"
            ],
            "values": [
              "ZKCOINB"
            ]
          }
        },
        {
          "contractName": "UniswapV2Router02",
          "paramsDeploy": {
            "types": [
              "address",
              "address"
            ],
            "values": [
              "0x1275fbb540c8efc58b812ba83b0d0b8b9917ae98",
              "0x617b3a3528F9cDd6630fd3301B9c8911F7Bf063D"
            ]
          }
        }
      ]
    },
    "expectedOldRoot": "0x9981d38c8c16a144f39108306acab1510a8c4e2d057292882ca5208520c2371d",
    "txs": [
      {
        "from": "0x617b3a3528F9cDd6630fd3301B9c8911F7Bf063D",
        "to": "contract",
        "nonce": "0",
        "value": "0",
        "contractAddress": "0x13db4b51c5174ee2366e878a367aa1d426970ade",
        "abiName": "ERC20ABI",
        "function": "mint",
        "params": [
          "0x617b3a3528F9cDd6630fd3301B9c8911F7Bf063D",
          "1000000000000000000000000000000"
        ],
        "gasLimit": 100000,
        "gasPrice": "1000000000",
        "chainId": 1000
      },
      {
        "from": "0x617b3a3528F9cDd6630fd3301B9c8911F7Bf063D",
        "to": "contract",
        "nonce": "1",
        "value": "0",
        "contractAddress": "0x85e844b762a271022b692cf99ce5c59ba0650ac8",
        "abiName": "ERC20ABI",
        "function": "mint",
        "params": [
          "0x617b3a3528F9cDd6630fd3301B9c8911F7Bf063D",
          "1000000000000000000000000000000"
        ],
        "gasLimit": 100000,
        "gasPrice": "1000000000",
        "chainId": 1000
      },
      {
        "from": "0x617b3a3528F9cDd6630fd3301B9c8911F7Bf063D",
        "to": "contract",
        "nonce": "2",
        "value": "0",
        "contractAddress": "0x85e844b762a271022b692cf99ce5c59ba0650ac8",
        "abiName": "ERC20ABI",
        "function": "approve",
        "params": [
          "0x7b086db4c71520cde18d5a7db5a3001ddc122838",
          "1000000000000000000000000000000"
        ],
        "gasLimit": 100000,
        "gasPrice": "1000000002",
        "chainId": 1000
      },
      {
        "from": "0x617b3a3528F9cDd6630fd3301B9c8911F7Bf063D",
        "to": "contract",
        "nonce": "3",
        "value": "0",
        "contractAddress": "0x13db4b51c5174ee2366e878a367aa1d426970ade",
        "abiName": "ERC20ABI",
        "function": "approve",
        "params": [
          "0x7b086db4c71520cde18d5a7db5a3001ddc122838",
          "1000000000000000000000000000000"
        ],
        "gasLimit": 100000,
        "gasPrice": "1000000002",
        "chainId": 1000
      },
      {
        "from": "0x617b3a3528F9cDd6630fd3301B9c8911F7Bf063D",
        "to": "contract",
        "nonce": "4",
        "value": "0",
        "contractName": "UniswapV2Router02",
        "function": "addLiquidity",
        "params": [
          "0x85e844b762a271022b692cf99ce5c59ba0650ac8",
          "0x13db4b51c5174ee2366e878a367aa1d426970ade",
          "1000000000",
          "1000000000",
          "10000000",
          "10000000",
          "0x617b3a3528F9cDd6630fd3301B9c8911F7Bf063D",
          "999999999999"
        ],
        "gasLimit": 10000000,
        "gasPrice": "1000000000",
        "chainId": 1000
      },
      {
        "from": "0x617b3a3528F9cDd6630fd3301B9c8911F7Bf063D",
        "to": "contract",
        "nonce": "5",
        "value": "0",
        "contractName": "UniswapV2Router02",
        "function": "swapExactTokensForTokens",
        "params": [
          "100",
          "1",
          [
            "0x13db4b51c5174ee2366e878a367aa1d426970ade",
            "0x85e844b762a271022b692cf99ce5c59ba0650ac8"
          ],
          "0x617b3a3528F9cDd6630fd3301B9c8911F7Bf063D",
          "999999999999"
        ],
        "gasLimit": 1500000,
        "gasPrice": "1000000000",
        "chainId": 1000
      }
    ],
    "expectedNewRoot": "0xbc07a8aba372068670f5142a1b23e9f1198243a281434734f0ba8ebeef472a06",
    "expectedNewLeafs": {
      "0xd40Ab51C8141FaB2fe0f42c687D7bC73A9502212": {
        "balance": "0",
        "nonce": "0",
        "storage": null,
        "hashBytecode": "0x0000000000000000000000000000000000000000000000000000000000000000",
        "bytecodeLength": 0
      },
      "0x617b3a3528F9cDd6630fd3301B9c8911F7Bf063D": {
        "balance": "99996461317999812152",
        "nonce": "6",
        "storage": null,
        "hashBytecode": "0x0000000000000000000000000000000000000000000000000000000000000000",
        "bytecodeLength": 0
      },
      "0x4d5Cf5032B2a844602278b01199ED191A86c93ff": {
        "balance": "200000000000000000000",
        "nonce": "0",
        "storage": null,
        "hashBytecode": "0x0000000000000000000000000000000000000000000000000000000000000000",
        "bytecodeLength": 0
      },
      "0x1275fbb540c8efc58b812ba83b0d0b8b9917ae98": {
        "balance": "0",
        "nonce": "1",
        "storage": {
          "0x0000000000000000000000000000000000000000000000000000000000000001": "0x617b3a3528f9cdd6630fd3301b9c8911f7bf063d"
        },
        "hashBytecode": "0x33f297f346b1ad951fda991d6b4d19b9a332b510d3ca65c3b8a7d0aebe8d06c0",
        "bytecodeLength": 18864
      },
      "0x85e844b762a271022b692cf99ce5c59ba0650ac8": {
        "balance": "0",
        "nonce": "1",
        "storage": {
          "0x5eff3f6834f82409f2dbfe5bcddfb5bd62b8ea2ebf2327cfdb9577734aa9a1b2": "0x0c9f2c9cd04674edea40000000",
          "0xa26b5e025e9ddb26a97be84268ae7c18cd27db987c3139cc9060b9b07e70e092": "0x0c9f2c9cd04674edea40000000",
          "0x0000000000000000000000000000000000000000000000000000000000000002": "0x0c9f2c9cd04674edea40000000",
          "0x0000000000000000000000000000000000000000000000000000000000000005": "0x12",
          "0x0000000000000000000000000000000000000000000000000000000000000007": "0x617b3a3528f9cdd6630fd3301b9c8911f7bf063d00",
          "0x0000000000000000000000000000000000000000000000000000000000000003": "0x5a4b434f494e410000000000000000000000000000000000000000000000000e",
          "0x0000000000000000000000000000000000000000000000000000000000000004": "0x5a4b434f494e410000000000000000000000000000000000000000000000000e"
        },
        "hashBytecode": "0x6a4f4d0553421e715aade51ef1754586485a905fd5826768bc7952704a04c4ba",
        "bytecodeLength": 7938
      },
      "0x13db4b51c5174ee2366e878a367aa1d426970ade": {
        "balance": "0",
        "nonce": "1",
        "storage": {
          "0x5eff3f6834f82409f2dbfe5bcddfb5bd62b8ea2ebf2327cfdb9577734aa9a1b2": "0x0c9f2c9cd04674edea40000000",
          "0xa26b5e025e9ddb26a97be84268ae7c18cd27db987c3139cc9060b9b07e70e092": "0x0c9f2c9cd04674edea40000000",
          "0x0000000000000000000000000000000000000000000000000000000000000002": "0x0c9f2c9cd04674edea40000000",
          "0x0000000000000000000000000000000000000000000000000000000000000005": "0x12",
          "0x0000000000000000000000000000000000000000000000000000000000000007": "0x617b3a3528f9cdd6630fd3301b9c8911f7bf063d00",
          "0x0000000000000000000000000000000000000000000000000000000000000003": "0x5a4b434f494e420000000000000000000000000000000000000000000000000e",
          "0x0000000000000000000000000000000000000000000000000000000000000004": "0x5a4b434f494e420000000000000000000000000000000000000000000000000e"
        },
        "hashBytecode": "0x6a4f4d0553421e715aade51ef1754586485a905fd5826768bc7952704a04c4ba",
        "bytecodeLength": 7938
      },
      "0x7b086db4c71520cde18d5a7db5a3001ddc122838": {
        "balance": "0",
        "nonce": "1",
        "storage": {
          "0x0000000000000000000000000000000000000000000000000000000000000000": "0x1275fbb540c8efc58b812ba83b0d0b8b9917ae98",
          "0x0000000000000000000000000000000000000000000000000000000000000001": "0x617b3a3528f9cdd6630fd3301b9c8911f7bf063d"
        },
        "hashBytecode": "0xc6f25bb13078e7a03a25bca434d7f1488209588cb3a43f300caee69d3ea99ee1",
        "bytecodeLength": 26977
      }
    },
    "timestamp": 1944498031,
    "newLocalExitRoot": "0x0000000000000000000000000000000000000000000000000000000000000000",
    "batchHashData": "0x9da84040b3c2203e6b9736b4d7eeb9351ad08a89d161e5cdfc3a58b7c65a959e",
    "globalExitRoot": "0x090bcaf734c4f06c93954a827b45a6e8c67b8e0fd1e0a35a1c5982d6961828f9",
    "batchL2Data": "0xf86b80843b9aca00830186a09413db4b51c5174ee2366e878a367aa1d426970ade80b84440c10f19000000000000000000000000617b3a3528f9cdd6630fd3301b9c8911f7bf063d000000000000000000000000000000000000000c9f2c9cd04674edea400000008203e880801b1bafe7e38a2b459b1afc08613ab229a85026f70c19677e505de9ba99eb5876411a00d722ee5fcfbb68ebb01a298b21b9aa52ecb109fedd01e8f26ca45f49c61bfff86b01843b9aca00830186a09485e844b762a271022b692cf99ce5c59ba0650ac880b84440c10f19000000000000000000000000617b3a3528f9cdd6630fd3301b9c8911f7bf063d000000000000000000000000000000000000000c9f2c9cd04674edea400000008203e88080e4bef4f325e944ea0ff35bd1a95b82df1795d5b01db59541e742e534bda25110251b4a5b641e911dfda9259e6d0236a61cf11e95897ab2d74c10f5608ea78f3b1cfff86b02843b9aca02830186a09485e844b762a271022b692cf99ce5c59ba0650ac880b844095ea7b30000000000000000000000007b086db4c71520cde18d5a7db5a3001ddc122838000000000000000000000000000000000000000c9f2c9cd04674edea400000008203e880803daf43e411a1759102ed5bb7a97273fd9c1da30680556712725a51d0c433f1210f546e235344424f9a5ed26fa1be11e8e8be2597730a9205c9cb213ef70c6c911bfff86b03843b9aca02830186a09413db4b51c5174ee2366e878a367aa1d426970ade80b844095ea7b30000000000000000000000007b086db4c71520cde18d5a7db5a3001ddc122838000000000000000000000000000000000000000c9f2c9cd04674edea400000008203e8808058469ab1083c0a246120e50b4fba1d668d0da155e34ff2daa52ccd72d3e7223c2e9cae2432a2774eef251efdeb287b25dddddf096101388cc70443a06db977501bfff9012c04843b9aca0083989680947b086db4c71520cde18d5a7db5a3001ddc12283880b90104e8e3370000000000000000000000000085e844b762a271022b692cf99ce5c59ba0650ac800000000000000000000000013db4b51c5174ee2366e878a367aa1d426970ade000000000000000000000000000000000000000000000000000000003b9aca00000000000000000000000000000000000000000000000000000000003b9aca0000000000000000000000000000000000000000000000000000000000009896800000000000000000000000000000000000000000000000000000000000989680000000000000000000000000617b3a3528f9cdd6630fd3301b9c8911f7bf063d000000000000000000000000000000000000000000000000000000e8d4a50fff8203e8808051eb7de8827d3dd2768de602fd56c05a6d544b7091952b6f9faf09ee7ff04ec63c05562518b42c0893f4edbd6ad5b0dc2e3a48165570d5bc0398dc5444b94a2c1bfff9012c05843b9aca008316e360947b086db4c71520cde18d5a7db5a3001ddc12283880b9010438ed17390000000000000000000000000000000000000000000000000000000000000064000000000000000000000000000000000000000000000000000000000000000100000000000000000000000000000000000000000000000000000000000000a0000000000000000000000000617b3a3528f9cdd6630fd3301b9c8911f7bf063d000000000000000000000000000000000000000000000000000000e8d4a50fff000000000000000000000000000000000000000000000000000000000000000200000000000000000000000013db4b51c5174ee2366e878a367aa1d426970ade00000000000000000000000085e844b762a271022b692cf99ce5c59ba0650ac88203e880804d2c8d25bf54847621d0cc5f2557471e3a96da537cf9acc0db848fa7e16d04075334c2098683275c89d62af80da302bb817da2f78a1cdfdf843df6b4b16904b51bff",
    "chainID": 1000,
    "oldAccInputHash": "0x0000000000000000000000000000000000000000000000000000000000000000",
    "forkID": 6
  }
]