[
  {
    "id": 0,
    "description": "STOP opcode",
    "arity": 4,
    "chainIdSequencer": 1001,
    "defaultChainId": 1000,
    "sequencerAddress": "0x617b3a3528F9cDd6630fd3301B9c8911F7Bf063D",
    "sequencerPvtKey": "0x28b2b0318721be8c8339199172cd7cc8f5e273800a35616ec893083a4b32c02e",
    "genesis": {
      "accounts": [
        {
          "address": "0x617b3a3528F9cDd6630fd3301B9c8911F7Bf063D",
          "pvtKey": "0x28b2b0318721be8c8339199172cd7cc8f5e273800a35616ec893083a4b32c02e",
          "balance": "100000000000000000000",
          "nonce": "0"
        },
        {
          "address": "0x4d5Cf5032B2a844602278b01199ED191A86c93ff",
          "pvtKey": "0x4d27a600dce8c29b7bd080e29a26972377dbb04d7a27d919adbb602bf13cfd23",
          "balance": "200000000000000000000",
          "nonce": "0"
        }
      ],
      "contracts": [
        {
          "contractName": "OpArithFinal",
          "paramsDeploy": {}
        }
      ]
    },
    "expectedOldRoot": "0x05b3efa92254e3e5e71f153269302d72e20dc72dd28025dfa47f80335140f02a",
    "txs": [
      {
        "from": "0x4d5Cf5032B2a844602278b01199ED191A86c93ff",
        "to": "contract",
        "nonce": "0",
        "value": "0",
        "contractName": "OpArithFinal",
        "function": "opStop",
        "params": [],
        "gasLimit": 100000,
        "gasPrice": "1000000000",
        "chainId": 1001
      }
    ],
    "expectedNewRoot": "0xf6a3eaef86fa25142bba8e0a418abf6672c6a063fa351fd516955d02dc38e4fe",
    "expectedNewLeafs": {
      "0x617b3a3528F9cDd6630fd3301B9c8911F7Bf063D": {
        "balance": "100000021199000000000",
        "nonce": "0",
        "storage": null,
        "hashBytecode": "0x0000000000000000000000000000000000000000000000000000000000000000",
        "bytecodeLength": 0
      },
      "0x4d5Cf5032B2a844602278b01199ED191A86c93ff": {
        "balance": "199999978801000000000",
        "nonce": "1",
        "storage": null,
        "hashBytecode": "0x0000000000000000000000000000000000000000000000000000000000000000",
        "bytecodeLength": 0
      },
      "0x1275fbb540c8efc58b812ba83b0d0b8b9917ae98": {
        "balance": "0",
        "nonce": "1",
        "storage": {
          "0x0000000000000000000000000000000000000000000000000000000000000000": "0x01"
        },
        "hashBytecode": "0x270b206cd7f7637a125ddc55aef59e54ef3ea0898dbc9b9094e5665fcd937bed",
        "bytecodeLength": 769
      }
    },
    "timestamp": 1944498031,
    "newLocalExitRoot": "0x0000000000000000000000000000000000000000000000000000000000000000",
    "batchHashData": "0x9ebef09482e4df8e634a681174e066b883dd8af3c39783312cb94bfa33877d64",
    "inputHash": "0x2abc0c3c0c2a33e8241826380d7258a14b51207ae85161a686d6129c842a5676",
    "globalExitRoot": "0x090bcaf734c4f06c93954a827b45a6e8c67b8e0fd1e0a35a1c5982d6961828f9",
    "oldLocalExitRoot": "0x0000000000000000000000000000000000000000000000000000000000000000",
    "batchL2Data": "0xea80843b9aca00830186a0941275fbb540c8efc58b812ba83b0d0b8b9917ae98808464fbb77c8203e98080788bcad70258f341a18ac214bfe3a67610f131039b3809981b9fc10aee42c0110208aeb217d4bd5debc0a629b1fd38338d67fe9c82c057a88df4bfa317e0ba021b"
  },
  {
    "id": 1,
    "description": "ADD opcode",
    "arity": 4,
    "chainIdSequencer": 1001,
    "defaultChainId": 1000,
    "sequencerAddress": "0x617b3a3528F9cDd6630fd3301B9c8911F7Bf063D",
    "sequencerPvtKey": "0x28b2b0318721be8c8339199172cd7cc8f5e273800a35616ec893083a4b32c02e",
    "genesis": {
      "accounts": [
        {
          "address": "0x617b3a3528F9cDd6630fd3301B9c8911F7Bf063D",
          "pvtKey": "0x28b2b0318721be8c8339199172cd7cc8f5e273800a35616ec893083a4b32c02e",
          "balance": "100000000000000000000",
          "nonce": "0"
        },
        {
          "address": "0x4d5Cf5032B2a844602278b01199ED191A86c93ff",
          "pvtKey": "0x4d27a600dce8c29b7bd080e29a26972377dbb04d7a27d919adbb602bf13cfd23",
          "balance": "200000000000000000000",
          "nonce": "0"
        }
      ],
      "contracts": [
        {
          "contractName": "OpArithFinal",
          "paramsDeploy": {}
        }
      ]
    },
    "expectedOldRoot": "0x05b3efa92254e3e5e71f153269302d72e20dc72dd28025dfa47f80335140f02a",
    "txs": [
      {
        "from": "0x4d5Cf5032B2a844602278b01199ED191A86c93ff",
        "to": "contract",
        "nonce": "0",
        "value": "0",
        "contractName": "OpArithFinal",
        "function": "opAdd",
        "params": [],
        "gasLimit": 100000,
        "gasPrice": "1000000000",
        "chainId": 1001
      }
    ],
    "expectedNewRoot": "0xe20397da0d956ad0eaae718bd3b09bfb7df2b9023b4414c7492175fe48bed644",
    "expectedNewLeafs": {
      "0x617b3a3528F9cDd6630fd3301B9c8911F7Bf063D": {
        "balance": "100000026248000000000",
        "nonce": "0",
        "storage": null,
        "hashBytecode": "0x0000000000000000000000000000000000000000000000000000000000000000",
        "bytecodeLength": 0
      },
      "0x4d5Cf5032B2a844602278b01199ED191A86c93ff": {
        "balance": "199999973752000000000",
        "nonce": "1",
        "storage": null,
        "hashBytecode": "0x0000000000000000000000000000000000000000000000000000000000000000",
        "bytecodeLength": 0
      },
      "0x1275fbb540c8efc58b812ba83b0d0b8b9917ae98": {
        "balance": "0",
        "nonce": "1",
        "storage": {
          "0x0000000000000000000000000000000000000000000000000000000000000000": "0x03"
        },
        "hashBytecode": "0x270b206cd7f7637a125ddc55aef59e54ef3ea0898dbc9b9094e5665fcd937bed",
        "bytecodeLength": 769
      }
    },
    "timestamp": 1944498031,
    "newLocalExitRoot": "0x0000000000000000000000000000000000000000000000000000000000000000",
    "batchHashData": "0x5f07d85bf7610a7351d0db47daded157d90d6b0a54800dc8918a266d5cbc06ab",
    "inputHash": "0xcb65b95346b2cf40791dba0dbf2dc72c73dfa75068295b351a9503f0a11f1adb",
    "globalExitRoot": "0x090bcaf734c4f06c93954a827b45a6e8c67b8e0fd1e0a35a1c5982d6961828f9",
    "oldLocalExitRoot": "0x0000000000000000000000000000000000000000000000000000000000000000",
    "batchL2Data": "0xea80843b9aca00830186a0941275fbb540c8efc58b812ba83b0d0b8b9917ae988084159278198203e98080b22577e12dd4e9c8c7c9f68a63d6ab3ec6fb612ee6b206dbcd7817257d816e752e69f816289c68eab050ddc279714bd05dc567ec3fc883148a0338334f3d5e771b"
  },
  {
    "id": 2,
    "description": "MUL opcode",
    "arity": 4,
    "chainIdSequencer": 1001,
    "defaultChainId": 1000,
    "sequencerAddress": "0x617b3a3528F9cDd6630fd3301B9c8911F7Bf063D",
    "sequencerPvtKey": "0x28b2b0318721be8c8339199172cd7cc8f5e273800a35616ec893083a4b32c02e",
    "genesis": {
      "accounts": [
        {
          "address": "0x617b3a3528F9cDd6630fd3301B9c8911F7Bf063D",
          "pvtKey": "0x28b2b0318721be8c8339199172cd7cc8f5e273800a35616ec893083a4b32c02e",
          "balance": "100000000000000000000",
          "nonce": "0"
        },
        {
          "address": "0x4d5Cf5032B2a844602278b01199ED191A86c93ff",
          "pvtKey": "0x4d27a600dce8c29b7bd080e29a26972377dbb04d7a27d919adbb602bf13cfd23",
          "balance": "200000000000000000000",
          "nonce": "0"
        }
      ],
      "contracts": [
        {
          "contractName": "OpArithFinal",
          "paramsDeploy": {}
        }
      ]
    },
    "expectedOldRoot": "0x05b3efa92254e3e5e71f153269302d72e20dc72dd28025dfa47f80335140f02a",
    "txs": [
      {
        "from": "0x4d5Cf5032B2a844602278b01199ED191A86c93ff",
        "to": "contract",
        "nonce": "0",
        "value": "0",
        "contractName": "OpArithFinal",
        "function": "opMul",
        "params": [],
        "gasLimit": 100000,
        "gasPrice": "1000000000",
        "chainId": 1001
      }
    ],
    "expectedNewRoot": "0x5f8d33bf77bd45f58ea700d60eef5531bd1b1a137622381910ef1f3d152f0af7",
    "expectedNewLeafs": {
      "0x617b3a3528F9cDd6630fd3301B9c8911F7Bf063D": {
        "balance": "100000026294000000000",
        "nonce": "0",
        "storage": null,
        "hashBytecode": "0x0000000000000000000000000000000000000000000000000000000000000000",
        "bytecodeLength": 0
      },
      "0x4d5Cf5032B2a844602278b01199ED191A86c93ff": {
        "balance": "199999973706000000000",
        "nonce": "1",
        "storage": null,
        "hashBytecode": "0x0000000000000000000000000000000000000000000000000000000000000000",
        "bytecodeLength": 0
      },
      "0x1275fbb540c8efc58b812ba83b0d0b8b9917ae98": {
        "balance": "0",
        "nonce": "1",
        "storage": {
          "0x0000000000000000000000000000000000000000000000000000000000000000": "0x0c"
        },
        "hashBytecode": "0x270b206cd7f7637a125ddc55aef59e54ef3ea0898dbc9b9094e5665fcd937bed",
        "bytecodeLength": 769
      }
    },
    "timestamp": 1944498031,
    "newLocalExitRoot": "0x0000000000000000000000000000000000000000000000000000000000000000",
    "batchHashData": "0xb67c3ed0e1b546feaf9ec8ef8870aec023d4203ee6f0a82d8dc0781c4cff9270",
    "inputHash": "0x0cdf1316328c7da759c653e329ed05b35973d04a894b2878d106074dc3465ca8",
    "globalExitRoot": "0x090bcaf734c4f06c93954a827b45a6e8c67b8e0fd1e0a35a1c5982d6961828f9",
    "oldLocalExitRoot": "0x0000000000000000000000000000000000000000000000000000000000000000",
    "batchL2Data": "0xea80843b9aca00830186a0941275fbb540c8efc58b812ba83b0d0b8b9917ae9880843931a6b38203e980805c812808315573db3cdfb56b3633fb18e11db7d534534ed3e779d0e1fadcec5a76ea6d281a943906f6ad859e45cc25efc9e96bc12ccc3b7ac94abb489e44728e1c"
  },
  {
    "id": 3,
    "description": "SUB opcode",
    "arity": 4,
    "chainIdSequencer": 1001,
    "defaultChainId": 1000,
    "sequencerAddress": "0x617b3a3528F9cDd6630fd3301B9c8911F7Bf063D",
    "sequencerPvtKey": "0x28b2b0318721be8c8339199172cd7cc8f5e273800a35616ec893083a4b32c02e",
    "genesis": {
      "accounts": [
        {
          "address": "0x617b3a3528F9cDd6630fd3301B9c8911F7Bf063D",
          "pvtKey": "0x28b2b0318721be8c8339199172cd7cc8f5e273800a35616ec893083a4b32c02e",
          "balance": "100000000000000000000",
          "nonce": "0"
        },
        {
          "address": "0x4d5Cf5032B2a844602278b01199ED191A86c93ff",
          "pvtKey": "0x4d27a600dce8c29b7bd080e29a26972377dbb04d7a27d919adbb602bf13cfd23",
          "balance": "200000000000000000000",
          "nonce": "0"
        }
      ],
      "contracts": [
        {
          "contractName": "OpArithFinal",
          "paramsDeploy": {}
        }
      ]
    },
    "expectedOldRoot": "0x05b3efa92254e3e5e71f153269302d72e20dc72dd28025dfa47f80335140f02a",
    "txs": [
      {
        "from": "0x4d5Cf5032B2a844602278b01199ED191A86c93ff",
        "to": "contract",
        "nonce": "0",
        "value": "0",
        "contractName": "OpArithFinal",
        "function": "opSub",
        "params": [],
        "gasLimit": 100000,
        "gasPrice": "1000000000",
        "chainId": 1001
      }
    ],
    "expectedNewRoot": "0xec01e0e7e219a84c5ee2c1fa1cde459a83227d7e49d5295d251115ec2ae583d7",
    "expectedNewLeafs": {
      "0x617b3a3528F9cDd6630fd3301B9c8911F7Bf063D": {
        "balance": "100000023491000000000",
        "nonce": "0",
        "storage": null,
        "hashBytecode": "0x0000000000000000000000000000000000000000000000000000000000000000",
        "bytecodeLength": 0
      },
      "0x4d5Cf5032B2a844602278b01199ED191A86c93ff": {
        "balance": "199999976509000000000",
        "nonce": "1",
        "storage": null,
        "hashBytecode": "0x0000000000000000000000000000000000000000000000000000000000000000",
        "bytecodeLength": 0
      },
      "0x1275fbb540c8efc58b812ba83b0d0b8b9917ae98": {
        "balance": "0",
        "nonce": "1",
        "storage": {
          "0x0000000000000000000000000000000000000000000000000000000000000000": "0x01"
        },
        "hashBytecode": "0x270b206cd7f7637a125ddc55aef59e54ef3ea0898dbc9b9094e5665fcd937bed",
        "bytecodeLength": 769
      }
    },
    "timestamp": 1944498031,
    "newLocalExitRoot": "0x0000000000000000000000000000000000000000000000000000000000000000",
    "batchHashData": "0x80cff7c3ccd755b32c797191509e470c3c14a28c6243ffdec65ec72fe5b71265",
    "inputHash": "0x602f71a07a92f219af59179f2d3d1d7fb680ae5d4b06b34fb36ea2eaee53a171",
    "globalExitRoot": "0x090bcaf734c4f06c93954a827b45a6e8c67b8e0fd1e0a35a1c5982d6961828f9",
    "oldLocalExitRoot": "0x0000000000000000000000000000000000000000000000000000000000000000",
    "batchL2Data": "0xea80843b9aca00830186a0941275fbb540c8efc58b812ba83b0d0b8b9917ae988084c68f6d1a8203e98080dbfb2299f51da738ce5c4aa8b50ea690189278e3f6254dfaefb2b212afb5cdb010a595fc41ea8a6ffad33635c7fd30d46eabc44f59d7d17a71dbe80b2ee4aae91c"
  },
  {
    "id": 4,
    "description": "DIV opcode",
    "arity": 4,
    "chainIdSequencer": 1001,
    "defaultChainId": 1000,
    "sequencerAddress": "0x617b3a3528F9cDd6630fd3301B9c8911F7Bf063D",
    "sequencerPvtKey": "0x28b2b0318721be8c8339199172cd7cc8f5e273800a35616ec893083a4b32c02e",
    "genesis": {
      "accounts": [
        {
          "address": "0x617b3a3528F9cDd6630fd3301B9c8911F7Bf063D",
          "pvtKey": "0x28b2b0318721be8c8339199172cd7cc8f5e273800a35616ec893083a4b32c02e",
          "balance": "100000000000000000000",
          "nonce": "0"
        },
        {
          "address": "0x4d5Cf5032B2a844602278b01199ED191A86c93ff",
          "pvtKey": "0x4d27a600dce8c29b7bd080e29a26972377dbb04d7a27d919adbb602bf13cfd23",
          "balance": "200000000000000000000",
          "nonce": "0"
        }
      ],
      "contracts": [
        {
          "contractName": "OpArithFinal",
          "paramsDeploy": {}
        }
      ]
    },
    "expectedOldRoot": "0x05b3efa92254e3e5e71f153269302d72e20dc72dd28025dfa47f80335140f02a",
    "txs": [
      {
        "from": "0x4d5Cf5032B2a844602278b01199ED191A86c93ff",
        "to": "contract",
        "nonce": "0",
        "value": "0",
        "contractName": "OpArithFinal",
        "function": "opDiv",
        "params": [],
        "gasLimit": 100000,
        "gasPrice": "1000000000",
        "chainId": 1001
      }
    ],
    "expectedNewRoot": "0xd93c0222d39313e54fe882d6ee10dadc9848ca59d2d292e09541fb767dcd4a3d",
    "expectedNewLeafs": {
      "0x617b3a3528F9cDd6630fd3301B9c8911F7Bf063D": {
        "balance": "100000026228000000000",
        "nonce": "0",
        "storage": null,
        "hashBytecode": "0x0000000000000000000000000000000000000000000000000000000000000000",
        "bytecodeLength": 0
      },
      "0x4d5Cf5032B2a844602278b01199ED191A86c93ff": {
        "balance": "199999973772000000000",
        "nonce": "1",
        "storage": null,
        "hashBytecode": "0x0000000000000000000000000000000000000000000000000000000000000000",
        "bytecodeLength": 0
      },
      "0x1275fbb540c8efc58b812ba83b0d0b8b9917ae98": {
        "balance": "0",
        "nonce": "1",
        "storage": {
          "0x0000000000000000000000000000000000000000000000000000000000000000": "0x05"
        },
        "hashBytecode": "0x270b206cd7f7637a125ddc55aef59e54ef3ea0898dbc9b9094e5665fcd937bed",
        "bytecodeLength": 769
      }
    },
    "timestamp": 1944498031,
    "newLocalExitRoot": "0x0000000000000000000000000000000000000000000000000000000000000000",
    "batchHashData": "0xd0ed2c92c3853992fe6b7a513c962cf3dbe85dd13844a4a91d53c5a934464d41",
    "inputHash": "0x8dcfee721f0b459435c00f33e829fe47926b9a570ffee1f63eb88f03fdea3890",
    "globalExitRoot": "0x090bcaf734c4f06c93954a827b45a6e8c67b8e0fd1e0a35a1c5982d6961828f9",
    "oldLocalExitRoot": "0x0000000000000000000000000000000000000000000000000000000000000000",
    "batchL2Data": "0xea80843b9aca00830186a0941275fbb540c8efc58b812ba83b0d0b8b9917ae9880840e4d2d028203e980801b661f0633d7b0df73a9351680d0a16e7b73bb75a8398d4dea225db2fe7ce5d94f8cf7a4a8b4a82d218ab0ea669f86c6e29716e7bb3268aa7c3f8bac425d676a1c"
  },
  {
    "id": 5,
    "description": "ADD custom opcode",
    "arity": 4,
    "chainIdSequencer": 1001,
    "defaultChainId": 1000,
    "sequencerAddress": "0x617b3a3528F9cDd6630fd3301B9c8911F7Bf063D",
    "sequencerPvtKey": "0x28b2b0318721be8c8339199172cd7cc8f5e273800a35616ec893083a4b32c02e",
    "genesis": {
      "accounts": [
        {
          "address": "0x617b3a3528F9cDd6630fd3301B9c8911F7Bf063D",
          "pvtKey": "0x28b2b0318721be8c8339199172cd7cc8f5e273800a35616ec893083a4b32c02e",
          "balance": "100000000000000000000",
          "nonce": "0"
        },
        {
          "address": "0x4d5Cf5032B2a844602278b01199ED191A86c93ff",
          "pvtKey": "0x4d27a600dce8c29b7bd080e29a26972377dbb04d7a27d919adbb602bf13cfd23",
          "balance": "200000000000000000000",
          "nonce": "0"
        }
      ],
      "contracts": [
        {
          "contractName": "OpArithFinal",
          "paramsDeploy": {}
        }
      ]
    },
    "expectedOldRoot": "0x05b3efa92254e3e5e71f153269302d72e20dc72dd28025dfa47f80335140f02a",
    "txs": [
      {
        "from": "0x4d5Cf5032B2a844602278b01199ED191A86c93ff",
        "to": "contract",
        "nonce": "0",
        "value": "0",
        "contractName": "OpArithFinal",
        "function": "opCustomAdd",
        "params": [
          "3618502788666131106986593281521497120414687020801267626233049500247285301248",
          "7237005577332262213973186563042994240829374041602535252466099000494570602496"
        ],
        "gasLimit": 100000,
        "gasPrice": "1",
        "chainId": 1001
      }
    ],
    "expectedNewRoot": "0xcf6691fc099e3173ab5e344c73ad3bb57e78f0513e53cb34f8e512da8286a752",
    "expectedNewLeafs": {
      "0x617b3a3528F9cDd6630fd3301B9c8911F7Bf063D": {
        "balance": "100000000000000027153",
        "nonce": "0",
        "storage": null,
        "hashBytecode": "0x0000000000000000000000000000000000000000000000000000000000000000",
        "bytecodeLength": 0
      },
      "0x4d5Cf5032B2a844602278b01199ED191A86c93ff": {
        "balance": "199999999999999972847",
        "nonce": "1",
        "storage": null,
        "hashBytecode": "0x0000000000000000000000000000000000000000000000000000000000000000",
        "bytecodeLength": 0
      },
      "0x1275fbb540c8efc58b812ba83b0d0b8b9917ae98": {
        "balance": "0",
        "nonce": "1",
        "storage": {
          "0x0000000000000000000000000000000000000000000000000000000000000000": "0x1800000000000000000000000000000000000000000000000000000000000000"
        },
        "hashBytecode": "0x270b206cd7f7637a125ddc55aef59e54ef3ea0898dbc9b9094e5665fcd937bed",
        "bytecodeLength": 769
      }
    },
    "timestamp": 1944498031,
    "newLocalExitRoot": "0x0000000000000000000000000000000000000000000000000000000000000000",
    "batchHashData": "0xee565375e4d0d67d8be661c7e9a73e05393b557d87a09a28921ac5c966a32a4c",
    "inputHash": "0xc8128def0ac37af4f6f16f27455359ce6924ded465a39f7e00a92ab0c3578fc7",
    "globalExitRoot": "0x090bcaf734c4f06c93954a827b45a6e8c67b8e0fd1e0a35a1c5982d6961828f9",
    "oldLocalExitRoot": "0x0000000000000000000000000000000000000000000000000000000000000000",
    "batchL2Data": "0xf8678001830186a0941275fbb540c8efc58b812ba83b0d0b8b9917ae9880b8446664f730080000000000000000000000000000000000000000000000000000000000000010000000000000000000000000000000000000000000000000000000000000008203e98080469a32b80f307dd4b213474a26cabddbbf7c97eec99b090198e7bc1842c8de126915eecdf8ccd69cc368e94fe6ce5cef3342ab029c92f352d358a8fadcba06591b"
  },
  {
    "id": 6,
    "description": "DIV custom opcode",
    "arity": 4,
    "chainIdSequencer": 1001,
    "defaultChainId": 1000,
    "sequencerAddress": "0x617b3a3528F9cDd6630fd3301B9c8911F7Bf063D",
    "sequencerPvtKey": "0x28b2b0318721be8c8339199172cd7cc8f5e273800a35616ec893083a4b32c02e",
    "genesis": {
      "accounts": [
        {
          "address": "0x617b3a3528F9cDd6630fd3301B9c8911F7Bf063D",
          "pvtKey": "0x28b2b0318721be8c8339199172cd7cc8f5e273800a35616ec893083a4b32c02e",
          "balance": "100000000000000000000",
          "nonce": "0"
        },
        {
          "address": "0x4d5Cf5032B2a844602278b01199ED191A86c93ff",
          "pvtKey": "0x4d27a600dce8c29b7bd080e29a26972377dbb04d7a27d919adbb602bf13cfd23",
          "balance": "200000000000000000000",
          "nonce": "0"
        }
      ],
      "contracts": [
        {
          "contractName": "OpArithFinal",
          "paramsDeploy": {}
        }
      ]
    },
    "expectedOldRoot": "0x05b3efa92254e3e5e71f153269302d72e20dc72dd28025dfa47f80335140f02a",
    "txs": [
      {
        "from": "0x4d5Cf5032B2a844602278b01199ED191A86c93ff",
        "to": "contract",
        "nonce": "0",
        "value": "0",
        "contractName": "OpArithFinal",
        "function": "opCustomDiv",
        "params": [
          "3618502788666131106986593281521497120414687020801267626233049500247285301248",
          "7237005577332262213973186563042994240829374041602535252466099000494570602496"
        ],
        "gasLimit": 100000,
        "gasPrice": "1",
        "chainId": 1001
      }
    ],
    "expectedNewRoot": "0x45a0344c62066ab78e57dd683a746e544deed963ebe96e9f708c814a0a5a50ee",
    "expectedNewLeafs": {
      "0x617b3a3528F9cDd6630fd3301B9c8911F7Bf063D": {
        "balance": "100000000000000013582",
        "nonce": "0",
        "storage": null,
        "hashBytecode": "0x0000000000000000000000000000000000000000000000000000000000000000",
        "bytecodeLength": 0
      },
      "0x4d5Cf5032B2a844602278b01199ED191A86c93ff": {
        "balance": "199999999999999986418",
        "nonce": "1",
        "storage": null,
        "hashBytecode": "0x0000000000000000000000000000000000000000000000000000000000000000",
        "bytecodeLength": 0
      },
      "0x1275fbb540c8efc58b812ba83b0d0b8b9917ae98": {
        "balance": "0",
        "nonce": "1",
        "storage": {
          "0x0000000000000000000000000000000000000000000000000000000000000000": "0x00"
        },
        "hashBytecode": "0x270b206cd7f7637a125ddc55aef59e54ef3ea0898dbc9b9094e5665fcd937bed",
        "bytecodeLength": 769
      }
    },
    "timestamp": 1944498031,
    "newLocalExitRoot": "0x0000000000000000000000000000000000000000000000000000000000000000",
    "batchHashData": "0x20e76f31fe19a9fe5457213326ac50f2513cb4cc5268580e14165778aa2aa3c4",
    "inputHash": "0xf18a7533c8acac72c5c712bf62630bdfaec2c91c75e9e68ed4d7a5c66335b679",
    "globalExitRoot": "0x090bcaf734c4f06c93954a827b45a6e8c67b8e0fd1e0a35a1c5982d6961828f9",
    "oldLocalExitRoot": "0x0000000000000000000000000000000000000000000000000000000000000000",
    "batchL2Data": "0xf8678001830186a0941275fbb540c8efc58b812ba83b0d0b8b9917ae9880b844242e46d2080000000000000000000000000000000000000000000000000000000000000010000000000000000000000000000000000000000000000000000000000000008203e98080ca5d3eaa7a1cc620d70e1dcaeb74dc0fc9308b7ca557b2bf94c65c3a56d35f1b05f199bb2ce202acb7d92276f0aed9e32399bcdc87e02798ca338d3402ab5c3e1b"
  },
  {
    "id": 7,
    "description": "SDIV",
    "arity": 4,
    "chainIdSequencer": 1001,
    "defaultChainId": 1000,
    "sequencerAddress": "0x617b3a3528F9cDd6630fd3301B9c8911F7Bf063D",
    "sequencerPvtKey": "0x28b2b0318721be8c8339199172cd7cc8f5e273800a35616ec893083a4b32c02e",
    "genesis": {
      "accounts": [
        {
          "address": "0x617b3a3528F9cDd6630fd3301B9c8911F7Bf063D",
          "pvtKey": "0x28b2b0318721be8c8339199172cd7cc8f5e273800a35616ec893083a4b32c02e",
          "balance": "100000000000000000000",
          "nonce": "0"
        },
        {
          "address": "0x4d5Cf5032B2a844602278b01199ED191A86c93ff",
          "pvtKey": "0x4d27a600dce8c29b7bd080e29a26972377dbb04d7a27d919adbb602bf13cfd23",
          "balance": "200000000000000000000",
          "nonce": "0"
        }
      ],
      "contracts": [
        {
          "contractName": "OpArithFinal",
          "paramsDeploy": {}
        }
      ]
    },
    "expectedOldRoot": "0x05b3efa92254e3e5e71f153269302d72e20dc72dd28025dfa47f80335140f02a",
    "txs": [
      {
        "from": "0x4d5Cf5032B2a844602278b01199ED191A86c93ff",
        "to": "contract",
        "nonce": "0",
        "value": "0",
        "contractName": "OpArithFinal",
        "function": "opSdiv",
        "params": [],
        "gasLimit": 100000,
        "gasPrice": "1",
        "chainId": 1001
      }
    ],
    "expectedNewRoot": "0x023b98b890d05c952b05cccf8b84b8c6b2d4cf69182a55a63915fac2793ce967",
    "expectedNewLeafs": {
      "0x617b3a3528F9cDd6630fd3301B9c8911F7Bf063D": {
        "balance": "100000000000000026271",
        "nonce": "0",
        "storage": null,
        "hashBytecode": "0x0000000000000000000000000000000000000000000000000000000000000000",
        "bytecodeLength": 0
      },
      "0x4d5Cf5032B2a844602278b01199ED191A86c93ff": {
        "balance": "199999999999999973729",
        "nonce": "1",
        "storage": null,
        "hashBytecode": "0x0000000000000000000000000000000000000000000000000000000000000000",
        "bytecodeLength": 0
      },
      "0x1275fbb540c8efc58b812ba83b0d0b8b9917ae98": {
        "balance": "0",
        "nonce": "1",
        "storage": {
          "0x0000000000000000000000000000000000000000000000000000000000000000": "0x05"
        },
        "hashBytecode": "0x270b206cd7f7637a125ddc55aef59e54ef3ea0898dbc9b9094e5665fcd937bed",
        "bytecodeLength": 769
      }
    },
    "timestamp": 1944498031,
    "newLocalExitRoot": "0x0000000000000000000000000000000000000000000000000000000000000000",
    "batchHashData": "0x25dcccfcb7f3df60d2f3be3ff1c69bd072000ec58937f95b6e52f1136d6586d8",
    "inputHash": "0xf2f786dc9435bab2304c66b8da70474e099f2dd6016ade3e02222ce41b48defe",
    "globalExitRoot": "0x090bcaf734c4f06c93954a827b45a6e8c67b8e0fd1e0a35a1c5982d6961828f9",
    "oldLocalExitRoot": "0x0000000000000000000000000000000000000000000000000000000000000000",
    "batchL2Data": "0xe68001830186a0941275fbb540c8efc58b812ba83b0d0b8b9917ae988084bfb371c28203e980803d1ef95fea2d5755c0acaf1519bd125bc8815e89009e05931186bfa351e60f26627435a2963ab61486216fe9f2c9ef6196ddcb0aa9446ec3fe966f5a202c93641c"
  }
]