[
  {
    "id": 0,
    "description": "STOP opcode",
    "arity": 4,
    "chainIdSequencer": 1001,
    "defaultChainId": 1000,
    "sequencerAddress": "0x617b3a3528F9cDd6630fd3301B9c8911F7Bf063D",
    "sequencerPvtKey": "0x28b2b0318721be8c8339199172cd7cc8f5e273800a35616ec893083a4b32c02e",
    "genesis": {
      "accounts": [
        {
          "address": "0x617b3a3528F9cDd6630fd3301B9c8911F7Bf063D",
          "pvtKey": "0x28b2b0318721be8c8339199172cd7cc8f5e273800a35616ec893083a4b32c02e",
          "balance": "100000000000000000000",
          "nonce": "0"
        },
        {
          "address": "0x4d5Cf5032B2a844602278b01199ED191A86c93ff",
          "pvtKey": "0x4d27a600dce8c29b7bd080e29a26972377dbb04d7a27d919adbb602bf13cfd23",
          "balance": "200000000000000000000",
          "nonce": "0"
        }
      ],
      "contracts": [
        {
          "contractName": "OpArithFinal",
          "paramsDeploy": {}
        }
      ]
    },
    "expectedOldRoot": "0x05b3efa92254e3e5e71f153269302d72e20dc72dd28025dfa47f80335140f02a",
    "txs": [
      {
        "from": "0x4d5Cf5032B2a844602278b01199ED191A86c93ff",
        "to": "contract",
        "nonce": "0",
        "value": "0",
        "contractName": "OpArithFinal",
        "function": "opStop",
        "params": [],
        "gasLimit": 100000,
        "gasPrice": "1000000000",
        "chainId": 1000
      }
    ],
    "expectedNewRoot": "0x9436de1b6d9c1acfbda34be14207a980e7067b47806b802beb6cff4947f02cc8",
    "expectedNewLeafs": {
      "0x617b3a3528F9cDd6630fd3301B9c8911F7Bf063D": {
        "balance": "100000021199000000000",
        "nonce": "0",
        "storage": null,
        "hashBytecode": "0x0000000000000000000000000000000000000000000000000000000000000000",
        "bytecodeLength": 0
      },
      "0x4d5Cf5032B2a844602278b01199ED191A86c93ff": {
        "balance": "199999978801000000000",
        "nonce": "1",
        "storage": null,
        "hashBytecode": "0x0000000000000000000000000000000000000000000000000000000000000000",
        "bytecodeLength": 0
      },
      "0x1275fbb540c8efc58b812ba83b0d0b8b9917ae98": {
        "balance": "0",
        "nonce": "1",
        "storage": {
          "0x0000000000000000000000000000000000000000000000000000000000000000": "0x01"
        },
        "hashBytecode": "0x270b206cd7f7637a125ddc55aef59e54ef3ea0898dbc9b9094e5665fcd937bed",
        "bytecodeLength": 769
      }
    },
    "timestamp": 1944498031,
    "newLocalExitRoot": "0x0000000000000000000000000000000000000000000000000000000000000000",
    "batchHashData": "0x8da86b73415a0acfa74150daeeb5c360754dc290b550bc095eba2ef512f42c1d",
    "inputHash": "0x68fe06fe6a2eeb0fe61854888b4d3c3fce0fda4ee2a59b6b3c90b1349380b17b",
    "globalExitRoot": "0x090bcaf734c4f06c93954a827b45a6e8c67b8e0fd1e0a35a1c5982d6961828f9",
    "oldLocalExitRoot": "0x0000000000000000000000000000000000000000000000000000000000000000",
    "batchL2Data": "0xea80843b9aca00830186a0941275fbb540c8efc58b812ba83b0d0b8b9917ae98808464fbb77c8203e88080fb5252bea10b359c0c5998b4d8185bb02e3503112e930f578dfb94f8e929cf4b2501bfdc00a066681e3b5ee9427ca97dfb8de68d570d8c36d5e3f8e9d6acfe4b1b",
    "chainID": 1000
  },
  {
    "id": 1,
    "description": "ADD opcode",
    "arity": 4,
    "chainIdSequencer": 1001,
    "defaultChainId": 1000,
    "sequencerAddress": "0x617b3a3528F9cDd6630fd3301B9c8911F7Bf063D",
    "sequencerPvtKey": "0x28b2b0318721be8c8339199172cd7cc8f5e273800a35616ec893083a4b32c02e",
    "genesis": {
      "accounts": [
        {
          "address": "0x617b3a3528F9cDd6630fd3301B9c8911F7Bf063D",
          "pvtKey": "0x28b2b0318721be8c8339199172cd7cc8f5e273800a35616ec893083a4b32c02e",
          "balance": "100000000000000000000",
          "nonce": "0"
        },
        {
          "address": "0x4d5Cf5032B2a844602278b01199ED191A86c93ff",
          "pvtKey": "0x4d27a600dce8c29b7bd080e29a26972377dbb04d7a27d919adbb602bf13cfd23",
          "balance": "200000000000000000000",
          "nonce": "0"
        }
      ],
      "contracts": [
        {
          "contractName": "OpArithFinal",
          "paramsDeploy": {}
        }
      ]
    },
    "expectedOldRoot": "0x05b3efa92254e3e5e71f153269302d72e20dc72dd28025dfa47f80335140f02a",
    "txs": [
      {
        "from": "0x4d5Cf5032B2a844602278b01199ED191A86c93ff",
        "to": "contract",
        "nonce": "0",
        "value": "0",
        "contractName": "OpArithFinal",
        "function": "opAdd",
        "params": [],
        "gasLimit": 100000,
        "gasPrice": "1000000000",
        "chainId": 1000
      }
    ],
    "expectedNewRoot": "0xf4158a3e2f98670bc617c14b3852c0835113545272b8445dc2e6abe2d9a19336",
    "expectedNewLeafs": {
      "0x617b3a3528F9cDd6630fd3301B9c8911F7Bf063D": {
        "balance": "100000026248000000000",
        "nonce": "0",
        "storage": null,
        "hashBytecode": "0x0000000000000000000000000000000000000000000000000000000000000000",
        "bytecodeLength": 0
      },
      "0x4d5Cf5032B2a844602278b01199ED191A86c93ff": {
        "balance": "199999973752000000000",
        "nonce": "1",
        "storage": null,
        "hashBytecode": "0x0000000000000000000000000000000000000000000000000000000000000000",
        "bytecodeLength": 0
      },
      "0x1275fbb540c8efc58b812ba83b0d0b8b9917ae98": {
        "balance": "0",
        "nonce": "1",
        "storage": {
          "0x0000000000000000000000000000000000000000000000000000000000000000": "0x03"
        },
        "hashBytecode": "0x270b206cd7f7637a125ddc55aef59e54ef3ea0898dbc9b9094e5665fcd937bed",
        "bytecodeLength": 769
      }
    },
    "timestamp": 1944498031,
    "newLocalExitRoot": "0x0000000000000000000000000000000000000000000000000000000000000000",
    "batchHashData": "0x87b438468a2f17f24bfcb1c1e21d601f0d6660d025b88e77bcd686a4c50095eb",
    "inputHash": "0x1850a4df4cf2fa2649f3e69680850065aced895532793317ece9677b53dad775",
    "globalExitRoot": "0x090bcaf734c4f06c93954a827b45a6e8c67b8e0fd1e0a35a1c5982d6961828f9",
    "oldLocalExitRoot": "0x0000000000000000000000000000000000000000000000000000000000000000",
    "batchL2Data": "0xea80843b9aca00830186a0941275fbb540c8efc58b812ba83b0d0b8b9917ae988084159278198203e88080650e2c3a687013f505ed02fcd42e5c4524bd18dcc343f63d5d5bef2fd991f0607dc5ef6ff1334f41ec62c1514c069410ae6b1ce2ea46570948ad4590c09a6e5a1b",
    "chainID": 1000
  },
  {
    "id": 2,
    "description": "MUL opcode",
    "arity": 4,
    "chainIdSequencer": 1001,
    "defaultChainId": 1000,
    "sequencerAddress": "0x617b3a3528F9cDd6630fd3301B9c8911F7Bf063D",
    "sequencerPvtKey": "0x28b2b0318721be8c8339199172cd7cc8f5e273800a35616ec893083a4b32c02e",
    "genesis": {
      "accounts": [
        {
          "address": "0x617b3a3528F9cDd6630fd3301B9c8911F7Bf063D",
          "pvtKey": "0x28b2b0318721be8c8339199172cd7cc8f5e273800a35616ec893083a4b32c02e",
          "balance": "100000000000000000000",
          "nonce": "0"
        },
        {
          "address": "0x4d5Cf5032B2a844602278b01199ED191A86c93ff",
          "pvtKey": "0x4d27a600dce8c29b7bd080e29a26972377dbb04d7a27d919adbb602bf13cfd23",
          "balance": "200000000000000000000",
          "nonce": "0"
        }
      ],
      "contracts": [
        {
          "contractName": "OpArithFinal",
          "paramsDeploy": {}
        }
      ]
    },
    "expectedOldRoot": "0x05b3efa92254e3e5e71f153269302d72e20dc72dd28025dfa47f80335140f02a",
    "txs": [
      {
        "from": "0x4d5Cf5032B2a844602278b01199ED191A86c93ff",
        "to": "contract",
        "nonce": "0",
        "value": "0",
        "contractName": "OpArithFinal",
        "function": "opMul",
        "params": [],
        "gasLimit": 100000,
        "gasPrice": "1000000000",
        "chainId": 1000
      }
    ],
    "expectedNewRoot": "0x586f8cb90f4d53328308eb85e3c4da58e8cd7191ae7a1ca48e29d3500f858b73",
    "expectedNewLeafs": {
      "0x617b3a3528F9cDd6630fd3301B9c8911F7Bf063D": {
        "balance": "100000026294000000000",
        "nonce": "0",
        "storage": null,
        "hashBytecode": "0x0000000000000000000000000000000000000000000000000000000000000000",
        "bytecodeLength": 0
      },
      "0x4d5Cf5032B2a844602278b01199ED191A86c93ff": {
        "balance": "199999973706000000000",
        "nonce": "1",
        "storage": null,
        "hashBytecode": "0x0000000000000000000000000000000000000000000000000000000000000000",
        "bytecodeLength": 0
      },
      "0x1275fbb540c8efc58b812ba83b0d0b8b9917ae98": {
        "balance": "0",
        "nonce": "1",
        "storage": {
          "0x0000000000000000000000000000000000000000000000000000000000000000": "0x0c"
        },
        "hashBytecode": "0x270b206cd7f7637a125ddc55aef59e54ef3ea0898dbc9b9094e5665fcd937bed",
        "bytecodeLength": 769
      }
    },
    "timestamp": 1944498031,
    "newLocalExitRoot": "0x0000000000000000000000000000000000000000000000000000000000000000",
    "batchHashData": "0xe6de7c7c7ff38de720cea8c1139e406a22f8bc056ce1b0bb905c653589613948",
    "inputHash": "0x4d3e796f7c1fcea650d479a0c724f92234593667579d4f78678d7f9220f8245a",
    "globalExitRoot": "0x090bcaf734c4f06c93954a827b45a6e8c67b8e0fd1e0a35a1c5982d6961828f9",
    "oldLocalExitRoot": "0x0000000000000000000000000000000000000000000000000000000000000000",
    "batchL2Data": "0xea80843b9aca00830186a0941275fbb540c8efc58b812ba83b0d0b8b9917ae9880843931a6b38203e88080f70b2903b48f4cfd81954daca98d7017ddc6319d38d6cb1536c7ea667b59e3f37e7d14ecec6d0ae478467aa7a5801ef0d9ec9d8e2fb243f632d1729aba338f0c1c",
    "chainID": 1000
  },
  {
    "id": 3,
    "description": "SUB opcode",
    "arity": 4,
    "chainIdSequencer": 1001,
    "defaultChainId": 1000,
    "sequencerAddress": "0x617b3a3528F9cDd6630fd3301B9c8911F7Bf063D",
    "sequencerPvtKey": "0x28b2b0318721be8c8339199172cd7cc8f5e273800a35616ec893083a4b32c02e",
    "genesis": {
      "accounts": [
        {
          "address": "0x617b3a3528F9cDd6630fd3301B9c8911F7Bf063D",
          "pvtKey": "0x28b2b0318721be8c8339199172cd7cc8f5e273800a35616ec893083a4b32c02e",
          "balance": "100000000000000000000",
          "nonce": "0"
        },
        {
          "address": "0x4d5Cf5032B2a844602278b01199ED191A86c93ff",
          "pvtKey": "0x4d27a600dce8c29b7bd080e29a26972377dbb04d7a27d919adbb602bf13cfd23",
          "balance": "200000000000000000000",
          "nonce": "0"
        }
      ],
      "contracts": [
        {
          "contractName": "OpArithFinal",
          "paramsDeploy": {}
        }
      ]
    },
    "expectedOldRoot": "0x05b3efa92254e3e5e71f153269302d72e20dc72dd28025dfa47f80335140f02a",
    "txs": [
      {
        "from": "0x4d5Cf5032B2a844602278b01199ED191A86c93ff",
        "to": "contract",
        "nonce": "0",
        "value": "0",
        "contractName": "OpArithFinal",
        "function": "opSub",
        "params": [],
        "gasLimit": 100000,
        "gasPrice": "1000000000",
        "chainId": 1000
      }
    ],
    "expectedNewRoot": "0xcbd92b4781b1b00b4ac9dda6f1c7451fc92e794acc425bc982680040fac8b5d6",
    "expectedNewLeafs": {
      "0x617b3a3528F9cDd6630fd3301B9c8911F7Bf063D": {
        "balance": "100000023491000000000",
        "nonce": "0",
        "storage": null,
        "hashBytecode": "0x0000000000000000000000000000000000000000000000000000000000000000",
        "bytecodeLength": 0
      },
      "0x4d5Cf5032B2a844602278b01199ED191A86c93ff": {
        "balance": "199999976509000000000",
        "nonce": "1",
        "storage": null,
        "hashBytecode": "0x0000000000000000000000000000000000000000000000000000000000000000",
        "bytecodeLength": 0
      },
      "0x1275fbb540c8efc58b812ba83b0d0b8b9917ae98": {
        "balance": "0",
        "nonce": "1",
        "storage": {
          "0x0000000000000000000000000000000000000000000000000000000000000000": "0x01"
        },
        "hashBytecode": "0x270b206cd7f7637a125ddc55aef59e54ef3ea0898dbc9b9094e5665fcd937bed",
        "bytecodeLength": 769
      }
    },
    "timestamp": 1944498031,
    "newLocalExitRoot": "0x0000000000000000000000000000000000000000000000000000000000000000",
    "batchHashData": "0x5f023cde7a65844403757e775fb91e26c9cbd0c4e1c9bbf16488430aafb482f9",
    "inputHash": "0xb5045fe5b5c8827fca588c71bfd2056086f91ea08f04471408df309c8678024d",
    "globalExitRoot": "0x090bcaf734c4f06c93954a827b45a6e8c67b8e0fd1e0a35a1c5982d6961828f9",
    "oldLocalExitRoot": "0x0000000000000000000000000000000000000000000000000000000000000000",
    "batchL2Data": "0xea80843b9aca00830186a0941275fbb540c8efc58b812ba83b0d0b8b9917ae988084c68f6d1a8203e88080923902137ee6b3312de6c52a22272ad235aea3f2973156b35d495bcef88e06623002c177a6038e9bbcb3a8f0e05582e6e4fc96924642f5dab2a9d5799fb079e41b",
    "chainID": 1000
  },
  {
    "id": 4,
    "description": "DIV opcode",
    "arity": 4,
    "chainIdSequencer": 1001,
    "defaultChainId": 1000,
    "sequencerAddress": "0x617b3a3528F9cDd6630fd3301B9c8911F7Bf063D",
    "sequencerPvtKey": "0x28b2b0318721be8c8339199172cd7cc8f5e273800a35616ec893083a4b32c02e",
    "genesis": {
      "accounts": [
        {
          "address": "0x617b3a3528F9cDd6630fd3301B9c8911F7Bf063D",
          "pvtKey": "0x28b2b0318721be8c8339199172cd7cc8f5e273800a35616ec893083a4b32c02e",
          "balance": "100000000000000000000",
          "nonce": "0"
        },
        {
          "address": "0x4d5Cf5032B2a844602278b01199ED191A86c93ff",
          "pvtKey": "0x4d27a600dce8c29b7bd080e29a26972377dbb04d7a27d919adbb602bf13cfd23",
          "balance": "200000000000000000000",
          "nonce": "0"
        }
      ],
      "contracts": [
        {
          "contractName": "OpArithFinal",
          "paramsDeploy": {}
        }
      ]
    },
    "expectedOldRoot": "0x05b3efa92254e3e5e71f153269302d72e20dc72dd28025dfa47f80335140f02a",
    "txs": [
      {
        "from": "0x4d5Cf5032B2a844602278b01199ED191A86c93ff",
        "to": "contract",
        "nonce": "0",
        "value": "0",
        "contractName": "OpArithFinal",
        "function": "opDiv",
        "params": [],
        "gasLimit": 100000,
        "gasPrice": "1000000000",
        "chainId": 1000
      }
    ],
    "expectedNewRoot": "0xc7d3134855046521791e56fa00afab2069a13e3ad7665d89f8820d55e0064570",
    "expectedNewLeafs": {
      "0x617b3a3528F9cDd6630fd3301B9c8911F7Bf063D": {
        "balance": "100000026228000000000",
        "nonce": "0",
        "storage": null,
        "hashBytecode": "0x0000000000000000000000000000000000000000000000000000000000000000",
        "bytecodeLength": 0
      },
      "0x4d5Cf5032B2a844602278b01199ED191A86c93ff": {
        "balance": "199999973772000000000",
        "nonce": "1",
        "storage": null,
        "hashBytecode": "0x0000000000000000000000000000000000000000000000000000000000000000",
        "bytecodeLength": 0
      },
      "0x1275fbb540c8efc58b812ba83b0d0b8b9917ae98": {
        "balance": "0",
        "nonce": "1",
        "storage": {
          "0x0000000000000000000000000000000000000000000000000000000000000000": "0x05"
        },
        "hashBytecode": "0x270b206cd7f7637a125ddc55aef59e54ef3ea0898dbc9b9094e5665fcd937bed",
        "bytecodeLength": 769
      }
    },
    "timestamp": 1944498031,
    "newLocalExitRoot": "0x0000000000000000000000000000000000000000000000000000000000000000",
    "batchHashData": "0x03ea1aecd53301cb663f5044d5a3835355a7764cca121b16819e66ba1d197ae7",
    "inputHash": "0xf805fa912d9b4b5bcf393acf782f8376885e0054a684cfc205097e451da67b97",
    "globalExitRoot": "0x090bcaf734c4f06c93954a827b45a6e8c67b8e0fd1e0a35a1c5982d6961828f9",
    "oldLocalExitRoot": "0x0000000000000000000000000000000000000000000000000000000000000000",
    "batchL2Data": "0xea80843b9aca00830186a0941275fbb540c8efc58b812ba83b0d0b8b9917ae9880840e4d2d028203e88080ae55b946c66671289ade789d139969f08cbfc5de9ffffb11fa33b9b881b23c304871f5a379d45e9465c41afcd73beb8298e490a79090de3410701014d924bffc1c",
    "chainID": 1000
  },
  {
    "id": 5,
    "description": "ADD custom opcode",
    "arity": 4,
    "chainIdSequencer": 1001,
    "defaultChainId": 1000,
    "sequencerAddress": "0x617b3a3528F9cDd6630fd3301B9c8911F7Bf063D",
    "sequencerPvtKey": "0x28b2b0318721be8c8339199172cd7cc8f5e273800a35616ec893083a4b32c02e",
    "genesis": {
      "accounts": [
        {
          "address": "0x617b3a3528F9cDd6630fd3301B9c8911F7Bf063D",
          "pvtKey": "0x28b2b0318721be8c8339199172cd7cc8f5e273800a35616ec893083a4b32c02e",
          "balance": "100000000000000000000",
          "nonce": "0"
        },
        {
          "address": "0x4d5Cf5032B2a844602278b01199ED191A86c93ff",
          "pvtKey": "0x4d27a600dce8c29b7bd080e29a26972377dbb04d7a27d919adbb602bf13cfd23",
          "balance": "200000000000000000000",
          "nonce": "0"
        }
      ],
      "contracts": [
        {
          "contractName": "OpArithFinal",
          "paramsDeploy": {}
        }
      ]
    },
    "expectedOldRoot": "0x05b3efa92254e3e5e71f153269302d72e20dc72dd28025dfa47f80335140f02a",
    "txs": [
      {
        "from": "0x4d5Cf5032B2a844602278b01199ED191A86c93ff",
        "to": "contract",
        "nonce": "0",
        "value": "0",
        "contractName": "OpArithFinal",
        "function": "opCustomAdd",
        "params": [
          "3618502788666131106986593281521497120414687020801267626233049500247285301248",
          "7237005577332262213973186563042994240829374041602535252466099000494570602496"
        ],
        "gasLimit": 100000,
        "gasPrice": "1",
        "chainId": 1000
      }
    ],
    "expectedNewRoot": "0xb4f6fd9c62f0de5ce361998fc7d6656a925260c59be42a7b6fab986a7808aedb",
    "expectedNewLeafs": {
      "0x617b3a3528F9cDd6630fd3301B9c8911F7Bf063D": {
        "balance": "100000000000000027153",
        "nonce": "0",
        "storage": null,
        "hashBytecode": "0x0000000000000000000000000000000000000000000000000000000000000000",
        "bytecodeLength": 0
      },
      "0x4d5Cf5032B2a844602278b01199ED191A86c93ff": {
        "balance": "199999999999999972847",
        "nonce": "1",
        "storage": null,
        "hashBytecode": "0x0000000000000000000000000000000000000000000000000000000000000000",
        "bytecodeLength": 0
      },
      "0x1275fbb540c8efc58b812ba83b0d0b8b9917ae98": {
        "balance": "0",
        "nonce": "1",
        "storage": {
          "0x0000000000000000000000000000000000000000000000000000000000000000": "0x1800000000000000000000000000000000000000000000000000000000000000"
        },
        "hashBytecode": "0x270b206cd7f7637a125ddc55aef59e54ef3ea0898dbc9b9094e5665fcd937bed",
        "bytecodeLength": 769
      }
    },
    "timestamp": 1944498031,
    "newLocalExitRoot": "0x0000000000000000000000000000000000000000000000000000000000000000",
    "batchHashData": "0xb948a601f4c4331c8beffc13ef56ccfd438e0656bc3efefdf1490935b3ba62fe",
    "inputHash": "0x93b131c30a4279536e3cda313af1c6f2e0d14110c7605b7246da9761addfd904",
    "globalExitRoot": "0x090bcaf734c4f06c93954a827b45a6e8c67b8e0fd1e0a35a1c5982d6961828f9",
    "oldLocalExitRoot": "0x0000000000000000000000000000000000000000000000000000000000000000",
    "batchL2Data": "0xf8678001830186a0941275fbb540c8efc58b812ba83b0d0b8b9917ae9880b8446664f730080000000000000000000000000000000000000000000000000000000000000010000000000000000000000000000000000000000000000000000000000000008203e8808091130affda9c212324829f09559b7234286080b41858660c73deda6ea8ec6e04483103267d6b76cb6b44b60c13ca135e4cecf1e57355904a590560f675f22f791b",
    "chainID": 1000
  },
  {
    "id": 6,
    "description": "DIV custom opcode",
    "arity": 4,
    "chainIdSequencer": 1001,
    "defaultChainId": 1000,
    "sequencerAddress": "0x617b3a3528F9cDd6630fd3301B9c8911F7Bf063D",
    "sequencerPvtKey": "0x28b2b0318721be8c8339199172cd7cc8f5e273800a35616ec893083a4b32c02e",
    "genesis": {
      "accounts": [
        {
          "address": "0x617b3a3528F9cDd6630fd3301B9c8911F7Bf063D",
          "pvtKey": "0x28b2b0318721be8c8339199172cd7cc8f5e273800a35616ec893083a4b32c02e",
          "balance": "100000000000000000000",
          "nonce": "0"
        },
        {
          "address": "0x4d5Cf5032B2a844602278b01199ED191A86c93ff",
          "pvtKey": "0x4d27a600dce8c29b7bd080e29a26972377dbb04d7a27d919adbb602bf13cfd23",
          "balance": "200000000000000000000",
          "nonce": "0"
        }
      ],
      "contracts": [
        {
          "contractName": "OpArithFinal",
          "paramsDeploy": {}
        }
      ]
    },
    "expectedOldRoot": "0x05b3efa92254e3e5e71f153269302d72e20dc72dd28025dfa47f80335140f02a",
    "txs": [
      {
        "from": "0x4d5Cf5032B2a844602278b01199ED191A86c93ff",
        "to": "contract",
        "nonce": "0",
        "value": "0",
        "contractName": "OpArithFinal",
        "function": "opCustomDiv",
        "params": [
          "3618502788666131106986593281521497120414687020801267626233049500247285301248",
          "7237005577332262213973186563042994240829374041602535252466099000494570602496"
        ],
        "gasLimit": 100000,
        "gasPrice": "1",
        "chainId": 1000
      }
    ],
    "expectedNewRoot": "0x159d009c27861dde9734a2563fec1f4b36a2ad69bfc391886a0b04a4b3a8e26b",
    "expectedNewLeafs": {
      "0x617b3a3528F9cDd6630fd3301B9c8911F7Bf063D": {
        "balance": "100000000000000013582",
        "nonce": "0",
        "storage": null,
        "hashBytecode": "0x0000000000000000000000000000000000000000000000000000000000000000",
        "bytecodeLength": 0
      },
      "0x4d5Cf5032B2a844602278b01199ED191A86c93ff": {
        "balance": "199999999999999986418",
        "nonce": "1",
        "storage": null,
        "hashBytecode": "0x0000000000000000000000000000000000000000000000000000000000000000",
        "bytecodeLength": 0
      },
      "0x1275fbb540c8efc58b812ba83b0d0b8b9917ae98": {
        "balance": "0",
        "nonce": "1",
        "storage": {
          "0x0000000000000000000000000000000000000000000000000000000000000000": "0x00"
        },
        "hashBytecode": "0x270b206cd7f7637a125ddc55aef59e54ef3ea0898dbc9b9094e5665fcd937bed",
        "bytecodeLength": 769
      }
    },
    "timestamp": 1944498031,
    "newLocalExitRoot": "0x0000000000000000000000000000000000000000000000000000000000000000",
    "batchHashData": "0x53ed1040adb773a15e7cbe1a846f5277366731825cfeebea6cfa2802df0275fa",
    "inputHash": "0xfb8c2d47538ca71acab688b2fb6df75ddc832d5489308b656e69b5fe0972d7ad",
    "globalExitRoot": "0x090bcaf734c4f06c93954a827b45a6e8c67b8e0fd1e0a35a1c5982d6961828f9",
    "oldLocalExitRoot": "0x0000000000000000000000000000000000000000000000000000000000000000",
    "batchL2Data": "0xf8678001830186a0941275fbb540c8efc58b812ba83b0d0b8b9917ae9880b844242e46d2080000000000000000000000000000000000000000000000000000000000000010000000000000000000000000000000000000000000000000000000000000008203e880800ed841149014ba31c3ba0cd5337c53bd84ea51e14fbf894c4bd7402609e6ab655a39ddc39d39fbe6dfe36c6a6eea62fcf2b6e8204f24fd8b24b2bf02ab11d2f81b",
    "chainID": 1000
  },
  {
    "id": 7,
    "description": "SDIV",
    "arity": 4,
    "chainIdSequencer": 1001,
    "defaultChainId": 1000,
    "sequencerAddress": "0x617b3a3528F9cDd6630fd3301B9c8911F7Bf063D",
    "sequencerPvtKey": "0x28b2b0318721be8c8339199172cd7cc8f5e273800a35616ec893083a4b32c02e",
    "genesis": {
      "accounts": [
        {
          "address": "0x617b3a3528F9cDd6630fd3301B9c8911F7Bf063D",
          "pvtKey": "0x28b2b0318721be8c8339199172cd7cc8f5e273800a35616ec893083a4b32c02e",
          "balance": "100000000000000000000",
          "nonce": "0"
        },
        {
          "address": "0x4d5Cf5032B2a844602278b01199ED191A86c93ff",
          "pvtKey": "0x4d27a600dce8c29b7bd080e29a26972377dbb04d7a27d919adbb602bf13cfd23",
          "balance": "200000000000000000000",
          "nonce": "0"
        }
      ],
      "contracts": [
        {
          "contractName": "OpArithFinal",
          "paramsDeploy": {}
        }
      ]
    },
    "expectedOldRoot": "0x05b3efa92254e3e5e71f153269302d72e20dc72dd28025dfa47f80335140f02a",
    "txs": [
      {
        "from": "0x4d5Cf5032B2a844602278b01199ED191A86c93ff",
        "to": "contract",
        "nonce": "0",
        "value": "0",
        "contractName": "OpArithFinal",
        "function": "opSdiv",
        "params": [],
        "gasLimit": 100000,
        "gasPrice": "1",
        "chainId": 1000
      }
    ],
    "expectedNewRoot": "0xb0bc6d5af8425dc00ab77ee8dac3bc2ee65de522209f769abf0a1817d2255b43",
    "expectedNewLeafs": {
      "0x617b3a3528F9cDd6630fd3301B9c8911F7Bf063D": {
        "balance": "100000000000000026271",
        "nonce": "0",
        "storage": null,
        "hashBytecode": "0x0000000000000000000000000000000000000000000000000000000000000000",
        "bytecodeLength": 0
      },
      "0x4d5Cf5032B2a844602278b01199ED191A86c93ff": {
        "balance": "199999999999999973729",
        "nonce": "1",
        "storage": null,
        "hashBytecode": "0x0000000000000000000000000000000000000000000000000000000000000000",
        "bytecodeLength": 0
      },
      "0x1275fbb540c8efc58b812ba83b0d0b8b9917ae98": {
        "balance": "0",
        "nonce": "1",
        "storage": {
          "0x0000000000000000000000000000000000000000000000000000000000000000": "0x05"
        },
        "hashBytecode": "0x270b206cd7f7637a125ddc55aef59e54ef3ea0898dbc9b9094e5665fcd937bed",
        "bytecodeLength": 769
      }
    },
    "timestamp": 1944498031,
    "newLocalExitRoot": "0x0000000000000000000000000000000000000000000000000000000000000000",
    "batchHashData": "0xb2a56c02807602d55588b90cb47a3fb663452f8927d70b962ace8bd1850e76fe",
    "inputHash": "0x70228487eef2377e7cacf63d1bd822e60b14a0b641e61753afe2f21ce1ebcfd4",
    "globalExitRoot": "0x090bcaf734c4f06c93954a827b45a6e8c67b8e0fd1e0a35a1c5982d6961828f9",
    "oldLocalExitRoot": "0x0000000000000000000000000000000000000000000000000000000000000000",
    "batchL2Data": "0xe68001830186a0941275fbb540c8efc58b812ba83b0d0b8b9917ae988084bfb371c28203e88080d538fc079bd4f58c915c15531902cf1f0f349da7689e67e3123c42df4230eafc24a7204da48e9a62d7ee483cf2c6747af877551efbbf6b72cfa5a862b91091bd1b",
    "chainID": 1000
  }
]