[
  {
    "id": 0,
    "description": "precompiled SHA256_0",
    "arity": 4,
    "chainIdSequencer": 1001,
    "defaultChainId": 1000,
    "sequencerAddress": "0x617b3a3528F9cDd6630fd3301B9c8911F7Bf063D",
    "sequencerPvtKey": "0x28b2b0318721be8c8339199172cd7cc8f5e273800a35616ec893083a4b32c02e",
    "genesis": {
      "accounts": [
        {
          "address": "0x617b3a3528F9cDd6630fd3301B9c8911F7Bf063D",
          "pvtKey": "0x28b2b0318721be8c8339199172cd7cc8f5e273800a35616ec893083a4b32c02e",
          "balance": "100000000000000000000",
          "nonce": "0"
        },
        {
          "address": "0x4d5Cf5032B2a844602278b01199ED191A86c93ff",
          "pvtKey": "0x4d27a600dce8c29b7bd080e29a26972377dbb04d7a27d919adbb602bf13cfd23",
          "balance": "200000000000000000000",
          "nonce": "0"
        }
      ],
      "contracts": [
        {
          "contractName": "Precompiled",
          "paramsDeploy": []
        }
      ]
    },
    "expectedOldRoot": "0xa5f1ac87e61c6593c5b0a4402771a54327cf34b527457cc94152430a9a484d34",
    "txs": [
      {
        "from": "0x4d5Cf5032B2a844602278b01199ED191A86c93ff",
        "to": "contract",
        "nonce": "0",
        "value": "0",
        "contractName": "Precompiled",
        "function": "preSha256_0",
        "params": [],
        "gasLimit": 100000,
        "gasPrice": "1000000000",
        "chainId": 1001
      }
    ],
    "expectedNewRoot": "0x0063d3c9ff83281d799604bc0e6c3b6f46a7e4a4e907320a3a01734d6868e5f1",
    "expectedNewLeafs": {
      "0x617b3a3528F9cDd6630fd3301B9c8911F7Bf063D": {
        "balance": "100000044549000000000",
        "nonce": "0",
        "storage": null,
        "hashBytecode": "0x0000000000000000000000000000000000000000000000000000000000000000"
      },
      "0x4d5Cf5032B2a844602278b01199ED191A86c93ff": {
        "balance": "199999955451000000000",
        "nonce": "1",
        "storage": null,
        "hashBytecode": "0x0000000000000000000000000000000000000000000000000000000000000000"
      },
      "0x1275fbb540c8efc58b812ba83b0d0b8b9917ae98": {
        "balance": "0",
        "nonce": "1",
        "storage": {
          "0x0000000000000000000000000000000000000000000000000000000000000000": "0x3a103a4e5729ad68c02a678ae39accfbc0ae208096437401b7ceab63cca0622f"
        },
        "hashBytecode": "0x3c09ad089f983d7fae251000f3cf4752be75c2dcc71e8a0394f23bdc827e40b5"
      }
    },
    "timestamp": 1944498031,
    "newLocalExitRoot": "0x0000000000000000000000000000000000000000000000000000000000000000",
    "batchHashData": "0x508b67328b30592bce619bf342e78d02f04aa496e151723c0a234add4e36888f",
    "inputHash": "0x92956f504f1892837cd751b238c389915f1196400e8ab37aa5d72299f593be64",
    "globalExitRoot": "0x090bcaf734c4f06c93954a827b45a6e8c67b8e0fd1e0a35a1c5982d6961828f9",
    "oldLocalExitRoot": "0x0000000000000000000000000000000000000000000000000000000000000000",
    "batchL2Data": "0xea80843b9aca00830186a0941275fbb540c8efc58b812ba83b0d0b8b9917ae98808418af72748203e980809bf4c3ed7324e8637d1fb8e2ff88cedc1445c7f2950e21d7bcc120ea2fb4c5dd396f76d2b8ab90b31568b00d95008aad9ba744f39c6b4e8c7329470660d43cdc1b"
  },
  {
    "id": 1,
    "description": "precompiled SHA256_1",
    "arity": 4,
    "chainIdSequencer": 1001,
    "defaultChainId": 1000,
    "sequencerAddress": "0x617b3a3528F9cDd6630fd3301B9c8911F7Bf063D",
    "sequencerPvtKey": "0x28b2b0318721be8c8339199172cd7cc8f5e273800a35616ec893083a4b32c02e",
    "genesis": {
      "accounts": [
        {
          "address": "0x617b3a3528F9cDd6630fd3301B9c8911F7Bf063D",
          "pvtKey": "0x28b2b0318721be8c8339199172cd7cc8f5e273800a35616ec893083a4b32c02e",
          "balance": "100000000000000000000",
          "nonce": "0"
        },
        {
          "address": "0x4d5Cf5032B2a844602278b01199ED191A86c93ff",
          "pvtKey": "0x4d27a600dce8c29b7bd080e29a26972377dbb04d7a27d919adbb602bf13cfd23",
          "balance": "200000000000000000000",
          "nonce": "0"
        }
      ],
      "contracts": [
        {
          "contractName": "Precompiled",
          "paramsDeploy": []
        }
      ]
    },
    "expectedOldRoot": "0xa5f1ac87e61c6593c5b0a4402771a54327cf34b527457cc94152430a9a484d34",
    "txs": [
      {
        "from": "0x4d5Cf5032B2a844602278b01199ED191A86c93ff",
        "to": "contract",
        "nonce": "0",
        "value": "0",
        "contractName": "Precompiled",
        "function": "preSha256_1",
        "params": [],
        "gasLimit": 100000,
        "gasPrice": "1000000000",
        "chainId": 1001
      }
    ],
    "expectedNewRoot": "0xba6fa7bf677070de909e4397463579a44b05eac51d13b3d53ac00be825b77bb6",
    "expectedNewLeafs": {
      "0x617b3a3528F9cDd6630fd3301B9c8911F7Bf063D": {
        "balance": "100000044745000000000",
        "nonce": "0",
        "storage": null,
        "hashBytecode": "0x0000000000000000000000000000000000000000000000000000000000000000"
      },
      "0x4d5Cf5032B2a844602278b01199ED191A86c93ff": {
        "balance": "199999955255000000000",
        "nonce": "1",
        "storage": null,
        "hashBytecode": "0x0000000000000000000000000000000000000000000000000000000000000000"
      },
      "0x1275fbb540c8efc58b812ba83b0d0b8b9917ae98": {
        "balance": "0",
        "nonce": "1",
        "storage": {
          "0x0000000000000000000000000000000000000000000000000000000000000000": "0x1bb1ffc0008e878023bdcb41286da20c73af0eb8d4c32a7a6f5178bb8e072b82"
        },
        "hashBytecode": "0x3c09ad089f983d7fae251000f3cf4752be75c2dcc71e8a0394f23bdc827e40b5"
      }
    },
    "timestamp": 1944498031,
    "newLocalExitRoot": "0x0000000000000000000000000000000000000000000000000000000000000000",
    "batchHashData": "0xb8bd67fdcd9d3cc549fadd839ef38c8a80ffe947e9cffeadb8d2e948aceec41f",
    "inputHash": "0xf3ae8fc8659d117afb6b5490cde251259803998c0a0b305e4355312140bf5a4c",
    "globalExitRoot": "0x090bcaf734c4f06c93954a827b45a6e8c67b8e0fd1e0a35a1c5982d6961828f9",
    "oldLocalExitRoot": "0x0000000000000000000000000000000000000000000000000000000000000000",
    "batchL2Data": "0xea80843b9aca00830186a0941275fbb540c8efc58b812ba83b0d0b8b9917ae9880842b4369d88203e980805c302d43f022652454d35d6ede2398234d88fd431ab962085bbb07016a5b66bb6415a27fdb36b0172b770771b61d660a778e221b52dd6178ef71b6a1e178c9a11b"
  },
  {
    "id": 2,
    "description": "precompiled RIPEMD160_0",
    "arity": 4,
    "chainIdSequencer": 1001,
    "defaultChainId": 1000,
    "sequencerAddress": "0x617b3a3528F9cDd6630fd3301B9c8911F7Bf063D",
    "sequencerPvtKey": "0x28b2b0318721be8c8339199172cd7cc8f5e273800a35616ec893083a4b32c02e",
    "genesis": {
      "accounts": [
        {
          "address": "0x617b3a3528F9cDd6630fd3301B9c8911F7Bf063D",
          "pvtKey": "0x28b2b0318721be8c8339199172cd7cc8f5e273800a35616ec893083a4b32c02e",
          "balance": "100000000000000000000",
          "nonce": "0"
        },
        {
          "address": "0x4d5Cf5032B2a844602278b01199ED191A86c93ff",
          "pvtKey": "0x4d27a600dce8c29b7bd080e29a26972377dbb04d7a27d919adbb602bf13cfd23",
          "balance": "200000000000000000000",
          "nonce": "0"
        }
      ],
      "contracts": [
        {
          "contractName": "Precompiled",
          "paramsDeploy": []
        }
      ]
    },
    "expectedOldRoot": "0xa5f1ac87e61c6593c5b0a4402771a54327cf34b527457cc94152430a9a484d34",
    "txs": [
      {
        "from": "0x4d5Cf5032B2a844602278b01199ED191A86c93ff",
        "to": "contract",
        "nonce": "0",
        "value": "0",
        "contractName": "Precompiled",
        "function": "ripemd160_0",
        "params": [],
        "gasLimit": 100000,
        "gasPrice": "1000000000",
        "chainId": 1001
      }
    ],
    "expectedNewRoot": "0x0467d6e7c753480b57b15bc0902c75f634294a1e132d8f6de55a12ed29663e49",
    "expectedNewLeafs": {
      "0x617b3a3528F9cDd6630fd3301B9c8911F7Bf063D": {
        "balance": "100000045291000000000",
        "nonce": "0",
        "storage": null,
        "hashBytecode": "0x0000000000000000000000000000000000000000000000000000000000000000"
      },
      "0x4d5Cf5032B2a844602278b01199ED191A86c93ff": {
        "balance": "199999954709000000000",
        "nonce": "1",
        "storage": null,
        "hashBytecode": "0x0000000000000000000000000000000000000000000000000000000000000000"
      },
      "0x1275fbb540c8efc58b812ba83b0d0b8b9917ae98": {
        "balance": "0",
        "nonce": "1",
        "storage": {
          "0x0000000000000000000000000000000000000000000000000000000000000000": "0xb390837f80c4a4a31d0039aaf49e02e51da5cf48000000000000000000000000"
        },
        "hashBytecode": "0x3c09ad089f983d7fae251000f3cf4752be75c2dcc71e8a0394f23bdc827e40b5"
      }
    },
    "timestamp": 1944498031,
    "newLocalExitRoot": "0x0000000000000000000000000000000000000000000000000000000000000000",
    "batchHashData": "0xd060edc5d03484f9a5779970bc843684522695c6bc616587efdce7b4e33f7030",
    "inputHash": "0xf602e89953270de72cf689a09206771ff57f353ea31bf0afd7b5fab67187db94",
    "globalExitRoot": "0x090bcaf734c4f06c93954a827b45a6e8c67b8e0fd1e0a35a1c5982d6961828f9",
    "oldLocalExitRoot": "0x0000000000000000000000000000000000000000000000000000000000000000",
    "batchL2Data": "0xea80843b9aca00830186a0941275fbb540c8efc58b812ba83b0d0b8b9917ae988084b8f27d1a8203e98080d03300a21c2fc17d0748af9d028245407531e70d6f1ffed78ebbfb81ca47051301873a1c0f7e16d9745a830e04817126cc62e3935106c20d9ea6b6cbc711e6931b"
  },
  {
    "id": 3,
    "description": "precompiled IDENTITY_0",
    "arity": 4,
    "chainIdSequencer": 1001,
    "defaultChainId": 1000,
    "sequencerAddress": "0x617b3a3528F9cDd6630fd3301B9c8911F7Bf063D",
    "sequencerPvtKey": "0x28b2b0318721be8c8339199172cd7cc8f5e273800a35616ec893083a4b32c02e",
    "genesis": {
      "accounts": [
        {
          "address": "0x617b3a3528F9cDd6630fd3301B9c8911F7Bf063D",
          "pvtKey": "0x28b2b0318721be8c8339199172cd7cc8f5e273800a35616ec893083a4b32c02e",
          "balance": "100000000000000000000",
          "nonce": "0"
        },
        {
          "address": "0x4d5Cf5032B2a844602278b01199ED191A86c93ff",
          "pvtKey": "0x4d27a600dce8c29b7bd080e29a26972377dbb04d7a27d919adbb602bf13cfd23",
          "balance": "200000000000000000000",
          "nonce": "0"
        }
      ],
      "contracts": [
        {
          "contractName": "Precompiled",
          "paramsDeploy": []
        }
      ]
    },
    "expectedOldRoot": "0xa5f1ac87e61c6593c5b0a4402771a54327cf34b527457cc94152430a9a484d34",
    "txs": [
      {
        "from": "0x4d5Cf5032B2a844602278b01199ED191A86c93ff",
        "to": "contract",
        "nonce": "0",
        "value": "0",
        "contractName": "Precompiled",
        "function": "identity_0",
        "params": [
          "0x1234567890123456789012345678901234567890123456789012345678901234567890"
        ],
        "gasLimit": 100000,
        "gasPrice": "1000000000",
        "chainId": 1001
      }
    ],
    "expectedNewRoot": "0x44ae6ace0d46a750c2fd48ca155f9c0bc57595e9899aef76a35dff4155608378",
    "expectedNewLeafs": {
      "0x617b3a3528F9cDd6630fd3301B9c8911F7Bf063D": {
        "balance": "100000090276000000000",
        "nonce": "0",
        "storage": null,
        "hashBytecode": "0x0000000000000000000000000000000000000000000000000000000000000000"
      },
      "0x4d5Cf5032B2a844602278b01199ED191A86c93ff": {
        "balance": "199999909724000000000",
        "nonce": "1",
        "storage": null,
        "hashBytecode": "0x0000000000000000000000000000000000000000000000000000000000000000"
      },
      "0x1275fbb540c8efc58b812ba83b0d0b8b9917ae98": {
        "balance": "0",
        "nonce": "1",
        "storage": {
          "0x0000000000000000000000000000000000000000000000000000000000000002": "0x47",
          "0x405787fa12a823e0f2b7631cc41b3ba8828b3321ca811111fa75cd3aa3bb5ace": "0x1234567890123456789012345678901234567890123456789012345678901234",
          "0x405787fa12a823e0f2b7631cc41b3ba8828b3321ca811111fa75cd3aa3bb5acf": "0x5678900000000000000000000000000000000000000000000000000000000000"
        },
        "hashBytecode": "0x3c09ad089f983d7fae251000f3cf4752be75c2dcc71e8a0394f23bdc827e40b5"
      }
    },
    "timestamp": 1944498031,
    "newLocalExitRoot": "0x0000000000000000000000000000000000000000000000000000000000000000",
    "batchHashData": "0x9cecafdc4478601015659787478133f31dbc53a9dfc17cac7998f2cab4f74368",
    "inputHash": "0xfcb1bc7d63f8a7892eb22190cb2727b34d87c422b84f4d688d5523738ccc5a58",
    "globalExitRoot": "0x090bcaf734c4f06c93954a827b45a6e8c67b8e0fd1e0a35a1c5982d6961828f9",
    "oldLocalExitRoot": "0x0000000000000000000000000000000000000000000000000000000000000000",
    "batchL2Data": "0xf8ab80843b9aca00830186a0941275fbb540c8efc58b812ba83b0d0b8b9917ae9880b884324b638500000000000000000000000000000000000000000000000000000000000000200000000000000000000000000000000000000000000000000000000000000023123456789012345678901234567890123456789012345678901234567890123456789000000000000000000000000000000000000000000000000000000000008203e980801f1b3d4a6ed0ccb71e81af161692f685a177c20b19e76e1fa1dd3061677949ca535e72ced225955499dc57eae4d619d009b38775fab346a82dc3852e2f6fd17c1b"
  },
  {
    "id": 4,
    "description": "precompiled modexp_0",
    "arity": 4,
    "chainIdSequencer": 1001,
    "defaultChainId": 1000,
    "sequencerAddress": "0x617b3a3528F9cDd6630fd3301B9c8911F7Bf063D",
    "sequencerPvtKey": "0x28b2b0318721be8c8339199172cd7cc8f5e273800a35616ec893083a4b32c02e",
    "genesis": {
      "accounts": [
        {
          "address": "0x617b3a3528F9cDd6630fd3301B9c8911F7Bf063D",
          "pvtKey": "0x28b2b0318721be8c8339199172cd7cc8f5e273800a35616ec893083a4b32c02e",
          "balance": "100000000000000000000",
          "nonce": "0"
        },
        {
          "address": "0x4d5Cf5032B2a844602278b01199ED191A86c93ff",
          "pvtKey": "0x4d27a600dce8c29b7bd080e29a26972377dbb04d7a27d919adbb602bf13cfd23",
          "balance": "200000000000000000000",
          "nonce": "0"
        }
      ],
      "contracts": [
        {
          "contractName": "Precompiled",
          "paramsDeploy": []
        }
      ]
    },
    "expectedOldRoot": "0xa5f1ac87e61c6593c5b0a4402771a54327cf34b527457cc94152430a9a484d34",
    "txs": [
      {
        "from": "0x4d5Cf5032B2a844602278b01199ED191A86c93ff",
        "to": "contract",
        "nonce": "0",
        "value": "0",
        "contractName": "Precompiled",
        "function": "modexp_0",
        "params": [
          "0x0000000000000000000000000000000000000000000000000000000000000007",
          "0x0000000000000000000000000000000000000000000000000000000000000008",
          "0x0000000000000000000000000000000000000000000000000000000000000009"
        ],
        "gasLimit": 100000,
        "gasPrice": "1000000000",
        "chainId": 1001
      }
    ],
    "expectedNewRoot": "0x6b18b9cea605172d67d40a677e483283dc204d48a8f943756567d74fb1235ccf",
    "expectedNewLeafs": {
      "0x617b3a3528F9cDd6630fd3301B9c8911F7Bf063D": {
        "balance": "100000044851000000000",
        "nonce": "0",
        "storage": null,
        "hashBytecode": "0x0000000000000000000000000000000000000000000000000000000000000000"
      },
      "0x4d5Cf5032B2a844602278b01199ED191A86c93ff": {
        "balance": "199999955149000000000",
        "nonce": "1",
        "storage": null,
        "hashBytecode": "0x0000000000000000000000000000000000000000000000000000000000000000"
      },
      "0x1275fbb540c8efc58b812ba83b0d0b8b9917ae98": {
        "balance": "0",
        "nonce": "1",
        "storage": {
          "0x0000000000000000000000000000000000000000000000000000000000000001": "0x04"
        },
        "hashBytecode": "0x3c09ad089f983d7fae251000f3cf4752be75c2dcc71e8a0394f23bdc827e40b5"
      }
    },
    "timestamp": 1944498031,
    "newLocalExitRoot": "0x0000000000000000000000000000000000000000000000000000000000000000",
    "batchHashData": "0x0870607466a33854de2ef51ba3d2b72ebbe4f46d070ec3abc22e91d1af07d8c3",
    "inputHash": "0x0200ab5e4137cb0076f90b95a1c94d8d616c5ad31c3efa559c4733e59047d2ce",
    "globalExitRoot": "0x090bcaf734c4f06c93954a827b45a6e8c67b8e0fd1e0a35a1c5982d6961828f9",
    "oldLocalExitRoot": "0x0000000000000000000000000000000000000000000000000000000000000000",
    "batchL2Data": "0xf88b80843b9aca00830186a0941275fbb540c8efc58b812ba83b0d0b8b9917ae9880b8649737c9b70000000000000000000000000000000000000000000000000000000000000007000000000000000000000000000000000000000000000000000000000000000800000000000000000000000000000000000000000000000000000000000000098203e9808028f7a5ad1ba19f14aee1dcaa0b323ce9772b3e6e64741f099e7939398a4b713a433f4881304dd5a1e8bee60ab73e632660870a8e4d232d9965f0bd1070be21a91b"
  },
  {
    "id": 5,
    "description": "precompiled ecAdd",
    "arity": 4,
    "chainIdSequencer": 1001,
    "defaultChainId": 1000,
    "sequencerAddress": "0x617b3a3528F9cDd6630fd3301B9c8911F7Bf063D",
    "sequencerPvtKey": "0x28b2b0318721be8c8339199172cd7cc8f5e273800a35616ec893083a4b32c02e",
    "genesis": {
      "accounts": [
        {
          "address": "0x617b3a3528F9cDd6630fd3301B9c8911F7Bf063D",
          "pvtKey": "0x28b2b0318721be8c8339199172cd7cc8f5e273800a35616ec893083a4b32c02e",
          "balance": "100000000000000000000",
          "nonce": "0"
        },
        {
          "address": "0x4d5Cf5032B2a844602278b01199ED191A86c93ff",
          "pvtKey": "0x4d27a600dce8c29b7bd080e29a26972377dbb04d7a27d919adbb602bf13cfd23",
          "balance": "200000000000000000000",
          "nonce": "0"
        }
      ],
      "contracts": [
        {
          "contractName": "Precompiled",
          "paramsDeploy": []
        }
      ]
    },
    "expectedOldRoot": "0xa5f1ac87e61c6593c5b0a4402771a54327cf34b527457cc94152430a9a484d34",
    "txs": [
      {
        "from": "0x4d5Cf5032B2a844602278b01199ED191A86c93ff",
        "to": "contract",
        "nonce": "0",
        "value": "0",
        "contractName": "Precompiled",
        "function": "ecAdd",
        "params": [
          "0x0000000000000000000000000000000000000000000000000000000000000001",
          "0x0000000000000000000000000000000000000000000000000000000000000002",
          "0x0000000000000000000000000000000000000000000000000000000000000001",
          "0x0000000000000000000000000000000000000000000000000000000000000002"
        ],
        "gasLimit": 100000,
        "gasPrice": "1000000000",
        "chainId": 1001
      }
    ],
    "expectedNewRoot": "0xe85e8208f00308d837825f1e2eed2b5a05b817cbb1090d33d91e83b5731d34ea",
    "expectedNewLeafs": {
      "0x617b3a3528F9cDd6630fd3301B9c8911F7Bf063D": {
        "balance": "100000068473000000000",
        "nonce": "0",
        "storage": null,
        "hashBytecode": "0x0000000000000000000000000000000000000000000000000000000000000000"
      },
      "0x4d5Cf5032B2a844602278b01199ED191A86c93ff": {
        "balance": "199999931527000000000",
        "nonce": "1",
        "storage": null,
        "hashBytecode": "0x0000000000000000000000000000000000000000000000000000000000000000"
      },
      "0x1275fbb540c8efc58b812ba83b0d0b8b9917ae98": {
        "balance": "0",
        "nonce": "1",
        "storage": {
          "0x0000000000000000000000000000000000000000000000000000000000000000": "0x030644e72e131a029b85045b68181585d97816a916871ca8d3c208c16d87cfd3",
          "0x0000000000000000000000000000000000000000000000000000000000000001": "0x15ed738c0e0a7c92e7845f96b2ae9c0a68a6a449e3538fc7ff3ebf7a5a18a2c4"
        },
        "hashBytecode": "0x3c09ad089f983d7fae251000f3cf4752be75c2dcc71e8a0394f23bdc827e40b5"
      }
    },
    "timestamp": 1944498031,
    "newLocalExitRoot": "0x0000000000000000000000000000000000000000000000000000000000000000",
    "batchHashData": "0x9381e46576eb75375db168ae06bc771f653fea9514bd73ccb51a822edabee2cc",
    "inputHash": "0x6f455fef5f83749bf5d88edfba252457719676c654d1b76e07c3e50d04b7683c",
    "globalExitRoot": "0x090bcaf734c4f06c93954a827b45a6e8c67b8e0fd1e0a35a1c5982d6961828f9",
    "oldLocalExitRoot": "0x0000000000000000000000000000000000000000000000000000000000000000",
    "batchL2Data": "0xf8ab80843b9aca00830186a0941275fbb540c8efc58b812ba83b0d0b8b9917ae9880b884d27473e500000000000000000000000000000000000000000000000000000000000000010000000000000000000000000000000000000000000000000000000000000002000000000000000000000000000000000000000000000000000000000000000100000000000000000000000000000000000000000000000000000000000000028203e980809bb50d1f7b16a2b5d1f44d08b427f382b6e2b8bf788b62f1cb006ac3b99118be4341ea0b1790571a45a3517c715037ef8086ca777d44a4ffa8066c50fecc5b6b1b"
  },
  {
    "id": 6,
    "description": "precompiled ecMul",
    "arity": 4,
    "chainIdSequencer": 1001,
    "defaultChainId": 1000,
    "sequencerAddress": "0x617b3a3528F9cDd6630fd3301B9c8911F7Bf063D",
    "sequencerPvtKey": "0x28b2b0318721be8c8339199172cd7cc8f5e273800a35616ec893083a4b32c02e",
    "genesis": {
      "accounts": [
        {
          "address": "0x617b3a3528F9cDd6630fd3301B9c8911F7Bf063D",
          "pvtKey": "0x28b2b0318721be8c8339199172cd7cc8f5e273800a35616ec893083a4b32c02e",
          "balance": "100000000000000000000",
          "nonce": "0"
        },
        {
          "address": "0x4d5Cf5032B2a844602278b01199ED191A86c93ff",
          "pvtKey": "0x4d27a600dce8c29b7bd080e29a26972377dbb04d7a27d919adbb602bf13cfd23",
          "balance": "200000000000000000000",
          "nonce": "0"
        }
      ],
      "contracts": [
        {
          "contractName": "Precompiled",
          "paramsDeploy": []
        }
      ]
    },
    "expectedOldRoot": "0xa5f1ac87e61c6593c5b0a4402771a54327cf34b527457cc94152430a9a484d34",
    "txs": [
      {
        "from": "0x4d5Cf5032B2a844602278b01199ED191A86c93ff",
        "to": "contract",
        "nonce": "0",
        "value": "0",
        "contractName": "Precompiled",
        "function": "ecMul",
        "params": [
          "0x0000000000000000000000000000000000000000000000000000000000000001",
          "0x0000000000000000000000000000000000000000000000000000000000000002",
          "0x0000000000000000000000000000000000000000000000000000000000000002"
        ],
        "gasLimit": 100000,
        "gasPrice": "1000000000",
        "chainId": 1001
      }
    ],
    "expectedNewRoot": "0x6f6c8312ec7d415647fdee0b765bbaed925ad1679a13de191bf094ee9212c3ee",
    "expectedNewLeafs": {
      "0x617b3a3528F9cDd6630fd3301B9c8911F7Bf063D": {
        "balance": "100000073968000000000",
        "nonce": "0",
        "storage": null,
        "hashBytecode": "0x0000000000000000000000000000000000000000000000000000000000000000"
      },
      "0x4d5Cf5032B2a844602278b01199ED191A86c93ff": {
        "balance": "199999926032000000000",
        "nonce": "1",
        "storage": null,
        "hashBytecode": "0x0000000000000000000000000000000000000000000000000000000000000000"
      },
      "0x1275fbb540c8efc58b812ba83b0d0b8b9917ae98": {
        "balance": "0",
        "nonce": "1",
        "storage": {
          "0x0000000000000000000000000000000000000000000000000000000000000000": "0x030644e72e131a029b85045b68181585d97816a916871ca8d3c208c16d87cfd3",
          "0x0000000000000000000000000000000000000000000000000000000000000001": "0x15ed738c0e0a7c92e7845f96b2ae9c0a68a6a449e3538fc7ff3ebf7a5a18a2c4"
        },
        "hashBytecode": "0x3c09ad089f983d7fae251000f3cf4752be75c2dcc71e8a0394f23bdc827e40b5"
      }
    },
    "timestamp": 1944498031,
    "newLocalExitRoot": "0x0000000000000000000000000000000000000000000000000000000000000000",
    "batchHashData": "0xaf8ab0428d808273cf09eec434410ddbe422b9d6c64aa4f75c90e42cb4314a14",
    "inputHash": "0xb07368ca88da043206185a139405b0660ab143c36d313287d41fc781f9177b39",
    "globalExitRoot": "0x090bcaf734c4f06c93954a827b45a6e8c67b8e0fd1e0a35a1c5982d6961828f9",
    "oldLocalExitRoot": "0x0000000000000000000000000000000000000000000000000000000000000000",
    "batchL2Data": "0xf88b80843b9aca00830186a0941275fbb540c8efc58b812ba83b0d0b8b9917ae9880b864538f08750000000000000000000000000000000000000000000000000000000000000001000000000000000000000000000000000000000000000000000000000000000200000000000000000000000000000000000000000000000000000000000000028203e98080ee96dd89d431b1db7a2434fde4f23cea86fa38717fa5291dcfdc2020fd2a724062a079e05fd3c7515f04359a99d65d309d10e9e7bae55ece0d7e1499db2e4e911c"
  },
  {
    "id": 7,
    "description": "precompiled ecPairing",
    "arity": 4,
    "chainIdSequencer": 1001,
    "defaultChainId": 1000,
    "sequencerAddress": "0x617b3a3528F9cDd6630fd3301B9c8911F7Bf063D",
    "sequencerPvtKey": "0x28b2b0318721be8c8339199172cd7cc8f5e273800a35616ec893083a4b32c02e",
    "genesis": {
      "accounts": [
        {
          "address": "0x617b3a3528F9cDd6630fd3301B9c8911F7Bf063D",
          "pvtKey": "0x28b2b0318721be8c8339199172cd7cc8f5e273800a35616ec893083a4b32c02e",
          "balance": "100000000000000000000",
          "nonce": "0"
        },
        {
          "address": "0x4d5Cf5032B2a844602278b01199ED191A86c93ff",
          "pvtKey": "0x4d27a600dce8c29b7bd080e29a26972377dbb04d7a27d919adbb602bf13cfd23",
          "balance": "200000000000000000000",
          "nonce": "0"
        }
      ],
      "contracts": [
        {
          "contractName": "Precompiled",
          "paramsDeploy": []
        }
      ]
    },
    "expectedOldRoot": "0xa5f1ac87e61c6593c5b0a4402771a54327cf34b527457cc94152430a9a484d34",
    "txs": [
      {
        "from": "0x4d5Cf5032B2a844602278b01199ED191A86c93ff",
        "to": "contract",
        "nonce": "0",
        "value": "0",
        "contractName": "Precompiled",
        "function": "ecPairing",
        "params": [
          "0x00000000000000000000000000000000000000000000000000000000000000000000000000000000000000000000000000000000000000000000000000000000198e9393920d483a7260bfb731fb5d25f1aa493335a9e71297e485b7aef312c21800deef121f1e76426a00665e5c4479674322d4f75edadd46debd5cd992f6ed090689d0585ff075ec9e99ad690c3395bc4b313370b38ef355acdadcd122975b12c85ea5db8c6deb4aab71808dcb408fe3d1e7690c43d37b4ce6cc0166fa7daa"
        ],
        "gasLimit": 800000,
        "gasPrice": "1000000000",
        "chainId": 1001
      }
    ],
    "expectedNewRoot": "0x1030e8fea177b2edeaa1485ab635464bbe3eb28bca2bbf6ea94d40765d5b5fa5",
    "expectedNewLeafs": {
      "0x617b3a3528F9cDd6630fd3301B9c8911F7Bf063D": {
        "balance": "100000126359000000000",
        "nonce": "0",
        "storage": null,
        "hashBytecode": "0x0000000000000000000000000000000000000000000000000000000000000000"
      },
      "0x4d5Cf5032B2a844602278b01199ED191A86c93ff": {
        "balance": "199999873641000000000",
        "nonce": "1",
        "storage": null,
        "hashBytecode": "0x0000000000000000000000000000000000000000000000000000000000000000"
      },
      "0x1275fbb540c8efc58b812ba83b0d0b8b9917ae98": {
        "balance": "0",
        "nonce": "1",
        "storage": {
          "0x0000000000000000000000000000000000000000000000000000000000000000": "0x01"
        },
        "hashBytecode": "0x3c09ad089f983d7fae251000f3cf4752be75c2dcc71e8a0394f23bdc827e40b5"
      }
    },
    "timestamp": 1944498031,
    "newLocalExitRoot": "0x0000000000000000000000000000000000000000000000000000000000000000",
    "batchHashData": "0x3070108f608d43bdf9fbc8c56ef0941bdbb058bc2462aaf58ac3a1fb89bf4148",
    "inputHash": "0xbf35f628a3338de607a583ecfdea17e23a2e17374fa2ee76a6920a56bb3dab7b",
    "globalExitRoot": "0x090bcaf734c4f06c93954a827b45a6e8c67b8e0fd1e0a35a1c5982d6961828f9",
    "oldLocalExitRoot": "0x0000000000000000000000000000000000000000000000000000000000000000",
    "batchL2Data": "0xf9012c80843b9aca00830c3500941275fbb540c8efc58b812ba83b0d0b8b9917ae9880b9010441e65fde000000000000000000000000000000000000000000000000000000000000002000000000000000000000000000000000000000000000000000000000000000c000000000000000000000000000000000000000000000000000000000000000000000000000000000000000000000000000000000000000000000000000000000198e9393920d483a7260bfb731fb5d25f1aa493335a9e71297e485b7aef312c21800deef121f1e76426a00665e5c4479674322d4f75edadd46debd5cd992f6ed090689d0585ff075ec9e99ad690c3395bc4b313370b38ef355acdadcd122975b12c85ea5db8c6deb4aab71808dcb408fe3d1e7690c43d37b4ce6cc0166fa7daa8203e9808004112ca5df9184d2cf5073be21137fe61f1cdc9e4e11b48dcbc1d69d744fd0f958a978444b841630d1fba28c60444cbc40540889016b180724d75547c438029f1b"
  }
]