[
  {
    "id": 0,
    "description": "Call with return",
    "arity": 4,
    "chainIdSequencer": 1001,
    "defaultChainId": 1000,
    "sequencerAddress": "0x617b3a3528F9cDd6630fd3301B9c8911F7Bf063D",
    "sequencerPvtKey": "0x28b2b0318721be8c8339199172cd7cc8f5e273800a35616ec893083a4b32c02e",
    "genesis": {
      "accounts": [
        {
          "address": "0x617b3a3528F9cDd6630fd3301B9c8911F7Bf063D",
          "pvtKey": "0x28b2b0318721be8c8339199172cd7cc8f5e273800a35616ec893083a4b32c02e",
          "balance": "100000000000000000000",
          "nonce": "0"
        },
        {
          "address": "0x4d5Cf5032B2a844602278b01199ED191A86c93ff",
          "pvtKey": "0x4d27a600dce8c29b7bd080e29a26972377dbb04d7a27d919adbb602bf13cfd23",
          "balance": "200000000000000000000",
          "nonce": "0"
        }
      ],
      "contracts": [
        {
          "contractName": "OpReturn",
          "paramsDeploy": {}
        },
        {
          "contractName": "OpCallAux",
          "paramsDeploy": {}
        }
      ]
    },
    "expectedOldRoot": "0x8eb2cde6460c5def820a9496b4d550aae6637b88c04eceb3639357addd3a3c58",
    "txs": [
      {
        "from": "0x4d5Cf5032B2a844602278b01199ED191A86c93ff",
        "to": "contract",
        "nonce": "0",
        "value": "555555",
        "contractName": "OpReturn",
        "function": "opDelegateCallSelfBalance",
        "params": [
          "0x85e844b762a271022b692cf99ce5c59ba0650ac8"
        ],
        "gasLimit": 100000,
        "gasPrice": "1000000000",
        "chainId": 1001
      }
    ],
    "expectedNewRoot": "0x2316fd2c947a4bd833d4426a7ca6120954da69b12e02b0bb5459340c3707aefc",
    "expectedNewLeafs": {
      "0x617b3a3528F9cDd6630fd3301B9c8911F7Bf063D": {
        "balance": "100000000000000000000",
        "nonce": "0",
        "storage": null,
        "hashBytecode": "0x0000000000000000000000000000000000000000000000000000000000000000",
        "bytecodeLength": 0
      },
      "0x4d5Cf5032B2a844602278b01199ED191A86c93ff": {
        "balance": "200000000000000000000",
        "nonce": "0",
        "storage": null,
        "hashBytecode": "0x0000000000000000000000000000000000000000000000000000000000000000",
        "bytecodeLength": 0
      },
      "0x1275fbb540c8efc58b812ba83b0d0b8b9917ae98": {
        "balance": "0",
        "nonce": "1",
        "storage": {
          "0x0000000000000000000000000000000000000000000000000000000000000000": "0x01",
          "0x0000000000000000000000000000000000000000000000000000000000000001": "0x6173000000000000000000000000000000000000000000000000000000000004"
        },
        "hashBytecode": "0xb8197762da2661e0c0e334c5f296aae800952091fc5244ccc7731de98684b716",
        "bytecodeLength": 2409
      },
      "0x85e844b762a271022b692cf99ce5c59ba0650ac8": {
        "balance": "0",
        "nonce": "1",
        "storage": {
          "0x0000000000000000000000000000000000000000000000000000000000000000": "0x01"
        },
        "hashBytecode": "0x97319fbc8123c2049e8737ed1ae080e8a2a39c378e3c9e2fda384396cb4b4d2e",
        "bytecodeLength": 1555
      },
      "0x13db4b51c5174ee2366e878a367aa1d426970ade": {
        "balance": "0",
        "nonce": "0",
        "storage": null,
        "hashBytecode": "0x0000000000000000000000000000000000000000000000000000000000000000",
        "bytecodeLength": 0
      }
    },
    "timestamp": 1944498031,
    "newLocalExitRoot": "0x0000000000000000000000000000000000000000000000000000000000000000",
    "batchHashData": "0x227cb3689a70aef4558b747b4da6f8e2a8ff343ffd023f9e3e11697f250197f3",
    "inputHash": "0xb9cf745f730611df6fde71d22e736f73958177ada1241f5a4ede1740b659fe55",
    "globalExitRoot": "0x090bcaf734c4f06c93954a827b45a6e8c67b8e0fd1e0a35a1c5982d6961828f9",
    "oldLocalExitRoot": "0x0000000000000000000000000000000000000000000000000000000000000000",
    "batchL2Data": "0xf84d80843b9aca00830186a0941275fbb540c8efc58b812ba83b0d0b8b9917ae9883087a23a48eda2bf800000000000000000000000085e844b762a271022b692cf99ce5c59ba0650ac88203e9808045f7514d2a9cd0e6b5cf9b3196d24b44355b166c7628791e3c6489df1efabca553d73b323db9e983c69a20ed492634414748bde087f22a8bbf33b12a3c0d86f31c"
  },
  {
    "id": 1,
    "description": "Call with simple return",
    "arity": 4,
    "chainIdSequencer": 1001,
    "defaultChainId": 1000,
    "sequencerAddress": "0x617b3a3528F9cDd6630fd3301B9c8911F7Bf063D",
    "sequencerPvtKey": "0x28b2b0318721be8c8339199172cd7cc8f5e273800a35616ec893083a4b32c02e",
    "genesis": {
      "accounts": [
        {
          "address": "0x617b3a3528F9cDd6630fd3301B9c8911F7Bf063D",
          "pvtKey": "0x28b2b0318721be8c8339199172cd7cc8f5e273800a35616ec893083a4b32c02e",
          "balance": "100000000000000000000",
          "nonce": "0"
        },
        {
          "address": "0x4d5Cf5032B2a844602278b01199ED191A86c93ff",
          "pvtKey": "0x4d27a600dce8c29b7bd080e29a26972377dbb04d7a27d919adbb602bf13cfd23",
          "balance": "200000000000000000000",
          "nonce": "0"
        }
      ],
      "contracts": [
        {
          "contractName": "OpReturn",
          "paramsDeploy": {}
        }
      ]
    },
    "expectedOldRoot": "0x5e2e0b4bab8f982f25b7efc3693f87ab14bc18785b4b1bc953c96deed785caee",
    "txs": [
      {
        "from": "0x4d5Cf5032B2a844602278b01199ED191A86c93ff",
        "to": "contract",
        "nonce": "0",
        "value": "0",
        "contractName": "OpReturn",
        "function": "simpleReturn",
        "params": [],
        "gasLimit": 100000,
        "gasPrice": "1000000000",
        "chainId": 1001
      }
    ],
    "expectedNewRoot": "0xb7f8e82b021d0f104bb19e3dce6ca90b51114bbfe9739811622d8e95951176de",
    "expectedNewLeafs": {
      "0x617b3a3528F9cDd6630fd3301B9c8911F7Bf063D": {
        "balance": "100000000000000000000",
        "nonce": "0",
        "storage": null,
        "hashBytecode": "0x0000000000000000000000000000000000000000000000000000000000000000",
        "bytecodeLength": 0
      },
      "0x4d5Cf5032B2a844602278b01199ED191A86c93ff": {
        "balance": "200000000000000000000",
        "nonce": "0",
        "storage": null,
        "hashBytecode": "0x0000000000000000000000000000000000000000000000000000000000000000",
        "bytecodeLength": 0
      },
      "0x1275fbb540c8efc58b812ba83b0d0b8b9917ae98": {
        "balance": "0",
        "nonce": "1",
        "storage": {
          "0x0000000000000000000000000000000000000000000000000000000000000000": "0x01",
          "0x0000000000000000000000000000000000000000000000000000000000000001": "0x6173000000000000000000000000000000000000000000000000000000000004"
        },
        "hashBytecode": "0xb8197762da2661e0c0e334c5f296aae800952091fc5244ccc7731de98684b716",
        "bytecodeLength": 2409
      },
      "0x85e844b762a271022b692cf99ce5c59ba0650ac8": {
        "balance": "0",
        "nonce": "0",
        "storage": null,
        "hashBytecode": "0x0000000000000000000000000000000000000000000000000000000000000000",
        "bytecodeLength": 0
      },
      "0x13db4b51c5174ee2366e878a367aa1d426970ade": {
        "balance": "0",
        "nonce": "0",
        "storage": null,
        "hashBytecode": "0x0000000000000000000000000000000000000000000000000000000000000000",
        "bytecodeLength": 0
      }
    },
    "timestamp": 1944498031,
    "newLocalExitRoot": "0x0000000000000000000000000000000000000000000000000000000000000000",
    "batchHashData": "0x10b815395d311d2a548f6245c1833a16d682c77f54c9d8416d3b59972d9fc5f2",
    "inputHash": "0x4a0f5c5c805f0eece902238df9b7bec3f987fd390108a9ff095d926937f47b6a",
    "globalExitRoot": "0x090bcaf734c4f06c93954a827b45a6e8c67b8e0fd1e0a35a1c5982d6961828f9",
    "oldLocalExitRoot": "0x0000000000000000000000000000000000000000000000000000000000000000",
    "batchL2Data": "0xea80843b9aca00830186a0941275fbb540c8efc58b812ba83b0d0b8b9917ae988084ed1cf0e28203e980800ee73d568fad7e3d953bab8bc6066e359ee6bc280a4f670061e917249de7e9652680b21a471551ac9efa541157779af2d21517c8b08c502722aea2564fc6ccb21b"
  },
  {
    "id": 2,
    "description": "Call with simplest return",
    "arity": 4,
    "chainIdSequencer": 1001,
    "defaultChainId": 1000,
    "sequencerAddress": "0x617b3a3528F9cDd6630fd3301B9c8911F7Bf063D",
    "sequencerPvtKey": "0x28b2b0318721be8c8339199172cd7cc8f5e273800a35616ec893083a4b32c02e",
    "genesis": {
      "accounts": [
        {
          "address": "0x617b3a3528F9cDd6630fd3301B9c8911F7Bf063D",
          "pvtKey": "0x28b2b0318721be8c8339199172cd7cc8f5e273800a35616ec893083a4b32c02e",
          "balance": "100000000000000000000",
          "nonce": "0"
        },
        {
          "address": "0x4d5Cf5032B2a844602278b01199ED191A86c93ff",
          "pvtKey": "0x4d27a600dce8c29b7bd080e29a26972377dbb04d7a27d919adbb602bf13cfd23",
          "balance": "200000000000000000000",
          "nonce": "0"
        }
      ],
      "contracts": [
        {
          "contractName": "OpReturn",
          "paramsDeploy": {}
        }
      ]
    },
    "expectedOldRoot": "0x5e2e0b4bab8f982f25b7efc3693f87ab14bc18785b4b1bc953c96deed785caee",
    "txs": [
      {
        "from": "0x4d5Cf5032B2a844602278b01199ED191A86c93ff",
        "to": "contract",
        "nonce": "0",
        "value": "0",
        "contractName": "OpReturn",
        "function": "retVal",
        "params": [],
        "gasLimit": 100000,
        "gasPrice": "1000000000",
        "chainId": 1001
      }
    ],
    "expectedNewRoot": "0xb7f8e82b021d0f104bb19e3dce6ca90b51114bbfe9739811622d8e95951176de",
    "expectedNewLeafs": {
      "0x617b3a3528F9cDd6630fd3301B9c8911F7Bf063D": {
        "balance": "100000000000000000000",
        "nonce": "0",
        "storage": null,
        "hashBytecode": "0x0000000000000000000000000000000000000000000000000000000000000000",
        "bytecodeLength": 0
      },
      "0x4d5Cf5032B2a844602278b01199ED191A86c93ff": {
        "balance": "200000000000000000000",
        "nonce": "0",
        "storage": null,
        "hashBytecode": "0x0000000000000000000000000000000000000000000000000000000000000000",
        "bytecodeLength": 0
      },
      "0x1275fbb540c8efc58b812ba83b0d0b8b9917ae98": {
        "balance": "0",
        "nonce": "1",
        "storage": {
          "0x0000000000000000000000000000000000000000000000000000000000000000": "0x01",
          "0x0000000000000000000000000000000000000000000000000000000000000001": "0x6173000000000000000000000000000000000000000000000000000000000004"
        },
        "hashBytecode": "0xb8197762da2661e0c0e334c5f296aae800952091fc5244ccc7731de98684b716",
        "bytecodeLength": 2409
      },
      "0x85e844b762a271022b692cf99ce5c59ba0650ac8": {
        "balance": "0",
        "nonce": "0",
        "storage": null,
        "hashBytecode": "0x0000000000000000000000000000000000000000000000000000000000000000",
        "bytecodeLength": 0
      },
      "0x13db4b51c5174ee2366e878a367aa1d426970ade": {
        "balance": "0",
        "nonce": "0",
        "storage": null,
        "hashBytecode": "0x0000000000000000000000000000000000000000000000000000000000000000",
        "bytecodeLength": 0
      }
    },
    "timestamp": 1944498031,
    "newLocalExitRoot": "0x0000000000000000000000000000000000000000000000000000000000000000",
    "batchHashData": "0xba9f185f4603ed7ced977beb6a559d57c96c3fc75a3ca19caf16ae05163ec7a4",
    "inputHash": "0x9d08476aad2deb4f118c2354ae3a011c45611484ce78d590c6670a1c308b62bf",
    "globalExitRoot": "0x090bcaf734c4f06c93954a827b45a6e8c67b8e0fd1e0a35a1c5982d6961828f9",
    "oldLocalExitRoot": "0x0000000000000000000000000000000000000000000000000000000000000000",
    "batchL2Data": "0xea80843b9aca00830186a0941275fbb540c8efc58b812ba83b0d0b8b9917ae988084f52ab5be8203e98080d9e29a49dd201fc7a1c8e0b816874c6985c6d807b4f42d5a3fbf8cf5b747e5f7637c45e7be216be4b244ec62065635957e39973f5422b76a19e6ff490d62e59f1b"
  },
  {
    "id": 3,
    "description": "Call with reverted return",
    "arity": 4,
    "chainIdSequencer": 1001,
    "defaultChainId": 1000,
    "sequencerAddress": "0x617b3a3528F9cDd6630fd3301B9c8911F7Bf063D",
    "sequencerPvtKey": "0x28b2b0318721be8c8339199172cd7cc8f5e273800a35616ec893083a4b32c02e",
    "genesis": {
      "accounts": [
        {
          "address": "0x617b3a3528F9cDd6630fd3301B9c8911F7Bf063D",
          "pvtKey": "0x28b2b0318721be8c8339199172cd7cc8f5e273800a35616ec893083a4b32c02e",
          "balance": "100000000000000000000",
          "nonce": "0"
        },
        {
          "address": "0x4d5Cf5032B2a844602278b01199ED191A86c93ff",
          "pvtKey": "0x4d27a600dce8c29b7bd080e29a26972377dbb04d7a27d919adbb602bf13cfd23",
          "balance": "200000000000000000000",
          "nonce": "0"
        }
      ],
      "contracts": [
        {
          "contractName": "OpReturn",
          "paramsDeploy": {}
        }
      ]
    },
    "expectedOldRoot": "0x5e2e0b4bab8f982f25b7efc3693f87ab14bc18785b4b1bc953c96deed785caee",
    "txs": [
      {
        "from": "0x4d5Cf5032B2a844602278b01199ED191A86c93ff",
        "to": "contract",
        "nonce": "0",
        "value": "0",
        "contractName": "OpReturn",
        "function": "invalidReturn",
        "params": [],
        "gasLimit": 1000000,
        "gasPrice": "1000000000",
        "chainId": 1001
      }
    ],
    "expectedNewRoot": "0xb7f8e82b021d0f104bb19e3dce6ca90b51114bbfe9739811622d8e95951176de",
    "expectedNewLeafs": {
      "0x617b3a3528F9cDd6630fd3301B9c8911F7Bf063D": {
        "balance": "100000000000000000000",
        "nonce": "0",
        "storage": null,
        "hashBytecode": "0x0000000000000000000000000000000000000000000000000000000000000000",
        "bytecodeLength": 0
      },
      "0x4d5Cf5032B2a844602278b01199ED191A86c93ff": {
        "balance": "200000000000000000000",
        "nonce": "0",
        "storage": null,
        "hashBytecode": "0x0000000000000000000000000000000000000000000000000000000000000000",
        "bytecodeLength": 0
      },
      "0x1275fbb540c8efc58b812ba83b0d0b8b9917ae98": {
        "balance": "0",
        "nonce": "1",
        "storage": {
          "0x0000000000000000000000000000000000000000000000000000000000000000": "0x01",
          "0x0000000000000000000000000000000000000000000000000000000000000001": "0x6173000000000000000000000000000000000000000000000000000000000004"
        },
        "hashBytecode": "0xb8197762da2661e0c0e334c5f296aae800952091fc5244ccc7731de98684b716",
        "bytecodeLength": 2409
      },
      "0x85e844b762a271022b692cf99ce5c59ba0650ac8": {
        "balance": "0",
        "nonce": "0",
        "storage": null,
        "hashBytecode": "0x0000000000000000000000000000000000000000000000000000000000000000",
        "bytecodeLength": 0
      },
      "0x13db4b51c5174ee2366e878a367aa1d426970ade": {
        "balance": "0",
        "nonce": "0",
        "storage": null,
        "hashBytecode": "0x0000000000000000000000000000000000000000000000000000000000000000",
        "bytecodeLength": 0
      }
    },
    "timestamp": 1944498031,
    "newLocalExitRoot": "0x0000000000000000000000000000000000000000000000000000000000000000",
    "batchHashData": "0x4671fd6fb38242b0d2611027817df90f77f50bb828aa3026cce6274aeaf17085",
    "inputHash": "0x76caa15e267b33b178658246833391a57dba05abeaddd9c641a2406acb607976",
    "globalExitRoot": "0x090bcaf734c4f06c93954a827b45a6e8c67b8e0fd1e0a35a1c5982d6961828f9",
    "oldLocalExitRoot": "0x0000000000000000000000000000000000000000000000000000000000000000",
    "batchL2Data": "0xea80843b9aca00830f4240941275fbb540c8efc58b812ba83b0d0b8b9917ae9880840cbcf3cc8203e980801c9e17d66070bbbc3362c0d8510d8a2ee51b9b08856a1c4be8fa776f6f56b15151fae5ab1d750c7c67f6cbe1057faa5fc4f9794b6a72ae1a365a840f63ba8d601c"
  }
]