[
  {
    "id": 0,
    "description": "create opcode",
    "arity": 4,
    "chainIdSequencer": 1001,
    "defaultChainId": 1000,
    "sequencerAddress": "0x617b3a3528F9cDd6630fd3301B9c8911F7Bf063D",
    "sequencerPvtKey": "0x28b2b0318721be8c8339199172cd7cc8f5e273800a35616ec893083a4b32c02e",
    "genesis": {
      "accounts": [
        {
          "address": "0x617b3a3528F9cDd6630fd3301B9c8911F7Bf063D",
          "pvtKey": "0x28b2b0318721be8c8339199172cd7cc8f5e273800a35616ec893083a4b32c02e",
          "balance": "100000000000000000000",
          "nonce": "0"
        },
        {
          "address": "0x4d5Cf5032B2a844602278b01199ED191A86c93ff",
          "pvtKey": "0x4d27a600dce8c29b7bd080e29a26972377dbb04d7a27d919adbb602bf13cfd23",
          "balance": "200000000000000000000",
          "nonce": "0"
        }
      ],
      "contracts": [
        {
          "contractName": "OpCreates",
          "paramsDeploy": {}
        }
      ]
    },
    "expectedOldRoot": "0xe6028b995d203f3f3b77f16f203012d9c286e3e744f6cb066a5baa418a61cbf8",
    "txs": [
      {
        "from": "0x4d5Cf5032B2a844602278b01199ED191A86c93ff",
        "to": "contract",
        "nonce": "0",
        "value": "0",
        "contractName": "OpCreates",
        "function": "opCreate",
        "params": [
          "0x608060405234801561001057600080fd5b5060bb8061001f6000396000f3fe6080604052348015600f57600080fd5b506004361060285760003560e01c8063f6d97e8c14602d575b600080fd5b60336047565b604051603e91906062565b60405180910390f35b600080600390508091505090565b605c81607b565b82525050565b6000602082019050607560008301846055565b92915050565b600081905091905056fea2646970667358221220a33fdecaf587db45fa0e1fe4bfca25de09e35bb9a45fa6dab1bf1964244a929164736f6c63430008070033",
          218
        ],
        "gasLimit": 800000,
        "gasPrice": "1000000000",
        "chainId": 1001
      }
    ],
    "expectedNewRoot": "0x513dbd0ea5ec61e4a9542a8f77e676a8fc8f80bd315387b3d89f2ecbb9afe643",
    "expectedNewLeafs": {
      "0x617b3a3528F9cDd6630fd3301B9c8911F7Bf063D": {
        "balance": "100000117854000000000",
        "nonce": "0",
        "storage": null,
        "hashBytecode": "0x0000000000000000000000000000000000000000000000000000000000000000",
        "bytecodeLength": 0
      },
      "0x4d5Cf5032B2a844602278b01199ED191A86c93ff": {
        "balance": "199999882146000000000",
        "nonce": "1",
        "storage": null,
        "hashBytecode": "0x0000000000000000000000000000000000000000000000000000000000000000",
        "bytecodeLength": 0
      },
      "0x1275fbb540c8efc58b812ba83b0d0b8b9917ae98": {
        "balance": "0",
        "nonce": "2",
        "storage": {
          "0x0000000000000000000000000000000000000000000000000000000000000000": "0x0ccfcb97611c13f90693e568e432ecd5f724be52"
        },
        "hashBytecode": "0x64497bfbeee254b7643cdd7437c59c62bc8f88d0628fe5fcb4bbbaf02d84f510",
        "bytecodeLength": 1067
      },
      "0x0ccfcb97611c13f90693e568e432ecd5f724be52": {
        "balance": "0",
        "nonce": "1",
        "storage": {},
        "hashBytecode": "0xc0fd06b9925aa0ad80b36b53e4db33fd659858f947ae35572f980fb41f5af5e3",
        "bytecodeLength": 187
      }
    },
    "timestamp": 1944498031,
    "newLocalExitRoot": "0x0000000000000000000000000000000000000000000000000000000000000000",
    "batchHashData": "0x95fed08e693aeb70bee1b016166a39d7596d54868bc4a54d331732f07dacd966",
    "inputHash": "0x0f563993c91e3d4b52ea139e582d606ff853e98f995a92246d914e553573f2a6",
    "globalExitRoot": "0x090bcaf734c4f06c93954a827b45a6e8c67b8e0fd1e0a35a1c5982d6961828f9",
    "oldLocalExitRoot": "0x0000000000000000000000000000000000000000000000000000000000000000",
    "batchL2Data": "0xf9016c80843b9aca00830c3500941275fbb540c8efc58b812ba83b0d0b8b9917ae9880b901445b8e9959000000000000000000000000000000000000000000000000000000000000004000000000000000000000000000000000000000000000000000000000000000da00000000000000000000000000000000000000000000000000000000000000da608060405234801561001057600080fd5b5060bb8061001f6000396000f3fe6080604052348015600f57600080fd5b506004361060285760003560e01c8063f6d97e8c14602d575b600080fd5b60336047565b604051603e91906062565b60405180910390f35b600080600390508091505090565b605c81607b565b82525050565b6000602082019050607560008301846055565b92915050565b600081905091905056fea2646970667358221220a33fdecaf587db45fa0e1fe4bfca25de09e35bb9a45fa6dab1bf1964244a929164736f6c634300080700330000000000008203e98080ba4300df2e55f8f668c8f38162a562cc7ef6b0199e0208db55b27b362a97c1747f8ae94692a61c0859928fdc26ae91652c1832a2048a6663e8f63f73497096af1b"
  },
  {
    "id": 1,
    "description": "create2 opcode",
    "arity": 4,
    "chainIdSequencer": 1001,
    "defaultChainId": 1000,
    "sequencerAddress": "0x617b3a3528F9cDd6630fd3301B9c8911F7Bf063D",
    "sequencerPvtKey": "0x28b2b0318721be8c8339199172cd7cc8f5e273800a35616ec893083a4b32c02e",
    "genesis": {
      "accounts": [
        {
          "address": "0x617b3a3528F9cDd6630fd3301B9c8911F7Bf063D",
          "pvtKey": "0x28b2b0318721be8c8339199172cd7cc8f5e273800a35616ec893083a4b32c02e",
          "balance": "100000000000000000000",
          "nonce": "0"
        },
        {
          "address": "0x4d5Cf5032B2a844602278b01199ED191A86c93ff",
          "pvtKey": "0x4d27a600dce8c29b7bd080e29a26972377dbb04d7a27d919adbb602bf13cfd23",
          "balance": "200000000000000000000",
          "nonce": "0"
        }
      ],
      "contracts": [
        {
          "contractName": "OpCreates",
          "paramsDeploy": {}
        }
      ]
    },
    "expectedOldRoot": "0xe6028b995d203f3f3b77f16f203012d9c286e3e744f6cb066a5baa418a61cbf8",
    "txs": [
      {
        "from": "0x4d5Cf5032B2a844602278b01199ED191A86c93ff",
        "to": "contract",
        "nonce": "0",
        "value": "0",
        "contractName": "OpCreates",
        "function": "opCreate2",
        "params": [
          "0x608060405234801561001057600080fd5b5060bb8061001f6000396000f3fe6080604052348015600f57600080fd5b506004361060285760003560e01c8063f6d97e8c14602d575b600080fd5b60336047565b604051603e91906062565b60405180910390f35b600080600390508091505090565b605c81607b565b82525050565b6000602082019050607560008301846055565b92915050565b600081905091905056fea2646970667358221220a33fdecaf587db45fa0e1fe4bfca25de09e35bb9a45fa6dab1bf1964244a929164736f6c63430008070033",
          218
        ],
        "gasLimit": 800000,
        "gasPrice": "1000000000",
        "chainId": 1001
      }
    ],
    "expectedNewRoot": "0xcaa193641f362c5b82d26fafa74f06bb6041713cec06c0d13a387482a49ce258",
    "expectedNewLeafs": {
      "0x617b3a3528F9cDd6630fd3301B9c8911F7Bf063D": {
        "balance": "100000117943000000000",
        "nonce": "0",
        "storage": null,
        "hashBytecode": "0x0000000000000000000000000000000000000000000000000000000000000000",
        "bytecodeLength": 0
      },
      "0x4d5Cf5032B2a844602278b01199ED191A86c93ff": {
        "balance": "199999882057000000000",
        "nonce": "1",
        "storage": null,
        "hashBytecode": "0x0000000000000000000000000000000000000000000000000000000000000000",
        "bytecodeLength": 0
      },
      "0x1275fbb540c8efc58b812ba83b0d0b8b9917ae98": {
        "balance": "0",
        "nonce": "2",
        "storage": {
          "0x0000000000000000000000000000000000000000000000000000000000000000": "0x327a17bf6fbd99e80b3950f996786cec5d81e1f7"
        },
        "hashBytecode": "0x64497bfbeee254b7643cdd7437c59c62bc8f88d0628fe5fcb4bbbaf02d84f510",
        "bytecodeLength": 1067
      },
      "0x327a17bf6fbd99e80b3950f996786cec5d81e1f7": {
        "balance": "0",
        "nonce": "1",
        "storage": {},
        "hashBytecode": "0xc0fd06b9925aa0ad80b36b53e4db33fd659858f947ae35572f980fb41f5af5e3",
        "bytecodeLength": 187
      }
    },
    "timestamp": 1944498031,
    "newLocalExitRoot": "0x0000000000000000000000000000000000000000000000000000000000000000",
    "batchHashData": "0x828abd0d813e5558562a16659567dbffa1704ba14378ccc1cff60780098d736b",
    "inputHash": "0x11abf8e202f6b090b92de9d935cd6d6afc77a322a3934c9cbc84ebfa87e4c855",
    "globalExitRoot": "0x090bcaf734c4f06c93954a827b45a6e8c67b8e0fd1e0a35a1c5982d6961828f9",
    "oldLocalExitRoot": "0x0000000000000000000000000000000000000000000000000000000000000000",
    "batchL2Data": "0xf9016c80843b9aca00830c3500941275fbb540c8efc58b812ba83b0d0b8b9917ae9880b90144e3306a25000000000000000000000000000000000000000000000000000000000000004000000000000000000000000000000000000000000000000000000000000000da00000000000000000000000000000000000000000000000000000000000000da608060405234801561001057600080fd5b5060bb8061001f6000396000f3fe6080604052348015600f57600080fd5b506004361060285760003560e01c8063f6d97e8c14602d575b600080fd5b60336047565b604051603e91906062565b60405180910390f35b600080600390508091505090565b605c81607b565b82525050565b6000602082019050607560008301846055565b92915050565b600081905091905056fea2646970667358221220a33fdecaf587db45fa0e1fe4bfca25de09e35bb9a45fa6dab1bf1964244a929164736f6c634300080700330000000000008203e98080c35c6fca6d38443b4b6cd156ec3e3288e306a315d8771e498480729cca2cfe7625871ad68cb717261842062f1c0f4a3388ba7a754cbaf72c22c8248228ae83a41c"
  },
  {
    "id": 2,
    "description": "create opcode with value",
    "arity": 4,
    "chainIdSequencer": 1001,
    "defaultChainId": 1000,
    "sequencerAddress": "0x617b3a3528F9cDd6630fd3301B9c8911F7Bf063D",
    "sequencerPvtKey": "0x28b2b0318721be8c8339199172cd7cc8f5e273800a35616ec893083a4b32c02e",
    "genesis": {
      "accounts": [
        {
          "address": "0x617b3a3528F9cDd6630fd3301B9c8911F7Bf063D",
          "pvtKey": "0x28b2b0318721be8c8339199172cd7cc8f5e273800a35616ec893083a4b32c02e",
          "balance": "100000000000000000000",
          "nonce": "0"
        },
        {
          "address": "0x4d5Cf5032B2a844602278b01199ED191A86c93ff",
          "pvtKey": "0x4d27a600dce8c29b7bd080e29a26972377dbb04d7a27d919adbb602bf13cfd23",
          "balance": "200000000000000000000",
          "nonce": "0"
        }
      ],
      "contracts": [
        {
          "contractName": "OpCreates",
          "paramsDeploy": {}
        }
      ]
    },
    "expectedOldRoot": "0xe6028b995d203f3f3b77f16f203012d9c286e3e744f6cb066a5baa418a61cbf8",
    "txs": [
      {
        "from": "0x4d5Cf5032B2a844602278b01199ED191A86c93ff",
        "to": "contract",
        "nonce": "0",
        "value": "1000",
        "contractName": "OpCreates",
        "function": "sendValue",
        "params": [],
        "gasLimit": 800000,
        "gasPrice": "1000000000",
        "chainId": 1001
      },
      {
        "from": "0x4d5Cf5032B2a844602278b01199ED191A86c93ff",
        "to": "contract",
        "nonce": "1",
        "value": "0",
        "contractName": "OpCreates",
        "function": "opCreateValue",
        "params": [
          "0x6080604052600160005560026001556102838061001d6000396000f3fe608060405234801561001057600080fd5b50600436106100625760003560e01c80630f0db778146100675780635ef3d3dd146100835780638ca3165d1461009f578063b698c129146100bd578063e4081625146100d9578063e795befc146100f7575b600080fd5b610081600480360381019061007c91906101bd565b610127565b005b61009d60048036038101906100989190610190565b610143565b005b6100a761014d565b6040516100b4919061020c565b60405180910390f35b6100d760048036038101906100d29190610190565b610153565b005b6100e161015d565b6040516100ee919061020c565b60405180910390f35b610111600480360381019061010c9190610190565b610163565b60405161011e919061020c565b60405180910390f35b8060026000848152602001908152602001600020819055505050565b8060008190555050565b60005481565b8060018190555050565b60015481565b60026020528060005260406000206000915090505481565b60008135905061018a81610236565b92915050565b6000602082840312156101a6576101a5610231565b5b60006101b48482850161017b565b91505092915050565b600080604083850312156101d4576101d3610231565b5b60006101e28582860161017b565b92505060206101f38582860161017b565b9150509250929050565b61020681610227565b82525050565b600060208201905061022160008301846101fd565b92915050565b6000819050919050565b600080fd5b61023f81610227565b811461024a57600080fd5b5056fea2646970667358221220d39e086335057db80f702ebac8a7123339d84f5501a81e2fa31d5c84c858fbb564736f6c63430008070033",
          672
        ],
        "gasLimit": 800000,
        "gasPrice": "1000000000",
        "chainId": 1001
      }
    ],
    "expectedNewRoot": "0xf23f92067aa81f0fb4f65ca8030fc61bea3036c2e70022b5bfbfe55567eee2ce",
    "expectedNewLeafs": {
      "0x617b3a3528F9cDd6630fd3301B9c8911F7Bf063D": {
        "balance": "100000303525000000000",
        "nonce": "0",
        "storage": null,
        "hashBytecode": "0x0000000000000000000000000000000000000000000000000000000000000000",
        "bytecodeLength": 0
      },
      "0x4d5Cf5032B2a844602278b01199ED191A86c93ff": {
        "balance": "199999696474999999000",
        "nonce": "2",
        "storage": null,
        "hashBytecode": "0x0000000000000000000000000000000000000000000000000000000000000000",
        "bytecodeLength": 0
      },
      "0x1275fbb540c8efc58b812ba83b0d0b8b9917ae98": {
        "balance": "500",
        "nonce": "2",
        "storage": {
          "0x0000000000000000000000000000000000000000000000000000000000000000": "0x0ccfcb97611c13f90693e568e432ecd5f724be52",
          "0x0000000000000000000000000000000000000000000000000000000000000001": "0x03e8"
        },
        "hashBytecode": "0x64497bfbeee254b7643cdd7437c59c62bc8f88d0628fe5fcb4bbbaf02d84f510",
        "bytecodeLength": 1067
      },
      "0x0ccfcb97611c13f90693e568e432ecd5f724be52": {
        "balance": "500",
        "nonce": "1",
        "storage": {
          "0x0000000000000000000000000000000000000000000000000000000000000000": "0x01",
          "0x0000000000000000000000000000000000000000000000000000000000000001": "0x02"
        },
        "hashBytecode": "0xb441dc6e3f86a7e79eb2580a11d42c8e4fc8021f0a3d2f9f2383c26204800fb8",
        "bytecodeLength": 643
      }
    },
    "timestamp": 1944498031,
    "newLocalExitRoot": "0x0000000000000000000000000000000000000000000000000000000000000000",
    "batchHashData": "0xe4fc7bf1048c84d83f3c8fd2ef5f181571bcd4ee952e5c07fcd36002fe7079c5",
    "inputHash": "0x77ad9d42e3e99263824914d29d5e7cd66773421b6adee5737023fd7132d523d9",
    "globalExitRoot": "0x090bcaf734c4f06c93954a827b45a6e8c67b8e0fd1e0a35a1c5982d6961828f9",
    "oldLocalExitRoot": "0x0000000000000000000000000000000000000000000000000000000000000000",
    "batchL2Data": "0xec80843b9aca00830c3500941275fbb540c8efc58b812ba83b0d0b8b9917ae988203e88427c845dc8203e980801770eee0be9a4d163cb67d1b98f6ec35f345e264d5811abcac64e04a0563803c07a08d701cda72a23b05e844b55272cbbd74f6b3c3397d18d4b7768fe70319331cf9032c01843b9aca00830c3500941275fbb540c8efc58b812ba83b0d0b8b9917ae9880b903043c77eba3000000000000000000000000000000000000000000000000000000000000004000000000000000000000000000000000000000000000000000000000000002a000000000000000000000000000000000000000000000000000000000000002a06080604052600160005560026001556102838061001d6000396000f3fe608060405234801561001057600080fd5b50600436106100625760003560e01c80630f0db778146100675780635ef3d3dd146100835780638ca3165d1461009f578063b698c129146100bd578063e4081625146100d9578063e795befc146100f7575b600080fd5b610081600480360381019061007c91906101bd565b610127565b005b61009d60048036038101906100989190610190565b610143565b005b6100a761014d565b6040516100b4919061020c565b60405180910390f35b6100d760048036038101906100d29190610190565b610153565b005b6100e161015d565b6040516100ee919061020c565b60405180910390f35b610111600480360381019061010c9190610190565b610163565b60405161011e919061020c565b60405180910390f35b8060026000848152602001908152602001600020819055505050565b8060008190555050565b60005481565b8060018190555050565b60015481565b60026020528060005260406000206000915090505481565b60008135905061018a81610236565b92915050565b6000602082840312156101a6576101a5610231565b5b60006101b48482850161017b565b91505092915050565b600080604083850312156101d4576101d3610231565b5b60006101e28582860161017b565b92505060206101f38582860161017b565b9150509250929050565b61020681610227565b82525050565b600060208201905061022160008301846101fd565b92915050565b6000819050919050565b600080fd5b61023f81610227565b811461024a57600080fd5b5056fea2646970667358221220d39e086335057db80f702ebac8a7123339d84f5501a81e2fa31d5c84c858fbb564736f6c634300080700338203e98080af6ff40846f437e395d779a72b86338f9680367f740fcbcc542ba6b6475344ab66f5f18490da8bb3a69de9823d78acdcb047d472a9dc69223b70e765602fdc591c"
  },
  {
    "id": 3,
    "description": "create2 opcode with value",
    "arity": 4,
    "chainIdSequencer": 1001,
    "defaultChainId": 1000,
    "sequencerAddress": "0x617b3a3528F9cDd6630fd3301B9c8911F7Bf063D",
    "sequencerPvtKey": "0x28b2b0318721be8c8339199172cd7cc8f5e273800a35616ec893083a4b32c02e",
    "genesis": {
      "accounts": [
        {
          "address": "0x617b3a3528F9cDd6630fd3301B9c8911F7Bf063D",
          "pvtKey": "0x28b2b0318721be8c8339199172cd7cc8f5e273800a35616ec893083a4b32c02e",
          "balance": "100000000000000000000",
          "nonce": "0"
        },
        {
          "address": "0x4d5Cf5032B2a844602278b01199ED191A86c93ff",
          "pvtKey": "0x4d27a600dce8c29b7bd080e29a26972377dbb04d7a27d919adbb602bf13cfd23",
          "balance": "200000000000000000000",
          "nonce": "0"
        }
      ],
      "contracts": [
        {
          "contractName": "OpCreates",
          "paramsDeploy": {}
        }
      ]
    },
    "expectedOldRoot": "0xe6028b995d203f3f3b77f16f203012d9c286e3e744f6cb066a5baa418a61cbf8",
    "txs": [
      {
        "from": "0x4d5Cf5032B2a844602278b01199ED191A86c93ff",
        "to": "contract",
        "nonce": "0",
        "value": "1000",
        "contractName": "OpCreates",
        "function": "sendValue",
        "params": [],
        "gasLimit": 800000,
        "gasPrice": "1000000000",
        "chainId": 1001
      },
      {
        "from": "0x4d5Cf5032B2a844602278b01199ED191A86c93ff",
        "to": "contract",
        "nonce": "1",
        "value": "0",
        "contractName": "OpCreates",
        "function": "opCreate2Value",
        "params": [
          "0x6080604052600160005560026001556102838061001d6000396000f3fe608060405234801561001057600080fd5b50600436106100625760003560e01c80630f0db778146100675780635ef3d3dd146100835780638ca3165d1461009f578063b698c129146100bd578063e4081625146100d9578063e795befc146100f7575b600080fd5b610081600480360381019061007c91906101bd565b610127565b005b61009d60048036038101906100989190610190565b610143565b005b6100a761014d565b6040516100b4919061020c565b60405180910390f35b6100d760048036038101906100d29190610190565b610153565b005b6100e161015d565b6040516100ee919061020c565b60405180910390f35b610111600480360381019061010c9190610190565b610163565b60405161011e919061020c565b60405180910390f35b8060026000848152602001908152602001600020819055505050565b8060008190555050565b60005481565b8060018190555050565b60015481565b60026020528060005260406000206000915090505481565b60008135905061018a81610236565b92915050565b6000602082840312156101a6576101a5610231565b5b60006101b48482850161017b565b91505092915050565b600080604083850312156101d4576101d3610231565b5b60006101e28582860161017b565b92505060206101f38582860161017b565b9150509250929050565b61020681610227565b82525050565b600060208201905061022160008301846101fd565b92915050565b6000819050919050565b600080fd5b61023f81610227565b811461024a57600080fd5b5056fea2646970667358221220d39e086335057db80f702ebac8a7123339d84f5501a81e2fa31d5c84c858fbb564736f6c63430008070033",
          672
        ],
        "gasLimit": 800000,
        "gasPrice": "1000000000",
        "chainId": 1001
      }
    ],
    "expectedNewRoot": "0xc39727d2a7693df9e328f5686b4c9c680d482bc1ac5ed4c684baa796288c0e79",
    "expectedNewLeafs": {
      "0x617b3a3528F9cDd6630fd3301B9c8911F7Bf063D": {
        "balance": "100000303698000000000",
        "nonce": "0",
        "storage": null,
        "hashBytecode": "0x0000000000000000000000000000000000000000000000000000000000000000",
        "bytecodeLength": 0
      },
      "0x4d5Cf5032B2a844602278b01199ED191A86c93ff": {
        "balance": "199999696301999999000",
        "nonce": "2",
        "storage": null,
        "hashBytecode": "0x0000000000000000000000000000000000000000000000000000000000000000",
        "bytecodeLength": 0
      },
      "0x1275fbb540c8efc58b812ba83b0d0b8b9917ae98": {
        "balance": "700",
        "nonce": "2",
        "storage": {
          "0x0000000000000000000000000000000000000000000000000000000000000000": "0x1baa42f276127db8ededfcf8bb7abafe9e58b715",
          "0x0000000000000000000000000000000000000000000000000000000000000001": "0x03e8"
        },
        "hashBytecode": "0x64497bfbeee254b7643cdd7437c59c62bc8f88d0628fe5fcb4bbbaf02d84f510",
        "bytecodeLength": 1067
      },
      "0x1baa42f276127db8ededfcf8bb7abafe9e58b715": {
        "balance": "300",
        "nonce": "1",
        "storage": {
          "0x0000000000000000000000000000000000000000000000000000000000000000": "0x01",
          "0x0000000000000000000000000000000000000000000000000000000000000001": "0x02"
        },
        "hashBytecode": "0xb441dc6e3f86a7e79eb2580a11d42c8e4fc8021f0a3d2f9f2383c26204800fb8",
        "bytecodeLength": 643
      }
    },
    "timestamp": 1944498031,
    "newLocalExitRoot": "0x0000000000000000000000000000000000000000000000000000000000000000",
    "batchHashData": "0x1b5e293a2157a485166f6afbcfc1b484fa9aa7315884313f1698014c5d39eec9",
    "inputHash": "0x1adcb5059786d398f461dc30ee780d75654738c29c1cd9e5eec7dbf222e84127",
    "globalExitRoot": "0x090bcaf734c4f06c93954a827b45a6e8c67b8e0fd1e0a35a1c5982d6961828f9",
    "oldLocalExitRoot": "0x0000000000000000000000000000000000000000000000000000000000000000",
    "batchL2Data": "0xec80843b9aca00830c3500941275fbb540c8efc58b812ba83b0d0b8b9917ae988203e88427c845dc8203e980801770eee0be9a4d163cb67d1b98f6ec35f345e264d5811abcac64e04a0563803c07a08d701cda72a23b05e844b55272cbbd74f6b3c3397d18d4b7768fe70319331cf9032c01843b9aca00830c3500941275fbb540c8efc58b812ba83b0d0b8b9917ae9880b90304b88c4aa9000000000000000000000000000000000000000000000000000000000000004000000000000000000000000000000000000000000000000000000000000002a000000000000000000000000000000000000000000000000000000000000002a06080604052600160005560026001556102838061001d6000396000f3fe608060405234801561001057600080fd5b50600436106100625760003560e01c80630f0db778146100675780635ef3d3dd146100835780638ca3165d1461009f578063b698c129146100bd578063e4081625146100d9578063e795befc146100f7575b600080fd5b610081600480360381019061007c91906101bd565b610127565b005b61009d60048036038101906100989190610190565b610143565b005b6100a761014d565b6040516100b4919061020c565b60405180910390f35b6100d760048036038101906100d29190610190565b610153565b005b6100e161015d565b6040516100ee919061020c565b60405180910390f35b610111600480360381019061010c9190610190565b610163565b60405161011e919061020c565b60405180910390f35b8060026000848152602001908152602001600020819055505050565b8060008190555050565b60005481565b8060018190555050565b60015481565b60026020528060005260406000206000915090505481565b60008135905061018a81610236565b92915050565b6000602082840312156101a6576101a5610231565b5b60006101b48482850161017b565b91505092915050565b600080604083850312156101d4576101d3610231565b5b60006101e28582860161017b565b92505060206101f38582860161017b565b9150509250929050565b61020681610227565b82525050565b600060208201905061022160008301846101fd565b92915050565b6000819050919050565b600080fd5b61023f81610227565b811461024a57600080fd5b5056fea2646970667358221220d39e086335057db80f702ebac8a7123339d84f5501a81e2fa31d5c84c858fbb564736f6c634300080700338203e98080ab967bf52876ceefd5f56572d1e3d448c62e8bb68e98a331cd31e7c8c99340f935336a3b831418820d0adb69fbb7246b7ad0f9df35f769933009cea655fe62751b"
  }
]