[
  {
    "id": 0,
    "description": "Out of gas",
    "arity": 4,
    "chainIdSequencer": 1001,
    "defaultChainId": 1000,
    "sequencerAddress": "0x617b3a3528F9cDd6630fd3301B9c8911F7Bf063D",
    "sequencerPvtKey": "0x28b2b0318721be8c8339199172cd7cc8f5e273800a35616ec893083a4b32c02e",
    "genesis": {
      "accounts": [
        {
          "address": "0x617b3a3528F9cDd6630fd3301B9c8911F7Bf063D",
          "pvtKey": "0x28b2b0318721be8c8339199172cd7cc8f5e273800a35616ec893083a4b32c02e",
          "balance": "100000000000000000000",
          "nonce": "0"
        },
        {
          "address": "0x4d5Cf5032B2a844602278b01199ED191A86c93ff",
          "pvtKey": "0x4d27a600dce8c29b7bd080e29a26972377dbb04d7a27d919adbb602bf13cfd23",
          "balance": "200000000000000000000",
          "nonce": "0"
        }
      ],
      "contracts": [
        {
          "contractName": "Test2",
          "paramsDeploy": {}
        }
      ]
    },
    "expectedOldRoot": "0xd9955ec3db596754c48631b2b7461d49da45f20cd6ff03c805080dd5e94b1116",
    "txs": [
      {
        "from": "0x4d5Cf5032B2a844602278b01199ED191A86c93ff",
        "to": "contract",
        "nonce": "0",
        "value": "0",
        "contractName": "Test2",
        "function": "opAddTest",
        "params": [],
        "gasLimit": 21300,
        "gasPrice": "1000000000",
        "chainId": 1001
      }
    ],
    "expectedNewRoot": "0xf2c62b443cda5d35e16f99bf2f23f8813ebd6c47ec0899abc116f04bac6e1569",
    "expectedNewLeafs": {
      "0x617b3a3528F9cDd6630fd3301B9c8911F7Bf063D": {
        "balance": "100000021300000000000",
        "nonce": "0",
        "storage": null,
        "hashBytecode": "0x0000000000000000000000000000000000000000000000000000000000000000"
      },
      "0x4d5Cf5032B2a844602278b01199ED191A86c93ff": {
        "balance": "199999978700000000000",
        "nonce": "1",
        "storage": null,
        "hashBytecode": "0x0000000000000000000000000000000000000000000000000000000000000000"
      },
      "0x1275fbb540c8efc58b812ba83b0d0b8b9917ae98": {
        "balance": "0",
        "nonce": "1",
        "storage": {},
        "hashBytecode": "0x8bacd828d4ea6ab6be4fb832c5f5d6b0c953ce069d38c49a64483f9aea07c540"
      }
    },
    "timestamp": 1944498031,
    "newLocalExitRoot": "0x0000000000000000000000000000000000000000000000000000000000000000",
    "batchHashData": "0x251376ca13847f22956cbf74f5b438d0ae8bdc82abf4fd88cae257c76ad29d76",
    "inputHash": "0xb0bec12d3ecda4c335e92802dcc6e54e3bb9311679f65fd7a5e3c04f44005abb",
    "globalExitRoot": "0x090bcaf734c4f06c93954a827b45a6e8c67b8e0fd1e0a35a1c5982d6961828f9",
    "oldLocalExitRoot": "0x0000000000000000000000000000000000000000000000000000000000000000",
    "batchL2Data": "0xe980843b9aca00825334941275fbb540c8efc58b812ba83b0d0b8b9917ae988084f6d97e8c8203e980801e4832c7dbbaed330d5c2006f65207c1f929015135f246d7de0bdf98e4b5be7338759f643f7c25e7decfe082917a06691801a9dea70bfa7e601eec40510e850d1b"
  },
  {
    "id": 1,
    "description": "Call out of gas",
    "arity": 4,
    "chainIdSequencer": 1001,
    "defaultChainId": 1000,
    "sequencerAddress": "0x617b3a3528F9cDd6630fd3301B9c8911F7Bf063D",
    "sequencerPvtKey": "0x28b2b0318721be8c8339199172cd7cc8f5e273800a35616ec893083a4b32c02e",
    "genesis": {
      "accounts": [
        {
          "address": "0x617b3a3528F9cDd6630fd3301B9c8911F7Bf063D",
          "pvtKey": "0x28b2b0318721be8c8339199172cd7cc8f5e273800a35616ec893083a4b32c02e",
          "balance": "100000000000000000000",
          "nonce": "0"
        },
        {
          "address": "0x4d5Cf5032B2a844602278b01199ED191A86c93ff",
          "pvtKey": "0x4d27a600dce8c29b7bd080e29a26972377dbb04d7a27d919adbb602bf13cfd23",
          "balance": "200000000000000000000",
          "nonce": "0"
        }
      ],
      "contracts": [
        {
          "contractName": "OpCallAux",
          "paramsDeploy": {}
        },
        {
          "contractName": "OpCall",
          "paramsDeploy": {}
        }
      ]
    },
    "expectedOldRoot": "0xa2d870fc850d0a93403551bde88880b6fea02b10471f35bc6367bf32e045ddb1",
    "txs": [
      {
        "from": "0x4d5Cf5032B2a844602278b01199ED191A86c93ff",
        "to": "contract",
        "nonce": "0",
        "value": "0",
        "contractName": "OpCall",
        "function": "opCallCall",
        "params": [
          "0x1275fbb540c8efc58b812ba83b0d0b8b9917ae98"
        ],
        "gasLimit": 22700,
        "gasPrice": "1000000000",
        "chainId": 1001
      }
    ],
    "expectedNewRoot": "0x49c8a2dd03735ff65b3aa4f86a6ff2b06852a0bec94c7dbcc4c468d587346573",
    "expectedNewLeafs": {
      "0x617b3a3528F9cDd6630fd3301B9c8911F7Bf063D": {
        "balance": "100000022700000000000",
        "nonce": "0",
        "storage": null,
        "hashBytecode": "0x0000000000000000000000000000000000000000000000000000000000000000"
      },
      "0x4d5Cf5032B2a844602278b01199ED191A86c93ff": {
        "balance": "199999977300000000000",
        "nonce": "1",
        "storage": null,
        "hashBytecode": "0x0000000000000000000000000000000000000000000000000000000000000000"
      },
      "0x1275fbb540c8efc58b812ba83b0d0b8b9917ae98": {
        "balance": "0",
        "nonce": "1",
        "storage": {},
        "hashBytecode": "0x60400ad749a9ad8a0981f8bec859228da1dec283244ed60e3cf0205896a511a7"
      },
      "0x85e844b762a271022b692cf99ce5c59ba0650ac8": {
        "balance": "0",
        "nonce": "1",
        "storage": {},
        "hashBytecode": "0xf7ad42115aa49b2e4ecabfb4b90811669854f0da3bf1ec4a96509a452c32bb82"
      }
    },
    "timestamp": 1944498031,
    "newLocalExitRoot": "0x0000000000000000000000000000000000000000000000000000000000000000",
    "batchHashData": "0x944cd4225c5d5591ca85e9f5c5517e4f82af4db6d821c7f2d4a5ede3f36df9a9",
    "inputHash": "0xfc3b2f76f4aa41802253ae19aa6572f61bacff07c67bee2811caa83b84a82ede",
    "globalExitRoot": "0x090bcaf734c4f06c93954a827b45a6e8c67b8e0fd1e0a35a1c5982d6961828f9",
    "oldLocalExitRoot": "0x0000000000000000000000000000000000000000000000000000000000000000",
    "batchL2Data": "0xf84980843b9aca008258ac9485e844b762a271022b692cf99ce5c59ba0650ac880a4102ea40b0000000000000000000000001275fbb540c8efc58b812ba83b0d0b8b9917ae988203e98080806d1900c0b421a2e05d274b7f7cd3589003040ea739f4447c31414bb8a3fd9d03329a23b7302e179049f6a4a98732182c8624caa05481836d5f483d5309c3491c"
  },
  {
    "id": 2,
    "description": "Deployment Test out of gas",
    "arity": 4,
    "chainIdSequencer": 1001,
    "defaultChainId": 1000,
    "sequencerAddress": "0x617b3a3528F9cDd6630fd3301B9c8911F7Bf063D",
    "sequencerPvtKey": "0x28b2b0318721be8c8339199172cd7cc8f5e273800a35616ec893083a4b32c02e",
    "genesis": {
      "accounts": [
        {
          "address": "0x617b3a3528F9cDd6630fd3301B9c8911F7Bf063D",
          "pvtKey": "0x28b2b0318721be8c8339199172cd7cc8f5e273800a35616ec893083a4b32c02e",
          "balance": "100000000000000000000",
          "nonce": "0"
        },
        {
          "address": "0x4d5Cf5032B2a844602278b01199ED191A86c93ff",
          "pvtKey": "0x4d27a600dce8c29b7bd080e29a26972377dbb04d7a27d919adbb602bf13cfd23",
          "balance": "200000000000000000000",
          "nonce": "0"
        }
      ]
    },
    "expectedOldRoot": "0x4a9bfcb163ec91c5beb22e6aca41592433092c8c7821b01d37fd0de483f9265d",
    "txs": [
      {
        "from": "0x4d5Cf5032B2a844602278b01199ED191A86c93ff",
        "to": "deploy",
        "nonce": "0",
        "value": "0",
        "contractName": "Test",
        "params": [],
        "gasLimit": 63372,
        "gasPrice": "1000000000",
        "chainId": 1001
      }
    ],
    "expectedNewRoot": "0x7934bc177185164624db5d5e5dfa07848f172ae13b908daee6e44efd77889676",
    "expectedNewLeafs": {
      "0x617b3a3528F9cDd6630fd3301B9c8911F7Bf063D": {
        "balance": "100000063372000000000",
        "nonce": "0",
        "storage": null,
        "hashBytecode": "0x0000000000000000000000000000000000000000000000000000000000000000"
      },
      "0x4d5Cf5032B2a844602278b01199ED191A86c93ff": {
        "balance": "199999936628000000000",
        "nonce": "1",
        "storage": null,
        "hashBytecode": "0x0000000000000000000000000000000000000000000000000000000000000000"
      },
      "0xA72217948Ea7D968A64c77F83908cea136bBF964": {
        "balance": "0",
        "nonce": "0",
        "storage": null,
        "hashBytecode": "0x0000000000000000000000000000000000000000000000000000000000000000"
      }
    },
    "timestamp": 1944498031,
    "newLocalExitRoot": "0x0000000000000000000000000000000000000000000000000000000000000000",
    "batchHashData": "0x45310a69df54843d4989605d2849cf2c017d4b0589595cfeecf0f5b74a644104",
    "inputHash": "0x59b9dabad38462979b2d017c9e05f542415ff899c7838b0ea0d7382a2a55a4f4",
    "globalExitRoot": "0x090bcaf734c4f06c93954a827b45a6e8c67b8e0fd1e0a35a1c5982d6961828f9",
    "oldLocalExitRoot": "0x0000000000000000000000000000000000000000000000000000000000000000",
    "batchL2Data": "0xf902c080843b9aca0082f78c8080b902ad60806040526001600055600260015534801561001a57600080fd5b506102838061002a6000396000f3fe608060405234801561001057600080fd5b50600436106100625760003560e01c80630f0db778146100675780635ef3d3dd146100835780638ca3165d1461009f578063b698c129146100bd578063e4081625146100d9578063e795befc146100f7575b600080fd5b610081600480360381019061007c91906101bd565b610127565b005b61009d60048036038101906100989190610190565b610143565b005b6100a761014d565b6040516100b4919061020c565b60405180910390f35b6100d760048036038101906100d29190610190565b610153565b005b6100e161015d565b6040516100ee919061020c565b60405180910390f35b610111600480360381019061010c9190610190565b610163565b60405161011e919061020c565b60405180910390f35b8060026000848152602001908152602001600020819055505050565b8060008190555050565b60005481565b8060018190555050565b60015481565b60026020528060005260406000206000915090505481565b60008135905061018a81610236565b92915050565b6000602082840312156101a6576101a5610231565b5b60006101b48482850161017b565b91505092915050565b600080604083850312156101d4576101d3610231565b5b60006101e28582860161017b565b92505060206101f38582860161017b565b9150509250929050565b61020681610227565b82525050565b600060208201905061022160008301846101fd565b92915050565b6000819050919050565b600080fd5b61023f81610227565b811461024a57600080fd5b5056fea26469706673582212205feec680dbd3ffdb3d28421e0c45d9127cc1de581ab1d493e719a7579f16c06964736f6c634300080700338203e980806b76a1e492123851cad541277cc62884bde1fdf67a71f48f19e6fbb05e9d451e37de60dd5621738dc37c89e07efc48fafd4cb665e52234c09bfb1d57fc3eddce1c"
  },
  {
    "id": 3,
    "description": "Call opcode out of gas",
    "arity": 4,
    "chainIdSequencer": 1001,
    "defaultChainId": 1000,
    "sequencerAddress": "0x617b3a3528F9cDd6630fd3301B9c8911F7Bf063D",
    "sequencerPvtKey": "0x28b2b0318721be8c8339199172cd7cc8f5e273800a35616ec893083a4b32c02e",
    "genesis": {
      "accounts": [
        {
          "address": "0x617b3a3528F9cDd6630fd3301B9c8911F7Bf063D",
          "pvtKey": "0x28b2b0318721be8c8339199172cd7cc8f5e273800a35616ec893083a4b32c02e",
          "balance": "100000000000000000000",
          "nonce": "0"
        },
        {
          "address": "0x4d5Cf5032B2a844602278b01199ED191A86c93ff",
          "pvtKey": "0x4d27a600dce8c29b7bd080e29a26972377dbb04d7a27d919adbb602bf13cfd23",
          "balance": "200000000000000000000",
          "nonce": "0"
        }
      ],
      "contracts": [
        {
          "contractName": "OpCallAux",
          "paramsDeploy": {}
        },
        {
          "contractName": "OpCall",
          "paramsDeploy": {}
        }
      ]
    },
    "expectedOldRoot": "0xa2d870fc850d0a93403551bde88880b6fea02b10471f35bc6367bf32e045ddb1",
    "txs": [
      {
        "from": "0x4d5Cf5032B2a844602278b01199ED191A86c93ff",
        "to": "contract",
        "nonce": "0",
        "value": "0",
        "contractName": "OpCall",
        "function": "opCallOutOfGas",
        "params": [
          "0x1275fbb540c8efc58b812ba83b0d0b8b9917ae98"
        ],
        "gasLimit": 60000,
        "gasPrice": "1000000000",
        "chainId": 1001
      }
    ],
    "expectedNewRoot": "0xd50ec0540f2a020079267b837935ecb3e48b0996b4f522e3874d68a3a2a07083",
    "expectedNewLeafs": {
      "0x617b3a3528F9cDd6630fd3301B9c8911F7Bf063D": {
        "balance": "100000056235000000000",
        "nonce": "0",
        "storage": null,
        "hashBytecode": "0x0000000000000000000000000000000000000000000000000000000000000000"
      },
      "0x4d5Cf5032B2a844602278b01199ED191A86c93ff": {
        "balance": "199999943765000000000",
        "nonce": "1",
        "storage": null,
        "hashBytecode": "0x0000000000000000000000000000000000000000000000000000000000000000"
      },
      "0x1275fbb540c8efc58b812ba83b0d0b8b9917ae98": {
        "balance": "0",
        "nonce": "1",
        "storage": {},
        "hashBytecode": "0x60400ad749a9ad8a0981f8bec859228da1dec283244ed60e3cf0205896a511a7"
      },
      "0x85e844b762a271022b692cf99ce5c59ba0650ac8": {
        "balance": "0",
        "nonce": "1",
        "storage": {
          "0x0000000000000000000000000000000000000000000000000000000000000000": "0x03"
        },
        "hashBytecode": "0xf7ad42115aa49b2e4ecabfb4b90811669854f0da3bf1ec4a96509a452c32bb82"
      }
    },
    "timestamp": 1944498031,
    "newLocalExitRoot": "0x0000000000000000000000000000000000000000000000000000000000000000",
    "batchHashData": "0x803863b71ac0bc30aeb4a43a2bc0b2ef3d70af65f741d17486d9b1127a755427",
    "inputHash": "0x2acfd195453acc38e4c7bc51db8aa5e778e6891e13522fcc5c5b3384d5d0f426",
    "globalExitRoot": "0x090bcaf734c4f06c93954a827b45a6e8c67b8e0fd1e0a35a1c5982d6961828f9",
    "oldLocalExitRoot": "0x0000000000000000000000000000000000000000000000000000000000000000",
    "batchL2Data": "0xf84980843b9aca0082ea609485e844b762a271022b692cf99ce5c59ba0650ac880a447c5d25d0000000000000000000000001275fbb540c8efc58b812ba83b0d0b8b9917ae988203e9808084f996c30963b838f165a66d4c17611bff4ee9ab3d1e0dc193ab600a7bf5213b1dae059f69335213a353ce0c576b73a642f28cf9144373516b8a9451ce36a66e1b"
  },
  {
    "id": 4,
    "description": "Create out of gas",
    "arity": 4,
    "chainIdSequencer": 1001,
    "defaultChainId": 1000,
    "sequencerAddress": "0x617b3a3528F9cDd6630fd3301B9c8911F7Bf063D",
    "sequencerPvtKey": "0x28b2b0318721be8c8339199172cd7cc8f5e273800a35616ec893083a4b32c02e",
    "genesis": {
      "accounts": [
        {
          "address": "0x617b3a3528F9cDd6630fd3301B9c8911F7Bf063D",
          "pvtKey": "0x28b2b0318721be8c8339199172cd7cc8f5e273800a35616ec893083a4b32c02e",
          "balance": "100000000000000000000",
          "nonce": "0"
        },
        {
          "address": "0x4d5Cf5032B2a844602278b01199ED191A86c93ff",
          "pvtKey": "0x4d27a600dce8c29b7bd080e29a26972377dbb04d7a27d919adbb602bf13cfd23",
          "balance": "200000000000000000000",
          "nonce": "0"
        }
      ],
      "contracts": [
        {
          "contractName": "OpCreates",
          "paramsDeploy": {}
        }
      ]
    },
    "expectedOldRoot": "0xe4868ec89307adc61025312ee6f403f5f424dc3befbd11f599e85db783c5aef8",
    "txs": [
      {
        "from": "0x4d5Cf5032B2a844602278b01199ED191A86c93ff",
        "to": "contract",
        "nonce": "0",
        "value": "0",
        "contractName": "OpCreates",
        "function": "opCreate",
        "params": [
          "0x608060405234801561001057600080fd5b5060bb8061001f6000396000f3fe6080604052348015600f57600080fd5b506004361060285760003560e01c8063f6d97e8c14602d575b600080fd5b60336047565b604051603e91906062565b60405180910390f35b600080600390508091505090565b605c81607b565b82525050565b6000602082019050607560008301846055565b92915050565b600081905091905056fea2646970667358221220a33fdecaf587db45fa0e1fe4bfca25de09e35bb9a45fa6dab1bf1964244a929164736f6c63430008070033",
          218
        ],
        "gasLimit": 58000,
        "gasPrice": "1000000000",
        "chainId": 1001
      }
    ],
    "expectedNewRoot": "0x0b906d530df82da3c63d598492ffdcfbeb62000a077644d7a344319c12c7801b",
    "expectedNewLeafs": {
      "0x617b3a3528F9cDd6630fd3301B9c8911F7Bf063D": {
        "balance": "100000058000000000000",
        "nonce": "0",
        "storage": null,
        "hashBytecode": "0x0000000000000000000000000000000000000000000000000000000000000000"
      },
      "0x4d5Cf5032B2a844602278b01199ED191A86c93ff": {
        "balance": "199999942000000000000",
        "nonce": "1",
        "storage": null,
        "hashBytecode": "0x0000000000000000000000000000000000000000000000000000000000000000"
      },
      "0x1275fbb540c8efc58b812ba83b0d0b8b9917ae98": {
        "balance": "0",
        "nonce": "1",
        "storage": {},
        "hashBytecode": "0x85ac661fe286d3ed9e7df70f5c4363a9fb7b354f29fbae34986ed666c4d45cf0"
      },
      "0x85e844b762a271022b692cf99ce5c59ba0650ac8": {
        "balance": "0",
        "nonce": "0",
        "storage": null,
        "hashBytecode": "0x0000000000000000000000000000000000000000000000000000000000000000"
      }
    },
    "timestamp": 1944498031,
    "newLocalExitRoot": "0x0000000000000000000000000000000000000000000000000000000000000000",
    "batchHashData": "0x8f3367a820ff69d67fcc0280e5b05172e26b29f330193131c1cd2ea1bcd30861",
    "inputHash": "0xee14a9e7cede84f867b8aae461aa289540d66fbb8158f0541351aad83bb28c81",
    "globalExitRoot": "0x090bcaf734c4f06c93954a827b45a6e8c67b8e0fd1e0a35a1c5982d6961828f9",
    "oldLocalExitRoot": "0x0000000000000000000000000000000000000000000000000000000000000000",
    "batchL2Data": "0xf9016b80843b9aca0082e290941275fbb540c8efc58b812ba83b0d0b8b9917ae9880b901445b8e9959000000000000000000000000000000000000000000000000000000000000004000000000000000000000000000000000000000000000000000000000000000da00000000000000000000000000000000000000000000000000000000000000da608060405234801561001057600080fd5b5060bb8061001f6000396000f3fe6080604052348015600f57600080fd5b506004361060285760003560e01c8063f6d97e8c14602d575b600080fd5b60336047565b604051603e91906062565b60405180910390f35b600080600390508091505090565b605c81607b565b82525050565b6000602082019050607560008301846055565b92915050565b600081905091905056fea2646970667358221220a33fdecaf587db45fa0e1fe4bfca25de09e35bb9a45fa6dab1bf1964244a929164736f6c634300080700330000000000008203e98080884b358847f7d62e91115488e173b1fbc3238104d25d30d6a9eb34a28540174a6a9f53d06f81995c3e8a6b1906b95734071caf63398a3ba9e80e05ec8a630ca41c"
  }
]