[
  {
    "id": 0,
    "description": "2 accounts and 1 valid transaction (Contract simple call).",
    "arity": 4,
    "chainIdSequencer": 1001,
    "defaultChainId": 1000,
    "sequencerAddress": "0x617b3a3528F9cDd6630fd3301B9c8911F7Bf063D",
    "sequencerPvtKey": "0x28b2b0318721be8c8339199172cd7cc8f5e273800a35616ec893083a4b32c02e",
    "genesis": {
      "accounts": [
        {
          "address": "0x617b3a3528F9cDd6630fd3301B9c8911F7Bf063D",
          "pvtKey": "0x28b2b0318721be8c8339199172cd7cc8f5e273800a35616ec893083a4b32c02e",
          "balance": "100000000000000000000",
          "nonce": "0"
        },
        {
          "address": "0x4d5Cf5032B2a844602278b01199ED191A86c93ff",
          "pvtKey": "0x4d27a600dce8c29b7bd080e29a26972377dbb04d7a27d919adbb602bf13cfd23",
          "balance": "200000000000000000000",
          "nonce": "0"
        }
      ],
      "contracts": [
        {
          "contractName": "Test2",
          "paramsDeploy": []
        }
      ]
    },
    "expectedOldRoot": "0x57c35c1370629a5325823693be73ce795e06ffdabe777bb12394b10233eac315",
    "txs": [
      {
        "from": "0x4d5Cf5032B2a844602278b01199ED191A86c93ff",
        "to": "contract",
        "nonce": "0",
        "value": "0",
        "contractName": "Test2",
        "function": "opAddTest",
        "params": [],
        "gasLimit": 3000000,
        "gasPrice": "1000000000",
        "chainId": 1001
      }
    ],
    "expectedNewRoot": "0x61e040a7d43c053852ac3ebdcbcb584123f87af9406cfd3d3b8bffe7e4f712d9",
    "expectedNewLeafs": {
      "0x617b3a3528F9cDd6630fd3301B9c8911F7Bf063D": {
        "balance": "100000021392000000000",
        "nonce": "0"
      },
      "0x4d5Cf5032B2a844602278b01199ED191A86c93ff": {
        "balance": "199999978608000000000",
        "nonce": "1"
      },
      "0x1275fbb540c8efc58b812ba83b0d0b8b9917ae98": {
        "balance": "0",
        "nonce": "1",
        "storage": {},
        "bytecode": "6080604052348015600f57600080fd5b506004361060285760003560e01c8063f6d97e8c14602d575b600080fd5b60336047565b604051603e91906062565b60405180910390f35b600080600390508091505090565b605c81607b565b82525050565b6000602082019050607560008301846055565b92915050565b600081905091905056fea2646970667358221220a33fdecaf587db45fa0e1fe4bfca25de09e35bb9a45fa6dab1bf1964244a929164736f6c63430008070033"
      }
    },
    "timestamp": 1944498031,
    "newLocalExitRoot": "0x0000000000000000000000000000000000000000000000000000000000000000",
    "batchHashData": "0xcd1bf397f7165a76ea035ef2d1559e8f13555f82688bcd6a5c249e989503e628",
    "inputHash": "0x1e8ae574bb403e357bada89c87d346ddf59f50dd40faf98fa1e70e8e7af9d96f",
    "globalExitRoot": "0x090bcaf734c4f06c93954a827b45a6e8c67b8e0fd1e0a35a1c5982d6961828f9",
    "oldLocalExitRoot": "0x0000000000000000000000000000000000000000000000000000000000000000",
    "batchL2Data": "0xea80843b9aca00832dc6c0941275fbb540c8efc58b812ba83b0d0b8b9917ae988084f6d97e8c8203e9808012dd695805f42fa2248a7544174d57aece8cc46128a67ae73fcafacf047c77c7166d61e784737d3ca219eaf92e3c8e878823b3f88f3d4032773d03b58455ec4a1b"
  },
  {
    "id": 1,
    "description": "2 accounts and 1 valid transaction (Contract assembly call).",
    "arity": 4,
    "chainIdSequencer": 1001,
    "defaultChainId": 1000,
    "sequencerAddress": "0x617b3a3528F9cDd6630fd3301B9c8911F7Bf063D",
    "sequencerPvtKey": "0x28b2b0318721be8c8339199172cd7cc8f5e273800a35616ec893083a4b32c02e",
    "genesis": {
      "accounts": [
        {
          "address": "0x617b3a3528F9cDd6630fd3301B9c8911F7Bf063D",
          "pvtKey": "0x28b2b0318721be8c8339199172cd7cc8f5e273800a35616ec893083a4b32c02e",
          "balance": "100000000000000000000",
          "nonce": "0"
        },
        {
          "address": "0x4d5Cf5032B2a844602278b01199ED191A86c93ff",
          "pvtKey": "0x4d27a600dce8c29b7bd080e29a26972377dbb04d7a27d919adbb602bf13cfd23",
          "balance": "200000000000000000000",
          "nonce": "0"
        }
      ],
      "contracts": [
        {
          "contractName": "Test3",
          "paramsDeploy": []
        }
      ]
    },
    "expectedOldRoot": "0xdfd2d537cc75c26e4feb606fbd68c117d0fc12f4974bd9781f86e77a71a1ce42",
    "txs": [
      {
        "from": "0x4d5Cf5032B2a844602278b01199ED191A86c93ff",
        "to": "contract",
        "nonce": "0",
        "value": "0",
        "contractName": "Test3",
        "function": "opAddTest",
        "params": [],
        "gasLimit": 100000,
        "gasPrice": "1000000000",
        "chainId": 1001
      }
    ],
    "expectedNewRoot": "0x9d71234dfed40b256f57d1c616ba0d46491a5e58d7c6a21c39be292a5d700a47",
    "expectedNewLeafs": {
      "0x617b3a3528F9cDd6630fd3301B9c8911F7Bf063D": {
        "balance": "100000021204000000000",
        "nonce": "0"
      },
      "0x4d5Cf5032B2a844602278b01199ED191A86c93ff": {
        "balance": "199999978796000000000",
        "nonce": "1"
      },
      "0x1275fbb540c8efc58b812ba83b0d0b8b9917ae98": {
        "balance": "0",
        "nonce": "1",
        "storage": {},
        "bytecode": "6080604052348015600f57600080fd5b506004361060285760003560e01c8063f6d97e8c14602d575b600080fd5b60336047565b604051603e91906065565b60405180910390f35b600060026001018060005260206000f35b605f81607e565b82525050565b6000602082019050607860008301846058565b92915050565b600081905091905056fea2646970667358221220567336b69dcc08145e9e1d6dd7ac560d8e2817fab2aaf6a44043e66a35917c4164736f6c63430008070033"
      }
    },
    "timestamp": 1944498031,
    "newLocalExitRoot": "0x0000000000000000000000000000000000000000000000000000000000000000",
    "batchHashData": "0xb02799479b9522090e35290ca0b4d63141111a0b9193d2a4b7a356702cafcb37",
    "inputHash": "0xab7009cc18dc2e11fee367d9ddb6e5c7967a18b869cceb4daead1e3c625f05d6",
    "globalExitRoot": "0x090bcaf734c4f06c93954a827b45a6e8c67b8e0fd1e0a35a1c5982d6961828f9",
    "oldLocalExitRoot": "0x0000000000000000000000000000000000000000000000000000000000000000",
    "batchL2Data": "0xea80843b9aca00830186a0941275fbb540c8efc58b812ba83b0d0b8b9917ae988084f6d97e8c8203e98080a748b162caa8b0aac3441456f401bc12dd18bd40ca6d63f121930037249d106542d2f71b05c50cc633b7a1db82e27fa45acb61266e95cbaffd00fc45172b54541c"
  },
  {
    "id": 2,
    "description": "2 accounts and 1 valid transaction (contract update storage).",
    "arity": 4,
    "chainIdSequencer": 1001,
    "defaultChainId": 1000,
    "sequencerAddress": "0x617b3a3528F9cDd6630fd3301B9c8911F7Bf063D",
    "sequencerPvtKey": "0x28b2b0318721be8c8339199172cd7cc8f5e273800a35616ec893083a4b32c02e",
    "genesis": {
      "accounts": [
        {
          "address": "0x617b3a3528F9cDd6630fd3301B9c8911F7Bf063D",
          "pvtKey": "0x28b2b0318721be8c8339199172cd7cc8f5e273800a35616ec893083a4b32c02e",
          "balance": "100000000000000000000",
          "nonce": "0"
        },
        {
          "address": "0x4d5Cf5032B2a844602278b01199ED191A86c93ff",
          "pvtKey": "0x4d27a600dce8c29b7bd080e29a26972377dbb04d7a27d919adbb602bf13cfd23",
          "balance": "200000000000000000000",
          "nonce": "0"
        }
      ],
      "contracts": [
        {
          "contractName": "Test",
          "paramsDeploy": []
        }
      ]
    },
    "expectedOldRoot": "0x3cabf26a93a8a654ee7145f6a28ac4160e4e3dbb96ba99dfca84aebbecb5fc2f",
    "txs": [
      {
        "from": "0x4d5Cf5032B2a844602278b01199ED191A86c93ff",
        "to": "contract",
        "nonce": "0",
        "value": "0",
        "contractName": "Test",
        "function": "setFirst",
        "params": [
          5
        ],
        "gasLimit": 80000000,
        "gasPrice": "1000000000",
        "chainId": 1001
      }
    ],
    "expectedNewRoot": "0x33314776dec2c3a825fdd35e16ae80b21296fea6ea9010a27cdb9082efb798b1",
    "expectedNewLeafs": {
      "0x617b3a3528F9cDd6630fd3301B9c8911F7Bf063D": {
        "balance": "100000026624000000000",
        "nonce": "0"
      },
      "0x4d5Cf5032B2a844602278b01199ED191A86c93ff": {
        "balance": "199999973376000000000",
        "nonce": "1"
      },
      "0x1275fbb540c8efc58b812ba83b0d0b8b9917ae98": {
        "balance": "0",
        "nonce": "1",
        "storage": {
          "0x0000000000000000000000000000000000000000000000000000000000000000": "0x05",
          "0x0000000000000000000000000000000000000000000000000000000000000001": "0x02"
        },
        "bytecode": "608060405234801561001057600080fd5b50600436106100625760003560e01c80630f0db778146100675780635ef3d3dd146100835780638ca3165d1461009f578063b698c129146100bd578063e4081625146100d9578063e795befc146100f7575b600080fd5b610081600480360381019061007c91906101bd565b610127565b005b61009d60048036038101906100989190610190565b610143565b005b6100a761014d565b6040516100b4919061020c565b60405180910390f35b6100d760048036038101906100d29190610190565b610153565b005b6100e161015d565b6040516100ee919061020c565b60405180910390f35b610111600480360381019061010c9190610190565b610163565b60405161011e919061020c565b60405180910390f35b8060026000848152602001908152602001600020819055505050565b8060008190555050565b60005481565b8060018190555050565b60015481565b60026020528060005260406000206000915090505481565b60008135905061018a81610236565b92915050565b6000602082840312156101a6576101a5610231565b5b60006101b48482850161017b565b91505092915050565b600080604083850312156101d4576101d3610231565b5b60006101e28582860161017b565b92505060206101f38582860161017b565b9150509250929050565b61020681610227565b82525050565b600060208201905061022160008301846101fd565b92915050565b6000819050919050565b600080fd5b61023f81610227565b811461024a57600080fd5b5056fea26469706673582212205feec680dbd3ffdb3d28421e0c45d9127cc1de581ab1d493e719a7579f16c06964736f6c63430008070033"
      }
    },
    "timestamp": 1944498031,
    "newLocalExitRoot": "0x0000000000000000000000000000000000000000000000000000000000000000",
    "batchHashData": "0xd2f69a35e6a54b88610f0431e248abeff383a27488291ef604d2e955c980043b",
    "inputHash": "0x4077bd8e3dc3cfba8ee49632e81f5f78225c1e8aadbbcec7eca6d113a26ecc2d",
    "globalExitRoot": "0x090bcaf734c4f06c93954a827b45a6e8c67b8e0fd1e0a35a1c5982d6961828f9",
    "oldLocalExitRoot": "0x0000000000000000000000000000000000000000000000000000000000000000",
    "batchL2Data": "0xf84b80843b9aca008404c4b400941275fbb540c8efc58b812ba83b0d0b8b9917ae9880a45ef3d3dd00000000000000000000000000000000000000000000000000000000000000058203e98080d6cf789bef99c7586ac86a545aee7a2da2e2262c97289ca79edadb782095b5e160cf84880452f6ae8bf6f686e94d80ea84992781944a5cbde4c04e179acbb1e01c"
  }
]