[
  {
    "id": 0,
    "description": "STOP opcode",
    "arity": 4,
    "chainIdSequencer": 1001,
    "defaultChainId": 1000,
    "sequencerAddress": "0x617b3a3528F9cDd6630fd3301B9c8911F7Bf063D",
    "sequencerPvtKey": "0x28b2b0318721be8c8339199172cd7cc8f5e273800a35616ec893083a4b32c02e",
    "genesis": {
      "accounts": [
        {
          "address": "0x617b3a3528F9cDd6630fd3301B9c8911F7Bf063D",
          "pvtKey": "0x28b2b0318721be8c8339199172cd7cc8f5e273800a35616ec893083a4b32c02e",
          "balance": "100000000000000000000",
          "nonce": "0"
        },
        {
          "address": "0x4d5Cf5032B2a844602278b01199ED191A86c93ff",
          "pvtKey": "0x4d27a600dce8c29b7bd080e29a26972377dbb04d7a27d919adbb602bf13cfd23",
          "balance": "200000000000000000000",
          "nonce": "0"
        }
      ],
      "contracts": [
        {
          "contractName": "OpArithFinal",
          "paramsDeploy": {}
        }
      ]
    },
    "expectedOldRoot": "0x05b3efa92254e3e5e71f153269302d72e20dc72dd28025dfa47f80335140f02a",
    "txs": [
      {
        "from": "0x4d5Cf5032B2a844602278b01199ED191A86c93ff",
        "to": "contract",
        "nonce": "0",
        "value": "0",
        "contractName": "OpArithFinal",
        "function": "opStop",
        "params": [],
        "gasLimit": 100000,
        "gasPrice": "1000000000",
        "chainId": 1001
      }
    ],
    "expectedNewRoot": "0x26de090fa0ede617b8ca759879c25efa047018c3119b62fee52971aa19b5c966",
    "expectedNewLeafs": {
      "0x617b3a3528F9cDd6630fd3301B9c8911F7Bf063D": {
        "balance": "100000000000000000000",
        "nonce": "0",
        "storage": null,
        "hashBytecode": "0x0000000000000000000000000000000000000000000000000000000000000000",
        "bytecodeLength": 0
      },
      "0x4d5Cf5032B2a844602278b01199ED191A86c93ff": {
        "balance": "200000000000000000000",
        "nonce": "0",
        "storage": null,
        "hashBytecode": "0x0000000000000000000000000000000000000000000000000000000000000000",
        "bytecodeLength": 0
      },
      "0x1275fbb540c8efc58b812ba83b0d0b8b9917ae98": {
        "balance": "0",
        "nonce": "1",
        "storage": {
          "0x0000000000000000000000000000000000000000000000000000000000000000": "0x01"
        },
        "hashBytecode": "0x270b206cd7f7637a125ddc55aef59e54ef3ea0898dbc9b9094e5665fcd937bed",
        "bytecodeLength": 769
      }
    },
    "timestamp": 1944498031,
    "newLocalExitRoot": "0x0000000000000000000000000000000000000000000000000000000000000000",
    "batchHashData": "0x634d79415ca8b5820cd80bd001357d3578c75756109b2bd228b30f170f128c05",
    "inputHash": "0x257d9519ccc2130b8055167475211ad242393234e0a401bf7a7e0eccf00edffb",
    "globalExitRoot": "0x090bcaf734c4f06c93954a827b45a6e8c67b8e0fd1e0a35a1c5982d6961828f9",
    "oldLocalExitRoot": "0x0000000000000000000000000000000000000000000000000000000000000000",
    "batchL2Data": "0xea80843b9aca00830186a0941275fbb540c8efc58b812ba83b0d0b8b9917ae98808464fbb77c8203e98080788bcad70258f341a18ac214bfe3a67610f131039b3809981b9fc10aee42c0110208aeb217d4bd5debc0a629b1fd38338d67fe9c82c057a88df4bfa317e0ba021b"
  },
  {
    "id": 1,
    "description": "ADD opcode",
    "arity": 4,
    "chainIdSequencer": 1001,
    "defaultChainId": 1000,
    "sequencerAddress": "0x617b3a3528F9cDd6630fd3301B9c8911F7Bf063D",
    "sequencerPvtKey": "0x28b2b0318721be8c8339199172cd7cc8f5e273800a35616ec893083a4b32c02e",
    "genesis": {
      "accounts": [
        {
          "address": "0x617b3a3528F9cDd6630fd3301B9c8911F7Bf063D",
          "pvtKey": "0x28b2b0318721be8c8339199172cd7cc8f5e273800a35616ec893083a4b32c02e",
          "balance": "100000000000000000000",
          "nonce": "0"
        },
        {
          "address": "0x4d5Cf5032B2a844602278b01199ED191A86c93ff",
          "pvtKey": "0x4d27a600dce8c29b7bd080e29a26972377dbb04d7a27d919adbb602bf13cfd23",
          "balance": "200000000000000000000",
          "nonce": "0"
        }
      ],
      "contracts": [
        {
          "contractName": "OpArithFinal",
          "paramsDeploy": {}
        }
      ]
    },
    "expectedOldRoot": "0x05b3efa92254e3e5e71f153269302d72e20dc72dd28025dfa47f80335140f02a",
    "txs": [
      {
        "from": "0x4d5Cf5032B2a844602278b01199ED191A86c93ff",
        "to": "contract",
        "nonce": "0",
        "value": "0",
        "contractName": "OpArithFinal",
        "function": "opAdd",
        "params": [],
        "gasLimit": 100000,
        "gasPrice": "1000000000",
        "chainId": 1001
      }
    ],
    "expectedNewRoot": "0x26de090fa0ede617b8ca759879c25efa047018c3119b62fee52971aa19b5c966",
    "expectedNewLeafs": {
      "0x617b3a3528F9cDd6630fd3301B9c8911F7Bf063D": {
        "balance": "100000000000000000000",
        "nonce": "0",
        "storage": null,
        "hashBytecode": "0x0000000000000000000000000000000000000000000000000000000000000000",
        "bytecodeLength": 0
      },
      "0x4d5Cf5032B2a844602278b01199ED191A86c93ff": {
        "balance": "200000000000000000000",
        "nonce": "0",
        "storage": null,
        "hashBytecode": "0x0000000000000000000000000000000000000000000000000000000000000000",
        "bytecodeLength": 0
      },
      "0x1275fbb540c8efc58b812ba83b0d0b8b9917ae98": {
        "balance": "0",
        "nonce": "1",
        "storage": {
          "0x0000000000000000000000000000000000000000000000000000000000000000": "0x01"
        },
        "hashBytecode": "0x270b206cd7f7637a125ddc55aef59e54ef3ea0898dbc9b9094e5665fcd937bed",
        "bytecodeLength": 769
      }
    },
    "timestamp": 1944498031,
    "newLocalExitRoot": "0x0000000000000000000000000000000000000000000000000000000000000000",
    "batchHashData": "0xee47996d2924b52744272c2fea4b3091a7741d510ee493c1676413b4ad84a393",
    "inputHash": "0x3633d0ed8ad1061d3cff6a4a0cf220fa943a6fe47f0969dafb2059b8bee25a65",
    "globalExitRoot": "0x090bcaf734c4f06c93954a827b45a6e8c67b8e0fd1e0a35a1c5982d6961828f9",
    "oldLocalExitRoot": "0x0000000000000000000000000000000000000000000000000000000000000000",
    "batchL2Data": "0xea80843b9aca00830186a0941275fbb540c8efc58b812ba83b0d0b8b9917ae988084159278198203e98080b22577e12dd4e9c8c7c9f68a63d6ab3ec6fb612ee6b206dbcd7817257d816e752e69f816289c68eab050ddc279714bd05dc567ec3fc883148a0338334f3d5e771b"
  },
  {
    "id": 2,
    "description": "MUL opcode",
    "arity": 4,
    "chainIdSequencer": 1001,
    "defaultChainId": 1000,
    "sequencerAddress": "0x617b3a3528F9cDd6630fd3301B9c8911F7Bf063D",
    "sequencerPvtKey": "0x28b2b0318721be8c8339199172cd7cc8f5e273800a35616ec893083a4b32c02e",
    "genesis": {
      "accounts": [
        {
          "address": "0x617b3a3528F9cDd6630fd3301B9c8911F7Bf063D",
          "pvtKey": "0x28b2b0318721be8c8339199172cd7cc8f5e273800a35616ec893083a4b32c02e",
          "balance": "100000000000000000000",
          "nonce": "0"
        },
        {
          "address": "0x4d5Cf5032B2a844602278b01199ED191A86c93ff",
          "pvtKey": "0x4d27a600dce8c29b7bd080e29a26972377dbb04d7a27d919adbb602bf13cfd23",
          "balance": "200000000000000000000",
          "nonce": "0"
        }
      ],
      "contracts": [
        {
          "contractName": "OpArithFinal",
          "paramsDeploy": {}
        }
      ]
    },
    "expectedOldRoot": "0x05b3efa92254e3e5e71f153269302d72e20dc72dd28025dfa47f80335140f02a",
    "txs": [
      {
        "from": "0x4d5Cf5032B2a844602278b01199ED191A86c93ff",
        "to": "contract",
        "nonce": "0",
        "value": "0",
        "contractName": "OpArithFinal",
        "function": "opMul",
        "params": [],
        "gasLimit": 100000,
        "gasPrice": "1000000000",
        "chainId": 1001
      }
    ],
    "expectedNewRoot": "0x26de090fa0ede617b8ca759879c25efa047018c3119b62fee52971aa19b5c966",
    "expectedNewLeafs": {
      "0x617b3a3528F9cDd6630fd3301B9c8911F7Bf063D": {
        "balance": "100000000000000000000",
        "nonce": "0",
        "storage": null,
        "hashBytecode": "0x0000000000000000000000000000000000000000000000000000000000000000",
        "bytecodeLength": 0
      },
      "0x4d5Cf5032B2a844602278b01199ED191A86c93ff": {
        "balance": "200000000000000000000",
        "nonce": "0",
        "storage": null,
        "hashBytecode": "0x0000000000000000000000000000000000000000000000000000000000000000",
        "bytecodeLength": 0
      },
      "0x1275fbb540c8efc58b812ba83b0d0b8b9917ae98": {
        "balance": "0",
        "nonce": "1",
        "storage": {
          "0x0000000000000000000000000000000000000000000000000000000000000000": "0x01"
        },
        "hashBytecode": "0x270b206cd7f7637a125ddc55aef59e54ef3ea0898dbc9b9094e5665fcd937bed",
        "bytecodeLength": 769
      }
    },
    "timestamp": 1944498031,
    "newLocalExitRoot": "0x0000000000000000000000000000000000000000000000000000000000000000",
    "batchHashData": "0xb37ccbc356970eeb5bd6d57df6c5bd986327e6b28fb86c6fc5e2257464181d33",
    "inputHash": "0x9d9323718b8a6566f7795e48770bc9f43aa990ac7bec39c81eb9caf8631c3560",
    "globalExitRoot": "0x090bcaf734c4f06c93954a827b45a6e8c67b8e0fd1e0a35a1c5982d6961828f9",
    "oldLocalExitRoot": "0x0000000000000000000000000000000000000000000000000000000000000000",
    "batchL2Data": "0xea80843b9aca00830186a0941275fbb540c8efc58b812ba83b0d0b8b9917ae9880843931a6b38203e980805c812808315573db3cdfb56b3633fb18e11db7d534534ed3e779d0e1fadcec5a76ea6d281a943906f6ad859e45cc25efc9e96bc12ccc3b7ac94abb489e44728e1c"
  },
  {
    "id": 3,
    "description": "SUB opcode",
    "arity": 4,
    "chainIdSequencer": 1001,
    "defaultChainId": 1000,
    "sequencerAddress": "0x617b3a3528F9cDd6630fd3301B9c8911F7Bf063D",
    "sequencerPvtKey": "0x28b2b0318721be8c8339199172cd7cc8f5e273800a35616ec893083a4b32c02e",
    "genesis": {
      "accounts": [
        {
          "address": "0x617b3a3528F9cDd6630fd3301B9c8911F7Bf063D",
          "pvtKey": "0x28b2b0318721be8c8339199172cd7cc8f5e273800a35616ec893083a4b32c02e",
          "balance": "100000000000000000000",
          "nonce": "0"
        },
        {
          "address": "0x4d5Cf5032B2a844602278b01199ED191A86c93ff",
          "pvtKey": "0x4d27a600dce8c29b7bd080e29a26972377dbb04d7a27d919adbb602bf13cfd23",
          "balance": "200000000000000000000",
          "nonce": "0"
        }
      ],
      "contracts": [
        {
          "contractName": "OpArithFinal",
          "paramsDeploy": {}
        }
      ]
    },
    "expectedOldRoot": "0x05b3efa92254e3e5e71f153269302d72e20dc72dd28025dfa47f80335140f02a",
    "txs": [
      {
        "from": "0x4d5Cf5032B2a844602278b01199ED191A86c93ff",
        "to": "contract",
        "nonce": "0",
        "value": "0",
        "contractName": "OpArithFinal",
        "function": "opSub",
        "params": [],
        "gasLimit": 100000,
        "gasPrice": "1000000000",
        "chainId": 1001
      }
    ],
    "expectedNewRoot": "0x26de090fa0ede617b8ca759879c25efa047018c3119b62fee52971aa19b5c966",
    "expectedNewLeafs": {
      "0x617b3a3528F9cDd6630fd3301B9c8911F7Bf063D": {
        "balance": "100000000000000000000",
        "nonce": "0",
        "storage": null,
        "hashBytecode": "0x0000000000000000000000000000000000000000000000000000000000000000",
        "bytecodeLength": 0
      },
      "0x4d5Cf5032B2a844602278b01199ED191A86c93ff": {
        "balance": "200000000000000000000",
        "nonce": "0",
        "storage": null,
        "hashBytecode": "0x0000000000000000000000000000000000000000000000000000000000000000",
        "bytecodeLength": 0
      },
      "0x1275fbb540c8efc58b812ba83b0d0b8b9917ae98": {
        "balance": "0",
        "nonce": "1",
        "storage": {
          "0x0000000000000000000000000000000000000000000000000000000000000000": "0x01"
        },
        "hashBytecode": "0x270b206cd7f7637a125ddc55aef59e54ef3ea0898dbc9b9094e5665fcd937bed",
        "bytecodeLength": 769
      }
    },
    "timestamp": 1944498031,
    "newLocalExitRoot": "0x0000000000000000000000000000000000000000000000000000000000000000",
    "batchHashData": "0x091b8cc681f75bc784d66209466a5915e7a1c65ae4ca7ab5d15dd305448e1767",
    "inputHash": "0x939de7583d68ef8d33183da8e9a129f00ef5206125d93e7badb98a383f2d0830",
    "globalExitRoot": "0x090bcaf734c4f06c93954a827b45a6e8c67b8e0fd1e0a35a1c5982d6961828f9",
    "oldLocalExitRoot": "0x0000000000000000000000000000000000000000000000000000000000000000",
    "batchL2Data": "0xea80843b9aca00830186a0941275fbb540c8efc58b812ba83b0d0b8b9917ae988084c68f6d1a8203e98080dbfb2299f51da738ce5c4aa8b50ea690189278e3f6254dfaefb2b212afb5cdb010a595fc41ea8a6ffad33635c7fd30d46eabc44f59d7d17a71dbe80b2ee4aae91c"
  },
  {
    "id": 4,
    "description": "DIV opcode",
    "arity": 4,
    "chainIdSequencer": 1001,
    "defaultChainId": 1000,
    "sequencerAddress": "0x617b3a3528F9cDd6630fd3301B9c8911F7Bf063D",
    "sequencerPvtKey": "0x28b2b0318721be8c8339199172cd7cc8f5e273800a35616ec893083a4b32c02e",
    "genesis": {
      "accounts": [
        {
          "address": "0x617b3a3528F9cDd6630fd3301B9c8911F7Bf063D",
          "pvtKey": "0x28b2b0318721be8c8339199172cd7cc8f5e273800a35616ec893083a4b32c02e",
          "balance": "100000000000000000000",
          "nonce": "0"
        },
        {
          "address": "0x4d5Cf5032B2a844602278b01199ED191A86c93ff",
          "pvtKey": "0x4d27a600dce8c29b7bd080e29a26972377dbb04d7a27d919adbb602bf13cfd23",
          "balance": "200000000000000000000",
          "nonce": "0"
        }
      ],
      "contracts": [
        {
          "contractName": "OpArithFinal",
          "paramsDeploy": {}
        }
      ]
    },
    "expectedOldRoot": "0x05b3efa92254e3e5e71f153269302d72e20dc72dd28025dfa47f80335140f02a",
    "txs": [
      {
        "from": "0x4d5Cf5032B2a844602278b01199ED191A86c93ff",
        "to": "contract",
        "nonce": "0",
        "value": "0",
        "contractName": "OpArithFinal",
        "function": "opDiv",
        "params": [],
        "gasLimit": 100000,
        "gasPrice": "1000000000",
        "chainId": 1001
      }
    ],
    "expectedNewRoot": "0x26de090fa0ede617b8ca759879c25efa047018c3119b62fee52971aa19b5c966",
    "expectedNewLeafs": {
      "0x617b3a3528F9cDd6630fd3301B9c8911F7Bf063D": {
        "balance": "100000000000000000000",
        "nonce": "0",
        "storage": null,
        "hashBytecode": "0x0000000000000000000000000000000000000000000000000000000000000000",
        "bytecodeLength": 0
      },
      "0x4d5Cf5032B2a844602278b01199ED191A86c93ff": {
        "balance": "200000000000000000000",
        "nonce": "0",
        "storage": null,
        "hashBytecode": "0x0000000000000000000000000000000000000000000000000000000000000000",
        "bytecodeLength": 0
      },
      "0x1275fbb540c8efc58b812ba83b0d0b8b9917ae98": {
        "balance": "0",
        "nonce": "1",
        "storage": {
          "0x0000000000000000000000000000000000000000000000000000000000000000": "0x01"
        },
        "hashBytecode": "0x270b206cd7f7637a125ddc55aef59e54ef3ea0898dbc9b9094e5665fcd937bed",
        "bytecodeLength": 769
      }
    },
    "timestamp": 1944498031,
    "newLocalExitRoot": "0x0000000000000000000000000000000000000000000000000000000000000000",
    "batchHashData": "0x5b0a665e2ad07efe3d0548e204761367272a3ace326fe6d9c9816512419fe0fe",
    "inputHash": "0x089d70b826f355ea44fc08b277d170da3332af804d9e9867134359af87d9a0fc",
    "globalExitRoot": "0x090bcaf734c4f06c93954a827b45a6e8c67b8e0fd1e0a35a1c5982d6961828f9",
    "oldLocalExitRoot": "0x0000000000000000000000000000000000000000000000000000000000000000",
    "batchL2Data": "0xea80843b9aca00830186a0941275fbb540c8efc58b812ba83b0d0b8b9917ae9880840e4d2d028203e980801b661f0633d7b0df73a9351680d0a16e7b73bb75a8398d4dea225db2fe7ce5d94f8cf7a4a8b4a82d218ab0ea669f86c6e29716e7bb3268aa7c3f8bac425d676a1c"
  },
  {
    "id": 5,
    "description": "ADD custom opcode",
    "arity": 4,
    "chainIdSequencer": 1001,
    "defaultChainId": 1000,
    "sequencerAddress": "0x617b3a3528F9cDd6630fd3301B9c8911F7Bf063D",
    "sequencerPvtKey": "0x28b2b0318721be8c8339199172cd7cc8f5e273800a35616ec893083a4b32c02e",
    "genesis": {
      "accounts": [
        {
          "address": "0x617b3a3528F9cDd6630fd3301B9c8911F7Bf063D",
          "pvtKey": "0x28b2b0318721be8c8339199172cd7cc8f5e273800a35616ec893083a4b32c02e",
          "balance": "100000000000000000000",
          "nonce": "0"
        },
        {
          "address": "0x4d5Cf5032B2a844602278b01199ED191A86c93ff",
          "pvtKey": "0x4d27a600dce8c29b7bd080e29a26972377dbb04d7a27d919adbb602bf13cfd23",
          "balance": "200000000000000000000",
          "nonce": "0"
        }
      ],
      "contracts": [
        {
          "contractName": "OpArithFinal",
          "paramsDeploy": {}
        }
      ]
    },
    "expectedOldRoot": "0x05b3efa92254e3e5e71f153269302d72e20dc72dd28025dfa47f80335140f02a",
    "txs": [
      {
        "from": "0x4d5Cf5032B2a844602278b01199ED191A86c93ff",
        "to": "contract",
        "nonce": "0",
        "value": "0",
        "contractName": "OpArithFinal",
        "function": "opCustomAdd",
        "params": [
          "3618502788666131106986593281521497120414687020801267626233049500247285301248",
          "7237005577332262213973186563042994240829374041602535252466099000494570602496"
        ],
        "gasLimit": 100000,
        "gasPrice": "1",
        "chainId": 1001
      }
    ],
    "expectedNewRoot": "0x26de090fa0ede617b8ca759879c25efa047018c3119b62fee52971aa19b5c966",
    "expectedNewLeafs": {
      "0x617b3a3528F9cDd6630fd3301B9c8911F7Bf063D": {
        "balance": "100000000000000000000",
        "nonce": "0",
        "storage": null,
        "hashBytecode": "0x0000000000000000000000000000000000000000000000000000000000000000",
        "bytecodeLength": 0
      },
      "0x4d5Cf5032B2a844602278b01199ED191A86c93ff": {
        "balance": "200000000000000000000",
        "nonce": "0",
        "storage": null,
        "hashBytecode": "0x0000000000000000000000000000000000000000000000000000000000000000",
        "bytecodeLength": 0
      },
      "0x1275fbb540c8efc58b812ba83b0d0b8b9917ae98": {
        "balance": "0",
        "nonce": "1",
        "storage": {
          "0x0000000000000000000000000000000000000000000000000000000000000000": "0x01"
        },
        "hashBytecode": "0x270b206cd7f7637a125ddc55aef59e54ef3ea0898dbc9b9094e5665fcd937bed",
        "bytecodeLength": 769
      }
    },
    "timestamp": 1944498031,
    "newLocalExitRoot": "0x0000000000000000000000000000000000000000000000000000000000000000",
    "batchHashData": "0x9a1b7fe4b415f2ab9d7921736bb5603db07acb82bbed23282794ee2ddc0789cb",
    "inputHash": "0x342a3b33348a798c8a594e912644e90bbd2e1dae1c3ca76daa944bcd4ee45663",
    "globalExitRoot": "0x090bcaf734c4f06c93954a827b45a6e8c67b8e0fd1e0a35a1c5982d6961828f9",
    "oldLocalExitRoot": "0x0000000000000000000000000000000000000000000000000000000000000000",
    "batchL2Data": "0xf8678001830186a0941275fbb540c8efc58b812ba83b0d0b8b9917ae9880b8446664f730080000000000000000000000000000000000000000000000000000000000000010000000000000000000000000000000000000000000000000000000000000008203e98080469a32b80f307dd4b213474a26cabddbbf7c97eec99b090198e7bc1842c8de126915eecdf8ccd69cc368e94fe6ce5cef3342ab029c92f352d358a8fadcba06591b"
  },
  {
    "id": 6,
    "description": "DIV custom opcode",
    "arity": 4,
    "chainIdSequencer": 1001,
    "defaultChainId": 1000,
    "sequencerAddress": "0x617b3a3528F9cDd6630fd3301B9c8911F7Bf063D",
    "sequencerPvtKey": "0x28b2b0318721be8c8339199172cd7cc8f5e273800a35616ec893083a4b32c02e",
    "genesis": {
      "accounts": [
        {
          "address": "0x617b3a3528F9cDd6630fd3301B9c8911F7Bf063D",
          "pvtKey": "0x28b2b0318721be8c8339199172cd7cc8f5e273800a35616ec893083a4b32c02e",
          "balance": "100000000000000000000",
          "nonce": "0"
        },
        {
          "address": "0x4d5Cf5032B2a844602278b01199ED191A86c93ff",
          "pvtKey": "0x4d27a600dce8c29b7bd080e29a26972377dbb04d7a27d919adbb602bf13cfd23",
          "balance": "200000000000000000000",
          "nonce": "0"
        }
      ],
      "contracts": [
        {
          "contractName": "OpArithFinal",
          "paramsDeploy": {}
        }
      ]
    },
    "expectedOldRoot": "0x05b3efa92254e3e5e71f153269302d72e20dc72dd28025dfa47f80335140f02a",
    "txs": [
      {
        "from": "0x4d5Cf5032B2a844602278b01199ED191A86c93ff",
        "to": "contract",
        "nonce": "0",
        "value": "0",
        "contractName": "OpArithFinal",
        "function": "opCustomDiv",
        "params": [
          "3618502788666131106986593281521497120414687020801267626233049500247285301248",
          "7237005577332262213973186563042994240829374041602535252466099000494570602496"
        ],
        "gasLimit": 100000,
        "gasPrice": "1",
        "chainId": 1001
      }
    ],
    "expectedNewRoot": "0x26de090fa0ede617b8ca759879c25efa047018c3119b62fee52971aa19b5c966",
    "expectedNewLeafs": {
      "0x617b3a3528F9cDd6630fd3301B9c8911F7Bf063D": {
        "balance": "100000000000000000000",
        "nonce": "0",
        "storage": null,
        "hashBytecode": "0x0000000000000000000000000000000000000000000000000000000000000000",
        "bytecodeLength": 0
      },
      "0x4d5Cf5032B2a844602278b01199ED191A86c93ff": {
        "balance": "200000000000000000000",
        "nonce": "0",
        "storage": null,
        "hashBytecode": "0x0000000000000000000000000000000000000000000000000000000000000000",
        "bytecodeLength": 0
      },
      "0x1275fbb540c8efc58b812ba83b0d0b8b9917ae98": {
        "balance": "0",
        "nonce": "1",
        "storage": {
          "0x0000000000000000000000000000000000000000000000000000000000000000": "0x01"
        },
        "hashBytecode": "0x270b206cd7f7637a125ddc55aef59e54ef3ea0898dbc9b9094e5665fcd937bed",
        "bytecodeLength": 769
      }
    },
    "timestamp": 1944498031,
    "newLocalExitRoot": "0x0000000000000000000000000000000000000000000000000000000000000000",
    "batchHashData": "0x3bb9544b3f297af1ce6be6f79fe1e5bdfd68cebd448b069765ce99d12e66bf57",
    "inputHash": "0x4d5f1979e6ce61e1cc5953918fa533081ad0b8ed3e9ac2dede0697b9032f1d87",
    "globalExitRoot": "0x090bcaf734c4f06c93954a827b45a6e8c67b8e0fd1e0a35a1c5982d6961828f9",
    "oldLocalExitRoot": "0x0000000000000000000000000000000000000000000000000000000000000000",
    "batchL2Data": "0xf8678001830186a0941275fbb540c8efc58b812ba83b0d0b8b9917ae9880b844242e46d2080000000000000000000000000000000000000000000000000000000000000010000000000000000000000000000000000000000000000000000000000000008203e98080ca5d3eaa7a1cc620d70e1dcaeb74dc0fc9308b7ca557b2bf94c65c3a56d35f1b05f199bb2ce202acb7d92276f0aed9e32399bcdc87e02798ca338d3402ab5c3e1b"
  },
  {
    "id": 7,
    "description": "SDIV",
    "arity": 4,
    "chainIdSequencer": 1001,
    "defaultChainId": 1000,
    "sequencerAddress": "0x617b3a3528F9cDd6630fd3301B9c8911F7Bf063D",
    "sequencerPvtKey": "0x28b2b0318721be8c8339199172cd7cc8f5e273800a35616ec893083a4b32c02e",
    "genesis": {
      "accounts": [
        {
          "address": "0x617b3a3528F9cDd6630fd3301B9c8911F7Bf063D",
          "pvtKey": "0x28b2b0318721be8c8339199172cd7cc8f5e273800a35616ec893083a4b32c02e",
          "balance": "100000000000000000000",
          "nonce": "0"
        },
        {
          "address": "0x4d5Cf5032B2a844602278b01199ED191A86c93ff",
          "pvtKey": "0x4d27a600dce8c29b7bd080e29a26972377dbb04d7a27d919adbb602bf13cfd23",
          "balance": "200000000000000000000",
          "nonce": "0"
        }
      ],
      "contracts": [
        {
          "contractName": "OpArithFinal",
          "paramsDeploy": {}
        }
      ]
    },
    "expectedOldRoot": "0x05b3efa92254e3e5e71f153269302d72e20dc72dd28025dfa47f80335140f02a",
    "txs": [
      {
        "from": "0x4d5Cf5032B2a844602278b01199ED191A86c93ff",
        "to": "contract",
        "nonce": "0",
        "value": "0",
        "contractName": "OpArithFinal",
        "function": "opSdiv",
        "params": [],
        "gasLimit": 100000,
        "gasPrice": "1",
        "chainId": 1001
      }
    ],
    "expectedNewRoot": "0x26de090fa0ede617b8ca759879c25efa047018c3119b62fee52971aa19b5c966",
    "expectedNewLeafs": {
      "0x617b3a3528F9cDd6630fd3301B9c8911F7Bf063D": {
        "balance": "100000000000000000000",
        "nonce": "0",
        "storage": null,
        "hashBytecode": "0x0000000000000000000000000000000000000000000000000000000000000000",
        "bytecodeLength": 0
      },
      "0x4d5Cf5032B2a844602278b01199ED191A86c93ff": {
        "balance": "200000000000000000000",
        "nonce": "0",
        "storage": null,
        "hashBytecode": "0x0000000000000000000000000000000000000000000000000000000000000000",
        "bytecodeLength": 0
      },
      "0x1275fbb540c8efc58b812ba83b0d0b8b9917ae98": {
        "balance": "0",
        "nonce": "1",
        "storage": {
          "0x0000000000000000000000000000000000000000000000000000000000000000": "0x01"
        },
        "hashBytecode": "0x270b206cd7f7637a125ddc55aef59e54ef3ea0898dbc9b9094e5665fcd937bed",
        "bytecodeLength": 769
      }
    },
    "timestamp": 1944498031,
    "newLocalExitRoot": "0x0000000000000000000000000000000000000000000000000000000000000000",
    "batchHashData": "0x34f59c8ee691861d27db7457101bf444dc0987ae21247b6a0591e9dd372ee2c2",
    "inputHash": "0x9bf2acd10f2ab53115b7b56150e53bcb93fc25316d91310878de5916adbe0e82",
    "globalExitRoot": "0x090bcaf734c4f06c93954a827b45a6e8c67b8e0fd1e0a35a1c5982d6961828f9",
    "oldLocalExitRoot": "0x0000000000000000000000000000000000000000000000000000000000000000",
    "batchL2Data": "0xe68001830186a0941275fbb540c8efc58b812ba83b0d0b8b9917ae988084bfb371c28203e980803d1ef95fea2d5755c0acaf1519bd125bc8815e89009e05931186bfa351e60f26627435a2963ab61486216fe9f2c9ef6196ddcb0aa9446ec3fe966f5a202c93641c"
  }
]