[
  {
    "id": 0,
    "description": "Txs to call all functions of OpInvalid contract (test)",
    "arity": 4,
    "chainIdSequencer": 1001,
    "defaultChainId": 1000,
    "sequencerAddress": "0x617b3a3528F9cDd6630fd3301B9c8911F7Bf063D",
    "sequencerPvtKey": "0x28b2b0318721be8c8339199172cd7cc8f5e273800a35616ec893083a4b32c02e",
    "genesis": {
      "accounts": [
        {
          "address": "0x617b3a3528F9cDd6630fd3301B9c8911F7Bf063D",
          "pvtKey": "0x28b2b0318721be8c8339199172cd7cc8f5e273800a35616ec893083a4b32c02e",
          "balance": "100000000000000000000",
          "nonce": "0"
        },
        {
          "address": "0x4d5Cf5032B2a844602278b01199ED191A86c93ff",
          "pvtKey": "0x4d27a600dce8c29b7bd080e29a26972377dbb04d7a27d919adbb602bf13cfd23",
          "balance": "200000000000000000000",
          "nonce": "0"
        }
      ],
      "contracts": [
        {
          "contractName": "Token",
          "paramsDeploy": {
            "types": [
              "string"
            ],
            "values": [
              "HEZ"
            ]
          }
        }
      ]
    },
    "expectedOldRoot": "0x0a4f8fc6b826cbce9db13878aab80cf3dda37f5c2f1e241838a0f659cbfbc115",
    "txs": [
      {
        "from": "0x617b3a3528F9cDd6630fd3301B9c8911F7Bf063D",
        "to": "contract",
        "nonce": "0",
        "value": "0",
        "contractName": "Token",
        "function": "mint",
        "params": [
          "0x4d5Cf5032B2a844602278b01199ED191A86c93ff",
          100000000000
        ],
        "gasLimit": 100000,
        "gasPrice": "1000000000",
        "chainId": 1000
      },
      {
        "from": "0x617b3a3528F9cDd6630fd3301B9c8911F7Bf063D",
        "to": "contract",
        "nonce": "1",
        "value": "0",
        "contractName": "Token",
        "function": "mint",
        "params": [
          "0x617b3a3528F9cDd6630fd3301B9c8911F7Bf063D",
          100000000000
        ],
        "gasLimit": 100000,
        "gasPrice": "1000000001",
        "chainId": 1000
      },
      {
        "from": "0x4d5Cf5032B2a844602278b01199ED191A86c93ff",
        "to": "contract",
        "nonce": "0",
        "value": "0",
        "contractName": "Token",
        "function": "transfer",
        "params": [
          "0x617b3a3528F9cDd6630fd3301B9c8911F7Bf063D",
          100
        ],
        "gasLimit": 100000,
        "gasPrice": "1000000000",
        "chainId": 1000
      },
      {
        "from": "0x617b3a3528F9cDd6630fd3301B9c8911F7Bf063D",
        "to": "contract",
        "nonce": "2",
        "value": "0",
        "contractName": "Token",
        "function": "approve",
        "params": [
          "0x4d5Cf5032B2a844602278b01199ED191A86c93ff",
          10000000000
        ],
        "gasLimit": 100000,
        "gasPrice": "1000000002",
        "chainId": 1000
      },
      {
        "from": "0x4d5Cf5032B2a844602278b01199ED191A86c93ff",
        "to": "contract",
        "nonce": "1",
        "value": "0",
        "contractName": "Token",
        "function": "updateBalance",
        "params": [
          "0x617b3a3528F9cDd6630fd3301B9c8911F7Bf063D"
        ],
        "gasLimit": 100000,
        "gasPrice": "1000000000",
        "chainId": 1000
      },
      {
        "from": "0x4d5Cf5032B2a844602278b01199ED191A86c93ff",
        "to": "contract",
        "nonce": "2",
        "value": "0",
        "contractName": "Token",
        "function": "transferFrom",
        "params": [
          "0x617b3a3528F9cDd6630fd3301B9c8911F7Bf063D",
          "0x4d5Cf5032B2a844602278b01199ED191A86c93ff",
          800
        ],
        "gasLimit": 100000,
        "gasPrice": "1000000000",
        "chainId": 1000
      },
      {
        "from": "0x4d5Cf5032B2a844602278b01199ED191A86c93ff",
        "to": "contract",
        "nonce": "3",
        "value": "0",
        "contractName": "Token",
        "function": "updateBalance",
        "params": [
          "0x617b3a3528F9cDd6630fd3301B9c8911F7Bf063D"
        ],
        "gasLimit": 100000,
        "gasPrice": "1000000000",
        "chainId": 1000
      }
    ],
    "expectedNewRoot": "0xe0b32b7cf84b62b236ee035b1332739fbd041558aeec10411a92d67c25e7869a",
    "expectedNewLeafs": {
      "0x617b3a3528F9cDd6630fd3301B9c8911F7Bf063D": {
        "balance": "100000156035000000000",
        "nonce": "3",
        "storage": null,
        "hashBytecode": "0x0000000000000000000000000000000000000000000000000000000000000000",
        "bytecodeLength": 0
      },
      "0x4d5Cf5032B2a844602278b01199ED191A86c93ff": {
        "balance": "199999843965000000000",
        "nonce": "4",
        "storage": null,
        "hashBytecode": "0x0000000000000000000000000000000000000000000000000000000000000000",
        "bytecodeLength": 0
      },
      "0x1275fbb540c8efc58b812ba83b0d0b8b9917ae98": {
        "balance": "0",
        "nonce": "1",
        "storage": {
          "0xa26ead204fbe342827d421c1dbb94371b0c0824f05bddc9763f28c44870f2530": "0x02540be0e0",
          "0x0000000000000000000000000000000000000000000000000000000000000002": "0x2e90edd000",
          "0x0000000000000000000000000000000000000000000000000000000000000005": "0x12",
          "0x0000000000000000000000000000000000000000000000000000000000000006": "0x174876e544",
          "0x0000000000000000000000000000000000000000000000000000000000000007": "0x617b3a3528f9cdd6630fd3301b9c8911f7bf063d00",
          "0x5c9164227e4e2850b9fc759a61468f2c11426c1144a6df87b4a501cc3915e91d": "0x174876eabc",
          "0x5eff3f6834f82409f2dbfe5bcddfb5bd62b8ea2ebf2327cfdb9577734aa9a1b2": "0x174876e544",
          "0x0000000000000000000000000000000000000000000000000000000000000003": "0x48455a0000000000000000000000000000000000000000000000000000000006",
          "0x0000000000000000000000000000000000000000000000000000000000000004": "0x48455a0000000000000000000000000000000000000000000000000000000006"
        },
        "hashBytecode": "0x6a4f4d0553421e715aade51ef1754586485a905fd5826768bc7952704a04c4ba",
        "bytecodeLength": 7938
      }
    },
    "timestamp": 1944498031,
    "newLocalExitRoot": "0x0000000000000000000000000000000000000000000000000000000000000000",
    "batchHashData": "0x59eb60fc42f4dbadfcfe8a7418008a06270afdb0addb4b899170af0164f3c483",
    "globalExitRoot": "0x090bcaf734c4f06c93954a827b45a6e8c67b8e0fd1e0a35a1c5982d6961828f9",
    "batchL2Data": "0xf86b80843b9aca00830186a0941275fbb540c8efc58b812ba83b0d0b8b9917ae9880b84440c10f190000000000000000000000004d5cf5032b2a844602278b01199ed191a86c93ff000000000000000000000000000000000000000000000000000000174876e8008203e880804d705b20e440c5d6fc4424389e50277e26185bba7a2e6086f6be856556d1af91161bdfa8c40bfb1b34e511d0d4dbe053fba31efcf38bee98ea2a713bab5596971bfff86b01843b9aca01830186a0941275fbb540c8efc58b812ba83b0d0b8b9917ae9880b84440c10f19000000000000000000000000617b3a3528f9cdd6630fd3301b9c8911f7bf063d000000000000000000000000000000000000000000000000000000174876e8008203e8808009b2449c436aba99a3ea98402c14f117bd48f68845dc819c48d898c08621cff455d812b45f093aca5ca3e65a7d4772877f33b19fa6492d3a8a2309e7999aeeb21bfff86b80843b9aca00830186a0941275fbb540c8efc58b812ba83b0d0b8b9917ae9880b844a9059cbb000000000000000000000000617b3a3528f9cdd6630fd3301b9c8911f7bf063d00000000000000000000000000000000000000000000000000000000000000648203e88080c4997fef2f92ae6cc7c8a6da3970a69259e12a5a22246aa363fd36f3e9cd413254bf80a89f6440b5cf26d3d68a217a314be915f2c1761a85a119e5d88a3f5ffc1bfff86b02843b9aca02830186a0941275fbb540c8efc58b812ba83b0d0b8b9917ae9880b844095ea7b30000000000000000000000004d5cf5032b2a844602278b01199ed191a86c93ff00000000000000000000000000000000000000000000000000000002540be4008203e88080f4bea02117cc0365d3e232efbf0e29a609c5e813abd736eca42df7383fa434c02f610212622395334db127146dfe1798c9bb831cb9598e774e0565b9061368721cfff84a01843b9aca00830186a0941275fbb540c8efc58b812ba83b0d0b8b9917ae9880a440b8405a000000000000000000000000617b3a3528f9cdd6630fd3301b9c8911f7bf063d8203e88080467f749ef0e720ad4d6b34a978344d7d66883841bda0f3d3877fce28c7bb591f016ff8cd0ece743c25fad118224d066b71b52603cff2b6b5cc2ba67152228a921bfff88b02843b9aca00830186a0941275fbb540c8efc58b812ba83b0d0b8b9917ae9880b86423b872dd000000000000000000000000617b3a3528f9cdd6630fd3301b9c8911f7bf063d0000000000000000000000004d5cf5032b2a844602278b01199ed191a86c93ff00000000000000000000000000000000000000000000000000000000000003208203e88080b70ab61b753f258aa6a9d73cb4e045763989e77464bb35c62a2479a4da2d9fd23825a8e1daaf5888e9a67e5f719b8256dfaa00faa2fcf35fd5e2c5f5561a94741bfff84a03843b9aca00830186a0941275fbb540c8efc58b812ba83b0d0b8b9917ae9880a440b8405a000000000000000000000000617b3a3528f9cdd6630fd3301b9c8911f7bf063d8203e88080f2c3f4b3f927a74ec4daa9f7230698a7440f53d15c96cf50015ff2b997e8d8344ddf3172edb9e6e94e009dfe6c6a5f1fbbf12ee6a0ac208fc6f6b59515fb0b351cff",
    "chainID": 1000,
    "oldAccInputHash": "0x0000000000000000000000000000000000000000000000000000000000000000",
    "forkID": 5
  }
]