[
  {
    "id": 0,
    "description": "precompiled SHA256_0",
    "arity": 4,
    "chainIdSequencer": 1001,
    "defaultChainId": 1000,
    "sequencerAddress": "0x617b3a3528F9cDd6630fd3301B9c8911F7Bf063D",
    "sequencerPvtKey": "0x28b2b0318721be8c8339199172cd7cc8f5e273800a35616ec893083a4b32c02e",
    "genesis": {
      "accounts": [
        {
          "address": "0x617b3a3528F9cDd6630fd3301B9c8911F7Bf063D",
          "pvtKey": "0x28b2b0318721be8c8339199172cd7cc8f5e273800a35616ec893083a4b32c02e",
          "balance": "100000000000000000000",
          "nonce": "0"
        },
        {
          "address": "0x4d5Cf5032B2a844602278b01199ED191A86c93ff",
          "pvtKey": "0x4d27a600dce8c29b7bd080e29a26972377dbb04d7a27d919adbb602bf13cfd23",
          "balance": "200000000000000000000",
          "nonce": "0"
        }
      ],
      "contracts": [
        {
          "contractName": "Precompiled",
          "paramsDeploy": []
        }
      ]
    },
    "expectedOldRoot": "0xb21f84d5851bf8504a90f50629a48efcc92f116b4ed0e7a427a9f71b19816c02",
    "txs": [
      {
        "from": "0x4d5Cf5032B2a844602278b01199ED191A86c93ff",
        "to": "contract",
        "nonce": "0",
        "value": "0",
        "contractName": "Precompiled",
        "function": "preSha256_0",
        "params": [],
        "gasLimit": 100000,
        "gasPrice": "1000000000",
        "chainId": 1001
      }
    ],
    "expectedNewRoot": "0x30cbc2268fcc339d3c6867b6a5e9d220566af2504eb4f2a36a804ff270424a1e",
    "expectedNewLeafs": {
      "0x617b3a3528F9cDd6630fd3301B9c8911F7Bf063D": {
        "balance": "100000044526000000000",
        "nonce": "0",
        "storage": null,
        "hashBytecode": "0x0000000000000000000000000000000000000000000000000000000000000000"
      },
      "0x4d5Cf5032B2a844602278b01199ED191A86c93ff": {
        "balance": "199999955474000000000",
        "nonce": "1",
        "storage": null,
        "hashBytecode": "0x0000000000000000000000000000000000000000000000000000000000000000"
      },
      "0x1275fbb540c8efc58b812ba83b0d0b8b9917ae98": {
        "balance": "0",
        "nonce": "1",
        "storage": {
          "0x0000000000000000000000000000000000000000000000000000000000000000": "0x3a103a4e5729ad68c02a678ae39accfbc0ae208096437401b7ceab63cca0622f"
        },
        "hashBytecode": "0x2affead3f875cae4f0e341db6188365357ffa86f9a0151168f649799630a0262"
      }
    },
    "timestamp": 1944498031,
    "newLocalExitRoot": "0x0000000000000000000000000000000000000000000000000000000000000000",
    "batchHashData": "0x508b67328b30592bce619bf342e78d02f04aa496e151723c0a234add4e36888f",
    "inputHash": "0xc6a836253e045c88f650ed0765babdaa0a24365d698156013ead0ad3cbd5c324",
    "globalExitRoot": "0x090bcaf734c4f06c93954a827b45a6e8c67b8e0fd1e0a35a1c5982d6961828f9",
    "oldLocalExitRoot": "0x0000000000000000000000000000000000000000000000000000000000000000",
    "batchL2Data": "0xea80843b9aca00830186a0941275fbb540c8efc58b812ba83b0d0b8b9917ae98808418af72748203e980809bf4c3ed7324e8637d1fb8e2ff88cedc1445c7f2950e21d7bcc120ea2fb4c5dd396f76d2b8ab90b31568b00d95008aad9ba744f39c6b4e8c7329470660d43cdc1b"
  },
  {
    "id": 1,
    "description": "precompiled SHA256_1",
    "arity": 4,
    "chainIdSequencer": 1001,
    "defaultChainId": 1000,
    "sequencerAddress": "0x617b3a3528F9cDd6630fd3301B9c8911F7Bf063D",
    "sequencerPvtKey": "0x28b2b0318721be8c8339199172cd7cc8f5e273800a35616ec893083a4b32c02e",
    "genesis": {
      "accounts": [
        {
          "address": "0x617b3a3528F9cDd6630fd3301B9c8911F7Bf063D",
          "pvtKey": "0x28b2b0318721be8c8339199172cd7cc8f5e273800a35616ec893083a4b32c02e",
          "balance": "100000000000000000000",
          "nonce": "0"
        },
        {
          "address": "0x4d5Cf5032B2a844602278b01199ED191A86c93ff",
          "pvtKey": "0x4d27a600dce8c29b7bd080e29a26972377dbb04d7a27d919adbb602bf13cfd23",
          "balance": "200000000000000000000",
          "nonce": "0"
        }
      ],
      "contracts": [
        {
          "contractName": "Precompiled",
          "paramsDeploy": []
        }
      ]
    },
    "expectedOldRoot": "0xb21f84d5851bf8504a90f50629a48efcc92f116b4ed0e7a427a9f71b19816c02",
    "txs": [
      {
        "from": "0x4d5Cf5032B2a844602278b01199ED191A86c93ff",
        "to": "contract",
        "nonce": "0",
        "value": "0",
        "contractName": "Precompiled",
        "function": "preSha256_1",
        "params": [],
        "gasLimit": 100000,
        "gasPrice": "1000000000",
        "chainId": 1001
      }
    ],
    "expectedNewRoot": "0xfb0dfb1ce69b81d122b74973b36e31cf7cf59b95624d287d08f344bc9f5cdf1b",
    "expectedNewLeafs": {
      "0x617b3a3528F9cDd6630fd3301B9c8911F7Bf063D": {
        "balance": "100000044722000000000",
        "nonce": "0",
        "storage": null,
        "hashBytecode": "0x0000000000000000000000000000000000000000000000000000000000000000"
      },
      "0x4d5Cf5032B2a844602278b01199ED191A86c93ff": {
        "balance": "199999955278000000000",
        "nonce": "1",
        "storage": null,
        "hashBytecode": "0x0000000000000000000000000000000000000000000000000000000000000000"
      },
      "0x1275fbb540c8efc58b812ba83b0d0b8b9917ae98": {
        "balance": "0",
        "nonce": "1",
        "storage": {
          "0x0000000000000000000000000000000000000000000000000000000000000000": "0x1bb1ffc0008e878023bdcb41286da20c73af0eb8d4c32a7a6f5178bb8e072b82"
        },
        "hashBytecode": "0x2affead3f875cae4f0e341db6188365357ffa86f9a0151168f649799630a0262"
      }
    },
    "timestamp": 1944498031,
    "newLocalExitRoot": "0x0000000000000000000000000000000000000000000000000000000000000000",
    "batchHashData": "0xb8bd67fdcd9d3cc549fadd839ef38c8a80ffe947e9cffeadb8d2e948aceec41f",
    "inputHash": "0x086ee0f68c7be651933cfd6b9dfc57fdad4b2e1a3bd537247460ce291980b313",
    "globalExitRoot": "0x090bcaf734c4f06c93954a827b45a6e8c67b8e0fd1e0a35a1c5982d6961828f9",
    "oldLocalExitRoot": "0x0000000000000000000000000000000000000000000000000000000000000000",
    "batchL2Data": "0xea80843b9aca00830186a0941275fbb540c8efc58b812ba83b0d0b8b9917ae9880842b4369d88203e980805c302d43f022652454d35d6ede2398234d88fd431ab962085bbb07016a5b66bb6415a27fdb36b0172b770771b61d660a778e221b52dd6178ef71b6a1e178c9a11b"
  },
  {
    "id": 2,
    "description": "precompiled RIPEMD160_0",
    "arity": 4,
    "chainIdSequencer": 1001,
    "defaultChainId": 1000,
    "sequencerAddress": "0x617b3a3528F9cDd6630fd3301B9c8911F7Bf063D",
    "sequencerPvtKey": "0x28b2b0318721be8c8339199172cd7cc8f5e273800a35616ec893083a4b32c02e",
    "genesis": {
      "accounts": [
        {
          "address": "0x617b3a3528F9cDd6630fd3301B9c8911F7Bf063D",
          "pvtKey": "0x28b2b0318721be8c8339199172cd7cc8f5e273800a35616ec893083a4b32c02e",
          "balance": "100000000000000000000",
          "nonce": "0"
        },
        {
          "address": "0x4d5Cf5032B2a844602278b01199ED191A86c93ff",
          "pvtKey": "0x4d27a600dce8c29b7bd080e29a26972377dbb04d7a27d919adbb602bf13cfd23",
          "balance": "200000000000000000000",
          "nonce": "0"
        }
      ],
      "contracts": [
        {
          "contractName": "Precompiled",
          "paramsDeploy": []
        }
      ]
    },
    "expectedOldRoot": "0xb21f84d5851bf8504a90f50629a48efcc92f116b4ed0e7a427a9f71b19816c02",
    "txs": [
      {
        "from": "0x4d5Cf5032B2a844602278b01199ED191A86c93ff",
        "to": "contract",
        "nonce": "0",
        "value": "0",
        "contractName": "Precompiled",
        "function": "ripemd160_0",
        "params": [],
        "gasLimit": 100000,
        "gasPrice": "1000000000",
        "chainId": 1001
      }
    ],
    "expectedNewRoot": "0x765b32f95411f7011423934106052df798a442b29f8554b93c86dcb0e82651b1",
    "expectedNewLeafs": {
      "0x617b3a3528F9cDd6630fd3301B9c8911F7Bf063D": {
        "balance": "100000045291000000000",
        "nonce": "0",
        "storage": null,
        "hashBytecode": "0x0000000000000000000000000000000000000000000000000000000000000000"
      },
      "0x4d5Cf5032B2a844602278b01199ED191A86c93ff": {
        "balance": "199999954709000000000",
        "nonce": "1",
        "storage": null,
        "hashBytecode": "0x0000000000000000000000000000000000000000000000000000000000000000"
      },
      "0x1275fbb540c8efc58b812ba83b0d0b8b9917ae98": {
        "balance": "0",
        "nonce": "1",
        "storage": {
          "0x0000000000000000000000000000000000000000000000000000000000000000": "0xb390837f80c4a4a31d0039aaf49e02e51da5cf48000000000000000000000000"
        },
        "hashBytecode": "0x2affead3f875cae4f0e341db6188365357ffa86f9a0151168f649799630a0262"
      }
    },
    "timestamp": 1944498031,
    "newLocalExitRoot": "0x0000000000000000000000000000000000000000000000000000000000000000",
    "batchHashData": "0xd060edc5d03484f9a5779970bc843684522695c6bc616587efdce7b4e33f7030",
    "inputHash": "0xe47f9ed4d81c0028448134fe4be156015014c4330de11e4aa8e071c3d0fe7ed1",
    "globalExitRoot": "0x090bcaf734c4f06c93954a827b45a6e8c67b8e0fd1e0a35a1c5982d6961828f9",
    "oldLocalExitRoot": "0x0000000000000000000000000000000000000000000000000000000000000000",
    "batchL2Data": "0xea80843b9aca00830186a0941275fbb540c8efc58b812ba83b0d0b8b9917ae988084b8f27d1a8203e98080d03300a21c2fc17d0748af9d028245407531e70d6f1ffed78ebbfb81ca47051301873a1c0f7e16d9745a830e04817126cc62e3935106c20d9ea6b6cbc711e6931b"
  },
  {
    "id": 3,
    "description": "precompiled IDENTITY_0",
    "arity": 4,
    "chainIdSequencer": 1001,
    "defaultChainId": 1000,
    "sequencerAddress": "0x617b3a3528F9cDd6630fd3301B9c8911F7Bf063D",
    "sequencerPvtKey": "0x28b2b0318721be8c8339199172cd7cc8f5e273800a35616ec893083a4b32c02e",
    "genesis": {
      "accounts": [
        {
          "address": "0x617b3a3528F9cDd6630fd3301B9c8911F7Bf063D",
          "pvtKey": "0x28b2b0318721be8c8339199172cd7cc8f5e273800a35616ec893083a4b32c02e",
          "balance": "100000000000000000000",
          "nonce": "0"
        },
        {
          "address": "0x4d5Cf5032B2a844602278b01199ED191A86c93ff",
          "pvtKey": "0x4d27a600dce8c29b7bd080e29a26972377dbb04d7a27d919adbb602bf13cfd23",
          "balance": "200000000000000000000",
          "nonce": "0"
        }
      ],
      "contracts": [
        {
          "contractName": "Precompiled",
          "paramsDeploy": []
        }
      ]
    },
    "expectedOldRoot": "0x2163c4ed38d81ef20ac84f82bd8615efd2d1db63760506f18c31714fec298dea",
    "txs": [
      {
        "from": "0x4d5Cf5032B2a844602278b01199ED191A86c93ff",
        "to": "contract",
        "nonce": "0",
        "value": "0",
        "contractName": "Precompiled",
        "function": "identity_0",
        "params": [
          "0x1234567890123456789012345678901234567890123456789012345678901234567890"
        ],
        "gasLimit": 100000,
        "gasPrice": "1000000000",
        "chainId": 1001
      }
    ],
    "expectedNewRoot": "0xfbcbd39433f5dd841e71af6b2871f127bddf65754c41fd6b42eeb94bbe6607b3",
    "expectedNewLeafs": {
      "0x617b3a3528F9cDd6630fd3301B9c8911F7Bf063D": {
        "balance": "100000090253000000000",
        "nonce": "0",
        "storage": null,
        "hashBytecode": "0x0000000000000000000000000000000000000000000000000000000000000000"
      },
      "0x4d5Cf5032B2a844602278b01199ED191A86c93ff": {
        "balance": "199999909747000000000",
        "nonce": "1",
        "storage": null,
        "hashBytecode": "0x0000000000000000000000000000000000000000000000000000000000000000"
      },
      "0x1275fbb540c8efc58b812ba83b0d0b8b9917ae98": {
        "balance": "0",
        "nonce": "1",
        "storage": {
          "0x0000000000000000000000000000000000000000000000000000000000000001": "0x47",
          "0xb10e2d527612073b26eecdfd717e6a320cf44b4afac2b0732d9fcbe2b7fa0cf6": "0x1234567890123456789012345678901234567890123456789012345678901234",
          "0xb10e2d527612073b26eecdfd717e6a320cf44b4afac2b0732d9fcbe2b7fa0cf7": "0x5678900000000000000000000000000000000000000000000000000000000000"
        },
        "hashBytecode": "0x8fa50f24e58e9d0edcf48571f9046ff509832fbc6667bf51273100e16d8880c5"
      }
    },
    "timestamp": 1944498031,
    "newLocalExitRoot": "0x0000000000000000000000000000000000000000000000000000000000000000",
    "batchHashData": "0x9cecafdc4478601015659787478133f31dbc53a9dfc17cac7998f2cab4f74368",
    "inputHash": "0x9828182611def80a4415df845ae5be3dfebb1bea1a6f2f75c08310d343ba5d10",
    "globalExitRoot": "0x090bcaf734c4f06c93954a827b45a6e8c67b8e0fd1e0a35a1c5982d6961828f9",
    "oldLocalExitRoot": "0x0000000000000000000000000000000000000000000000000000000000000000",
    "batchL2Data": "0xf8ab80843b9aca00830186a0941275fbb540c8efc58b812ba83b0d0b8b9917ae9880b884324b638500000000000000000000000000000000000000000000000000000000000000200000000000000000000000000000000000000000000000000000000000000023123456789012345678901234567890123456789012345678901234567890123456789000000000000000000000000000000000000000000000000000000000008203e980801f1b3d4a6ed0ccb71e81af161692f685a177c20b19e76e1fa1dd3061677949ca535e72ced225955499dc57eae4d619d009b38775fab346a82dc3852e2f6fd17c1b"
  },
  {
    "id": 4,
    "description": "precompiled modexp_0",
    "arity": 4,
    "chainIdSequencer": 1001,
    "defaultChainId": 1000,
    "sequencerAddress": "0x617b3a3528F9cDd6630fd3301B9c8911F7Bf063D",
    "sequencerPvtKey": "0x28b2b0318721be8c8339199172cd7cc8f5e273800a35616ec893083a4b32c02e",
    "genesis": {
      "accounts": [
        {
          "address": "0x617b3a3528F9cDd6630fd3301B9c8911F7Bf063D",
          "pvtKey": "0x28b2b0318721be8c8339199172cd7cc8f5e273800a35616ec893083a4b32c02e",
          "balance": "100000000000000000000",
          "nonce": "0"
        },
        {
          "address": "0x4d5Cf5032B2a844602278b01199ED191A86c93ff",
          "pvtKey": "0x4d27a600dce8c29b7bd080e29a26972377dbb04d7a27d919adbb602bf13cfd23",
          "balance": "200000000000000000000",
          "nonce": "0"
        }
      ],
      "contracts": [
        {
          "contractName": "Precompiled",
          "paramsDeploy": []
        }
      ]
    },
    "expectedOldRoot": "0x2163c4ed38d81ef20ac84f82bd8615efd2d1db63760506f18c31714fec298dea",
    "txs": [
      {
        "from": "0x4d5Cf5032B2a844602278b01199ED191A86c93ff",
        "to": "contract",
        "nonce": "0",
        "value": "0",
        "contractName": "Precompiled",
        "function": "modexp_0",
        "params": [
          "0x0000000000000000000000000000000000000000000000000000000000000007",
          "0x0000000000000000000000000000000000000000000000000000000000000008",
          "0x0000000000000000000000000000000000000000000000000000000000000009"
        ],
        "gasLimit": 100000,
        "gasPrice": "1000000000",
        "chainId": 1001
      }
    ],
    "expectedNewRoot": "0x66135ee7f30c15e98ffbb3a9da7a6f15750b5874d3b7d6030a687dca228ad6aa",
    "expectedNewLeafs": {
      "0x617b3a3528F9cDd6630fd3301B9c8911F7Bf063D": {
        "balance": "100000044873000000000",
        "nonce": "0",
        "storage": null,
        "hashBytecode": "0x0000000000000000000000000000000000000000000000000000000000000000"
      },
      "0x4d5Cf5032B2a844602278b01199ED191A86c93ff": {
        "balance": "199999955127000000000",
        "nonce": "1",
        "storage": null,
        "hashBytecode": "0x0000000000000000000000000000000000000000000000000000000000000000"
      },
      "0x1275fbb540c8efc58b812ba83b0d0b8b9917ae98": {
        "balance": "0",
        "nonce": "1",
        "storage": {
          "0x0000000000000000000000000000000000000000000000000000000000000001": "0x04"
        },
        "hashBytecode": "0x8fa50f24e58e9d0edcf48571f9046ff509832fbc6667bf51273100e16d8880c5"
      }
    },
    "timestamp": 1944498031,
    "newLocalExitRoot": "0x0000000000000000000000000000000000000000000000000000000000000000",
    "batchHashData": "0x0870607466a33854de2ef51ba3d2b72ebbe4f46d070ec3abc22e91d1af07d8c3",
    "inputHash": "0x368268420698f7207da582f6f8dd8ed63a05adbe368eed7cdda03505f401197f",
    "globalExitRoot": "0x090bcaf734c4f06c93954a827b45a6e8c67b8e0fd1e0a35a1c5982d6961828f9",
    "oldLocalExitRoot": "0x0000000000000000000000000000000000000000000000000000000000000000",
    "batchL2Data": "0xf88b80843b9aca00830186a0941275fbb540c8efc58b812ba83b0d0b8b9917ae9880b8649737c9b70000000000000000000000000000000000000000000000000000000000000007000000000000000000000000000000000000000000000000000000000000000800000000000000000000000000000000000000000000000000000000000000098203e9808028f7a5ad1ba19f14aee1dcaa0b323ce9772b3e6e64741f099e7939398a4b713a433f4881304dd5a1e8bee60ab73e632660870a8e4d232d9965f0bd1070be21a91b"
  },
  {
    "id": 5,
    "description": "precompiled ecAdd",
    "arity": 4,
    "chainIdSequencer": 1001,
    "defaultChainId": 1000,
    "sequencerAddress": "0x617b3a3528F9cDd6630fd3301B9c8911F7Bf063D",
    "sequencerPvtKey": "0x28b2b0318721be8c8339199172cd7cc8f5e273800a35616ec893083a4b32c02e",
    "genesis": {
      "accounts": [
        {
          "address": "0x617b3a3528F9cDd6630fd3301B9c8911F7Bf063D",
          "pvtKey": "0x28b2b0318721be8c8339199172cd7cc8f5e273800a35616ec893083a4b32c02e",
          "balance": "100000000000000000000",
          "nonce": "0"
        },
        {
          "address": "0x4d5Cf5032B2a844602278b01199ED191A86c93ff",
          "pvtKey": "0x4d27a600dce8c29b7bd080e29a26972377dbb04d7a27d919adbb602bf13cfd23",
          "balance": "200000000000000000000",
          "nonce": "0"
        }
      ],
      "contracts": [
        {
          "contractName": "Precompiled",
          "paramsDeploy": []
        }
      ]
    },
    "expectedOldRoot": "0x2163c4ed38d81ef20ac84f82bd8615efd2d1db63760506f18c31714fec298dea",
    "txs": [
      {
        "from": "0x4d5Cf5032B2a844602278b01199ED191A86c93ff",
        "to": "contract",
        "nonce": "0",
        "value": "0",
        "contractName": "Precompiled",
        "function": "ecAdd_0",
        "params": [
          "0x0000000000000000000000000000000000000000000000000000000000000001",
          "0x0000000000000000000000000000000000000000000000000000000000000002",
          "0x0000000000000000000000000000000000000000000000000000000000000001",
          "0x0000000000000000000000000000000000000000000000000000000000000002"
        ],
        "gasLimit": 100000,
        "gasPrice": "1000000000",
        "chainId": 1001
      }
    ],
    "expectedNewRoot": "0xd159be2e485006195c6fa9b162651d01d8fe67cb27f63bf3119490f222012ba2",
    "expectedNewLeafs": {
      "0x617b3a3528F9cDd6630fd3301B9c8911F7Bf063D": {
        "balance": "100000068473000000000",
        "nonce": "0",
        "storage": null,
        "hashBytecode": "0x0000000000000000000000000000000000000000000000000000000000000000"
      },
      "0x4d5Cf5032B2a844602278b01199ED191A86c93ff": {
        "balance": "199999931527000000000",
        "nonce": "1",
        "storage": null,
        "hashBytecode": "0x0000000000000000000000000000000000000000000000000000000000000000"
      },
      "0x1275fbb540c8efc58b812ba83b0d0b8b9917ae98": {
        "balance": "0",
        "nonce": "1",
        "storage": {
          "0x0000000000000000000000000000000000000000000000000000000000000000": "0x030644e72e131a029b85045b68181585d97816a916871ca8d3c208c16d87cfd3",
          "0x0000000000000000000000000000000000000000000000000000000000000001": "0x15ed738c0e0a7c92e7845f96b2ae9c0a68a6a449e3538fc7ff3ebf7a5a18a2c4"
        },
        "hashBytecode": "0x8fa50f24e58e9d0edcf48571f9046ff509832fbc6667bf51273100e16d8880c5"
      }
    },
    "timestamp": 1944498031,
    "newLocalExitRoot": "0x0000000000000000000000000000000000000000000000000000000000000000",
    "batchHashData": "0x5fc35f3ef0087b6380285a85a5c2aade7ecbb1a12db8617fe7343f42d5fb138d",
    "inputHash": "0x7547b99419adc6ad139270f47c0cee1c0fc368ea076ec5e3a2fad2a97051fd04",
    "globalExitRoot": "0x090bcaf734c4f06c93954a827b45a6e8c67b8e0fd1e0a35a1c5982d6961828f9",
    "oldLocalExitRoot": "0x0000000000000000000000000000000000000000000000000000000000000000",
    "batchL2Data": "0xf8ab80843b9aca00830186a0941275fbb540c8efc58b812ba83b0d0b8b9917ae9880b8849a7d1a0600000000000000000000000000000000000000000000000000000000000000010000000000000000000000000000000000000000000000000000000000000002000000000000000000000000000000000000000000000000000000000000000100000000000000000000000000000000000000000000000000000000000000028203e98080bf61d2c6cdfc11ea25ccf724c649d1eca47dd838bd30494ee104cd5b36f00fd01cb1a12cc833965635cc52732520a9f7efe69e1d4e381758c2294d981a071be81b"
  }
]