[
  {
    "id": 0,
    "description": "2 accounts and 1 valid transaction (Contract simple call).",
    "arity": 4,
    "chainIdSequencer": 1001,
    "defaultChainId": 1000,
    "sequencerAddress": "0x617b3a3528F9cDd6630fd3301B9c8911F7Bf063D",
    "sequencerPvtKey": "0x28b2b0318721be8c8339199172cd7cc8f5e273800a35616ec893083a4b32c02e",
    "genesis": {
      "accounts": [
        {
          "address": "0x617b3a3528F9cDd6630fd3301B9c8911F7Bf063D",
          "pvtKey": "0x28b2b0318721be8c8339199172cd7cc8f5e273800a35616ec893083a4b32c02e",
          "balance": "100000000000000000000",
          "nonce": "0"
        },
        {
          "address": "0x4d5Cf5032B2a844602278b01199ED191A86c93ff",
          "pvtKey": "0x4d27a600dce8c29b7bd080e29a26972377dbb04d7a27d919adbb602bf13cfd23",
          "balance": "200000000000000000000",
          "nonce": "0"
        }
      ],
      "contracts": [
        {
          "contractName": "Test2",
          "paramsDeploy": {}
        }
      ]
    },
    "expectedOldRoot": "0xa44f267aed6e6d36b0ade0a79aad3f5818f2df1bb6ee8e764d9a9b4ccbb2347a",
    "txs": [
      {
        "from": "0x4d5Cf5032B2a844602278b01199ED191A86c93ff",
        "to": "contract",
        "nonce": "0",
        "value": "0",
        "contractName": "Test2",
        "function": "opAddTest",
        "params": [],
        "gasLimit": 3000000,
        "gasPrice": "1000000000",
        "chainId": 1000
      }
    ],
    "expectedNewRoot": "0xea0f0b638ad9ae6f8d013f2325ed8058b8fcf99f0c079ae7461e165babf4bd00",
    "expectedNewLeafs": {
      "0x617b3a3528F9cDd6630fd3301B9c8911F7Bf063D": {
        "balance": "100000021392000000000",
        "nonce": "0",
        "storage": null,
        "hashBytecode": "0x0000000000000000000000000000000000000000000000000000000000000000",
        "bytecodeLength": 0
      },
      "0x4d5Cf5032B2a844602278b01199ED191A86c93ff": {
        "balance": "199999978608000000000",
        "nonce": "1",
        "storage": null,
        "hashBytecode": "0x0000000000000000000000000000000000000000000000000000000000000000",
        "bytecodeLength": 0
      },
      "0x1275fbb540c8efc58b812ba83b0d0b8b9917ae98": {
        "balance": "0",
        "nonce": "1",
        "storage": {},
        "hashBytecode": "0xc0fd06b9925aa0ad80b36b53e4db33fd659858f947ae35572f980fb41f5af5e3",
        "bytecodeLength": 187
      },
      "0xA72217948Ea7D968A64c77F83908cea136bBF964": {
        "balance": "0",
        "nonce": "0",
        "storage": null,
        "hashBytecode": "0x0000000000000000000000000000000000000000000000000000000000000000",
        "bytecodeLength": 0
      }
    },
    "timestamp": 1944498031,
    "newLocalExitRoot": "0x0000000000000000000000000000000000000000000000000000000000000000",
    "batchHashData": "0x628ddef24739dc540db5f8f1c7c52374a2195af3ed05daa59f79c2dd3e671c97",
    "inputHash": "0xd451ef94862030afec51814a2144db73ca226300e08a5df8e78f16c57181bd66",
    "globalExitRoot": "0x090bcaf734c4f06c93954a827b45a6e8c67b8e0fd1e0a35a1c5982d6961828f9",
    "oldLocalExitRoot": "0x0000000000000000000000000000000000000000000000000000000000000000",
    "batchL2Data": "0xea80843b9aca00832dc6c0941275fbb540c8efc58b812ba83b0d0b8b9917ae988084f6d97e8c8203e88080ff9f1cd0e7b44706bba373f8b2702a46b3853d8442603d9d7e0dc9467bb2c5f722fca2cedeeb776979aadace578b2da49b2317c9d17228e256bb792383f0e79d1c"
  },
  {
    "id": 1,
    "description": "2 accounts and 1 valid transaction (Contract assembly call).",
    "arity": 4,
    "chainIdSequencer": 1001,
    "defaultChainId": 1000,
    "sequencerAddress": "0x617b3a3528F9cDd6630fd3301B9c8911F7Bf063D",
    "sequencerPvtKey": "0x28b2b0318721be8c8339199172cd7cc8f5e273800a35616ec893083a4b32c02e",
    "genesis": {
      "accounts": [
        {
          "address": "0x617b3a3528F9cDd6630fd3301B9c8911F7Bf063D",
          "pvtKey": "0x28b2b0318721be8c8339199172cd7cc8f5e273800a35616ec893083a4b32c02e",
          "balance": "100000000000000000000",
          "nonce": "0"
        },
        {
          "address": "0x4d5Cf5032B2a844602278b01199ED191A86c93ff",
          "pvtKey": "0x4d27a600dce8c29b7bd080e29a26972377dbb04d7a27d919adbb602bf13cfd23",
          "balance": "200000000000000000000",
          "nonce": "0"
        }
      ],
      "contracts": [
        {
          "contractName": "Test3",
          "paramsDeploy": {}
        }
      ]
    },
    "expectedOldRoot": "0xa6759da815f74a4b2e76b0c3da15bc2239a875c034f81d01284dcab00ac68e52",
    "txs": [
      {
        "from": "0x4d5Cf5032B2a844602278b01199ED191A86c93ff",
        "to": "contract",
        "nonce": "0",
        "value": "0",
        "contractName": "Test3",
        "function": "opAddTest",
        "params": [],
        "gasLimit": 100000,
        "gasPrice": "1000000000",
        "chainId": 1000
      }
    ],
    "expectedNewRoot": "0xabf80b72f26436d73af0e4e0a615beddaa5d1ef54cbfb91ff2d7a3ca02317c83",
    "expectedNewLeafs": {
      "0x617b3a3528F9cDd6630fd3301B9c8911F7Bf063D": {
        "balance": "100000021204000000000",
        "nonce": "0",
        "storage": null,
        "hashBytecode": "0x0000000000000000000000000000000000000000000000000000000000000000",
        "bytecodeLength": 0
      },
      "0x4d5Cf5032B2a844602278b01199ED191A86c93ff": {
        "balance": "199999978796000000000",
        "nonce": "1",
        "storage": null,
        "hashBytecode": "0x0000000000000000000000000000000000000000000000000000000000000000",
        "bytecodeLength": 0
      },
      "0x1275fbb540c8efc58b812ba83b0d0b8b9917ae98": {
        "balance": "0",
        "nonce": "1",
        "storage": {},
        "hashBytecode": "0x5037b161cfa1abf622d43de10a680f4dec05ea62fb4be3a84c14cbc21ac12ef9",
        "bytecodeLength": 190
      }
    },
    "timestamp": 1944498031,
    "newLocalExitRoot": "0x0000000000000000000000000000000000000000000000000000000000000000",
    "batchHashData": "0xa5cbede5ea513f2af6b2af53b637278e786930533f433bea1006d6e6c7e14b93",
    "inputHash": "0xd770ee4c771be017f5df4074a0b1d58225659fbc756f5ca444ab2e95432217af",
    "globalExitRoot": "0x090bcaf734c4f06c93954a827b45a6e8c67b8e0fd1e0a35a1c5982d6961828f9",
    "oldLocalExitRoot": "0x0000000000000000000000000000000000000000000000000000000000000000",
    "batchL2Data": "0xea80843b9aca00830186a0941275fbb540c8efc58b812ba83b0d0b8b9917ae988084f6d97e8c8203e88080188433f00c62510806c1f23e7c14de4ce4458e37b3fbb410eb6c5e604fd31c8e0a80fdfe2b40f7a1d2aaf143fb2bb6f1028dc8b3025019fa72ac83265396da2d1c"
  },
  {
    "id": 2,
    "description": "2 accounts and 1 valid transaction (contract update storage).",
    "arity": 4,
    "chainIdSequencer": 1001,
    "defaultChainId": 1000,
    "sequencerAddress": "0x617b3a3528F9cDd6630fd3301B9c8911F7Bf063D",
    "sequencerPvtKey": "0x28b2b0318721be8c8339199172cd7cc8f5e273800a35616ec893083a4b32c02e",
    "genesis": {
      "accounts": [
        {
          "address": "0x617b3a3528F9cDd6630fd3301B9c8911F7Bf063D",
          "pvtKey": "0x28b2b0318721be8c8339199172cd7cc8f5e273800a35616ec893083a4b32c02e",
          "balance": "100000000000000000000",
          "nonce": "0"
        },
        {
          "address": "0x4d5Cf5032B2a844602278b01199ED191A86c93ff",
          "pvtKey": "0x4d27a600dce8c29b7bd080e29a26972377dbb04d7a27d919adbb602bf13cfd23",
          "balance": "200000000000000000000",
          "nonce": "0"
        }
      ],
      "contracts": [
        {
          "contractName": "Test",
          "paramsDeploy": {}
        }
      ]
    },
    "expectedOldRoot": "0x8753a67a8c1e1f34361688bcb4ade9a303748a50f396e9b2184224f96f17e688",
    "txs": [
      {
        "from": "0x4d5Cf5032B2a844602278b01199ED191A86c93ff",
        "to": "contract",
        "nonce": "0",
        "value": "0",
        "contractName": "Test",
        "function": "setFirst",
        "params": [
          5
        ],
        "gasLimit": 20000000,
        "gasPrice": "1000000000",
        "chainId": 1000
      }
    ],
    "expectedNewRoot": "0x9a6dfccd49a0e6387958dfd3a70519b1da73dac62c5a878a356c1940adcfc488",
    "expectedNewLeafs": {
      "0x617b3a3528F9cDd6630fd3301B9c8911F7Bf063D": {
        "balance": "100000026624000000000",
        "nonce": "0",
        "storage": null,
        "hashBytecode": "0x0000000000000000000000000000000000000000000000000000000000000000",
        "bytecodeLength": 0
      },
      "0x4d5Cf5032B2a844602278b01199ED191A86c93ff": {
        "balance": "199999973376000000000",
        "nonce": "1",
        "storage": null,
        "hashBytecode": "0x0000000000000000000000000000000000000000000000000000000000000000",
        "bytecodeLength": 0
      },
      "0x1275fbb540c8efc58b812ba83b0d0b8b9917ae98": {
        "balance": "0",
        "nonce": "1",
        "storage": {
          "0x0000000000000000000000000000000000000000000000000000000000000000": "0x05",
          "0x0000000000000000000000000000000000000000000000000000000000000001": "0x02"
        },
        "hashBytecode": "0x37b6873a51b6e346373661b3579866c2a9e055364b6734e8232c61a1f2358428",
        "bytecodeLength": 643
      }
    },
    "timestamp": 1944498031,
    "newLocalExitRoot": "0x0000000000000000000000000000000000000000000000000000000000000000",
    "batchHashData": "0x9032b4122de49eec6d22c9b16e95faca2f117f604cf738c5c24de59a2bc9b404",
    "inputHash": "0xcd26cbea4889ba5ae23507faa76ffd4600c7d725b379ab332b0f927761c8ec61",
    "globalExitRoot": "0x090bcaf734c4f06c93954a827b45a6e8c67b8e0fd1e0a35a1c5982d6961828f9",
    "oldLocalExitRoot": "0x0000000000000000000000000000000000000000000000000000000000000000",
    "batchL2Data": "0xf84b80843b9aca008401312d00941275fbb540c8efc58b812ba83b0d0b8b9917ae9880a45ef3d3dd00000000000000000000000000000000000000000000000000000000000000058203e88080b9e56205c35fb04c04c210588c9b205a3fe623c618ae62e8b0cadc76cd122590504a83adfd16e1b5970ccbd74689f2779475c5429e919cfff5774d171520b5031c"
  },
  {
    "id": 3,
    "description": "Call function with msg value",
    "arity": 4,
    "chainIdSequencer": 1001,
    "defaultChainId": 1000,
    "sequencerAddress": "0x617b3a3528F9cDd6630fd3301B9c8911F7Bf063D",
    "sequencerPvtKey": "0x28b2b0318721be8c8339199172cd7cc8f5e273800a35616ec893083a4b32c02e",
    "genesis": {
      "accounts": [
        {
          "address": "0x617b3a3528F9cDd6630fd3301B9c8911F7Bf063D",
          "pvtKey": "0x28b2b0318721be8c8339199172cd7cc8f5e273800a35616ec893083a4b32c02e",
          "balance": "100000000000000000000",
          "nonce": "0"
        },
        {
          "address": "0x4d5Cf5032B2a844602278b01199ED191A86c93ff",
          "pvtKey": "0x4d27a600dce8c29b7bd080e29a26972377dbb04d7a27d919adbb602bf13cfd23",
          "balance": "200000000000000000000",
          "nonce": "0"
        }
      ],
      "contracts": [
        {
          "contractName": "Test6",
          "paramsDeploy": {}
        }
      ]
    },
    "expectedOldRoot": "0x9434e7ffbcf35ad25c3a2ed700cccb595ce0ddd7ea030d0958ee4fd8ea879ad1",
    "txs": [
      {
        "from": "0x4d5Cf5032B2a844602278b01199ED191A86c93ff",
        "to": "contract",
        "nonce": "0",
        "value": "1000000",
        "contractName": "Test6",
        "function": "checkMsgValue",
        "params": [],
        "gasLimit": 20000000,
        "gasPrice": "1000000000",
        "chainId": 1000
      }
    ],
    "expectedNewRoot": "0x99355efc847937ddb35514d6702fcb40baaf7a699e0d339f1802426899d95fa4",
    "expectedNewLeafs": {
      "0x617b3a3528F9cDd6630fd3301B9c8911F7Bf063D": {
        "balance": "100000043300000000000",
        "nonce": "0",
        "storage": null,
        "hashBytecode": "0x0000000000000000000000000000000000000000000000000000000000000000",
        "bytecodeLength": 0
      },
      "0x4d5Cf5032B2a844602278b01199ED191A86c93ff": {
        "balance": "199999956699999000000",
        "nonce": "1",
        "storage": null,
        "hashBytecode": "0x0000000000000000000000000000000000000000000000000000000000000000",
        "bytecodeLength": 0
      },
      "0x1275fbb540c8efc58b812ba83b0d0b8b9917ae98": {
        "balance": "1000000",
        "nonce": "1",
        "storage": {
          "0x0000000000000000000000000000000000000000000000000000000000000000": "0x0f4240"
        },
        "hashBytecode": "0xbaa78ad555575ba1719ccf5bfb536fcd40f8236311312c36b4529eb14dc36a3f",
        "bytecodeLength": 206
      }
    },
    "timestamp": 1944498031,
    "newLocalExitRoot": "0x0000000000000000000000000000000000000000000000000000000000000000",
    "batchHashData": "0x588158bd3412d5fa8a4332af35944d831743105dd69aeb37c2f4504926da4b0f",
    "inputHash": "0x1281e8111918853a04aea85ebed324400f48c3331294676979cba629eb650a22",
    "globalExitRoot": "0x090bcaf734c4f06c93954a827b45a6e8c67b8e0fd1e0a35a1c5982d6961828f9",
    "oldLocalExitRoot": "0x0000000000000000000000000000000000000000000000000000000000000000",
    "batchL2Data": "0xee80843b9aca008401312d00941275fbb540c8efc58b812ba83b0d0b8b9917ae98830f4240842b7647818203e880802d3ea000fbb3786494f83d5e3261d9925740a85ae8af482161beba91efa6eb2c1305155a01acafbb73dc6d075e63350e14df538b20a4f0ae6f3a0590f4c0c4281b"
  },
  {
    "id": 4,
    "description": "Deploy + call with logs",
    "arity": 4,
    "chainIdSequencer": 1001,
    "defaultChainId": 1000,
    "sequencerAddress": "0x617b3a3528F9cDd6630fd3301B9c8911F7Bf063D",
    "sequencerPvtKey": "0x28b2b0318721be8c8339199172cd7cc8f5e273800a35616ec893083a4b32c02e",
    "genesis": {
      "accounts": [
        {
          "address": "0x617b3a3528F9cDd6630fd3301B9c8911F7Bf063D",
          "pvtKey": "0x28b2b0318721be8c8339199172cd7cc8f5e273800a35616ec893083a4b32c02e",
          "balance": "100000000000000000000",
          "nonce": "0"
        },
        {
          "address": "0x4d5Cf5032B2a844602278b01199ED191A86c93ff",
          "pvtKey": "0x4d27a600dce8c29b7bd080e29a26972377dbb04d7a27d919adbb602bf13cfd23",
          "balance": "200000000000000000000",
          "nonce": "0"
        }
      ]
    },
    "expectedOldRoot": "0x4a9bfcb163ec91c5beb22e6aca41592433092c8c7821b01d37fd0de483f9265d",
    "txs": [
      {
        "from": "0x4d5Cf5032B2a844602278b01199ED191A86c93ff",
        "to": "deploy",
        "nonce": "0",
        "value": "0",
        "contractName": "Test9",
        "params": [],
        "gasLimit": 10000000,
        "gasPrice": "1000000000",
        "chainId": 1000
      },
      {
        "from": "0x4d5Cf5032B2a844602278b01199ED191A86c93ff",
        "to": "contract",
        "nonce": "1",
        "value": "0",
        "contractName": "Test9",
        "function": "emitLogs",
        "params": [],
        "gasLimit": 10000000,
        "gasPrice": "1000000000",
        "chainId": 1000
      }
    ],
    "expectedNewRoot": "0xaa40e321886a403ff049a1d17d229dee255d03f58539142131dd3c5ff506c994",
    "expectedNewLeafs": {
      "0x617b3a3528F9cDd6630fd3301B9c8911F7Bf063D": {
        "balance": "100000109262000000000",
        "nonce": "0",
        "storage": null,
        "hashBytecode": "0x0000000000000000000000000000000000000000000000000000000000000000",
        "bytecodeLength": 0
      },
      "0x4d5Cf5032B2a844602278b01199ED191A86c93ff": {
        "balance": "199999890738000000000",
        "nonce": "2",
        "storage": null,
        "hashBytecode": "0x0000000000000000000000000000000000000000000000000000000000000000",
        "bytecodeLength": 0
      },
      "0x1275fbb540c8efc58b812ba83b0d0b8b9917ae98": {
        "balance": "0",
        "nonce": "0",
        "storage": null,
        "hashBytecode": "0x0000000000000000000000000000000000000000000000000000000000000000",
        "bytecodeLength": 0
      },
      "0xA72217948Ea7D968A64c77F83908cea136bBF964": {
        "balance": "0",
        "nonce": "1",
        "storage": {},
        "hashBytecode": "0xcd97dd8bbb10e4d3224c624f9c8fff54779e469a2c6f8a955d1620d3c332f38d",
        "bytecodeLength": 155
      }
    },
    "timestamp": 1944498031,
    "newLocalExitRoot": "0x0000000000000000000000000000000000000000000000000000000000000000",
    "batchHashData": "0x12767d8725ac02f4c641cc9abeca3aba00cff2c8225b603f42bfba97278d958c",
    "inputHash": "0x88ed5b0de2dd84fb646fcc09a2afe4e58c82c86b3413da124dcfe21534ab8a78",
    "globalExitRoot": "0x090bcaf734c4f06c93954a827b45a6e8c67b8e0fd1e0a35a1c5982d6961828f9",
    "oldLocalExitRoot": "0x0000000000000000000000000000000000000000000000000000000000000000",
    "batchL2Data": "0xf8cc80843b9aca00839896808080b8b96080604052348015600f57600080fd5b50609b8061001e6000396000f3fe6080604052348015600f57600080fd5b506004361060285760003560e01c80637966b4f614602d575b600080fd5b60336035565b005b60017f977224b24e70d33f3be87246a29c5636cfc8dd6853e175b54af01ff493ffac6260405160405180910390a256fea2646970667358221220b8ba16c665559a93c46649c97537be3a539e8dc5ff14f22dae7deefdd7ec3fca64736f6c634300080700338203e8808040e17e1da3300d9822524cab1227ef3c6040c9713b45af77179483e63dc454b11086020b5ac210a75dfef2c70c52542249f273b6f48e08dc827362cde6d3f1871cea01843b9aca008398968094a72217948ea7d968a64c77f83908cea136bbf96480847966b4f68203e880805f0f678b8033527429247c8667eb528168316d951494347ce99898f179f479440c76f2ccb6b0869585d30c80e97f2e8dfc7f6782390345b98ee00668bedf0bf61c"
  }
]