[
  {
    "id": 0,
    "description": "opSELFDESTRUCT non-empty receiver",
    "arity": 4,
    "chainIdSequencer": 1001,
    "defaultChainId": 1000,
    "sequencerAddress": "0x617b3a3528F9cDd6630fd3301B9c8911F7Bf063D",
    "sequencerPvtKey": "0x28b2b0318721be8c8339199172cd7cc8f5e273800a35616ec893083a4b32c02e",
    "genesis": {
      "accounts": [
        {
          "address": "0x617b3a3528F9cDd6630fd3301B9c8911F7Bf063D",
          "pvtKey": "0x28b2b0318721be8c8339199172cd7cc8f5e273800a35616ec893083a4b32c02e",
          "balance": "100000000000000000000",
          "nonce": "0"
        },
        {
          "address": "0x4d5Cf5032B2a844602278b01199ED191A86c93ff",
          "pvtKey": "0x4d27a600dce8c29b7bd080e29a26972377dbb04d7a27d919adbb602bf13cfd23",
          "balance": "200000000000000000000",
          "nonce": "0"
        },
        {
          "address": "0xEEEeF5032B2A844602278B01199ED191a86cEEeE",
          "balance": "0",
          "nonce": "1"
        }
      ],
      "contracts": [
        {
          "contractName": "Selfdestruct",
          "paramsDeploy": {}
        }
      ]
    },
    "expectedOldRoot": "0x84ed83538e7a4d758c98eaa4ad4a1f458e5ba28af1341be5a1d6618e3d5268df",
    "txs": [
      {
        "from": "0x617b3a3528F9cDd6630fd3301B9c8911F7Bf063D",
        "to": "contract",
        "nonce": "0",
        "value": "0",
        "contractName": "Selfdestruct",
        "function": "setReceiver",
        "params": [
          "0xEEEeF5032B2A844602278B01199ED191a86cEEeE"
        ],
        "gasLimit": 100000,
        "gasPrice": "1000000000",
        "chainId": 1001
      },
      {
        "from": "0x617b3a3528F9cDd6630fd3301B9c8911F7Bf063D",
        "to": "contract",
        "nonce": "1",
        "value": "123456789",
        "contractName": "Selfdestruct",
        "function": "setVal",
        "params": [],
        "gasLimit": 100000,
        "gasPrice": "1000000000",
        "chainId": 1001
      },
      {
        "from": "0x4d5Cf5032B2a844602278b01199ED191A86c93ff",
        "to": "contract",
        "nonce": "0",
        "value": "0",
        "contractName": "Selfdestruct",
        "function": "destruct",
        "params": [],
        "gasLimit": 100000,
        "gasPrice": "1000000000",
        "chainId": 1001
      }
    ],
    "expectedNewRoot": "0x1d9d928f17fa2c4a751d649d8d785232625e605551b99949a1820e90a37f3144",
    "expectedNewLeafs": {
      "0x0000000000000000000000000000000000000000": {
        "balance": "0",
        "nonce": "0",
        "storage": {
          "0xad3228b676f7d3cd4284a5443f17f1962b36e491b30a40b2405849e597ba5fb5": "0x84ed83538e7a4d758c98eaa4ad4a1f458e5ba28af1341be5a1d6618e3d5268df"
        },
        "hashBytecode": "0x0000000000000000000000000000000000000000000000000000000000000000",
        "bytecodeLength": 0
      },
      "0xAE4bB80bE56B819606589DE61d5ec3b522EEB032": {
        "balance": "0",
        "nonce": "0",
        "storage": {
          "0x53d3f126103a7f7d6245751d2392e0245bf71479d10a3c27a5b501ace6dde1b7": "0x01"
        },
        "hashBytecode": "0x0000000000000000000000000000000000000000000000000000000000000000",
        "bytecodeLength": 0
      },
      "0x1275fbb540c8efc58b812ba83b0d0b8b9917ae98": {
        "balance": "0",
        "nonce": "1",
        "storage": {},
        "hashBytecode": "0x9ea9cdd4fcc3b687a95359d7a39fac379293d0de4d6b422d98768e44b3ac654a",
        "bytecodeLength": 703
      },
      "0x617b3a3528F9cDd6630fd3301B9c8911F7Bf063D": {
        "balance": "100000000000000000000",
        "nonce": "0",
        "storage": null,
        "hashBytecode": "0x0000000000000000000000000000000000000000000000000000000000000000",
        "bytecodeLength": 0
      },
      "0x4d5Cf5032B2a844602278b01199ED191A86c93ff": {
        "balance": "200000000000000000000",
        "nonce": "0",
        "storage": null,
        "hashBytecode": "0x0000000000000000000000000000000000000000000000000000000000000000",
        "bytecodeLength": 0
      },
      "0xEEEeF5032B2A844602278B01199ED191a86cEEeE": {
        "balance": "0",
        "nonce": "1",
        "storage": null,
        "hashBytecode": "0x0000000000000000000000000000000000000000000000000000000000000000",
        "bytecodeLength": 0
      }
    },
    "timestamp": 1944498031,
    "newLocalExitRoot": "0x0000000000000000000000000000000000000000000000000000000000000000",
    "batchHashData": "0xefa8cf3ab7d068a47cc8d0ebd489f4a89c062e78b86260c7840225fb34ee2a13",
    "inputHash": "0xf780c3088c1962cfe6636fc86b818ad92bfe83d53979c29161c6ada654371491",
    "globalExitRoot": "0x090bcaf734c4f06c93954a827b45a6e8c67b8e0fd1e0a35a1c5982d6961828f9",
    "oldLocalExitRoot": "0x0000000000000000000000000000000000000000000000000000000000000000",
    "batchL2Data": "0xf84a80843b9aca00830186a0941275fbb540c8efc58b812ba83b0d0b8b9917ae9880a4718da7ee000000000000000000000000eeeef5032b2a844602278b01199ed191a86ceeee8203e98080a457712a6eb67d18d64cf0bb9913a8da248ad89357496274a2c08e2397ac528f6e24598f11ee531f0f63f6066f893f736ebf6202db25e52d31d8203d046c54ed1bee01843b9aca00830186a0941275fbb540c8efc58b812ba83b0d0b8b9917ae9884075bcd15845cfb28e78203e980807b9752d8bb13b79712282210eea9857d26cf931ef506cf3d79502145989f74d00f9fcb01c3ef75732036b49c45dc2c18b356b303933dad72e3954de1e628e8761cea80843b9aca00830186a0941275fbb540c8efc58b812ba83b0d0b8b9917ae9880842b68b9c68203e98080828473d3d621d9ea1f018e94e70623d2e882a445c4938519a1f2041442fd64de580e655d2a43db475b852974fa551b7743442ebb59613e8009d940ce40ef138d1c"
  },
  {
    "id": 1,
    "description": "opSELFDESTRUCT empty receiver",
    "arity": 4,
    "chainIdSequencer": 1001,
    "defaultChainId": 1000,
    "sequencerAddress": "0x617b3a3528F9cDd6630fd3301B9c8911F7Bf063D",
    "sequencerPvtKey": "0x28b2b0318721be8c8339199172cd7cc8f5e273800a35616ec893083a4b32c02e",
    "genesis": {
      "accounts": [
        {
          "address": "0x617b3a3528F9cDd6630fd3301B9c8911F7Bf063D",
          "pvtKey": "0x28b2b0318721be8c8339199172cd7cc8f5e273800a35616ec893083a4b32c02e",
          "balance": "100000000000000000000",
          "nonce": "0"
        },
        {
          "address": "0x4d5Cf5032B2a844602278b01199ED191A86c93ff",
          "pvtKey": "0x4d27a600dce8c29b7bd080e29a26972377dbb04d7a27d919adbb602bf13cfd23",
          "balance": "200000000000000000000",
          "nonce": "0"
        },
        {
          "address": "0xEEEeF5032B2A844602278B01199ED191a86cEEeE",
          "balance": "0",
          "nonce": "0"
        }
      ],
      "contracts": [
        {
          "contractName": "Selfdestruct",
          "paramsDeploy": {}
        }
      ]
    },
    "expectedOldRoot": "0x54c9541f9db206154454b1c03acb89ccd0fe31e2047c77eed62d6fd7095a991b",
    "txs": [
      {
        "from": "0x617b3a3528F9cDd6630fd3301B9c8911F7Bf063D",
        "to": "contract",
        "nonce": "0",
        "value": "0",
        "contractName": "Selfdestruct",
        "function": "setReceiver",
        "params": [
          "0xEEEeF5032B2A844602278B01199ED191a86cEEeE"
        ],
        "gasLimit": 100000,
        "gasPrice": "1000000000",
        "chainId": 1001
      },
      {
        "from": "0x617b3a3528F9cDd6630fd3301B9c8911F7Bf063D",
        "to": "contract",
        "nonce": "1",
        "value": "123456789",
        "contractName": "Selfdestruct",
        "function": "setVal",
        "params": [],
        "gasLimit": 100000,
        "gasPrice": "1000000000",
        "chainId": 1001
      },
      {
        "from": "0x4d5Cf5032B2a844602278b01199ED191A86c93ff",
        "to": "contract",
        "nonce": "0",
        "value": "0",
        "contractName": "Selfdestruct",
        "function": "destruct",
        "params": [],
        "gasLimit": 100000,
        "gasPrice": "1000000000",
        "chainId": 1001
      }
    ],
    "expectedNewRoot": "0x4f209e1671cf631cd773452772312ecf08876cb86a816705616b92d62158695d",
    "expectedNewLeafs": {
      "0x0000000000000000000000000000000000000000": {
        "balance": "0",
        "nonce": "0",
        "storage": {
          "0xad3228b676f7d3cd4284a5443f17f1962b36e491b30a40b2405849e597ba5fb5": "0x54c9541f9db206154454b1c03acb89ccd0fe31e2047c77eed62d6fd7095a991b"
        },
        "hashBytecode": "0x0000000000000000000000000000000000000000000000000000000000000000",
        "bytecodeLength": 0
      },
      "0xAE4bB80bE56B819606589DE61d5ec3b522EEB032": {
        "balance": "0",
        "nonce": "0",
        "storage": {
          "0x53d3f126103a7f7d6245751d2392e0245bf71479d10a3c27a5b501ace6dde1b7": "0x01"
        },
        "hashBytecode": "0x0000000000000000000000000000000000000000000000000000000000000000",
        "bytecodeLength": 0
      },
      "0x1275fbb540c8efc58b812ba83b0d0b8b9917ae98": {
        "balance": "0",
        "nonce": "1",
        "storage": {},
        "hashBytecode": "0x9ea9cdd4fcc3b687a95359d7a39fac379293d0de4d6b422d98768e44b3ac654a",
        "bytecodeLength": 703
      },
      "0x617b3a3528F9cDd6630fd3301B9c8911F7Bf063D": {
        "balance": "100000000000000000000",
        "nonce": "0",
        "storage": null,
        "hashBytecode": "0x0000000000000000000000000000000000000000000000000000000000000000",
        "bytecodeLength": 0
      },
      "0x4d5Cf5032B2a844602278b01199ED191A86c93ff": {
        "balance": "200000000000000000000",
        "nonce": "0",
        "storage": null,
        "hashBytecode": "0x0000000000000000000000000000000000000000000000000000000000000000",
        "bytecodeLength": 0
      },
      "0xEEEeF5032B2A844602278B01199ED191a86cEEeE": {
        "balance": "0",
        "nonce": "0",
        "storage": null,
        "hashBytecode": "0x0000000000000000000000000000000000000000000000000000000000000000",
        "bytecodeLength": 0
      }
    },
    "timestamp": 1944498031,
    "newLocalExitRoot": "0x0000000000000000000000000000000000000000000000000000000000000000",
    "batchHashData": "0xefa8cf3ab7d068a47cc8d0ebd489f4a89c062e78b86260c7840225fb34ee2a13",
    "inputHash": "0x288361889cf881793375396dd415ac07d57a3b7755f5a41050851213727a213e",
    "globalExitRoot": "0x090bcaf734c4f06c93954a827b45a6e8c67b8e0fd1e0a35a1c5982d6961828f9",
    "oldLocalExitRoot": "0x0000000000000000000000000000000000000000000000000000000000000000",
    "batchL2Data": "0xf84a80843b9aca00830186a0941275fbb540c8efc58b812ba83b0d0b8b9917ae9880a4718da7ee000000000000000000000000eeeef5032b2a844602278b01199ed191a86ceeee8203e98080a457712a6eb67d18d64cf0bb9913a8da248ad89357496274a2c08e2397ac528f6e24598f11ee531f0f63f6066f893f736ebf6202db25e52d31d8203d046c54ed1bee01843b9aca00830186a0941275fbb540c8efc58b812ba83b0d0b8b9917ae9884075bcd15845cfb28e78203e980807b9752d8bb13b79712282210eea9857d26cf931ef506cf3d79502145989f74d00f9fcb01c3ef75732036b49c45dc2c18b356b303933dad72e3954de1e628e8761cea80843b9aca00830186a0941275fbb540c8efc58b812ba83b0d0b8b9917ae9880842b68b9c68203e98080828473d3d621d9ea1f018e94e70623d2e882a445c4938519a1f2041442fd64de580e655d2a43db475b852974fa551b7743442ebb59613e8009d940ce40ef138d1c"
  },
  {
    "id": 2,
    "description": "opSELFDESTRUCT non-empty cold receiver",
    "arity": 4,
    "chainIdSequencer": 1001,
    "defaultChainId": 1000,
    "sequencerAddress": "0x617b3a3528F9cDd6630fd3301B9c8911F7Bf063D",
    "sequencerPvtKey": "0x28b2b0318721be8c8339199172cd7cc8f5e273800a35616ec893083a4b32c02e",
    "genesis": {
      "accounts": [
        {
          "address": "0x617b3a3528F9cDd6630fd3301B9c8911F7Bf063D",
          "pvtKey": "0x28b2b0318721be8c8339199172cd7cc8f5e273800a35616ec893083a4b32c02e",
          "balance": "100000000000000000000",
          "nonce": "0"
        },
        {
          "address": "0x4d5Cf5032B2a844602278b01199ED191A86c93ff",
          "pvtKey": "0x4d27a600dce8c29b7bd080e29a26972377dbb04d7a27d919adbb602bf13cfd23",
          "balance": "200000000000000000000",
          "nonce": "0"
        },
        {
          "address": "0xEEEeF5032B2A844602278B01199ED191a86cEEeE",
          "balance": "0",
          "nonce": "0"
        }
      ],
      "contracts": [
        {
          "contractName": "Selfdestruct",
          "paramsDeploy": {}
        }
      ]
    },
    "expectedOldRoot": "0x54c9541f9db206154454b1c03acb89ccd0fe31e2047c77eed62d6fd7095a991b",
    "txs": [
      {
        "from": "0x617b3a3528F9cDd6630fd3301B9c8911F7Bf063D",
        "to": "contract",
        "nonce": "0",
        "value": "0",
        "contractName": "Selfdestruct",
        "function": "setReceiver",
        "params": [
          "0xEEEeF5032B2A844602278B01199ED191a86cEEeE"
        ],
        "gasLimit": 100000,
        "gasPrice": "1000000000",
        "chainId": 1001
      },
      {
        "from": "0x617b3a3528F9cDd6630fd3301B9c8911F7Bf063D",
        "to": "contract",
        "nonce": "1",
        "value": "123456789",
        "contractName": "Selfdestruct",
        "function": "setVal",
        "params": [],
        "gasLimit": 100000,
        "gasPrice": "1000000000",
        "chainId": 1001
      },
      {
        "from": "0x617b3a3528F9cDd6630fd3301B9c8911F7Bf063D",
        "to": "0xEEEeF5032B2A844602278B01199ED191a86cEEeE",
        "nonce": "2",
        "value": "3",
        "gasLimit": 100000,
        "gasPrice": "1000000000",
        "chainId": 1001
      },
      {
        "from": "0x4d5Cf5032B2a844602278b01199ED191A86c93ff",
        "to": "contract",
        "nonce": "0",
        "value": "0",
        "contractName": "Selfdestruct",
        "function": "destruct",
        "params": [],
        "gasLimit": 100000,
        "gasPrice": "1000000000",
        "chainId": 1001
      }
    ],
    "expectedNewRoot": "0x4f209e1671cf631cd773452772312ecf08876cb86a816705616b92d62158695d",
    "expectedNewLeafs": {
      "0x0000000000000000000000000000000000000000": {
        "balance": "0",
        "nonce": "0",
        "storage": {
          "0xad3228b676f7d3cd4284a5443f17f1962b36e491b30a40b2405849e597ba5fb5": "0x54c9541f9db206154454b1c03acb89ccd0fe31e2047c77eed62d6fd7095a991b"
        },
        "hashBytecode": "0x0000000000000000000000000000000000000000000000000000000000000000",
        "bytecodeLength": 0
      },
      "0xAE4bB80bE56B819606589DE61d5ec3b522EEB032": {
        "balance": "0",
        "nonce": "0",
        "storage": {
          "0x53d3f126103a7f7d6245751d2392e0245bf71479d10a3c27a5b501ace6dde1b7": "0x01"
        },
        "hashBytecode": "0x0000000000000000000000000000000000000000000000000000000000000000",
        "bytecodeLength": 0
      },
      "0x1275fbb540c8efc58b812ba83b0d0b8b9917ae98": {
        "balance": "0",
        "nonce": "1",
        "storage": {},
        "hashBytecode": "0x9ea9cdd4fcc3b687a95359d7a39fac379293d0de4d6b422d98768e44b3ac654a",
        "bytecodeLength": 703
      },
      "0x617b3a3528F9cDd6630fd3301B9c8911F7Bf063D": {
        "balance": "100000000000000000000",
        "nonce": "0",
        "storage": null,
        "hashBytecode": "0x0000000000000000000000000000000000000000000000000000000000000000",
        "bytecodeLength": 0
      },
      "0x4d5Cf5032B2a844602278b01199ED191A86c93ff": {
        "balance": "200000000000000000000",
        "nonce": "0",
        "storage": null,
        "hashBytecode": "0x0000000000000000000000000000000000000000000000000000000000000000",
        "bytecodeLength": 0
      },
      "0xEEEeF5032B2A844602278B01199ED191a86cEEeE": {
        "balance": "0",
        "nonce": "0",
        "storage": null,
        "hashBytecode": "0x0000000000000000000000000000000000000000000000000000000000000000",
        "bytecodeLength": 0
      }
    },
    "timestamp": 1944498031,
    "newLocalExitRoot": "0x0000000000000000000000000000000000000000000000000000000000000000",
    "batchHashData": "0x8dfecea9fa8c33aea2e241da2480c4c2f7ec1364052b993143e3831f19ca1329",
    "inputHash": "0xc704c924549300fd060e92299519c5d333b4e3c6405f9152fc3288f6f7381649",
    "globalExitRoot": "0x090bcaf734c4f06c93954a827b45a6e8c67b8e0fd1e0a35a1c5982d6961828f9",
    "oldLocalExitRoot": "0x0000000000000000000000000000000000000000000000000000000000000000",
    "batchL2Data": "0xf84a80843b9aca00830186a0941275fbb540c8efc58b812ba83b0d0b8b9917ae9880a4718da7ee000000000000000000000000eeeef5032b2a844602278b01199ed191a86ceeee8203e98080a457712a6eb67d18d64cf0bb9913a8da248ad89357496274a2c08e2397ac528f6e24598f11ee531f0f63f6066f893f736ebf6202db25e52d31d8203d046c54ed1bee01843b9aca00830186a0941275fbb540c8efc58b812ba83b0d0b8b9917ae9884075bcd15845cfb28e78203e980807b9752d8bb13b79712282210eea9857d26cf931ef506cf3d79502145989f74d00f9fcb01c3ef75732036b49c45dc2c18b356b303933dad72e3954de1e628e8761ce602843b9aca00830186a094eeeef5032b2a844602278b01199ed191a86ceeee03808203e9808079c7c70bc67e02ec130feb1ec3d8395e5014579ce602d21620c3b2fc0875776b5bc28d5ddd77789bab73f99f49135e45f7df7a03e712bd9935fd36bcaa1245761bea80843b9aca00830186a0941275fbb540c8efc58b812ba83b0d0b8b9917ae9880842b68b9c68203e98080828473d3d621d9ea1f018e94e70623d2e882a445c4938519a1f2041442fd64de580e655d2a43db475b852974fa551b7743442ebb59613e8009d940ce40ef138d1c"
  },
  {
    "id": 3,
    "description": "opSELFDESTRUCT non-empty warm receiver",
    "arity": 4,
    "chainIdSequencer": 1001,
    "defaultChainId": 1000,
    "sequencerAddress": "0x617b3a3528F9cDd6630fd3301B9c8911F7Bf063D",
    "sequencerPvtKey": "0x28b2b0318721be8c8339199172cd7cc8f5e273800a35616ec893083a4b32c02e",
    "genesis": {
      "accounts": [
        {
          "address": "0x617b3a3528F9cDd6630fd3301B9c8911F7Bf063D",
          "pvtKey": "0x28b2b0318721be8c8339199172cd7cc8f5e273800a35616ec893083a4b32c02e",
          "balance": "100000000000000000000",
          "nonce": "0"
        },
        {
          "address": "0x4d5Cf5032B2a844602278b01199ED191A86c93ff",
          "pvtKey": "0x4d27a600dce8c29b7bd080e29a26972377dbb04d7a27d919adbb602bf13cfd23",
          "balance": "200000000000000000000",
          "nonce": "0"
        },
        {
          "address": "0xEEEeF5032B2A844602278B01199ED191a86cEEeE",
          "balance": "0",
          "nonce": "0"
        }
      ],
      "contracts": [
        {
          "contractName": "Selfdestruct",
          "paramsDeploy": {}
        }
      ]
    },
    "expectedOldRoot": "0x54c9541f9db206154454b1c03acb89ccd0fe31e2047c77eed62d6fd7095a991b",
    "txs": [
      {
        "from": "0x617b3a3528F9cDd6630fd3301B9c8911F7Bf063D",
        "to": "contract",
        "nonce": "0",
        "value": "0",
        "contractName": "Selfdestruct",
        "function": "setReceiver",
        "params": [
          "0xEEEeF5032B2A844602278B01199ED191a86cEEeE"
        ],
        "gasLimit": 100000,
        "gasPrice": "1000000000",
        "chainId": 1001
      },
      {
        "from": "0x617b3a3528F9cDd6630fd3301B9c8911F7Bf063D",
        "to": "contract",
        "nonce": "1",
        "value": "123456789",
        "contractName": "Selfdestruct",
        "function": "setVal",
        "params": [],
        "gasLimit": 100000,
        "gasPrice": "1000000000",
        "chainId": 1001
      },
      {
        "from": "0x617b3a3528F9cDd6630fd3301B9c8911F7Bf063D",
        "to": "0xEEEeF5032B2A844602278B01199ED191a86cEEeE",
        "nonce": "2",
        "value": "3",
        "gasLimit": 100000,
        "gasPrice": "1000000000",
        "chainId": 1001
      },
      {
        "from": "0x4d5Cf5032B2a844602278b01199ED191A86c93ff",
        "to": "contract",
        "nonce": "0",
        "value": "0",
        "contractName": "Selfdestruct",
        "function": "destructWarm",
        "params": [],
        "gasLimit": 100000,
        "gasPrice": "1000000000",
        "chainId": 1001
      }
    ],
    "expectedNewRoot": "0x4f209e1671cf631cd773452772312ecf08876cb86a816705616b92d62158695d",
    "expectedNewLeafs": {
      "0x0000000000000000000000000000000000000000": {
        "balance": "0",
        "nonce": "0",
        "storage": {
          "0xad3228b676f7d3cd4284a5443f17f1962b36e491b30a40b2405849e597ba5fb5": "0x54c9541f9db206154454b1c03acb89ccd0fe31e2047c77eed62d6fd7095a991b"
        },
        "hashBytecode": "0x0000000000000000000000000000000000000000000000000000000000000000",
        "bytecodeLength": 0
      },
      "0xAE4bB80bE56B819606589DE61d5ec3b522EEB032": {
        "balance": "0",
        "nonce": "0",
        "storage": {
          "0x53d3f126103a7f7d6245751d2392e0245bf71479d10a3c27a5b501ace6dde1b7": "0x01"
        },
        "hashBytecode": "0x0000000000000000000000000000000000000000000000000000000000000000",
        "bytecodeLength": 0
      },
      "0x1275fbb540c8efc58b812ba83b0d0b8b9917ae98": {
        "balance": "0",
        "nonce": "1",
        "storage": {},
        "hashBytecode": "0x9ea9cdd4fcc3b687a95359d7a39fac379293d0de4d6b422d98768e44b3ac654a",
        "bytecodeLength": 703
      },
      "0x617b3a3528F9cDd6630fd3301B9c8911F7Bf063D": {
        "balance": "100000000000000000000",
        "nonce": "0",
        "storage": null,
        "hashBytecode": "0x0000000000000000000000000000000000000000000000000000000000000000",
        "bytecodeLength": 0
      },
      "0x4d5Cf5032B2a844602278b01199ED191A86c93ff": {
        "balance": "200000000000000000000",
        "nonce": "0",
        "storage": null,
        "hashBytecode": "0x0000000000000000000000000000000000000000000000000000000000000000",
        "bytecodeLength": 0
      },
      "0xEEEeF5032B2A844602278B01199ED191a86cEEeE": {
        "balance": "0",
        "nonce": "0",
        "storage": null,
        "hashBytecode": "0x0000000000000000000000000000000000000000000000000000000000000000",
        "bytecodeLength": 0
      }
    },
    "timestamp": 1944498031,
    "newLocalExitRoot": "0x0000000000000000000000000000000000000000000000000000000000000000",
    "batchHashData": "0x1634b98eb86956728d3d04a1804245356b44956332c58f736c1d09a050aa3082",
    "inputHash": "0x5c34a01cd055a6491f2206b58341b4dd610ffe96bf2c4ec4a21b6f013b7966ac",
    "globalExitRoot": "0x090bcaf734c4f06c93954a827b45a6e8c67b8e0fd1e0a35a1c5982d6961828f9",
    "oldLocalExitRoot": "0x0000000000000000000000000000000000000000000000000000000000000000",
    "batchL2Data": "0xf84a80843b9aca00830186a0941275fbb540c8efc58b812ba83b0d0b8b9917ae9880a4718da7ee000000000000000000000000eeeef5032b2a844602278b01199ed191a86ceeee8203e98080a457712a6eb67d18d64cf0bb9913a8da248ad89357496274a2c08e2397ac528f6e24598f11ee531f0f63f6066f893f736ebf6202db25e52d31d8203d046c54ed1bee01843b9aca00830186a0941275fbb540c8efc58b812ba83b0d0b8b9917ae9884075bcd15845cfb28e78203e980807b9752d8bb13b79712282210eea9857d26cf931ef506cf3d79502145989f74d00f9fcb01c3ef75732036b49c45dc2c18b356b303933dad72e3954de1e628e8761ce602843b9aca00830186a094eeeef5032b2a844602278b01199ed191a86ceeee03808203e9808079c7c70bc67e02ec130feb1ec3d8395e5014579ce602d21620c3b2fc0875776b5bc28d5ddd77789bab73f99f49135e45f7df7a03e712bd9935fd36bcaa1245761bea80843b9aca00830186a0941275fbb540c8efc58b812ba83b0d0b8b9917ae988084cc5fe89a8203e980807b08e5e8eb325f7d16f5cbd79866489b45ea97ecd89b47b20eb87259546b91a955a528e329621d768169faa796f77fd1a5f4e59e0f005b22be05c742ef38b7501c"
  }
]