[
  {
    "id": 0,
    "description": "Txs to call all functions of OpInvalid contract (test)",
    "arity": 4,
    "chainIdSequencer": 1001,
    "defaultChainId": 1000,
    "sequencerAddress": "0x617b3a3528F9cDd6630fd3301B9c8911F7Bf063D",
    "sequencerPvtKey": "0x28b2b0318721be8c8339199172cd7cc8f5e273800a35616ec893083a4b32c02e",
    "genesis": {
      "accounts": [
        {
          "address": "0x617b3a3528F9cDd6630fd3301B9c8911F7Bf063D",
          "pvtKey": "0x28b2b0318721be8c8339199172cd7cc8f5e273800a35616ec893083a4b32c02e",
          "balance": "100000000000000000000",
          "nonce": "0"
        },
        {
          "address": "0x4d5Cf5032B2a844602278b01199ED191A86c93ff",
          "pvtKey": "0x4d27a600dce8c29b7bd080e29a26972377dbb04d7a27d919adbb602bf13cfd23",
          "balance": "200000000000000000000",
          "nonce": "0"
        }
      ],
      "contracts": [
        {
          "contractName": "Token",
          "paramsDeploy": {
            "types": [
              "string"
            ],
            "values": [
              "HEZ"
            ]
          }
        }
      ]
    },
    "expectedOldRoot": "0x0a4f8fc6b826cbce9db13878aab80cf3dda37f5c2f1e241838a0f659cbfbc115",
    "txs": [
      {
        "from": "0x617b3a3528F9cDd6630fd3301B9c8911F7Bf063D",
        "to": "contract",
        "nonce": "0",
        "value": "0",
        "contractName": "Token",
        "function": "mint",
        "params": [
          "0x4d5Cf5032B2a844602278b01199ED191A86c93ff",
          10000000000
        ],
        "gasLimit": 100000,
        "gasPrice": "1000000000",
        "chainId": 1000
      },
      {
        "from": "0x4d5Cf5032B2a844602278b01199ED191A86c93ff",
        "to": "contract",
        "nonce": "0",
        "value": "0",
        "contractName": "Token",
        "function": "transfer",
        "params": [
          "0x617b3a3528F9cDd6630fd3301B9c8911F7Bf063D",
          800
        ],
        "gasLimit": 100000,
        "gasPrice": "1000000000",
        "chainId": 1000
      },
      {
        "from": "0x4d5Cf5032B2a844602278b01199ED191A86c93ff",
        "to": "contract",
        "nonce": "1",
        "value": "0",
        "contractName": "Token",
        "function": "updateBalance",
        "params": [
          "0x617b3a3528F9cDd6630fd3301B9c8911F7Bf063D"
        ],
        "gasLimit": 100000,
        "gasPrice": "1000000000",
        "chainId": 1000
      }
    ],
    "expectedNewRoot": "0xb6f5c8f596b7130c7c7eb3257e80badfd7a89aa2977cc6d521a8b97f764230f5",
    "expectedNewLeafs": {
      "0x617b3a3528F9cDd6630fd3301B9c8911F7Bf063D": {
        "balance": "100000099479000000000",
        "nonce": "1",
        "storage": null,
        "hashBytecode": "0x0000000000000000000000000000000000000000000000000000000000000000",
        "bytecodeLength": 0
      },
      "0x4d5Cf5032B2a844602278b01199ED191A86c93ff": {
        "balance": "199999900521000000000",
        "nonce": "2",
        "storage": null,
        "hashBytecode": "0x0000000000000000000000000000000000000000000000000000000000000000",
        "bytecodeLength": 0
      },
      "0x1275fbb540c8efc58b812ba83b0d0b8b9917ae98": {
        "balance": "0",
        "nonce": "1",
        "storage": {
          "0x0000000000000000000000000000000000000000000000000000000000000002": "0x02540be400",
          "0x0000000000000000000000000000000000000000000000000000000000000005": "0x12",
          "0x0000000000000000000000000000000000000000000000000000000000000006": "0x0320",
          "0x0000000000000000000000000000000000000000000000000000000000000007": "0x617b3a3528f9cdd6630fd3301b9c8911f7bf063d00",
          "0x5c9164227e4e2850b9fc759a61468f2c11426c1144a6df87b4a501cc3915e91d": "0x02540be0e0",
          "0x5eff3f6834f82409f2dbfe5bcddfb5bd62b8ea2ebf2327cfdb9577734aa9a1b2": "0x0320",
          "0x0000000000000000000000000000000000000000000000000000000000000003": "0x48455a0000000000000000000000000000000000000000000000000000000006",
          "0x0000000000000000000000000000000000000000000000000000000000000004": "0x48455a0000000000000000000000000000000000000000000000000000000006"
        },
        "hashBytecode": "0x6a4f4d0553421e715aade51ef1754586485a905fd5826768bc7952704a04c4ba",
        "bytecodeLength": 7938
      }
    },
    "timestamp": 1944498031,
    "newLocalExitRoot": "0x0000000000000000000000000000000000000000000000000000000000000000",
    "batchHashData": "0xc17f8bd1d0d5be8310629738e044068361f7f76ac46fb4582de34795ad1c2704",
    "inputHash": "0x7624c022e923e798a6682171fd27b54912c426cfd92d49fb6be3bf300ba27679",
    "globalExitRoot": "0x090bcaf734c4f06c93954a827b45a6e8c67b8e0fd1e0a35a1c5982d6961828f9",
    "oldLocalExitRoot": "0x0000000000000000000000000000000000000000000000000000000000000000",
    "batchL2Data": "0xf86b80843b9aca00830186a0941275fbb540c8efc58b812ba83b0d0b8b9917ae9880b84440c10f190000000000000000000000004d5cf5032b2a844602278b01199ed191a86c93ff00000000000000000000000000000000000000000000000000000002540be4008203e8808032ef037593a320677a89d8634a22df0e87ec1d5b14fb60b1a42935b02f6475be2012eb5a5d0bf66adff6d1659c46a675518ccbdebbac56971c7dbee26fedb7401bf86b80843b9aca00830186a0941275fbb540c8efc58b812ba83b0d0b8b9917ae9880b844a9059cbb000000000000000000000000617b3a3528f9cdd6630fd3301b9c8911f7bf063d00000000000000000000000000000000000000000000000000000000000003208203e88080fb7d74f054b6cc4bcf03fa92336a40e9c6886e086d4f7a159946e64c53dc44a71044bfcefd69c5133a2813500322e31ab56d7078b351ac92290bd12fdcd70e301cf84a01843b9aca00830186a0941275fbb540c8efc58b812ba83b0d0b8b9917ae9880a440b8405a000000000000000000000000617b3a3528f9cdd6630fd3301b9c8911f7bf063d8203e88080467f749ef0e720ad4d6b34a978344d7d66883841bda0f3d3877fce28c7bb591f016ff8cd0ece743c25fad118224d066b71b52603cff2b6b5cc2ba67152228a921b"
  }
]