[
  {
    "id": 0,
    "description": "Call opcode staticcall fail",
    "arity": 4,
    "chainIdSequencer": 1001,
    "defaultChainId": 1000,
    "sequencerAddress": "0x617b3a3528F9cDd6630fd3301B9c8911F7Bf063D",
    "sequencerPvtKey": "0x28b2b0318721be8c8339199172cd7cc8f5e273800a35616ec893083a4b32c02e",
    "genesis": {
      "accounts": [
        {
          "address": "0x617b3a3528F9cDd6630fd3301B9c8911F7Bf063D",
          "pvtKey": "0x28b2b0318721be8c8339199172cd7cc8f5e273800a35616ec893083a4b32c02e",
          "balance": "100000000000000000000",
          "nonce": "0"
        },
        {
          "address": "0x4d5Cf5032B2a844602278b01199ED191A86c93ff",
          "pvtKey": "0x4d27a600dce8c29b7bd080e29a26972377dbb04d7a27d919adbb602bf13cfd23",
          "balance": "200000000000000000000",
          "nonce": "0"
        }
      ],
      "contracts": [
        {
          "contractName": "OpCallAux",
          "paramsDeploy": {}
        },
        {
          "contractName": "OpCall",
          "paramsDeploy": {}
        }
      ]
    },
    "expectedOldRoot": "0xf619be40d82b9fc735c96eae559623e9a1f134c090a53af913162c18c253cdc6",
    "txs": [
      {
        "from": "0x4d5Cf5032B2a844602278b01199ED191A86c93ff",
        "to": "contract",
        "nonce": "0",
        "value": "0",
        "contractName": "OpCall",
        "function": "opStaticCallFail",
        "params": [
          "0x1275fbb540c8efc58b812ba83b0d0b8b9917ae98"
        ],
        "gasLimit": 3000000,
        "gasPrice": "1000000000",
        "chainId": 1001
      }
    ],
    "expectedNewRoot": "0xb0bd2f40f72dccb0296bf84676cf5c071c66a2317adedc803325a83bbfe2fe63",
    "expectedNewLeafs": {
      "0x617b3a3528F9cDd6630fd3301B9c8911F7Bf063D": {
        "balance": "100002953522000000000",
        "nonce": "0",
        "storage": null,
        "hashBytecode": "0x0000000000000000000000000000000000000000000000000000000000000000"
      },
      "0x4d5Cf5032B2a844602278b01199ED191A86c93ff": {
        "balance": "199997046478000000000",
        "nonce": "1",
        "storage": null,
        "hashBytecode": "0x0000000000000000000000000000000000000000000000000000000000000000"
      },
      "0x1275fbb540c8efc58b812ba83b0d0b8b9917ae98": {
        "balance": "0",
        "nonce": "1",
        "storage": {},
        "hashBytecode": "0x60400ad749a9ad8a0981f8bec859228da1dec283244ed60e3cf0205896a511a7"
      },
      "0x85e844b762a271022b692cf99ce5c59ba0650ac8": {
        "balance": "0",
        "nonce": "1",
        "storage": {},
        "hashBytecode": "0x6b04eb90b9869e15f06e749631a9736c46b50ef4d32dc06c430aee748786d4c7"
      }
    },
    "timestamp": 1944498031,
    "newLocalExitRoot": "0x0000000000000000000000000000000000000000000000000000000000000000",
    "batchHashData": "0xcdf8df48102609989a5470c63592a510adee0141645faec4a8ff473d22349931",
    "inputHash": "0x3a8e3c4dde9ded5411f5b8f1c9fbaccaa73138bd7b11faba90f71a1ba7ae0dff",
    "globalExitRoot": "0x090bcaf734c4f06c93954a827b45a6e8c67b8e0fd1e0a35a1c5982d6961828f9",
    "oldLocalExitRoot": "0x0000000000000000000000000000000000000000000000000000000000000000",
    "batchL2Data": "0xf84a80843b9aca00832dc6c09485e844b762a271022b692cf99ce5c59ba0650ac880a4064055bd0000000000000000000000001275fbb540c8efc58b812ba83b0d0b8b9917ae988203e98080872926745142874ab84b320e7d5bc37426adb558952f967ccb47cd1a31f565220d4be5135328d5359c950a3f655aac57bf96f3def00369060e72d23e4dc93f8b1c"
  },
  {
    "id": 1,
    "description": "Call opcode call fail",
    "arity": 4,
    "chainIdSequencer": 1001,
    "defaultChainId": 1000,
    "sequencerAddress": "0x617b3a3528F9cDd6630fd3301B9c8911F7Bf063D",
    "sequencerPvtKey": "0x28b2b0318721be8c8339199172cd7cc8f5e273800a35616ec893083a4b32c02e",
    "genesis": {
      "accounts": [
        {
          "address": "0x617b3a3528F9cDd6630fd3301B9c8911F7Bf063D",
          "pvtKey": "0x28b2b0318721be8c8339199172cd7cc8f5e273800a35616ec893083a4b32c02e",
          "balance": "100000000000000000000",
          "nonce": "0"
        },
        {
          "address": "0x4d5Cf5032B2a844602278b01199ED191A86c93ff",
          "pvtKey": "0x4d27a600dce8c29b7bd080e29a26972377dbb04d7a27d919adbb602bf13cfd23",
          "balance": "200000000000000000000",
          "nonce": "0"
        }
      ],
      "contracts": [
        {
          "contractName": "OpCallAux",
          "paramsDeploy": {}
        },
        {
          "contractName": "OpCall",
          "paramsDeploy": {}
        }
      ]
    },
    "expectedOldRoot": "0xf619be40d82b9fc735c96eae559623e9a1f134c090a53af913162c18c253cdc6",
    "txs": [
      {
        "from": "0x4d5Cf5032B2a844602278b01199ED191A86c93ff",
        "to": "contract",
        "nonce": "0",
        "value": "0",
        "contractName": "OpCall",
        "function": "opCallFail",
        "params": [
          "0x1275fbb540c8efc58b812ba83b0d0b8b9917ae98"
        ],
        "gasLimit": 1000000,
        "gasPrice": "1000000000",
        "chainId": 1001
      }
    ],
    "expectedNewRoot": "0xbbfc6ad9fdf45407dc5cfe9b9ca120f6779190a75f0da369bbf1c5b205a06a22",
    "expectedNewLeafs": {
      "0x617b3a3528F9cDd6630fd3301B9c8911F7Bf063D": {
        "balance": "100000047255000000000",
        "nonce": "0",
        "storage": null,
        "hashBytecode": "0x0000000000000000000000000000000000000000000000000000000000000000"
      },
      "0x4d5Cf5032B2a844602278b01199ED191A86c93ff": {
        "balance": "199999952745000000000",
        "nonce": "1",
        "storage": null,
        "hashBytecode": "0x0000000000000000000000000000000000000000000000000000000000000000"
      },
      "0x1275fbb540c8efc58b812ba83b0d0b8b9917ae98": {
        "balance": "0",
        "nonce": "1",
        "storage": {},
        "hashBytecode": "0x60400ad749a9ad8a0981f8bec859228da1dec283244ed60e3cf0205896a511a7"
      },
      "0x85e844b762a271022b692cf99ce5c59ba0650ac8": {
        "balance": "0",
        "nonce": "1",
        "storage": {},
        "hashBytecode": "0x6b04eb90b9869e15f06e749631a9736c46b50ef4d32dc06c430aee748786d4c7"
      }
    },
    "timestamp": 1944498031,
    "newLocalExitRoot": "0x0000000000000000000000000000000000000000000000000000000000000000",
    "batchHashData": "0x9449c5d5d4c67e56c4dd5f9b7fb4ca20335705cb63bdea32be40ff4fe0a589b8",
    "inputHash": "0x81936936b5c43efc4eb57b20f84ff49ed16fc53420f51b9ec4ede7ae7cdde439",
    "globalExitRoot": "0x090bcaf734c4f06c93954a827b45a6e8c67b8e0fd1e0a35a1c5982d6961828f9",
    "oldLocalExitRoot": "0x0000000000000000000000000000000000000000000000000000000000000000",
    "batchL2Data": "0xf84a80843b9aca00830f42409485e844b762a271022b692cf99ce5c59ba0650ac880a47b4fdd7a0000000000000000000000001275fbb540c8efc58b812ba83b0d0b8b9917ae988203e98080e507196880c4a67b26bd96e8eb847bb62dc82c928f18d183839bcd73c73d749b16152dca7a08be02df26b91ed9012a801e4b0db50b3013bc4ecade09e029d41c1c"
  },
  {
    "id": 2,
    "description": "Call opcode call fail params",
    "arity": 4,
    "chainIdSequencer": 1001,
    "defaultChainId": 1000,
    "sequencerAddress": "0x617b3a3528F9cDd6630fd3301B9c8911F7Bf063D",
    "sequencerPvtKey": "0x28b2b0318721be8c8339199172cd7cc8f5e273800a35616ec893083a4b32c02e",
    "genesis": {
      "accounts": [
        {
          "address": "0x617b3a3528F9cDd6630fd3301B9c8911F7Bf063D",
          "pvtKey": "0x28b2b0318721be8c8339199172cd7cc8f5e273800a35616ec893083a4b32c02e",
          "balance": "100000000000000000000",
          "nonce": "0"
        },
        {
          "address": "0x4d5Cf5032B2a844602278b01199ED191A86c93ff",
          "pvtKey": "0x4d27a600dce8c29b7bd080e29a26972377dbb04d7a27d919adbb602bf13cfd23",
          "balance": "200000000000000000000",
          "nonce": "0"
        }
      ],
      "contracts": [
        {
          "contractName": "OpCallAux",
          "paramsDeploy": {}
        },
        {
          "contractName": "OpCall",
          "paramsDeploy": {}
        }
      ]
    },
    "expectedOldRoot": "0xf619be40d82b9fc735c96eae559623e9a1f134c090a53af913162c18c253cdc6",
    "txs": [
      {
        "from": "0x4d5Cf5032B2a844602278b01199ED191A86c93ff",
        "to": "contract",
        "nonce": "0",
        "value": "0",
        "contractName": "OpCall",
        "function": "opCallCallFail",
        "params": [
          "0x1275fbb540c8efc58b812ba83b0d0b8b9917ae98"
        ],
        "gasLimit": 1000000,
        "gasPrice": "1000000000",
        "chainId": 1001
      }
    ],
    "expectedNewRoot": "0x2e18f377d23a83a740738e905c116b9df3fe23e0a8644bb41fcdc37e203d5e56",
    "expectedNewLeafs": {
      "0x617b3a3528F9cDd6630fd3301B9c8911F7Bf063D": {
        "balance": "100000032875000000000",
        "nonce": "0",
        "storage": null,
        "hashBytecode": "0x0000000000000000000000000000000000000000000000000000000000000000"
      },
      "0x4d5Cf5032B2a844602278b01199ED191A86c93ff": {
        "balance": "199999967125000000000",
        "nonce": "1",
        "storage": null,
        "hashBytecode": "0x0000000000000000000000000000000000000000000000000000000000000000"
      },
      "0x1275fbb540c8efc58b812ba83b0d0b8b9917ae98": {
        "balance": "0",
        "nonce": "1",
        "storage": {},
        "hashBytecode": "0x60400ad749a9ad8a0981f8bec859228da1dec283244ed60e3cf0205896a511a7"
      },
      "0x85e844b762a271022b692cf99ce5c59ba0650ac8": {
        "balance": "0",
        "nonce": "1",
        "storage": {},
        "hashBytecode": "0x6b04eb90b9869e15f06e749631a9736c46b50ef4d32dc06c430aee748786d4c7"
      }
    },
    "timestamp": 1944498031,
    "newLocalExitRoot": "0x0000000000000000000000000000000000000000000000000000000000000000",
    "batchHashData": "0x38f90da801c87519150f6d071c370c54d7a99aee34378e67e5e4cfef382414b5",
    "inputHash": "0xaa9568bdffe5d1c504aa6e44b996e49d5e062758f251830ac135c7d970543ffb",
    "globalExitRoot": "0x090bcaf734c4f06c93954a827b45a6e8c67b8e0fd1e0a35a1c5982d6961828f9",
    "oldLocalExitRoot": "0x0000000000000000000000000000000000000000000000000000000000000000",
    "batchL2Data": "0xf84a80843b9aca00830f42409485e844b762a271022b692cf99ce5c59ba0650ac880a4043b6c7c0000000000000000000000001275fbb540c8efc58b812ba83b0d0b8b9917ae988203e98080fc30f9cbe65fd0883286935cd9cd09c9c3726493f888a3c9a3beeaa0dc1e9154481253d70a298979761c8f1b6955f71e5a16c077c49367a9037ee11cf9ff5fb91b"
  },
  {
    "id": 3,
    "description": "Call opcode call fail & call correct",
    "arity": 4,
    "chainIdSequencer": 1001,
    "defaultChainId": 1000,
    "sequencerAddress": "0x617b3a3528F9cDd6630fd3301B9c8911F7Bf063D",
    "sequencerPvtKey": "0x28b2b0318721be8c8339199172cd7cc8f5e273800a35616ec893083a4b32c02e",
    "genesis": {
      "accounts": [
        {
          "address": "0x617b3a3528F9cDd6630fd3301B9c8911F7Bf063D",
          "pvtKey": "0x28b2b0318721be8c8339199172cd7cc8f5e273800a35616ec893083a4b32c02e",
          "balance": "100000000000000000000",
          "nonce": "0"
        },
        {
          "address": "0x4d5Cf5032B2a844602278b01199ED191A86c93ff",
          "pvtKey": "0x4d27a600dce8c29b7bd080e29a26972377dbb04d7a27d919adbb602bf13cfd23",
          "balance": "200000000000000000000",
          "nonce": "0"
        }
      ],
      "contracts": [
        {
          "contractName": "OpCallAux",
          "paramsDeploy": {}
        },
        {
          "contractName": "OpCall",
          "paramsDeploy": {}
        }
      ]
    },
    "expectedOldRoot": "0xf619be40d82b9fc735c96eae559623e9a1f134c090a53af913162c18c253cdc6",
    "txs": [
      {
        "from": "0x4d5Cf5032B2a844602278b01199ED191A86c93ff",
        "to": "contract",
        "nonce": "0",
        "value": "0",
        "contractName": "OpCall",
        "function": "opCallOpcode",
        "params": [
          "0x1275fbb540c8efc58b812ba83b0d0b8b9917ae98"
        ],
        "gasLimit": 1000000,
        "gasPrice": "1000000000",
        "chainId": 1001
      },
      {
        "from": "0x4d5Cf5032B2a844602278b01199ED191A86c93ff",
        "to": "contract",
        "nonce": "1",
        "value": "0",
        "contractName": "OpCall",
        "function": "opCallFail",
        "params": [
          "0x1275fbb540c8efc58b812ba83b0d0b8b9917ae98"
        ],
        "gasLimit": 1000000,
        "gasPrice": "1000000000",
        "chainId": 1001
      }
    ],
    "expectedNewRoot": "0x6e87fa9015632dba0b21831dc1dbafa6cb3bf226021824ab8dd9f71b74a17d95",
    "expectedNewLeafs": {
      "0x617b3a3528F9cDd6630fd3301B9c8911F7Bf063D": {
        "balance": "100000116396000000000",
        "nonce": "0",
        "storage": null,
        "hashBytecode": "0x0000000000000000000000000000000000000000000000000000000000000000"
      },
      "0x4d5Cf5032B2a844602278b01199ED191A86c93ff": {
        "balance": "199999883604000000000",
        "nonce": "2",
        "storage": null,
        "hashBytecode": "0x0000000000000000000000000000000000000000000000000000000000000000"
      },
      "0x1275fbb540c8efc58b812ba83b0d0b8b9917ae98": {
        "balance": "0",
        "nonce": "1",
        "storage": {
          "0x0000000000000000000000000000000000000000000000000000000000000000": "0x12121212121212121212"
        },
        "hashBytecode": "0x60400ad749a9ad8a0981f8bec859228da1dec283244ed60e3cf0205896a511a7"
      },
      "0x85e844b762a271022b692cf99ce5c59ba0650ac8": {
        "balance": "0",
        "nonce": "1",
        "storage": {
          "0x0000000000000000000000000000000000000000000000000000000000000001": "0x012345668900000000000000000000000000000000000000000000"
        },
        "hashBytecode": "0x6b04eb90b9869e15f06e749631a9736c46b50ef4d32dc06c430aee748786d4c7"
      }
    },
    "timestamp": 1944498031,
    "newLocalExitRoot": "0x0000000000000000000000000000000000000000000000000000000000000000",
    "batchHashData": "0x166bb607f6f4ff385e13621fa2b1d3afb0239d24c3fd5d09d5c9a5a566b1c56c",
    "inputHash": "0x5b0cea574b533bff71eee51e2733ad2a2d8b89e157ee23a2a7629b0801afc3ff",
    "globalExitRoot": "0x090bcaf734c4f06c93954a827b45a6e8c67b8e0fd1e0a35a1c5982d6961828f9",
    "oldLocalExitRoot": "0x0000000000000000000000000000000000000000000000000000000000000000",
    "batchL2Data": "0xf84a80843b9aca00830f42409485e844b762a271022b692cf99ce5c59ba0650ac880a4336657550000000000000000000000001275fbb540c8efc58b812ba83b0d0b8b9917ae988203e98080178e3fc670d5eb8826bd00f494cd5bd70de94de0949a5b4a753c4d6a2663fcaa38b336c8b5a197d8a870f790eb8131996b11c2c9378de334b58ba423b339b5831bf84a01843b9aca00830f42409485e844b762a271022b692cf99ce5c59ba0650ac880a47b4fdd7a0000000000000000000000001275fbb540c8efc58b812ba83b0d0b8b9917ae988203e98080974ce18aea4c35996dc9bb17ea41d22e3b9e91fbda5edea9d33032cc73646fc857c404ff8b2d946d22c5925a8c4c2465a0981625199886bfae1caaf4b1fa06301b"
  },
  {
    "id": 4,
    "description": "Call opcode call fail & call correct",
    "arity": 4,
    "chainIdSequencer": 1001,
    "defaultChainId": 1000,
    "sequencerAddress": "0x617b3a3528F9cDd6630fd3301B9c8911F7Bf063D",
    "sequencerPvtKey": "0x28b2b0318721be8c8339199172cd7cc8f5e273800a35616ec893083a4b32c02e",
    "genesis": {
      "accounts": [
        {
          "address": "0x617b3a3528F9cDd6630fd3301B9c8911F7Bf063D",
          "pvtKey": "0x28b2b0318721be8c8339199172cd7cc8f5e273800a35616ec893083a4b32c02e",
          "balance": "100000000000000000000",
          "nonce": "0"
        },
        {
          "address": "0x4d5Cf5032B2a844602278b01199ED191A86c93ff",
          "pvtKey": "0x4d27a600dce8c29b7bd080e29a26972377dbb04d7a27d919adbb602bf13cfd23",
          "balance": "200000000000000000000",
          "nonce": "0"
        }
      ],
      "contracts": [
        {
          "contractName": "OpCallAux",
          "paramsDeploy": {}
        },
        {
          "contractName": "OpCall",
          "paramsDeploy": {}
        }
      ]
    },
    "expectedOldRoot": "0xf619be40d82b9fc735c96eae559623e9a1f134c090a53af913162c18c253cdc6",
    "txs": [
      {
        "from": "0x4d5Cf5032B2a844602278b01199ED191A86c93ff",
        "to": "contract",
        "nonce": "0",
        "value": "0",
        "contractName": "OpCall",
        "function": "opCallFail",
        "params": [
          "0x1275fbb540c8efc58b812ba83b0d0b8b9917ae98"
        ],
        "gasLimit": 1000000,
        "gasPrice": "1000000000",
        "chainId": 1001
      },
      {
        "from": "0x617b3a3528F9cDd6630fd3301B9c8911F7Bf063D",
        "to": "contract",
        "nonce": "0",
        "value": "0",
        "contractName": "OpCall",
        "function": "opCallOpcode",
        "params": [
          "0x1275fbb540c8efc58b812ba83b0d0b8b9917ae98"
        ],
        "gasLimit": 1000000,
        "gasPrice": "1000000000",
        "chainId": 1001
      }
    ],
    "expectedNewRoot": "0xddb1023f6802877672913b616f75caabbf14f881d930af63077d375a67686d59",
    "expectedNewLeafs": {
      "0x617b3a3528F9cDd6630fd3301B9c8911F7Bf063D": {
        "balance": "100000047255000000000",
        "nonce": "1",
        "storage": null,
        "hashBytecode": "0x0000000000000000000000000000000000000000000000000000000000000000"
      },
      "0x4d5Cf5032B2a844602278b01199ED191A86c93ff": {
        "balance": "199999952745000000000",
        "nonce": "1",
        "storage": null,
        "hashBytecode": "0x0000000000000000000000000000000000000000000000000000000000000000"
      },
      "0x1275fbb540c8efc58b812ba83b0d0b8b9917ae98": {
        "balance": "0",
        "nonce": "1",
        "storage": {
          "0x0000000000000000000000000000000000000000000000000000000000000000": "0x12121212121212121212"
        },
        "hashBytecode": "0x60400ad749a9ad8a0981f8bec859228da1dec283244ed60e3cf0205896a511a7"
      },
      "0x85e844b762a271022b692cf99ce5c59ba0650ac8": {
        "balance": "0",
        "nonce": "1",
        "storage": {
          "0x0000000000000000000000000000000000000000000000000000000000000001": "0x012345668900000000000000000000000000000000000000000000"
        },
        "hashBytecode": "0x6b04eb90b9869e15f06e749631a9736c46b50ef4d32dc06c430aee748786d4c7"
      }
    },
    "timestamp": 1944498031,
    "newLocalExitRoot": "0x0000000000000000000000000000000000000000000000000000000000000000",
    "batchHashData": "0xf6c66a7f77bb0d443445bcab7eb6dc8ea36e0b4b0ed97ebe9350d17909857dff",
    "inputHash": "0xcd21be9121f09b4800bdd4726bfd325a46cb308fdf1cebdc9fab37cc21d60846",
    "globalExitRoot": "0x090bcaf734c4f06c93954a827b45a6e8c67b8e0fd1e0a35a1c5982d6961828f9",
    "oldLocalExitRoot": "0x0000000000000000000000000000000000000000000000000000000000000000",
    "batchL2Data": "0xf84a80843b9aca00830f42409485e844b762a271022b692cf99ce5c59ba0650ac880a47b4fdd7a0000000000000000000000001275fbb540c8efc58b812ba83b0d0b8b9917ae988203e98080e507196880c4a67b26bd96e8eb847bb62dc82c928f18d183839bcd73c73d749b16152dca7a08be02df26b91ed9012a801e4b0db50b3013bc4ecade09e029d41c1cf84a80843b9aca00830f42409485e844b762a271022b692cf99ce5c59ba0650ac880a4336657550000000000000000000000001275fbb540c8efc58b812ba83b0d0b8b9917ae988203e98080cda0ab3f504aa6af8d3c382ac1262fea2e365bec3045acbe58ad46c4f22fba584efb70a184cb35c96409282ef7be891aa844cb1926d3d97c095b2ed8bc14952b1b"
  },
  {
    "id": 5,
    "description": "Call opcode call fail & call correct",
    "arity": 4,
    "chainIdSequencer": 1001,
    "defaultChainId": 1000,
    "sequencerAddress": "0x617b3a3528F9cDd6630fd3301B9c8911F7Bf063D",
    "sequencerPvtKey": "0x28b2b0318721be8c8339199172cd7cc8f5e273800a35616ec893083a4b32c02e",
    "genesis": {
      "accounts": [
        {
          "address": "0x617b3a3528F9cDd6630fd3301B9c8911F7Bf063D",
          "pvtKey": "0x28b2b0318721be8c8339199172cd7cc8f5e273800a35616ec893083a4b32c02e",
          "balance": "100000000000000000000",
          "nonce": "0"
        },
        {
          "address": "0x4d5Cf5032B2a844602278b01199ED191A86c93ff",
          "pvtKey": "0x4d27a600dce8c29b7bd080e29a26972377dbb04d7a27d919adbb602bf13cfd23",
          "balance": "200000000000000000000",
          "nonce": "0"
        }
      ],
      "contracts": [
        {
          "contractName": "OpCallAux",
          "paramsDeploy": {}
        },
        {
          "contractName": "OpCall",
          "paramsDeploy": {}
        }
      ]
    },
    "expectedOldRoot": "0xf619be40d82b9fc735c96eae559623e9a1f134c090a53af913162c18c253cdc6",
    "txs": [
      {
        "from": "0x617b3a3528F9cDd6630fd3301B9c8911F7Bf063D",
        "to": "contract",
        "nonce": "0",
        "value": "0",
        "contractName": "OpCall",
        "function": "opCallFail",
        "params": [
          "0x1275fbb540c8efc58b812ba83b0d0b8b9917ae98"
        ],
        "gasLimit": 1000000,
        "gasPrice": "1000000000",
        "chainId": 1001
      },
      {
        "from": "0x4d5Cf5032B2a844602278b01199ED191A86c93ff",
        "to": "contract",
        "nonce": "0",
        "value": "0",
        "contractName": "OpCall",
        "function": "opCallOpcode",
        "params": [
          "0x1275fbb540c8efc58b812ba83b0d0b8b9917ae98"
        ],
        "gasLimit": 1000000,
        "gasPrice": "1000000000",
        "chainId": 1001
      }
    ],
    "expectedNewRoot": "0x6f2db830c2c972b6c1149764897b2ab3b88b0790d004bdd058e0481125e00f1f",
    "expectedNewLeafs": {
      "0x617b3a3528F9cDd6630fd3301B9c8911F7Bf063D": {
        "balance": "100000069141000000000",
        "nonce": "1",
        "storage": null,
        "hashBytecode": "0x0000000000000000000000000000000000000000000000000000000000000000"
      },
      "0x4d5Cf5032B2a844602278b01199ED191A86c93ff": {
        "balance": "199999930859000000000",
        "nonce": "1",
        "storage": null,
        "hashBytecode": "0x0000000000000000000000000000000000000000000000000000000000000000"
      },
      "0x1275fbb540c8efc58b812ba83b0d0b8b9917ae98": {
        "balance": "0",
        "nonce": "1",
        "storage": {
          "0x0000000000000000000000000000000000000000000000000000000000000000": "0x12121212121212121212"
        },
        "hashBytecode": "0x60400ad749a9ad8a0981f8bec859228da1dec283244ed60e3cf0205896a511a7"
      },
      "0x85e844b762a271022b692cf99ce5c59ba0650ac8": {
        "balance": "0",
        "nonce": "1",
        "storage": {
          "0x0000000000000000000000000000000000000000000000000000000000000001": "0x012345668900000000000000000000000000000000000000000000"
        },
        "hashBytecode": "0x6b04eb90b9869e15f06e749631a9736c46b50ef4d32dc06c430aee748786d4c7"
      }
    },
    "timestamp": 1944498031,
    "newLocalExitRoot": "0x0000000000000000000000000000000000000000000000000000000000000000",
    "batchHashData": "0x929a6bbeca495c1d6fbd893c911b6ed34b22e9b44ce0e130219d7f97ff54d608",
    "inputHash": "0x95d87c1b4cb1b00d177c84fdda2630c02d7765ea139bd1c3820af4fa868a4afa",
    "globalExitRoot": "0x090bcaf734c4f06c93954a827b45a6e8c67b8e0fd1e0a35a1c5982d6961828f9",
    "oldLocalExitRoot": "0x0000000000000000000000000000000000000000000000000000000000000000",
    "batchL2Data": "0xf84a80843b9aca00830f42409485e844b762a271022b692cf99ce5c59ba0650ac880a47b4fdd7a0000000000000000000000001275fbb540c8efc58b812ba83b0d0b8b9917ae988203e9808023c04ff807474776a1dbd6b8ac00420b9070a4d975697f89aafbc40be3c67bcd0b2e154c828a8d323d6ddd00ed47565cc50587a590de77e135bc322f18daa2701cf84a80843b9aca00830f42409485e844b762a271022b692cf99ce5c59ba0650ac880a4336657550000000000000000000000001275fbb540c8efc58b812ba83b0d0b8b9917ae988203e98080178e3fc670d5eb8826bd00f494cd5bd70de94de0949a5b4a753c4d6a2663fcaa38b336c8b5a197d8a870f790eb8131996b11c2c9378de334b58ba423b339b5831b"
  },
  {
    "id": 6,
    "description": "Call opcode call fail & call correct",
    "arity": 4,
    "chainIdSequencer": 1001,
    "defaultChainId": 1000,
    "sequencerAddress": "0x617b3a3528F9cDd6630fd3301B9c8911F7Bf063D",
    "sequencerPvtKey": "0x28b2b0318721be8c8339199172cd7cc8f5e273800a35616ec893083a4b32c02e",
    "genesis": {
      "accounts": [
        {
          "address": "0x617b3a3528F9cDd6630fd3301B9c8911F7Bf063D",
          "pvtKey": "0x28b2b0318721be8c8339199172cd7cc8f5e273800a35616ec893083a4b32c02e",
          "balance": "100000000000000000000",
          "nonce": "0"
        },
        {
          "address": "0x4d5Cf5032B2a844602278b01199ED191A86c93ff",
          "pvtKey": "0x4d27a600dce8c29b7bd080e29a26972377dbb04d7a27d919adbb602bf13cfd23",
          "balance": "200000000000000000000",
          "nonce": "0"
        }
      ],
      "contracts": [
        {
          "contractName": "OpCallAux",
          "paramsDeploy": {}
        },
        {
          "contractName": "OpCall",
          "paramsDeploy": {}
        }
      ]
    },
    "expectedOldRoot": "0xf619be40d82b9fc735c96eae559623e9a1f134c090a53af913162c18c253cdc6",
    "txs": [
      {
        "from": "0x617b3a3528F9cDd6630fd3301B9c8911F7Bf063D",
        "to": "contract",
        "nonce": "0",
        "value": "0",
        "contractName": "OpCall",
        "function": "opCallOpcode",
        "params": [
          "0x1275fbb540c8efc58b812ba83b0d0b8b9917ae98"
        ],
        "gasLimit": 1000000,
        "gasPrice": "1000000000",
        "chainId": 1001
      },
      {
        "from": "0x617b3a3528F9cDd6630fd3301B9c8911F7Bf063D",
        "to": "contract",
        "nonce": "1",
        "value": "0",
        "contractName": "OpCall",
        "function": "opCallFail",
        "params": [
          "0x1275fbb540c8efc58b812ba83b0d0b8b9917ae98"
        ],
        "gasLimit": 1000000,
        "gasPrice": "1000000000",
        "chainId": 1001
      }
    ],
    "expectedNewRoot": "0xac65455279def27915a6c21d9fc6d804d819c90818229a7fb7f52e7d07e757cc",
    "expectedNewLeafs": {
      "0x617b3a3528F9cDd6630fd3301B9c8911F7Bf063D": {
        "balance": "100000000000000000000",
        "nonce": "2",
        "storage": null,
        "hashBytecode": "0x0000000000000000000000000000000000000000000000000000000000000000"
      },
      "0x4d5Cf5032B2a844602278b01199ED191A86c93ff": {
        "balance": "200000000000000000000",
        "nonce": "0",
        "storage": null,
        "hashBytecode": "0x0000000000000000000000000000000000000000000000000000000000000000"
      },
      "0x1275fbb540c8efc58b812ba83b0d0b8b9917ae98": {
        "balance": "0",
        "nonce": "1",
        "storage": {
          "0x0000000000000000000000000000000000000000000000000000000000000000": "0x12121212121212121212"
        },
        "hashBytecode": "0x60400ad749a9ad8a0981f8bec859228da1dec283244ed60e3cf0205896a511a7"
      },
      "0x85e844b762a271022b692cf99ce5c59ba0650ac8": {
        "balance": "0",
        "nonce": "1",
        "storage": {
          "0x0000000000000000000000000000000000000000000000000000000000000001": "0x012345668900000000000000000000000000000000000000000000"
        },
        "hashBytecode": "0x6b04eb90b9869e15f06e749631a9736c46b50ef4d32dc06c430aee748786d4c7"
      }
    },
    "timestamp": 1944498031,
    "newLocalExitRoot": "0x0000000000000000000000000000000000000000000000000000000000000000",
    "batchHashData": "0x2d1b05940196c6fae5b18c3636b15783197a0f2ab7546e1844df7233a8ef92bc",
    "inputHash": "0xa325e847177482e8a7d872ae625e47c135622d1d7829c3bc24897bd2ce669b69",
    "globalExitRoot": "0x090bcaf734c4f06c93954a827b45a6e8c67b8e0fd1e0a35a1c5982d6961828f9",
    "oldLocalExitRoot": "0x0000000000000000000000000000000000000000000000000000000000000000",
    "batchL2Data": "0xf84a80843b9aca00830f42409485e844b762a271022b692cf99ce5c59ba0650ac880a4336657550000000000000000000000001275fbb540c8efc58b812ba83b0d0b8b9917ae988203e98080cda0ab3f504aa6af8d3c382ac1262fea2e365bec3045acbe58ad46c4f22fba584efb70a184cb35c96409282ef7be891aa844cb1926d3d97c095b2ed8bc14952b1bf84a01843b9aca00830f42409485e844b762a271022b692cf99ce5c59ba0650ac880a47b4fdd7a0000000000000000000000001275fbb540c8efc58b812ba83b0d0b8b9917ae988203e9808000582744a12df012666021dbc60e45e234b2d964bdaa63243de8e6496652948952d32a80e0856c3ce9bd6152496559931a27426e51403be302f5466767bdebeb1b"
  }
]